{"contracts/EscrowContract.sol":{"EscrowContract":{"abi":[{"inputs":[],"stateMutability":"nonpayable","type":"constructor"},{"anonymous":false,"inputs":[{"indexed":false,"internalType":"address","name":"previousAdmin","type":"address"},{"indexed":false,"internalType":"address","name":"newAdmin","type":"address"}],"name":"AdminChanged","type":"event"},{"anonymous":false,"inputs":[{"indexed":true,"internalType":"address","name":"beacon","type":"address"}],"name":"BeaconUpgraded","type":"event"},{"anonymous":false,"inputs":[{"indexed":true,"internalType":"bytes32","name":"requestId","type":"bytes32"},{"indexed":true,"internalType":"address","name":"initiator","type":"address"},{"indexed":false,"internalType":"string","name":"reason","type":"string"}],"name":"DisputeRaised","type":"event"},{"anonymous":false,"inputs":[{"indexed":true,"internalType":"bytes32","name":"requestId","type":"bytes32"},{"indexed":true,"internalType":"address","name":"resolver","type":"address"},{"indexed":false,"internalType":"bool","name":"userFavored","type":"bool"},{"indexed":false,"internalType":"string","name":"resolution","type":"string"}],"name":"DisputeResolved","type":"event"},{"anonymous":false,"inputs":[{"indexed":true,"internalType":"bytes32","name":"requestId","type":"bytes32"},{"indexed":false,"internalType":"string","name":"reason","type":"string"}],"name":"EscrowCancelled","type":"event"},{"anonymous":false,"inputs":[{"indexed":true,"internalType":"bytes32","name":"requestId","type":"bytes32"},{"indexed":true,"internalType":"address","name":"user","type":"address"},{"indexed":true,"internalType":"address","name":"verifier","type":"address"},{"indexed":false,"internalType":"uint256","name":"amount","type":"uint256"}],"name":"EscrowCreated","type":"event"},{"anonymous":false,"inputs":[{"indexed":true,"internalType":"bytes32","name":"requestId","type":"bytes32"},{"indexed":false,"internalType":"uint256","name":"fraudScore","type":"uint256"},{"indexed":false,"internalType":"bool","name":"fraudDetected","type":"bool"}],"name":"FraudCheckCompleted","type":"event"},{"anonymous":false,"inputs":[{"indexed":true,"internalType":"bytes32","name":"requestId","type":"bytes32"},{"indexed":false,"internalType":"uint256","name":"amount","type":"uint256"},{"indexed":false,"internalType":"uint256","name":"expiresAt","type":"uint256"}],"name":"FundsLocked","type":"event"},{"anonymous":false,"inputs":[{"indexed":true,"internalType":"bytes32","name":"requestId","type":"bytes32"},{"indexed":true,"internalType":"address","name":"verifier","type":"address"},{"indexed":false,"internalType":"uint256","name":"amount","type":"uint256"},{"indexed":false,"internalType":"uint256","name":"platformFee","type":"uint256"}],"name":"FundsReleased","type":"event"},{"anonymous":false,"inputs":[{"indexed":false,"internalType":"uint8","name":"version","type":"uint8"}],"name":"Initialized","type":"event"},{"anonymous":false,"inputs":[{"indexed":false,"internalType":"address","name":"account","type":"address"}],"name":"Paused","type":"event"},{"anonymous":false,"inputs":[{"indexed":true,"internalType":"bytes32","name":"requestId","type":"bytes32"},{"indexed":true,"internalType":"address","name":"user","type":"address"},{"indexed":false,"internalType":"uint256","name":"amount","type":"uint256"}],"name":"RefundIssued","type":"event"},{"anonymous":false,"inputs":[{"indexed":true,"internalType":"bytes32","name":"role","type":"bytes32"},{"indexed":true,"internalType":"bytes32","name":"previousAdminRole","type":"bytes32"},{"indexed":true,"internalType":"bytes32","name":"newAdminRole","type":"bytes32"}],"name":"RoleAdminChanged","type":"event"},{"anonymous":false,"inputs":[{"indexed":true,"internalType":"bytes32","name":"role","type":"bytes32"},{"indexed":true,"internalType":"address","name":"account","type":"address"},{"indexed":true,"internalType":"address","name":"sender","type":"address"}],"name":"RoleGranted","type":"event"},{"anonymous":false,"inputs":[{"indexed":true,"internalType":"bytes32","name":"role","type":"bytes32"},{"indexed":true,"internalType":"address","name":"account","type":"address"},{"indexed":true,"internalType":"address","name":"sender","type":"address"}],"name":"RoleRevoked","type":"event"},{"anonymous":false,"inputs":[{"indexed":false,"internalType":"address","name":"account","type":"address"}],"name":"Unpaused","type":"event"},{"anonymous":false,"inputs":[{"indexed":true,"internalType":"address","name":"implementation","type":"address"}],"name":"Upgraded","type":"event"},{"anonymous":false,"inputs":[{"indexed":true,"internalType":"bytes32","name":"requestId","type":"bytes32"},{"indexed":true,"internalType":"address","name":"verifier","type":"address"},{"indexed":false,"internalType":"string","name":"verificationData","type":"string"}],"name":"VerificationSubmitted","type":"event"},{"inputs":[],"name":"ADMIN_ROLE","outputs":[{"internalType":"bytes32","name":"","type":"bytes32"}],"stateMutability":"view","type":"function"},{"inputs":[],"name":"DEFAULT_ADMIN_ROLE","outputs":[{"internalType":"bytes32","name":"","type":"bytes32"}],"stateMutability":"view","type":"function"},{"inputs":[],"name":"DISPUTE_RESOLVER_ROLE","outputs":[{"internalType":"bytes32","name":"","type":"bytes32"}],"stateMutability":"view","type":"function"},{"inputs":[],"name":"ORACLE_ROLE","outputs":[{"internalType":"bytes32","name":"","type":"bytes32"}],"stateMutability":"view","type":"function"},{"inputs":[],"name":"UPGRADER_ROLE","outputs":[{"internalType":"bytes32","name":"","type":"bytes32"}],"stateMutability":"view","type":"function"},{"inputs":[{"internalType":"bytes32","name":"requestId","type":"bytes32"}],"name":"cancelExpiredEscrow","outputs":[],"stateMutability":"nonpayable","type":"function"},{"inputs":[{"internalType":"bytes32","name":"requestId","type":"bytes32"},{"internalType":"uint256","name":"riskScore","type":"uint256"},{"internalType":"bool","name":"isFraud","type":"bool"}],"name":"completeFraudCheck","outputs":[],"stateMutability":"nonpayable","type":"function"},{"inputs":[{"internalType":"bytes32","name":"requestId","type":"bytes32"},{"internalType":"address","name":"verifier","type":"address"}],"name":"createEscrow","outputs":[],"stateMutability":"payable","type":"function"},{"inputs":[],"name":"disputeTimeout","outputs":[{"internalType":"uint256","name":"","type":"uint256"}],"stateMutability":"view","type":"function"},{"inputs":[{"internalType":"bytes32","name":"","type":"bytes32"}],"name":"disputes","outputs":[{"internalType":"bytes32","name":"requestId","type":"bytes32"},{"internalType":"address","name":"initiator","type":"address"},{"internalType":"string","name":"reason","type":"string"},{"internalType":"uint256","name":"createdAt","type":"uint256"},{"internalType":"uint256","name":"resolvedAt","type":"uint256"},{"internalType":"address","name":"resolver","type":"address"},{"internalType":"bool","name":"userFavored","type":"bool"},{"internalType":"string","name":"resolution","type":"string"}],"stateMutability":"view","type":"function"},{"inputs":[],"name":"emergencyWithdraw","outputs":[],"stateMutability":"nonpayable","type":"function"},{"inputs":[{"internalType":"bytes32","name":"","type":"bytes32"}],"name":"escrowRequests","outputs":[{"internalType":"bytes32","name":"requestId","type":"bytes32"},{"internalType":"address","name":"user","type":"address"},{"internalType":"address","name":"verifier","type":"address"},{"internalType":"uint256","name":"amount","type":"uint256"},{"internalType":"uint256","name":"createdAt","type":"uint256"},{"internalType":"uint256","name":"expiresAt","type":"uint256"},{"internalType":"enum EscrowContract.EscrowStatus","name":"status","type":"uint8"},{"internalType":"string","name":"verificationData","type":"string"},{"internalType":"uint256","name":"fraudScore","type":"uint256"},{"internalType":"bool","name":"fraudDetected","type":"bool"},{"internalType":"enum EscrowContract.DisputeStatus","name":"disputeStatus","type":"uint8"},{"internalType":"string","name":"disputeReason","type":"string"},{"internalType":"address","name":"disputeResolver","type":"address"},{"internalType":"uint256","name":"resolvedAt","type":"uint256"}],"stateMutability":"view","type":"function"},{"inputs":[],"name":"escrowTimeout","outputs":[{"internalType":"uint256","name":"","type":"uint256"}],"stateMutability":"view","type":"function"},{"inputs":[],"name":"feeRecipient","outputs":[{"internalType":"address","name":"","type":"address"}],"stateMutability":"view","type":"function"},{"inputs":[],"name":"fraudDetection","outputs":[{"internalType":"contract IFraudDetection","name":"","type":"address"}],"stateMutability":"view","type":"function"},{"inputs":[],"name":"fraudThreshold","outputs":[{"internalType":"uint256","name":"","type":"uint256"}],"stateMutability":"view","type":"function"},{"inputs":[{"internalType":"bytes32","name":"requestId","type":"bytes32"}],"name":"getDispute","outputs":[{"components":[{"internalType":"bytes32","name":"requestId","type":"bytes32"},{"internalType":"address","name":"initiator","type":"address"},{"internalType":"string","name":"reason","type":"string"},{"internalType":"uint256","name":"createdAt","type":"uint256"},{"internalType":"uint256","name":"resolvedAt","type":"uint256"},{"internalType":"address","name":"resolver","type":"address"},{"internalType":"bool","name":"userFavored","type":"bool"},{"internalType":"string","name":"resolution","type":"string"}],"internalType":"struct EscrowContract.DisputeInfo","name":"","type":"tuple"}],"stateMutability":"view","type":"function"},{"inputs":[{"internalType":"bytes32","name":"requestId","type":"bytes32"}],"name":"getEscrowRequest","outputs":[{"components":[{"internalType":"bytes32","name":"requestId","type":"bytes32"},{"internalType":"address","name":"user","type":"address"},{"internalType":"address","name":"verifier","type":"address"},{"internalType":"uint256","name":"amount","type":"uint256"},{"internalType":"uint256","name":"createdAt","type":"uint256"},{"internalType":"uint256","name":"expiresAt","type":"uint256"},{"internalType":"enum EscrowContract.EscrowStatus","name":"status","type":"uint8"},{"internalType":"string","name":"verificationData","type":"string"},{"internalType":"uint256","name":"fraudScore","type":"uint256"},{"internalType":"bool","name":"fraudDetected","type":"bool"},{"internalType":"enum EscrowContract.DisputeStatus","name":"disputeStatus","type":"uint8"},{"internalType":"string","name":"disputeReason","type":"string"},{"internalType":"address","name":"disputeResolver","type":"address"},{"internalType":"uint256","name":"resolvedAt","type":"uint256"}],"internalType":"struct EscrowContract.EscrowRequest","name":"","type":"tuple"}],"stateMutability":"view","type":"function"},{"inputs":[{"internalType":"bytes32","name":"role","type":"bytes32"}],"name":"getRoleAdmin","outputs":[{"internalType":"bytes32","name":"","type":"bytes32"}],"stateMutability":"view","type":"function"},{"inputs":[{"internalType":"bytes32","name":"role","type":"bytes32"},{"internalType":"address","name":"account","type":"address"}],"name":"grantRole","outputs":[],"stateMutability":"nonpayable","type":"function"},{"inputs":[{"internalType":"bytes32","name":"role","type":"bytes32"},{"internalType":"address","name":"account","type":"address"}],"name":"hasRole","outputs":[{"internalType":"bool","name":"","type":"bool"}],"stateMutability":"view","type":"function"},{"inputs":[{"internalType":"address","name":"admin","type":"address"},{"internalType":"address","name":"_verifierMarketplace","type":"address"},{"internalType":"address","name":"_fraudDetection","type":"address"},{"internalType":"address","name":"_paymentToken","type":"address"},{"internalType":"address","name":"_feeRecipient","type":"address"}],"name":"initialize","outputs":[],"stateMutability":"nonpayable","type":"function"},{"inputs":[{"internalType":"bytes32","name":"requestId","type":"bytes32"}],"name":"lockFunds","outputs":[],"stateMutability":"nonpayable","type":"function"},{"inputs":[],"name":"pause","outputs":[],"stateMutability":"nonpayable","type":"function"},{"inputs":[],"name":"paused","outputs":[{"internalType":"bool","name":"","type":"bool"}],"stateMutability":"view","type":"function"},{"inputs":[],"name":"paymentToken","outputs":[{"internalType":"contract IERC20","name":"","type":"address"}],"stateMutability":"view","type":"function"},{"inputs":[],"name":"platformFeePercentage","outputs":[{"internalType":"uint256","name":"","type":"uint256"}],"stateMutability":"view","type":"function"},{"inputs":[],"name":"proxiableUUID","outputs":[{"internalType":"bytes32","name":"","type":"bytes32"}],"stateMutability":"view","type":"function"},{"inputs":[{"internalType":"bytes32","name":"requestId","type":"bytes32"},{"internalType":"string","name":"reason","type":"string"}],"name":"raiseDispute","outputs":[],"stateMutability":"nonpayable","type":"function"},{"inputs":[{"internalType":"bytes32","name":"role","type":"bytes32"},{"internalType":"address","name":"account","type":"address"}],"name":"renounceRole","outputs":[],"stateMutability":"nonpayable","type":"function"},{"inputs":[{"internalType":"bytes32","name":"requestId","type":"bytes32"},{"internalType":"bool","name":"userFavored","type":"bool"},{"internalType":"string","name":"resolution","type":"string"}],"name":"resolveDispute","outputs":[],"stateMutability":"nonpayable","type":"function"},{"inputs":[{"internalType":"bytes32","name":"role","type":"bytes32"},{"internalType":"address","name":"account","type":"address"}],"name":"revokeRole","outputs":[],"stateMutability":"nonpayable","type":"function"},{"inputs":[{"internalType":"bytes32","name":"requestId","type":"bytes32"},{"internalType":"string","name":"verificationData","type":"string"}],"name":"submitVerification","outputs":[],"stateMutability":"nonpayable","type":"function"},{"inputs":[{"internalType":"bytes4","name":"interfaceId","type":"bytes4"}],"name":"supportsInterface","outputs":[{"internalType":"bool","name":"","type":"bool"}],"stateMutability":"view","type":"function"},{"inputs":[],"name":"totalAmountEscrowed","outputs":[{"internalType":"uint256","name":"","type":"uint256"}],"stateMutability":"view","type":"function"},{"inputs":[],"name":"totalDisputesRaised","outputs":[{"internalType":"uint256","name":"","type":"uint256"}],"stateMutability":"view","type":"function"},{"inputs":[],"name":"totalEscrowsCreated","outputs":[{"internalType":"uint256","name":"","type":"uint256"}],"stateMutability":"view","type":"function"},{"inputs":[],"name":"totalFraudDetected","outputs":[{"internalType":"uint256","name":"","type":"uint256"}],"stateMutability":"view","type":"function"},{"inputs":[],"name":"unpause","outputs":[],"stateMutability":"nonpayable","type":"function"},{"inputs":[{"internalType":"uint256","name":"_disputeTimeout","type":"uint256"}],"name":"updateDisputeTimeout","outputs":[],"stateMutability":"nonpayable","type":"function"},{"inputs":[{"internalType":"uint256","name":"_escrowTimeout","type":"uint256"}],"name":"updateEscrowTimeout","outputs":[],"stateMutability":"nonpayable","type":"function"},{"inputs":[{"internalType":"address","name":"_feeRecipient","type":"address"}],"name":"updateFeeRecipient","outputs":[],"stateMutability":"nonpayable","type":"function"},{"inputs":[{"internalType":"uint256","name":"_fraudThreshold","type":"uint256"}],"name":"updateFraudThreshold","outputs":[],"stateMutability":"nonpayable","type":"function"},{"inputs":[{"internalType":"uint256","name":"_platformFeePercentage","type":"uint256"}],"name":"updatePlatformFee","outputs":[],"stateMutability":"nonpayable","type":"function"},{"inputs":[{"internalType":"address","name":"newImplementation","type":"address"}],"name":"upgradeTo","outputs":[],"stateMutability":"nonpayable","type":"function"},{"inputs":[{"internalType":"address","name":"newImplementation","type":"address"},{"internalType":"bytes","name":"data","type":"bytes"}],"name":"upgradeToAndCall","outputs":[],"stateMutability":"payable","type":"function"},{"inputs":[{"internalType":"address","name":"","type":"address"}],"name":"userRefunds","outputs":[{"internalType":"uint256","name":"","type":"uint256"}],"stateMutability":"view","type":"function"},{"inputs":[{"internalType":"address","name":"","type":"address"}],"name":"verifierEarnings","outputs":[{"internalType":"uint256","name":"","type":"uint256"}],"stateMutability":"view","type":"function"},{"inputs":[],"name":"verifierMarketplace","outputs":[{"internalType":"contract IVerifierMarketplace","name":"","type":"address"}],"stateMutability":"view","type":"function"},{"inputs":[],"name":"withdrawEarnings","outputs":[],"stateMutability":"nonpayable","type":"function"},{"inputs":[],"name":"withdrawRefund","outputs":[],"stateMutability":"nonpayable","type":"function"},{"stateMutability":"payable","type":"receive"}],"evm":{"bytecode":{"linkReferences":{},"object":"60a08060405234620000e157306080526000549060ff8260081c166200008f575060ff8082160362000053575b6040516147919081620000e782396080518181816128b1015281816129b00152612d030152f35b60ff90811916176000557f7f26b83ff96e1f2b6a682f133852f6798a09c465da95921460cefb3847402498602060405160ff8152a1386200002c565b62461bcd60e51b815260206004820152602760248201527f496e697469616c697a61626c653a20636f6e747261637420697320696e697469604482015266616c697a696e6760c81b6064820152608490fd5b600080fdfe608080604052600436101561001d575b50361561001b57600080fd5b005b60003560e01c90816301ffc9a7146137535750806307e2cea514613718578063110f88741461368d57806311be1997146135e0578063136ba6aa146134925780631459457a14613028578063248a9ca314612ff95780632f2ff15d14612f585780633013ce2914612f2e57806336568abe14612e9c5780633659cfe614612cde5780633f4ba83a14612c4a5780634690484014612c205780634f1ef2861461296257806352d1902d1461289e5780635b4e9a421461287c5780635c975abb146128595780635f5b79901461283a578063605c6d631461281b578063613df47c146127f15780636d038770146126d957806375b238fc1461269e578063795e0a79146121215780638456cb59146120c7578063882cc8b3146120a8578063883f3d961461206d57806391d14854146120205780639ab2026914611dcf5780639cbeb6c114611cee5780639d4f89d214611ccf578063a217fddf14611cb3578063a4b66f0314611c44578063a86a08d514611a5c578063aa0b5988146119f4578063b5c608b7146119ca578063b73c6ce91461193d578063be7b8a77146113a3578063bfe42a3714611368578063c04c22a414611349578063cdd78cfc1461132a578063d547741f146112eb578063db2e21bc14610ff3578063e61b13e114610e2f578063e6db070714610df4578063e772e51414610b4e578063e84a571c14610b2c578063ed74d26e14610b0d578063edbc4d1414610aee578063f160d36914610aab578063f421db5d1461029b5763f72c0d8b1461025b573861000f565b346102965760003660031901126102965760206040517f189ab7a9244df0848122154315af71fe140f3db0fe014031783b0946b8c9d2e38152f35b600080fd5b6040366003190112610296576102af6139a9565b6102b7614407565b6102bf61444b565b60043515610a71576001600160a01b03811615610a2c576004356000526101676020526040600020546109ef5761015f5460405163059ce95d60e01b81526001600160a01b0383811660048301529091169190600081602481865afa90811561088957600091610955575b501561091a57604051636ded3ad560e11b81526001600160a01b038216600482015291602090839060249082905afa918215610889576000926108e6575b50610161546001600160a01b0316806107c457509034106107885734905b610393610162544261422d565b604051906103a0826137fc565b600435825233602083015260018060a01b038316604083015283606083015242608083015260a0820152600060c08201526040516103dd81613818565b6000815260e082015260006101008201526000610120820152600061014082015260405161040a81613818565b60008152610160820152600061018082015260006101a08201526004356000526101676020526040600020908051825560018060a01b036020820151166001600160601b0360a01b6001840154161760018301556002820160018060a01b036040830151166001600160601b0360a01b825416179055606081015160038301556080810151600483015560a081015160058301556006820160c082015160088110156106f55760ff8019835416911617905560e08101518051906001600160401b0382116106df5781906104ee826104e560078801546137a6565b600788016143a4565b602090601f83116001146107165760009261070b575b50508160011b916000199060031b1c19161760078301555b6101008101516008830155600982016105486101208301511515829060ff801983541691151516179055565b61014082015160048110156106f55761ff0082549160081b169061ff0019161790556101608101518051906001600160401b0382116106df5761059b82610592600a8701546137a6565b600a87016143a4565b602090601f8311600114610669579180600c94926101a09460009261065e575b50508160011b916000199060031b1c191617600a8501555b600b840160018060a01b03610180830151166001600160601b0360a01b825416179055015191015561016b61060881546143f8565b905561016c61061883825461422d565b90556040519182526001600160a01b0316903390600435907f0dd968c277d9dc6b36b6ec2b638324c3d937882c64ca109440bc050ebf26cb0790602090a4600161012d55005b0151905088806105bb565b90600a850160005260206000209160005b601f19851681106106c7575092600c94926001926101a09583601f198116106106ae575b505050811b01600a8501556105d3565b015160001960f88460031b161c1916905588808061069e565b9192602060018192868501518155019401920161067a565b634e487b7160e01b600052604160045260246000fd5b634e487b7160e01b600052602160045260246000fd5b015190508680610504565b9250600785016000526020600020906000935b601f198416851061076d576001945083601f19811610610754575b505050811b01600783015561051c565b015160001960f88460031b161c19169055868080610744565b81810151835560209485019460019093019290910190610729565b60405162461bcd60e51b8152602060048201526014602482015273125b9cdd59999a58da595b9d081c185e5b595b9d60621b6044820152606490fd5b3461089557602060009160648560405194859384926323b872dd60e01b845233600485015230602485015260448401525af19081156108895760009161084f575b506103865760405162461bcd60e51b815260206004820152601760248201527f5061796d656e74207472616e73666572206661696c65640000000000000000006044820152606490fd5b90506020813d602011610881575b8161086a60209383613884565b810103126102965761087b90614397565b83610805565b3d915061085d565b6040513d6000823e3d90fd5b60405162461bcd60e51b8152602060048201526024808201527f4e6f206e61746976652063757272656e637920666f7220746f6b656e207061796044820152631b595b9d60e21b6064820152608490fd5b9091506020813d602011610912575b8161090260209383613884565b8101031261029657519082610368565b3d91506108f5565b60405162461bcd60e51b81526020600482015260136024820152725665726966696572206e6f742061637469766560681b6044820152606490fd5b90503d806000833e6109678183613884565b8101610120828203126102965781516001600160a01b038116036102965761099160c08301614397565b9160e0810151906001600160401b038211610296570181601f82011215610296578051906109be826139bf565b926109cc6040519485613884565b82845260208383010111610296576020806109e99401910161394b565b8361032a565b60405162461bcd60e51b8152602060048201526015602482015274457363726f7720616c72656164792065786973747360581b6044820152606490fd5b60405162461bcd60e51b815260206004820152601860248201527f496e76616c6964207665726966696572206164647265737300000000000000006044820152606490fd5b60405162461bcd60e51b8152602060048201526012602482015271125b9d985b1a59081c995c5d595cdd08125160721b6044820152606490fd5b3461029657602036600319011261029657610ac4613993565b610acc613c5b565b61016680546001600160a01b0319166001600160a01b03909216919091179055005b3461029657600036600319011261029657602061016e54604051908152f35b3461029657600036600319011261029657602061016c54604051908152f35b3461029657602036600319011261029657610b45613c5b565b60043561016255005b3461029657610b5c36613a58565b610b67929192614407565b8160005261016791602091838352604060002060018060a01b036002820154163303610da557600681019560ff8754169160088310156106f5576001809303610d6057610bba60058201544211156144a2565b8315610d11576007016001600160401b0384116106df57838593610be882610be285546137a6565b856143a4565b6000601f8311600114610c81579180610c5994927f03115ef48405aed01f38b4ffd9972f946bcef90d3f19063bc78a65978605c6bb9694600093610c76575b501b906000198860031b1c19161790555b60ff199860028a8254161790556040519182918883523396898401916144df565b0390a3600052526003600660406000200191825416179055600080f35b85013592508d610c27565b60008481528981209293508790601f198216905b8b828210610cf757505091610c599593917f03115ef48405aed01f38b4ffd9972f946bcef90d3f19063bc78a65978605c6bb97959310610cdd575b505086811b019055610c38565b84013560001960038a901b60f8161c191690558b80610cd0565b8489013586558b995094860194938401938a935001610c95565b60405162461bcd60e51b815260048101879052602160248201527f566572696669636174696f6e20646174612063616e6e6f7420626520656d70746044820152607960f81b6064820152608490fd5b60405162461bcd60e51b815260048101879052601d60248201527f496e76616c69642073746174757320666f72207375626d697373696f6e0000006044820152606490fd5b60405162461bcd60e51b815260048101859052602160248201527f4f6e6c792061737369676e65642076657269666965722063616e207375626d696044820152601d60fa1b6064820152608490fd5b34610296576020366003190112610296576001600160a01b03610e15613993565b1660005261016a6020526020604060002054604051908152f35b34610296576060366003190112610296576004356024356044358015159081810361029657610e5c613d94565b610e64614407565b83600052610167602091818352604060002060ff60068201541660088110156106f557600303610fae579181610ed58795936009867fd5bb6af7d4f5c5e8947f901c0fd7777f3a7574caf63ccc2f4e9ae8252d0f552c9a600860409b990155019060ff801983541691151516179055565b15610f9f5761016e610ee781546143f8565b90557f46726175642064657465637465642062792041492073797374656d0000000000828651610f168161384e565b601b8152015286600052815283600020867ff8590cd6b8c44be7a2bc57131f10e203ec5f7d7f2f761e1508a8cc964ecb9eb78360038401938454906006600182019160018060a01b0393848454166000526101698652610f7b8d60002091825461422d565b905501600660ff19825416179055541693548851908152a35b8351928352820152a2005b50610fa986614500565b610f94565b60405162461bcd60e51b815260048101859052601e60248201527f496e76616c69642073746174757320666f7220667261756420636865636b00006044820152606490fd5b34610296576000366003190112610296573360009081527fffdfc1249c027f9191656349feb0761381bb32c9f557e01f419fd08754bf5a1b602090815260409091205460ff16156111625761104661444b565b610161546001600160a01b0316908161108357505060008080804781811561107a575b3390f115610889575b600161012d55005b506108fc611069565b6040516370a0823160e01b8152306004820152918183602481845afa92831561088957600093611131575b5060405163a9059cbb60e01b815233600482015260248101939093528190839081600081604481015b03925af1908115610889576000916110fa575b506110f591506145d7565b611072565b905081813d831161112a575b6111108183613884565b81010312610296576111246110f591614397565b826110ea565b503d611106565b92508183813d831161115b575b6111488183613884565b81010312610296579151916110d76110ae565b503d61113e565b61116b3361424b565b90600060405161117a81613869565b604281528281019160603684378151156112d5576030835381516001908110156112d557607860218401536041905b80821161127b57505061124a57611216936112259260489260405196879360008051602061471c833981519152888601526111ed815180928a60378901910161394b565b8401917001034b99036b4b9b9b4b733903937b6329607d1b60378401525180938684019061394b565b01036028810185520183613884565b61124660405192839262461bcd60e51b84526004840152602483019061396e565b0390fd5b6064836040519062461bcd60e51b825280600483015260248201526000805160206146fc8339815191526044820152fd5b9091600f811660108110156112d5576f181899199a1a9b1b9c1cb0b131b232b360811b901a6112aa848661423a565b5360041c9180156112bf5760001901906111a9565b634e487b7160e01b600052601160045260246000fd5b634e487b7160e01b600052603260045260246000fd5b346102965760403660031901126102965761001b60043561130a6139a9565b90806000526065602052611325600160406000200154613ecd565b613fcc565b3461029657600036600319011261029657602061016554604051908152f35b3461029657600036600319011261029657602061016354604051908152f35b346102965760003660031901126102965760206040517f7b8bb8356a3f32f5c111ff23f050d97f08988e0883529ea7bff3b918887a6e0e8152f35b34610296576113b136613a58565b91906113bb614407565b81600052610167602052604060002060018060a01b0360018201541633148015611927575b156118d257600681019060ff82541660088110156106f557600281149081156118c7575b501561188257600981019081549160ff8360081c1660048110156106f5576118445786156117ff57610100600a9361ff001916179055016001600160401b0385116106df5761145d8561145783546137a6565b836143a4565b846000601f82116001146117995760009161178e575b508560011b906000198760031b1c19161790555b805460ff1916600417905560405161149e816137e0565b8281523360208201526114b23685846139da565b604082015242606082015260006080820152600060a0820152600060c08201526040516114de81613818565b6000815260e0820152826000526101686020526040600020815181556001810160018060a01b036020840151166001600160601b0360a01b82541617905560408201518051906001600160401b0382116106df5761154c8261154360028601546137a6565b600286016143a4565b602090601f831160011461171957918060e0949260069460009261170e575b50508160011b916000199060031b1c19161760028201555b606084015160038201556080840151600482015560a08085015160058301805460c08801516001600160a81b03199091166001600160a01b03939093169290921791151590921b60ff60a01b16179055019101518051906001600160401b0382116106df576115f682610be285546137a6565b602090601f831160011461168057918061167094927f49e53fd224357020766ce272815e8a15c300aace14a011cfcded9335798fbd0e9694600092611675575b50508160011b916000199060031b1c19161790555b61016d61165881546143f8565b905560405191829160208352339660208401916144df565b0390a3005b015190508880611636565b90601f198316918460005260206000209260005b8181106116f657509260019285927f49e53fd224357020766ce272815e8a15c300aace14a011cfcded9335798fbd0e98966116709896106116dd575b505050811b01905561164b565b015160001960f88460031b161c191690558880806116d0565b92936020600181928786015181550195019301611694565b01519050898061156b565b906002840160005260206000209160005b601f198516811061177657509260e0949260019260069583601f1981161061175d575b505050811b016002820155611583565b015160001960f88460031b161c1916905589808061174d565b9192602060018192868501518155019401920161172a565b905083013586611473565b60008381526020812092508790601f198216905b8181106117e45750106117ca575b5050600185811b019055611487565b840135600019600388901b60f8161c1916905585806117bb565b8784013585556001909401936020938401938a9350016117ad565b60405162461bcd60e51b815260206004820152601e60248201527f4469737075746520726561736f6e2063616e6e6f7420626520656d70747900006044820152606490fd5b60405162461bcd60e51b8152602060048201526016602482015275111a5cdc1d5d1948185b1c9958591e481c985a5cd95960521b6044820152606490fd5b60405162461bcd60e51b815260206004820152601a60248201527f496e76616c69642073746174757320666f7220646973707574650000000000006044820152606490fd5b600591501486611404565b60405162461bcd60e51b815260206004820152602760248201527f4f6e6c792075736572206f722076657269666965722063616e207261697365206044820152666469737075746560c81b6064820152608490fd5b5060028101546001600160a01b031633146113e0565b3461029657600036600319011261029657611956614407565b61195e61444b565b3360005261016a80602052604060002054801561198d5761107291336000526020526000604081205533614615565b60405162461bcd60e51b81526020600482015260156024820152744e6f206561726e696e677320617661696c61626c6560581b6044820152606490fd5b346102965760003660031901126102965761015f546040516001600160a01b039091168152602090f35b3461029657602036600319011261029657600435611a10613c5b565b6103e88111611a1f5761016555005b60405162461bcd60e51b81526020600482015260156024820152740a0d8c2e8ccdee4da40cccaca40e8dede40d0d2ced605b1b6044820152606490fd5b34610296576020806003193601126102965760043590611a7a614407565b8160005261016780825260406000206005810154421115611c0a576006015460ff1660088110156106f5578015908115611bff575b5015611bab576d115cd8dc9bddc8195e1c1a5c995960921b82604051611ad48161384e565b600e81520152826000528152817ff8590cd6b8c44be7a2bc57131f10e203ec5f7d7f2f761e1508a8cc964ecb9eb760406000209260038401938454906006600182019160018060a01b0393848454166000526101698652611b3b604060002091825461422d565b905501600660ff1982541617905554169354604051908152a37fe173efa1002dc96426573f832df7b93111bd0400b4e61ba7b2edd306b8e1f0e760405180611ba68160609060208152600e60208201526d115cd8dc9bddc8195e1c1a5c995960921b60408201520190565b0390a2005b60405162461bcd60e51b815260048101839052602660248201527f43616e6e6f742063616e63656c20657363726f7720696e2063757272656e742060448201526573746174757360d01b6064820152608490fd5b600191501484611aaf565b60405162461bcd60e51b8152600481018490526012602482015271115cd8dc9bddc81b9bdd08195e1c1a5c995960721b6044820152606490fd5b3461029657602036600319011261029657600435611c60613c5b565b60648111611c6e5761016455005b60405162461bcd60e51b815260206004820152601760248201527f496e76616c6964206672617564207468726573686f6c640000000000000000006044820152606490fd5b3461029657600036600319011261029657602060405160008152f35b3461029657600036600319011261029657602061016d54604051908152f35b3461029657602036600319011261029657600435611d0a613d94565b611d12614407565b8060005261016760205260406000206006810190815460ff811660088110156106f557611d8b576003827f37aff1eb3df35f85df91d58f1924918a122a79cab9b4e364c432cb66682c64b29460016005604096015494611d74864211156144a2565b60ff191617905501549082519182526020820152a2005b606460405162461bcd60e51b815260206004820152602060248201527f496e76616c69642073746174757320666f72206c6f636b696e672066756e64736044820152fd5b346102965760203660031901126102965760006101a0604051611df1816137fc565b8281528260208201528260408201528260608201528260808201528260a08201528260c0820152606060e08201528261010082015282610120820152826101408201526060610160820152826101808201520152600435600052610167602052604060002060405190611e63826137fc565b8054825260018101546001600160a01b03908116602084015260028201541660408301526003810154606083015260048101546080830152600581015460a0830152600681015460ff1660088110156106f55760c0830152611ec7600782016138a5565b60e0830152600881015461010083015260098101549060ff82161515610120840152600460ff8360081c1610156106f55760ff600c9260081c16610140840152611f13600a82016138a5565b61016084015260018060a01b03600b8201541661018084015201546101a08201526040518091602082528051602083015260018060a01b03602082015116604083015260018060a01b03604082015116606083015260608101516080830152608081015160a083015260a081015160c0830152611f9860c082015160e0840190613a11565b60e08101516101a0612002611fbc6101c093846101008801526101e087019061396e565b6101008501516101208701526101208501511515610140870152611fea610140860151610160880190613a1e565b610160850151868203601f190161018088015261396e565b6101808401516001600160a01b031685830152920151908301520390f35b34610296576040366003190112610296576120396139a9565b600435600052606560205260406000209060018060a01b0316600052602052602060ff604060002054166040519015158152f35b34610296576020366003190112610296576001600160a01b0361208e613993565b166000526101696020526020604060002054604051908152f35b3461029657600036600319011261029657602061016b54604051908152f35b34610296576000366003190112610296576120e0613c5b565b6120e8614407565b600160ff1960975416176097557f62e78cea01bee320cd4e420270b5ea74000d11b0c9f74754ebdbfc544b05a2586020604051338152a1005b346102965760603660031901126102965760246004358135801515808203610296576001600160401b039360443585811161029657612164903690600401613a2b565b9590917f7b8bb8356a3f32f5c111ff23f050d97f08988e0883529ea7bff3b918887a6e0e948560005260209560658752604060002033600052875260ff604060002054161561251c57506121b6614407565b866000526101679182875260406000209060ff6006830154166008811015612507576004036124d0576009820160ff815460081c169560048710156124bb5760018097036124775760008b81526101688b526040902060058101805442600484015560ff60a01b1933166001600160a81b03199091161787151560a01b60ff60a01b161790556001600160a01b03199390600601918d1161246357506122608c61145783546137a6565b8b6000601f82116001146123ca5791817f88e268ce399f0dad6d216a47576b1feed8fdf0e2047604ec38d03bd0a94852639c9b9a989694926116709a9896946000916123bf575b50600019600383901b1c191690881b1790555b805461ff001916610300179055600b820180549091163317905542600c90910155156123af57603960f91b604080516122f281613833565b602181527f44697370757465207265736f6c76656420696e206661766f72206f6620757365898201520152876000528552867ff8590cd6b8c44be7a2bc57131f10e203ec5f7d7f2f761e1508a8cc964ecb9eb7866040600020936003850194600686549282019160018060a01b039384845416600052610169865261237d604060002091825461422d565b905501600660ff1982541617905554169354604051908152a35b604080519485948552840152339660408401916144df565b50506123ba86614500565b612397565b9050890135386122a7565b601f19821690836000528c6000209160005b8181106124445750928a989694926116709b927f88e268ce399f0dad6d216a47576b1feed8fdf0e2047604ec38d03bd0a94852639f9e9d9b999795831161242a575b5050811b0190556122ba565b8b0135600019600384901b60f8161c19169055388061241e565b928294508b8f92939183928f013581550194019201908f9392916123dc565b634e487b7160e01b60009081526041600452fd5b60405162461bcd60e51b8152600481018b9052601c818501527f44697370757465206e6f7420696e20636f7272656374207374617465000000006044820152606490fd5b82634e487b7160e01b60005260216004526000fd5b8760116064926040519262461bcd60e51b84526004840152820152704e6f20616374697665206469737075746560781b6044820152fd5b50634e487b7160e01b60009081526021600452fd5b8691506125283361424b565b9060405161253581613869565b604281528381019160603684378151156126895760308353815160019081101561267457607860218401536041905b8082116126065750506125d6576048611246936125ab936125ba9360405195869360008051602061471c8339815191528a8601526111ed815180928c60378901910161394b565b01036028810184520182613884565b60405193849362461bcd60e51b8552600485015283019061396e565b606485856040519162461bcd60e51b83528160048401528201526000805160206146fc8339815191526044820152fd5b9091600f8116601081101561265f576f181899199a1a9b1b9c1cb0b131b232b360811b901a612635848661423a565b5360041c91801561264a576000190190612564565b87634e487b7160e01b60005260116004526000fd5b88634e487b7160e01b60005260326004526000fd5b86634e487b7160e01b60005260326004526000fd5b85634e487b7160e01b60005260326004526000fd5b346102965760003660031901126102965760206040517fa49807205ce4d355092ef5a8a18f56e8913cf4a201fbe287825b095693c217758152f35b346102965760203660031901126102965760043560005261016760205260406000208054600160a01b60019003918260018201541692806002830154169060038301546004840154906005850154600686015460ff166007870161273c906138a5565b91600888015494600989015494600a8a01612756906138a5565b97600b8b01541699600c0154986040519c8d9c8d5260208d015260408c015260608b015260808a015260a089015260c0880161279191613a11565b6101c08060e089015287016127a59161396e565b9161010087015260ff8116151561012087015261014086019060081c60ff16906127ce91613a1e565b8481036101608601526127e09161396e565b916101808401526101a08301520390f35b3461029657600036600319011261029657610160546040516001600160a01b039091168152602090f35b3461029657600036600319011261029657602061016254604051908152f35b3461029657600036600319011261029657602061016454604051908152f35b3461029657600036600319011261029657602060ff609754166040519015158152f35b3461029657602036600319011261029657612895613c5b565b60043561016355005b34610296576000366003190112610296577f00000000000000000000000000000000000000000000000000000000000000006001600160a01b031630036128f757602060405160008051602061473c8339815191528152f35b60405162461bcd60e51b815260206004820152603860248201527f555550535570677261646561626c653a206d757374206e6f742062652063616c60448201527f6c6564207468726f7567682064656c656761746563616c6c00000000000000006064820152608490fd5b604036600319011261029657612976613993565b6024356001600160401b0381116102965736602382011215610296576129a69036906024816004013591016139da565b6001600160a01b037f0000000000000000000000000000000000000000000000000000000000000000811691906129df30841415614042565b6129fc60008051602061473c8339815191529382855416146140a3565b612a04613a8b565b7f4910fdfa16fed3260ed0e7147f7cc6da11a60208b5b9406d12a635614ffd91435460ff1615612a3a5750505061001b90614104565b8316604051926352d1902d60e01b84526020938481600481865afa60009181612bf1575b50612abf5760405162461bcd60e51b815260048101869052602e60248201527f45524331393637557067726164653a206e657720696d706c656d656e7461746960448201526d6f6e206973206e6f74205555505360901b6064820152608490fd5b93929303612b9a57612ad084614104565b7fbc7cd75a20ee27fd9adebab32041f755214dbc6bffa90cc0225b39da2e5c2d3b600080a2815115801590612b92575b612b0657005b61001b9260008060405194612b1a86613833565b602786527f416464726573733a206c6f772d6c6576656c2064656c65676174652063616c6c85870152660819985a5b195960ca1b60408701528481519101845af4903d15612b89573d612b6c816139bf565b90612b7a6040519283613884565b8152600081943d92013e614194565b60609250614194565b506001612b00565b60405162461bcd60e51b815260048101839052602960248201527f45524331393637557067726164653a20756e737570706f727465642070726f786044820152681a58589b195555525160ba1b6064820152608490fd5b9091508581813d8311612c19575b612c098183613884565b8101031261029657519087612a5e565b503d612bff565b3461029657600036600319011261029657610166546040516001600160a01b039091168152602090f35b3461029657600036600319011261029657612c63613c5b565b60975460ff811615612ca25760ff19166097557f5db9ee0a495bf2e6ff9c91a7834c1ba4fdd244a5e8aa4e537bd38aeae4b073aa6020604051338152a1005b60405162461bcd60e51b815260206004820152601460248201527314185d5cd8589b194e881b9bdd081c185d5cd95960621b6044820152606490fd5b346102965760208060031936011261029657612cf8613993565b906001600160a01b037f00000000000000000000000000000000000000000000000000000000000000008116612d3030821415614042565b612d4d60008051602061473c8339815191529183835416146140a3565b612d55613a8b565b60405191612d6283613818565b600083527f4910fdfa16fed3260ed0e7147f7cc6da11a60208b5b9406d12a635614ffd91435460ff1615612d9d575050505061001b90614104565b8416906040516352d1902d60e01b81528481600481865afa60009181612e6d575b50612e1f5760405162461bcd60e51b815260048101869052602e60248201527f45524331393637557067726164653a206e657720696d706c656d656e7461746960448201526d6f6e206973206e6f74205555505360901b6064820152608490fd5b93929303612b9a57612e3084614104565b7fbc7cd75a20ee27fd9adebab32041f755214dbc6bffa90cc0225b39da2e5c2d3b600080a2815115801590612e6557612b0657005b506000612b00565b9091508581813d8311612e95575b612e858183613884565b8101031261029657519087612dbe565b503d612e7b565b3461029657604036600319011261029657612eb56139a9565b336001600160a01b03821603612ed15761001b90600435613fcc565b60405162461bcd60e51b815260206004820152602f60248201527f416363657373436f6e74726f6c3a2063616e206f6e6c792072656e6f756e636560448201526e103937b632b9903337b91039b2b63360891b6064820152608490fd5b3461029657600036600319011261029657610161546040516001600160a01b039091168152602090f35b3461029657604036600319011261029657600435612f746139a9565b816000526065602052612f8e600160406000200154613ecd565b81600052606560205260406000209060018060a01b0316908160005260205260ff6040600020541615612fbd57005b8160005260656020526040600020816000526020526040600020600160ff1982541617905533916000805160206146dc833981519152600080a4005b346102965760203660031901126102965760043560005260656020526020600160406000200154604051908152f35b346102965760a036600319011261029657613041613993565b6130496139a9565b6044356001600160a01b038181169291839003610296576064358181168091036102965760843590828216809203610296576000549460ff94858760081c161595868097613486575b8015613470575b156134145760019860ff1998888b8b831617600055613402575b506130f98260005460081c166130c881614337565b6130d181614337565b6130da81614337565b8a609754166097556130eb81614337565b6130f481614337565b614337565b61012d8a9055861660008181527fffdfc1249c027f9191656349feb0761381bb32c9f557e01f419fd08754bf5a1b60209081526040909120549099906065908416156133c8575b7fa49807205ce4d355092ef5a8a18f56e8913cf4a201fbe287825b095693c2177580600052818c526040600020846000528c5284604060002054161561338d575b507f189ab7a9244df0848122154315af71fe140f3db0fe014031783b0946b8c9d2e380600052818c526040600020846000528c52846040600020541615613352575b507f68e79a7bf1e0bc45d0a330c573bc367f9cf464fd326078812f301165fbda4ef180600052818c526040600020846000528c52846040600020541615613317575b507f7b8bb8356a3f32f5c111ff23f050d97f08988e0883529ea7bff3b918887a6e0e9384600052818c526040600020846000528c5260406000205416156132db575b505050506001600160601b0360a01b9461015f911685825416179055610160908482541617905561016190838254161790556101669182541617905562093a80610162556203f4806101635560466101645560fa610165556132a557005b7f7f26b83ff96e1f2b6a682f133852f6798a09c465da95921460cefb38474024989161ff001960005416600055604051908152a1005b836000528a526040600020826000528a528a60406000209182541617905533916000805160206146dc833981519152600080a488808080613247565b80600052818c526040600020846000528c5260406000208d848254161790558333916000805160206146dc833981519152600080a48c613205565b80600052818c526040600020846000528c5260406000208d848254161790558333916000805160206146dc833981519152600080a48c6131c3565b80600052818c526040600020846000528c5260406000208d848254161790558333916000805160206146dc833981519152600080a48c613181565b60008052808b526040600020836000528b5260406000208c83825416179055338360006000805160206146dc8339815191528180a4613140565b61ffff1916610101176000558a6130b3565b60405162461bcd60e51b815260206004820152602e60248201527f496e697469616c697a61626c653a20636f6e747261637420697320616c72656160448201526d191e481a5b9a5d1a585b1a5e995960921b6064820152608490fd5b50303b1580156130995750600181891614613099565b50600181891610613092565b346102965760208060031936011261029657606060e06040516134b4816137e0565b6000815260008482015282604082015260008382015260006080820152600060a0820152600060c08201520152600435600052610168815260406000206135dc60405191613501836137e0565b8054835260018101546001600160a01b0390811685850190815290919061352a600283016138a5565b916040860192835260038101549360608701948552866004830154946080820195865282613577600660058701549660ff60c060a0880197868b168952019860a01c1615158852016138a5565b9560e08b019687526040519b8c9b818d5251908c0152511660408a015251946135ae610100968760608c01526101208b019061396e565b965160808a01525160a0890152511660c087015251151560e08601525190601f19858403019085015261396e565b0390f35b3461029657602036600319011261029657600435600052610168602052604060002080546135dc60018060a01b03806001850154169360ff613624600283016138a5565b9160038101549360048201546136636136446006600586015495016138a5565b956040519a8b9a8b5260208b01526101008060408c01528a019061396e565b9560608901526080880152811660a087015260a01c16151560c085015283820360e085015261396e565b34610296576000366003190112610296576136a6614407565b6136ae61444b565b336000526101698060205260406000205480156136dd5761107291336000526020526000604081205533614615565b60405162461bcd60e51b81526020600482015260136024820152724e6f20726566756e6420617661696c61626c6560681b6044820152606490fd5b346102965760003660031901126102965760206040517f68e79a7bf1e0bc45d0a330c573bc367f9cf464fd326078812f301165fbda4ef18152f35b34610296576020366003190112610296576004359063ffffffff60e01b821680920361029657602091637965db0b60e01b8114908115613795575b5015158152f35b6301ffc9a760e01b1490508361378e565b90600182811c921680156137d6575b60208310146137c057565b634e487b7160e01b600052602260045260246000fd5b91607f16916137b5565b61010081019081106001600160401b038211176106df57604052565b6101c081019081106001600160401b038211176106df57604052565b602081019081106001600160401b038211176106df57604052565b606081019081106001600160401b038211176106df57604052565b604081019081106001600160401b038211176106df57604052565b608081019081106001600160401b038211176106df57604052565b90601f801991011681019081106001600160401b038211176106df57604052565b90604051918260008254926138b9846137a6565b90818452600194858116908160001461392857506001146138e5575b50506138e392500383613884565b565b9093915060005260209081600020936000915b8183106139105750506138e3935082010138806138d5565b855488840185015294850194879450918301916138f8565b9150506138e394506020925060ff191682840152151560051b82010138806138d5565b60005b83811061395e5750506000910152565b818101518382015260200161394e565b906020916139878151809281855285808601910161394b565b601f01601f1916010190565b600435906001600160a01b038216820361029657565b602435906001600160a01b038216820361029657565b6001600160401b0381116106df57601f01601f191660200190565b9291926139e6826139bf565b916139f46040519384613884565b829481845281830111610296578281602093846000960137010152565b9060088210156106f55752565b9060048210156106f55752565b9181601f84011215610296578235916001600160401b038311610296576020838186019501011161029657565b9060406003198301126102965760043591602435906001600160401b03821161029657613a8791600401613a2b565b9091565b3360009081527f61c6261e6978331c793eee420d743e773864e0ec05cc862750e423d64f73e9f6602090815260408083205490927f189ab7a9244df0848122154315af71fe140f3db0fe014031783b0946b8c9d2e39160ff1615613aef5750505050565b613af83361424b565b91845190613b0582613869565b60428252848201926060368537825115613c475760308453825190600191821015613c475790607860218501536041915b818311613bd957505050613ba9576048611246938693613b8d93613b7e985198899360008051602061471c8339815191528a8601526111ed815180928c60378901910161394b565b01036028810187520185613884565b5192839262461bcd60e51b84526004840152602483019061396e565b60648486519062461bcd60e51b825280600483015260248201526000805160206146fc8339815191526044820152fd5b909192600f81166010811015613c33576f181899199a1a9b1b9c1cb0b131b232b360811b901a613c09858761423a565b5360041c928015613c1f57600019019190613b36565b634e487b7160e01b82526011600452602482fd5b634e487b7160e01b83526032600452602483fd5b634e487b7160e01b81526032600452602490fd5b3360009081527f2c01dc0041dfb6d4238a91e5a638996136aed16f837d5beb45610732cf9bf4b0602090815260408083205490927fa49807205ce4d355092ef5a8a18f56e8913cf4a201fbe287825b095693c217759160ff1615613cbf5750505050565b613cc83361424b565b91845190613cd582613869565b60428252848201926060368537825115613c475760308453825190600191821015613c475790607860218501536041915b818311613d4e57505050613ba9576048611246938693613b8d93613b7e985198899360008051602061471c8339815191528a8601526111ed815180928c60378901910161394b565b909192600f81166010811015613c33576f181899199a1a9b1b9c1cb0b131b232b360811b901a613d7e858761423a565b5360041c928015613c1f57600019019190613d06565b3360009081527fcce6827fa156bcd84b0076b5a7b2dec11c993fb264d8dc1e547a62045d60e4af602090815260408083205490927f68e79a7bf1e0bc45d0a330c573bc367f9cf464fd326078812f301165fbda4ef19160ff1615613df85750505050565b613e013361424b565b91845190613e0e82613869565b60428252848201926060368537825115613c475760308453825190600191821015613c475790607860218501536041915b818311613e8757505050613ba9576048611246938693613b8d93613b7e985198899360008051602061471c8339815191528a8601526111ed815180928c60378901910161394b565b909192600f81166010811015613c33576f181899199a1a9b1b9c1cb0b131b232b360811b901a613eb7858761423a565b5360041c928015613c1f57600019019190613e3f565b60009080825260209060658252604092838120338252835260ff848220541615613ef75750505050565b613f003361424b565b91845190613f0d82613869565b60428252848201926060368537825115613c475760308453825190600191821015613c475790607860218501536041915b818311613f8657505050613ba9576048611246938693613b8d93613b7e985198899360008051602061471c8339815191528a8601526111ed815180928c60378901910161394b565b909192600f81166010811015613c33576f181899199a1a9b1b9c1cb0b131b232b360811b901a613fb6858761423a565b5360041c928015613c1f57600019019190613f3e565b906000918083526065602052604083209160018060a01b03169182845260205260ff604084205416613ffd57505050565b8083526065602052604083208284526020526040832060ff1981541690557ff6391f5c32d9c69d2a47ea670b442974b53935d1edc7fd64eb21e047a839171b339380a4565b1561404957565b60405162461bcd60e51b815260206004820152602c60248201527f46756e6374696f6e206d7573742062652063616c6c6564207468726f7567682060448201526b19195b1959d85d1958d85b1b60a21b6064820152608490fd5b156140aa57565b60405162461bcd60e51b815260206004820152602c60248201527f46756e6374696f6e206d7573742062652063616c6c6564207468726f7567682060448201526b6163746976652070726f787960a01b6064820152608490fd5b803b156141395760008051602061473c83398151915280546001600160a01b0319166001600160a01b03909216919091179055565b60405162461bcd60e51b815260206004820152602d60248201527f455243313936373a206e657720696d706c656d656e746174696f6e206973206e60448201526c1bdd08184818dbdb9d1c9858dd609a1b6064820152608490fd5b919290156141f657508151156141a8575090565b3b156141b15790565b60405162461bcd60e51b815260206004820152601d60248201527f416464726573733a2063616c6c20746f206e6f6e2d636f6e74726163740000006044820152606490fd5b8251909150156142095750805190602001fd5b60405162461bcd60e51b81526020600482015290819061124690602483019061396e565b919082018092116112bf57565b9081518110156112d5570160200190565b6040519061425882613833565b602a82526020820160403682378251156112d5576030905381516001908110156112d557607860218401536029905b8082116142c95750506142975790565b606460405162461bcd60e51b815260206004820152602060248201526000805160206146fc8339815191526044820152fd5b9091600f81166010811015614322576f181899199a1a9b1b9c1cb0b131b232b360811b901a6142f8848661423a565b5360041c91801561430d576000190190614287565b60246000634e487b7160e01b81526011600452fd5b60246000634e487b7160e01b81526032600452fd5b1561433e57565b60405162461bcd60e51b815260206004820152602b60248201527f496e697469616c697a61626c653a20636f6e7472616374206973206e6f74206960448201526a6e697469616c697a696e6760a81b6064820152608490fd5b5190811515820361029657565b90601f81116143b257505050565b600091825260208220906020601f850160051c830194106143ee575b601f0160051c01915b8281106143e357505050565b8181556001016143d7565b90925082906143ce565b60001981146112bf5760010190565b60ff6097541661441357565b60405162461bcd60e51b815260206004820152601060248201526f14185d5cd8589b194e881c185d5cd95960821b6044820152606490fd5b61012d600281541461445d5760029055565b60405162461bcd60e51b815260206004820152601f60248201527f5265656e7472616e637947756172643a207265656e7472616e742063616c6c006044820152606490fd5b156144a957565b60405162461bcd60e51b815260206004820152600e60248201526d115cd8dc9bddc8195e1c1a5c995960921b6044820152606490fd5b908060209392818452848401376000828201840152601f01601f1916010190565b600090808252610167602052604082209160038301549061016554808302908382041483151715613c1f57612710900493848303928311613c1f579160409183600660027f06823cbbe3d86b8d3bc32f4679210e4ff0a8b1bf495ca5889fffc53b19c6add49601918560018060a01b039485855416815261016a6020522061458986825461422d565b9055881515806145c9575b6145b5575b01600560ff1982541617905554169482519182526020820152a3565b6145c489856101665416614615565b614599565b508361016654161515614594565b156145de57565b60405162461bcd60e51b815260206004820152600f60248201526e151c985b9cd9995c8819985a5b1959608a1b6044820152606490fd5b610161546001600160a01b039081168061464f5750600080938193829383918315614645575b1690f11561088957565b6108fc925061463b565b60405163a9059cbb60e01b81526001600160a01b0393909316600484015260248301939093525090602090829060449082906000905af180156108895760009061469e575b6138e391506145d7565b6020823d82116146d3575b816146b660209383613884565b810103126146d057506146cb6138e391614397565b614694565b80fd5b3d91506146a956fe2f8788117e7eff1d82e926ec794901d17c78024a50270940304540a733656f0d537472696e67733a20686578206c656e67746820696e73756666696369656e74416363657373436f6e74726f6c3a206163636f756e7420000000000000000000360894a13ba1a3210667c828492db98dca3e2076cc3735a920a3ca505d382bbca26469706673582212209ee9d7104fe5cbbba6338234ead532acf40b4997a9210d101924069a2bb5c75864736f6c63430008130033","opcodes":"PUSH1 0xA0 DUP1 PUSH1 0x40 MSTORE CALLVALUE PUSH3 0xE1 JUMPI ADDRESS PUSH1 0x80 MSTORE PUSH1 0x0 SLOAD SWAP1 PUSH1 0xFF DUP3 PUSH1 0x8 SHR AND PUSH3 0x8F JUMPI POP PUSH1 0xFF DUP1 DUP3 AND SUB PUSH3 0x53 JUMPI JUMPDEST PUSH1 0x40 MLOAD PUSH2 0x4791 SWAP1 DUP2 PUSH3 0xE7 DUP3 CODECOPY PUSH1 0x80 MLOAD DUP2 DUP2 DUP2 PUSH2 0x28B1 ADD MSTORE DUP2 DUP2 PUSH2 0x29B0 ADD MSTORE PUSH2 0x2D03 ADD MSTORE RETURN JUMPDEST PUSH1 0xFF SWAP1 DUP2 NOT AND OR PUSH1 0x0 SSTORE PUSH32 0x7F26B83FF96E1F2B6A682F133852F6798A09C465DA95921460CEFB3847402498 PUSH1 0x20 PUSH1 0x40 MLOAD PUSH1 0xFF DUP2 MSTORE LOG1 CODESIZE PUSH3 0x2C JUMP JUMPDEST PUSH3 0x461BCD PUSH1 0xE5 SHL DUP2 MSTORE PUSH1 0x20 PUSH1 0x4 DUP3 ADD MSTORE PUSH1 0x27 PUSH1 0x24 DUP3 ADD MSTORE PUSH32 0x496E697469616C697A61626C653A20636F6E747261637420697320696E697469 PUSH1 0x44 DUP3 ADD MSTORE PUSH7 0x616C697A696E67 PUSH1 0xC8 SHL PUSH1 0x64 DUP3 ADD MSTORE PUSH1 0x84 SWAP1 REVERT JUMPDEST PUSH1 0x0 DUP1 REVERT INVALID PUSH1 0x80 DUP1 PUSH1 0x40 MSTORE PUSH1 0x4 CALLDATASIZE LT ISZERO PUSH2 0x1D JUMPI JUMPDEST POP CALLDATASIZE ISZERO PUSH2 0x1B JUMPI PUSH1 0x0 DUP1 REVERT JUMPDEST STOP JUMPDEST PUSH1 0x0 CALLDATALOAD PUSH1 0xE0 SHR SWAP1 DUP2 PUSH4 0x1FFC9A7 EQ PUSH2 0x3753 JUMPI POP DUP1 PUSH4 0x7E2CEA5 EQ PUSH2 0x3718 JUMPI DUP1 PUSH4 0x110F8874 EQ PUSH2 0x368D JUMPI DUP1 PUSH4 0x11BE1997 EQ PUSH2 0x35E0 JUMPI DUP1 PUSH4 0x136BA6AA EQ PUSH2 0x3492 JUMPI DUP1 PUSH4 0x1459457A EQ PUSH2 0x3028 JUMPI DUP1 PUSH4 0x248A9CA3 EQ PUSH2 0x2FF9 JUMPI DUP1 PUSH4 0x2F2FF15D EQ PUSH2 0x2F58 JUMPI DUP1 PUSH4 0x3013CE29 EQ PUSH2 0x2F2E JUMPI DUP1 PUSH4 0x36568ABE EQ PUSH2 0x2E9C JUMPI DUP1 PUSH4 0x3659CFE6 EQ PUSH2 0x2CDE JUMPI DUP1 PUSH4 0x3F4BA83A EQ PUSH2 0x2C4A JUMPI DUP1 PUSH4 0x46904840 EQ PUSH2 0x2C20 JUMPI DUP1 PUSH4 0x4F1EF286 EQ PUSH2 0x2962 JUMPI DUP1 PUSH4 0x52D1902D EQ PUSH2 0x289E JUMPI DUP1 PUSH4 0x5B4E9A42 EQ PUSH2 0x287C JUMPI DUP1 PUSH4 0x5C975ABB EQ PUSH2 0x2859 JUMPI DUP1 PUSH4 0x5F5B7990 EQ PUSH2 0x283A JUMPI DUP1 PUSH4 0x605C6D63 EQ PUSH2 0x281B JUMPI DUP1 PUSH4 0x613DF47C EQ PUSH2 0x27F1 JUMPI DUP1 PUSH4 0x6D038770 EQ PUSH2 0x26D9 JUMPI DUP1 PUSH4 0x75B238FC EQ PUSH2 0x269E JUMPI DUP1 PUSH4 0x795E0A79 EQ PUSH2 0x2121 JUMPI DUP1 PUSH4 0x8456CB59 EQ PUSH2 0x20C7 JUMPI DUP1 PUSH4 0x882CC8B3 EQ PUSH2 0x20A8 JUMPI DUP1 PUSH4 0x883F3D96 EQ PUSH2 0x206D JUMPI DUP1 PUSH4 0x91D14854 EQ PUSH2 0x2020 JUMPI DUP1 PUSH4 0x9AB20269 EQ PUSH2 0x1DCF JUMPI DUP1 PUSH4 0x9CBEB6C1 EQ PUSH2 0x1CEE JUMPI DUP1 PUSH4 0x9D4F89D2 EQ PUSH2 0x1CCF JUMPI DUP1 PUSH4 0xA217FDDF EQ PUSH2 0x1CB3 JUMPI DUP1 PUSH4 0xA4B66F03 EQ PUSH2 0x1C44 JUMPI DUP1 PUSH4 0xA86A08D5 EQ PUSH2 0x1A5C JUMPI DUP1 PUSH4 0xAA0B5988 EQ PUSH2 0x19F4 JUMPI DUP1 PUSH4 0xB5C608B7 EQ PUSH2 0x19CA JUMPI DUP1 PUSH4 0xB73C6CE9 EQ PUSH2 0x193D JUMPI DUP1 PUSH4 0xBE7B8A77 EQ PUSH2 0x13A3 JUMPI DUP1 PUSH4 0xBFE42A37 EQ PUSH2 0x1368 JUMPI DUP1 PUSH4 0xC04C22A4 EQ PUSH2 0x1349 JUMPI DUP1 PUSH4 0xCDD78CFC EQ PUSH2 0x132A JUMPI DUP1 PUSH4 0xD547741F EQ PUSH2 0x12EB JUMPI DUP1 PUSH4 0xDB2E21BC EQ PUSH2 0xFF3 JUMPI DUP1 PUSH4 0xE61B13E1 EQ PUSH2 0xE2F JUMPI DUP1 PUSH4 0xE6DB0707 EQ PUSH2 0xDF4 JUMPI DUP1 PUSH4 0xE772E514 EQ PUSH2 0xB4E JUMPI DUP1 PUSH4 0xE84A571C EQ PUSH2 0xB2C JUMPI DUP1 PUSH4 0xED74D26E EQ PUSH2 0xB0D JUMPI DUP1 PUSH4 0xEDBC4D14 EQ PUSH2 0xAEE JUMPI DUP1 PUSH4 0xF160D369 EQ PUSH2 0xAAB JUMPI DUP1 PUSH4 0xF421DB5D EQ PUSH2 0x29B JUMPI PUSH4 0xF72C0D8B EQ PUSH2 0x25B JUMPI CODESIZE PUSH2 0xF JUMP JUMPDEST CALLVALUE PUSH2 0x296 JUMPI PUSH1 0x0 CALLDATASIZE PUSH1 0x3 NOT ADD SLT PUSH2 0x296 JUMPI PUSH1 0x20 PUSH1 0x40 MLOAD PUSH32 0x189AB7A9244DF0848122154315AF71FE140F3DB0FE014031783B0946B8C9D2E3 DUP2 MSTORE RETURN JUMPDEST PUSH1 0x0 DUP1 REVERT JUMPDEST PUSH1 0x40 CALLDATASIZE PUSH1 0x3 NOT ADD SLT PUSH2 0x296 JUMPI PUSH2 0x2AF PUSH2 0x39A9 JUMP JUMPDEST PUSH2 0x2B7 PUSH2 0x4407 JUMP JUMPDEST PUSH2 0x2BF PUSH2 0x444B JUMP JUMPDEST PUSH1 0x4 CALLDATALOAD ISZERO PUSH2 0xA71 JUMPI PUSH1 0x1 PUSH1 0x1 PUSH1 0xA0 SHL SUB DUP2 AND ISZERO PUSH2 0xA2C JUMPI PUSH1 0x4 CALLDATALOAD PUSH1 0x0 MSTORE PUSH2 0x167 PUSH1 0x20 MSTORE PUSH1 0x40 PUSH1 0x0 KECCAK256 SLOAD PUSH2 0x9EF JUMPI PUSH2 0x15F SLOAD PUSH1 0x40 MLOAD PUSH4 0x59CE95D PUSH1 0xE0 SHL DUP2 MSTORE PUSH1 0x1 PUSH1 0x1 PUSH1 0xA0 SHL SUB DUP4 DUP2 AND PUSH1 0x4 DUP4 ADD MSTORE SWAP1 SWAP2 AND SWAP2 SWAP1 PUSH1 0x0 DUP2 PUSH1 0x24 DUP2 DUP7 GAS STATICCALL SWAP1 DUP2 ISZERO PUSH2 0x889 JUMPI PUSH1 0x0 SWAP2 PUSH2 0x955 JUMPI JUMPDEST POP ISZERO PUSH2 0x91A JUMPI PUSH1 0x40 MLOAD PUSH4 0x6DED3AD5 PUSH1 0xE1 SHL DUP2 MSTORE PUSH1 0x1 PUSH1 0x1 PUSH1 0xA0 SHL SUB DUP3 AND PUSH1 0x4 DUP3 ADD MSTORE SWAP2 PUSH1 0x20 SWAP1 DUP4 SWAP1 PUSH1 0x24 SWAP1 DUP3 SWAP1 GAS STATICCALL SWAP2 DUP3 ISZERO PUSH2 0x889 JUMPI PUSH1 0x0 SWAP3 PUSH2 0x8E6 JUMPI JUMPDEST POP PUSH2 0x161 SLOAD PUSH1 0x1 PUSH1 0x1 PUSH1 0xA0 SHL SUB AND DUP1 PUSH2 0x7C4 JUMPI POP SWAP1 CALLVALUE LT PUSH2 0x788 JUMPI CALLVALUE SWAP1 JUMPDEST PUSH2 0x393 PUSH2 0x162 SLOAD TIMESTAMP PUSH2 0x422D JUMP JUMPDEST PUSH1 0x40 MLOAD SWAP1 PUSH2 0x3A0 DUP3 PUSH2 0x37FC JUMP JUMPDEST PUSH1 0x4 CALLDATALOAD DUP3 MSTORE CALLER PUSH1 0x20 DUP4 ADD MSTORE PUSH1 0x1 DUP1 PUSH1 0xA0 SHL SUB DUP4 AND PUSH1 0x40 DUP4 ADD MSTORE DUP4 PUSH1 0x60 DUP4 ADD MSTORE TIMESTAMP PUSH1 0x80 DUP4 ADD MSTORE PUSH1 0xA0 DUP3 ADD MSTORE PUSH1 0x0 PUSH1 0xC0 DUP3 ADD MSTORE PUSH1 0x40 MLOAD PUSH2 0x3DD DUP2 PUSH2 0x3818 JUMP JUMPDEST PUSH1 0x0 DUP2 MSTORE PUSH1 0xE0 DUP3 ADD MSTORE PUSH1 0x0 PUSH2 0x100 DUP3 ADD MSTORE PUSH1 0x0 PUSH2 0x120 DUP3 ADD MSTORE PUSH1 0x0 PUSH2 0x140 DUP3 ADD MSTORE PUSH1 0x40 MLOAD PUSH2 0x40A DUP2 PUSH2 0x3818 JUMP JUMPDEST PUSH1 0x0 DUP2 MSTORE PUSH2 0x160 DUP3 ADD MSTORE PUSH1 0x0 PUSH2 0x180 DUP3 ADD MSTORE PUSH1 0x0 PUSH2 0x1A0 DUP3 ADD MSTORE PUSH1 0x4 CALLDATALOAD PUSH1 0x0 MSTORE PUSH2 0x167 PUSH1 0x20 MSTORE PUSH1 0x40 PUSH1 0x0 KECCAK256 SWAP1 DUP1 MLOAD DUP3 SSTORE PUSH1 0x1 DUP1 PUSH1 0xA0 SHL SUB PUSH1 0x20 DUP3 ADD MLOAD AND PUSH1 0x1 PUSH1 0x1 PUSH1 0x60 SHL SUB PUSH1 0xA0 SHL PUSH1 0x1 DUP5 ADD SLOAD AND OR PUSH1 0x1 DUP4 ADD SSTORE PUSH1 0x2 DUP3 ADD PUSH1 0x1 DUP1 PUSH1 0xA0 SHL SUB PUSH1 0x40 DUP4 ADD MLOAD AND PUSH1 0x1 PUSH1 0x1 PUSH1 0x60 SHL SUB PUSH1 0xA0 SHL DUP3 SLOAD AND OR SWAP1 SSTORE PUSH1 0x60 DUP2 ADD MLOAD PUSH1 0x3 DUP4 ADD SSTORE PUSH1 0x80 DUP2 ADD MLOAD PUSH1 0x4 DUP4 ADD SSTORE PUSH1 0xA0 DUP2 ADD MLOAD PUSH1 0x5 DUP4 ADD SSTORE PUSH1 0x6 DUP3 ADD PUSH1 0xC0 DUP3 ADD MLOAD PUSH1 0x8 DUP2 LT ISZERO PUSH2 0x6F5 JUMPI PUSH1 0xFF DUP1 NOT DUP4 SLOAD AND SWAP2 AND OR SWAP1 SSTORE PUSH1 0xE0 DUP2 ADD MLOAD DUP1 MLOAD SWAP1 PUSH1 0x1 PUSH1 0x1 PUSH1 0x40 SHL SUB DUP3 GT PUSH2 0x6DF JUMPI DUP2 SWAP1 PUSH2 0x4EE DUP3 PUSH2 0x4E5 PUSH1 0x7 DUP9 ADD SLOAD PUSH2 0x37A6 JUMP JUMPDEST PUSH1 0x7 DUP9 ADD PUSH2 0x43A4 JUMP JUMPDEST PUSH1 0x20 SWAP1 PUSH1 0x1F DUP4 GT PUSH1 0x1 EQ PUSH2 0x716 JUMPI PUSH1 0x0 SWAP3 PUSH2 0x70B JUMPI JUMPDEST POP POP DUP2 PUSH1 0x1 SHL SWAP2 PUSH1 0x0 NOT SWAP1 PUSH1 0x3 SHL SHR NOT AND OR PUSH1 0x7 DUP4 ADD SSTORE JUMPDEST PUSH2 0x100 DUP2 ADD MLOAD PUSH1 0x8 DUP4 ADD SSTORE PUSH1 0x9 DUP3 ADD PUSH2 0x548 PUSH2 0x120 DUP4 ADD MLOAD ISZERO ISZERO DUP3 SWAP1 PUSH1 0xFF DUP1 NOT DUP4 SLOAD AND SWAP2 ISZERO ISZERO AND OR SWAP1 SSTORE JUMP JUMPDEST PUSH2 0x140 DUP3 ADD MLOAD PUSH1 0x4 DUP2 LT ISZERO PUSH2 0x6F5 JUMPI PUSH2 0xFF00 DUP3 SLOAD SWAP2 PUSH1 0x8 SHL AND SWAP1 PUSH2 0xFF00 NOT AND OR SWAP1 SSTORE PUSH2 0x160 DUP2 ADD MLOAD DUP1 MLOAD SWAP1 PUSH1 0x1 PUSH1 0x1 PUSH1 0x40 SHL SUB DUP3 GT PUSH2 0x6DF JUMPI PUSH2 0x59B DUP3 PUSH2 0x592 PUSH1 0xA DUP8 ADD SLOAD PUSH2 0x37A6 JUMP JUMPDEST PUSH1 0xA DUP8 ADD PUSH2 0x43A4 JUMP JUMPDEST PUSH1 0x20 SWAP1 PUSH1 0x1F DUP4 GT PUSH1 0x1 EQ PUSH2 0x669 JUMPI SWAP2 DUP1 PUSH1 0xC SWAP5 SWAP3 PUSH2 0x1A0 SWAP5 PUSH1 0x0 SWAP3 PUSH2 0x65E JUMPI JUMPDEST POP POP DUP2 PUSH1 0x1 SHL SWAP2 PUSH1 0x0 NOT SWAP1 PUSH1 0x3 SHL SHR NOT AND OR PUSH1 0xA DUP6 ADD SSTORE JUMPDEST PUSH1 0xB DUP5 ADD PUSH1 0x1 DUP1 PUSH1 0xA0 SHL SUB PUSH2 0x180 DUP4 ADD MLOAD AND PUSH1 0x1 PUSH1 0x1 PUSH1 0x60 SHL SUB PUSH1 0xA0 SHL DUP3 SLOAD AND OR SWAP1 SSTORE ADD MLOAD SWAP2 ADD SSTORE PUSH2 0x16B PUSH2 0x608 DUP2 SLOAD PUSH2 0x43F8 JUMP JUMPDEST SWAP1 SSTORE PUSH2 0x16C PUSH2 0x618 DUP4 DUP3 SLOAD PUSH2 0x422D JUMP JUMPDEST SWAP1 SSTORE PUSH1 0x40 MLOAD SWAP2 DUP3 MSTORE PUSH1 0x1 PUSH1 0x1 PUSH1 0xA0 SHL SUB AND SWAP1 CALLER SWAP1 PUSH1 0x4 CALLDATALOAD SWAP1 PUSH32 0xDD968C277D9DC6B36B6EC2B638324C3D937882C64CA109440BC050EBF26CB07 SWAP1 PUSH1 0x20 SWAP1 LOG4 PUSH1 0x1 PUSH2 0x12D SSTORE STOP JUMPDEST ADD MLOAD SWAP1 POP DUP9 DUP1 PUSH2 0x5BB JUMP JUMPDEST SWAP1 PUSH1 0xA DUP6 ADD PUSH1 0x0 MSTORE PUSH1 0x20 PUSH1 0x0 KECCAK256 SWAP2 PUSH1 0x0 JUMPDEST PUSH1 0x1F NOT DUP6 AND DUP2 LT PUSH2 0x6C7 JUMPI POP SWAP3 PUSH1 0xC SWAP5 SWAP3 PUSH1 0x1 SWAP3 PUSH2 0x1A0 SWAP6 DUP4 PUSH1 0x1F NOT DUP2 AND LT PUSH2 0x6AE JUMPI JUMPDEST POP POP POP DUP2 SHL ADD PUSH1 0xA DUP6 ADD SSTORE PUSH2 0x5D3 JUMP JUMPDEST ADD MLOAD PUSH1 0x0 NOT PUSH1 0xF8 DUP5 PUSH1 0x3 SHL AND SHR NOT AND SWAP1 SSTORE DUP9 DUP1 DUP1 PUSH2 0x69E JUMP JUMPDEST SWAP2 SWAP3 PUSH1 0x20 PUSH1 0x1 DUP2 SWAP3 DUP7 DUP6 ADD MLOAD DUP2 SSTORE ADD SWAP5 ADD SWAP3 ADD PUSH2 0x67A JUMP JUMPDEST PUSH4 0x4E487B71 PUSH1 0xE0 SHL PUSH1 0x0 MSTORE PUSH1 0x41 PUSH1 0x4 MSTORE PUSH1 0x24 PUSH1 0x0 REVERT JUMPDEST PUSH4 0x4E487B71 PUSH1 0xE0 SHL PUSH1 0x0 MSTORE PUSH1 0x21 PUSH1 0x4 MSTORE PUSH1 0x24 PUSH1 0x0 REVERT JUMPDEST ADD MLOAD SWAP1 POP DUP7 DUP1 PUSH2 0x504 JUMP JUMPDEST SWAP3 POP PUSH1 0x7 DUP6 ADD PUSH1 0x0 MSTORE PUSH1 0x20 PUSH1 0x0 KECCAK256 SWAP1 PUSH1 0x0 SWAP4 JUMPDEST PUSH1 0x1F NOT DUP5 AND DUP6 LT PUSH2 0x76D JUMPI PUSH1 0x1 SWAP5 POP DUP4 PUSH1 0x1F NOT DUP2 AND LT PUSH2 0x754 JUMPI JUMPDEST POP POP POP DUP2 SHL ADD PUSH1 0x7 DUP4 ADD SSTORE PUSH2 0x51C JUMP JUMPDEST ADD MLOAD PUSH1 0x0 NOT PUSH1 0xF8 DUP5 PUSH1 0x3 SHL AND SHR NOT AND SWAP1 SSTORE DUP7 DUP1 DUP1 PUSH2 0x744 JUMP JUMPDEST DUP2 DUP2 ADD MLOAD DUP4 SSTORE PUSH1 0x20 SWAP5 DUP6 ADD SWAP5 PUSH1 0x1 SWAP1 SWAP4 ADD SWAP3 SWAP1 SWAP2 ADD SWAP1 PUSH2 0x729 JUMP JUMPDEST PUSH1 0x40 MLOAD PUSH3 0x461BCD PUSH1 0xE5 SHL DUP2 MSTORE PUSH1 0x20 PUSH1 0x4 DUP3 ADD MSTORE PUSH1 0x14 PUSH1 0x24 DUP3 ADD MSTORE PUSH20 0x125B9CDD59999A58DA595B9D081C185E5B595B9D PUSH1 0x62 SHL PUSH1 0x44 DUP3 ADD MSTORE PUSH1 0x64 SWAP1 REVERT JUMPDEST CALLVALUE PUSH2 0x895 JUMPI PUSH1 0x20 PUSH1 0x0 SWAP2 PUSH1 0x64 DUP6 PUSH1 0x40 MLOAD SWAP5 DUP6 SWAP4 DUP5 SWAP3 PUSH4 0x23B872DD PUSH1 0xE0 SHL DUP5 MSTORE CALLER PUSH1 0x4 DUP6 ADD MSTORE ADDRESS PUSH1 0x24 DUP6 ADD MSTORE PUSH1 0x44 DUP5 ADD MSTORE GAS CALL SWAP1 DUP2 ISZERO PUSH2 0x889 JUMPI PUSH1 0x0 SWAP2 PUSH2 0x84F JUMPI JUMPDEST POP PUSH2 0x386 JUMPI PUSH1 0x40 MLOAD PUSH3 0x461BCD PUSH1 0xE5 SHL DUP2 MSTORE PUSH1 0x20 PUSH1 0x4 DUP3 ADD MSTORE PUSH1 0x17 PUSH1 0x24 DUP3 ADD MSTORE PUSH32 0x5061796D656E74207472616E73666572206661696C6564000000000000000000 PUSH1 0x44 DUP3 ADD MSTORE PUSH1 0x64 SWAP1 REVERT JUMPDEST SWAP1 POP PUSH1 0x20 DUP2 RETURNDATASIZE PUSH1 0x20 GT PUSH2 0x881 JUMPI JUMPDEST DUP2 PUSH2 0x86A PUSH1 0x20 SWAP4 DUP4 PUSH2 0x3884 JUMP JUMPDEST DUP2 ADD SUB SLT PUSH2 0x296 JUMPI PUSH2 0x87B SWAP1 PUSH2 0x4397 JUMP JUMPDEST DUP4 PUSH2 0x805 JUMP JUMPDEST RETURNDATASIZE SWAP2 POP PUSH2 0x85D JUMP JUMPDEST PUSH1 0x40 MLOAD RETURNDATASIZE PUSH1 0x0 DUP3 RETURNDATACOPY RETURNDATASIZE SWAP1 REVERT JUMPDEST PUSH1 0x40 MLOAD PUSH3 0x461BCD PUSH1 0xE5 SHL DUP2 MSTORE PUSH1 0x20 PUSH1 0x4 DUP3 ADD MSTORE PUSH1 0x24 DUP1 DUP3 ADD MSTORE PUSH32 0x4E6F206E61746976652063757272656E637920666F7220746F6B656E20706179 PUSH1 0x44 DUP3 ADD MSTORE PUSH4 0x1B595B9D PUSH1 0xE2 SHL PUSH1 0x64 DUP3 ADD MSTORE PUSH1 0x84 SWAP1 REVERT JUMPDEST SWAP1 SWAP2 POP PUSH1 0x20 DUP2 RETURNDATASIZE PUSH1 0x20 GT PUSH2 0x912 JUMPI JUMPDEST DUP2 PUSH2 0x902 PUSH1 0x20 SWAP4 DUP4 PUSH2 0x3884 JUMP JUMPDEST DUP2 ADD SUB SLT PUSH2 0x296 JUMPI MLOAD SWAP1 DUP3 PUSH2 0x368 JUMP JUMPDEST RETURNDATASIZE SWAP2 POP PUSH2 0x8F5 JUMP JUMPDEST PUSH1 0x40 MLOAD PUSH3 0x461BCD PUSH1 0xE5 SHL DUP2 MSTORE PUSH1 0x20 PUSH1 0x4 DUP3 ADD MSTORE PUSH1 0x13 PUSH1 0x24 DUP3 ADD MSTORE PUSH19 0x5665726966696572206E6F7420616374697665 PUSH1 0x68 SHL PUSH1 0x44 DUP3 ADD MSTORE PUSH1 0x64 SWAP1 REVERT JUMPDEST SWAP1 POP RETURNDATASIZE DUP1 PUSH1 0x0 DUP4 RETURNDATACOPY PUSH2 0x967 DUP2 DUP4 PUSH2 0x3884 JUMP JUMPDEST DUP2 ADD PUSH2 0x120 DUP3 DUP3 SUB SLT PUSH2 0x296 JUMPI DUP2 MLOAD PUSH1 0x1 PUSH1 0x1 PUSH1 0xA0 SHL SUB DUP2 AND SUB PUSH2 0x296 JUMPI PUSH2 0x991 PUSH1 0xC0 DUP4 ADD PUSH2 0x4397 JUMP JUMPDEST SWAP2 PUSH1 0xE0 DUP2 ADD MLOAD SWAP1 PUSH1 0x1 PUSH1 0x1 PUSH1 0x40 SHL SUB DUP3 GT PUSH2 0x296 JUMPI ADD DUP2 PUSH1 0x1F DUP3 ADD SLT ISZERO PUSH2 0x296 JUMPI DUP1 MLOAD SWAP1 PUSH2 0x9BE DUP3 PUSH2 0x39BF JUMP JUMPDEST SWAP3 PUSH2 0x9CC PUSH1 0x40 MLOAD SWAP5 DUP6 PUSH2 0x3884 JUMP JUMPDEST DUP3 DUP5 MSTORE PUSH1 0x20 DUP4 DUP4 ADD ADD GT PUSH2 0x296 JUMPI PUSH1 0x20 DUP1 PUSH2 0x9E9 SWAP5 ADD SWAP2 ADD PUSH2 0x394B JUMP JUMPDEST DUP4 PUSH2 0x32A JUMP JUMPDEST PUSH1 0x40 MLOAD PUSH3 0x461BCD PUSH1 0xE5 SHL DUP2 MSTORE PUSH1 0x20 PUSH1 0x4 DUP3 ADD MSTORE PUSH1 0x15 PUSH1 0x24 DUP3 ADD MSTORE PUSH21 0x457363726F7720616C726561647920657869737473 PUSH1 0x58 SHL PUSH1 0x44 DUP3 ADD MSTORE PUSH1 0x64 SWAP1 REVERT JUMPDEST PUSH1 0x40 MLOAD PUSH3 0x461BCD PUSH1 0xE5 SHL DUP2 MSTORE PUSH1 0x20 PUSH1 0x4 DUP3 ADD MSTORE PUSH1 0x18 PUSH1 0x24 DUP3 ADD MSTORE PUSH32 0x496E76616C696420766572696669657220616464726573730000000000000000 PUSH1 0x44 DUP3 ADD MSTORE PUSH1 0x64 SWAP1 REVERT JUMPDEST PUSH1 0x40 MLOAD PUSH3 0x461BCD PUSH1 0xE5 SHL DUP2 MSTORE PUSH1 0x20 PUSH1 0x4 DUP3 ADD MSTORE PUSH1 0x12 PUSH1 0x24 DUP3 ADD MSTORE PUSH18 0x125B9D985B1A59081C995C5D595CDD081251 PUSH1 0x72 SHL PUSH1 0x44 DUP3 ADD MSTORE PUSH1 0x64 SWAP1 REVERT JUMPDEST CALLVALUE PUSH2 0x296 JUMPI PUSH1 0x20 CALLDATASIZE PUSH1 0x3 NOT ADD SLT PUSH2 0x296 JUMPI PUSH2 0xAC4 PUSH2 0x3993 JUMP JUMPDEST PUSH2 0xACC PUSH2 0x3C5B JUMP JUMPDEST PUSH2 0x166 DUP1 SLOAD PUSH1 0x1 PUSH1 0x1 PUSH1 0xA0 SHL SUB NOT AND PUSH1 0x1 PUSH1 0x1 PUSH1 0xA0 SHL SUB SWAP1 SWAP3 AND SWAP2 SWAP1 SWAP2 OR SWAP1 SSTORE STOP JUMPDEST CALLVALUE PUSH2 0x296 JUMPI PUSH1 0x0 CALLDATASIZE PUSH1 0x3 NOT ADD SLT PUSH2 0x296 JUMPI PUSH1 0x20 PUSH2 0x16E SLOAD PUSH1 0x40 MLOAD SWAP1 DUP2 MSTORE RETURN JUMPDEST CALLVALUE PUSH2 0x296 JUMPI PUSH1 0x0 CALLDATASIZE PUSH1 0x3 NOT ADD SLT PUSH2 0x296 JUMPI PUSH1 0x20 PUSH2 0x16C SLOAD PUSH1 0x40 MLOAD SWAP1 DUP2 MSTORE RETURN JUMPDEST CALLVALUE PUSH2 0x296 JUMPI PUSH1 0x20 CALLDATASIZE PUSH1 0x3 NOT ADD SLT PUSH2 0x296 JUMPI PUSH2 0xB45 PUSH2 0x3C5B JUMP JUMPDEST PUSH1 0x4 CALLDATALOAD PUSH2 0x162 SSTORE STOP JUMPDEST CALLVALUE PUSH2 0x296 JUMPI PUSH2 0xB5C CALLDATASIZE PUSH2 0x3A58 JUMP JUMPDEST PUSH2 0xB67 SWAP3 SWAP2 SWAP3 PUSH2 0x4407 JUMP JUMPDEST DUP2 PUSH1 0x0 MSTORE PUSH2 0x167 SWAP2 PUSH1 0x20 SWAP2 DUP4 DUP4 MSTORE PUSH1 0x40 PUSH1 0x0 KECCAK256 PUSH1 0x1 DUP1 PUSH1 0xA0 SHL SUB PUSH1 0x2 DUP3 ADD SLOAD AND CALLER SUB PUSH2 0xDA5 JUMPI PUSH1 0x6 DUP2 ADD SWAP6 PUSH1 0xFF DUP8 SLOAD AND SWAP2 PUSH1 0x8 DUP4 LT ISZERO PUSH2 0x6F5 JUMPI PUSH1 0x1 DUP1 SWAP4 SUB PUSH2 0xD60 JUMPI PUSH2 0xBBA PUSH1 0x5 DUP3 ADD SLOAD TIMESTAMP GT ISZERO PUSH2 0x44A2 JUMP JUMPDEST DUP4 ISZERO PUSH2 0xD11 JUMPI PUSH1 0x7 ADD PUSH1 0x1 PUSH1 0x1 PUSH1 0x40 SHL SUB DUP5 GT PUSH2 0x6DF JUMPI DUP4 DUP6 SWAP4 PUSH2 0xBE8 DUP3 PUSH2 0xBE2 DUP6 SLOAD PUSH2 0x37A6 JUMP JUMPDEST DUP6 PUSH2 0x43A4 JUMP JUMPDEST PUSH1 0x0 PUSH1 0x1F DUP4 GT PUSH1 0x1 EQ PUSH2 0xC81 JUMPI SWAP2 DUP1 PUSH2 0xC59 SWAP5 SWAP3 PUSH32 0x3115EF48405AED01F38B4FFD9972F946BCEF90D3F19063BC78A65978605C6BB SWAP7 SWAP5 PUSH1 0x0 SWAP4 PUSH2 0xC76 JUMPI JUMPDEST POP SHL SWAP1 PUSH1 0x0 NOT DUP9 PUSH1 0x3 SHL SHR NOT AND OR SWAP1 SSTORE JUMPDEST PUSH1 0xFF NOT SWAP9 PUSH1 0x2 DUP11 DUP3 SLOAD AND OR SWAP1 SSTORE PUSH1 0x40 MLOAD SWAP2 DUP3 SWAP2 DUP9 DUP4 MSTORE CALLER SWAP7 DUP10 DUP5 ADD SWAP2 PUSH2 0x44DF JUMP JUMPDEST SUB SWAP1 LOG3 PUSH1 0x0 MSTORE MSTORE PUSH1 0x3 PUSH1 0x6 PUSH1 0x40 PUSH1 0x0 KECCAK256 ADD SWAP2 DUP3 SLOAD AND OR SWAP1 SSTORE PUSH1 0x0 DUP1 RETURN JUMPDEST DUP6 ADD CALLDATALOAD SWAP3 POP DUP14 PUSH2 0xC27 JUMP JUMPDEST PUSH1 0x0 DUP5 DUP2 MSTORE DUP10 DUP2 KECCAK256 SWAP3 SWAP4 POP DUP8 SWAP1 PUSH1 0x1F NOT DUP3 AND SWAP1 JUMPDEST DUP12 DUP3 DUP3 LT PUSH2 0xCF7 JUMPI POP POP SWAP2 PUSH2 0xC59 SWAP6 SWAP4 SWAP2 PUSH32 0x3115EF48405AED01F38B4FFD9972F946BCEF90D3F19063BC78A65978605C6BB SWAP8 SWAP6 SWAP4 LT PUSH2 0xCDD JUMPI JUMPDEST POP POP DUP7 DUP2 SHL ADD SWAP1 SSTORE PUSH2 0xC38 JUMP JUMPDEST DUP5 ADD CALLDATALOAD PUSH1 0x0 NOT PUSH1 0x3 DUP11 SWAP1 SHL PUSH1 0xF8 AND SHR NOT AND SWAP1 SSTORE DUP12 DUP1 PUSH2 0xCD0 JUMP JUMPDEST DUP5 DUP10 ADD CALLDATALOAD DUP7 SSTORE DUP12 SWAP10 POP SWAP5 DUP7 ADD SWAP5 SWAP4 DUP5 ADD SWAP4 DUP11 SWAP4 POP ADD PUSH2 0xC95 JUMP JUMPDEST PUSH1 0x40 MLOAD PUSH3 0x461BCD PUSH1 0xE5 SHL DUP2 MSTORE PUSH1 0x4 DUP2 ADD DUP8 SWAP1 MSTORE PUSH1 0x21 PUSH1 0x24 DUP3 ADD MSTORE PUSH32 0x566572696669636174696F6E20646174612063616E6E6F7420626520656D7074 PUSH1 0x44 DUP3 ADD MSTORE PUSH1 0x79 PUSH1 0xF8 SHL PUSH1 0x64 DUP3 ADD MSTORE PUSH1 0x84 SWAP1 REVERT JUMPDEST PUSH1 0x40 MLOAD PUSH3 0x461BCD PUSH1 0xE5 SHL DUP2 MSTORE PUSH1 0x4 DUP2 ADD DUP8 SWAP1 MSTORE PUSH1 0x1D PUSH1 0x24 DUP3 ADD MSTORE PUSH32 0x496E76616C69642073746174757320666F72207375626D697373696F6E000000 PUSH1 0x44 DUP3 ADD MSTORE PUSH1 0x64 SWAP1 REVERT JUMPDEST PUSH1 0x40 MLOAD PUSH3 0x461BCD PUSH1 0xE5 SHL DUP2 MSTORE PUSH1 0x4 DUP2 ADD DUP6 SWAP1 MSTORE PUSH1 0x21 PUSH1 0x24 DUP3 ADD MSTORE PUSH32 0x4F6E6C792061737369676E65642076657269666965722063616E207375626D69 PUSH1 0x44 DUP3 ADD MSTORE PUSH1 0x1D PUSH1 0xFA SHL PUSH1 0x64 DUP3 ADD MSTORE PUSH1 0x84 SWAP1 REVERT JUMPDEST CALLVALUE PUSH2 0x296 JUMPI PUSH1 0x20 CALLDATASIZE PUSH1 0x3 NOT ADD SLT PUSH2 0x296 JUMPI PUSH1 0x1 PUSH1 0x1 PUSH1 0xA0 SHL SUB PUSH2 0xE15 PUSH2 0x3993 JUMP JUMPDEST AND PUSH1 0x0 MSTORE PUSH2 0x16A PUSH1 0x20 MSTORE PUSH1 0x20 PUSH1 0x40 PUSH1 0x0 KECCAK256 SLOAD PUSH1 0x40 MLOAD SWAP1 DUP2 MSTORE RETURN JUMPDEST CALLVALUE PUSH2 0x296 JUMPI PUSH1 0x60 CALLDATASIZE PUSH1 0x3 NOT ADD SLT PUSH2 0x296 JUMPI PUSH1 0x4 CALLDATALOAD PUSH1 0x24 CALLDATALOAD PUSH1 0x44 CALLDATALOAD DUP1 ISZERO ISZERO SWAP1 DUP2 DUP2 SUB PUSH2 0x296 JUMPI PUSH2 0xE5C PUSH2 0x3D94 JUMP JUMPDEST PUSH2 0xE64 PUSH2 0x4407 JUMP JUMPDEST DUP4 PUSH1 0x0 MSTORE PUSH2 0x167 PUSH1 0x20 SWAP2 DUP2 DUP4 MSTORE PUSH1 0x40 PUSH1 0x0 KECCAK256 PUSH1 0xFF PUSH1 0x6 DUP3 ADD SLOAD AND PUSH1 0x8 DUP2 LT ISZERO PUSH2 0x6F5 JUMPI PUSH1 0x3 SUB PUSH2 0xFAE JUMPI SWAP2 DUP2 PUSH2 0xED5 DUP8 SWAP6 SWAP4 PUSH1 0x9 DUP7 PUSH32 0xD5BB6AF7D4F5C5E8947F901C0FD7777F3A7574CAF63CCC2F4E9AE8252D0F552C SWAP11 PUSH1 0x8 PUSH1 0x40 SWAP12 SWAP10 ADD SSTORE ADD SWAP1 PUSH1 0xFF DUP1 NOT DUP4 SLOAD AND SWAP2 ISZERO ISZERO AND OR SWAP1 SSTORE JUMP JUMPDEST ISZERO PUSH2 0xF9F JUMPI PUSH2 0x16E PUSH2 0xEE7 DUP2 SLOAD PUSH2 0x43F8 JUMP JUMPDEST SWAP1 SSTORE PUSH32 0x46726175642064657465637465642062792041492073797374656D0000000000 DUP3 DUP7 MLOAD PUSH2 0xF16 DUP2 PUSH2 0x384E JUMP JUMPDEST PUSH1 0x1B DUP2 MSTORE ADD MSTORE DUP7 PUSH1 0x0 MSTORE DUP2 MSTORE DUP4 PUSH1 0x0 KECCAK256 DUP7 PUSH32 0xF8590CD6B8C44BE7A2BC57131F10E203EC5F7D7F2F761E1508A8CC964ECB9EB7 DUP4 PUSH1 0x3 DUP5 ADD SWAP4 DUP5 SLOAD SWAP1 PUSH1 0x6 PUSH1 0x1 DUP3 ADD SWAP2 PUSH1 0x1 DUP1 PUSH1 0xA0 SHL SUB SWAP4 DUP5 DUP5 SLOAD AND PUSH1 0x0 MSTORE PUSH2 0x169 DUP7 MSTORE PUSH2 0xF7B DUP14 PUSH1 0x0 KECCAK256 SWAP2 DUP3 SLOAD PUSH2 0x422D JUMP JUMPDEST SWAP1 SSTORE ADD PUSH1 0x6 PUSH1 0xFF NOT DUP3 SLOAD AND OR SWAP1 SSTORE SLOAD AND SWAP4 SLOAD DUP9 MLOAD SWAP1 DUP2 MSTORE LOG3 JUMPDEST DUP4 MLOAD SWAP3 DUP4 MSTORE DUP3 ADD MSTORE LOG2 STOP JUMPDEST POP PUSH2 0xFA9 DUP7 PUSH2 0x4500 JUMP JUMPDEST PUSH2 0xF94 JUMP JUMPDEST PUSH1 0x40 MLOAD PUSH3 0x461BCD PUSH1 0xE5 SHL DUP2 MSTORE PUSH1 0x4 DUP2 ADD DUP6 SWAP1 MSTORE PUSH1 0x1E PUSH1 0x24 DUP3 ADD MSTORE PUSH32 0x496E76616C69642073746174757320666F7220667261756420636865636B0000 PUSH1 0x44 DUP3 ADD MSTORE PUSH1 0x64 SWAP1 REVERT JUMPDEST CALLVALUE PUSH2 0x296 JUMPI PUSH1 0x0 CALLDATASIZE PUSH1 0x3 NOT ADD SLT PUSH2 0x296 JUMPI CALLER PUSH1 0x0 SWAP1 DUP2 MSTORE PUSH32 0xFFDFC1249C027F9191656349FEB0761381BB32C9F557E01F419FD08754BF5A1B PUSH1 0x20 SWAP1 DUP2 MSTORE PUSH1 0x40 SWAP1 SWAP2 KECCAK256 SLOAD PUSH1 0xFF AND ISZERO PUSH2 0x1162 JUMPI PUSH2 0x1046 PUSH2 0x444B JUMP JUMPDEST PUSH2 0x161 SLOAD PUSH1 0x1 PUSH1 0x1 PUSH1 0xA0 SHL SUB AND SWAP1 DUP2 PUSH2 0x1083 JUMPI POP POP PUSH1 0x0 DUP1 DUP1 DUP1 SELFBALANCE DUP2 DUP2 ISZERO PUSH2 0x107A JUMPI JUMPDEST CALLER SWAP1 CALL ISZERO PUSH2 0x889 JUMPI JUMPDEST PUSH1 0x1 PUSH2 0x12D SSTORE STOP JUMPDEST POP PUSH2 0x8FC PUSH2 0x1069 JUMP JUMPDEST PUSH1 0x40 MLOAD PUSH4 0x70A08231 PUSH1 0xE0 SHL DUP2 MSTORE ADDRESS PUSH1 0x4 DUP3 ADD MSTORE SWAP2 DUP2 DUP4 PUSH1 0x24 DUP2 DUP5 GAS STATICCALL SWAP3 DUP4 ISZERO PUSH2 0x889 JUMPI PUSH1 0x0 SWAP4 PUSH2 0x1131 JUMPI JUMPDEST POP PUSH1 0x40 MLOAD PUSH4 0xA9059CBB PUSH1 0xE0 SHL DUP2 MSTORE CALLER PUSH1 0x4 DUP3 ADD MSTORE PUSH1 0x24 DUP2 ADD SWAP4 SWAP1 SWAP4 MSTORE DUP2 SWAP1 DUP4 SWAP1 DUP2 PUSH1 0x0 DUP2 PUSH1 0x44 DUP2 ADD JUMPDEST SUB SWAP3 GAS CALL SWAP1 DUP2 ISZERO PUSH2 0x889 JUMPI PUSH1 0x0 SWAP2 PUSH2 0x10FA JUMPI JUMPDEST POP PUSH2 0x10F5 SWAP2 POP PUSH2 0x45D7 JUMP JUMPDEST PUSH2 0x1072 JUMP JUMPDEST SWAP1 POP DUP2 DUP2 RETURNDATASIZE DUP4 GT PUSH2 0x112A JUMPI JUMPDEST PUSH2 0x1110 DUP2 DUP4 PUSH2 0x3884 JUMP JUMPDEST DUP2 ADD SUB SLT PUSH2 0x296 JUMPI PUSH2 0x1124 PUSH2 0x10F5 SWAP2 PUSH2 0x4397 JUMP JUMPDEST DUP3 PUSH2 0x10EA JUMP JUMPDEST POP RETURNDATASIZE PUSH2 0x1106 JUMP JUMPDEST SWAP3 POP DUP2 DUP4 DUP2 RETURNDATASIZE DUP4 GT PUSH2 0x115B JUMPI JUMPDEST PUSH2 0x1148 DUP2 DUP4 PUSH2 0x3884 JUMP JUMPDEST DUP2 ADD SUB SLT PUSH2 0x296 JUMPI SWAP2 MLOAD SWAP2 PUSH2 0x10D7 PUSH2 0x10AE JUMP JUMPDEST POP RETURNDATASIZE PUSH2 0x113E JUMP JUMPDEST PUSH2 0x116B CALLER PUSH2 0x424B JUMP JUMPDEST SWAP1 PUSH1 0x0 PUSH1 0x40 MLOAD PUSH2 0x117A DUP2 PUSH2 0x3869 JUMP JUMPDEST PUSH1 0x42 DUP2 MSTORE DUP3 DUP2 ADD SWAP2 PUSH1 0x60 CALLDATASIZE DUP5 CALLDATACOPY DUP2 MLOAD ISZERO PUSH2 0x12D5 JUMPI PUSH1 0x30 DUP4 MSTORE8 DUP2 MLOAD PUSH1 0x1 SWAP1 DUP2 LT ISZERO PUSH2 0x12D5 JUMPI PUSH1 0x78 PUSH1 0x21 DUP5 ADD MSTORE8 PUSH1 0x41 SWAP1 JUMPDEST DUP1 DUP3 GT PUSH2 0x127B JUMPI POP POP PUSH2 0x124A JUMPI PUSH2 0x1216 SWAP4 PUSH2 0x1225 SWAP3 PUSH1 0x48 SWAP3 PUSH1 0x40 MLOAD SWAP7 DUP8 SWAP4 PUSH1 0x0 DUP1 MLOAD PUSH1 0x20 PUSH2 0x471C DUP4 CODECOPY DUP2 MLOAD SWAP2 MSTORE DUP9 DUP7 ADD MSTORE PUSH2 0x11ED DUP2 MLOAD DUP1 SWAP3 DUP11 PUSH1 0x37 DUP10 ADD SWAP2 ADD PUSH2 0x394B JUMP JUMPDEST DUP5 ADD SWAP2 PUSH17 0x1034B99036B4B9B9B4B733903937B6329 PUSH1 0x7D SHL PUSH1 0x37 DUP5 ADD MSTORE MLOAD DUP1 SWAP4 DUP7 DUP5 ADD SWAP1 PUSH2 0x394B JUMP JUMPDEST ADD SUB PUSH1 0x28 DUP2 ADD DUP6 MSTORE ADD DUP4 PUSH2 0x3884 JUMP JUMPDEST PUSH2 0x1246 PUSH1 0x40 MLOAD SWAP3 DUP4 SWAP3 PUSH3 0x461BCD PUSH1 0xE5 SHL DUP5 MSTORE PUSH1 0x4 DUP5 ADD MSTORE PUSH1 0x24 DUP4 ADD SWAP1 PUSH2 0x396E JUMP JUMPDEST SUB SWAP1 REVERT JUMPDEST PUSH1 0x64 DUP4 PUSH1 0x40 MLOAD SWAP1 PUSH3 0x461BCD PUSH1 0xE5 SHL DUP3 MSTORE DUP1 PUSH1 0x4 DUP4 ADD MSTORE PUSH1 0x24 DUP3 ADD MSTORE PUSH1 0x0 DUP1 MLOAD PUSH1 0x20 PUSH2 0x46FC DUP4 CODECOPY DUP2 MLOAD SWAP2 MSTORE PUSH1 0x44 DUP3 ADD MSTORE REVERT JUMPDEST SWAP1 SWAP2 PUSH1 0xF DUP2 AND PUSH1 0x10 DUP2 LT ISZERO PUSH2 0x12D5 JUMPI PUSH16 0x181899199A1A9B1B9C1CB0B131B232B3 PUSH1 0x81 SHL SWAP1 BYTE PUSH2 0x12AA DUP5 DUP7 PUSH2 0x423A JUMP JUMPDEST MSTORE8 PUSH1 0x4 SHR SWAP2 DUP1 ISZERO PUSH2 0x12BF JUMPI PUSH1 0x0 NOT ADD SWAP1 PUSH2 0x11A9 JUMP JUMPDEST PUSH4 0x4E487B71 PUSH1 0xE0 SHL PUSH1 0x0 MSTORE PUSH1 0x11 PUSH1 0x4 MSTORE PUSH1 0x24 PUSH1 0x0 REVERT JUMPDEST PUSH4 0x4E487B71 PUSH1 0xE0 SHL PUSH1 0x0 MSTORE PUSH1 0x32 PUSH1 0x4 MSTORE PUSH1 0x24 PUSH1 0x0 REVERT JUMPDEST CALLVALUE PUSH2 0x296 JUMPI PUSH1 0x40 CALLDATASIZE PUSH1 0x3 NOT ADD SLT PUSH2 0x296 JUMPI PUSH2 0x1B PUSH1 0x4 CALLDATALOAD PUSH2 0x130A PUSH2 0x39A9 JUMP JUMPDEST SWAP1 DUP1 PUSH1 0x0 MSTORE PUSH1 0x65 PUSH1 0x20 MSTORE PUSH2 0x1325 PUSH1 0x1 PUSH1 0x40 PUSH1 0x0 KECCAK256 ADD SLOAD PUSH2 0x3ECD JUMP JUMPDEST PUSH2 0x3FCC JUMP JUMPDEST CALLVALUE PUSH2 0x296 JUMPI PUSH1 0x0 CALLDATASIZE PUSH1 0x3 NOT ADD SLT PUSH2 0x296 JUMPI PUSH1 0x20 PUSH2 0x165 SLOAD PUSH1 0x40 MLOAD SWAP1 DUP2 MSTORE RETURN JUMPDEST CALLVALUE PUSH2 0x296 JUMPI PUSH1 0x0 CALLDATASIZE PUSH1 0x3 NOT ADD SLT PUSH2 0x296 JUMPI PUSH1 0x20 PUSH2 0x163 SLOAD PUSH1 0x40 MLOAD SWAP1 DUP2 MSTORE RETURN JUMPDEST CALLVALUE PUSH2 0x296 JUMPI PUSH1 0x0 CALLDATASIZE PUSH1 0x3 NOT ADD SLT PUSH2 0x296 JUMPI PUSH1 0x20 PUSH1 0x40 MLOAD PUSH32 0x7B8BB8356A3F32F5C111FF23F050D97F08988E0883529EA7BFF3B918887A6E0E DUP2 MSTORE RETURN JUMPDEST CALLVALUE PUSH2 0x296 JUMPI PUSH2 0x13B1 CALLDATASIZE PUSH2 0x3A58 JUMP JUMPDEST SWAP2 SWAP1 PUSH2 0x13BB PUSH2 0x4407 JUMP JUMPDEST DUP2 PUSH1 0x0 MSTORE PUSH2 0x167 PUSH1 0x20 MSTORE PUSH1 0x40 PUSH1 0x0 KECCAK256 PUSH1 0x1 DUP1 PUSH1 0xA0 SHL SUB PUSH1 0x1 DUP3 ADD SLOAD AND CALLER EQ DUP1 ISZERO PUSH2 0x1927 JUMPI JUMPDEST ISZERO PUSH2 0x18D2 JUMPI PUSH1 0x6 DUP2 ADD SWAP1 PUSH1 0xFF DUP3 SLOAD AND PUSH1 0x8 DUP2 LT ISZERO PUSH2 0x6F5 JUMPI PUSH1 0x2 DUP2 EQ SWAP1 DUP2 ISZERO PUSH2 0x18C7 JUMPI JUMPDEST POP ISZERO PUSH2 0x1882 JUMPI PUSH1 0x9 DUP2 ADD SWAP1 DUP2 SLOAD SWAP2 PUSH1 0xFF DUP4 PUSH1 0x8 SHR AND PUSH1 0x4 DUP2 LT ISZERO PUSH2 0x6F5 JUMPI PUSH2 0x1844 JUMPI DUP7 ISZERO PUSH2 0x17FF JUMPI PUSH2 0x100 PUSH1 0xA SWAP4 PUSH2 0xFF00 NOT AND OR SWAP1 SSTORE ADD PUSH1 0x1 PUSH1 0x1 PUSH1 0x40 SHL SUB DUP6 GT PUSH2 0x6DF JUMPI PUSH2 0x145D DUP6 PUSH2 0x1457 DUP4 SLOAD PUSH2 0x37A6 JUMP JUMPDEST DUP4 PUSH2 0x43A4 JUMP JUMPDEST DUP5 PUSH1 0x0 PUSH1 0x1F DUP3 GT PUSH1 0x1 EQ PUSH2 0x1799 JUMPI PUSH1 0x0 SWAP2 PUSH2 0x178E JUMPI JUMPDEST POP DUP6 PUSH1 0x1 SHL SWAP1 PUSH1 0x0 NOT DUP8 PUSH1 0x3 SHL SHR NOT AND OR SWAP1 SSTORE JUMPDEST DUP1 SLOAD PUSH1 0xFF NOT AND PUSH1 0x4 OR SWAP1 SSTORE PUSH1 0x40 MLOAD PUSH2 0x149E DUP2 PUSH2 0x37E0 JUMP JUMPDEST DUP3 DUP2 MSTORE CALLER PUSH1 0x20 DUP3 ADD MSTORE PUSH2 0x14B2 CALLDATASIZE DUP6 DUP5 PUSH2 0x39DA JUMP JUMPDEST PUSH1 0x40 DUP3 ADD MSTORE TIMESTAMP PUSH1 0x60 DUP3 ADD MSTORE PUSH1 0x0 PUSH1 0x80 DUP3 ADD MSTORE PUSH1 0x0 PUSH1 0xA0 DUP3 ADD MSTORE PUSH1 0x0 PUSH1 0xC0 DUP3 ADD MSTORE PUSH1 0x40 MLOAD PUSH2 0x14DE DUP2 PUSH2 0x3818 JUMP JUMPDEST PUSH1 0x0 DUP2 MSTORE PUSH1 0xE0 DUP3 ADD MSTORE DUP3 PUSH1 0x0 MSTORE PUSH2 0x168 PUSH1 0x20 MSTORE PUSH1 0x40 PUSH1 0x0 KECCAK256 DUP2 MLOAD DUP2 SSTORE PUSH1 0x1 DUP2 ADD PUSH1 0x1 DUP1 PUSH1 0xA0 SHL SUB PUSH1 0x20 DUP5 ADD MLOAD AND PUSH1 0x1 PUSH1 0x1 PUSH1 0x60 SHL SUB PUSH1 0xA0 SHL DUP3 SLOAD AND OR SWAP1 SSTORE PUSH1 0x40 DUP3 ADD MLOAD DUP1 MLOAD SWAP1 PUSH1 0x1 PUSH1 0x1 PUSH1 0x40 SHL SUB DUP3 GT PUSH2 0x6DF JUMPI PUSH2 0x154C DUP3 PUSH2 0x1543 PUSH1 0x2 DUP7 ADD SLOAD PUSH2 0x37A6 JUMP JUMPDEST PUSH1 0x2 DUP7 ADD PUSH2 0x43A4 JUMP JUMPDEST PUSH1 0x20 SWAP1 PUSH1 0x1F DUP4 GT PUSH1 0x1 EQ PUSH2 0x1719 JUMPI SWAP2 DUP1 PUSH1 0xE0 SWAP5 SWAP3 PUSH1 0x6 SWAP5 PUSH1 0x0 SWAP3 PUSH2 0x170E JUMPI JUMPDEST POP POP DUP2 PUSH1 0x1 SHL SWAP2 PUSH1 0x0 NOT SWAP1 PUSH1 0x3 SHL SHR NOT AND OR PUSH1 0x2 DUP3 ADD SSTORE JUMPDEST PUSH1 0x60 DUP5 ADD MLOAD PUSH1 0x3 DUP3 ADD SSTORE PUSH1 0x80 DUP5 ADD MLOAD PUSH1 0x4 DUP3 ADD SSTORE PUSH1 0xA0 DUP1 DUP6 ADD MLOAD PUSH1 0x5 DUP4 ADD DUP1 SLOAD PUSH1 0xC0 DUP9 ADD MLOAD PUSH1 0x1 PUSH1 0x1 PUSH1 0xA8 SHL SUB NOT SWAP1 SWAP2 AND PUSH1 0x1 PUSH1 0x1 PUSH1 0xA0 SHL SUB SWAP4 SWAP1 SWAP4 AND SWAP3 SWAP1 SWAP3 OR SWAP2 ISZERO ISZERO SWAP1 SWAP3 SHL PUSH1 0xFF PUSH1 0xA0 SHL AND OR SWAP1 SSTORE ADD SWAP2 ADD MLOAD DUP1 MLOAD SWAP1 PUSH1 0x1 PUSH1 0x1 PUSH1 0x40 SHL SUB DUP3 GT PUSH2 0x6DF JUMPI PUSH2 0x15F6 DUP3 PUSH2 0xBE2 DUP6 SLOAD PUSH2 0x37A6 JUMP JUMPDEST PUSH1 0x20 SWAP1 PUSH1 0x1F DUP4 GT PUSH1 0x1 EQ PUSH2 0x1680 JUMPI SWAP2 DUP1 PUSH2 0x1670 SWAP5 SWAP3 PUSH32 0x49E53FD224357020766CE272815E8A15C300AACE14A011CFCDED9335798FBD0E SWAP7 SWAP5 PUSH1 0x0 SWAP3 PUSH2 0x1675 JUMPI JUMPDEST POP POP DUP2 PUSH1 0x1 SHL SWAP2 PUSH1 0x0 NOT SWAP1 PUSH1 0x3 SHL SHR NOT AND OR SWAP1 SSTORE JUMPDEST PUSH2 0x16D PUSH2 0x1658 DUP2 SLOAD PUSH2 0x43F8 JUMP JUMPDEST SWAP1 SSTORE PUSH1 0x40 MLOAD SWAP2 DUP3 SWAP2 PUSH1 0x20 DUP4 MSTORE CALLER SWAP7 PUSH1 0x20 DUP5 ADD SWAP2 PUSH2 0x44DF JUMP JUMPDEST SUB SWAP1 LOG3 STOP JUMPDEST ADD MLOAD SWAP1 POP DUP9 DUP1 PUSH2 0x1636 JUMP JUMPDEST SWAP1 PUSH1 0x1F NOT DUP4 AND SWAP2 DUP5 PUSH1 0x0 MSTORE PUSH1 0x20 PUSH1 0x0 KECCAK256 SWAP3 PUSH1 0x0 JUMPDEST DUP2 DUP2 LT PUSH2 0x16F6 JUMPI POP SWAP3 PUSH1 0x1 SWAP3 DUP6 SWAP3 PUSH32 0x49E53FD224357020766CE272815E8A15C300AACE14A011CFCDED9335798FBD0E SWAP9 SWAP7 PUSH2 0x1670 SWAP9 SWAP7 LT PUSH2 0x16DD JUMPI JUMPDEST POP POP POP DUP2 SHL ADD SWAP1 SSTORE PUSH2 0x164B JUMP JUMPDEST ADD MLOAD PUSH1 0x0 NOT PUSH1 0xF8 DUP5 PUSH1 0x3 SHL AND SHR NOT AND SWAP1 SSTORE DUP9 DUP1 DUP1 PUSH2 0x16D0 JUMP JUMPDEST SWAP3 SWAP4 PUSH1 0x20 PUSH1 0x1 DUP2 SWAP3 DUP8 DUP7 ADD MLOAD DUP2 SSTORE ADD SWAP6 ADD SWAP4 ADD PUSH2 0x1694 JUMP JUMPDEST ADD MLOAD SWAP1 POP DUP10 DUP1 PUSH2 0x156B JUMP JUMPDEST SWAP1 PUSH1 0x2 DUP5 ADD PUSH1 0x0 MSTORE PUSH1 0x20 PUSH1 0x0 KECCAK256 SWAP2 PUSH1 0x0 JUMPDEST PUSH1 0x1F NOT DUP6 AND DUP2 LT PUSH2 0x1776 JUMPI POP SWAP3 PUSH1 0xE0 SWAP5 SWAP3 PUSH1 0x1 SWAP3 PUSH1 0x6 SWAP6 DUP4 PUSH1 0x1F NOT DUP2 AND LT PUSH2 0x175D JUMPI JUMPDEST POP POP POP DUP2 SHL ADD PUSH1 0x2 DUP3 ADD SSTORE PUSH2 0x1583 JUMP JUMPDEST ADD MLOAD PUSH1 0x0 NOT PUSH1 0xF8 DUP5 PUSH1 0x3 SHL AND SHR NOT AND SWAP1 SSTORE DUP10 DUP1 DUP1 PUSH2 0x174D JUMP JUMPDEST SWAP2 SWAP3 PUSH1 0x20 PUSH1 0x1 DUP2 SWAP3 DUP7 DUP6 ADD MLOAD DUP2 SSTORE ADD SWAP5 ADD SWAP3 ADD PUSH2 0x172A JUMP JUMPDEST SWAP1 POP DUP4 ADD CALLDATALOAD DUP7 PUSH2 0x1473 JUMP JUMPDEST PUSH1 0x0 DUP4 DUP2 MSTORE PUSH1 0x20 DUP2 KECCAK256 SWAP3 POP DUP8 SWAP1 PUSH1 0x1F NOT DUP3 AND SWAP1 JUMPDEST DUP2 DUP2 LT PUSH2 0x17E4 JUMPI POP LT PUSH2 0x17CA JUMPI JUMPDEST POP POP PUSH1 0x1 DUP6 DUP2 SHL ADD SWAP1 SSTORE PUSH2 0x1487 JUMP JUMPDEST DUP5 ADD CALLDATALOAD PUSH1 0x0 NOT PUSH1 0x3 DUP9 SWAP1 SHL PUSH1 0xF8 AND SHR NOT AND SWAP1 SSTORE DUP6 DUP1 PUSH2 0x17BB JUMP JUMPDEST DUP8 DUP5 ADD CALLDATALOAD DUP6 SSTORE PUSH1 0x1 SWAP1 SWAP5 ADD SWAP4 PUSH1 0x20 SWAP4 DUP5 ADD SWAP4 DUP11 SWAP4 POP ADD PUSH2 0x17AD JUMP JUMPDEST PUSH1 0x40 MLOAD PUSH3 0x461BCD PUSH1 0xE5 SHL DUP2 MSTORE PUSH1 0x20 PUSH1 0x4 DUP3 ADD MSTORE PUSH1 0x1E PUSH1 0x24 DUP3 ADD MSTORE PUSH32 0x4469737075746520726561736F6E2063616E6E6F7420626520656D7074790000 PUSH1 0x44 DUP3 ADD MSTORE PUSH1 0x64 SWAP1 REVERT JUMPDEST PUSH1 0x40 MLOAD PUSH3 0x461BCD PUSH1 0xE5 SHL DUP2 MSTORE PUSH1 0x20 PUSH1 0x4 DUP3 ADD MSTORE PUSH1 0x16 PUSH1 0x24 DUP3 ADD MSTORE PUSH22 0x111A5CDC1D5D1948185B1C9958591E481C985A5CD959 PUSH1 0x52 SHL PUSH1 0x44 DUP3 ADD MSTORE PUSH1 0x64 SWAP1 REVERT JUMPDEST PUSH1 0x40 MLOAD PUSH3 0x461BCD PUSH1 0xE5 SHL DUP2 MSTORE PUSH1 0x20 PUSH1 0x4 DUP3 ADD MSTORE PUSH1 0x1A PUSH1 0x24 DUP3 ADD MSTORE PUSH32 0x496E76616C69642073746174757320666F722064697370757465000000000000 PUSH1 0x44 DUP3 ADD MSTORE PUSH1 0x64 SWAP1 REVERT JUMPDEST PUSH1 0x5 SWAP2 POP EQ DUP7 PUSH2 0x1404 JUMP JUMPDEST PUSH1 0x40 MLOAD PUSH3 0x461BCD PUSH1 0xE5 SHL DUP2 MSTORE PUSH1 0x20 PUSH1 0x4 DUP3 ADD MSTORE PUSH1 0x27 PUSH1 0x24 DUP3 ADD MSTORE PUSH32 0x4F6E6C792075736572206F722076657269666965722063616E20726169736520 PUSH1 0x44 DUP3 ADD MSTORE PUSH7 0x64697370757465 PUSH1 0xC8 SHL PUSH1 0x64 DUP3 ADD MSTORE PUSH1 0x84 SWAP1 REVERT JUMPDEST POP PUSH1 0x2 DUP2 ADD SLOAD PUSH1 0x1 PUSH1 0x1 PUSH1 0xA0 SHL SUB AND CALLER EQ PUSH2 0x13E0 JUMP JUMPDEST CALLVALUE PUSH2 0x296 JUMPI PUSH1 0x0 CALLDATASIZE PUSH1 0x3 NOT ADD SLT PUSH2 0x296 JUMPI PUSH2 0x1956 PUSH2 0x4407 JUMP JUMPDEST PUSH2 0x195E PUSH2 0x444B JUMP JUMPDEST CALLER PUSH1 0x0 MSTORE PUSH2 0x16A DUP1 PUSH1 0x20 MSTORE PUSH1 0x40 PUSH1 0x0 KECCAK256 SLOAD DUP1 ISZERO PUSH2 0x198D JUMPI PUSH2 0x1072 SWAP2 CALLER PUSH1 0x0 MSTORE PUSH1 0x20 MSTORE PUSH1 0x0 PUSH1 0x40 DUP2 KECCAK256 SSTORE CALLER PUSH2 0x4615 JUMP JUMPDEST PUSH1 0x40 MLOAD PUSH3 0x461BCD PUSH1 0xE5 SHL DUP2 MSTORE PUSH1 0x20 PUSH1 0x4 DUP3 ADD MSTORE PUSH1 0x15 PUSH1 0x24 DUP3 ADD MSTORE PUSH21 0x4E6F206561726E696E677320617661696C61626C65 PUSH1 0x58 SHL PUSH1 0x44 DUP3 ADD MSTORE PUSH1 0x64 SWAP1 REVERT JUMPDEST CALLVALUE PUSH2 0x296 JUMPI PUSH1 0x0 CALLDATASIZE PUSH1 0x3 NOT ADD SLT PUSH2 0x296 JUMPI PUSH2 0x15F SLOAD PUSH1 0x40 MLOAD PUSH1 0x1 PUSH1 0x1 PUSH1 0xA0 SHL SUB SWAP1 SWAP2 AND DUP2 MSTORE PUSH1 0x20 SWAP1 RETURN JUMPDEST CALLVALUE PUSH2 0x296 JUMPI PUSH1 0x20 CALLDATASIZE PUSH1 0x3 NOT ADD SLT PUSH2 0x296 JUMPI PUSH1 0x4 CALLDATALOAD PUSH2 0x1A10 PUSH2 0x3C5B JUMP JUMPDEST PUSH2 0x3E8 DUP2 GT PUSH2 0x1A1F JUMPI PUSH2 0x165 SSTORE STOP JUMPDEST PUSH1 0x40 MLOAD PUSH3 0x461BCD PUSH1 0xE5 SHL DUP2 MSTORE PUSH1 0x20 PUSH1 0x4 DUP3 ADD MSTORE PUSH1 0x15 PUSH1 0x24 DUP3 ADD MSTORE PUSH21 0xA0D8C2E8CCDEE4DA40CCCACA40E8DEDE40D0D2CED PUSH1 0x5B SHL PUSH1 0x44 DUP3 ADD MSTORE PUSH1 0x64 SWAP1 REVERT JUMPDEST CALLVALUE PUSH2 0x296 JUMPI PUSH1 0x20 DUP1 PUSH1 0x3 NOT CALLDATASIZE ADD SLT PUSH2 0x296 JUMPI PUSH1 0x4 CALLDATALOAD SWAP1 PUSH2 0x1A7A PUSH2 0x4407 JUMP JUMPDEST DUP2 PUSH1 0x0 MSTORE PUSH2 0x167 DUP1 DUP3 MSTORE PUSH1 0x40 PUSH1 0x0 KECCAK256 PUSH1 0x5 DUP2 ADD SLOAD TIMESTAMP GT ISZERO PUSH2 0x1C0A JUMPI PUSH1 0x6 ADD SLOAD PUSH1 0xFF AND PUSH1 0x8 DUP2 LT ISZERO PUSH2 0x6F5 JUMPI DUP1 ISZERO SWAP1 DUP2 ISZERO PUSH2 0x1BFF JUMPI JUMPDEST POP ISZERO PUSH2 0x1BAB JUMPI PUSH14 0x115CD8DC9BDDC8195E1C1A5C9959 PUSH1 0x92 SHL DUP3 PUSH1 0x40 MLOAD PUSH2 0x1AD4 DUP2 PUSH2 0x384E JUMP JUMPDEST PUSH1 0xE DUP2 MSTORE ADD MSTORE DUP3 PUSH1 0x0 MSTORE DUP2 MSTORE DUP2 PUSH32 0xF8590CD6B8C44BE7A2BC57131F10E203EC5F7D7F2F761E1508A8CC964ECB9EB7 PUSH1 0x40 PUSH1 0x0 KECCAK256 SWAP3 PUSH1 0x3 DUP5 ADD SWAP4 DUP5 SLOAD SWAP1 PUSH1 0x6 PUSH1 0x1 DUP3 ADD SWAP2 PUSH1 0x1 DUP1 PUSH1 0xA0 SHL SUB SWAP4 DUP5 DUP5 SLOAD AND PUSH1 0x0 MSTORE PUSH2 0x169 DUP7 MSTORE PUSH2 0x1B3B PUSH1 0x40 PUSH1 0x0 KECCAK256 SWAP2 DUP3 SLOAD PUSH2 0x422D JUMP JUMPDEST SWAP1 SSTORE ADD PUSH1 0x6 PUSH1 0xFF NOT DUP3 SLOAD AND OR SWAP1 SSTORE SLOAD AND SWAP4 SLOAD PUSH1 0x40 MLOAD SWAP1 DUP2 MSTORE LOG3 PUSH32 0xE173EFA1002DC96426573F832DF7B93111BD0400B4E61BA7B2EDD306B8E1F0E7 PUSH1 0x40 MLOAD DUP1 PUSH2 0x1BA6 DUP2 PUSH1 0x60 SWAP1 PUSH1 0x20 DUP2 MSTORE PUSH1 0xE PUSH1 0x20 DUP3 ADD MSTORE PUSH14 0x115CD8DC9BDDC8195E1C1A5C9959 PUSH1 0x92 SHL PUSH1 0x40 DUP3 ADD MSTORE ADD SWAP1 JUMP JUMPDEST SUB SWAP1 LOG2 STOP JUMPDEST PUSH1 0x40 MLOAD PUSH3 0x461BCD PUSH1 0xE5 SHL DUP2 MSTORE PUSH1 0x4 DUP2 ADD DUP4 SWAP1 MSTORE PUSH1 0x26 PUSH1 0x24 DUP3 ADD MSTORE PUSH32 0x43616E6E6F742063616E63656C20657363726F7720696E2063757272656E7420 PUSH1 0x44 DUP3 ADD MSTORE PUSH6 0x737461747573 PUSH1 0xD0 SHL PUSH1 0x64 DUP3 ADD MSTORE PUSH1 0x84 SWAP1 REVERT JUMPDEST PUSH1 0x1 SWAP2 POP EQ DUP5 PUSH2 0x1AAF JUMP JUMPDEST PUSH1 0x40 MLOAD PUSH3 0x461BCD PUSH1 0xE5 SHL DUP2 MSTORE PUSH1 0x4 DUP2 ADD DUP5 SWAP1 MSTORE PUSH1 0x12 PUSH1 0x24 DUP3 ADD MSTORE PUSH18 0x115CD8DC9BDDC81B9BDD08195E1C1A5C9959 PUSH1 0x72 SHL PUSH1 0x44 DUP3 ADD MSTORE PUSH1 0x64 SWAP1 REVERT JUMPDEST CALLVALUE PUSH2 0x296 JUMPI PUSH1 0x20 CALLDATASIZE PUSH1 0x3 NOT ADD SLT PUSH2 0x296 JUMPI PUSH1 0x4 CALLDATALOAD PUSH2 0x1C60 PUSH2 0x3C5B JUMP JUMPDEST PUSH1 0x64 DUP2 GT PUSH2 0x1C6E JUMPI PUSH2 0x164 SSTORE STOP JUMPDEST PUSH1 0x40 MLOAD PUSH3 0x461BCD PUSH1 0xE5 SHL DUP2 MSTORE PUSH1 0x20 PUSH1 0x4 DUP3 ADD MSTORE PUSH1 0x17 PUSH1 0x24 DUP3 ADD MSTORE PUSH32 0x496E76616C6964206672617564207468726573686F6C64000000000000000000 PUSH1 0x44 DUP3 ADD MSTORE PUSH1 0x64 SWAP1 REVERT JUMPDEST CALLVALUE PUSH2 0x296 JUMPI PUSH1 0x0 CALLDATASIZE PUSH1 0x3 NOT ADD SLT PUSH2 0x296 JUMPI PUSH1 0x20 PUSH1 0x40 MLOAD PUSH1 0x0 DUP2 MSTORE RETURN JUMPDEST CALLVALUE PUSH2 0x296 JUMPI PUSH1 0x0 CALLDATASIZE PUSH1 0x3 NOT ADD SLT PUSH2 0x296 JUMPI PUSH1 0x20 PUSH2 0x16D SLOAD PUSH1 0x40 MLOAD SWAP1 DUP2 MSTORE RETURN JUMPDEST CALLVALUE PUSH2 0x296 JUMPI PUSH1 0x20 CALLDATASIZE PUSH1 0x3 NOT ADD SLT PUSH2 0x296 JUMPI PUSH1 0x4 CALLDATALOAD PUSH2 0x1D0A PUSH2 0x3D94 JUMP JUMPDEST PUSH2 0x1D12 PUSH2 0x4407 JUMP JUMPDEST DUP1 PUSH1 0x0 MSTORE PUSH2 0x167 PUSH1 0x20 MSTORE PUSH1 0x40 PUSH1 0x0 KECCAK256 PUSH1 0x6 DUP2 ADD SWAP1 DUP2 SLOAD PUSH1 0xFF DUP2 AND PUSH1 0x8 DUP2 LT ISZERO PUSH2 0x6F5 JUMPI PUSH2 0x1D8B JUMPI PUSH1 0x3 DUP3 PUSH32 0x37AFF1EB3DF35F85DF91D58F1924918A122A79CAB9B4E364C432CB66682C64B2 SWAP5 PUSH1 0x1 PUSH1 0x5 PUSH1 0x40 SWAP7 ADD SLOAD SWAP5 PUSH2 0x1D74 DUP7 TIMESTAMP GT ISZERO PUSH2 0x44A2 JUMP JUMPDEST PUSH1 0xFF NOT AND OR SWAP1 SSTORE ADD SLOAD SWAP1 DUP3 MLOAD SWAP2 DUP3 MSTORE PUSH1 0x20 DUP3 ADD MSTORE LOG2 STOP JUMPDEST PUSH1 0x64 PUSH1 0x40 MLOAD PUSH3 0x461BCD PUSH1 0xE5 SHL DUP2 MSTORE PUSH1 0x20 PUSH1 0x4 DUP3 ADD MSTORE PUSH1 0x20 PUSH1 0x24 DUP3 ADD MSTORE PUSH32 0x496E76616C69642073746174757320666F72206C6F636B696E672066756E6473 PUSH1 0x44 DUP3 ADD MSTORE REVERT JUMPDEST CALLVALUE PUSH2 0x296 JUMPI PUSH1 0x20 CALLDATASIZE PUSH1 0x3 NOT ADD SLT PUSH2 0x296 JUMPI PUSH1 0x0 PUSH2 0x1A0 PUSH1 0x40 MLOAD PUSH2 0x1DF1 DUP2 PUSH2 0x37FC JUMP JUMPDEST DUP3 DUP2 MSTORE DUP3 PUSH1 0x20 DUP3 ADD MSTORE DUP3 PUSH1 0x40 DUP3 ADD MSTORE DUP3 PUSH1 0x60 DUP3 ADD MSTORE DUP3 PUSH1 0x80 DUP3 ADD MSTORE DUP3 PUSH1 0xA0 DUP3 ADD MSTORE DUP3 PUSH1 0xC0 DUP3 ADD MSTORE PUSH1 0x60 PUSH1 0xE0 DUP3 ADD MSTORE DUP3 PUSH2 0x100 DUP3 ADD MSTORE DUP3 PUSH2 0x120 DUP3 ADD MSTORE DUP3 PUSH2 0x140 DUP3 ADD MSTORE PUSH1 0x60 PUSH2 0x160 DUP3 ADD MSTORE DUP3 PUSH2 0x180 DUP3 ADD MSTORE ADD MSTORE PUSH1 0x4 CALLDATALOAD PUSH1 0x0 MSTORE PUSH2 0x167 PUSH1 0x20 MSTORE PUSH1 0x40 PUSH1 0x0 KECCAK256 PUSH1 0x40 MLOAD SWAP1 PUSH2 0x1E63 DUP3 PUSH2 0x37FC JUMP JUMPDEST DUP1 SLOAD DUP3 MSTORE PUSH1 0x1 DUP2 ADD SLOAD PUSH1 0x1 PUSH1 0x1 PUSH1 0xA0 SHL SUB SWAP1 DUP2 AND PUSH1 0x20 DUP5 ADD MSTORE PUSH1 0x2 DUP3 ADD SLOAD AND PUSH1 0x40 DUP4 ADD MSTORE PUSH1 0x3 DUP2 ADD SLOAD PUSH1 0x60 DUP4 ADD MSTORE PUSH1 0x4 DUP2 ADD SLOAD PUSH1 0x80 DUP4 ADD MSTORE PUSH1 0x5 DUP2 ADD SLOAD PUSH1 0xA0 DUP4 ADD MSTORE PUSH1 0x6 DUP2 ADD SLOAD PUSH1 0xFF AND PUSH1 0x8 DUP2 LT ISZERO PUSH2 0x6F5 JUMPI PUSH1 0xC0 DUP4 ADD MSTORE PUSH2 0x1EC7 PUSH1 0x7 DUP3 ADD PUSH2 0x38A5 JUMP JUMPDEST PUSH1 0xE0 DUP4 ADD MSTORE PUSH1 0x8 DUP2 ADD SLOAD PUSH2 0x100 DUP4 ADD MSTORE PUSH1 0x9 DUP2 ADD SLOAD SWAP1 PUSH1 0xFF DUP3 AND ISZERO ISZERO PUSH2 0x120 DUP5 ADD MSTORE PUSH1 0x4 PUSH1 0xFF DUP4 PUSH1 0x8 SHR AND LT ISZERO PUSH2 0x6F5 JUMPI PUSH1 0xFF PUSH1 0xC SWAP3 PUSH1 0x8 SHR AND PUSH2 0x140 DUP5 ADD MSTORE PUSH2 0x1F13 PUSH1 0xA DUP3 ADD PUSH2 0x38A5 JUMP JUMPDEST PUSH2 0x160 DUP5 ADD MSTORE PUSH1 0x1 DUP1 PUSH1 0xA0 SHL SUB PUSH1 0xB DUP3 ADD SLOAD AND PUSH2 0x180 DUP5 ADD MSTORE ADD SLOAD PUSH2 0x1A0 DUP3 ADD MSTORE PUSH1 0x40 MLOAD DUP1 SWAP2 PUSH1 0x20 DUP3 MSTORE DUP1 MLOAD PUSH1 0x20 DUP4 ADD MSTORE PUSH1 0x1 DUP1 PUSH1 0xA0 SHL SUB PUSH1 0x20 DUP3 ADD MLOAD AND PUSH1 0x40 DUP4 ADD MSTORE PUSH1 0x1 DUP1 PUSH1 0xA0 SHL SUB PUSH1 0x40 DUP3 ADD MLOAD AND PUSH1 0x60 DUP4 ADD MSTORE PUSH1 0x60 DUP2 ADD MLOAD PUSH1 0x80 DUP4 ADD MSTORE PUSH1 0x80 DUP2 ADD MLOAD PUSH1 0xA0 DUP4 ADD MSTORE PUSH1 0xA0 DUP2 ADD MLOAD PUSH1 0xC0 DUP4 ADD MSTORE PUSH2 0x1F98 PUSH1 0xC0 DUP3 ADD MLOAD PUSH1 0xE0 DUP5 ADD SWAP1 PUSH2 0x3A11 JUMP JUMPDEST PUSH1 0xE0 DUP2 ADD MLOAD PUSH2 0x1A0 PUSH2 0x2002 PUSH2 0x1FBC PUSH2 0x1C0 SWAP4 DUP5 PUSH2 0x100 DUP9 ADD MSTORE PUSH2 0x1E0 DUP8 ADD SWAP1 PUSH2 0x396E JUMP JUMPDEST PUSH2 0x100 DUP6 ADD MLOAD PUSH2 0x120 DUP8 ADD MSTORE PUSH2 0x120 DUP6 ADD MLOAD ISZERO ISZERO PUSH2 0x140 DUP8 ADD MSTORE PUSH2 0x1FEA PUSH2 0x140 DUP7 ADD MLOAD PUSH2 0x160 DUP9 ADD SWAP1 PUSH2 0x3A1E JUMP JUMPDEST PUSH2 0x160 DUP6 ADD MLOAD DUP7 DUP3 SUB PUSH1 0x1F NOT ADD PUSH2 0x180 DUP9 ADD MSTORE PUSH2 0x396E JUMP JUMPDEST PUSH2 0x180 DUP5 ADD MLOAD PUSH1 0x1 PUSH1 0x1 PUSH1 0xA0 SHL SUB AND DUP6 DUP4 ADD MSTORE SWAP3 ADD MLOAD SWAP1 DUP4 ADD MSTORE SUB SWAP1 RETURN JUMPDEST CALLVALUE PUSH2 0x296 JUMPI PUSH1 0x40 CALLDATASIZE PUSH1 0x3 NOT ADD SLT PUSH2 0x296 JUMPI PUSH2 0x2039 PUSH2 0x39A9 JUMP JUMPDEST PUSH1 0x4 CALLDATALOAD PUSH1 0x0 MSTORE PUSH1 0x65 PUSH1 0x20 MSTORE PUSH1 0x40 PUSH1 0x0 KECCAK256 SWAP1 PUSH1 0x1 DUP1 PUSH1 0xA0 SHL SUB AND PUSH1 0x0 MSTORE PUSH1 0x20 MSTORE PUSH1 0x20 PUSH1 0xFF PUSH1 0x40 PUSH1 0x0 KECCAK256 SLOAD AND PUSH1 0x40 MLOAD SWAP1 ISZERO ISZERO DUP2 MSTORE RETURN JUMPDEST CALLVALUE PUSH2 0x296 JUMPI PUSH1 0x20 CALLDATASIZE PUSH1 0x3 NOT ADD SLT PUSH2 0x296 JUMPI PUSH1 0x1 PUSH1 0x1 PUSH1 0xA0 SHL SUB PUSH2 0x208E PUSH2 0x3993 JUMP JUMPDEST AND PUSH1 0x0 MSTORE PUSH2 0x169 PUSH1 0x20 MSTORE PUSH1 0x20 PUSH1 0x40 PUSH1 0x0 KECCAK256 SLOAD PUSH1 0x40 MLOAD SWAP1 DUP2 MSTORE RETURN JUMPDEST CALLVALUE PUSH2 0x296 JUMPI PUSH1 0x0 CALLDATASIZE PUSH1 0x3 NOT ADD SLT PUSH2 0x296 JUMPI PUSH1 0x20 PUSH2 0x16B SLOAD PUSH1 0x40 MLOAD SWAP1 DUP2 MSTORE RETURN JUMPDEST CALLVALUE PUSH2 0x296 JUMPI PUSH1 0x0 CALLDATASIZE PUSH1 0x3 NOT ADD SLT PUSH2 0x296 JUMPI PUSH2 0x20E0 PUSH2 0x3C5B JUMP JUMPDEST PUSH2 0x20E8 PUSH2 0x4407 JUMP JUMPDEST PUSH1 0x1 PUSH1 0xFF NOT PUSH1 0x97 SLOAD AND OR PUSH1 0x97 SSTORE PUSH32 0x62E78CEA01BEE320CD4E420270B5EA74000D11B0C9F74754EBDBFC544B05A258 PUSH1 0x20 PUSH1 0x40 MLOAD CALLER DUP2 MSTORE LOG1 STOP JUMPDEST CALLVALUE PUSH2 0x296 JUMPI PUSH1 0x60 CALLDATASIZE PUSH1 0x3 NOT ADD SLT PUSH2 0x296 JUMPI PUSH1 0x24 PUSH1 0x4 CALLDATALOAD DUP2 CALLDATALOAD DUP1 ISZERO ISZERO DUP1 DUP3 SUB PUSH2 0x296 JUMPI PUSH1 0x1 PUSH1 0x1 PUSH1 0x40 SHL SUB SWAP4 PUSH1 0x44 CALLDATALOAD DUP6 DUP2 GT PUSH2 0x296 JUMPI PUSH2 0x2164 SWAP1 CALLDATASIZE SWAP1 PUSH1 0x4 ADD PUSH2 0x3A2B JUMP JUMPDEST SWAP6 SWAP1 SWAP2 PUSH32 0x7B8BB8356A3F32F5C111FF23F050D97F08988E0883529EA7BFF3B918887A6E0E SWAP5 DUP6 PUSH1 0x0 MSTORE PUSH1 0x20 SWAP6 PUSH1 0x65 DUP8 MSTORE PUSH1 0x40 PUSH1 0x0 KECCAK256 CALLER PUSH1 0x0 MSTORE DUP8 MSTORE PUSH1 0xFF PUSH1 0x40 PUSH1 0x0 KECCAK256 SLOAD AND ISZERO PUSH2 0x251C JUMPI POP PUSH2 0x21B6 PUSH2 0x4407 JUMP JUMPDEST DUP7 PUSH1 0x0 MSTORE PUSH2 0x167 SWAP2 DUP3 DUP8 MSTORE PUSH1 0x40 PUSH1 0x0 KECCAK256 SWAP1 PUSH1 0xFF PUSH1 0x6 DUP4 ADD SLOAD AND PUSH1 0x8 DUP2 LT ISZERO PUSH2 0x2507 JUMPI PUSH1 0x4 SUB PUSH2 0x24D0 JUMPI PUSH1 0x9 DUP3 ADD PUSH1 0xFF DUP2 SLOAD PUSH1 0x8 SHR AND SWAP6 PUSH1 0x4 DUP8 LT ISZERO PUSH2 0x24BB JUMPI PUSH1 0x1 DUP1 SWAP8 SUB PUSH2 0x2477 JUMPI PUSH1 0x0 DUP12 DUP2 MSTORE PUSH2 0x168 DUP12 MSTORE PUSH1 0x40 SWAP1 KECCAK256 PUSH1 0x5 DUP2 ADD DUP1 SLOAD TIMESTAMP PUSH1 0x4 DUP5 ADD SSTORE PUSH1 0xFF PUSH1 0xA0 SHL NOT CALLER AND PUSH1 0x1 PUSH1 0x1 PUSH1 0xA8 SHL SUB NOT SWAP1 SWAP2 AND OR DUP8 ISZERO ISZERO PUSH1 0xA0 SHL PUSH1 0xFF PUSH1 0xA0 SHL AND OR SWAP1 SSTORE PUSH1 0x1 PUSH1 0x1 PUSH1 0xA0 SHL SUB NOT SWAP4 SWAP1 PUSH1 0x6 ADD SWAP2 DUP14 GT PUSH2 0x2463 JUMPI POP PUSH2 0x2260 DUP13 PUSH2 0x1457 DUP4 SLOAD PUSH2 0x37A6 JUMP JUMPDEST DUP12 PUSH1 0x0 PUSH1 0x1F DUP3 GT PUSH1 0x1 EQ PUSH2 0x23CA JUMPI SWAP2 DUP2 PUSH32 0x88E268CE399F0DAD6D216A47576B1FEED8FDF0E2047604EC38D03BD0A9485263 SWAP13 SWAP12 SWAP11 SWAP9 SWAP7 SWAP5 SWAP3 PUSH2 0x1670 SWAP11 SWAP9 SWAP7 SWAP5 PUSH1 0x0 SWAP2 PUSH2 0x23BF JUMPI JUMPDEST POP PUSH1 0x0 NOT PUSH1 0x3 DUP4 SWAP1 SHL SHR NOT AND SWAP1 DUP9 SHL OR SWAP1 SSTORE JUMPDEST DUP1 SLOAD PUSH2 0xFF00 NOT AND PUSH2 0x300 OR SWAP1 SSTORE PUSH1 0xB DUP3 ADD DUP1 SLOAD SWAP1 SWAP2 AND CALLER OR SWAP1 SSTORE TIMESTAMP PUSH1 0xC SWAP1 SWAP2 ADD SSTORE ISZERO PUSH2 0x23AF JUMPI PUSH1 0x39 PUSH1 0xF9 SHL PUSH1 0x40 DUP1 MLOAD PUSH2 0x22F2 DUP2 PUSH2 0x3833 JUMP JUMPDEST PUSH1 0x21 DUP2 MSTORE PUSH32 0x44697370757465207265736F6C76656420696E206661766F72206F6620757365 DUP10 DUP3 ADD MSTORE ADD MSTORE DUP8 PUSH1 0x0 MSTORE DUP6 MSTORE DUP7 PUSH32 0xF8590CD6B8C44BE7A2BC57131F10E203EC5F7D7F2F761E1508A8CC964ECB9EB7 DUP7 PUSH1 0x40 PUSH1 0x0 KECCAK256 SWAP4 PUSH1 0x3 DUP6 ADD SWAP5 PUSH1 0x6 DUP7 SLOAD SWAP3 DUP3 ADD SWAP2 PUSH1 0x1 DUP1 PUSH1 0xA0 SHL SUB SWAP4 DUP5 DUP5 SLOAD AND PUSH1 0x0 MSTORE PUSH2 0x169 DUP7 MSTORE PUSH2 0x237D PUSH1 0x40 PUSH1 0x0 KECCAK256 SWAP2 DUP3 SLOAD PUSH2 0x422D JUMP JUMPDEST SWAP1 SSTORE ADD PUSH1 0x6 PUSH1 0xFF NOT DUP3 SLOAD AND OR SWAP1 SSTORE SLOAD AND SWAP4 SLOAD PUSH1 0x40 MLOAD SWAP1 DUP2 MSTORE LOG3 JUMPDEST PUSH1 0x40 DUP1 MLOAD SWAP5 DUP6 SWAP5 DUP6 MSTORE DUP5 ADD MSTORE CALLER SWAP7 PUSH1 0x40 DUP5 ADD SWAP2 PUSH2 0x44DF JUMP JUMPDEST POP POP PUSH2 0x23BA DUP7 PUSH2 0x4500 JUMP JUMPDEST PUSH2 0x2397 JUMP JUMPDEST SWAP1 POP DUP10 ADD CALLDATALOAD CODESIZE PUSH2 0x22A7 JUMP JUMPDEST PUSH1 0x1F NOT DUP3 AND SWAP1 DUP4 PUSH1 0x0 MSTORE DUP13 PUSH1 0x0 KECCAK256 SWAP2 PUSH1 0x0 JUMPDEST DUP2 DUP2 LT PUSH2 0x2444 JUMPI POP SWAP3 DUP11 SWAP9 SWAP7 SWAP5 SWAP3 PUSH2 0x1670 SWAP12 SWAP3 PUSH32 0x88E268CE399F0DAD6D216A47576B1FEED8FDF0E2047604EC38D03BD0A9485263 SWAP16 SWAP15 SWAP14 SWAP12 SWAP10 SWAP8 SWAP6 DUP4 GT PUSH2 0x242A JUMPI JUMPDEST POP POP DUP2 SHL ADD SWAP1 SSTORE PUSH2 0x22BA JUMP JUMPDEST DUP12 ADD CALLDATALOAD PUSH1 0x0 NOT PUSH1 0x3 DUP5 SWAP1 SHL PUSH1 0xF8 AND SHR NOT AND SWAP1 SSTORE CODESIZE DUP1 PUSH2 0x241E JUMP JUMPDEST SWAP3 DUP3 SWAP5 POP DUP12 DUP16 SWAP3 SWAP4 SWAP2 DUP4 SWAP3 DUP16 ADD CALLDATALOAD DUP2 SSTORE ADD SWAP5 ADD SWAP3 ADD SWAP1 DUP16 SWAP4 SWAP3 SWAP2 PUSH2 0x23DC JUMP JUMPDEST PUSH4 0x4E487B71 PUSH1 0xE0 SHL PUSH1 0x0 SWAP1 DUP2 MSTORE PUSH1 0x41 PUSH1 0x4 MSTORE REVERT JUMPDEST PUSH1 0x40 MLOAD PUSH3 0x461BCD PUSH1 0xE5 SHL DUP2 MSTORE PUSH1 0x4 DUP2 ADD DUP12 SWAP1 MSTORE PUSH1 0x1C DUP2 DUP6 ADD MSTORE PUSH32 0x44697370757465206E6F7420696E20636F727265637420737461746500000000 PUSH1 0x44 DUP3 ADD MSTORE PUSH1 0x64 SWAP1 REVERT JUMPDEST DUP3 PUSH4 0x4E487B71 PUSH1 0xE0 SHL PUSH1 0x0 MSTORE PUSH1 0x21 PUSH1 0x4 MSTORE PUSH1 0x0 REVERT JUMPDEST DUP8 PUSH1 0x11 PUSH1 0x64 SWAP3 PUSH1 0x40 MLOAD SWAP3 PUSH3 0x461BCD PUSH1 0xE5 SHL DUP5 MSTORE PUSH1 0x4 DUP5 ADD MSTORE DUP3 ADD MSTORE PUSH17 0x4E6F206163746976652064697370757465 PUSH1 0x78 SHL PUSH1 0x44 DUP3 ADD MSTORE REVERT JUMPDEST POP PUSH4 0x4E487B71 PUSH1 0xE0 SHL PUSH1 0x0 SWAP1 DUP2 MSTORE PUSH1 0x21 PUSH1 0x4 MSTORE REVERT JUMPDEST DUP7 SWAP2 POP PUSH2 0x2528 CALLER PUSH2 0x424B JUMP JUMPDEST SWAP1 PUSH1 0x40 MLOAD PUSH2 0x2535 DUP2 PUSH2 0x3869 JUMP JUMPDEST PUSH1 0x42 DUP2 MSTORE DUP4 DUP2 ADD SWAP2 PUSH1 0x60 CALLDATASIZE DUP5 CALLDATACOPY DUP2 MLOAD ISZERO PUSH2 0x2689 JUMPI PUSH1 0x30 DUP4 MSTORE8 DUP2 MLOAD PUSH1 0x1 SWAP1 DUP2 LT ISZERO PUSH2 0x2674 JUMPI PUSH1 0x78 PUSH1 0x21 DUP5 ADD MSTORE8 PUSH1 0x41 SWAP1 JUMPDEST DUP1 DUP3 GT PUSH2 0x2606 JUMPI POP POP PUSH2 0x25D6 JUMPI PUSH1 0x48 PUSH2 0x1246 SWAP4 PUSH2 0x25AB SWAP4 PUSH2 0x25BA SWAP4 PUSH1 0x40 MLOAD SWAP6 DUP7 SWAP4 PUSH1 0x0 DUP1 MLOAD PUSH1 0x20 PUSH2 0x471C DUP4 CODECOPY DUP2 MLOAD SWAP2 MSTORE DUP11 DUP7 ADD MSTORE PUSH2 0x11ED DUP2 MLOAD DUP1 SWAP3 DUP13 PUSH1 0x37 DUP10 ADD SWAP2 ADD PUSH2 0x394B JUMP JUMPDEST ADD SUB PUSH1 0x28 DUP2 ADD DUP5 MSTORE ADD DUP3 PUSH2 0x3884 JUMP JUMPDEST PUSH1 0x40 MLOAD SWAP4 DUP5 SWAP4 PUSH3 0x461BCD PUSH1 0xE5 SHL DUP6 MSTORE PUSH1 0x4 DUP6 ADD MSTORE DUP4 ADD SWAP1 PUSH2 0x396E JUMP JUMPDEST PUSH1 0x64 DUP6 DUP6 PUSH1 0x40 MLOAD SWAP2 PUSH3 0x461BCD PUSH1 0xE5 SHL DUP4 MSTORE DUP2 PUSH1 0x4 DUP5 ADD MSTORE DUP3 ADD MSTORE PUSH1 0x0 DUP1 MLOAD PUSH1 0x20 PUSH2 0x46FC DUP4 CODECOPY DUP2 MLOAD SWAP2 MSTORE PUSH1 0x44 DUP3 ADD MSTORE REVERT JUMPDEST SWAP1 SWAP2 PUSH1 0xF DUP2 AND PUSH1 0x10 DUP2 LT ISZERO PUSH2 0x265F JUMPI PUSH16 0x181899199A1A9B1B9C1CB0B131B232B3 PUSH1 0x81 SHL SWAP1 BYTE PUSH2 0x2635 DUP5 DUP7 PUSH2 0x423A JUMP JUMPDEST MSTORE8 PUSH1 0x4 SHR SWAP2 DUP1 ISZERO PUSH2 0x264A JUMPI PUSH1 0x0 NOT ADD SWAP1 PUSH2 0x2564 JUMP JUMPDEST DUP8 PUSH4 0x4E487B71 PUSH1 0xE0 SHL PUSH1 0x0 MSTORE PUSH1 0x11 PUSH1 0x4 MSTORE PUSH1 0x0 REVERT JUMPDEST DUP9 PUSH4 0x4E487B71 PUSH1 0xE0 SHL PUSH1 0x0 MSTORE PUSH1 0x32 PUSH1 0x4 MSTORE PUSH1 0x0 REVERT JUMPDEST DUP7 PUSH4 0x4E487B71 PUSH1 0xE0 SHL PUSH1 0x0 MSTORE PUSH1 0x32 PUSH1 0x4 MSTORE PUSH1 0x0 REVERT JUMPDEST DUP6 PUSH4 0x4E487B71 PUSH1 0xE0 SHL PUSH1 0x0 MSTORE PUSH1 0x32 PUSH1 0x4 MSTORE PUSH1 0x0 REVERT JUMPDEST CALLVALUE PUSH2 0x296 JUMPI PUSH1 0x0 CALLDATASIZE PUSH1 0x3 NOT ADD SLT PUSH2 0x296 JUMPI PUSH1 0x20 PUSH1 0x40 MLOAD PUSH32 0xA49807205CE4D355092EF5A8A18F56E8913CF4A201FBE287825B095693C21775 DUP2 MSTORE RETURN JUMPDEST CALLVALUE PUSH2 0x296 JUMPI PUSH1 0x20 CALLDATASIZE PUSH1 0x3 NOT ADD SLT PUSH2 0x296 JUMPI PUSH1 0x4 CALLDATALOAD PUSH1 0x0 MSTORE PUSH2 0x167 PUSH1 0x20 MSTORE PUSH1 0x40 PUSH1 0x0 KECCAK256 DUP1 SLOAD PUSH1 0x1 PUSH1 0xA0 SHL PUSH1 0x1 SWAP1 SUB SWAP2 DUP3 PUSH1 0x1 DUP3 ADD SLOAD AND SWAP3 DUP1 PUSH1 0x2 DUP4 ADD SLOAD AND SWAP1 PUSH1 0x3 DUP4 ADD SLOAD PUSH1 0x4 DUP5 ADD SLOAD SWAP1 PUSH1 0x5 DUP6 ADD SLOAD PUSH1 0x6 DUP7 ADD SLOAD PUSH1 0xFF AND PUSH1 0x7 DUP8 ADD PUSH2 0x273C SWAP1 PUSH2 0x38A5 JUMP JUMPDEST SWAP2 PUSH1 0x8 DUP9 ADD SLOAD SWAP5 PUSH1 0x9 DUP10 ADD SLOAD SWAP5 PUSH1 0xA DUP11 ADD PUSH2 0x2756 SWAP1 PUSH2 0x38A5 JUMP JUMPDEST SWAP8 PUSH1 0xB DUP12 ADD SLOAD AND SWAP10 PUSH1 0xC ADD SLOAD SWAP9 PUSH1 0x40 MLOAD SWAP13 DUP14 SWAP13 DUP14 MSTORE PUSH1 0x20 DUP14 ADD MSTORE PUSH1 0x40 DUP13 ADD MSTORE PUSH1 0x60 DUP12 ADD MSTORE PUSH1 0x80 DUP11 ADD MSTORE PUSH1 0xA0 DUP10 ADD MSTORE PUSH1 0xC0 DUP9 ADD PUSH2 0x2791 SWAP2 PUSH2 0x3A11 JUMP JUMPDEST PUSH2 0x1C0 DUP1 PUSH1 0xE0 DUP10 ADD MSTORE DUP8 ADD PUSH2 0x27A5 SWAP2 PUSH2 0x396E JUMP JUMPDEST SWAP2 PUSH2 0x100 DUP8 ADD MSTORE PUSH1 0xFF DUP2 AND ISZERO ISZERO PUSH2 0x120 DUP8 ADD MSTORE PUSH2 0x140 DUP7 ADD SWAP1 PUSH1 0x8 SHR PUSH1 0xFF AND SWAP1 PUSH2 0x27CE SWAP2 PUSH2 0x3A1E JUMP JUMPDEST DUP5 DUP2 SUB PUSH2 0x160 DUP7 ADD MSTORE PUSH2 0x27E0 SWAP2 PUSH2 0x396E JUMP JUMPDEST SWAP2 PUSH2 0x180 DUP5 ADD MSTORE PUSH2 0x1A0 DUP4 ADD MSTORE SUB SWAP1 RETURN JUMPDEST CALLVALUE PUSH2 0x296 JUMPI PUSH1 0x0 CALLDATASIZE PUSH1 0x3 NOT ADD SLT PUSH2 0x296 JUMPI PUSH2 0x160 SLOAD PUSH1 0x40 MLOAD PUSH1 0x1 PUSH1 0x1 PUSH1 0xA0 SHL SUB SWAP1 SWAP2 AND DUP2 MSTORE PUSH1 0x20 SWAP1 RETURN JUMPDEST CALLVALUE PUSH2 0x296 JUMPI PUSH1 0x0 CALLDATASIZE PUSH1 0x3 NOT ADD SLT PUSH2 0x296 JUMPI PUSH1 0x20 PUSH2 0x162 SLOAD PUSH1 0x40 MLOAD SWAP1 DUP2 MSTORE RETURN JUMPDEST CALLVALUE PUSH2 0x296 JUMPI PUSH1 0x0 CALLDATASIZE PUSH1 0x3 NOT ADD SLT PUSH2 0x296 JUMPI PUSH1 0x20 PUSH2 0x164 SLOAD PUSH1 0x40 MLOAD SWAP1 DUP2 MSTORE RETURN JUMPDEST CALLVALUE PUSH2 0x296 JUMPI PUSH1 0x0 CALLDATASIZE PUSH1 0x3 NOT ADD SLT PUSH2 0x296 JUMPI PUSH1 0x20 PUSH1 0xFF PUSH1 0x97 SLOAD AND PUSH1 0x40 MLOAD SWAP1 ISZERO ISZERO DUP2 MSTORE RETURN JUMPDEST CALLVALUE PUSH2 0x296 JUMPI PUSH1 0x20 CALLDATASIZE PUSH1 0x3 NOT ADD SLT PUSH2 0x296 JUMPI PUSH2 0x2895 PUSH2 0x3C5B JUMP JUMPDEST PUSH1 0x4 CALLDATALOAD PUSH2 0x163 SSTORE STOP JUMPDEST CALLVALUE PUSH2 0x296 JUMPI PUSH1 0x0 CALLDATASIZE PUSH1 0x3 NOT ADD SLT PUSH2 0x296 JUMPI PUSH32 0x0 PUSH1 0x1 PUSH1 0x1 PUSH1 0xA0 SHL SUB AND ADDRESS SUB PUSH2 0x28F7 JUMPI PUSH1 0x20 PUSH1 0x40 MLOAD PUSH1 0x0 DUP1 MLOAD PUSH1 0x20 PUSH2 0x473C DUP4 CODECOPY DUP2 MLOAD SWAP2 MSTORE DUP2 MSTORE RETURN JUMPDEST PUSH1 0x40 MLOAD PUSH3 0x461BCD PUSH1 0xE5 SHL DUP2 MSTORE PUSH1 0x20 PUSH1 0x4 DUP3 ADD MSTORE PUSH1 0x38 PUSH1 0x24 DUP3 ADD MSTORE PUSH32 0x555550535570677261646561626C653A206D757374206E6F742062652063616C PUSH1 0x44 DUP3 ADD MSTORE PUSH32 0x6C6564207468726F7567682064656C656761746563616C6C0000000000000000 PUSH1 0x64 DUP3 ADD MSTORE PUSH1 0x84 SWAP1 REVERT JUMPDEST PUSH1 0x40 CALLDATASIZE PUSH1 0x3 NOT ADD SLT PUSH2 0x296 JUMPI PUSH2 0x2976 PUSH2 0x3993 JUMP JUMPDEST PUSH1 0x24 CALLDATALOAD PUSH1 0x1 PUSH1 0x1 PUSH1 0x40 SHL SUB DUP2 GT PUSH2 0x296 JUMPI CALLDATASIZE PUSH1 0x23 DUP3 ADD SLT ISZERO PUSH2 0x296 JUMPI PUSH2 0x29A6 SWAP1 CALLDATASIZE SWAP1 PUSH1 0x24 DUP2 PUSH1 0x4 ADD CALLDATALOAD SWAP2 ADD PUSH2 0x39DA JUMP JUMPDEST PUSH1 0x1 PUSH1 0x1 PUSH1 0xA0 SHL SUB PUSH32 0x0 DUP2 AND SWAP2 SWAP1 PUSH2 0x29DF ADDRESS DUP5 EQ ISZERO PUSH2 0x4042 JUMP JUMPDEST PUSH2 0x29FC PUSH1 0x0 DUP1 MLOAD PUSH1 0x20 PUSH2 0x473C DUP4 CODECOPY DUP2 MLOAD SWAP2 MSTORE SWAP4 DUP3 DUP6 SLOAD AND EQ PUSH2 0x40A3 JUMP JUMPDEST PUSH2 0x2A04 PUSH2 0x3A8B JUMP JUMPDEST PUSH32 0x4910FDFA16FED3260ED0E7147F7CC6DA11A60208B5B9406D12A635614FFD9143 SLOAD PUSH1 0xFF AND ISZERO PUSH2 0x2A3A JUMPI POP POP POP PUSH2 0x1B SWAP1 PUSH2 0x4104 JUMP JUMPDEST DUP4 AND PUSH1 0x40 MLOAD SWAP3 PUSH4 0x52D1902D PUSH1 0xE0 SHL DUP5 MSTORE PUSH1 0x20 SWAP4 DUP5 DUP2 PUSH1 0x4 DUP2 DUP7 GAS STATICCALL PUSH1 0x0 SWAP2 DUP2 PUSH2 0x2BF1 JUMPI JUMPDEST POP PUSH2 0x2ABF JUMPI PUSH1 0x40 MLOAD PUSH3 0x461BCD PUSH1 0xE5 SHL DUP2 MSTORE PUSH1 0x4 DUP2 ADD DUP7 SWAP1 MSTORE PUSH1 0x2E PUSH1 0x24 DUP3 ADD MSTORE PUSH32 0x45524331393637557067726164653A206E657720696D706C656D656E74617469 PUSH1 0x44 DUP3 ADD MSTORE PUSH14 0x6F6E206973206E6F742055555053 PUSH1 0x90 SHL PUSH1 0x64 DUP3 ADD MSTORE PUSH1 0x84 SWAP1 REVERT JUMPDEST SWAP4 SWAP3 SWAP4 SUB PUSH2 0x2B9A JUMPI PUSH2 0x2AD0 DUP5 PUSH2 0x4104 JUMP JUMPDEST PUSH32 0xBC7CD75A20EE27FD9ADEBAB32041F755214DBC6BFFA90CC0225B39DA2E5C2D3B PUSH1 0x0 DUP1 LOG2 DUP2 MLOAD ISZERO DUP1 ISZERO SWAP1 PUSH2 0x2B92 JUMPI JUMPDEST PUSH2 0x2B06 JUMPI STOP JUMPDEST PUSH2 0x1B SWAP3 PUSH1 0x0 DUP1 PUSH1 0x40 MLOAD SWAP5 PUSH2 0x2B1A DUP7 PUSH2 0x3833 JUMP JUMPDEST PUSH1 0x27 DUP7 MSTORE PUSH32 0x416464726573733A206C6F772D6C6576656C2064656C65676174652063616C6C DUP6 DUP8 ADD MSTORE PUSH7 0x819985A5B1959 PUSH1 0xCA SHL PUSH1 0x40 DUP8 ADD MSTORE DUP5 DUP2 MLOAD SWAP2 ADD DUP5 GAS DELEGATECALL SWAP1 RETURNDATASIZE ISZERO PUSH2 0x2B89 JUMPI RETURNDATASIZE PUSH2 0x2B6C DUP2 PUSH2 0x39BF JUMP JUMPDEST SWAP1 PUSH2 0x2B7A PUSH1 0x40 MLOAD SWAP3 DUP4 PUSH2 0x3884 JUMP JUMPDEST DUP2 MSTORE PUSH1 0x0 DUP2 SWAP5 RETURNDATASIZE SWAP3 ADD RETURNDATACOPY PUSH2 0x4194 JUMP JUMPDEST PUSH1 0x60 SWAP3 POP PUSH2 0x4194 JUMP JUMPDEST POP PUSH1 0x1 PUSH2 0x2B00 JUMP JUMPDEST PUSH1 0x40 MLOAD PUSH3 0x461BCD PUSH1 0xE5 SHL DUP2 MSTORE PUSH1 0x4 DUP2 ADD DUP4 SWAP1 MSTORE PUSH1 0x29 PUSH1 0x24 DUP3 ADD MSTORE PUSH32 0x45524331393637557067726164653A20756E737570706F727465642070726F78 PUSH1 0x44 DUP3 ADD MSTORE PUSH9 0x1A58589B1955555251 PUSH1 0xBA SHL PUSH1 0x64 DUP3 ADD MSTORE PUSH1 0x84 SWAP1 REVERT JUMPDEST SWAP1 SWAP2 POP DUP6 DUP2 DUP2 RETURNDATASIZE DUP4 GT PUSH2 0x2C19 JUMPI JUMPDEST PUSH2 0x2C09 DUP2 DUP4 PUSH2 0x3884 JUMP JUMPDEST DUP2 ADD SUB SLT PUSH2 0x296 JUMPI MLOAD SWAP1 DUP8 PUSH2 0x2A5E JUMP JUMPDEST POP RETURNDATASIZE PUSH2 0x2BFF JUMP JUMPDEST CALLVALUE PUSH2 0x296 JUMPI PUSH1 0x0 CALLDATASIZE PUSH1 0x3 NOT ADD SLT PUSH2 0x296 JUMPI PUSH2 0x166 SLOAD PUSH1 0x40 MLOAD PUSH1 0x1 PUSH1 0x1 PUSH1 0xA0 SHL SUB SWAP1 SWAP2 AND DUP2 MSTORE PUSH1 0x20 SWAP1 RETURN JUMPDEST CALLVALUE PUSH2 0x296 JUMPI PUSH1 0x0 CALLDATASIZE PUSH1 0x3 NOT ADD SLT PUSH2 0x296 JUMPI PUSH2 0x2C63 PUSH2 0x3C5B JUMP JUMPDEST PUSH1 0x97 SLOAD PUSH1 0xFF DUP2 AND ISZERO PUSH2 0x2CA2 JUMPI PUSH1 0xFF NOT AND PUSH1 0x97 SSTORE PUSH32 0x5DB9EE0A495BF2E6FF9C91A7834C1BA4FDD244A5E8AA4E537BD38AEAE4B073AA PUSH1 0x20 PUSH1 0x40 MLOAD CALLER DUP2 MSTORE LOG1 STOP JUMPDEST PUSH1 0x40 MLOAD PUSH3 0x461BCD PUSH1 0xE5 SHL DUP2 MSTORE PUSH1 0x20 PUSH1 0x4 DUP3 ADD MSTORE PUSH1 0x14 PUSH1 0x24 DUP3 ADD MSTORE PUSH20 0x14185D5CD8589B194E881B9BDD081C185D5CD959 PUSH1 0x62 SHL PUSH1 0x44 DUP3 ADD MSTORE PUSH1 0x64 SWAP1 REVERT JUMPDEST CALLVALUE PUSH2 0x296 JUMPI PUSH1 0x20 DUP1 PUSH1 0x3 NOT CALLDATASIZE ADD SLT PUSH2 0x296 JUMPI PUSH2 0x2CF8 PUSH2 0x3993 JUMP JUMPDEST SWAP1 PUSH1 0x1 PUSH1 0x1 PUSH1 0xA0 SHL SUB PUSH32 0x0 DUP2 AND PUSH2 0x2D30 ADDRESS DUP3 EQ ISZERO PUSH2 0x4042 JUMP JUMPDEST PUSH2 0x2D4D PUSH1 0x0 DUP1 MLOAD PUSH1 0x20 PUSH2 0x473C DUP4 CODECOPY DUP2 MLOAD SWAP2 MSTORE SWAP2 DUP4 DUP4 SLOAD AND EQ PUSH2 0x40A3 JUMP JUMPDEST PUSH2 0x2D55 PUSH2 0x3A8B JUMP JUMPDEST PUSH1 0x40 MLOAD SWAP2 PUSH2 0x2D62 DUP4 PUSH2 0x3818 JUMP JUMPDEST PUSH1 0x0 DUP4 MSTORE PUSH32 0x4910FDFA16FED3260ED0E7147F7CC6DA11A60208B5B9406D12A635614FFD9143 SLOAD PUSH1 0xFF AND ISZERO PUSH2 0x2D9D JUMPI POP POP POP POP PUSH2 0x1B SWAP1 PUSH2 0x4104 JUMP JUMPDEST DUP5 AND SWAP1 PUSH1 0x40 MLOAD PUSH4 0x52D1902D PUSH1 0xE0 SHL DUP2 MSTORE DUP5 DUP2 PUSH1 0x4 DUP2 DUP7 GAS STATICCALL PUSH1 0x0 SWAP2 DUP2 PUSH2 0x2E6D JUMPI JUMPDEST POP PUSH2 0x2E1F JUMPI PUSH1 0x40 MLOAD PUSH3 0x461BCD PUSH1 0xE5 SHL DUP2 MSTORE PUSH1 0x4 DUP2 ADD DUP7 SWAP1 MSTORE PUSH1 0x2E PUSH1 0x24 DUP3 ADD MSTORE PUSH32 0x45524331393637557067726164653A206E657720696D706C656D656E74617469 PUSH1 0x44 DUP3 ADD MSTORE PUSH14 0x6F6E206973206E6F742055555053 PUSH1 0x90 SHL PUSH1 0x64 DUP3 ADD MSTORE PUSH1 0x84 SWAP1 REVERT JUMPDEST SWAP4 SWAP3 SWAP4 SUB PUSH2 0x2B9A JUMPI PUSH2 0x2E30 DUP5 PUSH2 0x4104 JUMP JUMPDEST PUSH32 0xBC7CD75A20EE27FD9ADEBAB32041F755214DBC6BFFA90CC0225B39DA2E5C2D3B PUSH1 0x0 DUP1 LOG2 DUP2 MLOAD ISZERO DUP1 ISZERO SWAP1 PUSH2 0x2E65 JUMPI PUSH2 0x2B06 JUMPI STOP JUMPDEST POP PUSH1 0x0 PUSH2 0x2B00 JUMP JUMPDEST SWAP1 SWAP2 POP DUP6 DUP2 DUP2 RETURNDATASIZE DUP4 GT PUSH2 0x2E95 JUMPI JUMPDEST PUSH2 0x2E85 DUP2 DUP4 PUSH2 0x3884 JUMP JUMPDEST DUP2 ADD SUB SLT PUSH2 0x296 JUMPI MLOAD SWAP1 DUP8 PUSH2 0x2DBE JUMP JUMPDEST POP RETURNDATASIZE PUSH2 0x2E7B JUMP JUMPDEST CALLVALUE PUSH2 0x296 JUMPI PUSH1 0x40 CALLDATASIZE PUSH1 0x3 NOT ADD SLT PUSH2 0x296 JUMPI PUSH2 0x2EB5 PUSH2 0x39A9 JUMP JUMPDEST CALLER PUSH1 0x1 PUSH1 0x1 PUSH1 0xA0 SHL SUB DUP3 AND SUB PUSH2 0x2ED1 JUMPI PUSH2 0x1B SWAP1 PUSH1 0x4 CALLDATALOAD PUSH2 0x3FCC JUMP JUMPDEST PUSH1 0x40 MLOAD PUSH3 0x461BCD PUSH1 0xE5 SHL DUP2 MSTORE PUSH1 0x20 PUSH1 0x4 DUP3 ADD MSTORE PUSH1 0x2F PUSH1 0x24 DUP3 ADD MSTORE PUSH32 0x416363657373436F6E74726F6C3A2063616E206F6E6C792072656E6F756E6365 PUSH1 0x44 DUP3 ADD MSTORE PUSH15 0x103937B632B9903337B91039B2B633 PUSH1 0x89 SHL PUSH1 0x64 DUP3 ADD MSTORE PUSH1 0x84 SWAP1 REVERT JUMPDEST CALLVALUE PUSH2 0x296 JUMPI PUSH1 0x0 CALLDATASIZE PUSH1 0x3 NOT ADD SLT PUSH2 0x296 JUMPI PUSH2 0x161 SLOAD PUSH1 0x40 MLOAD PUSH1 0x1 PUSH1 0x1 PUSH1 0xA0 SHL SUB SWAP1 SWAP2 AND DUP2 MSTORE PUSH1 0x20 SWAP1 RETURN JUMPDEST CALLVALUE PUSH2 0x296 JUMPI PUSH1 0x40 CALLDATASIZE PUSH1 0x3 NOT ADD SLT PUSH2 0x296 JUMPI PUSH1 0x4 CALLDATALOAD PUSH2 0x2F74 PUSH2 0x39A9 JUMP JUMPDEST DUP2 PUSH1 0x0 MSTORE PUSH1 0x65 PUSH1 0x20 MSTORE PUSH2 0x2F8E PUSH1 0x1 PUSH1 0x40 PUSH1 0x0 KECCAK256 ADD SLOAD PUSH2 0x3ECD JUMP JUMPDEST DUP2 PUSH1 0x0 MSTORE PUSH1 0x65 PUSH1 0x20 MSTORE PUSH1 0x40 PUSH1 0x0 KECCAK256 SWAP1 PUSH1 0x1 DUP1 PUSH1 0xA0 SHL SUB AND SWAP1 DUP2 PUSH1 0x0 MSTORE PUSH1 0x20 MSTORE PUSH1 0xFF PUSH1 0x40 PUSH1 0x0 KECCAK256 SLOAD AND ISZERO PUSH2 0x2FBD JUMPI STOP JUMPDEST DUP2 PUSH1 0x0 MSTORE PUSH1 0x65 PUSH1 0x20 MSTORE PUSH1 0x40 PUSH1 0x0 KECCAK256 DUP2 PUSH1 0x0 MSTORE PUSH1 0x20 MSTORE PUSH1 0x40 PUSH1 0x0 KECCAK256 PUSH1 0x1 PUSH1 0xFF NOT DUP3 SLOAD AND OR SWAP1 SSTORE CALLER SWAP2 PUSH1 0x0 DUP1 MLOAD PUSH1 0x20 PUSH2 0x46DC DUP4 CODECOPY DUP2 MLOAD SWAP2 MSTORE PUSH1 0x0 DUP1 LOG4 STOP JUMPDEST CALLVALUE PUSH2 0x296 JUMPI PUSH1 0x20 CALLDATASIZE PUSH1 0x3 NOT ADD SLT PUSH2 0x296 JUMPI PUSH1 0x4 CALLDATALOAD PUSH1 0x0 MSTORE PUSH1 0x65 PUSH1 0x20 MSTORE PUSH1 0x20 PUSH1 0x1 PUSH1 0x40 PUSH1 0x0 KECCAK256 ADD SLOAD PUSH1 0x40 MLOAD SWAP1 DUP2 MSTORE RETURN JUMPDEST CALLVALUE PUSH2 0x296 JUMPI PUSH1 0xA0 CALLDATASIZE PUSH1 0x3 NOT ADD SLT PUSH2 0x296 JUMPI PUSH2 0x3041 PUSH2 0x3993 JUMP JUMPDEST PUSH2 0x3049 PUSH2 0x39A9 JUMP JUMPDEST PUSH1 0x44 CALLDATALOAD PUSH1 0x1 PUSH1 0x1 PUSH1 0xA0 SHL SUB DUP2 DUP2 AND SWAP3 SWAP2 DUP4 SWAP1 SUB PUSH2 0x296 JUMPI PUSH1 0x64 CALLDATALOAD DUP2 DUP2 AND DUP1 SWAP2 SUB PUSH2 0x296 JUMPI PUSH1 0x84 CALLDATALOAD SWAP1 DUP3 DUP3 AND DUP1 SWAP3 SUB PUSH2 0x296 JUMPI PUSH1 0x0 SLOAD SWAP5 PUSH1 0xFF SWAP5 DUP6 DUP8 PUSH1 0x8 SHR AND ISZERO SWAP6 DUP7 DUP1 SWAP8 PUSH2 0x3486 JUMPI JUMPDEST DUP1 ISZERO PUSH2 0x3470 JUMPI JUMPDEST ISZERO PUSH2 0x3414 JUMPI PUSH1 0x1 SWAP9 PUSH1 0xFF NOT SWAP9 DUP9 DUP12 DUP12 DUP4 AND OR PUSH1 0x0 SSTORE PUSH2 0x3402 JUMPI JUMPDEST POP PUSH2 0x30F9 DUP3 PUSH1 0x0 SLOAD PUSH1 0x8 SHR AND PUSH2 0x30C8 DUP2 PUSH2 0x4337 JUMP JUMPDEST PUSH2 0x30D1 DUP2 PUSH2 0x4337 JUMP JUMPDEST PUSH2 0x30DA DUP2 PUSH2 0x4337 JUMP JUMPDEST DUP11 PUSH1 0x97 SLOAD AND PUSH1 0x97 SSTORE PUSH2 0x30EB DUP2 PUSH2 0x4337 JUMP JUMPDEST PUSH2 0x30F4 DUP2 PUSH2 0x4337 JUMP JUMPDEST PUSH2 0x4337 JUMP JUMPDEST PUSH2 0x12D DUP11 SWAP1 SSTORE DUP7 AND PUSH1 0x0 DUP2 DUP2 MSTORE PUSH32 0xFFDFC1249C027F9191656349FEB0761381BB32C9F557E01F419FD08754BF5A1B PUSH1 0x20 SWAP1 DUP2 MSTORE PUSH1 0x40 SWAP1 SWAP2 KECCAK256 SLOAD SWAP1 SWAP10 SWAP1 PUSH1 0x65 SWAP1 DUP5 AND ISZERO PUSH2 0x33C8 JUMPI JUMPDEST PUSH32 0xA49807205CE4D355092EF5A8A18F56E8913CF4A201FBE287825B095693C21775 DUP1 PUSH1 0x0 MSTORE DUP2 DUP13 MSTORE PUSH1 0x40 PUSH1 0x0 KECCAK256 DUP5 PUSH1 0x0 MSTORE DUP13 MSTORE DUP5 PUSH1 0x40 PUSH1 0x0 KECCAK256 SLOAD AND ISZERO PUSH2 0x338D JUMPI JUMPDEST POP PUSH32 0x189AB7A9244DF0848122154315AF71FE140F3DB0FE014031783B0946B8C9D2E3 DUP1 PUSH1 0x0 MSTORE DUP2 DUP13 MSTORE PUSH1 0x40 PUSH1 0x0 KECCAK256 DUP5 PUSH1 0x0 MSTORE DUP13 MSTORE DUP5 PUSH1 0x40 PUSH1 0x0 KECCAK256 SLOAD AND ISZERO PUSH2 0x3352 JUMPI JUMPDEST POP PUSH32 0x68E79A7BF1E0BC45D0A330C573BC367F9CF464FD326078812F301165FBDA4EF1 DUP1 PUSH1 0x0 MSTORE DUP2 DUP13 MSTORE PUSH1 0x40 PUSH1 0x0 KECCAK256 DUP5 PUSH1 0x0 MSTORE DUP13 MSTORE DUP5 PUSH1 0x40 PUSH1 0x0 KECCAK256 SLOAD AND ISZERO PUSH2 0x3317 JUMPI JUMPDEST POP PUSH32 0x7B8BB8356A3F32F5C111FF23F050D97F08988E0883529EA7BFF3B918887A6E0E SWAP4 DUP5 PUSH1 0x0 MSTORE DUP2 DUP13 MSTORE PUSH1 0x40 PUSH1 0x0 KECCAK256 DUP5 PUSH1 0x0 MSTORE DUP13 MSTORE PUSH1 0x40 PUSH1 0x0 KECCAK256 SLOAD AND ISZERO PUSH2 0x32DB JUMPI JUMPDEST POP POP POP POP PUSH1 0x1 PUSH1 0x1 PUSH1 0x60 SHL SUB PUSH1 0xA0 SHL SWAP5 PUSH2 0x15F SWAP2 AND DUP6 DUP3 SLOAD AND OR SWAP1 SSTORE PUSH2 0x160 SWAP1 DUP5 DUP3 SLOAD AND OR SWAP1 SSTORE PUSH2 0x161 SWAP1 DUP4 DUP3 SLOAD AND OR SWAP1 SSTORE PUSH2 0x166 SWAP2 DUP3 SLOAD AND OR SWAP1 SSTORE PUSH3 0x93A80 PUSH2 0x162 SSTORE PUSH3 0x3F480 PUSH2 0x163 SSTORE PUSH1 0x46 PUSH2 0x164 SSTORE PUSH1 0xFA PUSH2 0x165 SSTORE PUSH2 0x32A5 JUMPI STOP JUMPDEST PUSH32 0x7F26B83FF96E1F2B6A682F133852F6798A09C465DA95921460CEFB3847402498 SWAP2 PUSH2 0xFF00 NOT PUSH1 0x0 SLOAD AND PUSH1 0x0 SSTORE PUSH1 0x40 MLOAD SWAP1 DUP2 MSTORE LOG1 STOP JUMPDEST DUP4 PUSH1 0x0 MSTORE DUP11 MSTORE PUSH1 0x40 PUSH1 0x0 KECCAK256 DUP3 PUSH1 0x0 MSTORE DUP11 MSTORE DUP11 PUSH1 0x40 PUSH1 0x0 KECCAK256 SWAP2 DUP3 SLOAD AND OR SWAP1 SSTORE CALLER SWAP2 PUSH1 0x0 DUP1 MLOAD PUSH1 0x20 PUSH2 0x46DC DUP4 CODECOPY DUP2 MLOAD SWAP2 MSTORE PUSH1 0x0 DUP1 LOG4 DUP9 DUP1 DUP1 DUP1 PUSH2 0x3247 JUMP JUMPDEST DUP1 PUSH1 0x0 MSTORE DUP2 DUP13 MSTORE PUSH1 0x40 PUSH1 0x0 KECCAK256 DUP5 PUSH1 0x0 MSTORE DUP13 MSTORE PUSH1 0x40 PUSH1 0x0 KECCAK256 DUP14 DUP5 DUP3 SLOAD AND OR SWAP1 SSTORE DUP4 CALLER SWAP2 PUSH1 0x0 DUP1 MLOAD PUSH1 0x20 PUSH2 0x46DC DUP4 CODECOPY DUP2 MLOAD SWAP2 MSTORE PUSH1 0x0 DUP1 LOG4 DUP13 PUSH2 0x3205 JUMP JUMPDEST DUP1 PUSH1 0x0 MSTORE DUP2 DUP13 MSTORE PUSH1 0x40 PUSH1 0x0 KECCAK256 DUP5 PUSH1 0x0 MSTORE DUP13 MSTORE PUSH1 0x40 PUSH1 0x0 KECCAK256 DUP14 DUP5 DUP3 SLOAD AND OR SWAP1 SSTORE DUP4 CALLER SWAP2 PUSH1 0x0 DUP1 MLOAD PUSH1 0x20 PUSH2 0x46DC DUP4 CODECOPY DUP2 MLOAD SWAP2 MSTORE PUSH1 0x0 DUP1 LOG4 DUP13 PUSH2 0x31C3 JUMP JUMPDEST DUP1 PUSH1 0x0 MSTORE DUP2 DUP13 MSTORE PUSH1 0x40 PUSH1 0x0 KECCAK256 DUP5 PUSH1 0x0 MSTORE DUP13 MSTORE PUSH1 0x40 PUSH1 0x0 KECCAK256 DUP14 DUP5 DUP3 SLOAD AND OR SWAP1 SSTORE DUP4 CALLER SWAP2 PUSH1 0x0 DUP1 MLOAD PUSH1 0x20 PUSH2 0x46DC DUP4 CODECOPY DUP2 MLOAD SWAP2 MSTORE PUSH1 0x0 DUP1 LOG4 DUP13 PUSH2 0x3181 JUMP JUMPDEST PUSH1 0x0 DUP1 MSTORE DUP1 DUP12 MSTORE PUSH1 0x40 PUSH1 0x0 KECCAK256 DUP4 PUSH1 0x0 MSTORE DUP12 MSTORE PUSH1 0x40 PUSH1 0x0 KECCAK256 DUP13 DUP4 DUP3 SLOAD AND OR SWAP1 SSTORE CALLER DUP4 PUSH1 0x0 PUSH1 0x0 DUP1 MLOAD PUSH1 0x20 PUSH2 0x46DC DUP4 CODECOPY DUP2 MLOAD SWAP2 MSTORE DUP2 DUP1 LOG4 PUSH2 0x3140 JUMP JUMPDEST PUSH2 0xFFFF NOT AND PUSH2 0x101 OR PUSH1 0x0 SSTORE DUP11 PUSH2 0x30B3 JUMP JUMPDEST PUSH1 0x40 MLOAD PUSH3 0x461BCD PUSH1 0xE5 SHL DUP2 MSTORE PUSH1 0x20 PUSH1 0x4 DUP3 ADD MSTORE PUSH1 0x2E PUSH1 0x24 DUP3 ADD MSTORE PUSH32 0x496E697469616C697A61626C653A20636F6E747261637420697320616C726561 PUSH1 0x44 DUP3 ADD MSTORE PUSH14 0x191E481A5B9A5D1A585B1A5E9959 PUSH1 0x92 SHL PUSH1 0x64 DUP3 ADD MSTORE PUSH1 0x84 SWAP1 REVERT JUMPDEST POP ADDRESS EXTCODESIZE ISZERO DUP1 ISZERO PUSH2 0x3099 JUMPI POP PUSH1 0x1 DUP2 DUP10 AND EQ PUSH2 0x3099 JUMP JUMPDEST POP PUSH1 0x1 DUP2 DUP10 AND LT PUSH2 0x3092 JUMP JUMPDEST CALLVALUE PUSH2 0x296 JUMPI PUSH1 0x20 DUP1 PUSH1 0x3 NOT CALLDATASIZE ADD SLT PUSH2 0x296 JUMPI PUSH1 0x60 PUSH1 0xE0 PUSH1 0x40 MLOAD PUSH2 0x34B4 DUP2 PUSH2 0x37E0 JUMP JUMPDEST PUSH1 0x0 DUP2 MSTORE PUSH1 0x0 DUP5 DUP3 ADD MSTORE DUP3 PUSH1 0x40 DUP3 ADD MSTORE PUSH1 0x0 DUP4 DUP3 ADD MSTORE PUSH1 0x0 PUSH1 0x80 DUP3 ADD MSTORE PUSH1 0x0 PUSH1 0xA0 DUP3 ADD MSTORE PUSH1 0x0 PUSH1 0xC0 DUP3 ADD MSTORE ADD MSTORE PUSH1 0x4 CALLDATALOAD PUSH1 0x0 MSTORE PUSH2 0x168 DUP2 MSTORE PUSH1 0x40 PUSH1 0x0 KECCAK256 PUSH2 0x35DC PUSH1 0x40 MLOAD SWAP2 PUSH2 0x3501 DUP4 PUSH2 0x37E0 JUMP JUMPDEST DUP1 SLOAD DUP4 MSTORE PUSH1 0x1 DUP2 ADD SLOAD PUSH1 0x1 PUSH1 0x1 PUSH1 0xA0 SHL SUB SWAP1 DUP2 AND DUP6 DUP6 ADD SWAP1 DUP2 MSTORE SWAP1 SWAP2 SWAP1 PUSH2 0x352A PUSH1 0x2 DUP4 ADD PUSH2 0x38A5 JUMP JUMPDEST SWAP2 PUSH1 0x40 DUP7 ADD SWAP3 DUP4 MSTORE PUSH1 0x3 DUP2 ADD SLOAD SWAP4 PUSH1 0x60 DUP8 ADD SWAP5 DUP6 MSTORE DUP7 PUSH1 0x4 DUP4 ADD SLOAD SWAP5 PUSH1 0x80 DUP3 ADD SWAP6 DUP7 MSTORE DUP3 PUSH2 0x3577 PUSH1 0x6 PUSH1 0x5 DUP8 ADD SLOAD SWAP7 PUSH1 0xFF PUSH1 0xC0 PUSH1 0xA0 DUP9 ADD SWAP8 DUP7 DUP12 AND DUP10 MSTORE ADD SWAP9 PUSH1 0xA0 SHR AND ISZERO ISZERO DUP9 MSTORE ADD PUSH2 0x38A5 JUMP JUMPDEST SWAP6 PUSH1 0xE0 DUP12 ADD SWAP7 DUP8 MSTORE PUSH1 0x40 MLOAD SWAP12 DUP13 SWAP12 DUP2 DUP14 MSTORE MLOAD SWAP1 DUP13 ADD MSTORE MLOAD AND PUSH1 0x40 DUP11 ADD MSTORE MLOAD SWAP5 PUSH2 0x35AE PUSH2 0x100 SWAP7 DUP8 PUSH1 0x60 DUP13 ADD MSTORE PUSH2 0x120 DUP12 ADD SWAP1 PUSH2 0x396E JUMP JUMPDEST SWAP7 MLOAD PUSH1 0x80 DUP11 ADD MSTORE MLOAD PUSH1 0xA0 DUP10 ADD MSTORE MLOAD AND PUSH1 0xC0 DUP8 ADD MSTORE MLOAD ISZERO ISZERO PUSH1 0xE0 DUP7 ADD MSTORE MLOAD SWAP1 PUSH1 0x1F NOT DUP6 DUP5 SUB ADD SWAP1 DUP6 ADD MSTORE PUSH2 0x396E JUMP JUMPDEST SUB SWAP1 RETURN JUMPDEST CALLVALUE PUSH2 0x296 JUMPI PUSH1 0x20 CALLDATASIZE PUSH1 0x3 NOT ADD SLT PUSH2 0x296 JUMPI PUSH1 0x4 CALLDATALOAD PUSH1 0x0 MSTORE PUSH2 0x168 PUSH1 0x20 MSTORE PUSH1 0x40 PUSH1 0x0 KECCAK256 DUP1 SLOAD PUSH2 0x35DC PUSH1 0x1 DUP1 PUSH1 0xA0 SHL SUB DUP1 PUSH1 0x1 DUP6 ADD SLOAD AND SWAP4 PUSH1 0xFF PUSH2 0x3624 PUSH1 0x2 DUP4 ADD PUSH2 0x38A5 JUMP JUMPDEST SWAP2 PUSH1 0x3 DUP2 ADD SLOAD SWAP4 PUSH1 0x4 DUP3 ADD SLOAD PUSH2 0x3663 PUSH2 0x3644 PUSH1 0x6 PUSH1 0x5 DUP7 ADD SLOAD SWAP6 ADD PUSH2 0x38A5 JUMP JUMPDEST SWAP6 PUSH1 0x40 MLOAD SWAP11 DUP12 SWAP11 DUP12 MSTORE PUSH1 0x20 DUP12 ADD MSTORE PUSH2 0x100 DUP1 PUSH1 0x40 DUP13 ADD MSTORE DUP11 ADD SWAP1 PUSH2 0x396E JUMP JUMPDEST SWAP6 PUSH1 0x60 DUP10 ADD MSTORE PUSH1 0x80 DUP9 ADD MSTORE DUP2 AND PUSH1 0xA0 DUP8 ADD MSTORE PUSH1 0xA0 SHR AND ISZERO ISZERO PUSH1 0xC0 DUP6 ADD MSTORE DUP4 DUP3 SUB PUSH1 0xE0 DUP6 ADD MSTORE PUSH2 0x396E JUMP JUMPDEST CALLVALUE PUSH2 0x296 JUMPI PUSH1 0x0 CALLDATASIZE PUSH1 0x3 NOT ADD SLT PUSH2 0x296 JUMPI PUSH2 0x36A6 PUSH2 0x4407 JUMP JUMPDEST PUSH2 0x36AE PUSH2 0x444B JUMP JUMPDEST CALLER PUSH1 0x0 MSTORE PUSH2 0x169 DUP1 PUSH1 0x20 MSTORE PUSH1 0x40 PUSH1 0x0 KECCAK256 SLOAD DUP1 ISZERO PUSH2 0x36DD JUMPI PUSH2 0x1072 SWAP2 CALLER PUSH1 0x0 MSTORE PUSH1 0x20 MSTORE PUSH1 0x0 PUSH1 0x40 DUP2 KECCAK256 SSTORE CALLER PUSH2 0x4615 JUMP JUMPDEST PUSH1 0x40 MLOAD PUSH3 0x461BCD PUSH1 0xE5 SHL DUP2 MSTORE PUSH1 0x20 PUSH1 0x4 DUP3 ADD MSTORE PUSH1 0x13 PUSH1 0x24 DUP3 ADD MSTORE PUSH19 0x4E6F20726566756E6420617661696C61626C65 PUSH1 0x68 SHL PUSH1 0x44 DUP3 ADD MSTORE PUSH1 0x64 SWAP1 REVERT JUMPDEST CALLVALUE PUSH2 0x296 JUMPI PUSH1 0x0 CALLDATASIZE PUSH1 0x3 NOT ADD SLT PUSH2 0x296 JUMPI PUSH1 0x20 PUSH1 0x40 MLOAD PUSH32 0x68E79A7BF1E0BC45D0A330C573BC367F9CF464FD326078812F301165FBDA4EF1 DUP2 MSTORE RETURN JUMPDEST CALLVALUE PUSH2 0x296 JUMPI PUSH1 0x20 CALLDATASIZE PUSH1 0x3 NOT ADD SLT PUSH2 0x296 JUMPI PUSH1 0x4 CALLDATALOAD SWAP1 PUSH4 0xFFFFFFFF PUSH1 0xE0 SHL DUP3 AND DUP1 SWAP3 SUB PUSH2 0x296 JUMPI PUSH1 0x20 SWAP2 PUSH4 0x7965DB0B PUSH1 0xE0 SHL DUP2 EQ SWAP1 DUP2 ISZERO PUSH2 0x3795 JUMPI JUMPDEST POP ISZERO ISZERO DUP2 MSTORE RETURN JUMPDEST PUSH4 0x1FFC9A7 PUSH1 0xE0 SHL EQ SWAP1 POP DUP4 PUSH2 0x378E JUMP JUMPDEST SWAP1 PUSH1 0x1 DUP3 DUP2 SHR SWAP3 AND DUP1 ISZERO PUSH2 0x37D6 JUMPI JUMPDEST PUSH1 0x20 DUP4 LT EQ PUSH2 0x37C0 JUMPI JUMP JUMPDEST PUSH4 0x4E487B71 PUSH1 0xE0 SHL PUSH1 0x0 MSTORE PUSH1 0x22 PUSH1 0x4 MSTORE PUSH1 0x24 PUSH1 0x0 REVERT JUMPDEST SWAP2 PUSH1 0x7F AND SWAP2 PUSH2 0x37B5 JUMP JUMPDEST PUSH2 0x100 DUP2 ADD SWAP1 DUP2 LT PUSH1 0x1 PUSH1 0x1 PUSH1 0x40 SHL SUB DUP3 GT OR PUSH2 0x6DF JUMPI PUSH1 0x40 MSTORE JUMP JUMPDEST PUSH2 0x1C0 DUP2 ADD SWAP1 DUP2 LT PUSH1 0x1 PUSH1 0x1 PUSH1 0x40 SHL SUB DUP3 GT OR PUSH2 0x6DF JUMPI PUSH1 0x40 MSTORE JUMP JUMPDEST PUSH1 0x20 DUP2 ADD SWAP1 DUP2 LT PUSH1 0x1 PUSH1 0x1 PUSH1 0x40 SHL SUB DUP3 GT OR PUSH2 0x6DF JUMPI PUSH1 0x40 MSTORE JUMP JUMPDEST PUSH1 0x60 DUP2 ADD SWAP1 DUP2 LT PUSH1 0x1 PUSH1 0x1 PUSH1 0x40 SHL SUB DUP3 GT OR PUSH2 0x6DF JUMPI PUSH1 0x40 MSTORE JUMP JUMPDEST PUSH1 0x40 DUP2 ADD SWAP1 DUP2 LT PUSH1 0x1 PUSH1 0x1 PUSH1 0x40 SHL SUB DUP3 GT OR PUSH2 0x6DF JUMPI PUSH1 0x40 MSTORE JUMP JUMPDEST PUSH1 0x80 DUP2 ADD SWAP1 DUP2 LT PUSH1 0x1 PUSH1 0x1 PUSH1 0x40 SHL SUB DUP3 GT OR PUSH2 0x6DF JUMPI PUSH1 0x40 MSTORE JUMP JUMPDEST SWAP1 PUSH1 0x1F DUP1 NOT SWAP2 ADD AND DUP2 ADD SWAP1 DUP2 LT PUSH1 0x1 PUSH1 0x1 PUSH1 0x40 SHL SUB DUP3 GT OR PUSH2 0x6DF JUMPI PUSH1 0x40 MSTORE JUMP JUMPDEST SWAP1 PUSH1 0x40 MLOAD SWAP2 DUP3 PUSH1 0x0 DUP3 SLOAD SWAP3 PUSH2 0x38B9 DUP5 PUSH2 0x37A6 JUMP JUMPDEST SWAP1 DUP2 DUP5 MSTORE PUSH1 0x1 SWAP5 DUP6 DUP2 AND SWAP1 DUP2 PUSH1 0x0 EQ PUSH2 0x3928 JUMPI POP PUSH1 0x1 EQ PUSH2 0x38E5 JUMPI JUMPDEST POP POP PUSH2 0x38E3 SWAP3 POP SUB DUP4 PUSH2 0x3884 JUMP JUMPDEST JUMP JUMPDEST SWAP1 SWAP4 SWAP2 POP PUSH1 0x0 MSTORE PUSH1 0x20 SWAP1 DUP2 PUSH1 0x0 KECCAK256 SWAP4 PUSH1 0x0 SWAP2 JUMPDEST DUP2 DUP4 LT PUSH2 0x3910 JUMPI POP POP PUSH2 0x38E3 SWAP4 POP DUP3 ADD ADD CODESIZE DUP1 PUSH2 0x38D5 JUMP JUMPDEST DUP6 SLOAD DUP9 DUP5 ADD DUP6 ADD MSTORE SWAP5 DUP6 ADD SWAP5 DUP8 SWAP5 POP SWAP2 DUP4 ADD SWAP2 PUSH2 0x38F8 JUMP JUMPDEST SWAP2 POP POP PUSH2 0x38E3 SWAP5 POP PUSH1 0x20 SWAP3 POP PUSH1 0xFF NOT AND DUP3 DUP5 ADD MSTORE ISZERO ISZERO PUSH1 0x5 SHL DUP3 ADD ADD CODESIZE DUP1 PUSH2 0x38D5 JUMP JUMPDEST PUSH1 0x0 JUMPDEST DUP4 DUP2 LT PUSH2 0x395E JUMPI POP POP PUSH1 0x0 SWAP2 ADD MSTORE JUMP JUMPDEST DUP2 DUP2 ADD MLOAD DUP4 DUP3 ADD MSTORE PUSH1 0x20 ADD PUSH2 0x394E JUMP JUMPDEST SWAP1 PUSH1 0x20 SWAP2 PUSH2 0x3987 DUP2 MLOAD DUP1 SWAP3 DUP2 DUP6 MSTORE DUP6 DUP1 DUP7 ADD SWAP2 ADD PUSH2 0x394B JUMP JUMPDEST PUSH1 0x1F ADD PUSH1 0x1F NOT AND ADD ADD SWAP1 JUMP JUMPDEST PUSH1 0x4 CALLDATALOAD SWAP1 PUSH1 0x1 PUSH1 0x1 PUSH1 0xA0 SHL SUB DUP3 AND DUP3 SUB PUSH2 0x296 JUMPI JUMP JUMPDEST PUSH1 0x24 CALLDATALOAD SWAP1 PUSH1 0x1 PUSH1 0x1 PUSH1 0xA0 SHL SUB DUP3 AND DUP3 SUB PUSH2 0x296 JUMPI JUMP JUMPDEST PUSH1 0x1 PUSH1 0x1 PUSH1 0x40 SHL SUB DUP2 GT PUSH2 0x6DF JUMPI PUSH1 0x1F ADD PUSH1 0x1F NOT AND PUSH1 0x20 ADD SWAP1 JUMP JUMPDEST SWAP3 SWAP2 SWAP3 PUSH2 0x39E6 DUP3 PUSH2 0x39BF JUMP JUMPDEST SWAP2 PUSH2 0x39F4 PUSH1 0x40 MLOAD SWAP4 DUP5 PUSH2 0x3884 JUMP JUMPDEST DUP3 SWAP5 DUP2 DUP5 MSTORE DUP2 DUP4 ADD GT PUSH2 0x296 JUMPI DUP3 DUP2 PUSH1 0x20 SWAP4 DUP5 PUSH1 0x0 SWAP7 ADD CALLDATACOPY ADD ADD MSTORE JUMP JUMPDEST SWAP1 PUSH1 0x8 DUP3 LT ISZERO PUSH2 0x6F5 JUMPI MSTORE JUMP JUMPDEST SWAP1 PUSH1 0x4 DUP3 LT ISZERO PUSH2 0x6F5 JUMPI MSTORE JUMP JUMPDEST SWAP2 DUP2 PUSH1 0x1F DUP5 ADD SLT ISZERO PUSH2 0x296 JUMPI DUP3 CALLDATALOAD SWAP2 PUSH1 0x1 PUSH1 0x1 PUSH1 0x40 SHL SUB DUP4 GT PUSH2 0x296 JUMPI PUSH1 0x20 DUP4 DUP2 DUP7 ADD SWAP6 ADD ADD GT PUSH2 0x296 JUMPI JUMP JUMPDEST SWAP1 PUSH1 0x40 PUSH1 0x3 NOT DUP4 ADD SLT PUSH2 0x296 JUMPI PUSH1 0x4 CALLDATALOAD SWAP2 PUSH1 0x24 CALLDATALOAD SWAP1 PUSH1 0x1 PUSH1 0x1 PUSH1 0x40 SHL SUB DUP3 GT PUSH2 0x296 JUMPI PUSH2 0x3A87 SWAP2 PUSH1 0x4 ADD PUSH2 0x3A2B JUMP JUMPDEST SWAP1 SWAP2 JUMP JUMPDEST CALLER PUSH1 0x0 SWAP1 DUP2 MSTORE PUSH32 0x61C6261E6978331C793EEE420D743E773864E0EC05CC862750E423D64F73E9F6 PUSH1 0x20 SWAP1 DUP2 MSTORE PUSH1 0x40 DUP1 DUP4 KECCAK256 SLOAD SWAP1 SWAP3 PUSH32 0x189AB7A9244DF0848122154315AF71FE140F3DB0FE014031783B0946B8C9D2E3 SWAP2 PUSH1 0xFF AND ISZERO PUSH2 0x3AEF JUMPI POP POP POP POP JUMP JUMPDEST PUSH2 0x3AF8 CALLER PUSH2 0x424B JUMP JUMPDEST SWAP2 DUP5 MLOAD SWAP1 PUSH2 0x3B05 DUP3 PUSH2 0x3869 JUMP JUMPDEST PUSH1 0x42 DUP3 MSTORE DUP5 DUP3 ADD SWAP3 PUSH1 0x60 CALLDATASIZE DUP6 CALLDATACOPY DUP3 MLOAD ISZERO PUSH2 0x3C47 JUMPI PUSH1 0x30 DUP5 MSTORE8 DUP3 MLOAD SWAP1 PUSH1 0x1 SWAP2 DUP3 LT ISZERO PUSH2 0x3C47 JUMPI SWAP1 PUSH1 0x78 PUSH1 0x21 DUP6 ADD MSTORE8 PUSH1 0x41 SWAP2 JUMPDEST DUP2 DUP4 GT PUSH2 0x3BD9 JUMPI POP POP POP PUSH2 0x3BA9 JUMPI PUSH1 0x48 PUSH2 0x1246 SWAP4 DUP7 SWAP4 PUSH2 0x3B8D SWAP4 PUSH2 0x3B7E SWAP9 MLOAD SWAP9 DUP10 SWAP4 PUSH1 0x0 DUP1 MLOAD PUSH1 0x20 PUSH2 0x471C DUP4 CODECOPY DUP2 MLOAD SWAP2 MSTORE DUP11 DUP7 ADD MSTORE PUSH2 0x11ED DUP2 MLOAD DUP1 SWAP3 DUP13 PUSH1 0x37 DUP10 ADD SWAP2 ADD PUSH2 0x394B JUMP JUMPDEST ADD SUB PUSH1 0x28 DUP2 ADD DUP8 MSTORE ADD DUP6 PUSH2 0x3884 JUMP JUMPDEST MLOAD SWAP3 DUP4 SWAP3 PUSH3 0x461BCD PUSH1 0xE5 SHL DUP5 MSTORE PUSH1 0x4 DUP5 ADD MSTORE PUSH1 0x24 DUP4 ADD SWAP1 PUSH2 0x396E JUMP JUMPDEST PUSH1 0x64 DUP5 DUP7 MLOAD SWAP1 PUSH3 0x461BCD PUSH1 0xE5 SHL DUP3 MSTORE DUP1 PUSH1 0x4 DUP4 ADD MSTORE PUSH1 0x24 DUP3 ADD MSTORE PUSH1 0x0 DUP1 MLOAD PUSH1 0x20 PUSH2 0x46FC DUP4 CODECOPY DUP2 MLOAD SWAP2 MSTORE PUSH1 0x44 DUP3 ADD MSTORE REVERT JUMPDEST SWAP1 SWAP2 SWAP3 PUSH1 0xF DUP2 AND PUSH1 0x10 DUP2 LT ISZERO PUSH2 0x3C33 JUMPI PUSH16 0x181899199A1A9B1B9C1CB0B131B232B3 PUSH1 0x81 SHL SWAP1 BYTE PUSH2 0x3C09 DUP6 DUP8 PUSH2 0x423A JUMP JUMPDEST MSTORE8 PUSH1 0x4 SHR SWAP3 DUP1 ISZERO PUSH2 0x3C1F JUMPI PUSH1 0x0 NOT ADD SWAP2 SWAP1 PUSH2 0x3B36 JUMP JUMPDEST PUSH4 0x4E487B71 PUSH1 0xE0 SHL DUP3 MSTORE PUSH1 0x11 PUSH1 0x4 MSTORE PUSH1 0x24 DUP3 REVERT JUMPDEST PUSH4 0x4E487B71 PUSH1 0xE0 SHL DUP4 MSTORE PUSH1 0x32 PUSH1 0x4 MSTORE PUSH1 0x24 DUP4 REVERT JUMPDEST PUSH4 0x4E487B71 PUSH1 0xE0 SHL DUP2 MSTORE PUSH1 0x32 PUSH1 0x4 MSTORE PUSH1 0x24 SWAP1 REVERT JUMPDEST CALLER PUSH1 0x0 SWAP1 DUP2 MSTORE PUSH32 0x2C01DC0041DFB6D4238A91E5A638996136AED16F837D5BEB45610732CF9BF4B0 PUSH1 0x20 SWAP1 DUP2 MSTORE PUSH1 0x40 DUP1 DUP4 KECCAK256 SLOAD SWAP1 SWAP3 PUSH32 0xA49807205CE4D355092EF5A8A18F56E8913CF4A201FBE287825B095693C21775 SWAP2 PUSH1 0xFF AND ISZERO PUSH2 0x3CBF JUMPI POP POP POP POP JUMP JUMPDEST PUSH2 0x3CC8 CALLER PUSH2 0x424B JUMP JUMPDEST SWAP2 DUP5 MLOAD SWAP1 PUSH2 0x3CD5 DUP3 PUSH2 0x3869 JUMP JUMPDEST PUSH1 0x42 DUP3 MSTORE DUP5 DUP3 ADD SWAP3 PUSH1 0x60 CALLDATASIZE DUP6 CALLDATACOPY DUP3 MLOAD ISZERO PUSH2 0x3C47 JUMPI PUSH1 0x30 DUP5 MSTORE8 DUP3 MLOAD SWAP1 PUSH1 0x1 SWAP2 DUP3 LT ISZERO PUSH2 0x3C47 JUMPI SWAP1 PUSH1 0x78 PUSH1 0x21 DUP6 ADD MSTORE8 PUSH1 0x41 SWAP2 JUMPDEST DUP2 DUP4 GT PUSH2 0x3D4E JUMPI POP POP POP PUSH2 0x3BA9 JUMPI PUSH1 0x48 PUSH2 0x1246 SWAP4 DUP7 SWAP4 PUSH2 0x3B8D SWAP4 PUSH2 0x3B7E SWAP9 MLOAD SWAP9 DUP10 SWAP4 PUSH1 0x0 DUP1 MLOAD PUSH1 0x20 PUSH2 0x471C DUP4 CODECOPY DUP2 MLOAD SWAP2 MSTORE DUP11 DUP7 ADD MSTORE PUSH2 0x11ED DUP2 MLOAD DUP1 SWAP3 DUP13 PUSH1 0x37 DUP10 ADD SWAP2 ADD PUSH2 0x394B JUMP JUMPDEST SWAP1 SWAP2 SWAP3 PUSH1 0xF DUP2 AND PUSH1 0x10 DUP2 LT ISZERO PUSH2 0x3C33 JUMPI PUSH16 0x181899199A1A9B1B9C1CB0B131B232B3 PUSH1 0x81 SHL SWAP1 BYTE PUSH2 0x3D7E DUP6 DUP8 PUSH2 0x423A JUMP JUMPDEST MSTORE8 PUSH1 0x4 SHR SWAP3 DUP1 ISZERO PUSH2 0x3C1F JUMPI PUSH1 0x0 NOT ADD SWAP2 SWAP1 PUSH2 0x3D06 JUMP JUMPDEST CALLER PUSH1 0x0 SWAP1 DUP2 MSTORE PUSH32 0xCCE6827FA156BCD84B0076B5A7B2DEC11C993FB264D8DC1E547A62045D60E4AF PUSH1 0x20 SWAP1 DUP2 MSTORE PUSH1 0x40 DUP1 DUP4 KECCAK256 SLOAD SWAP1 SWAP3 PUSH32 0x68E79A7BF1E0BC45D0A330C573BC367F9CF464FD326078812F301165FBDA4EF1 SWAP2 PUSH1 0xFF AND ISZERO PUSH2 0x3DF8 JUMPI POP POP POP POP JUMP JUMPDEST PUSH2 0x3E01 CALLER PUSH2 0x424B JUMP JUMPDEST SWAP2 DUP5 MLOAD SWAP1 PUSH2 0x3E0E DUP3 PUSH2 0x3869 JUMP JUMPDEST PUSH1 0x42 DUP3 MSTORE DUP5 DUP3 ADD SWAP3 PUSH1 0x60 CALLDATASIZE DUP6 CALLDATACOPY DUP3 MLOAD ISZERO PUSH2 0x3C47 JUMPI PUSH1 0x30 DUP5 MSTORE8 DUP3 MLOAD SWAP1 PUSH1 0x1 SWAP2 DUP3 LT ISZERO PUSH2 0x3C47 JUMPI SWAP1 PUSH1 0x78 PUSH1 0x21 DUP6 ADD MSTORE8 PUSH1 0x41 SWAP2 JUMPDEST DUP2 DUP4 GT PUSH2 0x3E87 JUMPI POP POP POP PUSH2 0x3BA9 JUMPI PUSH1 0x48 PUSH2 0x1246 SWAP4 DUP7 SWAP4 PUSH2 0x3B8D SWAP4 PUSH2 0x3B7E SWAP9 MLOAD SWAP9 DUP10 SWAP4 PUSH1 0x0 DUP1 MLOAD PUSH1 0x20 PUSH2 0x471C DUP4 CODECOPY DUP2 MLOAD SWAP2 MSTORE DUP11 DUP7 ADD MSTORE PUSH2 0x11ED DUP2 MLOAD DUP1 SWAP3 DUP13 PUSH1 0x37 DUP10 ADD SWAP2 ADD PUSH2 0x394B JUMP JUMPDEST SWAP1 SWAP2 SWAP3 PUSH1 0xF DUP2 AND PUSH1 0x10 DUP2 LT ISZERO PUSH2 0x3C33 JUMPI PUSH16 0x181899199A1A9B1B9C1CB0B131B232B3 PUSH1 0x81 SHL SWAP1 BYTE PUSH2 0x3EB7 DUP6 DUP8 PUSH2 0x423A JUMP JUMPDEST MSTORE8 PUSH1 0x4 SHR SWAP3 DUP1 ISZERO PUSH2 0x3C1F JUMPI PUSH1 0x0 NOT ADD SWAP2 SWAP1 PUSH2 0x3E3F JUMP JUMPDEST PUSH1 0x0 SWAP1 DUP1 DUP3 MSTORE PUSH1 0x20 SWAP1 PUSH1 0x65 DUP3 MSTORE PUSH1 0x40 SWAP3 DUP4 DUP2 KECCAK256 CALLER DUP3 MSTORE DUP4 MSTORE PUSH1 0xFF DUP5 DUP3 KECCAK256 SLOAD AND ISZERO PUSH2 0x3EF7 JUMPI POP POP POP POP JUMP JUMPDEST PUSH2 0x3F00 CALLER PUSH2 0x424B JUMP JUMPDEST SWAP2 DUP5 MLOAD SWAP1 PUSH2 0x3F0D DUP3 PUSH2 0x3869 JUMP JUMPDEST PUSH1 0x42 DUP3 MSTORE DUP5 DUP3 ADD SWAP3 PUSH1 0x60 CALLDATASIZE DUP6 CALLDATACOPY DUP3 MLOAD ISZERO PUSH2 0x3C47 JUMPI PUSH1 0x30 DUP5 MSTORE8 DUP3 MLOAD SWAP1 PUSH1 0x1 SWAP2 DUP3 LT ISZERO PUSH2 0x3C47 JUMPI SWAP1 PUSH1 0x78 PUSH1 0x21 DUP6 ADD MSTORE8 PUSH1 0x41 SWAP2 JUMPDEST DUP2 DUP4 GT PUSH2 0x3F86 JUMPI POP POP POP PUSH2 0x3BA9 JUMPI PUSH1 0x48 PUSH2 0x1246 SWAP4 DUP7 SWAP4 PUSH2 0x3B8D SWAP4 PUSH2 0x3B7E SWAP9 MLOAD SWAP9 DUP10 SWAP4 PUSH1 0x0 DUP1 MLOAD PUSH1 0x20 PUSH2 0x471C DUP4 CODECOPY DUP2 MLOAD SWAP2 MSTORE DUP11 DUP7 ADD MSTORE PUSH2 0x11ED DUP2 MLOAD DUP1 SWAP3 DUP13 PUSH1 0x37 DUP10 ADD SWAP2 ADD PUSH2 0x394B JUMP JUMPDEST SWAP1 SWAP2 SWAP3 PUSH1 0xF DUP2 AND PUSH1 0x10 DUP2 LT ISZERO PUSH2 0x3C33 JUMPI PUSH16 0x181899199A1A9B1B9C1CB0B131B232B3 PUSH1 0x81 SHL SWAP1 BYTE PUSH2 0x3FB6 DUP6 DUP8 PUSH2 0x423A JUMP JUMPDEST MSTORE8 PUSH1 0x4 SHR SWAP3 DUP1 ISZERO PUSH2 0x3C1F JUMPI PUSH1 0x0 NOT ADD SWAP2 SWAP1 PUSH2 0x3F3E JUMP JUMPDEST SWAP1 PUSH1 0x0 SWAP2 DUP1 DUP4 MSTORE PUSH1 0x65 PUSH1 0x20 MSTORE PUSH1 0x40 DUP4 KECCAK256 SWAP2 PUSH1 0x1 DUP1 PUSH1 0xA0 SHL SUB AND SWAP2 DUP3 DUP5 MSTORE PUSH1 0x20 MSTORE PUSH1 0xFF PUSH1 0x40 DUP5 KECCAK256 SLOAD AND PUSH2 0x3FFD JUMPI POP POP POP JUMP JUMPDEST DUP1 DUP4 MSTORE PUSH1 0x65 PUSH1 0x20 MSTORE PUSH1 0x40 DUP4 KECCAK256 DUP3 DUP5 MSTORE PUSH1 0x20 MSTORE PUSH1 0x40 DUP4 KECCAK256 PUSH1 0xFF NOT DUP2 SLOAD AND SWAP1 SSTORE PUSH32 0xF6391F5C32D9C69D2A47EA670B442974B53935D1EDC7FD64EB21E047A839171B CALLER SWAP4 DUP1 LOG4 JUMP JUMPDEST ISZERO PUSH2 0x4049 JUMPI JUMP JUMPDEST PUSH1 0x40 MLOAD PUSH3 0x461BCD PUSH1 0xE5 SHL DUP2 MSTORE PUSH1 0x20 PUSH1 0x4 DUP3 ADD MSTORE PUSH1 0x2C PUSH1 0x24 DUP3 ADD MSTORE PUSH32 0x46756E6374696F6E206D7573742062652063616C6C6564207468726F75676820 PUSH1 0x44 DUP3 ADD MSTORE PUSH12 0x19195B1959D85D1958D85B1B PUSH1 0xA2 SHL PUSH1 0x64 DUP3 ADD MSTORE PUSH1 0x84 SWAP1 REVERT JUMPDEST ISZERO PUSH2 0x40AA JUMPI JUMP JUMPDEST PUSH1 0x40 MLOAD PUSH3 0x461BCD PUSH1 0xE5 SHL DUP2 MSTORE PUSH1 0x20 PUSH1 0x4 DUP3 ADD MSTORE PUSH1 0x2C PUSH1 0x24 DUP3 ADD MSTORE PUSH32 0x46756E6374696F6E206D7573742062652063616C6C6564207468726F75676820 PUSH1 0x44 DUP3 ADD MSTORE PUSH12 0x6163746976652070726F7879 PUSH1 0xA0 SHL PUSH1 0x64 DUP3 ADD MSTORE PUSH1 0x84 SWAP1 REVERT JUMPDEST DUP1 EXTCODESIZE ISZERO PUSH2 0x4139 JUMPI PUSH1 0x0 DUP1 MLOAD PUSH1 0x20 PUSH2 0x473C DUP4 CODECOPY DUP2 MLOAD SWAP2 MSTORE DUP1 SLOAD PUSH1 0x1 PUSH1 0x1 PUSH1 0xA0 SHL SUB NOT AND PUSH1 0x1 PUSH1 0x1 PUSH1 0xA0 SHL SUB SWAP1 SWAP3 AND SWAP2 SWAP1 SWAP2 OR SWAP1 SSTORE JUMP JUMPDEST PUSH1 0x40 MLOAD PUSH3 0x461BCD PUSH1 0xE5 SHL DUP2 MSTORE PUSH1 0x20 PUSH1 0x4 DUP3 ADD MSTORE PUSH1 0x2D PUSH1 0x24 DUP3 ADD MSTORE PUSH32 0x455243313936373A206E657720696D706C656D656E746174696F6E206973206E PUSH1 0x44 DUP3 ADD MSTORE PUSH13 0x1BDD08184818DBDB9D1C9858DD PUSH1 0x9A SHL PUSH1 0x64 DUP3 ADD MSTORE PUSH1 0x84 SWAP1 REVERT JUMPDEST SWAP2 SWAP3 SWAP1 ISZERO PUSH2 0x41F6 JUMPI POP DUP2 MLOAD ISZERO PUSH2 0x41A8 JUMPI POP SWAP1 JUMP JUMPDEST EXTCODESIZE ISZERO PUSH2 0x41B1 JUMPI SWAP1 JUMP JUMPDEST PUSH1 0x40 MLOAD PUSH3 0x461BCD PUSH1 0xE5 SHL DUP2 MSTORE PUSH1 0x20 PUSH1 0x4 DUP3 ADD MSTORE PUSH1 0x1D PUSH1 0x24 DUP3 ADD MSTORE PUSH32 0x416464726573733A2063616C6C20746F206E6F6E2D636F6E7472616374000000 PUSH1 0x44 DUP3 ADD MSTORE PUSH1 0x64 SWAP1 REVERT JUMPDEST DUP3 MLOAD SWAP1 SWAP2 POP ISZERO PUSH2 0x4209 JUMPI POP DUP1 MLOAD SWAP1 PUSH1 0x20 ADD REVERT JUMPDEST PUSH1 0x40 MLOAD PUSH3 0x461BCD PUSH1 0xE5 SHL DUP2 MSTORE PUSH1 0x20 PUSH1 0x4 DUP3 ADD MSTORE SWAP1 DUP2 SWAP1 PUSH2 0x1246 SWAP1 PUSH1 0x24 DUP4 ADD SWAP1 PUSH2 0x396E JUMP JUMPDEST SWAP2 SWAP1 DUP3 ADD DUP1 SWAP3 GT PUSH2 0x12BF JUMPI JUMP JUMPDEST SWAP1 DUP2 MLOAD DUP2 LT ISZERO PUSH2 0x12D5 JUMPI ADD PUSH1 0x20 ADD SWAP1 JUMP JUMPDEST PUSH1 0x40 MLOAD SWAP1 PUSH2 0x4258 DUP3 PUSH2 0x3833 JUMP JUMPDEST PUSH1 0x2A DUP3 MSTORE PUSH1 0x20 DUP3 ADD PUSH1 0x40 CALLDATASIZE DUP3 CALLDATACOPY DUP3 MLOAD ISZERO PUSH2 0x12D5 JUMPI PUSH1 0x30 SWAP1 MSTORE8 DUP2 MLOAD PUSH1 0x1 SWAP1 DUP2 LT ISZERO PUSH2 0x12D5 JUMPI PUSH1 0x78 PUSH1 0x21 DUP5 ADD MSTORE8 PUSH1 0x29 SWAP1 JUMPDEST DUP1 DUP3 GT PUSH2 0x42C9 JUMPI POP POP PUSH2 0x4297 JUMPI SWAP1 JUMP JUMPDEST PUSH1 0x64 PUSH1 0x40 MLOAD PUSH3 0x461BCD PUSH1 0xE5 SHL DUP2 MSTORE PUSH1 0x20 PUSH1 0x4 DUP3 ADD MSTORE PUSH1 0x20 PUSH1 0x24 DUP3 ADD MSTORE PUSH1 0x0 DUP1 MLOAD PUSH1 0x20 PUSH2 0x46FC DUP4 CODECOPY DUP2 MLOAD SWAP2 MSTORE PUSH1 0x44 DUP3 ADD MSTORE REVERT JUMPDEST SWAP1 SWAP2 PUSH1 0xF DUP2 AND PUSH1 0x10 DUP2 LT ISZERO PUSH2 0x4322 JUMPI PUSH16 0x181899199A1A9B1B9C1CB0B131B232B3 PUSH1 0x81 SHL SWAP1 BYTE PUSH2 0x42F8 DUP5 DUP7 PUSH2 0x423A JUMP JUMPDEST MSTORE8 PUSH1 0x4 SHR SWAP2 DUP1 ISZERO PUSH2 0x430D JUMPI PUSH1 0x0 NOT ADD SWAP1 PUSH2 0x4287 JUMP JUMPDEST PUSH1 0x24 PUSH1 0x0 PUSH4 0x4E487B71 PUSH1 0xE0 SHL DUP2 MSTORE PUSH1 0x11 PUSH1 0x4 MSTORE REVERT JUMPDEST PUSH1 0x24 PUSH1 0x0 PUSH4 0x4E487B71 PUSH1 0xE0 SHL DUP2 MSTORE PUSH1 0x32 PUSH1 0x4 MSTORE REVERT JUMPDEST ISZERO PUSH2 0x433E JUMPI JUMP JUMPDEST PUSH1 0x40 MLOAD PUSH3 0x461BCD PUSH1 0xE5 SHL DUP2 MSTORE PUSH1 0x20 PUSH1 0x4 DUP3 ADD MSTORE PUSH1 0x2B PUSH1 0x24 DUP3 ADD MSTORE PUSH32 0x496E697469616C697A61626C653A20636F6E7472616374206973206E6F742069 PUSH1 0x44 DUP3 ADD MSTORE PUSH11 0x6E697469616C697A696E67 PUSH1 0xA8 SHL PUSH1 0x64 DUP3 ADD MSTORE PUSH1 0x84 SWAP1 REVERT JUMPDEST MLOAD SWAP1 DUP2 ISZERO ISZERO DUP3 SUB PUSH2 0x296 JUMPI JUMP JUMPDEST SWAP1 PUSH1 0x1F DUP2 GT PUSH2 0x43B2 JUMPI POP POP POP JUMP JUMPDEST PUSH1 0x0 SWAP2 DUP3 MSTORE PUSH1 0x20 DUP3 KECCAK256 SWAP1 PUSH1 0x20 PUSH1 0x1F DUP6 ADD PUSH1 0x5 SHR DUP4 ADD SWAP5 LT PUSH2 0x43EE JUMPI JUMPDEST PUSH1 0x1F ADD PUSH1 0x5 SHR ADD SWAP2 JUMPDEST DUP3 DUP2 LT PUSH2 0x43E3 JUMPI POP POP POP JUMP JUMPDEST DUP2 DUP2 SSTORE PUSH1 0x1 ADD PUSH2 0x43D7 JUMP JUMPDEST SWAP1 SWAP3 POP DUP3 SWAP1 PUSH2 0x43CE JUMP JUMPDEST PUSH1 0x0 NOT DUP2 EQ PUSH2 0x12BF JUMPI PUSH1 0x1 ADD SWAP1 JUMP JUMPDEST PUSH1 0xFF PUSH1 0x97 SLOAD AND PUSH2 0x4413 JUMPI JUMP JUMPDEST PUSH1 0x40 MLOAD PUSH3 0x461BCD PUSH1 0xE5 SHL DUP2 MSTORE PUSH1 0x20 PUSH1 0x4 DUP3 ADD MSTORE PUSH1 0x10 PUSH1 0x24 DUP3 ADD MSTORE PUSH16 0x14185D5CD8589B194E881C185D5CD959 PUSH1 0x82 SHL PUSH1 0x44 DUP3 ADD MSTORE PUSH1 0x64 SWAP1 REVERT JUMPDEST PUSH2 0x12D PUSH1 0x2 DUP2 SLOAD EQ PUSH2 0x445D JUMPI PUSH1 0x2 SWAP1 SSTORE JUMP JUMPDEST PUSH1 0x40 MLOAD PUSH3 0x461BCD PUSH1 0xE5 SHL DUP2 MSTORE PUSH1 0x20 PUSH1 0x4 DUP3 ADD MSTORE PUSH1 0x1F PUSH1 0x24 DUP3 ADD MSTORE PUSH32 0x5265656E7472616E637947756172643A207265656E7472616E742063616C6C00 PUSH1 0x44 DUP3 ADD MSTORE PUSH1 0x64 SWAP1 REVERT JUMPDEST ISZERO PUSH2 0x44A9 JUMPI JUMP JUMPDEST PUSH1 0x40 MLOAD PUSH3 0x461BCD PUSH1 0xE5 SHL DUP2 MSTORE PUSH1 0x20 PUSH1 0x4 DUP3 ADD MSTORE PUSH1 0xE PUSH1 0x24 DUP3 ADD MSTORE PUSH14 0x115CD8DC9BDDC8195E1C1A5C9959 PUSH1 0x92 SHL PUSH1 0x44 DUP3 ADD MSTORE PUSH1 0x64 SWAP1 REVERT JUMPDEST SWAP1 DUP1 PUSH1 0x20 SWAP4 SWAP3 DUP2 DUP5 MSTORE DUP5 DUP5 ADD CALLDATACOPY PUSH1 0x0 DUP3 DUP3 ADD DUP5 ADD MSTORE PUSH1 0x1F ADD PUSH1 0x1F NOT AND ADD ADD SWAP1 JUMP JUMPDEST PUSH1 0x0 SWAP1 DUP1 DUP3 MSTORE PUSH2 0x167 PUSH1 0x20 MSTORE PUSH1 0x40 DUP3 KECCAK256 SWAP2 PUSH1 0x3 DUP4 ADD SLOAD SWAP1 PUSH2 0x165 SLOAD DUP1 DUP4 MUL SWAP1 DUP4 DUP3 DIV EQ DUP4 ISZERO OR ISZERO PUSH2 0x3C1F JUMPI PUSH2 0x2710 SWAP1 DIV SWAP4 DUP5 DUP4 SUB SWAP3 DUP4 GT PUSH2 0x3C1F JUMPI SWAP2 PUSH1 0x40 SWAP2 DUP4 PUSH1 0x6 PUSH1 0x2 PUSH32 0x6823CBBE3D86B8D3BC32F4679210E4FF0A8B1BF495CA5889FFFC53B19C6ADD4 SWAP7 ADD SWAP2 DUP6 PUSH1 0x1 DUP1 PUSH1 0xA0 SHL SUB SWAP5 DUP6 DUP6 SLOAD AND DUP2 MSTORE PUSH2 0x16A PUSH1 0x20 MSTORE KECCAK256 PUSH2 0x4589 DUP7 DUP3 SLOAD PUSH2 0x422D JUMP JUMPDEST SWAP1 SSTORE DUP9 ISZERO ISZERO DUP1 PUSH2 0x45C9 JUMPI JUMPDEST PUSH2 0x45B5 JUMPI JUMPDEST ADD PUSH1 0x5 PUSH1 0xFF NOT DUP3 SLOAD AND OR SWAP1 SSTORE SLOAD AND SWAP5 DUP3 MLOAD SWAP2 DUP3 MSTORE PUSH1 0x20 DUP3 ADD MSTORE LOG3 JUMP JUMPDEST PUSH2 0x45C4 DUP10 DUP6 PUSH2 0x166 SLOAD AND PUSH2 0x4615 JUMP JUMPDEST PUSH2 0x4599 JUMP JUMPDEST POP DUP4 PUSH2 0x166 SLOAD AND ISZERO ISZERO PUSH2 0x4594 JUMP JUMPDEST ISZERO PUSH2 0x45DE JUMPI JUMP JUMPDEST PUSH1 0x40 MLOAD PUSH3 0x461BCD PUSH1 0xE5 SHL DUP2 MSTORE PUSH1 0x20 PUSH1 0x4 DUP3 ADD MSTORE PUSH1 0xF PUSH1 0x24 DUP3 ADD MSTORE PUSH15 0x151C985B9CD9995C8819985A5B1959 PUSH1 0x8A SHL PUSH1 0x44 DUP3 ADD MSTORE PUSH1 0x64 SWAP1 REVERT JUMPDEST PUSH2 0x161 SLOAD PUSH1 0x1 PUSH1 0x1 PUSH1 0xA0 SHL SUB SWAP1 DUP2 AND DUP1 PUSH2 0x464F JUMPI POP PUSH1 0x0 DUP1 SWAP4 DUP2 SWAP4 DUP3 SWAP4 DUP4 SWAP2 DUP4 ISZERO PUSH2 0x4645 JUMPI JUMPDEST AND SWAP1 CALL ISZERO PUSH2 0x889 JUMPI JUMP JUMPDEST PUSH2 0x8FC SWAP3 POP PUSH2 0x463B JUMP JUMPDEST PUSH1 0x40 MLOAD PUSH4 0xA9059CBB PUSH1 0xE0 SHL DUP2 MSTORE PUSH1 0x1 PUSH1 0x1 PUSH1 0xA0 SHL SUB SWAP4 SWAP1 SWAP4 AND PUSH1 0x4 DUP5 ADD MSTORE PUSH1 0x24 DUP4 ADD SWAP4 SWAP1 SWAP4 MSTORE POP SWAP1 PUSH1 0x20 SWAP1 DUP3 SWAP1 PUSH1 0x44 SWAP1 DUP3 SWAP1 PUSH1 0x0 SWAP1 GAS CALL DUP1 ISZERO PUSH2 0x889 JUMPI PUSH1 0x0 SWAP1 PUSH2 0x469E JUMPI JUMPDEST PUSH2 0x38E3 SWAP2 POP PUSH2 0x45D7 JUMP JUMPDEST PUSH1 0x20 DUP3 RETURNDATASIZE DUP3 GT PUSH2 0x46D3 JUMPI JUMPDEST DUP2 PUSH2 0x46B6 PUSH1 0x20 SWAP4 DUP4 PUSH2 0x3884 JUMP JUMPDEST DUP2 ADD SUB SLT PUSH2 0x46D0 JUMPI POP PUSH2 0x46CB PUSH2 0x38E3 SWAP2 PUSH2 0x4397 JUMP JUMPDEST PUSH2 0x4694 JUMP JUMPDEST DUP1 REVERT JUMPDEST RETURNDATASIZE SWAP2 POP PUSH2 0x46A9 JUMP INVALID 0x2F DUP8 DUP9 GT PUSH31 0x7EFF1D82E926EC794901D17C78024A50270940304540A733656F0D53747269 PUSH15 0x67733A20686578206C656E67746820 PUSH10 0x6E73756666696369656E PUSH21 0x416363657373436F6E74726F6C3A206163636F756E PUSH21 0x20000000000000000000360894A13BA1A3210667C8 0x28 0x49 0x2D 0xB9 DUP14 0xCA RETURNDATACOPY KECCAK256 PUSH23 0xCC3735A920A3CA505D382BBCA26469706673582212209E 0xE9 0xD7 LT 0x4F 0xE5 0xCB 0xBB 0xA6 CALLER DUP3 CALLVALUE 0xEA 0xD5 ORIGIN 0xAC DELEGATECALL SIGNEXTEND 0x49 SWAP8 0xA9 0x21 0xD LT NOT 0x24 MOD SWAP11 0x2B 0xB5 0xC7 PC PUSH5 0x736F6C6343 STOP ADDMOD SGT STOP CALLER "},"methodIdentifiers":{"ADMIN_ROLE()":"75b238fc","DEFAULT_ADMIN_ROLE()":"a217fddf","DISPUTE_RESOLVER_ROLE()":"bfe42a37","ORACLE_ROLE()":"07e2cea5","UPGRADER_ROLE()":"f72c0d8b","cancelExpiredEscrow(bytes32)":"a86a08d5","completeFraudCheck(bytes32,uint256,bool)":"e61b13e1","createEscrow(bytes32,address)":"f421db5d","disputeTimeout()":"c04c22a4","disputes(bytes32)":"11be1997","emergencyWithdraw()":"db2e21bc","escrowRequests(bytes32)":"6d038770","escrowTimeout()":"605c6d63","feeRecipient()":"46904840","fraudDetection()":"613df47c","fraudThreshold()":"5f5b7990","getDispute(bytes32)":"136ba6aa","getEscrowRequest(bytes32)":"9ab20269","getRoleAdmin(bytes32)":"248a9ca3","grantRole(bytes32,address)":"2f2ff15d","hasRole(bytes32,address)":"91d14854","initialize(address,address,address,address,address)":"1459457a","lockFunds(bytes32)":"9cbeb6c1","pause()":"8456cb59","paused()":"5c975abb","paymentToken()":"3013ce29","platformFeePercentage()":"cdd78cfc","proxiableUUID()":"52d1902d","raiseDispute(bytes32,string)":"be7b8a77","renounceRole(bytes32,address)":"36568abe","resolveDispute(bytes32,bool,string)":"795e0a79","revokeRole(bytes32,address)":"d547741f","submitVerification(bytes32,string)":"e772e514","supportsInterface(bytes4)":"01ffc9a7","totalAmountEscrowed()":"ed74d26e","totalDisputesRaised()":"9d4f89d2","totalEscrowsCreated()":"882cc8b3","totalFraudDetected()":"edbc4d14","unpause()":"3f4ba83a","updateDisputeTimeout(uint256)":"5b4e9a42","updateEscrowTimeout(uint256)":"e84a571c","updateFeeRecipient(address)":"f160d369","updateFraudThreshold(uint256)":"a4b66f03","updatePlatformFee(uint256)":"aa0b5988","upgradeTo(address)":"3659cfe6","upgradeToAndCall(address,bytes)":"4f1ef286","userRefunds(address)":"883f3d96","verifierEarnings(address)":"e6db0707","verifierMarketplace()":"b5c608b7","withdrawEarnings()":"b73c6ce9","withdrawRefund()":"110f8874"}},"storageLayout":{"storage":[{"astId":810,"contract":"contracts/EscrowContract.sol:EscrowContract","label":"_initialized","offset":0,"slot":"0","type":"t_uint8"},{"astId":813,"contract":"contracts/EscrowContract.sol:EscrowContract","label":"_initializing","offset":1,"slot":"0","type":"t_bool"},{"astId":2993,"contract":"contracts/EscrowContract.sol:EscrowContract","label":"__gap","offset":0,"slot":"1","type":"t_array(t_uint256)50_storage"},{"astId":3451,"contract":"contracts/EscrowContract.sol:EscrowContract","label":"__gap","offset":0,"slot":"51","type":"t_array(t_uint256)50_storage"},{"astId":28,"contract":"contracts/EscrowContract.sol:EscrowContract","label":"_roles","offset":0,"slot":"101","type":"t_mapping(t_bytes32,t_struct(RoleData)23_storage)"},{"astId":335,"contract":"contracts/EscrowContract.sol:EscrowContract","label":"__gap","offset":0,"slot":"102","type":"t_array(t_uint256)49_storage"},{"astId":1131,"contract":"contracts/EscrowContract.sol:EscrowContract","label":"_paused","offset":0,"slot":"151","type":"t_bool"},{"astId":1236,"contract":"contracts/EscrowContract.sol:EscrowContract","label":"__gap","offset":0,"slot":"152","type":"t_array(t_uint256)49_storage"},{"astId":792,"contract":"contracts/EscrowContract.sol:EscrowContract","label":"__gap","offset":0,"slot":"201","type":"t_array(t_uint256)50_storage"},{"astId":1108,"contract":"contracts/EscrowContract.sol:EscrowContract","label":"__gap","offset":0,"slot":"251","type":"t_array(t_uint256)50_storage"},{"astId":1252,"contract":"contracts/EscrowContract.sol:EscrowContract","label":"_status","offset":0,"slot":"301","type":"t_uint256"},{"astId":1321,"contract":"contracts/EscrowContract.sol:EscrowContract","label":"__gap","offset":0,"slot":"302","type":"t_array(t_uint256)49_storage"},{"astId":4660,"contract":"contracts/EscrowContract.sol:EscrowContract","label":"verifierMarketplace","offset":0,"slot":"351","type":"t_contract(IVerifierMarketplace)4552"},{"astId":4663,"contract":"contracts/EscrowContract.sol:EscrowContract","label":"fraudDetection","offset":0,"slot":"352","type":"t_contract(IFraudDetection)4564"},{"astId":4666,"contract":"contracts/EscrowContract.sol:EscrowContract","label":"paymentToken","offset":0,"slot":"353","type":"t_contract(IERC20)4513"},{"astId":4668,"contract":"contracts/EscrowContract.sol:EscrowContract","label":"escrowTimeout","offset":0,"slot":"354","type":"t_uint256"},{"astId":4670,"contract":"contracts/EscrowContract.sol:EscrowContract","label":"disputeTimeout","offset":0,"slot":"355","type":"t_uint256"},{"astId":4672,"contract":"contracts/EscrowContract.sol:EscrowContract","label":"fraudThreshold","offset":0,"slot":"356","type":"t_uint256"},{"astId":4674,"contract":"contracts/EscrowContract.sol:EscrowContract","label":"platformFeePercentage","offset":0,"slot":"357","type":"t_uint256"},{"astId":4676,"contract":"contracts/EscrowContract.sol:EscrowContract","label":"feeRecipient","offset":0,"slot":"358","type":"t_address"},{"astId":4681,"contract":"contracts/EscrowContract.sol:EscrowContract","label":"escrowRequests","offset":0,"slot":"359","type":"t_mapping(t_bytes32,t_struct(EscrowRequest)4640_storage)"},{"astId":4686,"contract":"contracts/EscrowContract.sol:EscrowContract","label":"disputes","offset":0,"slot":"360","type":"t_mapping(t_bytes32,t_struct(DisputeInfo)4657_storage)"},{"astId":4690,"contract":"contracts/EscrowContract.sol:EscrowContract","label":"userRefunds","offset":0,"slot":"361","type":"t_mapping(t_address,t_uint256)"},{"astId":4694,"contract":"contracts/EscrowContract.sol:EscrowContract","label":"verifierEarnings","offset":0,"slot":"362","type":"t_mapping(t_address,t_uint256)"},{"astId":4696,"contract":"contracts/EscrowContract.sol:EscrowContract","label":"totalEscrowsCreated","offset":0,"slot":"363","type":"t_uint256"},{"astId":4698,"contract":"contracts/EscrowContract.sol:EscrowContract","label":"totalAmountEscrowed","offset":0,"slot":"364","type":"t_uint256"},{"astId":4700,"contract":"contracts/EscrowContract.sol:EscrowContract","label":"totalDisputesRaised","offset":0,"slot":"365","type":"t_uint256"},{"astId":4702,"contract":"contracts/EscrowContract.sol:EscrowContract","label":"totalFraudDetected","offset":0,"slot":"366","type":"t_uint256"}],"types":{"t_address":{"encoding":"inplace","label":"address","numberOfBytes":"20"},"t_array(t_uint256)49_storage":{"base":"t_uint256","encoding":"inplace","label":"uint256[49]","numberOfBytes":"1568"},"t_array(t_uint256)50_storage":{"base":"t_uint256","encoding":"inplace","label":"uint256[50]","numberOfBytes":"1600"},"t_bool":{"encoding":"inplace","label":"bool","numberOfBytes":"1"},"t_bytes32":{"encoding":"inplace","label":"bytes32","numberOfBytes":"32"},"t_contract(IERC20)4513":{"encoding":"inplace","label":"contract IERC20","numberOfBytes":"20"},"t_contract(IFraudDetection)4564":{"encoding":"inplace","label":"contract IFraudDetection","numberOfBytes":"20"},"t_contract(IVerifierMarketplace)4552":{"encoding":"inplace","label":"contract IVerifierMarketplace","numberOfBytes":"20"},"t_enum(DisputeStatus)4609":{"encoding":"inplace","label":"enum EscrowContract.DisputeStatus","numberOfBytes":"1"},"t_enum(EscrowStatus)4604":{"encoding":"inplace","label":"enum EscrowContract.EscrowStatus","numberOfBytes":"1"},"t_mapping(t_address,t_bool)":{"encoding":"mapping","key":"t_address","label":"mapping(address => bool)","numberOfBytes":"32","value":"t_bool"},"t_mapping(t_address,t_uint256)":{"encoding":"mapping","key":"t_address","label":"mapping(address => uint256)","numberOfBytes":"32","value":"t_uint256"},"t_mapping(t_bytes32,t_struct(DisputeInfo)4657_storage)":{"encoding":"mapping","key":"t_bytes32","label":"mapping(bytes32 => struct EscrowContract.DisputeInfo)","numberOfBytes":"32","value":"t_struct(DisputeInfo)4657_storage"},"t_mapping(t_bytes32,t_struct(EscrowRequest)4640_storage)":{"encoding":"mapping","key":"t_bytes32","label":"mapping(bytes32 => struct EscrowContract.EscrowRequest)","numberOfBytes":"32","value":"t_struct(EscrowRequest)4640_storage"},"t_mapping(t_bytes32,t_struct(RoleData)23_storage)":{"encoding":"mapping","key":"t_bytes32","label":"mapping(bytes32 => struct AccessControlUpgradeable.RoleData)","numberOfBytes":"32","value":"t_struct(RoleData)23_storage"},"t_string_storage":{"encoding":"bytes","label":"string","numberOfBytes":"32"},"t_struct(DisputeInfo)4657_storage":{"encoding":"inplace","label":"struct EscrowContract.DisputeInfo","members":[{"astId":4642,"contract":"contracts/EscrowContract.sol:EscrowContract","label":"requestId","offset":0,"slot":"0","type":"t_bytes32"},{"astId":4644,"contract":"contracts/EscrowContract.sol:EscrowContract","label":"initiator","offset":0,"slot":"1","type":"t_address"},{"astId":4646,"contract":"contracts/EscrowContract.sol:EscrowContract","label":"reason","offset":0,"slot":"2","type":"t_string_storage"},{"astId":4648,"contract":"contracts/EscrowContract.sol:EscrowContract","label":"createdAt","offset":0,"slot":"3","type":"t_uint256"},{"astId":4650,"contract":"contracts/EscrowContract.sol:EscrowContract","label":"resolvedAt","offset":0,"slot":"4","type":"t_uint256"},{"astId":4652,"contract":"contracts/EscrowContract.sol:EscrowContract","label":"resolver","offset":0,"slot":"5","type":"t_address"},{"astId":4654,"contract":"contracts/EscrowContract.sol:EscrowContract","label":"userFavored","offset":20,"slot":"5","type":"t_bool"},{"astId":4656,"contract":"contracts/EscrowContract.sol:EscrowContract","label":"resolution","offset":0,"slot":"6","type":"t_string_storage"}],"numberOfBytes":"224"},"t_struct(EscrowRequest)4640_storage":{"encoding":"inplace","label":"struct EscrowContract.EscrowRequest","members":[{"astId":4611,"contract":"contracts/EscrowContract.sol:EscrowContract","label":"requestId","offset":0,"slot":"0","type":"t_bytes32"},{"astId":4613,"contract":"contracts/EscrowContract.sol:EscrowContract","label":"user","offset":0,"slot":"1","type":"t_address"},{"astId":4615,"contract":"contracts/EscrowContract.sol:EscrowContract","label":"verifier","offset":0,"slot":"2","type":"t_address"},{"astId":4617,"contract":"contracts/EscrowContract.sol:EscrowContract","label":"amount","offset":0,"slot":"3","type":"t_uint256"},{"astId":4619,"contract":"contracts/EscrowContract.sol:EscrowContract","label":"createdAt","offset":0,"slot":"4","type":"t_uint256"},{"astId":4621,"contract":"contracts/EscrowContract.sol:EscrowContract","label":"expiresAt","offset":0,"slot":"5","type":"t_uint256"},{"astId":4624,"contract":"contracts/EscrowContract.sol:EscrowContract","label":"status","offset":0,"slot":"6","type":"t_enum(EscrowStatus)4604"},{"astId":4626,"contract":"contracts/EscrowContract.sol:EscrowContract","label":"verificationData","offset":0,"slot":"7","type":"t_string_storage"},{"astId":4628,"contract":"contracts/EscrowContract.sol:EscrowContract","label":"fraudScore","offset":0,"slot":"8","type":"t_uint256"},{"astId":4630,"contract":"contracts/EscrowContract.sol:EscrowContract","label":"fraudDetected","offset":0,"slot":"9","type":"t_bool"},{"astId":4633,"contract":"contracts/EscrowContract.sol:EscrowContract","label":"disputeStatus","offset":1,"slot":"9","type":"t_enum(DisputeStatus)4609"},{"astId":4635,"contract":"contracts/EscrowContract.sol:EscrowContract","label":"disputeReason","offset":0,"slot":"10","type":"t_string_storage"},{"astId":4637,"contract":"contracts/EscrowContract.sol:EscrowContract","label":"disputeResolver","offset":0,"slot":"11","type":"t_address"},{"astId":4639,"contract":"contracts/EscrowContract.sol:EscrowContract","label":"resolvedAt","offset":0,"slot":"12","type":"t_uint256"}],"numberOfBytes":"416"},"t_struct(RoleData)23_storage":{"encoding":"inplace","label":"struct AccessControlUpgradeable.RoleData","members":[{"astId":20,"contract":"contracts/EscrowContract.sol:EscrowContract","label":"members","offset":0,"slot":"0","type":"t_mapping(t_address,t_bool)"},{"astId":22,"contract":"contracts/EscrowContract.sol:EscrowContract","label":"adminRole","offset":0,"slot":"1","type":"t_bytes32"}],"numberOfBytes":"64"},"t_uint256":{"encoding":"inplace","label":"uint256","numberOfBytes":"32"},"t_uint8":{"encoding":"inplace","label":"uint8","numberOfBytes":"1"}}}}}}