{"contracts/VerifierMarketplace.sol":{"VerifierMarketplace":{"abi":[{"inputs":[],"stateMutability":"nonpayable","type":"constructor"},{"anonymous":false,"inputs":[{"indexed":false,"internalType":"address","name":"previousAdmin","type":"address"},{"indexed":false,"internalType":"address","name":"newAdmin","type":"address"}],"name":"AdminChanged","type":"event"},{"anonymous":false,"inputs":[{"indexed":true,"internalType":"address","name":"beacon","type":"address"}],"name":"BeaconUpgraded","type":"event"},{"anonymous":false,"inputs":[{"indexed":true,"internalType":"address","name":"verifier","type":"address"},{"indexed":false,"internalType":"uint256","name":"amount","type":"uint256"}],"name":"EarningsWithdrawn","type":"event"},{"anonymous":false,"inputs":[{"indexed":false,"internalType":"uint8","name":"version","type":"uint8"}],"name":"Initialized","type":"event"},{"anonymous":false,"inputs":[{"indexed":false,"internalType":"address","name":"account","type":"address"}],"name":"Paused","type":"event"},{"anonymous":false,"inputs":[{"indexed":true,"internalType":"address","name":"verifier","type":"address"},{"indexed":false,"internalType":"uint256","name":"oldScore","type":"uint256"},{"indexed":false,"internalType":"uint256","name":"newScore","type":"uint256"}],"name":"ReputationUpdated","type":"event"},{"anonymous":false,"inputs":[{"indexed":true,"internalType":"bytes32","name":"role","type":"bytes32"},{"indexed":true,"internalType":"bytes32","name":"previousAdminRole","type":"bytes32"},{"indexed":true,"internalType":"bytes32","name":"newAdminRole","type":"bytes32"}],"name":"RoleAdminChanged","type":"event"},{"anonymous":false,"inputs":[{"indexed":true,"internalType":"bytes32","name":"role","type":"bytes32"},{"indexed":true,"internalType":"address","name":"account","type":"address"},{"indexed":true,"internalType":"address","name":"sender","type":"address"}],"name":"RoleGranted","type":"event"},{"anonymous":false,"inputs":[{"indexed":true,"internalType":"bytes32","name":"role","type":"bytes32"},{"indexed":true,"internalType":"address","name":"account","type":"address"},{"indexed":true,"internalType":"address","name":"sender","type":"address"}],"name":"RoleRevoked","type":"event"},{"anonymous":false,"inputs":[{"indexed":false,"internalType":"address","name":"account","type":"address"}],"name":"Unpaused","type":"event"},{"anonymous":false,"inputs":[{"indexed":true,"internalType":"address","name":"implementation","type":"address"}],"name":"Upgraded","type":"event"},{"anonymous":false,"inputs":[{"indexed":true,"internalType":"bytes32","name":"requestId","type":"bytes32"},{"indexed":true,"internalType":"address","name":"verifier","type":"address"},{"indexed":false,"internalType":"bool","name":"successful","type":"bool"},{"indexed":false,"internalType":"uint256","name":"fee","type":"uint256"}],"name":"VerificationCompleted","type":"event"},{"anonymous":false,"inputs":[{"indexed":true,"internalType":"address","name":"verifier","type":"address"},{"indexed":false,"internalType":"string","name":"reason","type":"string"}],"name":"VerifierDeactivated","type":"event"},{"anonymous":false,"inputs":[{"indexed":true,"internalType":"address","name":"verifier","type":"address"},{"indexed":false,"internalType":"uint256","name":"stakedAmount","type":"uint256"},{"indexed":false,"internalType":"string","name":"metadata","type":"string"}],"name":"VerifierRegistered","type":"event"},{"anonymous":false,"inputs":[{"indexed":true,"internalType":"address","name":"verifier","type":"address"},{"indexed":false,"internalType":"uint256","name":"slashedAmount","type":"uint256"},{"indexed":false,"internalType":"string","name":"reason","type":"string"}],"name":"VerifierSlashed","type":"event"},{"anonymous":false,"inputs":[{"indexed":true,"internalType":"address","name":"verifier","type":"address"},{"indexed":false,"internalType":"uint256","name":"additionalAmount","type":"uint256"},{"indexed":false,"internalType":"uint256","name":"totalStake","type":"uint256"}],"name":"VerifierStakeIncreased","type":"event"},{"inputs":[],"name":"ADMIN_ROLE","outputs":[{"internalType":"bytes32","name":"","type":"bytes32"}],"stateMutability":"view","type":"function"},{"inputs":[],"name":"DEFAULT_ADMIN_ROLE","outputs":[{"internalType":"bytes32","name":"","type":"bytes32"}],"stateMutability":"view","type":"function"},{"inputs":[],"name":"SLASHER_ROLE","outputs":[{"internalType":"bytes32","name":"","type":"bytes32"}],"stateMutability":"view","type":"function"},{"inputs":[],"name":"UPGRADER_ROLE","outputs":[{"internalType":"bytes32","name":"","type":"bytes32"}],"stateMutability":"view","type":"function"},{"inputs":[],"name":"baseVerificationFee","outputs":[{"internalType":"uint256","name":"","type":"uint256"}],"stateMutability":"view","type":"function"},{"inputs":[{"internalType":"address","name":"verifier","type":"address"}],"name":"calculateVerificationFee","outputs":[{"internalType":"uint256","name":"fee","type":"uint256"}],"stateMutability":"view","type":"function"},{"inputs":[],"name":"checkInactiveVerifiers","outputs":[],"stateMutability":"nonpayable","type":"function"},{"inputs":[{"internalType":"bytes32","name":"requestId","type":"bytes32"},{"internalType":"address","name":"verifier","type":"address"},{"internalType":"bool","name":"successful","type":"bool"}],"name":"completeVerification","outputs":[],"stateMutability":"nonpayable","type":"function"},{"inputs":[],"name":"emergencyWithdraw","outputs":[],"stateMutability":"nonpayable","type":"function"},{"inputs":[],"name":"getActiveVerifiers","outputs":[{"internalType":"address[]","name":"","type":"address[]"}],"stateMutability":"view","type":"function"},{"inputs":[{"internalType":"bytes32","name":"role","type":"bytes32"}],"name":"getRoleAdmin","outputs":[{"internalType":"bytes32","name":"","type":"bytes32"}],"stateMutability":"view","type":"function"},{"inputs":[{"internalType":"address","name":"verifier","type":"address"}],"name":"getVerifier","outputs":[{"components":[{"internalType":"address","name":"verifierAddress","type":"address"},{"internalType":"uint256","name":"stakedAmount","type":"uint256"},{"internalType":"uint256","name":"reputationScore","type":"uint256"},{"internalType":"uint256","name":"totalVerifications","type":"uint256"},{"internalType":"uint256","name":"successfulVerifications","type":"uint256"},{"internalType":"uint256","name":"lastActivityTimestamp","type":"uint256"},{"internalType":"bool","name":"isActive","type":"bool"},{"internalType":"string","name":"metadata","type":"string"},{"internalType":"uint256","name":"registrationTimestamp","type":"uint256"}],"internalType":"struct VerifierMarketplace.Verifier","name":"","type":"tuple"}],"stateMutability":"view","type":"function"},{"inputs":[{"internalType":"bytes32","name":"role","type":"bytes32"},{"internalType":"address","name":"account","type":"address"}],"name":"grantRole","outputs":[],"stateMutability":"nonpayable","type":"function"},{"inputs":[{"internalType":"bytes32","name":"role","type":"bytes32"},{"internalType":"address","name":"account","type":"address"}],"name":"hasRole","outputs":[{"internalType":"bool","name":"","type":"bool"}],"stateMutability":"view","type":"function"},{"inputs":[],"name":"inactivityThreshold","outputs":[{"internalType":"uint256","name":"","type":"uint256"}],"stateMutability":"view","type":"function"},{"inputs":[],"name":"increaseStake","outputs":[],"stateMutability":"payable","type":"function"},{"inputs":[{"internalType":"address","name":"admin","type":"address"},{"internalType":"uint256","name":"_minimumStake","type":"uint256"},{"internalType":"uint256","name":"_baseVerificationFee","type":"uint256"},{"internalType":"address","name":"_stakingToken","type":"address"}],"name":"initialize","outputs":[],"stateMutability":"nonpayable","type":"function"},{"inputs":[],"name":"minimumStake","outputs":[{"internalType":"uint256","name":"","type":"uint256"}],"stateMutability":"view","type":"function"},{"inputs":[],"name":"pause","outputs":[],"stateMutability":"nonpayable","type":"function"},{"inputs":[],"name":"paused","outputs":[{"internalType":"bool","name":"","type":"bool"}],"stateMutability":"view","type":"function"},{"inputs":[],"name":"proxiableUUID","outputs":[{"internalType":"bytes32","name":"","type":"bytes32"}],"stateMutability":"view","type":"function"},{"inputs":[{"internalType":"string","name":"metadata","type":"string"}],"name":"registerVerifier","outputs":[],"stateMutability":"payable","type":"function"},{"inputs":[{"internalType":"bytes32","name":"role","type":"bytes32"},{"internalType":"address","name":"account","type":"address"}],"name":"renounceRole","outputs":[],"stateMutability":"nonpayable","type":"function"},{"inputs":[],"name":"reputationMultiplier","outputs":[{"internalType":"uint256","name":"","type":"uint256"}],"stateMutability":"view","type":"function"},{"inputs":[{"internalType":"bytes32","name":"role","type":"bytes32"},{"internalType":"address","name":"account","type":"address"}],"name":"revokeRole","outputs":[],"stateMutability":"nonpayable","type":"function"},{"inputs":[{"internalType":"address","name":"verifier","type":"address"},{"internalType":"string","name":"reason","type":"string"}],"name":"slashVerifier","outputs":[],"stateMutability":"nonpayable","type":"function"},{"inputs":[],"name":"slashingPercentage","outputs":[{"internalType":"uint256","name":"","type":"uint256"}],"stateMutability":"view","type":"function"},{"inputs":[],"name":"stakingToken","outputs":[{"internalType":"contract IERC20","name":"","type":"address"}],"stateMutability":"view","type":"function"},{"inputs":[{"internalType":"bytes4","name":"interfaceId","type":"bytes4"}],"name":"supportsInterface","outputs":[{"internalType":"bool","name":"","type":"bool"}],"stateMutability":"view","type":"function"},{"inputs":[],"name":"unpause","outputs":[],"stateMutability":"nonpayable","type":"function"},{"inputs":[{"internalType":"uint256","name":"_baseVerificationFee","type":"uint256"}],"name":"updateBaseVerificationFee","outputs":[],"stateMutability":"nonpayable","type":"function"},{"inputs":[{"internalType":"uint256","name":"_inactivityThreshold","type":"uint256"}],"name":"updateInactivityThreshold","outputs":[],"stateMutability":"nonpayable","type":"function"},{"inputs":[{"internalType":"uint256","name":"_minimumStake","type":"uint256"}],"name":"updateMinimumStake","outputs":[],"stateMutability":"nonpayable","type":"function"},{"inputs":[{"internalType":"uint256","name":"_reputationMultiplier","type":"uint256"}],"name":"updateReputationMultiplier","outputs":[],"stateMutability":"nonpayable","type":"function"},{"inputs":[{"internalType":"uint256","name":"_slashingPercentage","type":"uint256"}],"name":"updateSlashingPercentage","outputs":[],"stateMutability":"nonpayable","type":"function"},{"inputs":[{"internalType":"address","name":"newImplementation","type":"address"}],"name":"upgradeTo","outputs":[],"stateMutability":"nonpayable","type":"function"},{"inputs":[{"internalType":"address","name":"newImplementation","type":"address"},{"internalType":"bytes","name":"data","type":"bytes"}],"name":"upgradeToAndCall","outputs":[],"stateMutability":"payable","type":"function"},{"inputs":[{"internalType":"bytes32","name":"","type":"bytes32"}],"name":"verificationRequests","outputs":[{"internalType":"address","name":"requester","type":"address"},{"internalType":"address","name":"assignedVerifier","type":"address"},{"internalType":"uint256","name":"fee","type":"uint256"},{"internalType":"uint256","name":"timestamp","type":"uint256"},{"internalType":"bool","name":"completed","type":"bool"},{"internalType":"bool","name":"successful","type":"bool"},{"internalType":"string","name":"requestData","type":"string"}],"stateMutability":"view","type":"function"},{"inputs":[{"internalType":"address","name":"","type":"address"}],"name":"verifierEarnings","outputs":[{"internalType":"uint256","name":"","type":"uint256"}],"stateMutability":"view","type":"function"},{"inputs":[{"internalType":"uint256","name":"","type":"uint256"}],"name":"verifierList","outputs":[{"internalType":"address","name":"","type":"address"}],"stateMutability":"view","type":"function"},{"inputs":[{"internalType":"address","name":"","type":"address"}],"name":"verifiers","outputs":[{"internalType":"address","name":"verifierAddress","type":"address"},{"internalType":"uint256","name":"stakedAmount","type":"uint256"},{"internalType":"uint256","name":"reputationScore","type":"uint256"},{"internalType":"uint256","name":"totalVerifications","type":"uint256"},{"internalType":"uint256","name":"successfulVerifications","type":"uint256"},{"internalType":"uint256","name":"lastActivityTimestamp","type":"uint256"},{"internalType":"bool","name":"isActive","type":"bool"},{"internalType":"string","name":"metadata","type":"string"},{"internalType":"uint256","name":"registrationTimestamp","type":"uint256"}],"stateMutability":"view","type":"function"},{"inputs":[],"name":"withdrawEarnings","outputs":[],"stateMutability":"nonpayable","type":"function"},{"stateMutability":"payable","type":"receive"}],"evm":{"bytecode":{"linkReferences":{},"object":"60a08060405234620000e157306080526000549060ff8260081c166200008f575060ff8082160362000053575b6040516137419081620000e782396080518181816116eb015281816118240152611e190152f35b60ff90811916176000557f7f26b83ff96e1f2b6a682f133852f6798a09c465da95921460cefb3847402498602060405160ff8152a1386200002c565b62461bcd60e51b815260206004820152602760248201527f496e697469616c697a61626c653a20636f6e747261637420697320696e697469604482015266616c697a696e6760c81b6064820152608490fd5b600080fdfe6080604081815260049182361015610022575b505050361561002057600080fd5b005b600092833560e01c91826301ffc9a71461286657508163059ce95d1461271f5781630de3e665146126ff5781630f3908c81461266c57816316cb42181461222b578163248a9ca314612200578163267ae0a4146121dd5781632f2ff15d1461214257816336568abe146120b05781633659cfe614611df15781633f4ba83a14611d5b5781633fdd6b4914611bd057816342efe0db14611aca5781634c41e88014611aa75781634f1ef286146117d35781635095af641461179857816352d1902d146116d557816357762ddd146116935781635c975abb1461166f57816369666a491461164f5781636baec215146114b15781636c8244871461140057816372f702f3146113d657816375b238fc1461139b5781638456cb591461134057816391d14854146112f95781639e3d87cd14610f8c5781639ec8627614610f6c578163a217fddf14610f51578163b73c6ce914610dcd578163bb55963e14610dad578163be3f228014610d8a578163cf428f2314610d17578163d547741f14610cd8578163d9e257ef14610aed578163db2e21bc146107ee578163dbda75aa146106a5578163e6db07071461066c578163eb0e604914610649578163ec5ffac214610629578163f65ecc211461023d575063f72c0d8b146102005780610012565b34610239578160031936011261023957602090517f189ab7a9244df0848122154315af71fe140f3db0fe014031783b0946b8c9d2e38152f35b5080fd5b8383346102395780600319360112610239576102576128b9565b906024803567ffffffffffffffff8111610625576102789036908701612a9f565b7f12b42e8a160f6064dc959c6f251e3af0750ad213dbecf573b4710d67d6c28e399491949182875260209260658452858820338952845260ff86892054161561047257506102c461346f565b6102cc6134b3565b60018060a01b031694858752610165918284526102f160ff6006888b2001541661350a565b86885282845261271061030e6001888b20015461016254906131fa565b04988789528385526001878a20016103278b825461354c565b9055878952838552868920600181015461015f5411610401575b508789528385526002878a200154956007870291878304600714881517156103f05750509188996103ce7fbc3a16d342f86683a50b2358b4bdbabb3ec89b9b5ae5293234053997eced1bef938b60028b600a8e9f997f5b88a2e3fc1a53234357ab78c104df11c33ccfa79886793654565ad70b8afb6e9f809b528b8d520492200155895193849384613441565b0390a2858752815260028387200154908351928352820152a2600161012d5580f35b634e487b7160e01b8b526011905289fd5b60060160ff198154169055877f0bb0e736b635387caa7eacd963cb5ebd26d81acc0b84decb6818d7b7277f67e9608089518881526022898201527f5374616b652062656c6f77206d696e696d756d20616674657220736c617368698b820152616e6760f01b6060820152a28a610341565b9395505050949361048233613241565b9183519061048f826129bb565b6042825287820192606036853782511561061357603084538251906001918210156106015790607860218501536041915b8183116105985750505061056a5760486105669593859361054e9361053f975197889376020b1b1b2b9b9a1b7b73a3937b61d1030b1b1b7bab73a1604d1b8d8601526105168d82519283916037890191016128ea565b8401917001034b99036b4b9b9b4b733903937b6329607d1b6037840152518093868401906128ea565b010360288101865201846129d7565b5194859462461bcd60e51b865285015283019061290d565b0390fd5b60648688878188519362461bcd60e51b85528401528201526000805160206136cc8339815191526044820152fd5b909192600f811660108110156105ef576f181899199a1a9b1b9c1cb0b131b232b360811b901a6105c88587613230565b53891c9280156105dd576000190191906104c0565b634e487b7160e01b825260118a528882fd5b634e487b7160e01b835260328b528983fd5b634e487b7160e01b8152603289528790fd5b634e487b7160e01b8152603288528690fd5b8480fd5b50503461023957816003193601126102395760209061015f549051908152f35b83903461023957602036600319011261023957610664612b6d565b356101605580f35b5050346102395760203660031901126102395760209181906001600160a01b036106946128b9565b168152610168845220549051908152f35b8284346107eb5760203660031901126107eb576106c06128b9565b60018060a01b031680825261016590816020526106e560ff600686862001541661350a565b825260205260028282200154926113871984019384136001166107d8576101615484810294600160ff1b91848212838214166107c55781870514901517156107b257612710948590059280841261075d575050506107559060209361074e6101605492836131fa565b0490613223565b905b51908152f35b919490926101605493811461079f576020955061077c908303846131fa565b049050818110610791575060011c5b90610757565b61079a9161354c565b61078b565b634e487b7160e01b835260118652602483fd5b634e487b7160e01b835260118252602483fd5b634e487b7160e01b855260118452602485fd5b634e487b7160e01b825260119052602490fd5b80fd5b905034610ae95782600319360112610ae95782805260209060658252828420338552825260ff838520541615610961576108266134b3565b610164546001600160a01b0316908161086f575050508180808047818115610866575b3390f11561085c57505b600161012d5580f35b51903d90823e3d90fd5b506108fc610849565b83516370a0823160e01b81523082820152908382602481865afa9081156109575784928792610920575b50855163a9059cbb60e01b8152339181019182526020820192909252909283918290889082906040015b03925af1918215610913576108e1935084926108e6575b5050613568565b610853565b6109059250803d1061090c575b6108fd81836129d7565b8101906133e5565b38806108da565b503d6108f3565b50505051903d90823e3d90fd5b8381949293503d8311610950575b61093881836129d7565b8101031261094c57905183916108c3610899565b8580fd5b503d61092e565b85513d88823e3d90fd5b828461096c33613241565b908083519061097a826129bb565b60428252868201926060368537825115610ad65760308453825190600191821015610ac35790607860218501536041915b818311610a5857505050610a29576048610a00938593610a0f93610566975196879376020b1b1b2b9b9a1b7b73a3937b61d1030b1b1b7bab73a1604d1b8c8601526105168c82519283916037890191016128ea565b010360288101855201836129d7565b5193849362461bcd60e51b8552840152602483019061290d565b606485878087519262461bcd60e51b845283015260248201526000805160206136cc8339815191526044820152fd5b909192600f81166010811015610ab0576f181899199a1a9b1b9c1cb0b131b232b360811b901a610a888587613230565b53881c928015610a9d576000190191906109ab565b634e487b7160e01b825260118952602482fd5b634e487b7160e01b835260328a52602483fd5b634e487b7160e01b815260328852602490fd5b634e487b7160e01b815260328752602490fd5b8280fd5b91905082600319360112610ae957610b0361346f565b610b0b6134b3565b3383526101659160209083825260ff600684872001541615610c9757610164546001600160a01b031680610be257503415610ba15750907f8d5e6772da35d0173c64ddb673584aad7e4d8d1be8753288896f7008d012e2929134935b338652808252600183872001610b7e868254613223565b90553386528152600182862001549082519485528401523392a2600161012d5580f35b915162461bcd60e51b815291820181905260248201527f4d7573742073656e64204842415220746f20696e637265617365207374616b656044820152606490fd5b9291909381610c2c95610bf5341561338d565b61015f5485516323b872dd60e01b815233928101928352306020840152604083018290529790968892909183918b91839160600190565b03925af1948515610c8d577f8d5e6772da35d0173c64ddb673584aad7e4d8d1be8753288896f7008d012e2929495610c6b918891610c70575b506133fd565b610b67565b610c879150843d861161090c576108fd81836129d7565b38610c65565b83513d88823e3d90fd5b915162461bcd60e51b815291820152601960248201527f4e6f7420612072656769737465726564207665726966696572000000000000006044820152606490fd5b91905034610ae95780600319360112610ae957610d149135610d0f6001610cfd6128d4565b93838752606560205286200154612e8e565b612f99565b80f35b905034610ae9576020366003190112610ae957803591610d35612b6d565b6113888311610d475750506101625580f35b906020606492519162461bcd60e51b8352820152601c60248201527f536c617368696e672070657263656e7461676520746f6f2068696768000000006044820152fd5b83903461023957602036600319011261023957610da5612b6d565b356101635580f35b505034610239578160031936011261023957602090610161549051908152f35b905034610ae95782600319360112610ae957610de761346f565b610def6134b3565b3383526101689060209082825283852054928315610f0f57338652825283852085905561016454829084906001600160a01b031680610e7a57508680935080925080913382f115610e6e577f48dc35af7b45e2a81fffad55f6e2fafacdb1d3d0d50d24ebdc16324f5ba757f191925b519283523392a2600161012d5580f35b505051903d90823e3d90fd5b865163a9059cbb60e01b8152339481019485526020850192909252909283919082908990829060400103925af1908115610f05577f48dc35af7b45e2a81fffad55f6e2fafacdb1d3d0d50d24ebdc16324f5ba757f1939491610ee3918791610ee8575b50613568565b610e5e565b610eff9150843d861161090c576108fd81836129d7565b38610edd565b84513d87823e3d90fd5b5060649184519162461bcd60e51b8352820152601760248201527f4e6f206561726e696e677320746f2077697468647261770000000000000000006044820152fd5b50503461023957816003193601126102395751908152602090f35b505034610239578160031936011261023957602090610163549051908152f35b905034610ae9576080366003190112610ae957610fa76128b9565b6001600160a01b03916064358381169081900361094c5785549260ff90818560081c1615938480956112ed575b80156112d7575b1561127d575060ff1980861660019081178a55958561126c575b5061103a838a5460081c166110098161332d565b6110128161332d565b61101b8161332d565b826097541660975561102c8161332d565b6110358161332d565b61332d565b8561012d558880526065602097818952898b20931692838b52885283898b20541615611239575b7fa49807205ce4d355092ef5a8a18f56e8913cf4a201fbe287825b095693c21775808b52818952898b20848c528952848a8c20541615611205575b507f189ab7a9244df0848122154315af71fe140f3db0fe014031783b0946b8c9d2e3808b52818952898b20848c528952848a8c205416156111d1575b507f12b42e8a160f6064dc959c6f251e3af0750ad213dbecf573b4710d67d6c28e3993848b52818952898b20848c528952898b2054161561119c575b5050505060243561015f5560443561016055611388610161556103e86101625562278d006101635580611182575b5061114b578380f35b7f7f26b83ff96e1f2b6a682f133852f6798a09c465da95921460cefb38474024989261ff0019855416855551908152a13880808380f35b61016480546001600160a01b031916909117905538611142565b838a528752878920828a52875285888a209182541617905533916000805160206136ac8339815191528980a438808080611114565b808b52818952898b20848c528952898b2088848254161790558333916000805160206136ac8339815191528d80a4386110d8565b808b52818952898b20848c528952898b2088848254161790558333916000805160206136ac8339815191528d80a43861109c565b898052808852888a20838b528852888a20878382541617905533838b6000805160206136ac8339815191528180a4611061565b61ffff191661010117895538610ff5565b608490602089519162461bcd60e51b8352820152602e60248201527f496e697469616c697a61626c653a20636f6e747261637420697320616c72656160448201526d191e481a5b9a5d1a585b1a5e995960921b6064820152fd5b50303b158015610fdb5750600183871614610fdb565b50600183871610610fd4565b905034610ae95781600319360112610ae9578160209360ff9261131a6128d4565b90358252606586528282206001600160a01b039091168252855220549151911615158152f35b50503461023957816003193601126102395760207f62e78cea01bee320cd4e420270b5ea74000d11b0c9f74754ebdbfc544b05a2589161137e612b6d565b61138661346f565b600160ff19609754161760975551338152a180f35b505034610239578160031936011261023957602090517fa49807205ce4d355092ef5a8a18f56e8913cf4a201fbe287825b095693c217758152f35b5050346102395781600319360112610239576101645490516001600160a01b039091168152602090f35b838334610239576020366003190112610239576001600160a01b03916114a69082908461142b6128b9565b16815261016560205220928354169260018101549460028201549060038301549083015460058401549160ff60068601541693600861146c600788016129f9565b9601549780519a8b9a8b5260208b01528901526060880152608087015260a0860152151560c08501526101208060e086015284019061290d565b906101008301520390f35b905082346107eb57806003193601126107eb576101665492919080805b8581106115ee57506114f76114e2826135a6565b916114ef865193846129d7565b8083526135a6565b6020958287019491601f190136863783805b828210611558575050505083519485948186019282875251809352850193925b82811061153857505050500390f35b83516001600160a01b031685528695509381019392810192600101611529565b61156782999695979899612b20565b60018060a01b03809254600392831b1c168752610165885260ff60068c89200154166115a6575b50509061159a90613559565b90979695939497611509565b6115af84612b20565b9054911b1c1687518210156115db57816115d4918861159a9460051b8b010152613559565b908a61158e565b634e487b7160e01b865260328552602486fd5b6115fd81969392949596612b20565b905460039190911b1c6001600160a01b031682526101656020528582206006015460ff1661163a575b61162f90613559565b9493929091946114ce565b9261164761162f91613559565b939050611626565b505034610239578160031936011261023957602090610162549051908152f35b50503461023957816003193601126102395760209060ff6097541690519015158152f35b905034610ae9576020366003190112610ae9573591610166548310156107eb57506116bf602092612b20565b905491519160018060a01b039160031b1c168152f35b905082346107eb57806003193601126107eb57507f00000000000000000000000000000000000000000000000000000000000000006001600160a01b0316300361173057602082516000805160206136ec8339815191528152f35b6020608492519162461bcd60e51b8352820152603860248201527f555550535570677261646561626c653a206d757374206e6f742062652063616c60448201527f6c6564207468726f7567682064656c656761746563616c6c00000000000000006064820152fd5b505034610239578160031936011261023957602090517f12b42e8a160f6064dc959c6f251e3af0750ad213dbecf573b4710d67d6c28e398152f35b91809150600319360112610ae9576117e96128b9565b9060243567ffffffffffffffff811161062557366023820112156106255761181a9036906024818701359101612ae9565b6001600160a01b037f000000000000000000000000000000000000000000000000000000000000000081169291906118543085141561300f565b6118716000805160206136ec833981519152948286541614613070565b611879612d49565b7f4910fdfa16fed3260ed0e7147f7cc6da11a60208b5b9406d12a635614ffd91435460ff16156118b15750505050610d1491506130d1565b82516352d1902d60e01b81526020959394918416919086818981865afa899181611a74575b5061193557855162461bcd60e51b8152808901889052602e60248201527f45524331393637557067726164653a206e657720696d706c656d656e7461746960448201526d6f6e206973206e6f74205555505360901b6064820152608490fd5b9691929594939603611a1f575061194b856130d1565b7fbc7cd75a20ee27fd9adebab32041f755214dbc6bffa90cc0225b39da2e5c2d3b8680a2825115801590611a17575b611986575b5050505080f35b611a039385808351956119988761299f565b602787527f416464726573733a206c6f772d6c6576656c2064656c65676174652063616c6c86880152660819985a5b195960ca1b858801528581519101845af4913d15611a0d573d6119f56119ec82612acd565b925192836129d7565b81528681943d92013e613161565b503880808061197f565b5060609250613161565b50600161197a565b825162461bcd60e51b8152908101849052602960248201527f45524331393637557067726164653a20756e737570706f727465642070726f786044820152681a58589b195555525160ba1b6064820152608490fd5b9091508781813d8311611aa0575b611a8c81836129d7565b81010312611a9c575190386118d6565b8980fd5b503d611a82565b83903461023957602036600319011261023957611ac2612b6d565b3561015f5580f35b505034610239578160031936011261023957611ae4612b6d565b815b61016654811015611bcc5780611afe611b3d92612b20565b60018060a01b0391549060031b1c168085526101656020908082528587209160069260ff84820154169081611bb2575b50611b42575b50505050613559565b611ae6565b7f0bb0e736b635387caa7eacd963cb5ebd26d81acc0b84decb6818d7b7277f67e992606092858a5282528789200160ff198154169055601d8751918083528201527f496e6163746976697479207468726573686f6c6420657863656564656400000087820152a238808080611b34565b611bc19150600501544261354c565b610163541038611b2e565b8280f35b91905034610ae9576060366003190112610ae957813590611bef6128d4565b9260443580151591828203611d5757611c06612b6d565b611c0e61346f565b60018060a01b0386169586885261016591602093838552611c3760ff6006898d2001541661350a565b878a526101679384865260ff83898d20015416611d145791879695949391611ccf9360037fb48e6a2cde5d6737db899ca96abf738de637e170d6e1bc4837e601531521e5979a8e8e8e8252898b52868383200160018d61ff0083549160081b169061ffff1916171790558152838a522001611cb28154613559565b90558b8d528652878c2090426005830155611d00575b50506135be565b858852815260028388200154908688526101688152838820611cf2838254613223565b90558351928352820152a380f35b01611d0b8154613559565b90553880611cc8565b875162461bcd60e51b8152808401879052601e60248201527f566572696669636174696f6e20616c726561647920636f6d706c6574656400006044820152606490fd5b8680fd5b905034610ae95782600319360112610ae957611d75612b6d565b6097549060ff821615611db7575060ff1916609755513381527f5db9ee0a495bf2e6ff9c91a7834c1ba4fdd244a5e8aa4e537bd38aeae4b073aa90602090a180f35b606490602084519162461bcd60e51b8352820152601460248201527314185d5cd8589b194e881b9bdd081c185d5cd95960621b6044820152fd5b91905034610ae9576020806003193601126120ac57611e0e6128b9565b916001600160a01b037f00000000000000000000000000000000000000000000000000000000000000008116611e463082141561300f565b611e636000805160206136ec833981519152918383541614613070565b611e6b612d49565b8251908482019282841067ffffffffffffffff851117612099578385528883527f4910fdfa16fed3260ed0e7147f7cc6da11a60208b5b9406d12a635614ffd91435460ff1615611ec557505050505050610d1491506130d1565b869293949596169085516352d1902d60e01b815287818a81865afa8a9181612066575b50611f4757865162461bcd60e51b8152808a01899052602e60248201527f45524331393637557067726164653a206e657720696d706c656d656e7461746960448201526d6f6e206973206e6f74205555505360901b6064820152608490fd5b9791929396959497036120115750611f5e826130d1565b7fbc7cd75a20ee27fd9adebab32041f755214dbc6bffa90cc0225b39da2e5c2d3b8780a28584511580159061200a575b611f9c575b50505050505080f35b80611ffe96845196611fad8861299f565b602788527f416464726573733a206c6f772d6c6576656c2064656c65676174652063616c6c87890152660819985a5b195960ca1b868901525190845af4913d15611a0d573d6119f56119ec82612acd565b50388080808085611f93565b5080611f8e565b835162461bcd60e51b8152908101859052602960248201527f45524331393637557067726164653a20756e737570706f727465642070726f786044820152681a58589b195555525160ba1b6064820152608490fd5b9091508881813d8311612092575b61207e81836129d7565b8101031261208e57519038611ee8565b8a80fd5b503d612074565b634e487b7160e01b895260418852602489fd5b8380fd5b839150346102395782600319360112610239576120cb6128d4565b90336001600160a01b038316036120e75790610d149135612f99565b608490602085519162461bcd60e51b8352820152602f60248201527f416363657373436f6e74726f6c3a2063616e206f6e6c792072656e6f756e636560448201526e103937b632b9903337b91039b2b63360891b6064820152fd5b905034610ae95781600319360112610ae957359061215e6128d4565b90828452606560205261217660018286200154612e8e565b828452606560209081528185206001600160a01b039093168086529290528084205460ff16156121a4578380f35b82845260656020528084208285526020528320600160ff1982541617905533916000805160206136ac8339815191528480a43880808380f35b839034610239576020366003190112610239576121f8612b6d565b356101615580f35b905034610ae9576020366003190112610ae95781602093600192358152606585522001549051908152f35b8360208436600319018213610ae95767ffffffffffffffff8435818111610625576122599036908701612a9f565b92909161226461346f565b61226c6134b3565b338652610165855260ff60068388200154166126295783156125e657610164546001600160a01b03919082168061255e575061015f54341061251b5734955b8351916122b78361296c565b3383528782840152611388858401528860608401528860808401524260a0840152600160c08401526122ea368888612ae9565b60e08401908152610100840191428352338b526101658452868b2094868151166bffffffffffffffffffffffff60a01b8754161786558481015160018701558781015160028701556060810151600387015560808101518d87015560a0810151600587015560c060068701910151151560ff8019835416911617905560078501915180519182116125085761237f8354612932565b601f81116124c0575b5084908c601f84116001146124545760089650919083612449575b50508160011b916000199060031b1c19161790555b5191015561016680549068010000000000000000821015612436579161240b8261242a9460017ff0734b98dfc7770549b33ca5c3f377b6fd40ebbfb8f6d7e39aee74fd5b3530de99989795019055612b20565b819291549060031b9133831b921b191617905551928392339684613441565b0390a2600161012d5580f35b634e487b7160e01b885260418952602488fd5b015190508d806123a3565b92939495601f1985169086855280852094905b8282106124a85750509160019391856008989796941061248f575b505050811b0190556123b8565b015160001960f88460031b161c191690558d8080612482565b80600186978294978701518155019601940190612467565b838d52858d20601f840160051c8101918785106124fe575b601f0160051c01908d905b8281106124f1575050612388565b6001918155018d906124e3565b90915081906124d8565b634e487b7160e01b8c5260418d5260248cfd5b825162461bcd60e51b8152808901879052601960248201527f496e73756666696369656e74207374616b6520616d6f756e74000000000000006044820152606490fd5b95612569341561338d565b61015f5484516323b872dd60e01b815233818c0190815230602082015260408101839052919890918391839182908d90829060600103925af19081156125dc57906125ba918a916125bf57506133fd565b6122ab565b6125d69150833d851161090c576108fd81836129d7565b8b610c65565b85513d8b823e3d90fd5b815162461bcd60e51b8152808801869052601860248201527f4d657461646174612063616e6e6f7420626520656d70747900000000000000006044820152606490fd5b815162461bcd60e51b8152808801869052601e60248201527f416c7265616479207265676973746572656420617320766572696669657200006044820152606490fd5b8284346107eb5760203660031901126107eb57816126fb9184358152610167602052209160ff60018060a01b039384815416946001820154169560028201546126c0600560038501549385015494016129f9565b9480519889988952602089015287015260608601528181161515608086015260081c16151560a084015260e060c084015260e083019061290d565b0390f35b505034610239578160031936011261023957602090610160549051908152f35b83833461023957602091826003193601126107eb5761285c61273f6128b9565b948380519361274d8561296c565b808552808786015280828601528060608601528060808601528060a08601528060c0860152606060e0860152806101008096015260018060a01b038098168152610165875220845196879586936127a38561296c565b8284541685526001840154918986019283526002850154908087019182526003860154926060880193845286015493608088019485528b60058801549660a08a019788528b600860ff60068c0154169a60c08d019b15158c5260e061280a600783016129f9565b9d019c8d5201549d019c8d5283519e8f9e8f525116908d015251908b01525160608a01525160808901525160a08801525160c087015251151560e086015251610120809386015261014085019061290d565b9151908301520390f35b849134610ae9576020366003190112610ae9573563ffffffff60e01b8116809103610ae95760209250637965db0b60e01b81149081156128a8575b5015158152f35b6301ffc9a760e01b149050836128a1565b600435906001600160a01b03821682036128cf57565b600080fd5b602435906001600160a01b03821682036128cf57565b60005b8381106128fd5750506000910152565b81810151838201526020016128ed565b90602091612926815180928185528580860191016128ea565b601f01601f1916010190565b90600182811c92168015612962575b602083101461294c57565b634e487b7160e01b600052602260045260246000fd5b91607f1691612941565b610120810190811067ffffffffffffffff82111761298957604052565b634e487b7160e01b600052604160045260246000fd5b6060810190811067ffffffffffffffff82111761298957604052565b6080810190811067ffffffffffffffff82111761298957604052565b90601f8019910116810190811067ffffffffffffffff82111761298957604052565b9060405191826000825492612a0d84612932565b908184526001948581169081600014612a7c5750600114612a39575b5050612a37925003836129d7565b565b9093915060005260209081600020936000915b818310612a64575050612a3793508201013880612a29565b85548884018501529485019487945091830191612a4c565b915050612a3794506020925060ff191682840152151560051b8201013880612a29565b9181601f840112156128cf5782359167ffffffffffffffff83116128cf57602083818601950101116128cf57565b67ffffffffffffffff811161298957601f01601f191660200190565b929192612af582612acd565b91612b0360405193846129d7565b8294818452818301116128cf578281602093846000960137010152565b6101668054821015612b57576000527fa5a4c57b7184ec73d55be4993773cb4eef681bc86a28d0285cd66efb50676a970190600090565b634e487b7160e01b600052603260045260246000fd5b3360009081527f2c01dc0041dfb6d4238a91e5a638996136aed16f837d5beb45610732cf9bf4b0602090815260408083205490927fa49807205ce4d355092ef5a8a18f56e8913cf4a201fbe287825b095693c217759160ff1615612bd15750505050565b612bda33613241565b91845190612be7826129bb565b60428252848201926060368537825115612d355760308453825190600191821015612d355790607860218501536041915b818311612cc757505050612c97576048610566938693612c7b93612c6c985198899376020b1b1b2b9b9a1b7b73a3937b61d1030b1b1b7bab73a1604d1b8a860152610516815180928c6037890191016128ea565b010360288101875201856129d7565b5192839262461bcd60e51b84526004840152602483019061290d565b60648486519062461bcd60e51b825280600483015260248201526000805160206136cc8339815191526044820152fd5b909192600f81166010811015612d21576f181899199a1a9b1b9c1cb0b131b232b360811b901a612cf78587613230565b5360041c928015612d0d57600019019190612c18565b634e487b7160e01b82526011600452602482fd5b634e487b7160e01b83526032600452602483fd5b634e487b7160e01b81526032600452602490fd5b3360009081527f61c6261e6978331c793eee420d743e773864e0ec05cc862750e423d64f73e9f6602090815260408083205490927f189ab7a9244df0848122154315af71fe140f3db0fe014031783b0946b8c9d2e39160ff1615612dad5750505050565b612db633613241565b91845190612dc3826129bb565b60428252848201926060368537825115612d355760308453825190600191821015612d355790607860218501536041915b818311612e4857505050612c97576048610566938693612c7b93612c6c985198899376020b1b1b2b9b9a1b7b73a3937b61d1030b1b1b7bab73a1604d1b8a860152610516815180928c6037890191016128ea565b909192600f81166010811015612d21576f181899199a1a9b1b9c1cb0b131b232b360811b901a612e788587613230565b5360041c928015612d0d57600019019190612df4565b60009080825260209060658252604092838120338252835260ff848220541615612eb85750505050565b612ec133613241565b91845190612ece826129bb565b60428252848201926060368537825115612d355760308453825190600191821015612d355790607860218501536041915b818311612f5357505050612c97576048610566938693612c7b93612c6c985198899376020b1b1b2b9b9a1b7b73a3937b61d1030b1b1b7bab73a1604d1b8a860152610516815180928c6037890191016128ea565b909192600f81166010811015612d21576f181899199a1a9b1b9c1cb0b131b232b360811b901a612f838587613230565b5360041c928015612d0d57600019019190612eff565b906000918083526065602052604083209160018060a01b03169182845260205260ff604084205416612fca57505050565b8083526065602052604083208284526020526040832060ff1981541690557ff6391f5c32d9c69d2a47ea670b442974b53935d1edc7fd64eb21e047a839171b339380a4565b1561301657565b60405162461bcd60e51b815260206004820152602c60248201527f46756e6374696f6e206d7573742062652063616c6c6564207468726f7567682060448201526b19195b1959d85d1958d85b1b60a21b6064820152608490fd5b1561307757565b60405162461bcd60e51b815260206004820152602c60248201527f46756e6374696f6e206d7573742062652063616c6c6564207468726f7567682060448201526b6163746976652070726f787960a01b6064820152608490fd5b803b15613106576000805160206136ec83398151915280546001600160a01b0319166001600160a01b03909216919091179055565b60405162461bcd60e51b815260206004820152602d60248201527f455243313936373a206e657720696d706c656d656e746174696f6e206973206e60448201526c1bdd08184818dbdb9d1c9858dd609a1b6064820152608490fd5b919290156131c35750815115613175575090565b3b1561317e5790565b60405162461bcd60e51b815260206004820152601d60248201527f416464726573733a2063616c6c20746f206e6f6e2d636f6e74726163740000006044820152606490fd5b8251909150156131d65750805190602001fd5b60405162461bcd60e51b81526020600482015290819061056690602483019061290d565b8181029291811591840414171561320d57565b634e487b7160e01b600052601160045260246000fd5b9190820180921161320d57565b908151811015612b57570160200190565b6040519061324e8261299f565b602a8252602082016040368237825115612b5757603090538151600190811015612b5757607860218401536029905b8082116132bf57505061328d5790565b606460405162461bcd60e51b815260206004820152602060248201526000805160206136cc8339815191526044820152fd5b9091600f81166010811015613318576f181899199a1a9b1b9c1cb0b131b232b360811b901a6132ee8486613230565b5360041c91801561330357600019019061327d565b60246000634e487b7160e01b81526011600452fd5b60246000634e487b7160e01b81526032600452fd5b1561333457565b60405162461bcd60e51b815260206004820152602b60248201527f496e697469616c697a61626c653a20636f6e7472616374206973206e6f74206960448201526a6e697469616c697a696e6760a81b6064820152608490fd5b1561339457565b60405162461bcd60e51b8152602060048201526024808201527f4e6f206e61746976652063757272656e637920666f7220746f6b656e207374616044820152636b696e6760e01b6064820152608490fd5b908160209103126128cf575180151581036128cf5790565b1561340457565b60405162461bcd60e51b815260206004820152601560248201527414dd185ad9481d1c985b9cd9995c8819985a5b1959605a1b6044820152606490fd5b91926060938192845260406020850152816040850152848401376000828201840152601f01601f1916010190565b60ff6097541661347b57565b60405162461bcd60e51b815260206004820152601060248201526f14185d5cd8589b194e881c185d5cd95960821b6044820152606490fd5b61012d60028154146134c55760029055565b60405162461bcd60e51b815260206004820152601f60248201527f5265656e7472616e637947756172643a207265656e7472616e742063616c6c006044820152606490fd5b1561351157565b60405162461bcd60e51b81526020600482015260136024820152725665726966696572206e6f742061637469766560681b6044820152606490fd5b9190820391821161320d57565b600019811461320d5760010190565b1561356f57565b60405162461bcd60e51b815260206004820152600f60248201526e151c985b9cd9995c8819985a5b1959608a1b6044820152606490fd5b67ffffffffffffffff81116129895760051b60200190565b6001600160a01b0316600081815261016560208190526040822060038101546004820154909392909184156136a3576002015493612710928381029080820485149015171561368f5704600785028581046007148615171561368f5760038202918083046003149015171561368f5791600a6136607f5b88a2e3fc1a53234357ab78c104df11c33ccfa79886793654565ad70b8afb6e97959360409795613223565b0491808311613687575b5084836002928985965260205220015582519182526020820152a2565b91508461366a565b634e487b7160e01b85526011600452602485fd5b50505050505056fe2f8788117e7eff1d82e926ec794901d17c78024a50270940304540a733656f0d537472696e67733a20686578206c656e67746820696e73756666696369656e74360894a13ba1a3210667c828492db98dca3e2076cc3735a920a3ca505d382bbca26469706673582212204142bf74d3a0593d58c222ba4ef93fab2caae91c7363c145c8c479a0e8d5141a64736f6c63430008130033","opcodes":"PUSH1 0xA0 DUP1 PUSH1 0x40 MSTORE CALLVALUE PUSH3 0xE1 JUMPI ADDRESS PUSH1 0x80 MSTORE PUSH1 0x0 SLOAD SWAP1 PUSH1 0xFF DUP3 PUSH1 0x8 SHR AND PUSH3 0x8F JUMPI POP PUSH1 0xFF DUP1 DUP3 AND SUB PUSH3 0x53 JUMPI JUMPDEST PUSH1 0x40 MLOAD PUSH2 0x3741 SWAP1 DUP2 PUSH3 0xE7 DUP3 CODECOPY PUSH1 0x80 MLOAD DUP2 DUP2 DUP2 PUSH2 0x16EB ADD MSTORE DUP2 DUP2 PUSH2 0x1824 ADD MSTORE PUSH2 0x1E19 ADD MSTORE RETURN JUMPDEST PUSH1 0xFF SWAP1 DUP2 NOT AND OR PUSH1 0x0 SSTORE PUSH32 0x7F26B83FF96E1F2B6A682F133852F6798A09C465DA95921460CEFB3847402498 PUSH1 0x20 PUSH1 0x40 MLOAD PUSH1 0xFF DUP2 MSTORE LOG1 CODESIZE PUSH3 0x2C JUMP JUMPDEST PUSH3 0x461BCD PUSH1 0xE5 SHL DUP2 MSTORE PUSH1 0x20 PUSH1 0x4 DUP3 ADD MSTORE PUSH1 0x27 PUSH1 0x24 DUP3 ADD MSTORE PUSH32 0x496E697469616C697A61626C653A20636F6E747261637420697320696E697469 PUSH1 0x44 DUP3 ADD MSTORE PUSH7 0x616C697A696E67 PUSH1 0xC8 SHL PUSH1 0x64 DUP3 ADD MSTORE PUSH1 0x84 SWAP1 REVERT JUMPDEST PUSH1 0x0 DUP1 REVERT INVALID PUSH1 0x80 PUSH1 0x40 DUP2 DUP2 MSTORE PUSH1 0x4 SWAP2 DUP3 CALLDATASIZE LT ISZERO PUSH2 0x22 JUMPI JUMPDEST POP POP POP CALLDATASIZE ISZERO PUSH2 0x20 JUMPI PUSH1 0x0 DUP1 REVERT JUMPDEST STOP JUMPDEST PUSH1 0x0 SWAP3 DUP4 CALLDATALOAD PUSH1 0xE0 SHR SWAP2 DUP3 PUSH4 0x1FFC9A7 EQ PUSH2 0x2866 JUMPI POP DUP2 PUSH4 0x59CE95D EQ PUSH2 0x271F JUMPI DUP2 PUSH4 0xDE3E665 EQ PUSH2 0x26FF JUMPI DUP2 PUSH4 0xF3908C8 EQ PUSH2 0x266C JUMPI DUP2 PUSH4 0x16CB4218 EQ PUSH2 0x222B JUMPI DUP2 PUSH4 0x248A9CA3 EQ PUSH2 0x2200 JUMPI DUP2 PUSH4 0x267AE0A4 EQ PUSH2 0x21DD JUMPI DUP2 PUSH4 0x2F2FF15D EQ PUSH2 0x2142 JUMPI DUP2 PUSH4 0x36568ABE EQ PUSH2 0x20B0 JUMPI DUP2 PUSH4 0x3659CFE6 EQ PUSH2 0x1DF1 JUMPI DUP2 PUSH4 0x3F4BA83A EQ PUSH2 0x1D5B JUMPI DUP2 PUSH4 0x3FDD6B49 EQ PUSH2 0x1BD0 JUMPI DUP2 PUSH4 0x42EFE0DB EQ PUSH2 0x1ACA JUMPI DUP2 PUSH4 0x4C41E880 EQ PUSH2 0x1AA7 JUMPI DUP2 PUSH4 0x4F1EF286 EQ PUSH2 0x17D3 JUMPI DUP2 PUSH4 0x5095AF64 EQ PUSH2 0x1798 JUMPI DUP2 PUSH4 0x52D1902D EQ PUSH2 0x16D5 JUMPI DUP2 PUSH4 0x57762DDD EQ PUSH2 0x1693 JUMPI DUP2 PUSH4 0x5C975ABB EQ PUSH2 0x166F JUMPI DUP2 PUSH4 0x69666A49 EQ PUSH2 0x164F JUMPI DUP2 PUSH4 0x6BAEC215 EQ PUSH2 0x14B1 JUMPI DUP2 PUSH4 0x6C824487 EQ PUSH2 0x1400 JUMPI DUP2 PUSH4 0x72F702F3 EQ PUSH2 0x13D6 JUMPI DUP2 PUSH4 0x75B238FC EQ PUSH2 0x139B JUMPI DUP2 PUSH4 0x8456CB59 EQ PUSH2 0x1340 JUMPI DUP2 PUSH4 0x91D14854 EQ PUSH2 0x12F9 JUMPI DUP2 PUSH4 0x9E3D87CD EQ PUSH2 0xF8C JUMPI DUP2 PUSH4 0x9EC86276 EQ PUSH2 0xF6C JUMPI DUP2 PUSH4 0xA217FDDF EQ PUSH2 0xF51 JUMPI DUP2 PUSH4 0xB73C6CE9 EQ PUSH2 0xDCD JUMPI DUP2 PUSH4 0xBB55963E EQ PUSH2 0xDAD JUMPI DUP2 PUSH4 0xBE3F2280 EQ PUSH2 0xD8A JUMPI DUP2 PUSH4 0xCF428F23 EQ PUSH2 0xD17 JUMPI DUP2 PUSH4 0xD547741F EQ PUSH2 0xCD8 JUMPI DUP2 PUSH4 0xD9E257EF EQ PUSH2 0xAED JUMPI DUP2 PUSH4 0xDB2E21BC EQ PUSH2 0x7EE JUMPI DUP2 PUSH4 0xDBDA75AA EQ PUSH2 0x6A5 JUMPI DUP2 PUSH4 0xE6DB0707 EQ PUSH2 0x66C JUMPI DUP2 PUSH4 0xEB0E6049 EQ PUSH2 0x649 JUMPI DUP2 PUSH4 0xEC5FFAC2 EQ PUSH2 0x629 JUMPI DUP2 PUSH4 0xF65ECC21 EQ PUSH2 0x23D JUMPI POP PUSH4 0xF72C0D8B EQ PUSH2 0x200 JUMPI DUP1 PUSH2 0x12 JUMP JUMPDEST CALLVALUE PUSH2 0x239 JUMPI DUP2 PUSH1 0x3 NOT CALLDATASIZE ADD SLT PUSH2 0x239 JUMPI PUSH1 0x20 SWAP1 MLOAD PUSH32 0x189AB7A9244DF0848122154315AF71FE140F3DB0FE014031783B0946B8C9D2E3 DUP2 MSTORE RETURN JUMPDEST POP DUP1 REVERT JUMPDEST DUP4 DUP4 CALLVALUE PUSH2 0x239 JUMPI DUP1 PUSH1 0x3 NOT CALLDATASIZE ADD SLT PUSH2 0x239 JUMPI PUSH2 0x257 PUSH2 0x28B9 JUMP JUMPDEST SWAP1 PUSH1 0x24 DUP1 CALLDATALOAD PUSH8 0xFFFFFFFFFFFFFFFF DUP2 GT PUSH2 0x625 JUMPI PUSH2 0x278 SWAP1 CALLDATASIZE SWAP1 DUP8 ADD PUSH2 0x2A9F JUMP JUMPDEST PUSH32 0x12B42E8A160F6064DC959C6F251E3AF0750AD213DBECF573B4710D67D6C28E39 SWAP5 SWAP2 SWAP5 SWAP2 DUP3 DUP8 MSTORE PUSH1 0x20 SWAP3 PUSH1 0x65 DUP5 MSTORE DUP6 DUP9 KECCAK256 CALLER DUP10 MSTORE DUP5 MSTORE PUSH1 0xFF DUP7 DUP10 KECCAK256 SLOAD AND ISZERO PUSH2 0x472 JUMPI POP PUSH2 0x2C4 PUSH2 0x346F JUMP JUMPDEST PUSH2 0x2CC PUSH2 0x34B3 JUMP JUMPDEST PUSH1 0x1 DUP1 PUSH1 0xA0 SHL SUB AND SWAP5 DUP6 DUP8 MSTORE PUSH2 0x165 SWAP2 DUP3 DUP5 MSTORE PUSH2 0x2F1 PUSH1 0xFF PUSH1 0x6 DUP9 DUP12 KECCAK256 ADD SLOAD AND PUSH2 0x350A JUMP JUMPDEST DUP7 DUP9 MSTORE DUP3 DUP5 MSTORE PUSH2 0x2710 PUSH2 0x30E PUSH1 0x1 DUP9 DUP12 KECCAK256 ADD SLOAD PUSH2 0x162 SLOAD SWAP1 PUSH2 0x31FA JUMP JUMPDEST DIV SWAP9 DUP8 DUP10 MSTORE DUP4 DUP6 MSTORE PUSH1 0x1 DUP8 DUP11 KECCAK256 ADD PUSH2 0x327 DUP12 DUP3 SLOAD PUSH2 0x354C JUMP JUMPDEST SWAP1 SSTORE DUP8 DUP10 MSTORE DUP4 DUP6 MSTORE DUP7 DUP10 KECCAK256 PUSH1 0x1 DUP2 ADD SLOAD PUSH2 0x15F SLOAD GT PUSH2 0x401 JUMPI JUMPDEST POP DUP8 DUP10 MSTORE DUP4 DUP6 MSTORE PUSH1 0x2 DUP8 DUP11 KECCAK256 ADD SLOAD SWAP6 PUSH1 0x7 DUP8 MUL SWAP2 DUP8 DUP4 DIV PUSH1 0x7 EQ DUP9 ISZERO OR ISZERO PUSH2 0x3F0 JUMPI POP POP SWAP2 DUP9 SWAP10 PUSH2 0x3CE PUSH32 0xBC3A16D342F86683A50B2358B4BDBABB3EC89B9B5AE5293234053997ECED1BEF SWAP4 DUP12 PUSH1 0x2 DUP12 PUSH1 0xA DUP15 SWAP16 SWAP10 PUSH32 0x5B88A2E3FC1A53234357AB78C104DF11C33CCFA79886793654565AD70B8AFB6E SWAP16 DUP1 SWAP12 MSTORE DUP12 DUP14 MSTORE DIV SWAP3 KECCAK256 ADD SSTORE DUP10 MLOAD SWAP4 DUP5 SWAP4 DUP5 PUSH2 0x3441 JUMP JUMPDEST SUB SWAP1 LOG2 DUP6 DUP8 MSTORE DUP2 MSTORE PUSH1 0x2 DUP4 DUP8 KECCAK256 ADD SLOAD SWAP1 DUP4 MLOAD SWAP3 DUP4 MSTORE DUP3 ADD MSTORE LOG2 PUSH1 0x1 PUSH2 0x12D SSTORE DUP1 RETURN JUMPDEST PUSH4 0x4E487B71 PUSH1 0xE0 SHL DUP12 MSTORE PUSH1 0x11 SWAP1 MSTORE DUP10 REVERT JUMPDEST PUSH1 0x6 ADD PUSH1 0xFF NOT DUP2 SLOAD AND SWAP1 SSTORE DUP8 PUSH32 0xBB0E736B635387CAA7EACD963CB5EBD26D81ACC0B84DECB6818D7B7277F67E9 PUSH1 0x80 DUP10 MLOAD DUP9 DUP2 MSTORE PUSH1 0x22 DUP10 DUP3 ADD MSTORE PUSH32 0x5374616B652062656C6F77206D696E696D756D20616674657220736C61736869 DUP12 DUP3 ADD MSTORE PUSH2 0x6E67 PUSH1 0xF0 SHL PUSH1 0x60 DUP3 ADD MSTORE LOG2 DUP11 PUSH2 0x341 JUMP JUMPDEST SWAP4 SWAP6 POP POP POP SWAP5 SWAP4 PUSH2 0x482 CALLER PUSH2 0x3241 JUMP JUMPDEST SWAP2 DUP4 MLOAD SWAP1 PUSH2 0x48F DUP3 PUSH2 0x29BB JUMP JUMPDEST PUSH1 0x42 DUP3 MSTORE DUP8 DUP3 ADD SWAP3 PUSH1 0x60 CALLDATASIZE DUP6 CALLDATACOPY DUP3 MLOAD ISZERO PUSH2 0x613 JUMPI PUSH1 0x30 DUP5 MSTORE8 DUP3 MLOAD SWAP1 PUSH1 0x1 SWAP2 DUP3 LT ISZERO PUSH2 0x601 JUMPI SWAP1 PUSH1 0x78 PUSH1 0x21 DUP6 ADD MSTORE8 PUSH1 0x41 SWAP2 JUMPDEST DUP2 DUP4 GT PUSH2 0x598 JUMPI POP POP POP PUSH2 0x56A JUMPI PUSH1 0x48 PUSH2 0x566 SWAP6 SWAP4 DUP6 SWAP4 PUSH2 0x54E SWAP4 PUSH2 0x53F SWAP8 MLOAD SWAP8 DUP9 SWAP4 PUSH23 0x20B1B1B2B9B9A1B7B73A3937B61D1030B1B1B7BAB73A1 PUSH1 0x4D SHL DUP14 DUP7 ADD MSTORE PUSH2 0x516 DUP14 DUP3 MLOAD SWAP3 DUP4 SWAP2 PUSH1 0x37 DUP10 ADD SWAP2 ADD PUSH2 0x28EA JUMP JUMPDEST DUP5 ADD SWAP2 PUSH17 0x1034B99036B4B9B9B4B733903937B6329 PUSH1 0x7D SHL PUSH1 0x37 DUP5 ADD MSTORE MLOAD DUP1 SWAP4 DUP7 DUP5 ADD SWAP1 PUSH2 0x28EA JUMP JUMPDEST ADD SUB PUSH1 0x28 DUP2 ADD DUP7 MSTORE ADD DUP5 PUSH2 0x29D7 JUMP JUMPDEST MLOAD SWAP5 DUP6 SWAP5 PUSH3 0x461BCD PUSH1 0xE5 SHL DUP7 MSTORE DUP6 ADD MSTORE DUP4 ADD SWAP1 PUSH2 0x290D JUMP JUMPDEST SUB SWAP1 REVERT JUMPDEST PUSH1 0x64 DUP7 DUP9 DUP8 DUP2 DUP9 MLOAD SWAP4 PUSH3 0x461BCD PUSH1 0xE5 SHL DUP6 MSTORE DUP5 ADD MSTORE DUP3 ADD MSTORE PUSH1 0x0 DUP1 MLOAD PUSH1 0x20 PUSH2 0x36CC DUP4 CODECOPY DUP2 MLOAD SWAP2 MSTORE PUSH1 0x44 DUP3 ADD MSTORE REVERT JUMPDEST SWAP1 SWAP2 SWAP3 PUSH1 0xF DUP2 AND PUSH1 0x10 DUP2 LT ISZERO PUSH2 0x5EF JUMPI PUSH16 0x181899199A1A9B1B9C1CB0B131B232B3 PUSH1 0x81 SHL SWAP1 BYTE PUSH2 0x5C8 DUP6 DUP8 PUSH2 0x3230 JUMP JUMPDEST MSTORE8 DUP10 SHR SWAP3 DUP1 ISZERO PUSH2 0x5DD JUMPI PUSH1 0x0 NOT ADD SWAP2 SWAP1 PUSH2 0x4C0 JUMP JUMPDEST PUSH4 0x4E487B71 PUSH1 0xE0 SHL DUP3 MSTORE PUSH1 0x11 DUP11 MSTORE DUP9 DUP3 REVERT JUMPDEST PUSH4 0x4E487B71 PUSH1 0xE0 SHL DUP4 MSTORE PUSH1 0x32 DUP12 MSTORE DUP10 DUP4 REVERT JUMPDEST PUSH4 0x4E487B71 PUSH1 0xE0 SHL DUP2 MSTORE PUSH1 0x32 DUP10 MSTORE DUP8 SWAP1 REVERT JUMPDEST PUSH4 0x4E487B71 PUSH1 0xE0 SHL DUP2 MSTORE PUSH1 0x32 DUP9 MSTORE DUP7 SWAP1 REVERT JUMPDEST DUP5 DUP1 REVERT JUMPDEST POP POP CALLVALUE PUSH2 0x239 JUMPI DUP2 PUSH1 0x3 NOT CALLDATASIZE ADD SLT PUSH2 0x239 JUMPI PUSH1 0x20 SWAP1 PUSH2 0x15F SLOAD SWAP1 MLOAD SWAP1 DUP2 MSTORE RETURN JUMPDEST DUP4 SWAP1 CALLVALUE PUSH2 0x239 JUMPI PUSH1 0x20 CALLDATASIZE PUSH1 0x3 NOT ADD SLT PUSH2 0x239 JUMPI PUSH2 0x664 PUSH2 0x2B6D JUMP JUMPDEST CALLDATALOAD PUSH2 0x160 SSTORE DUP1 RETURN JUMPDEST POP POP CALLVALUE PUSH2 0x239 JUMPI PUSH1 0x20 CALLDATASIZE PUSH1 0x3 NOT ADD SLT PUSH2 0x239 JUMPI PUSH1 0x20 SWAP2 DUP2 SWAP1 PUSH1 0x1 PUSH1 0x1 PUSH1 0xA0 SHL SUB PUSH2 0x694 PUSH2 0x28B9 JUMP JUMPDEST AND DUP2 MSTORE PUSH2 0x168 DUP5 MSTORE KECCAK256 SLOAD SWAP1 MLOAD SWAP1 DUP2 MSTORE RETURN JUMPDEST DUP3 DUP5 CALLVALUE PUSH2 0x7EB JUMPI PUSH1 0x20 CALLDATASIZE PUSH1 0x3 NOT ADD SLT PUSH2 0x7EB JUMPI PUSH2 0x6C0 PUSH2 0x28B9 JUMP JUMPDEST PUSH1 0x1 DUP1 PUSH1 0xA0 SHL SUB AND DUP1 DUP3 MSTORE PUSH2 0x165 SWAP1 DUP2 PUSH1 0x20 MSTORE PUSH2 0x6E5 PUSH1 0xFF PUSH1 0x6 DUP7 DUP7 KECCAK256 ADD SLOAD AND PUSH2 0x350A JUMP JUMPDEST DUP3 MSTORE PUSH1 0x20 MSTORE PUSH1 0x2 DUP3 DUP3 KECCAK256 ADD SLOAD SWAP3 PUSH2 0x1387 NOT DUP5 ADD SWAP4 DUP5 SGT PUSH1 0x1 AND PUSH2 0x7D8 JUMPI PUSH2 0x161 SLOAD DUP5 DUP2 MUL SWAP5 PUSH1 0x1 PUSH1 0xFF SHL SWAP2 DUP5 DUP3 SLT DUP4 DUP3 EQ AND PUSH2 0x7C5 JUMPI DUP2 DUP8 SDIV EQ SWAP1 ISZERO OR ISZERO PUSH2 0x7B2 JUMPI PUSH2 0x2710 SWAP5 DUP6 SWAP1 SDIV SWAP3 DUP1 DUP5 SLT PUSH2 0x75D JUMPI POP POP POP PUSH2 0x755 SWAP1 PUSH1 0x20 SWAP4 PUSH2 0x74E PUSH2 0x160 SLOAD SWAP3 DUP4 PUSH2 0x31FA JUMP JUMPDEST DIV SWAP1 PUSH2 0x3223 JUMP JUMPDEST SWAP1 JUMPDEST MLOAD SWAP1 DUP2 MSTORE RETURN JUMPDEST SWAP2 SWAP5 SWAP1 SWAP3 PUSH2 0x160 SLOAD SWAP4 DUP2 EQ PUSH2 0x79F JUMPI PUSH1 0x20 SWAP6 POP PUSH2 0x77C SWAP1 DUP4 SUB DUP5 PUSH2 0x31FA JUMP JUMPDEST DIV SWAP1 POP DUP2 DUP2 LT PUSH2 0x791 JUMPI POP PUSH1 0x1 SHR JUMPDEST SWAP1 PUSH2 0x757 JUMP JUMPDEST PUSH2 0x79A SWAP2 PUSH2 0x354C JUMP JUMPDEST PUSH2 0x78B JUMP JUMPDEST PUSH4 0x4E487B71 PUSH1 0xE0 SHL DUP4 MSTORE PUSH1 0x11 DUP7 MSTORE PUSH1 0x24 DUP4 REVERT JUMPDEST PUSH4 0x4E487B71 PUSH1 0xE0 SHL DUP4 MSTORE PUSH1 0x11 DUP3 MSTORE PUSH1 0x24 DUP4 REVERT JUMPDEST PUSH4 0x4E487B71 PUSH1 0xE0 SHL DUP6 MSTORE PUSH1 0x11 DUP5 MSTORE PUSH1 0x24 DUP6 REVERT JUMPDEST PUSH4 0x4E487B71 PUSH1 0xE0 SHL DUP3 MSTORE PUSH1 0x11 SWAP1 MSTORE PUSH1 0x24 SWAP1 REVERT JUMPDEST DUP1 REVERT JUMPDEST SWAP1 POP CALLVALUE PUSH2 0xAE9 JUMPI DUP3 PUSH1 0x3 NOT CALLDATASIZE ADD SLT PUSH2 0xAE9 JUMPI DUP3 DUP1 MSTORE PUSH1 0x20 SWAP1 PUSH1 0x65 DUP3 MSTORE DUP3 DUP5 KECCAK256 CALLER DUP6 MSTORE DUP3 MSTORE PUSH1 0xFF DUP4 DUP6 KECCAK256 SLOAD AND ISZERO PUSH2 0x961 JUMPI PUSH2 0x826 PUSH2 0x34B3 JUMP JUMPDEST PUSH2 0x164 SLOAD PUSH1 0x1 PUSH1 0x1 PUSH1 0xA0 SHL SUB AND SWAP1 DUP2 PUSH2 0x86F JUMPI POP POP POP DUP2 DUP1 DUP1 DUP1 SELFBALANCE DUP2 DUP2 ISZERO PUSH2 0x866 JUMPI JUMPDEST CALLER SWAP1 CALL ISZERO PUSH2 0x85C JUMPI POP JUMPDEST PUSH1 0x1 PUSH2 0x12D SSTORE DUP1 RETURN JUMPDEST MLOAD SWAP1 RETURNDATASIZE SWAP1 DUP3 RETURNDATACOPY RETURNDATASIZE SWAP1 REVERT JUMPDEST POP PUSH2 0x8FC PUSH2 0x849 JUMP JUMPDEST DUP4 MLOAD PUSH4 0x70A08231 PUSH1 0xE0 SHL DUP2 MSTORE ADDRESS DUP3 DUP3 ADD MSTORE SWAP1 DUP4 DUP3 PUSH1 0x24 DUP2 DUP7 GAS STATICCALL SWAP1 DUP2 ISZERO PUSH2 0x957 JUMPI DUP5 SWAP3 DUP8 SWAP3 PUSH2 0x920 JUMPI JUMPDEST POP DUP6 MLOAD PUSH4 0xA9059CBB PUSH1 0xE0 SHL DUP2 MSTORE CALLER SWAP2 DUP2 ADD SWAP2 DUP3 MSTORE PUSH1 0x20 DUP3 ADD SWAP3 SWAP1 SWAP3 MSTORE SWAP1 SWAP3 DUP4 SWAP2 DUP3 SWAP1 DUP9 SWAP1 DUP3 SWAP1 PUSH1 0x40 ADD JUMPDEST SUB SWAP3 GAS CALL SWAP2 DUP3 ISZERO PUSH2 0x913 JUMPI PUSH2 0x8E1 SWAP4 POP DUP5 SWAP3 PUSH2 0x8E6 JUMPI JUMPDEST POP POP PUSH2 0x3568 JUMP JUMPDEST PUSH2 0x853 JUMP JUMPDEST PUSH2 0x905 SWAP3 POP DUP1 RETURNDATASIZE LT PUSH2 0x90C JUMPI JUMPDEST PUSH2 0x8FD DUP2 DUP4 PUSH2 0x29D7 JUMP JUMPDEST DUP2 ADD SWAP1 PUSH2 0x33E5 JUMP JUMPDEST CODESIZE DUP1 PUSH2 0x8DA JUMP JUMPDEST POP RETURNDATASIZE PUSH2 0x8F3 JUMP JUMPDEST POP POP POP MLOAD SWAP1 RETURNDATASIZE SWAP1 DUP3 RETURNDATACOPY RETURNDATASIZE SWAP1 REVERT JUMPDEST DUP4 DUP2 SWAP5 SWAP3 SWAP4 POP RETURNDATASIZE DUP4 GT PUSH2 0x950 JUMPI JUMPDEST PUSH2 0x938 DUP2 DUP4 PUSH2 0x29D7 JUMP JUMPDEST DUP2 ADD SUB SLT PUSH2 0x94C JUMPI SWAP1 MLOAD DUP4 SWAP2 PUSH2 0x8C3 PUSH2 0x899 JUMP JUMPDEST DUP6 DUP1 REVERT JUMPDEST POP RETURNDATASIZE PUSH2 0x92E JUMP JUMPDEST DUP6 MLOAD RETURNDATASIZE DUP9 DUP3 RETURNDATACOPY RETURNDATASIZE SWAP1 REVERT JUMPDEST DUP3 DUP5 PUSH2 0x96C CALLER PUSH2 0x3241 JUMP JUMPDEST SWAP1 DUP1 DUP4 MLOAD SWAP1 PUSH2 0x97A DUP3 PUSH2 0x29BB JUMP JUMPDEST PUSH1 0x42 DUP3 MSTORE DUP7 DUP3 ADD SWAP3 PUSH1 0x60 CALLDATASIZE DUP6 CALLDATACOPY DUP3 MLOAD ISZERO PUSH2 0xAD6 JUMPI PUSH1 0x30 DUP5 MSTORE8 DUP3 MLOAD SWAP1 PUSH1 0x1 SWAP2 DUP3 LT ISZERO PUSH2 0xAC3 JUMPI SWAP1 PUSH1 0x78 PUSH1 0x21 DUP6 ADD MSTORE8 PUSH1 0x41 SWAP2 JUMPDEST DUP2 DUP4 GT PUSH2 0xA58 JUMPI POP POP POP PUSH2 0xA29 JUMPI PUSH1 0x48 PUSH2 0xA00 SWAP4 DUP6 SWAP4 PUSH2 0xA0F SWAP4 PUSH2 0x566 SWAP8 MLOAD SWAP7 DUP8 SWAP4 PUSH23 0x20B1B1B2B9B9A1B7B73A3937B61D1030B1B1B7BAB73A1 PUSH1 0x4D SHL DUP13 DUP7 ADD MSTORE PUSH2 0x516 DUP13 DUP3 MLOAD SWAP3 DUP4 SWAP2 PUSH1 0x37 DUP10 ADD SWAP2 ADD PUSH2 0x28EA JUMP JUMPDEST ADD SUB PUSH1 0x28 DUP2 ADD DUP6 MSTORE ADD DUP4 PUSH2 0x29D7 JUMP JUMPDEST MLOAD SWAP4 DUP5 SWAP4 PUSH3 0x461BCD PUSH1 0xE5 SHL DUP6 MSTORE DUP5 ADD MSTORE PUSH1 0x24 DUP4 ADD SWAP1 PUSH2 0x290D JUMP JUMPDEST PUSH1 0x64 DUP6 DUP8 DUP1 DUP8 MLOAD SWAP3 PUSH3 0x461BCD PUSH1 0xE5 SHL DUP5 MSTORE DUP4 ADD MSTORE PUSH1 0x24 DUP3 ADD MSTORE PUSH1 0x0 DUP1 MLOAD PUSH1 0x20 PUSH2 0x36CC DUP4 CODECOPY DUP2 MLOAD SWAP2 MSTORE PUSH1 0x44 DUP3 ADD MSTORE REVERT JUMPDEST SWAP1 SWAP2 SWAP3 PUSH1 0xF DUP2 AND PUSH1 0x10 DUP2 LT ISZERO PUSH2 0xAB0 JUMPI PUSH16 0x181899199A1A9B1B9C1CB0B131B232B3 PUSH1 0x81 SHL SWAP1 BYTE PUSH2 0xA88 DUP6 DUP8 PUSH2 0x3230 JUMP JUMPDEST MSTORE8 DUP9 SHR SWAP3 DUP1 ISZERO PUSH2 0xA9D JUMPI PUSH1 0x0 NOT ADD SWAP2 SWAP1 PUSH2 0x9AB JUMP JUMPDEST PUSH4 0x4E487B71 PUSH1 0xE0 SHL DUP3 MSTORE PUSH1 0x11 DUP10 MSTORE PUSH1 0x24 DUP3 REVERT JUMPDEST PUSH4 0x4E487B71 PUSH1 0xE0 SHL DUP4 MSTORE PUSH1 0x32 DUP11 MSTORE PUSH1 0x24 DUP4 REVERT JUMPDEST PUSH4 0x4E487B71 PUSH1 0xE0 SHL DUP2 MSTORE PUSH1 0x32 DUP9 MSTORE PUSH1 0x24 SWAP1 REVERT JUMPDEST PUSH4 0x4E487B71 PUSH1 0xE0 SHL DUP2 MSTORE PUSH1 0x32 DUP8 MSTORE PUSH1 0x24 SWAP1 REVERT JUMPDEST DUP3 DUP1 REVERT JUMPDEST SWAP2 SWAP1 POP DUP3 PUSH1 0x3 NOT CALLDATASIZE ADD SLT PUSH2 0xAE9 JUMPI PUSH2 0xB03 PUSH2 0x346F JUMP JUMPDEST PUSH2 0xB0B PUSH2 0x34B3 JUMP JUMPDEST CALLER DUP4 MSTORE PUSH2 0x165 SWAP2 PUSH1 0x20 SWAP1 DUP4 DUP3 MSTORE PUSH1 0xFF PUSH1 0x6 DUP5 DUP8 KECCAK256 ADD SLOAD AND ISZERO PUSH2 0xC97 JUMPI PUSH2 0x164 SLOAD PUSH1 0x1 PUSH1 0x1 PUSH1 0xA0 SHL SUB AND DUP1 PUSH2 0xBE2 JUMPI POP CALLVALUE ISZERO PUSH2 0xBA1 JUMPI POP SWAP1 PUSH32 0x8D5E6772DA35D0173C64DDB673584AAD7E4D8D1BE8753288896F7008D012E292 SWAP2 CALLVALUE SWAP4 JUMPDEST CALLER DUP7 MSTORE DUP1 DUP3 MSTORE PUSH1 0x1 DUP4 DUP8 KECCAK256 ADD PUSH2 0xB7E DUP7 DUP3 SLOAD PUSH2 0x3223 JUMP JUMPDEST SWAP1 SSTORE CALLER DUP7 MSTORE DUP2 MSTORE PUSH1 0x1 DUP3 DUP7 KECCAK256 ADD SLOAD SWAP1 DUP3 MLOAD SWAP5 DUP6 MSTORE DUP5 ADD MSTORE CALLER SWAP3 LOG2 PUSH1 0x1 PUSH2 0x12D SSTORE DUP1 RETURN JUMPDEST SWAP2 MLOAD PUSH3 0x461BCD PUSH1 0xE5 SHL DUP2 MSTORE SWAP2 DUP3 ADD DUP2 SWAP1 MSTORE PUSH1 0x24 DUP3 ADD MSTORE PUSH32 0x4D7573742073656E64204842415220746F20696E637265617365207374616B65 PUSH1 0x44 DUP3 ADD MSTORE PUSH1 0x64 SWAP1 REVERT JUMPDEST SWAP3 SWAP2 SWAP1 SWAP4 DUP2 PUSH2 0xC2C SWAP6 PUSH2 0xBF5 CALLVALUE ISZERO PUSH2 0x338D JUMP JUMPDEST PUSH2 0x15F SLOAD DUP6 MLOAD PUSH4 0x23B872DD PUSH1 0xE0 SHL DUP2 MSTORE CALLER SWAP3 DUP2 ADD SWAP3 DUP4 MSTORE ADDRESS PUSH1 0x20 DUP5 ADD MSTORE PUSH1 0x40 DUP4 ADD DUP3 SWAP1 MSTORE SWAP8 SWAP1 SWAP7 DUP9 SWAP3 SWAP1 SWAP2 DUP4 SWAP2 DUP12 SWAP2 DUP4 SWAP2 PUSH1 0x60 ADD SWAP1 JUMP JUMPDEST SUB SWAP3 GAS CALL SWAP5 DUP6 ISZERO PUSH2 0xC8D JUMPI PUSH32 0x8D5E6772DA35D0173C64DDB673584AAD7E4D8D1BE8753288896F7008D012E292 SWAP5 SWAP6 PUSH2 0xC6B SWAP2 DUP9 SWAP2 PUSH2 0xC70 JUMPI JUMPDEST POP PUSH2 0x33FD JUMP JUMPDEST PUSH2 0xB67 JUMP JUMPDEST PUSH2 0xC87 SWAP2 POP DUP5 RETURNDATASIZE DUP7 GT PUSH2 0x90C JUMPI PUSH2 0x8FD DUP2 DUP4 PUSH2 0x29D7 JUMP JUMPDEST CODESIZE PUSH2 0xC65 JUMP JUMPDEST DUP4 MLOAD RETURNDATASIZE DUP9 DUP3 RETURNDATACOPY RETURNDATASIZE SWAP1 REVERT JUMPDEST SWAP2 MLOAD PUSH3 0x461BCD PUSH1 0xE5 SHL DUP2 MSTORE SWAP2 DUP3 ADD MSTORE PUSH1 0x19 PUSH1 0x24 DUP3 ADD MSTORE PUSH32 0x4E6F742061207265676973746572656420766572696669657200000000000000 PUSH1 0x44 DUP3 ADD MSTORE PUSH1 0x64 SWAP1 REVERT JUMPDEST SWAP2 SWAP1 POP CALLVALUE PUSH2 0xAE9 JUMPI DUP1 PUSH1 0x3 NOT CALLDATASIZE ADD SLT PUSH2 0xAE9 JUMPI PUSH2 0xD14 SWAP2 CALLDATALOAD PUSH2 0xD0F PUSH1 0x1 PUSH2 0xCFD PUSH2 0x28D4 JUMP JUMPDEST SWAP4 DUP4 DUP8 MSTORE PUSH1 0x65 PUSH1 0x20 MSTORE DUP7 KECCAK256 ADD SLOAD PUSH2 0x2E8E JUMP JUMPDEST PUSH2 0x2F99 JUMP JUMPDEST DUP1 RETURN JUMPDEST SWAP1 POP CALLVALUE PUSH2 0xAE9 JUMPI PUSH1 0x20 CALLDATASIZE PUSH1 0x3 NOT ADD SLT PUSH2 0xAE9 JUMPI DUP1 CALLDATALOAD SWAP2 PUSH2 0xD35 PUSH2 0x2B6D JUMP JUMPDEST PUSH2 0x1388 DUP4 GT PUSH2 0xD47 JUMPI POP POP PUSH2 0x162 SSTORE DUP1 RETURN JUMPDEST SWAP1 PUSH1 0x20 PUSH1 0x64 SWAP3 MLOAD SWAP2 PUSH3 0x461BCD PUSH1 0xE5 SHL DUP4 MSTORE DUP3 ADD MSTORE PUSH1 0x1C PUSH1 0x24 DUP3 ADD MSTORE PUSH32 0x536C617368696E672070657263656E7461676520746F6F206869676800000000 PUSH1 0x44 DUP3 ADD MSTORE REVERT JUMPDEST DUP4 SWAP1 CALLVALUE PUSH2 0x239 JUMPI PUSH1 0x20 CALLDATASIZE PUSH1 0x3 NOT ADD SLT PUSH2 0x239 JUMPI PUSH2 0xDA5 PUSH2 0x2B6D JUMP JUMPDEST CALLDATALOAD PUSH2 0x163 SSTORE DUP1 RETURN JUMPDEST POP POP CALLVALUE PUSH2 0x239 JUMPI DUP2 PUSH1 0x3 NOT CALLDATASIZE ADD SLT PUSH2 0x239 JUMPI PUSH1 0x20 SWAP1 PUSH2 0x161 SLOAD SWAP1 MLOAD SWAP1 DUP2 MSTORE RETURN JUMPDEST SWAP1 POP CALLVALUE PUSH2 0xAE9 JUMPI DUP3 PUSH1 0x3 NOT CALLDATASIZE ADD SLT PUSH2 0xAE9 JUMPI PUSH2 0xDE7 PUSH2 0x346F JUMP JUMPDEST PUSH2 0xDEF PUSH2 0x34B3 JUMP JUMPDEST CALLER DUP4 MSTORE PUSH2 0x168 SWAP1 PUSH1 0x20 SWAP1 DUP3 DUP3 MSTORE DUP4 DUP6 KECCAK256 SLOAD SWAP3 DUP4 ISZERO PUSH2 0xF0F JUMPI CALLER DUP7 MSTORE DUP3 MSTORE DUP4 DUP6 KECCAK256 DUP6 SWAP1 SSTORE PUSH2 0x164 SLOAD DUP3 SWAP1 DUP5 SWAP1 PUSH1 0x1 PUSH1 0x1 PUSH1 0xA0 SHL SUB AND DUP1 PUSH2 0xE7A JUMPI POP DUP7 DUP1 SWAP4 POP DUP1 SWAP3 POP DUP1 SWAP2 CALLER DUP3 CALL ISZERO PUSH2 0xE6E JUMPI PUSH32 0x48DC35AF7B45E2A81FFFAD55F6E2FAFACDB1D3D0D50D24EBDC16324F5BA757F1 SWAP2 SWAP3 JUMPDEST MLOAD SWAP3 DUP4 MSTORE CALLER SWAP3 LOG2 PUSH1 0x1 PUSH2 0x12D SSTORE DUP1 RETURN JUMPDEST POP POP MLOAD SWAP1 RETURNDATASIZE SWAP1 DUP3 RETURNDATACOPY RETURNDATASIZE SWAP1 REVERT JUMPDEST DUP7 MLOAD PUSH4 0xA9059CBB PUSH1 0xE0 SHL DUP2 MSTORE CALLER SWAP5 DUP2 ADD SWAP5 DUP6 MSTORE PUSH1 0x20 DUP6 ADD SWAP3 SWAP1 SWAP3 MSTORE SWAP1 SWAP3 DUP4 SWAP2 SWAP1 DUP3 SWAP1 DUP10 SWAP1 DUP3 SWAP1 PUSH1 0x40 ADD SUB SWAP3 GAS CALL SWAP1 DUP2 ISZERO PUSH2 0xF05 JUMPI PUSH32 0x48DC35AF7B45E2A81FFFAD55F6E2FAFACDB1D3D0D50D24EBDC16324F5BA757F1 SWAP4 SWAP5 SWAP2 PUSH2 0xEE3 SWAP2 DUP8 SWAP2 PUSH2 0xEE8 JUMPI JUMPDEST POP PUSH2 0x3568 JUMP JUMPDEST PUSH2 0xE5E JUMP JUMPDEST PUSH2 0xEFF SWAP2 POP DUP5 RETURNDATASIZE DUP7 GT PUSH2 0x90C JUMPI PUSH2 0x8FD DUP2 DUP4 PUSH2 0x29D7 JUMP JUMPDEST CODESIZE PUSH2 0xEDD JUMP JUMPDEST DUP5 MLOAD RETURNDATASIZE DUP8 DUP3 RETURNDATACOPY RETURNDATASIZE SWAP1 REVERT JUMPDEST POP PUSH1 0x64 SWAP2 DUP5 MLOAD SWAP2 PUSH3 0x461BCD PUSH1 0xE5 SHL DUP4 MSTORE DUP3 ADD MSTORE PUSH1 0x17 PUSH1 0x24 DUP3 ADD MSTORE PUSH32 0x4E6F206561726E696E677320746F207769746864726177000000000000000000 PUSH1 0x44 DUP3 ADD MSTORE REVERT JUMPDEST POP POP CALLVALUE PUSH2 0x239 JUMPI DUP2 PUSH1 0x3 NOT CALLDATASIZE ADD SLT PUSH2 0x239 JUMPI MLOAD SWAP1 DUP2 MSTORE PUSH1 0x20 SWAP1 RETURN JUMPDEST POP POP CALLVALUE PUSH2 0x239 JUMPI DUP2 PUSH1 0x3 NOT CALLDATASIZE ADD SLT PUSH2 0x239 JUMPI PUSH1 0x20 SWAP1 PUSH2 0x163 SLOAD SWAP1 MLOAD SWAP1 DUP2 MSTORE RETURN JUMPDEST SWAP1 POP CALLVALUE PUSH2 0xAE9 JUMPI PUSH1 0x80 CALLDATASIZE PUSH1 0x3 NOT ADD SLT PUSH2 0xAE9 JUMPI PUSH2 0xFA7 PUSH2 0x28B9 JUMP JUMPDEST PUSH1 0x1 PUSH1 0x1 PUSH1 0xA0 SHL SUB SWAP2 PUSH1 0x64 CALLDATALOAD DUP4 DUP2 AND SWAP1 DUP2 SWAP1 SUB PUSH2 0x94C JUMPI DUP6 SLOAD SWAP3 PUSH1 0xFF SWAP1 DUP2 DUP6 PUSH1 0x8 SHR AND ISZERO SWAP4 DUP5 DUP1 SWAP6 PUSH2 0x12ED JUMPI JUMPDEST DUP1 ISZERO PUSH2 0x12D7 JUMPI JUMPDEST ISZERO PUSH2 0x127D JUMPI POP PUSH1 0xFF NOT DUP1 DUP7 AND PUSH1 0x1 SWAP1 DUP2 OR DUP11 SSTORE SWAP6 DUP6 PUSH2 0x126C JUMPI JUMPDEST POP PUSH2 0x103A DUP4 DUP11 SLOAD PUSH1 0x8 SHR AND PUSH2 0x1009 DUP2 PUSH2 0x332D JUMP JUMPDEST PUSH2 0x1012 DUP2 PUSH2 0x332D JUMP JUMPDEST PUSH2 0x101B DUP2 PUSH2 0x332D JUMP JUMPDEST DUP3 PUSH1 0x97 SLOAD AND PUSH1 0x97 SSTORE PUSH2 0x102C DUP2 PUSH2 0x332D JUMP JUMPDEST PUSH2 0x1035 DUP2 PUSH2 0x332D JUMP JUMPDEST PUSH2 0x332D JUMP JUMPDEST DUP6 PUSH2 0x12D SSTORE DUP9 DUP1 MSTORE PUSH1 0x65 PUSH1 0x20 SWAP8 DUP2 DUP10 MSTORE DUP10 DUP12 KECCAK256 SWAP4 AND SWAP3 DUP4 DUP12 MSTORE DUP9 MSTORE DUP4 DUP10 DUP12 KECCAK256 SLOAD AND ISZERO PUSH2 0x1239 JUMPI JUMPDEST PUSH32 0xA49807205CE4D355092EF5A8A18F56E8913CF4A201FBE287825B095693C21775 DUP1 DUP12 MSTORE DUP2 DUP10 MSTORE DUP10 DUP12 KECCAK256 DUP5 DUP13 MSTORE DUP10 MSTORE DUP5 DUP11 DUP13 KECCAK256 SLOAD AND ISZERO PUSH2 0x1205 JUMPI JUMPDEST POP PUSH32 0x189AB7A9244DF0848122154315AF71FE140F3DB0FE014031783B0946B8C9D2E3 DUP1 DUP12 MSTORE DUP2 DUP10 MSTORE DUP10 DUP12 KECCAK256 DUP5 DUP13 MSTORE DUP10 MSTORE DUP5 DUP11 DUP13 KECCAK256 SLOAD AND ISZERO PUSH2 0x11D1 JUMPI JUMPDEST POP PUSH32 0x12B42E8A160F6064DC959C6F251E3AF0750AD213DBECF573B4710D67D6C28E39 SWAP4 DUP5 DUP12 MSTORE DUP2 DUP10 MSTORE DUP10 DUP12 KECCAK256 DUP5 DUP13 MSTORE DUP10 MSTORE DUP10 DUP12 KECCAK256 SLOAD AND ISZERO PUSH2 0x119C JUMPI JUMPDEST POP POP POP POP PUSH1 0x24 CALLDATALOAD PUSH2 0x15F SSTORE PUSH1 0x44 CALLDATALOAD PUSH2 0x160 SSTORE PUSH2 0x1388 PUSH2 0x161 SSTORE PUSH2 0x3E8 PUSH2 0x162 SSTORE PUSH3 0x278D00 PUSH2 0x163 SSTORE DUP1 PUSH2 0x1182 JUMPI JUMPDEST POP PUSH2 0x114B JUMPI DUP4 DUP1 RETURN JUMPDEST PUSH32 0x7F26B83FF96E1F2B6A682F133852F6798A09C465DA95921460CEFB3847402498 SWAP3 PUSH2 0xFF00 NOT DUP6 SLOAD AND DUP6 SSTORE MLOAD SWAP1 DUP2 MSTORE LOG1 CODESIZE DUP1 DUP1 DUP4 DUP1 RETURN JUMPDEST PUSH2 0x164 DUP1 SLOAD PUSH1 0x1 PUSH1 0x1 PUSH1 0xA0 SHL SUB NOT AND SWAP1 SWAP2 OR SWAP1 SSTORE CODESIZE PUSH2 0x1142 JUMP JUMPDEST DUP4 DUP11 MSTORE DUP8 MSTORE DUP8 DUP10 KECCAK256 DUP3 DUP11 MSTORE DUP8 MSTORE DUP6 DUP9 DUP11 KECCAK256 SWAP2 DUP3 SLOAD AND OR SWAP1 SSTORE CALLER SWAP2 PUSH1 0x0 DUP1 MLOAD PUSH1 0x20 PUSH2 0x36AC DUP4 CODECOPY DUP2 MLOAD SWAP2 MSTORE DUP10 DUP1 LOG4 CODESIZE DUP1 DUP1 DUP1 PUSH2 0x1114 JUMP JUMPDEST DUP1 DUP12 MSTORE DUP2 DUP10 MSTORE DUP10 DUP12 KECCAK256 DUP5 DUP13 MSTORE DUP10 MSTORE DUP10 DUP12 KECCAK256 DUP9 DUP5 DUP3 SLOAD AND OR SWAP1 SSTORE DUP4 CALLER SWAP2 PUSH1 0x0 DUP1 MLOAD PUSH1 0x20 PUSH2 0x36AC DUP4 CODECOPY DUP2 MLOAD SWAP2 MSTORE DUP14 DUP1 LOG4 CODESIZE PUSH2 0x10D8 JUMP JUMPDEST DUP1 DUP12 MSTORE DUP2 DUP10 MSTORE DUP10 DUP12 KECCAK256 DUP5 DUP13 MSTORE DUP10 MSTORE DUP10 DUP12 KECCAK256 DUP9 DUP5 DUP3 SLOAD AND OR SWAP1 SSTORE DUP4 CALLER SWAP2 PUSH1 0x0 DUP1 MLOAD PUSH1 0x20 PUSH2 0x36AC DUP4 CODECOPY DUP2 MLOAD SWAP2 MSTORE DUP14 DUP1 LOG4 CODESIZE PUSH2 0x109C JUMP JUMPDEST DUP10 DUP1 MSTORE DUP1 DUP9 MSTORE DUP9 DUP11 KECCAK256 DUP4 DUP12 MSTORE DUP9 MSTORE DUP9 DUP11 KECCAK256 DUP8 DUP4 DUP3 SLOAD AND OR SWAP1 SSTORE CALLER DUP4 DUP12 PUSH1 0x0 DUP1 MLOAD PUSH1 0x20 PUSH2 0x36AC DUP4 CODECOPY DUP2 MLOAD SWAP2 MSTORE DUP2 DUP1 LOG4 PUSH2 0x1061 JUMP JUMPDEST PUSH2 0xFFFF NOT AND PUSH2 0x101 OR DUP10 SSTORE CODESIZE PUSH2 0xFF5 JUMP JUMPDEST PUSH1 0x84 SWAP1 PUSH1 0x20 DUP10 MLOAD SWAP2 PUSH3 0x461BCD PUSH1 0xE5 SHL DUP4 MSTORE DUP3 ADD MSTORE PUSH1 0x2E PUSH1 0x24 DUP3 ADD MSTORE PUSH32 0x496E697469616C697A61626C653A20636F6E747261637420697320616C726561 PUSH1 0x44 DUP3 ADD MSTORE PUSH14 0x191E481A5B9A5D1A585B1A5E9959 PUSH1 0x92 SHL PUSH1 0x64 DUP3 ADD MSTORE REVERT JUMPDEST POP ADDRESS EXTCODESIZE ISZERO DUP1 ISZERO PUSH2 0xFDB JUMPI POP PUSH1 0x1 DUP4 DUP8 AND EQ PUSH2 0xFDB JUMP JUMPDEST POP PUSH1 0x1 DUP4 DUP8 AND LT PUSH2 0xFD4 JUMP JUMPDEST SWAP1 POP CALLVALUE PUSH2 0xAE9 JUMPI DUP2 PUSH1 0x3 NOT CALLDATASIZE ADD SLT PUSH2 0xAE9 JUMPI DUP2 PUSH1 0x20 SWAP4 PUSH1 0xFF SWAP3 PUSH2 0x131A PUSH2 0x28D4 JUMP JUMPDEST SWAP1 CALLDATALOAD DUP3 MSTORE PUSH1 0x65 DUP7 MSTORE DUP3 DUP3 KECCAK256 PUSH1 0x1 PUSH1 0x1 PUSH1 0xA0 SHL SUB SWAP1 SWAP2 AND DUP3 MSTORE DUP6 MSTORE KECCAK256 SLOAD SWAP2 MLOAD SWAP2 AND ISZERO ISZERO DUP2 MSTORE RETURN JUMPDEST POP POP CALLVALUE PUSH2 0x239 JUMPI DUP2 PUSH1 0x3 NOT CALLDATASIZE ADD SLT PUSH2 0x239 JUMPI PUSH1 0x20 PUSH32 0x62E78CEA01BEE320CD4E420270B5EA74000D11B0C9F74754EBDBFC544B05A258 SWAP2 PUSH2 0x137E PUSH2 0x2B6D JUMP JUMPDEST PUSH2 0x1386 PUSH2 0x346F JUMP JUMPDEST PUSH1 0x1 PUSH1 0xFF NOT PUSH1 0x97 SLOAD AND OR PUSH1 0x97 SSTORE MLOAD CALLER DUP2 MSTORE LOG1 DUP1 RETURN JUMPDEST POP POP CALLVALUE PUSH2 0x239 JUMPI DUP2 PUSH1 0x3 NOT CALLDATASIZE ADD SLT PUSH2 0x239 JUMPI PUSH1 0x20 SWAP1 MLOAD PUSH32 0xA49807205CE4D355092EF5A8A18F56E8913CF4A201FBE287825B095693C21775 DUP2 MSTORE RETURN JUMPDEST POP POP CALLVALUE PUSH2 0x239 JUMPI DUP2 PUSH1 0x3 NOT CALLDATASIZE ADD SLT PUSH2 0x239 JUMPI PUSH2 0x164 SLOAD SWAP1 MLOAD PUSH1 0x1 PUSH1 0x1 PUSH1 0xA0 SHL SUB SWAP1 SWAP2 AND DUP2 MSTORE PUSH1 0x20 SWAP1 RETURN JUMPDEST DUP4 DUP4 CALLVALUE PUSH2 0x239 JUMPI PUSH1 0x20 CALLDATASIZE PUSH1 0x3 NOT ADD SLT PUSH2 0x239 JUMPI PUSH1 0x1 PUSH1 0x1 PUSH1 0xA0 SHL SUB SWAP2 PUSH2 0x14A6 SWAP1 DUP3 SWAP1 DUP5 PUSH2 0x142B PUSH2 0x28B9 JUMP JUMPDEST AND DUP2 MSTORE PUSH2 0x165 PUSH1 0x20 MSTORE KECCAK256 SWAP3 DUP4 SLOAD AND SWAP3 PUSH1 0x1 DUP2 ADD SLOAD SWAP5 PUSH1 0x2 DUP3 ADD SLOAD SWAP1 PUSH1 0x3 DUP4 ADD SLOAD SWAP1 DUP4 ADD SLOAD PUSH1 0x5 DUP5 ADD SLOAD SWAP2 PUSH1 0xFF PUSH1 0x6 DUP7 ADD SLOAD AND SWAP4 PUSH1 0x8 PUSH2 0x146C PUSH1 0x7 DUP9 ADD PUSH2 0x29F9 JUMP JUMPDEST SWAP7 ADD SLOAD SWAP8 DUP1 MLOAD SWAP11 DUP12 SWAP11 DUP12 MSTORE PUSH1 0x20 DUP12 ADD MSTORE DUP10 ADD MSTORE PUSH1 0x60 DUP9 ADD MSTORE PUSH1 0x80 DUP8 ADD MSTORE PUSH1 0xA0 DUP7 ADD MSTORE ISZERO ISZERO PUSH1 0xC0 DUP6 ADD MSTORE PUSH2 0x120 DUP1 PUSH1 0xE0 DUP7 ADD MSTORE DUP5 ADD SWAP1 PUSH2 0x290D JUMP JUMPDEST SWAP1 PUSH2 0x100 DUP4 ADD MSTORE SUB SWAP1 RETURN JUMPDEST SWAP1 POP DUP3 CALLVALUE PUSH2 0x7EB JUMPI DUP1 PUSH1 0x3 NOT CALLDATASIZE ADD SLT PUSH2 0x7EB JUMPI PUSH2 0x166 SLOAD SWAP3 SWAP2 SWAP1 DUP1 DUP1 JUMPDEST DUP6 DUP2 LT PUSH2 0x15EE JUMPI POP PUSH2 0x14F7 PUSH2 0x14E2 DUP3 PUSH2 0x35A6 JUMP JUMPDEST SWAP2 PUSH2 0x14EF DUP7 MLOAD SWAP4 DUP5 PUSH2 0x29D7 JUMP JUMPDEST DUP1 DUP4 MSTORE PUSH2 0x35A6 JUMP JUMPDEST PUSH1 0x20 SWAP6 DUP3 DUP8 ADD SWAP5 SWAP2 PUSH1 0x1F NOT ADD CALLDATASIZE DUP7 CALLDATACOPY DUP4 DUP1 JUMPDEST DUP3 DUP3 LT PUSH2 0x1558 JUMPI POP POP POP POP DUP4 MLOAD SWAP5 DUP6 SWAP5 DUP2 DUP7 ADD SWAP3 DUP3 DUP8 MSTORE MLOAD DUP1 SWAP4 MSTORE DUP6 ADD SWAP4 SWAP3 JUMPDEST DUP3 DUP2 LT PUSH2 0x1538 JUMPI POP POP POP POP SUB SWAP1 RETURN JUMPDEST DUP4 MLOAD PUSH1 0x1 PUSH1 0x1 PUSH1 0xA0 SHL SUB AND DUP6 MSTORE DUP7 SWAP6 POP SWAP4 DUP2 ADD SWAP4 SWAP3 DUP2 ADD SWAP3 PUSH1 0x1 ADD PUSH2 0x1529 JUMP JUMPDEST PUSH2 0x1567 DUP3 SWAP10 SWAP7 SWAP6 SWAP8 SWAP9 SWAP10 PUSH2 0x2B20 JUMP JUMPDEST PUSH1 0x1 DUP1 PUSH1 0xA0 SHL SUB DUP1 SWAP3 SLOAD PUSH1 0x3 SWAP3 DUP4 SHL SHR AND DUP8 MSTORE PUSH2 0x165 DUP9 MSTORE PUSH1 0xFF PUSH1 0x6 DUP13 DUP10 KECCAK256 ADD SLOAD AND PUSH2 0x15A6 JUMPI JUMPDEST POP POP SWAP1 PUSH2 0x159A SWAP1 PUSH2 0x3559 JUMP JUMPDEST SWAP1 SWAP8 SWAP7 SWAP6 SWAP4 SWAP5 SWAP8 PUSH2 0x1509 JUMP JUMPDEST PUSH2 0x15AF DUP5 PUSH2 0x2B20 JUMP JUMPDEST SWAP1 SLOAD SWAP2 SHL SHR AND DUP8 MLOAD DUP3 LT ISZERO PUSH2 0x15DB JUMPI DUP2 PUSH2 0x15D4 SWAP2 DUP9 PUSH2 0x159A SWAP5 PUSH1 0x5 SHL DUP12 ADD ADD MSTORE PUSH2 0x3559 JUMP JUMPDEST SWAP1 DUP11 PUSH2 0x158E JUMP JUMPDEST PUSH4 0x4E487B71 PUSH1 0xE0 SHL DUP7 MSTORE PUSH1 0x32 DUP6 MSTORE PUSH1 0x24 DUP7 REVERT JUMPDEST PUSH2 0x15FD DUP2 SWAP7 SWAP4 SWAP3 SWAP5 SWAP6 SWAP7 PUSH2 0x2B20 JUMP JUMPDEST SWAP1 SLOAD PUSH1 0x3 SWAP2 SWAP1 SWAP2 SHL SHR PUSH1 0x1 PUSH1 0x1 PUSH1 0xA0 SHL SUB AND DUP3 MSTORE PUSH2 0x165 PUSH1 0x20 MSTORE DUP6 DUP3 KECCAK256 PUSH1 0x6 ADD SLOAD PUSH1 0xFF AND PUSH2 0x163A JUMPI JUMPDEST PUSH2 0x162F SWAP1 PUSH2 0x3559 JUMP JUMPDEST SWAP5 SWAP4 SWAP3 SWAP1 SWAP2 SWAP5 PUSH2 0x14CE JUMP JUMPDEST SWAP3 PUSH2 0x1647 PUSH2 0x162F SWAP2 PUSH2 0x3559 JUMP JUMPDEST SWAP4 SWAP1 POP PUSH2 0x1626 JUMP JUMPDEST POP POP CALLVALUE PUSH2 0x239 JUMPI DUP2 PUSH1 0x3 NOT CALLDATASIZE ADD SLT PUSH2 0x239 JUMPI PUSH1 0x20 SWAP1 PUSH2 0x162 SLOAD SWAP1 MLOAD SWAP1 DUP2 MSTORE RETURN JUMPDEST POP POP CALLVALUE PUSH2 0x239 JUMPI DUP2 PUSH1 0x3 NOT CALLDATASIZE ADD SLT PUSH2 0x239 JUMPI PUSH1 0x20 SWAP1 PUSH1 0xFF PUSH1 0x97 SLOAD AND SWAP1 MLOAD SWAP1 ISZERO ISZERO DUP2 MSTORE RETURN JUMPDEST SWAP1 POP CALLVALUE PUSH2 0xAE9 JUMPI PUSH1 0x20 CALLDATASIZE PUSH1 0x3 NOT ADD SLT PUSH2 0xAE9 JUMPI CALLDATALOAD SWAP2 PUSH2 0x166 SLOAD DUP4 LT ISZERO PUSH2 0x7EB JUMPI POP PUSH2 0x16BF PUSH1 0x20 SWAP3 PUSH2 0x2B20 JUMP JUMPDEST SWAP1 SLOAD SWAP2 MLOAD SWAP2 PUSH1 0x1 DUP1 PUSH1 0xA0 SHL SUB SWAP2 PUSH1 0x3 SHL SHR AND DUP2 MSTORE RETURN JUMPDEST SWAP1 POP DUP3 CALLVALUE PUSH2 0x7EB JUMPI DUP1 PUSH1 0x3 NOT CALLDATASIZE ADD SLT PUSH2 0x7EB JUMPI POP PUSH32 0x0 PUSH1 0x1 PUSH1 0x1 PUSH1 0xA0 SHL SUB AND ADDRESS SUB PUSH2 0x1730 JUMPI PUSH1 0x20 DUP3 MLOAD PUSH1 0x0 DUP1 MLOAD PUSH1 0x20 PUSH2 0x36EC DUP4 CODECOPY DUP2 MLOAD SWAP2 MSTORE DUP2 MSTORE RETURN JUMPDEST PUSH1 0x20 PUSH1 0x84 SWAP3 MLOAD SWAP2 PUSH3 0x461BCD PUSH1 0xE5 SHL DUP4 MSTORE DUP3 ADD MSTORE PUSH1 0x38 PUSH1 0x24 DUP3 ADD MSTORE PUSH32 0x555550535570677261646561626C653A206D757374206E6F742062652063616C PUSH1 0x44 DUP3 ADD MSTORE PUSH32 0x6C6564207468726F7567682064656C656761746563616C6C0000000000000000 PUSH1 0x64 DUP3 ADD MSTORE REVERT JUMPDEST POP POP CALLVALUE PUSH2 0x239 JUMPI DUP2 PUSH1 0x3 NOT CALLDATASIZE ADD SLT PUSH2 0x239 JUMPI PUSH1 0x20 SWAP1 MLOAD PUSH32 0x12B42E8A160F6064DC959C6F251E3AF0750AD213DBECF573B4710D67D6C28E39 DUP2 MSTORE RETURN JUMPDEST SWAP2 DUP1 SWAP2 POP PUSH1 0x3 NOT CALLDATASIZE ADD SLT PUSH2 0xAE9 JUMPI PUSH2 0x17E9 PUSH2 0x28B9 JUMP JUMPDEST SWAP1 PUSH1 0x24 CALLDATALOAD PUSH8 0xFFFFFFFFFFFFFFFF DUP2 GT PUSH2 0x625 JUMPI CALLDATASIZE PUSH1 0x23 DUP3 ADD SLT ISZERO PUSH2 0x625 JUMPI PUSH2 0x181A SWAP1 CALLDATASIZE SWAP1 PUSH1 0x24 DUP2 DUP8 ADD CALLDATALOAD SWAP2 ADD PUSH2 0x2AE9 JUMP JUMPDEST PUSH1 0x1 PUSH1 0x1 PUSH1 0xA0 SHL SUB PUSH32 0x0 DUP2 AND SWAP3 SWAP2 SWAP1 PUSH2 0x1854 ADDRESS DUP6 EQ ISZERO PUSH2 0x300F JUMP JUMPDEST PUSH2 0x1871 PUSH1 0x0 DUP1 MLOAD PUSH1 0x20 PUSH2 0x36EC DUP4 CODECOPY DUP2 MLOAD SWAP2 MSTORE SWAP5 DUP3 DUP7 SLOAD AND EQ PUSH2 0x3070 JUMP JUMPDEST PUSH2 0x1879 PUSH2 0x2D49 JUMP JUMPDEST PUSH32 0x4910FDFA16FED3260ED0E7147F7CC6DA11A60208B5B9406D12A635614FFD9143 SLOAD PUSH1 0xFF AND ISZERO PUSH2 0x18B1 JUMPI POP POP POP POP PUSH2 0xD14 SWAP2 POP PUSH2 0x30D1 JUMP JUMPDEST DUP3 MLOAD PUSH4 0x52D1902D PUSH1 0xE0 SHL DUP2 MSTORE PUSH1 0x20 SWAP6 SWAP4 SWAP5 SWAP2 DUP5 AND SWAP2 SWAP1 DUP7 DUP2 DUP10 DUP2 DUP7 GAS STATICCALL DUP10 SWAP2 DUP2 PUSH2 0x1A74 JUMPI JUMPDEST POP PUSH2 0x1935 JUMPI DUP6 MLOAD PUSH3 0x461BCD PUSH1 0xE5 SHL DUP2 MSTORE DUP1 DUP10 ADD DUP9 SWAP1 MSTORE PUSH1 0x2E PUSH1 0x24 DUP3 ADD MSTORE PUSH32 0x45524331393637557067726164653A206E657720696D706C656D656E74617469 PUSH1 0x44 DUP3 ADD MSTORE PUSH14 0x6F6E206973206E6F742055555053 PUSH1 0x90 SHL PUSH1 0x64 DUP3 ADD MSTORE PUSH1 0x84 SWAP1 REVERT JUMPDEST SWAP7 SWAP2 SWAP3 SWAP6 SWAP5 SWAP4 SWAP7 SUB PUSH2 0x1A1F JUMPI POP PUSH2 0x194B DUP6 PUSH2 0x30D1 JUMP JUMPDEST PUSH32 0xBC7CD75A20EE27FD9ADEBAB32041F755214DBC6BFFA90CC0225B39DA2E5C2D3B DUP7 DUP1 LOG2 DUP3 MLOAD ISZERO DUP1 ISZERO SWAP1 PUSH2 0x1A17 JUMPI JUMPDEST PUSH2 0x1986 JUMPI JUMPDEST POP POP POP POP DUP1 RETURN JUMPDEST PUSH2 0x1A03 SWAP4 DUP6 DUP1 DUP4 MLOAD SWAP6 PUSH2 0x1998 DUP8 PUSH2 0x299F JUMP JUMPDEST PUSH1 0x27 DUP8 MSTORE PUSH32 0x416464726573733A206C6F772D6C6576656C2064656C65676174652063616C6C DUP7 DUP9 ADD MSTORE PUSH7 0x819985A5B1959 PUSH1 0xCA SHL DUP6 DUP9 ADD MSTORE DUP6 DUP2 MLOAD SWAP2 ADD DUP5 GAS DELEGATECALL SWAP2 RETURNDATASIZE ISZERO PUSH2 0x1A0D JUMPI RETURNDATASIZE PUSH2 0x19F5 PUSH2 0x19EC DUP3 PUSH2 0x2ACD JUMP JUMPDEST SWAP3 MLOAD SWAP3 DUP4 PUSH2 0x29D7 JUMP JUMPDEST DUP2 MSTORE DUP7 DUP2 SWAP5 RETURNDATASIZE SWAP3 ADD RETURNDATACOPY PUSH2 0x3161 JUMP JUMPDEST POP CODESIZE DUP1 DUP1 DUP1 PUSH2 0x197F JUMP JUMPDEST POP PUSH1 0x60 SWAP3 POP PUSH2 0x3161 JUMP JUMPDEST POP PUSH1 0x1 PUSH2 0x197A JUMP JUMPDEST DUP3 MLOAD PUSH3 0x461BCD PUSH1 0xE5 SHL DUP2 MSTORE SWAP1 DUP2 ADD DUP5 SWAP1 MSTORE PUSH1 0x29 PUSH1 0x24 DUP3 ADD MSTORE PUSH32 0x45524331393637557067726164653A20756E737570706F727465642070726F78 PUSH1 0x44 DUP3 ADD MSTORE PUSH9 0x1A58589B1955555251 PUSH1 0xBA SHL PUSH1 0x64 DUP3 ADD MSTORE PUSH1 0x84 SWAP1 REVERT JUMPDEST SWAP1 SWAP2 POP DUP8 DUP2 DUP2 RETURNDATASIZE DUP4 GT PUSH2 0x1AA0 JUMPI JUMPDEST PUSH2 0x1A8C DUP2 DUP4 PUSH2 0x29D7 JUMP JUMPDEST DUP2 ADD SUB SLT PUSH2 0x1A9C JUMPI MLOAD SWAP1 CODESIZE PUSH2 0x18D6 JUMP JUMPDEST DUP10 DUP1 REVERT JUMPDEST POP RETURNDATASIZE PUSH2 0x1A82 JUMP JUMPDEST DUP4 SWAP1 CALLVALUE PUSH2 0x239 JUMPI PUSH1 0x20 CALLDATASIZE PUSH1 0x3 NOT ADD SLT PUSH2 0x239 JUMPI PUSH2 0x1AC2 PUSH2 0x2B6D JUMP JUMPDEST CALLDATALOAD PUSH2 0x15F SSTORE DUP1 RETURN JUMPDEST POP POP CALLVALUE PUSH2 0x239 JUMPI DUP2 PUSH1 0x3 NOT CALLDATASIZE ADD SLT PUSH2 0x239 JUMPI PUSH2 0x1AE4 PUSH2 0x2B6D JUMP JUMPDEST DUP2 JUMPDEST PUSH2 0x166 SLOAD DUP2 LT ISZERO PUSH2 0x1BCC JUMPI DUP1 PUSH2 0x1AFE PUSH2 0x1B3D SWAP3 PUSH2 0x2B20 JUMP JUMPDEST PUSH1 0x1 DUP1 PUSH1 0xA0 SHL SUB SWAP2 SLOAD SWAP1 PUSH1 0x3 SHL SHR AND DUP1 DUP6 MSTORE PUSH2 0x165 PUSH1 0x20 SWAP1 DUP1 DUP3 MSTORE DUP6 DUP8 KECCAK256 SWAP2 PUSH1 0x6 SWAP3 PUSH1 0xFF DUP5 DUP3 ADD SLOAD AND SWAP1 DUP2 PUSH2 0x1BB2 JUMPI JUMPDEST POP PUSH2 0x1B42 JUMPI JUMPDEST POP POP POP POP PUSH2 0x3559 JUMP JUMPDEST PUSH2 0x1AE6 JUMP JUMPDEST PUSH32 0xBB0E736B635387CAA7EACD963CB5EBD26D81ACC0B84DECB6818D7B7277F67E9 SWAP3 PUSH1 0x60 SWAP3 DUP6 DUP11 MSTORE DUP3 MSTORE DUP8 DUP10 KECCAK256 ADD PUSH1 0xFF NOT DUP2 SLOAD AND SWAP1 SSTORE PUSH1 0x1D DUP8 MLOAD SWAP2 DUP1 DUP4 MSTORE DUP3 ADD MSTORE PUSH32 0x496E6163746976697479207468726573686F6C64206578636565646564000000 DUP8 DUP3 ADD MSTORE LOG2 CODESIZE DUP1 DUP1 DUP1 PUSH2 0x1B34 JUMP JUMPDEST PUSH2 0x1BC1 SWAP2 POP PUSH1 0x5 ADD SLOAD TIMESTAMP PUSH2 0x354C JUMP JUMPDEST PUSH2 0x163 SLOAD LT CODESIZE PUSH2 0x1B2E JUMP JUMPDEST DUP3 DUP1 RETURN JUMPDEST SWAP2 SWAP1 POP CALLVALUE PUSH2 0xAE9 JUMPI PUSH1 0x60 CALLDATASIZE PUSH1 0x3 NOT ADD SLT PUSH2 0xAE9 JUMPI DUP2 CALLDATALOAD SWAP1 PUSH2 0x1BEF PUSH2 0x28D4 JUMP JUMPDEST SWAP3 PUSH1 0x44 CALLDATALOAD DUP1 ISZERO ISZERO SWAP2 DUP3 DUP3 SUB PUSH2 0x1D57 JUMPI PUSH2 0x1C06 PUSH2 0x2B6D JUMP JUMPDEST PUSH2 0x1C0E PUSH2 0x346F JUMP JUMPDEST PUSH1 0x1 DUP1 PUSH1 0xA0 SHL SUB DUP7 AND SWAP6 DUP7 DUP9 MSTORE PUSH2 0x165 SWAP2 PUSH1 0x20 SWAP4 DUP4 DUP6 MSTORE PUSH2 0x1C37 PUSH1 0xFF PUSH1 0x6 DUP10 DUP14 KECCAK256 ADD SLOAD AND PUSH2 0x350A JUMP JUMPDEST DUP8 DUP11 MSTORE PUSH2 0x167 SWAP4 DUP5 DUP7 MSTORE PUSH1 0xFF DUP4 DUP10 DUP14 KECCAK256 ADD SLOAD AND PUSH2 0x1D14 JUMPI SWAP2 DUP8 SWAP7 SWAP6 SWAP5 SWAP4 SWAP2 PUSH2 0x1CCF SWAP4 PUSH1 0x3 PUSH32 0xB48E6A2CDE5D6737DB899CA96ABF738DE637E170D6E1BC4837E601531521E597 SWAP11 DUP15 DUP15 DUP15 DUP3 MSTORE DUP10 DUP12 MSTORE DUP7 DUP4 DUP4 KECCAK256 ADD PUSH1 0x1 DUP14 PUSH2 0xFF00 DUP4 SLOAD SWAP2 PUSH1 0x8 SHL AND SWAP1 PUSH2 0xFFFF NOT AND OR OR SWAP1 SSTORE DUP2 MSTORE DUP4 DUP11 MSTORE KECCAK256 ADD PUSH2 0x1CB2 DUP2 SLOAD PUSH2 0x3559 JUMP JUMPDEST SWAP1 SSTORE DUP12 DUP14 MSTORE DUP7 MSTORE DUP8 DUP13 KECCAK256 SWAP1 TIMESTAMP PUSH1 0x5 DUP4 ADD SSTORE PUSH2 0x1D00 JUMPI JUMPDEST POP POP PUSH2 0x35BE JUMP JUMPDEST DUP6 DUP9 MSTORE DUP2 MSTORE PUSH1 0x2 DUP4 DUP9 KECCAK256 ADD SLOAD SWAP1 DUP7 DUP9 MSTORE PUSH2 0x168 DUP2 MSTORE DUP4 DUP9 KECCAK256 PUSH2 0x1CF2 DUP4 DUP3 SLOAD PUSH2 0x3223 JUMP JUMPDEST SWAP1 SSTORE DUP4 MLOAD SWAP3 DUP4 MSTORE DUP3 ADD MSTORE LOG3 DUP1 RETURN JUMPDEST ADD PUSH2 0x1D0B DUP2 SLOAD PUSH2 0x3559 JUMP JUMPDEST SWAP1 SSTORE CODESIZE DUP1 PUSH2 0x1CC8 JUMP JUMPDEST DUP8 MLOAD PUSH3 0x461BCD PUSH1 0xE5 SHL DUP2 MSTORE DUP1 DUP5 ADD DUP8 SWAP1 MSTORE PUSH1 0x1E PUSH1 0x24 DUP3 ADD MSTORE PUSH32 0x566572696669636174696F6E20616C726561647920636F6D706C657465640000 PUSH1 0x44 DUP3 ADD MSTORE PUSH1 0x64 SWAP1 REVERT JUMPDEST DUP7 DUP1 REVERT JUMPDEST SWAP1 POP CALLVALUE PUSH2 0xAE9 JUMPI DUP3 PUSH1 0x3 NOT CALLDATASIZE ADD SLT PUSH2 0xAE9 JUMPI PUSH2 0x1D75 PUSH2 0x2B6D JUMP JUMPDEST PUSH1 0x97 SLOAD SWAP1 PUSH1 0xFF DUP3 AND ISZERO PUSH2 0x1DB7 JUMPI POP PUSH1 0xFF NOT AND PUSH1 0x97 SSTORE MLOAD CALLER DUP2 MSTORE PUSH32 0x5DB9EE0A495BF2E6FF9C91A7834C1BA4FDD244A5E8AA4E537BD38AEAE4B073AA SWAP1 PUSH1 0x20 SWAP1 LOG1 DUP1 RETURN JUMPDEST PUSH1 0x64 SWAP1 PUSH1 0x20 DUP5 MLOAD SWAP2 PUSH3 0x461BCD PUSH1 0xE5 SHL DUP4 MSTORE DUP3 ADD MSTORE PUSH1 0x14 PUSH1 0x24 DUP3 ADD MSTORE PUSH20 0x14185D5CD8589B194E881B9BDD081C185D5CD959 PUSH1 0x62 SHL PUSH1 0x44 DUP3 ADD MSTORE REVERT JUMPDEST SWAP2 SWAP1 POP CALLVALUE PUSH2 0xAE9 JUMPI PUSH1 0x20 DUP1 PUSH1 0x3 NOT CALLDATASIZE ADD SLT PUSH2 0x20AC JUMPI PUSH2 0x1E0E PUSH2 0x28B9 JUMP JUMPDEST SWAP2 PUSH1 0x1 PUSH1 0x1 PUSH1 0xA0 SHL SUB PUSH32 0x0 DUP2 AND PUSH2 0x1E46 ADDRESS DUP3 EQ ISZERO PUSH2 0x300F JUMP JUMPDEST PUSH2 0x1E63 PUSH1 0x0 DUP1 MLOAD PUSH1 0x20 PUSH2 0x36EC DUP4 CODECOPY DUP2 MLOAD SWAP2 MSTORE SWAP2 DUP4 DUP4 SLOAD AND EQ PUSH2 0x3070 JUMP JUMPDEST PUSH2 0x1E6B PUSH2 0x2D49 JUMP JUMPDEST DUP3 MLOAD SWAP1 DUP5 DUP3 ADD SWAP3 DUP3 DUP5 LT PUSH8 0xFFFFFFFFFFFFFFFF DUP6 GT OR PUSH2 0x2099 JUMPI DUP4 DUP6 MSTORE DUP9 DUP4 MSTORE PUSH32 0x4910FDFA16FED3260ED0E7147F7CC6DA11A60208B5B9406D12A635614FFD9143 SLOAD PUSH1 0xFF AND ISZERO PUSH2 0x1EC5 JUMPI POP POP POP POP POP POP PUSH2 0xD14 SWAP2 POP PUSH2 0x30D1 JUMP JUMPDEST DUP7 SWAP3 SWAP4 SWAP5 SWAP6 SWAP7 AND SWAP1 DUP6 MLOAD PUSH4 0x52D1902D PUSH1 0xE0 SHL DUP2 MSTORE DUP8 DUP2 DUP11 DUP2 DUP7 GAS STATICCALL DUP11 SWAP2 DUP2 PUSH2 0x2066 JUMPI JUMPDEST POP PUSH2 0x1F47 JUMPI DUP7 MLOAD PUSH3 0x461BCD PUSH1 0xE5 SHL DUP2 MSTORE DUP1 DUP11 ADD DUP10 SWAP1 MSTORE PUSH1 0x2E PUSH1 0x24 DUP3 ADD MSTORE PUSH32 0x45524331393637557067726164653A206E657720696D706C656D656E74617469 PUSH1 0x44 DUP3 ADD MSTORE PUSH14 0x6F6E206973206E6F742055555053 PUSH1 0x90 SHL PUSH1 0x64 DUP3 ADD MSTORE PUSH1 0x84 SWAP1 REVERT JUMPDEST SWAP8 SWAP2 SWAP3 SWAP4 SWAP7 SWAP6 SWAP5 SWAP8 SUB PUSH2 0x2011 JUMPI POP PUSH2 0x1F5E DUP3 PUSH2 0x30D1 JUMP JUMPDEST PUSH32 0xBC7CD75A20EE27FD9ADEBAB32041F755214DBC6BFFA90CC0225B39DA2E5C2D3B DUP8 DUP1 LOG2 DUP6 DUP5 MLOAD ISZERO DUP1 ISZERO SWAP1 PUSH2 0x200A JUMPI JUMPDEST PUSH2 0x1F9C JUMPI JUMPDEST POP POP POP POP POP POP DUP1 RETURN JUMPDEST DUP1 PUSH2 0x1FFE SWAP7 DUP5 MLOAD SWAP7 PUSH2 0x1FAD DUP9 PUSH2 0x299F JUMP JUMPDEST PUSH1 0x27 DUP9 MSTORE PUSH32 0x416464726573733A206C6F772D6C6576656C2064656C65676174652063616C6C DUP8 DUP10 ADD MSTORE PUSH7 0x819985A5B1959 PUSH1 0xCA SHL DUP7 DUP10 ADD MSTORE MLOAD SWAP1 DUP5 GAS DELEGATECALL SWAP2 RETURNDATASIZE ISZERO PUSH2 0x1A0D JUMPI RETURNDATASIZE PUSH2 0x19F5 PUSH2 0x19EC DUP3 PUSH2 0x2ACD JUMP JUMPDEST POP CODESIZE DUP1 DUP1 DUP1 DUP1 DUP6 PUSH2 0x1F93 JUMP JUMPDEST POP DUP1 PUSH2 0x1F8E JUMP JUMPDEST DUP4 MLOAD PUSH3 0x461BCD PUSH1 0xE5 SHL DUP2 MSTORE SWAP1 DUP2 ADD DUP6 SWAP1 MSTORE PUSH1 0x29 PUSH1 0x24 DUP3 ADD MSTORE PUSH32 0x45524331393637557067726164653A20756E737570706F727465642070726F78 PUSH1 0x44 DUP3 ADD MSTORE PUSH9 0x1A58589B1955555251 PUSH1 0xBA SHL PUSH1 0x64 DUP3 ADD MSTORE PUSH1 0x84 SWAP1 REVERT JUMPDEST SWAP1 SWAP2 POP DUP9 DUP2 DUP2 RETURNDATASIZE DUP4 GT PUSH2 0x2092 JUMPI JUMPDEST PUSH2 0x207E DUP2 DUP4 PUSH2 0x29D7 JUMP JUMPDEST DUP2 ADD SUB SLT PUSH2 0x208E JUMPI MLOAD SWAP1 CODESIZE PUSH2 0x1EE8 JUMP JUMPDEST DUP11 DUP1 REVERT JUMPDEST POP RETURNDATASIZE PUSH2 0x2074 JUMP JUMPDEST PUSH4 0x4E487B71 PUSH1 0xE0 SHL DUP10 MSTORE PUSH1 0x41 DUP9 MSTORE PUSH1 0x24 DUP10 REVERT JUMPDEST DUP4 DUP1 REVERT JUMPDEST DUP4 SWAP2 POP CALLVALUE PUSH2 0x239 JUMPI DUP3 PUSH1 0x3 NOT CALLDATASIZE ADD SLT PUSH2 0x239 JUMPI PUSH2 0x20CB PUSH2 0x28D4 JUMP JUMPDEST SWAP1 CALLER PUSH1 0x1 PUSH1 0x1 PUSH1 0xA0 SHL SUB DUP4 AND SUB PUSH2 0x20E7 JUMPI SWAP1 PUSH2 0xD14 SWAP2 CALLDATALOAD PUSH2 0x2F99 JUMP JUMPDEST PUSH1 0x84 SWAP1 PUSH1 0x20 DUP6 MLOAD SWAP2 PUSH3 0x461BCD PUSH1 0xE5 SHL DUP4 MSTORE DUP3 ADD MSTORE PUSH1 0x2F PUSH1 0x24 DUP3 ADD MSTORE PUSH32 0x416363657373436F6E74726F6C3A2063616E206F6E6C792072656E6F756E6365 PUSH1 0x44 DUP3 ADD MSTORE PUSH15 0x103937B632B9903337B91039B2B633 PUSH1 0x89 SHL PUSH1 0x64 DUP3 ADD MSTORE REVERT JUMPDEST SWAP1 POP CALLVALUE PUSH2 0xAE9 JUMPI DUP2 PUSH1 0x3 NOT CALLDATASIZE ADD SLT PUSH2 0xAE9 JUMPI CALLDATALOAD SWAP1 PUSH2 0x215E PUSH2 0x28D4 JUMP JUMPDEST SWAP1 DUP3 DUP5 MSTORE PUSH1 0x65 PUSH1 0x20 MSTORE PUSH2 0x2176 PUSH1 0x1 DUP3 DUP7 KECCAK256 ADD SLOAD PUSH2 0x2E8E JUMP JUMPDEST DUP3 DUP5 MSTORE PUSH1 0x65 PUSH1 0x20 SWAP1 DUP2 MSTORE DUP2 DUP6 KECCAK256 PUSH1 0x1 PUSH1 0x1 PUSH1 0xA0 SHL SUB SWAP1 SWAP4 AND DUP1 DUP7 MSTORE SWAP3 SWAP1 MSTORE DUP1 DUP5 KECCAK256 SLOAD PUSH1 0xFF AND ISZERO PUSH2 0x21A4 JUMPI DUP4 DUP1 RETURN JUMPDEST DUP3 DUP5 MSTORE PUSH1 0x65 PUSH1 0x20 MSTORE DUP1 DUP5 KECCAK256 DUP3 DUP6 MSTORE PUSH1 0x20 MSTORE DUP4 KECCAK256 PUSH1 0x1 PUSH1 0xFF NOT DUP3 SLOAD AND OR SWAP1 SSTORE CALLER SWAP2 PUSH1 0x0 DUP1 MLOAD PUSH1 0x20 PUSH2 0x36AC DUP4 CODECOPY DUP2 MLOAD SWAP2 MSTORE DUP5 DUP1 LOG4 CODESIZE DUP1 DUP1 DUP4 DUP1 RETURN JUMPDEST DUP4 SWAP1 CALLVALUE PUSH2 0x239 JUMPI PUSH1 0x20 CALLDATASIZE PUSH1 0x3 NOT ADD SLT PUSH2 0x239 JUMPI PUSH2 0x21F8 PUSH2 0x2B6D JUMP JUMPDEST CALLDATALOAD PUSH2 0x161 SSTORE DUP1 RETURN JUMPDEST SWAP1 POP CALLVALUE PUSH2 0xAE9 JUMPI PUSH1 0x20 CALLDATASIZE PUSH1 0x3 NOT ADD SLT PUSH2 0xAE9 JUMPI DUP2 PUSH1 0x20 SWAP4 PUSH1 0x1 SWAP3 CALLDATALOAD DUP2 MSTORE PUSH1 0x65 DUP6 MSTORE KECCAK256 ADD SLOAD SWAP1 MLOAD SWAP1 DUP2 MSTORE RETURN JUMPDEST DUP4 PUSH1 0x20 DUP5 CALLDATASIZE PUSH1 0x3 NOT ADD DUP3 SGT PUSH2 0xAE9 JUMPI PUSH8 0xFFFFFFFFFFFFFFFF DUP5 CALLDATALOAD DUP2 DUP2 GT PUSH2 0x625 JUMPI PUSH2 0x2259 SWAP1 CALLDATASIZE SWAP1 DUP8 ADD PUSH2 0x2A9F JUMP JUMPDEST SWAP3 SWAP1 SWAP2 PUSH2 0x2264 PUSH2 0x346F JUMP JUMPDEST PUSH2 0x226C PUSH2 0x34B3 JUMP JUMPDEST CALLER DUP7 MSTORE PUSH2 0x165 DUP6 MSTORE PUSH1 0xFF PUSH1 0x6 DUP4 DUP9 KECCAK256 ADD SLOAD AND PUSH2 0x2629 JUMPI DUP4 ISZERO PUSH2 0x25E6 JUMPI PUSH2 0x164 SLOAD PUSH1 0x1 PUSH1 0x1 PUSH1 0xA0 SHL SUB SWAP2 SWAP1 DUP3 AND DUP1 PUSH2 0x255E JUMPI POP PUSH2 0x15F SLOAD CALLVALUE LT PUSH2 0x251B JUMPI CALLVALUE SWAP6 JUMPDEST DUP4 MLOAD SWAP2 PUSH2 0x22B7 DUP4 PUSH2 0x296C JUMP JUMPDEST CALLER DUP4 MSTORE DUP8 DUP3 DUP5 ADD MSTORE PUSH2 0x1388 DUP6 DUP5 ADD MSTORE DUP9 PUSH1 0x60 DUP5 ADD MSTORE DUP9 PUSH1 0x80 DUP5 ADD MSTORE TIMESTAMP PUSH1 0xA0 DUP5 ADD MSTORE PUSH1 0x1 PUSH1 0xC0 DUP5 ADD MSTORE PUSH2 0x22EA CALLDATASIZE DUP9 DUP9 PUSH2 0x2AE9 JUMP JUMPDEST PUSH1 0xE0 DUP5 ADD SWAP1 DUP2 MSTORE PUSH2 0x100 DUP5 ADD SWAP2 TIMESTAMP DUP4 MSTORE CALLER DUP12 MSTORE PUSH2 0x165 DUP5 MSTORE DUP7 DUP12 KECCAK256 SWAP5 DUP7 DUP2 MLOAD AND PUSH12 0xFFFFFFFFFFFFFFFFFFFFFFFF PUSH1 0xA0 SHL DUP8 SLOAD AND OR DUP7 SSTORE DUP5 DUP2 ADD MLOAD PUSH1 0x1 DUP8 ADD SSTORE DUP8 DUP2 ADD MLOAD PUSH1 0x2 DUP8 ADD SSTORE PUSH1 0x60 DUP2 ADD MLOAD PUSH1 0x3 DUP8 ADD SSTORE PUSH1 0x80 DUP2 ADD MLOAD DUP14 DUP8 ADD SSTORE PUSH1 0xA0 DUP2 ADD MLOAD PUSH1 0x5 DUP8 ADD SSTORE PUSH1 0xC0 PUSH1 0x6 DUP8 ADD SWAP2 ADD MLOAD ISZERO ISZERO PUSH1 0xFF DUP1 NOT DUP4 SLOAD AND SWAP2 AND OR SWAP1 SSTORE PUSH1 0x7 DUP6 ADD SWAP2 MLOAD DUP1 MLOAD SWAP2 DUP3 GT PUSH2 0x2508 JUMPI PUSH2 0x237F DUP4 SLOAD PUSH2 0x2932 JUMP JUMPDEST PUSH1 0x1F DUP2 GT PUSH2 0x24C0 JUMPI JUMPDEST POP DUP5 SWAP1 DUP13 PUSH1 0x1F DUP5 GT PUSH1 0x1 EQ PUSH2 0x2454 JUMPI PUSH1 0x8 SWAP7 POP SWAP2 SWAP1 DUP4 PUSH2 0x2449 JUMPI JUMPDEST POP POP DUP2 PUSH1 0x1 SHL SWAP2 PUSH1 0x0 NOT SWAP1 PUSH1 0x3 SHL SHR NOT AND OR SWAP1 SSTORE JUMPDEST MLOAD SWAP2 ADD SSTORE PUSH2 0x166 DUP1 SLOAD SWAP1 PUSH9 0x10000000000000000 DUP3 LT ISZERO PUSH2 0x2436 JUMPI SWAP2 PUSH2 0x240B DUP3 PUSH2 0x242A SWAP5 PUSH1 0x1 PUSH32 0xF0734B98DFC7770549B33CA5C3F377B6FD40EBBFB8F6D7E39AEE74FD5B3530DE SWAP10 SWAP9 SWAP8 SWAP6 ADD SWAP1 SSTORE PUSH2 0x2B20 JUMP JUMPDEST DUP2 SWAP3 SWAP2 SLOAD SWAP1 PUSH1 0x3 SHL SWAP2 CALLER DUP4 SHL SWAP3 SHL NOT AND OR SWAP1 SSTORE MLOAD SWAP3 DUP4 SWAP3 CALLER SWAP7 DUP5 PUSH2 0x3441 JUMP JUMPDEST SUB SWAP1 LOG2 PUSH1 0x1 PUSH2 0x12D SSTORE DUP1 RETURN JUMPDEST PUSH4 0x4E487B71 PUSH1 0xE0 SHL DUP9 MSTORE PUSH1 0x41 DUP10 MSTORE PUSH1 0x24 DUP9 REVERT JUMPDEST ADD MLOAD SWAP1 POP DUP14 DUP1 PUSH2 0x23A3 JUMP JUMPDEST SWAP3 SWAP4 SWAP5 SWAP6 PUSH1 0x1F NOT DUP6 AND SWAP1 DUP7 DUP6 MSTORE DUP1 DUP6 KECCAK256 SWAP5 SWAP1 JUMPDEST DUP3 DUP3 LT PUSH2 0x24A8 JUMPI POP POP SWAP2 PUSH1 0x1 SWAP4 SWAP2 DUP6 PUSH1 0x8 SWAP9 SWAP8 SWAP7 SWAP5 LT PUSH2 0x248F JUMPI JUMPDEST POP POP POP DUP2 SHL ADD SWAP1 SSTORE PUSH2 0x23B8 JUMP JUMPDEST ADD MLOAD PUSH1 0x0 NOT PUSH1 0xF8 DUP5 PUSH1 0x3 SHL AND SHR NOT AND SWAP1 SSTORE DUP14 DUP1 DUP1 PUSH2 0x2482 JUMP JUMPDEST DUP1 PUSH1 0x1 DUP7 SWAP8 DUP3 SWAP5 SWAP8 DUP8 ADD MLOAD DUP2 SSTORE ADD SWAP7 ADD SWAP5 ADD SWAP1 PUSH2 0x2467 JUMP JUMPDEST DUP4 DUP14 MSTORE DUP6 DUP14 KECCAK256 PUSH1 0x1F DUP5 ADD PUSH1 0x5 SHR DUP2 ADD SWAP2 DUP8 DUP6 LT PUSH2 0x24FE JUMPI JUMPDEST PUSH1 0x1F ADD PUSH1 0x5 SHR ADD SWAP1 DUP14 SWAP1 JUMPDEST DUP3 DUP2 LT PUSH2 0x24F1 JUMPI POP POP PUSH2 0x2388 JUMP JUMPDEST PUSH1 0x1 SWAP2 DUP2 SSTORE ADD DUP14 SWAP1 PUSH2 0x24E3 JUMP JUMPDEST SWAP1 SWAP2 POP DUP2 SWAP1 PUSH2 0x24D8 JUMP JUMPDEST PUSH4 0x4E487B71 PUSH1 0xE0 SHL DUP13 MSTORE PUSH1 0x41 DUP14 MSTORE PUSH1 0x24 DUP13 REVERT JUMPDEST DUP3 MLOAD PUSH3 0x461BCD PUSH1 0xE5 SHL DUP2 MSTORE DUP1 DUP10 ADD DUP8 SWAP1 MSTORE PUSH1 0x19 PUSH1 0x24 DUP3 ADD MSTORE PUSH32 0x496E73756666696369656E74207374616B6520616D6F756E7400000000000000 PUSH1 0x44 DUP3 ADD MSTORE PUSH1 0x64 SWAP1 REVERT JUMPDEST SWAP6 PUSH2 0x2569 CALLVALUE ISZERO PUSH2 0x338D JUMP JUMPDEST PUSH2 0x15F SLOAD DUP5 MLOAD PUSH4 0x23B872DD PUSH1 0xE0 SHL DUP2 MSTORE CALLER DUP2 DUP13 ADD SWAP1 DUP2 MSTORE ADDRESS PUSH1 0x20 DUP3 ADD MSTORE PUSH1 0x40 DUP2 ADD DUP4 SWAP1 MSTORE SWAP2 SWAP9 SWAP1 SWAP2 DUP4 SWAP2 DUP4 SWAP2 DUP3 SWAP1 DUP14 SWAP1 DUP3 SWAP1 PUSH1 0x60 ADD SUB SWAP3 GAS CALL SWAP1 DUP2 ISZERO PUSH2 0x25DC JUMPI SWAP1 PUSH2 0x25BA SWAP2 DUP11 SWAP2 PUSH2 0x25BF JUMPI POP PUSH2 0x33FD JUMP JUMPDEST PUSH2 0x22AB JUMP JUMPDEST PUSH2 0x25D6 SWAP2 POP DUP4 RETURNDATASIZE DUP6 GT PUSH2 0x90C JUMPI PUSH2 0x8FD DUP2 DUP4 PUSH2 0x29D7 JUMP JUMPDEST DUP12 PUSH2 0xC65 JUMP JUMPDEST DUP6 MLOAD RETURNDATASIZE DUP12 DUP3 RETURNDATACOPY RETURNDATASIZE SWAP1 REVERT JUMPDEST DUP2 MLOAD PUSH3 0x461BCD PUSH1 0xE5 SHL DUP2 MSTORE DUP1 DUP9 ADD DUP7 SWAP1 MSTORE PUSH1 0x18 PUSH1 0x24 DUP3 ADD MSTORE PUSH32 0x4D657461646174612063616E6E6F7420626520656D7074790000000000000000 PUSH1 0x44 DUP3 ADD MSTORE PUSH1 0x64 SWAP1 REVERT JUMPDEST DUP2 MLOAD PUSH3 0x461BCD PUSH1 0xE5 SHL DUP2 MSTORE DUP1 DUP9 ADD DUP7 SWAP1 MSTORE PUSH1 0x1E PUSH1 0x24 DUP3 ADD MSTORE PUSH32 0x416C726561647920726567697374657265642061732076657269666965720000 PUSH1 0x44 DUP3 ADD MSTORE PUSH1 0x64 SWAP1 REVERT JUMPDEST DUP3 DUP5 CALLVALUE PUSH2 0x7EB JUMPI PUSH1 0x20 CALLDATASIZE PUSH1 0x3 NOT ADD SLT PUSH2 0x7EB JUMPI DUP2 PUSH2 0x26FB SWAP2 DUP5 CALLDATALOAD DUP2 MSTORE PUSH2 0x167 PUSH1 0x20 MSTORE KECCAK256 SWAP2 PUSH1 0xFF PUSH1 0x1 DUP1 PUSH1 0xA0 SHL SUB SWAP4 DUP5 DUP2 SLOAD AND SWAP5 PUSH1 0x1 DUP3 ADD SLOAD AND SWAP6 PUSH1 0x2 DUP3 ADD SLOAD PUSH2 0x26C0 PUSH1 0x5 PUSH1 0x3 DUP6 ADD SLOAD SWAP4 DUP6 ADD SLOAD SWAP5 ADD PUSH2 0x29F9 JUMP JUMPDEST SWAP5 DUP1 MLOAD SWAP9 DUP10 SWAP9 DUP10 MSTORE PUSH1 0x20 DUP10 ADD MSTORE DUP8 ADD MSTORE PUSH1 0x60 DUP7 ADD MSTORE DUP2 DUP2 AND ISZERO ISZERO PUSH1 0x80 DUP7 ADD MSTORE PUSH1 0x8 SHR AND ISZERO ISZERO PUSH1 0xA0 DUP5 ADD MSTORE PUSH1 0xE0 PUSH1 0xC0 DUP5 ADD MSTORE PUSH1 0xE0 DUP4 ADD SWAP1 PUSH2 0x290D JUMP JUMPDEST SUB SWAP1 RETURN JUMPDEST POP POP CALLVALUE PUSH2 0x239 JUMPI DUP2 PUSH1 0x3 NOT CALLDATASIZE ADD SLT PUSH2 0x239 JUMPI PUSH1 0x20 SWAP1 PUSH2 0x160 SLOAD SWAP1 MLOAD SWAP1 DUP2 MSTORE RETURN JUMPDEST DUP4 DUP4 CALLVALUE PUSH2 0x239 JUMPI PUSH1 0x20 SWAP2 DUP3 PUSH1 0x3 NOT CALLDATASIZE ADD SLT PUSH2 0x7EB JUMPI PUSH2 0x285C PUSH2 0x273F PUSH2 0x28B9 JUMP JUMPDEST SWAP5 DUP4 DUP1 MLOAD SWAP4 PUSH2 0x274D DUP6 PUSH2 0x296C JUMP JUMPDEST DUP1 DUP6 MSTORE DUP1 DUP8 DUP7 ADD MSTORE DUP1 DUP3 DUP7 ADD MSTORE DUP1 PUSH1 0x60 DUP7 ADD MSTORE DUP1 PUSH1 0x80 DUP7 ADD MSTORE DUP1 PUSH1 0xA0 DUP7 ADD MSTORE DUP1 PUSH1 0xC0 DUP7 ADD MSTORE PUSH1 0x60 PUSH1 0xE0 DUP7 ADD MSTORE DUP1 PUSH2 0x100 DUP1 SWAP7 ADD MSTORE PUSH1 0x1 DUP1 PUSH1 0xA0 SHL SUB DUP1 SWAP9 AND DUP2 MSTORE PUSH2 0x165 DUP8 MSTORE KECCAK256 DUP5 MLOAD SWAP7 DUP8 SWAP6 DUP7 SWAP4 PUSH2 0x27A3 DUP6 PUSH2 0x296C JUMP JUMPDEST DUP3 DUP5 SLOAD AND DUP6 MSTORE PUSH1 0x1 DUP5 ADD SLOAD SWAP2 DUP10 DUP7 ADD SWAP3 DUP4 MSTORE PUSH1 0x2 DUP6 ADD SLOAD SWAP1 DUP1 DUP8 ADD SWAP2 DUP3 MSTORE PUSH1 0x3 DUP7 ADD SLOAD SWAP3 PUSH1 0x60 DUP9 ADD SWAP4 DUP5 MSTORE DUP7 ADD SLOAD SWAP4 PUSH1 0x80 DUP9 ADD SWAP5 DUP6 MSTORE DUP12 PUSH1 0x5 DUP9 ADD SLOAD SWAP7 PUSH1 0xA0 DUP11 ADD SWAP8 DUP9 MSTORE DUP12 PUSH1 0x8 PUSH1 0xFF PUSH1 0x6 DUP13 ADD SLOAD AND SWAP11 PUSH1 0xC0 DUP14 ADD SWAP12 ISZERO ISZERO DUP13 MSTORE PUSH1 0xE0 PUSH2 0x280A PUSH1 0x7 DUP4 ADD PUSH2 0x29F9 JUMP JUMPDEST SWAP14 ADD SWAP13 DUP14 MSTORE ADD SLOAD SWAP14 ADD SWAP13 DUP14 MSTORE DUP4 MLOAD SWAP15 DUP16 SWAP15 DUP16 MSTORE MLOAD AND SWAP1 DUP14 ADD MSTORE MLOAD SWAP1 DUP12 ADD MSTORE MLOAD PUSH1 0x60 DUP11 ADD MSTORE MLOAD PUSH1 0x80 DUP10 ADD MSTORE MLOAD PUSH1 0xA0 DUP9 ADD MSTORE MLOAD PUSH1 0xC0 DUP8 ADD MSTORE MLOAD ISZERO ISZERO PUSH1 0xE0 DUP7 ADD MSTORE MLOAD PUSH2 0x120 DUP1 SWAP4 DUP7 ADD MSTORE PUSH2 0x140 DUP6 ADD SWAP1 PUSH2 0x290D JUMP JUMPDEST SWAP2 MLOAD SWAP1 DUP4 ADD MSTORE SUB SWAP1 RETURN JUMPDEST DUP5 SWAP2 CALLVALUE PUSH2 0xAE9 JUMPI PUSH1 0x20 CALLDATASIZE PUSH1 0x3 NOT ADD SLT PUSH2 0xAE9 JUMPI CALLDATALOAD PUSH4 0xFFFFFFFF PUSH1 0xE0 SHL DUP2 AND DUP1 SWAP2 SUB PUSH2 0xAE9 JUMPI PUSH1 0x20 SWAP3 POP PUSH4 0x7965DB0B PUSH1 0xE0 SHL DUP2 EQ SWAP1 DUP2 ISZERO PUSH2 0x28A8 JUMPI JUMPDEST POP ISZERO ISZERO DUP2 MSTORE RETURN JUMPDEST PUSH4 0x1FFC9A7 PUSH1 0xE0 SHL EQ SWAP1 POP DUP4 PUSH2 0x28A1 JUMP JUMPDEST PUSH1 0x4 CALLDATALOAD SWAP1 PUSH1 0x1 PUSH1 0x1 PUSH1 0xA0 SHL SUB DUP3 AND DUP3 SUB PUSH2 0x28CF JUMPI JUMP JUMPDEST PUSH1 0x0 DUP1 REVERT JUMPDEST PUSH1 0x24 CALLDATALOAD SWAP1 PUSH1 0x1 PUSH1 0x1 PUSH1 0xA0 SHL SUB DUP3 AND DUP3 SUB PUSH2 0x28CF JUMPI JUMP JUMPDEST PUSH1 0x0 JUMPDEST DUP4 DUP2 LT PUSH2 0x28FD JUMPI POP POP PUSH1 0x0 SWAP2 ADD MSTORE JUMP JUMPDEST DUP2 DUP2 ADD MLOAD DUP4 DUP3 ADD MSTORE PUSH1 0x20 ADD PUSH2 0x28ED JUMP JUMPDEST SWAP1 PUSH1 0x20 SWAP2 PUSH2 0x2926 DUP2 MLOAD DUP1 SWAP3 DUP2 DUP6 MSTORE DUP6 DUP1 DUP7 ADD SWAP2 ADD PUSH2 0x28EA JUMP JUMPDEST PUSH1 0x1F ADD PUSH1 0x1F NOT AND ADD ADD SWAP1 JUMP JUMPDEST SWAP1 PUSH1 0x1 DUP3 DUP2 SHR SWAP3 AND DUP1 ISZERO PUSH2 0x2962 JUMPI JUMPDEST PUSH1 0x20 DUP4 LT EQ PUSH2 0x294C JUMPI JUMP JUMPDEST PUSH4 0x4E487B71 PUSH1 0xE0 SHL PUSH1 0x0 MSTORE PUSH1 0x22 PUSH1 0x4 MSTORE PUSH1 0x24 PUSH1 0x0 REVERT JUMPDEST SWAP2 PUSH1 0x7F AND SWAP2 PUSH2 0x2941 JUMP JUMPDEST PUSH2 0x120 DUP2 ADD SWAP1 DUP2 LT PUSH8 0xFFFFFFFFFFFFFFFF DUP3 GT OR PUSH2 0x2989 JUMPI PUSH1 0x40 MSTORE JUMP JUMPDEST PUSH4 0x4E487B71 PUSH1 0xE0 SHL PUSH1 0x0 MSTORE PUSH1 0x41 PUSH1 0x4 MSTORE PUSH1 0x24 PUSH1 0x0 REVERT JUMPDEST PUSH1 0x60 DUP2 ADD SWAP1 DUP2 LT PUSH8 0xFFFFFFFFFFFFFFFF DUP3 GT OR PUSH2 0x2989 JUMPI PUSH1 0x40 MSTORE JUMP JUMPDEST PUSH1 0x80 DUP2 ADD SWAP1 DUP2 LT PUSH8 0xFFFFFFFFFFFFFFFF DUP3 GT OR PUSH2 0x2989 JUMPI PUSH1 0x40 MSTORE JUMP JUMPDEST SWAP1 PUSH1 0x1F DUP1 NOT SWAP2 ADD AND DUP2 ADD SWAP1 DUP2 LT PUSH8 0xFFFFFFFFFFFFFFFF DUP3 GT OR PUSH2 0x2989 JUMPI PUSH1 0x40 MSTORE JUMP JUMPDEST SWAP1 PUSH1 0x40 MLOAD SWAP2 DUP3 PUSH1 0x0 DUP3 SLOAD SWAP3 PUSH2 0x2A0D DUP5 PUSH2 0x2932 JUMP JUMPDEST SWAP1 DUP2 DUP5 MSTORE PUSH1 0x1 SWAP5 DUP6 DUP2 AND SWAP1 DUP2 PUSH1 0x0 EQ PUSH2 0x2A7C JUMPI POP PUSH1 0x1 EQ PUSH2 0x2A39 JUMPI JUMPDEST POP POP PUSH2 0x2A37 SWAP3 POP SUB DUP4 PUSH2 0x29D7 JUMP JUMPDEST JUMP JUMPDEST SWAP1 SWAP4 SWAP2 POP PUSH1 0x0 MSTORE PUSH1 0x20 SWAP1 DUP2 PUSH1 0x0 KECCAK256 SWAP4 PUSH1 0x0 SWAP2 JUMPDEST DUP2 DUP4 LT PUSH2 0x2A64 JUMPI POP POP PUSH2 0x2A37 SWAP4 POP DUP3 ADD ADD CODESIZE DUP1 PUSH2 0x2A29 JUMP JUMPDEST DUP6 SLOAD DUP9 DUP5 ADD DUP6 ADD MSTORE SWAP5 DUP6 ADD SWAP5 DUP8 SWAP5 POP SWAP2 DUP4 ADD SWAP2 PUSH2 0x2A4C JUMP JUMPDEST SWAP2 POP POP PUSH2 0x2A37 SWAP5 POP PUSH1 0x20 SWAP3 POP PUSH1 0xFF NOT AND DUP3 DUP5 ADD MSTORE ISZERO ISZERO PUSH1 0x5 SHL DUP3 ADD ADD CODESIZE DUP1 PUSH2 0x2A29 JUMP JUMPDEST SWAP2 DUP2 PUSH1 0x1F DUP5 ADD SLT ISZERO PUSH2 0x28CF JUMPI DUP3 CALLDATALOAD SWAP2 PUSH8 0xFFFFFFFFFFFFFFFF DUP4 GT PUSH2 0x28CF JUMPI PUSH1 0x20 DUP4 DUP2 DUP7 ADD SWAP6 ADD ADD GT PUSH2 0x28CF JUMPI JUMP JUMPDEST PUSH8 0xFFFFFFFFFFFFFFFF DUP2 GT PUSH2 0x2989 JUMPI PUSH1 0x1F ADD PUSH1 0x1F NOT AND PUSH1 0x20 ADD SWAP1 JUMP JUMPDEST SWAP3 SWAP2 SWAP3 PUSH2 0x2AF5 DUP3 PUSH2 0x2ACD JUMP JUMPDEST SWAP2 PUSH2 0x2B03 PUSH1 0x40 MLOAD SWAP4 DUP5 PUSH2 0x29D7 JUMP JUMPDEST DUP3 SWAP5 DUP2 DUP5 MSTORE DUP2 DUP4 ADD GT PUSH2 0x28CF JUMPI DUP3 DUP2 PUSH1 0x20 SWAP4 DUP5 PUSH1 0x0 SWAP7 ADD CALLDATACOPY ADD ADD MSTORE JUMP JUMPDEST PUSH2 0x166 DUP1 SLOAD DUP3 LT ISZERO PUSH2 0x2B57 JUMPI PUSH1 0x0 MSTORE PUSH32 0xA5A4C57B7184EC73D55BE4993773CB4EEF681BC86A28D0285CD66EFB50676A97 ADD SWAP1 PUSH1 0x0 SWAP1 JUMP JUMPDEST PUSH4 0x4E487B71 PUSH1 0xE0 SHL PUSH1 0x0 MSTORE PUSH1 0x32 PUSH1 0x4 MSTORE PUSH1 0x24 PUSH1 0x0 REVERT JUMPDEST CALLER PUSH1 0x0 SWAP1 DUP2 MSTORE PUSH32 0x2C01DC0041DFB6D4238A91E5A638996136AED16F837D5BEB45610732CF9BF4B0 PUSH1 0x20 SWAP1 DUP2 MSTORE PUSH1 0x40 DUP1 DUP4 KECCAK256 SLOAD SWAP1 SWAP3 PUSH32 0xA49807205CE4D355092EF5A8A18F56E8913CF4A201FBE287825B095693C21775 SWAP2 PUSH1 0xFF AND ISZERO PUSH2 0x2BD1 JUMPI POP POP POP POP JUMP JUMPDEST PUSH2 0x2BDA CALLER PUSH2 0x3241 JUMP JUMPDEST SWAP2 DUP5 MLOAD SWAP1 PUSH2 0x2BE7 DUP3 PUSH2 0x29BB JUMP JUMPDEST PUSH1 0x42 DUP3 MSTORE DUP5 DUP3 ADD SWAP3 PUSH1 0x60 CALLDATASIZE DUP6 CALLDATACOPY DUP3 MLOAD ISZERO PUSH2 0x2D35 JUMPI PUSH1 0x30 DUP5 MSTORE8 DUP3 MLOAD SWAP1 PUSH1 0x1 SWAP2 DUP3 LT ISZERO PUSH2 0x2D35 JUMPI SWAP1 PUSH1 0x78 PUSH1 0x21 DUP6 ADD MSTORE8 PUSH1 0x41 SWAP2 JUMPDEST DUP2 DUP4 GT PUSH2 0x2CC7 JUMPI POP POP POP PUSH2 0x2C97 JUMPI PUSH1 0x48 PUSH2 0x566 SWAP4 DUP7 SWAP4 PUSH2 0x2C7B SWAP4 PUSH2 0x2C6C SWAP9 MLOAD SWAP9 DUP10 SWAP4 PUSH23 0x20B1B1B2B9B9A1B7B73A3937B61D1030B1B1B7BAB73A1 PUSH1 0x4D SHL DUP11 DUP7 ADD MSTORE PUSH2 0x516 DUP2 MLOAD DUP1 SWAP3 DUP13 PUSH1 0x37 DUP10 ADD SWAP2 ADD PUSH2 0x28EA JUMP JUMPDEST ADD SUB PUSH1 0x28 DUP2 ADD DUP8 MSTORE ADD DUP6 PUSH2 0x29D7 JUMP JUMPDEST MLOAD SWAP3 DUP4 SWAP3 PUSH3 0x461BCD PUSH1 0xE5 SHL DUP5 MSTORE PUSH1 0x4 DUP5 ADD MSTORE PUSH1 0x24 DUP4 ADD SWAP1 PUSH2 0x290D JUMP JUMPDEST PUSH1 0x64 DUP5 DUP7 MLOAD SWAP1 PUSH3 0x461BCD PUSH1 0xE5 SHL DUP3 MSTORE DUP1 PUSH1 0x4 DUP4 ADD MSTORE PUSH1 0x24 DUP3 ADD MSTORE PUSH1 0x0 DUP1 MLOAD PUSH1 0x20 PUSH2 0x36CC DUP4 CODECOPY DUP2 MLOAD SWAP2 MSTORE PUSH1 0x44 DUP3 ADD MSTORE REVERT JUMPDEST SWAP1 SWAP2 SWAP3 PUSH1 0xF DUP2 AND PUSH1 0x10 DUP2 LT ISZERO PUSH2 0x2D21 JUMPI PUSH16 0x181899199A1A9B1B9C1CB0B131B232B3 PUSH1 0x81 SHL SWAP1 BYTE PUSH2 0x2CF7 DUP6 DUP8 PUSH2 0x3230 JUMP JUMPDEST MSTORE8 PUSH1 0x4 SHR SWAP3 DUP1 ISZERO PUSH2 0x2D0D JUMPI PUSH1 0x0 NOT ADD SWAP2 SWAP1 PUSH2 0x2C18 JUMP JUMPDEST PUSH4 0x4E487B71 PUSH1 0xE0 SHL DUP3 MSTORE PUSH1 0x11 PUSH1 0x4 MSTORE PUSH1 0x24 DUP3 REVERT JUMPDEST PUSH4 0x4E487B71 PUSH1 0xE0 SHL DUP4 MSTORE PUSH1 0x32 PUSH1 0x4 MSTORE PUSH1 0x24 DUP4 REVERT JUMPDEST PUSH4 0x4E487B71 PUSH1 0xE0 SHL DUP2 MSTORE PUSH1 0x32 PUSH1 0x4 MSTORE PUSH1 0x24 SWAP1 REVERT JUMPDEST CALLER PUSH1 0x0 SWAP1 DUP2 MSTORE PUSH32 0x61C6261E6978331C793EEE420D743E773864E0EC05CC862750E423D64F73E9F6 PUSH1 0x20 SWAP1 DUP2 MSTORE PUSH1 0x40 DUP1 DUP4 KECCAK256 SLOAD SWAP1 SWAP3 PUSH32 0x189AB7A9244DF0848122154315AF71FE140F3DB0FE014031783B0946B8C9D2E3 SWAP2 PUSH1 0xFF AND ISZERO PUSH2 0x2DAD JUMPI POP POP POP POP JUMP JUMPDEST PUSH2 0x2DB6 CALLER PUSH2 0x3241 JUMP JUMPDEST SWAP2 DUP5 MLOAD SWAP1 PUSH2 0x2DC3 DUP3 PUSH2 0x29BB JUMP JUMPDEST PUSH1 0x42 DUP3 MSTORE DUP5 DUP3 ADD SWAP3 PUSH1 0x60 CALLDATASIZE DUP6 CALLDATACOPY DUP3 MLOAD ISZERO PUSH2 0x2D35 JUMPI PUSH1 0x30 DUP5 MSTORE8 DUP3 MLOAD SWAP1 PUSH1 0x1 SWAP2 DUP3 LT ISZERO PUSH2 0x2D35 JUMPI SWAP1 PUSH1 0x78 PUSH1 0x21 DUP6 ADD MSTORE8 PUSH1 0x41 SWAP2 JUMPDEST DUP2 DUP4 GT PUSH2 0x2E48 JUMPI POP POP POP PUSH2 0x2C97 JUMPI PUSH1 0x48 PUSH2 0x566 SWAP4 DUP7 SWAP4 PUSH2 0x2C7B SWAP4 PUSH2 0x2C6C SWAP9 MLOAD SWAP9 DUP10 SWAP4 PUSH23 0x20B1B1B2B9B9A1B7B73A3937B61D1030B1B1B7BAB73A1 PUSH1 0x4D SHL DUP11 DUP7 ADD MSTORE PUSH2 0x516 DUP2 MLOAD DUP1 SWAP3 DUP13 PUSH1 0x37 DUP10 ADD SWAP2 ADD PUSH2 0x28EA JUMP JUMPDEST SWAP1 SWAP2 SWAP3 PUSH1 0xF DUP2 AND PUSH1 0x10 DUP2 LT ISZERO PUSH2 0x2D21 JUMPI PUSH16 0x181899199A1A9B1B9C1CB0B131B232B3 PUSH1 0x81 SHL SWAP1 BYTE PUSH2 0x2E78 DUP6 DUP8 PUSH2 0x3230 JUMP JUMPDEST MSTORE8 PUSH1 0x4 SHR SWAP3 DUP1 ISZERO PUSH2 0x2D0D JUMPI PUSH1 0x0 NOT ADD SWAP2 SWAP1 PUSH2 0x2DF4 JUMP JUMPDEST PUSH1 0x0 SWAP1 DUP1 DUP3 MSTORE PUSH1 0x20 SWAP1 PUSH1 0x65 DUP3 MSTORE PUSH1 0x40 SWAP3 DUP4 DUP2 KECCAK256 CALLER DUP3 MSTORE DUP4 MSTORE PUSH1 0xFF DUP5 DUP3 KECCAK256 SLOAD AND ISZERO PUSH2 0x2EB8 JUMPI POP POP POP POP JUMP JUMPDEST PUSH2 0x2EC1 CALLER PUSH2 0x3241 JUMP JUMPDEST SWAP2 DUP5 MLOAD SWAP1 PUSH2 0x2ECE DUP3 PUSH2 0x29BB JUMP JUMPDEST PUSH1 0x42 DUP3 MSTORE DUP5 DUP3 ADD SWAP3 PUSH1 0x60 CALLDATASIZE DUP6 CALLDATACOPY DUP3 MLOAD ISZERO PUSH2 0x2D35 JUMPI PUSH1 0x30 DUP5 MSTORE8 DUP3 MLOAD SWAP1 PUSH1 0x1 SWAP2 DUP3 LT ISZERO PUSH2 0x2D35 JUMPI SWAP1 PUSH1 0x78 PUSH1 0x21 DUP6 ADD MSTORE8 PUSH1 0x41 SWAP2 JUMPDEST DUP2 DUP4 GT PUSH2 0x2F53 JUMPI POP POP POP PUSH2 0x2C97 JUMPI PUSH1 0x48 PUSH2 0x566 SWAP4 DUP7 SWAP4 PUSH2 0x2C7B SWAP4 PUSH2 0x2C6C SWAP9 MLOAD SWAP9 DUP10 SWAP4 PUSH23 0x20B1B1B2B9B9A1B7B73A3937B61D1030B1B1B7BAB73A1 PUSH1 0x4D SHL DUP11 DUP7 ADD MSTORE PUSH2 0x516 DUP2 MLOAD DUP1 SWAP3 DUP13 PUSH1 0x37 DUP10 ADD SWAP2 ADD PUSH2 0x28EA JUMP JUMPDEST SWAP1 SWAP2 SWAP3 PUSH1 0xF DUP2 AND PUSH1 0x10 DUP2 LT ISZERO PUSH2 0x2D21 JUMPI PUSH16 0x181899199A1A9B1B9C1CB0B131B232B3 PUSH1 0x81 SHL SWAP1 BYTE PUSH2 0x2F83 DUP6 DUP8 PUSH2 0x3230 JUMP JUMPDEST MSTORE8 PUSH1 0x4 SHR SWAP3 DUP1 ISZERO PUSH2 0x2D0D JUMPI PUSH1 0x0 NOT ADD SWAP2 SWAP1 PUSH2 0x2EFF JUMP JUMPDEST SWAP1 PUSH1 0x0 SWAP2 DUP1 DUP4 MSTORE PUSH1 0x65 PUSH1 0x20 MSTORE PUSH1 0x40 DUP4 KECCAK256 SWAP2 PUSH1 0x1 DUP1 PUSH1 0xA0 SHL SUB AND SWAP2 DUP3 DUP5 MSTORE PUSH1 0x20 MSTORE PUSH1 0xFF PUSH1 0x40 DUP5 KECCAK256 SLOAD AND PUSH2 0x2FCA JUMPI POP POP POP JUMP JUMPDEST DUP1 DUP4 MSTORE PUSH1 0x65 PUSH1 0x20 MSTORE PUSH1 0x40 DUP4 KECCAK256 DUP3 DUP5 MSTORE PUSH1 0x20 MSTORE PUSH1 0x40 DUP4 KECCAK256 PUSH1 0xFF NOT DUP2 SLOAD AND SWAP1 SSTORE PUSH32 0xF6391F5C32D9C69D2A47EA670B442974B53935D1EDC7FD64EB21E047A839171B CALLER SWAP4 DUP1 LOG4 JUMP JUMPDEST ISZERO PUSH2 0x3016 JUMPI JUMP JUMPDEST PUSH1 0x40 MLOAD PUSH3 0x461BCD PUSH1 0xE5 SHL DUP2 MSTORE PUSH1 0x20 PUSH1 0x4 DUP3 ADD MSTORE PUSH1 0x2C PUSH1 0x24 DUP3 ADD MSTORE PUSH32 0x46756E6374696F6E206D7573742062652063616C6C6564207468726F75676820 PUSH1 0x44 DUP3 ADD MSTORE PUSH12 0x19195B1959D85D1958D85B1B PUSH1 0xA2 SHL PUSH1 0x64 DUP3 ADD MSTORE PUSH1 0x84 SWAP1 REVERT JUMPDEST ISZERO PUSH2 0x3077 JUMPI JUMP JUMPDEST PUSH1 0x40 MLOAD PUSH3 0x461BCD PUSH1 0xE5 SHL DUP2 MSTORE PUSH1 0x20 PUSH1 0x4 DUP3 ADD MSTORE PUSH1 0x2C PUSH1 0x24 DUP3 ADD MSTORE PUSH32 0x46756E6374696F6E206D7573742062652063616C6C6564207468726F75676820 PUSH1 0x44 DUP3 ADD MSTORE PUSH12 0x6163746976652070726F7879 PUSH1 0xA0 SHL PUSH1 0x64 DUP3 ADD MSTORE PUSH1 0x84 SWAP1 REVERT JUMPDEST DUP1 EXTCODESIZE ISZERO PUSH2 0x3106 JUMPI PUSH1 0x0 DUP1 MLOAD PUSH1 0x20 PUSH2 0x36EC DUP4 CODECOPY DUP2 MLOAD SWAP2 MSTORE DUP1 SLOAD PUSH1 0x1 PUSH1 0x1 PUSH1 0xA0 SHL SUB NOT AND PUSH1 0x1 PUSH1 0x1 PUSH1 0xA0 SHL SUB SWAP1 SWAP3 AND SWAP2 SWAP1 SWAP2 OR SWAP1 SSTORE JUMP JUMPDEST PUSH1 0x40 MLOAD PUSH3 0x461BCD PUSH1 0xE5 SHL DUP2 MSTORE PUSH1 0x20 PUSH1 0x4 DUP3 ADD MSTORE PUSH1 0x2D PUSH1 0x24 DUP3 ADD MSTORE PUSH32 0x455243313936373A206E657720696D706C656D656E746174696F6E206973206E PUSH1 0x44 DUP3 ADD MSTORE PUSH13 0x1BDD08184818DBDB9D1C9858DD PUSH1 0x9A SHL PUSH1 0x64 DUP3 ADD MSTORE PUSH1 0x84 SWAP1 REVERT JUMPDEST SWAP2 SWAP3 SWAP1 ISZERO PUSH2 0x31C3 JUMPI POP DUP2 MLOAD ISZERO PUSH2 0x3175 JUMPI POP SWAP1 JUMP JUMPDEST EXTCODESIZE ISZERO PUSH2 0x317E JUMPI SWAP1 JUMP JUMPDEST PUSH1 0x40 MLOAD PUSH3 0x461BCD PUSH1 0xE5 SHL DUP2 MSTORE PUSH1 0x20 PUSH1 0x4 DUP3 ADD MSTORE PUSH1 0x1D PUSH1 0x24 DUP3 ADD MSTORE PUSH32 0x416464726573733A2063616C6C20746F206E6F6E2D636F6E7472616374000000 PUSH1 0x44 DUP3 ADD MSTORE PUSH1 0x64 SWAP1 REVERT JUMPDEST DUP3 MLOAD SWAP1 SWAP2 POP ISZERO PUSH2 0x31D6 JUMPI POP DUP1 MLOAD SWAP1 PUSH1 0x20 ADD REVERT JUMPDEST PUSH1 0x40 MLOAD PUSH3 0x461BCD PUSH1 0xE5 SHL DUP2 MSTORE PUSH1 0x20 PUSH1 0x4 DUP3 ADD MSTORE SWAP1 DUP2 SWAP1 PUSH2 0x566 SWAP1 PUSH1 0x24 DUP4 ADD SWAP1 PUSH2 0x290D JUMP JUMPDEST DUP2 DUP2 MUL SWAP3 SWAP2 DUP2 ISZERO SWAP2 DUP5 DIV EQ OR ISZERO PUSH2 0x320D JUMPI JUMP JUMPDEST PUSH4 0x4E487B71 PUSH1 0xE0 SHL PUSH1 0x0 MSTORE PUSH1 0x11 PUSH1 0x4 MSTORE PUSH1 0x24 PUSH1 0x0 REVERT JUMPDEST SWAP2 SWAP1 DUP3 ADD DUP1 SWAP3 GT PUSH2 0x320D JUMPI JUMP JUMPDEST SWAP1 DUP2 MLOAD DUP2 LT ISZERO PUSH2 0x2B57 JUMPI ADD PUSH1 0x20 ADD SWAP1 JUMP JUMPDEST PUSH1 0x40 MLOAD SWAP1 PUSH2 0x324E DUP3 PUSH2 0x299F JUMP JUMPDEST PUSH1 0x2A DUP3 MSTORE PUSH1 0x20 DUP3 ADD PUSH1 0x40 CALLDATASIZE DUP3 CALLDATACOPY DUP3 MLOAD ISZERO PUSH2 0x2B57 JUMPI PUSH1 0x30 SWAP1 MSTORE8 DUP2 MLOAD PUSH1 0x1 SWAP1 DUP2 LT ISZERO PUSH2 0x2B57 JUMPI PUSH1 0x78 PUSH1 0x21 DUP5 ADD MSTORE8 PUSH1 0x29 SWAP1 JUMPDEST DUP1 DUP3 GT PUSH2 0x32BF JUMPI POP POP PUSH2 0x328D JUMPI SWAP1 JUMP JUMPDEST PUSH1 0x64 PUSH1 0x40 MLOAD PUSH3 0x461BCD PUSH1 0xE5 SHL DUP2 MSTORE PUSH1 0x20 PUSH1 0x4 DUP3 ADD MSTORE PUSH1 0x20 PUSH1 0x24 DUP3 ADD MSTORE PUSH1 0x0 DUP1 MLOAD PUSH1 0x20 PUSH2 0x36CC DUP4 CODECOPY DUP2 MLOAD SWAP2 MSTORE PUSH1 0x44 DUP3 ADD MSTORE REVERT JUMPDEST SWAP1 SWAP2 PUSH1 0xF DUP2 AND PUSH1 0x10 DUP2 LT ISZERO PUSH2 0x3318 JUMPI PUSH16 0x181899199A1A9B1B9C1CB0B131B232B3 PUSH1 0x81 SHL SWAP1 BYTE PUSH2 0x32EE DUP5 DUP7 PUSH2 0x3230 JUMP JUMPDEST MSTORE8 PUSH1 0x4 SHR SWAP2 DUP1 ISZERO PUSH2 0x3303 JUMPI PUSH1 0x0 NOT ADD SWAP1 PUSH2 0x327D JUMP JUMPDEST PUSH1 0x24 PUSH1 0x0 PUSH4 0x4E487B71 PUSH1 0xE0 SHL DUP2 MSTORE PUSH1 0x11 PUSH1 0x4 MSTORE REVERT JUMPDEST PUSH1 0x24 PUSH1 0x0 PUSH4 0x4E487B71 PUSH1 0xE0 SHL DUP2 MSTORE PUSH1 0x32 PUSH1 0x4 MSTORE REVERT JUMPDEST ISZERO PUSH2 0x3334 JUMPI JUMP JUMPDEST PUSH1 0x40 MLOAD PUSH3 0x461BCD PUSH1 0xE5 SHL DUP2 MSTORE PUSH1 0x20 PUSH1 0x4 DUP3 ADD MSTORE PUSH1 0x2B PUSH1 0x24 DUP3 ADD MSTORE PUSH32 0x496E697469616C697A61626C653A20636F6E7472616374206973206E6F742069 PUSH1 0x44 DUP3 ADD MSTORE PUSH11 0x6E697469616C697A696E67 PUSH1 0xA8 SHL PUSH1 0x64 DUP3 ADD MSTORE PUSH1 0x84 SWAP1 REVERT JUMPDEST ISZERO PUSH2 0x3394 JUMPI JUMP JUMPDEST PUSH1 0x40 MLOAD PUSH3 0x461BCD PUSH1 0xE5 SHL DUP2 MSTORE PUSH1 0x20 PUSH1 0x4 DUP3 ADD MSTORE PUSH1 0x24 DUP1 DUP3 ADD MSTORE PUSH32 0x4E6F206E61746976652063757272656E637920666F7220746F6B656E20737461 PUSH1 0x44 DUP3 ADD MSTORE PUSH4 0x6B696E67 PUSH1 0xE0 SHL PUSH1 0x64 DUP3 ADD MSTORE PUSH1 0x84 SWAP1 REVERT JUMPDEST SWAP1 DUP2 PUSH1 0x20 SWAP2 SUB SLT PUSH2 0x28CF JUMPI MLOAD DUP1 ISZERO ISZERO DUP2 SUB PUSH2 0x28CF JUMPI SWAP1 JUMP JUMPDEST ISZERO PUSH2 0x3404 JUMPI JUMP JUMPDEST PUSH1 0x40 MLOAD PUSH3 0x461BCD PUSH1 0xE5 SHL DUP2 MSTORE PUSH1 0x20 PUSH1 0x4 DUP3 ADD MSTORE PUSH1 0x15 PUSH1 0x24 DUP3 ADD MSTORE PUSH21 0x14DD185AD9481D1C985B9CD9995C8819985A5B1959 PUSH1 0x5A SHL PUSH1 0x44 DUP3 ADD MSTORE PUSH1 0x64 SWAP1 REVERT JUMPDEST SWAP2 SWAP3 PUSH1 0x60 SWAP4 DUP2 SWAP3 DUP5 MSTORE PUSH1 0x40 PUSH1 0x20 DUP6 ADD MSTORE DUP2 PUSH1 0x40 DUP6 ADD MSTORE DUP5 DUP5 ADD CALLDATACOPY PUSH1 0x0 DUP3 DUP3 ADD DUP5 ADD MSTORE PUSH1 0x1F ADD PUSH1 0x1F NOT AND ADD ADD SWAP1 JUMP JUMPDEST PUSH1 0xFF PUSH1 0x97 SLOAD AND PUSH2 0x347B JUMPI JUMP JUMPDEST PUSH1 0x40 MLOAD PUSH3 0x461BCD PUSH1 0xE5 SHL DUP2 MSTORE PUSH1 0x20 PUSH1 0x4 DUP3 ADD MSTORE PUSH1 0x10 PUSH1 0x24 DUP3 ADD MSTORE PUSH16 0x14185D5CD8589B194E881C185D5CD959 PUSH1 0x82 SHL PUSH1 0x44 DUP3 ADD MSTORE PUSH1 0x64 SWAP1 REVERT JUMPDEST PUSH2 0x12D PUSH1 0x2 DUP2 SLOAD EQ PUSH2 0x34C5 JUMPI PUSH1 0x2 SWAP1 SSTORE JUMP JUMPDEST PUSH1 0x40 MLOAD PUSH3 0x461BCD PUSH1 0xE5 SHL DUP2 MSTORE PUSH1 0x20 PUSH1 0x4 DUP3 ADD MSTORE PUSH1 0x1F PUSH1 0x24 DUP3 ADD MSTORE PUSH32 0x5265656E7472616E637947756172643A207265656E7472616E742063616C6C00 PUSH1 0x44 DUP3 ADD MSTORE PUSH1 0x64 SWAP1 REVERT JUMPDEST ISZERO PUSH2 0x3511 JUMPI JUMP JUMPDEST PUSH1 0x40 MLOAD PUSH3 0x461BCD PUSH1 0xE5 SHL DUP2 MSTORE PUSH1 0x20 PUSH1 0x4 DUP3 ADD MSTORE PUSH1 0x13 PUSH1 0x24 DUP3 ADD MSTORE PUSH19 0x5665726966696572206E6F7420616374697665 PUSH1 0x68 SHL PUSH1 0x44 DUP3 ADD MSTORE PUSH1 0x64 SWAP1 REVERT JUMPDEST SWAP2 SWAP1 DUP3 SUB SWAP2 DUP3 GT PUSH2 0x320D JUMPI JUMP JUMPDEST PUSH1 0x0 NOT DUP2 EQ PUSH2 0x320D JUMPI PUSH1 0x1 ADD SWAP1 JUMP JUMPDEST ISZERO PUSH2 0x356F JUMPI JUMP JUMPDEST PUSH1 0x40 MLOAD PUSH3 0x461BCD PUSH1 0xE5 SHL DUP2 MSTORE PUSH1 0x20 PUSH1 0x4 DUP3 ADD MSTORE PUSH1 0xF PUSH1 0x24 DUP3 ADD MSTORE PUSH15 0x151C985B9CD9995C8819985A5B1959 PUSH1 0x8A SHL PUSH1 0x44 DUP3 ADD MSTORE PUSH1 0x64 SWAP1 REVERT JUMPDEST PUSH8 0xFFFFFFFFFFFFFFFF DUP2 GT PUSH2 0x2989 JUMPI PUSH1 0x5 SHL PUSH1 0x20 ADD SWAP1 JUMP JUMPDEST PUSH1 0x1 PUSH1 0x1 PUSH1 0xA0 SHL SUB AND PUSH1 0x0 DUP2 DUP2 MSTORE PUSH2 0x165 PUSH1 0x20 DUP2 SWAP1 MSTORE PUSH1 0x40 DUP3 KECCAK256 PUSH1 0x3 DUP2 ADD SLOAD PUSH1 0x4 DUP3 ADD SLOAD SWAP1 SWAP4 SWAP3 SWAP1 SWAP2 DUP5 ISZERO PUSH2 0x36A3 JUMPI PUSH1 0x2 ADD SLOAD SWAP4 PUSH2 0x2710 SWAP3 DUP4 DUP2 MUL SWAP1 DUP1 DUP3 DIV DUP6 EQ SWAP1 ISZERO OR ISZERO PUSH2 0x368F JUMPI DIV PUSH1 0x7 DUP6 MUL DUP6 DUP2 DIV PUSH1 0x7 EQ DUP7 ISZERO OR ISZERO PUSH2 0x368F JUMPI PUSH1 0x3 DUP3 MUL SWAP2 DUP1 DUP4 DIV PUSH1 0x3 EQ SWAP1 ISZERO OR ISZERO PUSH2 0x368F JUMPI SWAP2 PUSH1 0xA PUSH2 0x3660 PUSH32 0x5B88A2E3FC1A53234357AB78C104DF11C33CCFA79886793654565AD70B8AFB6E SWAP8 SWAP6 SWAP4 PUSH1 0x40 SWAP8 SWAP6 PUSH2 0x3223 JUMP JUMPDEST DIV SWAP2 DUP1 DUP4 GT PUSH2 0x3687 JUMPI JUMPDEST POP DUP5 DUP4 PUSH1 0x2 SWAP3 DUP10 DUP6 SWAP7 MSTORE PUSH1 0x20 MSTORE KECCAK256 ADD SSTORE DUP3 MLOAD SWAP2 DUP3 MSTORE PUSH1 0x20 DUP3 ADD MSTORE LOG2 JUMP JUMPDEST SWAP2 POP DUP5 PUSH2 0x366A JUMP JUMPDEST PUSH4 0x4E487B71 PUSH1 0xE0 SHL DUP6 MSTORE PUSH1 0x11 PUSH1 0x4 MSTORE PUSH1 0x24 DUP6 REVERT JUMPDEST POP POP POP POP POP POP JUMP INVALID 0x2F DUP8 DUP9 GT PUSH31 0x7EFF1D82E926EC794901D17C78024A50270940304540A733656F0D53747269 PUSH15 0x67733A20686578206C656E67746820 PUSH10 0x6E73756666696369656E PUSH21 0x360894A13BA1A3210667C828492DB98DCA3E2076CC CALLDATACOPY CALLDATALOAD 0xA9 KECCAK256 LOG3 0xCA POP 0x5D CODESIZE 0x2B 0xBC LOG2 PUSH5 0x6970667358 0x22 SLT KECCAK256 COINBASE TIMESTAMP 0xBF PUSH21 0xD3A0593D58C222BA4EF93FAB2CAAE91C7363C145C8 0xC4 PUSH26 0xA0E8D5141A64736F6C6343000813003300000000000000000000 "},"methodIdentifiers":{"ADMIN_ROLE()":"75b238fc","DEFAULT_ADMIN_ROLE()":"a217fddf","SLASHER_ROLE()":"5095af64","UPGRADER_ROLE()":"f72c0d8b","baseVerificationFee()":"0de3e665","calculateVerificationFee(address)":"dbda75aa","checkInactiveVerifiers()":"42efe0db","completeVerification(bytes32,address,bool)":"3fdd6b49","emergencyWithdraw()":"db2e21bc","getActiveVerifiers()":"6baec215","getRoleAdmin(bytes32)":"248a9ca3","getVerifier(address)":"059ce95d","grantRole(bytes32,address)":"2f2ff15d","hasRole(bytes32,address)":"91d14854","inactivityThreshold()":"9ec86276","increaseStake()":"d9e257ef","initialize(address,uint256,uint256,address)":"9e3d87cd","minimumStake()":"ec5ffac2","pause()":"8456cb59","paused()":"5c975abb","proxiableUUID()":"52d1902d","registerVerifier(string)":"16cb4218","renounceRole(bytes32,address)":"36568abe","reputationMultiplier()":"bb55963e","revokeRole(bytes32,address)":"d547741f","slashVerifier(address,string)":"f65ecc21","slashingPercentage()":"69666a49","stakingToken()":"72f702f3","supportsInterface(bytes4)":"01ffc9a7","unpause()":"3f4ba83a","updateBaseVerificationFee(uint256)":"eb0e6049","updateInactivityThreshold(uint256)":"be3f2280","updateMinimumStake(uint256)":"4c41e880","updateReputationMultiplier(uint256)":"267ae0a4","updateSlashingPercentage(uint256)":"cf428f23","upgradeTo(address)":"3659cfe6","upgradeToAndCall(address,bytes)":"4f1ef286","verificationRequests(bytes32)":"0f3908c8","verifierEarnings(address)":"e6db0707","verifierList(uint256)":"57762ddd","verifiers(address)":"6c824487","withdrawEarnings()":"b73c6ce9"}},"storageLayout":{"storage":[{"astId":810,"contract":"contracts/VerifierMarketplace.sol:VerifierMarketplace","label":"_initialized","offset":0,"slot":"0","type":"t_uint8"},{"astId":813,"contract":"contracts/VerifierMarketplace.sol:VerifierMarketplace","label":"_initializing","offset":1,"slot":"0","type":"t_bool"},{"astId":2993,"contract":"contracts/VerifierMarketplace.sol:VerifierMarketplace","label":"__gap","offset":0,"slot":"1","type":"t_array(t_uint256)50_storage"},{"astId":3451,"contract":"contracts/VerifierMarketplace.sol:VerifierMarketplace","label":"__gap","offset":0,"slot":"51","type":"t_array(t_uint256)50_storage"},{"astId":28,"contract":"contracts/VerifierMarketplace.sol:VerifierMarketplace","label":"_roles","offset":0,"slot":"101","type":"t_mapping(t_bytes32,t_struct(RoleData)23_storage)"},{"astId":335,"contract":"contracts/VerifierMarketplace.sol:VerifierMarketplace","label":"__gap","offset":0,"slot":"102","type":"t_array(t_uint256)49_storage"},{"astId":1131,"contract":"contracts/VerifierMarketplace.sol:VerifierMarketplace","label":"_paused","offset":0,"slot":"151","type":"t_bool"},{"astId":1236,"contract":"contracts/VerifierMarketplace.sol:VerifierMarketplace","label":"__gap","offset":0,"slot":"152","type":"t_array(t_uint256)49_storage"},{"astId":792,"contract":"contracts/VerifierMarketplace.sol:VerifierMarketplace","label":"__gap","offset":0,"slot":"201","type":"t_array(t_uint256)50_storage"},{"astId":1108,"contract":"contracts/VerifierMarketplace.sol:VerifierMarketplace","label":"__gap","offset":0,"slot":"251","type":"t_array(t_uint256)50_storage"},{"astId":1252,"contract":"contracts/VerifierMarketplace.sol:VerifierMarketplace","label":"_status","offset":0,"slot":"301","type":"t_uint256"},{"astId":1321,"contract":"contracts/VerifierMarketplace.sol:VerifierMarketplace","label":"__gap","offset":0,"slot":"302","type":"t_array(t_uint256)49_storage"},{"astId":7730,"contract":"contracts/VerifierMarketplace.sol:VerifierMarketplace","label":"minimumStake","offset":0,"slot":"351","type":"t_uint256"},{"astId":7732,"contract":"contracts/VerifierMarketplace.sol:VerifierMarketplace","label":"baseVerificationFee","offset":0,"slot":"352","type":"t_uint256"},{"astId":7734,"contract":"contracts/VerifierMarketplace.sol:VerifierMarketplace","label":"reputationMultiplier","offset":0,"slot":"353","type":"t_uint256"},{"astId":7736,"contract":"contracts/VerifierMarketplace.sol:VerifierMarketplace","label":"slashingPercentage","offset":0,"slot":"354","type":"t_uint256"},{"astId":7738,"contract":"contracts/VerifierMarketplace.sol:VerifierMarketplace","label":"inactivityThreshold","offset":0,"slot":"355","type":"t_uint256"},{"astId":7741,"contract":"contracts/VerifierMarketplace.sol:VerifierMarketplace","label":"stakingToken","offset":0,"slot":"356","type":"t_contract(IERC20)4513"},{"astId":7780,"contract":"contracts/VerifierMarketplace.sol:VerifierMarketplace","label":"verifiers","offset":0,"slot":"357","type":"t_mapping(t_address,t_struct(Verifier)7760_storage)"},{"astId":7783,"contract":"contracts/VerifierMarketplace.sol:VerifierMarketplace","label":"verifierList","offset":0,"slot":"358","type":"t_array(t_address)dyn_storage"},{"astId":7788,"contract":"contracts/VerifierMarketplace.sol:VerifierMarketplace","label":"verificationRequests","offset":0,"slot":"359","type":"t_mapping(t_bytes32,t_struct(VerificationRequest)7775_storage)"},{"astId":7792,"contract":"contracts/VerifierMarketplace.sol:VerifierMarketplace","label":"verifierEarnings","offset":0,"slot":"360","type":"t_mapping(t_address,t_uint256)"}],"types":{"t_address":{"encoding":"inplace","label":"address","numberOfBytes":"20"},"t_array(t_address)dyn_storage":{"base":"t_address","encoding":"dynamic_array","label":"address[]","numberOfBytes":"32"},"t_array(t_uint256)49_storage":{"base":"t_uint256","encoding":"inplace","label":"uint256[49]","numberOfBytes":"1568"},"t_array(t_uint256)50_storage":{"base":"t_uint256","encoding":"inplace","label":"uint256[50]","numberOfBytes":"1600"},"t_bool":{"encoding":"inplace","label":"bool","numberOfBytes":"1"},"t_bytes32":{"encoding":"inplace","label":"bytes32","numberOfBytes":"32"},"t_contract(IERC20)4513":{"encoding":"inplace","label":"contract IERC20","numberOfBytes":"20"},"t_mapping(t_address,t_bool)":{"encoding":"mapping","key":"t_address","label":"mapping(address => bool)","numberOfBytes":"32","value":"t_bool"},"t_mapping(t_address,t_struct(Verifier)7760_storage)":{"encoding":"mapping","key":"t_address","label":"mapping(address => struct VerifierMarketplace.Verifier)","numberOfBytes":"32","value":"t_struct(Verifier)7760_storage"},"t_mapping(t_address,t_uint256)":{"encoding":"mapping","key":"t_address","label":"mapping(address => uint256)","numberOfBytes":"32","value":"t_uint256"},"t_mapping(t_bytes32,t_struct(RoleData)23_storage)":{"encoding":"mapping","key":"t_bytes32","label":"mapping(bytes32 => struct AccessControlUpgradeable.RoleData)","numberOfBytes":"32","value":"t_struct(RoleData)23_storage"},"t_mapping(t_bytes32,t_struct(VerificationRequest)7775_storage)":{"encoding":"mapping","key":"t_bytes32","label":"mapping(bytes32 => struct VerifierMarketplace.VerificationRequest)","numberOfBytes":"32","value":"t_struct(VerificationRequest)7775_storage"},"t_string_storage":{"encoding":"bytes","label":"string","numberOfBytes":"32"},"t_struct(RoleData)23_storage":{"encoding":"inplace","label":"struct AccessControlUpgradeable.RoleData","members":[{"astId":20,"contract":"contracts/VerifierMarketplace.sol:VerifierMarketplace","label":"members","offset":0,"slot":"0","type":"t_mapping(t_address,t_bool)"},{"astId":22,"contract":"contracts/VerifierMarketplace.sol:VerifierMarketplace","label":"adminRole","offset":0,"slot":"1","type":"t_bytes32"}],"numberOfBytes":"64"},"t_struct(VerificationRequest)7775_storage":{"encoding":"inplace","label":"struct VerifierMarketplace.VerificationRequest","members":[{"astId":7762,"contract":"contracts/VerifierMarketplace.sol:VerifierMarketplace","label":"requester","offset":0,"slot":"0","type":"t_address"},{"astId":7764,"contract":"contracts/VerifierMarketplace.sol:VerifierMarketplace","label":"assignedVerifier","offset":0,"slot":"1","type":"t_address"},{"astId":7766,"contract":"contracts/VerifierMarketplace.sol:VerifierMarketplace","label":"fee","offset":0,"slot":"2","type":"t_uint256"},{"astId":7768,"contract":"contracts/VerifierMarketplace.sol:VerifierMarketplace","label":"timestamp","offset":0,"slot":"3","type":"t_uint256"},{"astId":7770,"contract":"contracts/VerifierMarketplace.sol:VerifierMarketplace","label":"completed","offset":0,"slot":"4","type":"t_bool"},{"astId":7772,"contract":"contracts/VerifierMarketplace.sol:VerifierMarketplace","label":"successful","offset":1,"slot":"4","type":"t_bool"},{"astId":7774,"contract":"contracts/VerifierMarketplace.sol:VerifierMarketplace","label":"requestData","offset":0,"slot":"5","type":"t_string_storage"}],"numberOfBytes":"192"},"t_struct(Verifier)7760_storage":{"encoding":"inplace","label":"struct VerifierMarketplace.Verifier","members":[{"astId":7743,"contract":"contracts/VerifierMarketplace.sol:VerifierMarketplace","label":"verifierAddress","offset":0,"slot":"0","type":"t_address"},{"astId":7745,"contract":"contracts/VerifierMarketplace.sol:VerifierMarketplace","label":"stakedAmount","offset":0,"slot":"1","type":"t_uint256"},{"astId":7747,"contract":"contracts/VerifierMarketplace.sol:VerifierMarketplace","label":"reputationScore","offset":0,"slot":"2","type":"t_uint256"},{"astId":7749,"contract":"contracts/VerifierMarketplace.sol:VerifierMarketplace","label":"totalVerifications","offset":0,"slot":"3","type":"t_uint256"},{"astId":7751,"contract":"contracts/VerifierMarketplace.sol:VerifierMarketplace","label":"successfulVerifications","offset":0,"slot":"4","type":"t_uint256"},{"astId":7753,"contract":"contracts/VerifierMarketplace.sol:VerifierMarketplace","label":"lastActivityTimestamp","offset":0,"slot":"5","type":"t_uint256"},{"astId":7755,"contract":"contracts/VerifierMarketplace.sol:VerifierMarketplace","label":"isActive","offset":0,"slot":"6","type":"t_bool"},{"astId":7757,"contract":"contracts/VerifierMarketplace.sol:VerifierMarketplace","label":"metadata","offset":0,"slot":"7","type":"t_string_storage"},{"astId":7759,"contract":"contracts/VerifierMarketplace.sol:VerifierMarketplace","label":"registrationTimestamp","offset":0,"slot":"8","type":"t_uint256"}],"numberOfBytes":"288"},"t_uint256":{"encoding":"inplace","label":"uint256","numberOfBytes":"32"},"t_uint8":{"encoding":"inplace","label":"uint8","numberOfBytes":"1"}}}}}}