{"contracts/VerifierMarketplace.sol":{"VerifierMarketplace":{"abi":[{"inputs":[],"stateMutability":"nonpayable","type":"constructor"},{"anonymous":false,"inputs":[{"indexed":false,"internalType":"address","name":"previousAdmin","type":"address"},{"indexed":false,"internalType":"address","name":"newAdmin","type":"address"}],"name":"AdminChanged","type":"event"},{"anonymous":false,"inputs":[{"indexed":true,"internalType":"address","name":"beacon","type":"address"}],"name":"BeaconUpgraded","type":"event"},{"anonymous":false,"inputs":[{"indexed":true,"internalType":"address","name":"verifier","type":"address"},{"indexed":false,"internalType":"uint256","name":"amount","type":"uint256"}],"name":"EarningsWithdrawn","type":"event"},{"anonymous":false,"inputs":[{"indexed":false,"internalType":"uint8","name":"version","type":"uint8"}],"name":"Initialized","type":"event"},{"anonymous":false,"inputs":[{"indexed":false,"internalType":"address","name":"account","type":"address"}],"name":"Paused","type":"event"},{"anonymous":false,"inputs":[{"indexed":true,"internalType":"address","name":"verifier","type":"address"},{"indexed":false,"internalType":"uint256","name":"oldScore","type":"uint256"},{"indexed":false,"internalType":"uint256","name":"newScore","type":"uint256"}],"name":"ReputationUpdated","type":"event"},{"anonymous":false,"inputs":[{"indexed":true,"internalType":"bytes32","name":"role","type":"bytes32"},{"indexed":true,"internalType":"bytes32","name":"previousAdminRole","type":"bytes32"},{"indexed":true,"internalType":"bytes32","name":"newAdminRole","type":"bytes32"}],"name":"RoleAdminChanged","type":"event"},{"anonymous":false,"inputs":[{"indexed":true,"internalType":"bytes32","name":"role","type":"bytes32"},{"indexed":true,"internalType":"address","name":"account","type":"address"},{"indexed":true,"internalType":"address","name":"sender","type":"address"}],"name":"RoleGranted","type":"event"},{"anonymous":false,"inputs":[{"indexed":true,"internalType":"bytes32","name":"role","type":"bytes32"},{"indexed":true,"internalType":"address","name":"account","type":"address"},{"indexed":true,"internalType":"address","name":"sender","type":"address"}],"name":"RoleRevoked","type":"event"},{"anonymous":false,"inputs":[{"indexed":false,"internalType":"address","name":"account","type":"address"}],"name":"Unpaused","type":"event"},{"anonymous":false,"inputs":[{"indexed":true,"internalType":"address","name":"implementation","type":"address"}],"name":"Upgraded","type":"event"},{"anonymous":false,"inputs":[{"indexed":true,"internalType":"bytes32","name":"requestId","type":"bytes32"},{"indexed":true,"internalType":"address","name":"verifier","type":"address"},{"indexed":false,"internalType":"bool","name":"successful","type":"bool"},{"indexed":false,"internalType":"uint256","name":"fee","type":"uint256"}],"name":"VerificationCompleted","type":"event"},{"anonymous":false,"inputs":[{"indexed":true,"internalType":"address","name":"verifier","type":"address"},{"indexed":false,"internalType":"string","name":"reason","type":"string"}],"name":"VerifierDeactivated","type":"event"},{"anonymous":false,"inputs":[{"indexed":true,"internalType":"address","name":"verifier","type":"address"},{"indexed":false,"internalType":"uint256","name":"stakedAmount","type":"uint256"},{"indexed":false,"internalType":"string","name":"metadata","type":"string"}],"name":"VerifierRegistered","type":"event"},{"anonymous":false,"inputs":[{"indexed":true,"internalType":"address","name":"verifier","type":"address"},{"indexed":false,"internalType":"uint256","name":"slashedAmount","type":"uint256"},{"indexed":false,"internalType":"string","name":"reason","type":"string"}],"name":"VerifierSlashed","type":"event"},{"anonymous":false,"inputs":[{"indexed":true,"internalType":"address","name":"verifier","type":"address"},{"indexed":false,"internalType":"uint256","name":"additionalAmount","type":"uint256"},{"indexed":false,"internalType":"uint256","name":"totalStake","type":"uint256"}],"name":"VerifierStakeIncreased","type":"event"},{"inputs":[],"name":"ADMIN_ROLE","outputs":[{"internalType":"bytes32","name":"","type":"bytes32"}],"stateMutability":"view","type":"function"},{"inputs":[],"name":"DEFAULT_ADMIN_ROLE","outputs":[{"internalType":"bytes32","name":"","type":"bytes32"}],"stateMutability":"view","type":"function"},{"inputs":[],"name":"SLASHER_ROLE","outputs":[{"internalType":"bytes32","name":"","type":"bytes32"}],"stateMutability":"view","type":"function"},{"inputs":[],"name":"UPGRADER_ROLE","outputs":[{"internalType":"bytes32","name":"","type":"bytes32"}],"stateMutability":"view","type":"function"},{"inputs":[],"name":"baseVerificationFee","outputs":[{"internalType":"uint256","name":"","type":"uint256"}],"stateMutability":"view","type":"function"},{"inputs":[{"internalType":"address","name":"verifier","type":"address"}],"name":"calculateVerificationFee","outputs":[{"internalType":"uint256","name":"fee","type":"uint256"}],"stateMutability":"view","type":"function"},{"inputs":[],"name":"checkInactiveVerifiers","outputs":[],"stateMutability":"nonpayable","type":"function"},{"inputs":[{"internalType":"bytes32","name":"requestId","type":"bytes32"},{"internalType":"address","name":"verifier","type":"address"},{"internalType":"bool","name":"successful","type":"bool"}],"name":"completeVerification","outputs":[],"stateMutability":"nonpayable","type":"function"},{"inputs":[],"name":"emergencyWithdraw","outputs":[],"stateMutability":"nonpayable","type":"function"},{"inputs":[],"name":"getActiveVerifiers","outputs":[{"internalType":"address[]","name":"","type":"address[]"}],"stateMutability":"view","type":"function"},{"inputs":[],"name":"getActiveVerifiersWithDetails","outputs":[{"internalType":"address[]","name":"verifierAddresses","type":"address[]"},{"internalType":"string[]","name":"names","type":"string[]"},{"internalType":"uint256[]","name":"fees","type":"uint256[]"},{"internalType":"uint256[]","name":"reputationScores","type":"uint256[]"}],"stateMutability":"view","type":"function"},{"inputs":[{"internalType":"bytes32","name":"role","type":"bytes32"}],"name":"getRoleAdmin","outputs":[{"internalType":"bytes32","name":"","type":"bytes32"}],"stateMutability":"view","type":"function"},{"inputs":[{"internalType":"address","name":"verifier","type":"address"}],"name":"getVerifier","outputs":[{"components":[{"internalType":"address","name":"verifierAddress","type":"address"},{"internalType":"uint256","name":"stakedAmount","type":"uint256"},{"internalType":"uint256","name":"reputationScore","type":"uint256"},{"internalType":"uint256","name":"totalVerifications","type":"uint256"},{"internalType":"uint256","name":"successfulVerifications","type":"uint256"},{"internalType":"uint256","name":"lastActivityTimestamp","type":"uint256"},{"internalType":"bool","name":"isActive","type":"bool"},{"internalType":"string","name":"metadata","type":"string"},{"internalType":"uint256","name":"registrationTimestamp","type":"uint256"}],"internalType":"struct VerifierMarketplace.Verifier","name":"","type":"tuple"}],"stateMutability":"view","type":"function"},{"inputs":[{"internalType":"address","name":"verifier","type":"address"}],"name":"getVerifierDetails","outputs":[{"internalType":"string","name":"name","type":"string"},{"internalType":"string","name":"metadataURI","type":"string"},{"internalType":"uint256","name":"baseFee","type":"uint256"},{"internalType":"bool","name":"isActive","type":"bool"},{"internalType":"uint256","name":"reputationScore","type":"uint256"},{"internalType":"uint256","name":"totalVerifications","type":"uint256"},{"internalType":"uint256","name":"successfulVerifications","type":"uint256"},{"internalType":"uint256","name":"stakedAmount","type":"uint256"}],"stateMutability":"view","type":"function"},{"inputs":[{"internalType":"bytes32","name":"role","type":"bytes32"},{"internalType":"address","name":"account","type":"address"}],"name":"grantRole","outputs":[],"stateMutability":"nonpayable","type":"function"},{"inputs":[{"internalType":"bytes32","name":"role","type":"bytes32"},{"internalType":"address","name":"account","type":"address"}],"name":"hasRole","outputs":[{"internalType":"bool","name":"","type":"bool"}],"stateMutability":"view","type":"function"},{"inputs":[],"name":"inactivityThreshold","outputs":[{"internalType":"uint256","name":"","type":"uint256"}],"stateMutability":"view","type":"function"},{"inputs":[],"name":"increaseStake","outputs":[],"stateMutability":"payable","type":"function"},{"inputs":[{"internalType":"address","name":"admin","type":"address"},{"internalType":"uint256","name":"_minimumStake","type":"uint256"},{"internalType":"uint256","name":"_baseVerificationFee","type":"uint256"},{"internalType":"address","name":"_stakingToken","type":"address"}],"name":"initialize","outputs":[],"stateMutability":"nonpayable","type":"function"},{"inputs":[],"name":"minimumStake","outputs":[{"internalType":"uint256","name":"","type":"uint256"}],"stateMutability":"view","type":"function"},{"inputs":[],"name":"pause","outputs":[],"stateMutability":"nonpayable","type":"function"},{"inputs":[],"name":"paused","outputs":[{"internalType":"bool","name":"","type":"bool"}],"stateMutability":"view","type":"function"},{"inputs":[],"name":"proxiableUUID","outputs":[{"internalType":"bytes32","name":"","type":"bytes32"}],"stateMutability":"view","type":"function"},{"inputs":[{"internalType":"string","name":"metadata","type":"string"}],"name":"registerVerifier","outputs":[],"stateMutability":"payable","type":"function"},{"inputs":[{"internalType":"bytes32","name":"role","type":"bytes32"},{"internalType":"address","name":"account","type":"address"}],"name":"renounceRole","outputs":[],"stateMutability":"nonpayable","type":"function"},{"inputs":[],"name":"reputationMultiplier","outputs":[{"internalType":"uint256","name":"","type":"uint256"}],"stateMutability":"view","type":"function"},{"inputs":[{"internalType":"bytes32","name":"role","type":"bytes32"},{"internalType":"address","name":"account","type":"address"}],"name":"revokeRole","outputs":[],"stateMutability":"nonpayable","type":"function"},{"inputs":[{"internalType":"address","name":"verifier","type":"address"},{"internalType":"string","name":"reason","type":"string"}],"name":"slashVerifier","outputs":[],"stateMutability":"nonpayable","type":"function"},{"inputs":[],"name":"slashingPercentage","outputs":[{"internalType":"uint256","name":"","type":"uint256"}],"stateMutability":"view","type":"function"},{"inputs":[],"name":"stakingToken","outputs":[{"internalType":"contract IERC20","name":"","type":"address"}],"stateMutability":"view","type":"function"},{"inputs":[{"internalType":"bytes4","name":"interfaceId","type":"bytes4"}],"name":"supportsInterface","outputs":[{"internalType":"bool","name":"","type":"bool"}],"stateMutability":"view","type":"function"},{"inputs":[],"name":"unpause","outputs":[],"stateMutability":"nonpayable","type":"function"},{"inputs":[{"internalType":"uint256","name":"_baseVerificationFee","type":"uint256"}],"name":"updateBaseVerificationFee","outputs":[],"stateMutability":"nonpayable","type":"function"},{"inputs":[{"internalType":"uint256","name":"_inactivityThreshold","type":"uint256"}],"name":"updateInactivityThreshold","outputs":[],"stateMutability":"nonpayable","type":"function"},{"inputs":[{"internalType":"uint256","name":"_minimumStake","type":"uint256"}],"name":"updateMinimumStake","outputs":[],"stateMutability":"nonpayable","type":"function"},{"inputs":[{"internalType":"uint256","name":"_reputationMultiplier","type":"uint256"}],"name":"updateReputationMultiplier","outputs":[],"stateMutability":"nonpayable","type":"function"},{"inputs":[{"internalType":"uint256","name":"_slashingPercentage","type":"uint256"}],"name":"updateSlashingPercentage","outputs":[],"stateMutability":"nonpayable","type":"function"},{"inputs":[{"internalType":"address","name":"newImplementation","type":"address"}],"name":"upgradeTo","outputs":[],"stateMutability":"nonpayable","type":"function"},{"inputs":[{"internalType":"address","name":"newImplementation","type":"address"},{"internalType":"bytes","name":"data","type":"bytes"}],"name":"upgradeToAndCall","outputs":[],"stateMutability":"payable","type":"function"},{"inputs":[{"internalType":"bytes32","name":"","type":"bytes32"}],"name":"verificationRequests","outputs":[{"internalType":"address","name":"requester","type":"address"},{"internalType":"address","name":"assignedVerifier","type":"address"},{"internalType":"uint256","name":"fee","type":"uint256"},{"internalType":"uint256","name":"timestamp","type":"uint256"},{"internalType":"bool","name":"completed","type":"bool"},{"internalType":"bool","name":"successful","type":"bool"},{"internalType":"string","name":"requestData","type":"string"}],"stateMutability":"view","type":"function"},{"inputs":[{"internalType":"address","name":"","type":"address"}],"name":"verifierEarnings","outputs":[{"internalType":"uint256","name":"","type":"uint256"}],"stateMutability":"view","type":"function"},{"inputs":[{"internalType":"uint256","name":"","type":"uint256"}],"name":"verifierList","outputs":[{"internalType":"address","name":"","type":"address"}],"stateMutability":"view","type":"function"},{"inputs":[{"internalType":"address","name":"","type":"address"}],"name":"verifiers","outputs":[{"internalType":"address","name":"verifierAddress","type":"address"},{"internalType":"uint256","name":"stakedAmount","type":"uint256"},{"internalType":"uint256","name":"reputationScore","type":"uint256"},{"internalType":"uint256","name":"totalVerifications","type":"uint256"},{"internalType":"uint256","name":"successfulVerifications","type":"uint256"},{"internalType":"uint256","name":"lastActivityTimestamp","type":"uint256"},{"internalType":"bool","name":"isActive","type":"bool"},{"internalType":"string","name":"metadata","type":"string"},{"internalType":"uint256","name":"registrationTimestamp","type":"uint256"}],"stateMutability":"view","type":"function"},{"inputs":[],"name":"withdrawEarnings","outputs":[],"stateMutability":"nonpayable","type":"function"},{"stateMutability":"payable","type":"receive"}],"evm":{"bytecode":{"linkReferences":{},"object":"60a08060405234620000e157306080526000549060ff8260081c166200008f575060ff8082160362000053575b604051613d6e9081620000e7823960805181818161193001528181611a69015261205e0152f35b60ff90811916176000557f7f26b83ff96e1f2b6a682f133852f6798a09c465da95921460cefb3847402498602060405160ff8152a1386200002c565b62461bcd60e51b815260206004820152602760248201527f496e697469616c697a61626c653a20636f6e747261637420697320696e697469604482015266616c697a696e6760c81b6064820152608490fd5b600080fdfe6080604081815260049182361015610022575b505050361561002057600080fd5b005b600092833560e01c91826301ffc9a714612aa757508163059ce95d146129605781630de3e665146129405781630f3908c8146128b157816316cb421814612470578163248a9ca314612445578163267ae0a4146124225781632f2ff15d1461238757816336568abe146122f55781633659cfe6146120365781633f4ba83a14611fa05781633fdd6b4914611e1557816342efe0db14611d0f5781634c41e88014611cec5781634f1ef28614611a185781635095af64146119dd57816352d1902d1461191a57816357762ddd146118d85781635c975abb146118b457816369666a49146118945781636baec215146117885781636c824487146116d757816372f702f3146116ad57816375b238fc1461167257816376fccaa2146113f85781638456cb591461139d57816391d14854146113565781639e3d87cd14610fe95781639ec8627614610fc9578163a217fddf14610fae578163b73c6ce914610e2a578163bb55963e14610e0a578163be3f228014610de7578163c20c432514610c84578163cf428f2314610c11578163d547741f14610bd2578163d9e257ef146109e7578163db2e21bc146106e8578163dbda75aa146106bb578163e6db070714610682578163eb0e60491461065f578163ec5ffac21461063f578163f65ecc2114610253575063f72c0d8b146102165780610012565b3461024f578160031936011261024f57602090517f189ab7a9244df0848122154315af71fe140f3db0fe014031783b0946b8c9d2e38152f35b5080fd5b83833461024f578060031936011261024f5761026d612afa565b906024803567ffffffffffffffff811161063b5761028e9036908701612cfc565b7f12b42e8a160f6064dc959c6f251e3af0750ad213dbecf573b4710d67d6c28e399491949182875260209260658452858820338952845260ff86892054161561048857506102da61373d565b6102e2613781565b60018060a01b0316948587526101659182845261030760ff6006888b20015416613a5a565b8688528284526127106103246001888b20015461016254906134c8565b04988789528385526001878a200161033d8b8254613a9c565b9055878952838552868920600181015461015f5411610417575b508789528385526002878a200154956007870291878304600714881517156104065750509188996103e47fbc3a16d342f86683a50b2358b4bdbabb3ec89b9b5ae5293234053997eced1bef938b60028b600a8e9f997f5b88a2e3fc1a53234357ab78c104df11c33ccfa79886793654565ad70b8afb6e9f809b528b8d52049220015589519384938461370f565b0390a2858752815260028387200154908351928352820152a2600161012d5580f35b634e487b7160e01b8b526011905289fd5b60060160ff198154169055877f0bb0e736b635387caa7eacd963cb5ebd26d81acc0b84decb6818d7b7277f67e9608089518881526022898201527f5374616b652062656c6f77206d696e696d756d20616674657220736c617368698b820152616e6760f01b6060820152a28a610357565b939550505094936104983361350f565b918351906104a582612c18565b6042825287820192606036853782511561062957603084538251906001918210156106175790607860218501536041915b8183116105ae5750505061058057604861057c9593859361056493610555975197889376020b1b1b2b9b9a1b7b73a3937b61d1030b1b1b7bab73a1604d1b8d86015261052c8d8251928391603789019101612b2b565b8401917001034b99036b4b9b9b4b733903937b6329607d1b603784015251809386840190612b2b565b01036028810186520184612c34565b5194859462461bcd60e51b8652850152830190612b4e565b0390fd5b60648688878188519362461bcd60e51b8552840152820152600080516020613cf98339815191526044820152fd5b909192600f81166010811015610605576f181899199a1a9b1b9c1cb0b131b232b360811b901a6105de85876134fe565b53891c9280156105f3576000190191906104d6565b634e487b7160e01b825260118a528882fd5b634e487b7160e01b835260328b528983fd5b634e487b7160e01b8152603289528790fd5b634e487b7160e01b8152603288528690fd5b8480fd5b50503461024f578160031936011261024f5760209061015f549051908152f35b83903461024f57602036600319011261024f5761067a612e3b565b356101605580f35b50503461024f57602036600319011261024f5760209181906001600160a01b036106aa612afa565b168152610168845220549051908152f35b50503461024f57602036600319011261024f576020906106e16106dc612afa565b613aa9565b9051908152f35b9050346109e357826003193601126109e35782805260209060658252828420338552825260ff83852054161561085b57610720613781565b610164546001600160a01b03169081610769575050508180808047818115610760575b3390f11561075657505b600161012d5580f35b51903d90823e3d90fd5b506108fc610743565b83516370a0823160e01b81523082820152908382602481865afa908115610851578492879261081a575b50855163a9059cbb60e01b8152339181019182526020820192909252909283918290889082906040015b03925af191821561080d576107db935084926107e0575b5050613bad565b61074d565b6107ff9250803d10610806575b6107f78183612c34565b8101906136b3565b38806107d4565b503d6107ed565b50505051903d90823e3d90fd5b8381949293503d831161084a575b6108328183612c34565b8101031261084657905183916107bd610793565b8580fd5b503d610828565b85513d88823e3d90fd5b82846108663361350f565b908083519061087482612c18565b604282528682019260603685378251156109d057603084538251906001918210156109bd5790607860218501536041915b818311610952575050506109235760486108fa9385936109099361057c975196879376020b1b1b2b9b9a1b7b73a3937b61d1030b1b1b7bab73a1604d1b8c86015261052c8c8251928391603789019101612b2b565b01036028810185520183612c34565b5193849362461bcd60e51b85528401526024830190612b4e565b606485878087519262461bcd60e51b84528301526024820152600080516020613cf98339815191526044820152fd5b909192600f811660108110156109aa576f181899199a1a9b1b9c1cb0b131b232b360811b901a61098285876134fe565b53881c928015610997576000190191906108a5565b634e487b7160e01b825260118952602482fd5b634e487b7160e01b835260328a52602483fd5b634e487b7160e01b815260328852602490fd5b634e487b7160e01b815260328752602490fd5b8280fd5b919050826003193601126109e3576109fd61373d565b610a05613781565b3383526101659160209083825260ff600684872001541615610b9157610164546001600160a01b031680610adc57503415610a9b5750907f8d5e6772da35d0173c64ddb673584aad7e4d8d1be8753288896f7008d012e2929134935b338652808252600183872001610a788682546134f1565b90553386528152600182862001549082519485528401523392a2600161012d5580f35b915162461bcd60e51b815291820181905260248201527f4d7573742073656e64204842415220746f20696e637265617365207374616b656044820152606490fd5b9291909381610b2695610aef341561365b565b61015f5485516323b872dd60e01b815233928101928352306020840152604083018290529790968892909183918b91839160600190565b03925af1948515610b87577f8d5e6772da35d0173c64ddb673584aad7e4d8d1be8753288896f7008d012e2929495610b65918891610b6a575b506136cb565b610a61565b610b819150843d8611610806576107f78183612c34565b38610b5f565b83513d88823e3d90fd5b915162461bcd60e51b815291820152601960248201527f4e6f7420612072656769737465726564207665726966696572000000000000006044820152606490fd5b919050346109e357806003193601126109e357610c0e9135610c096001610bf7612b15565b9383875260656020528620015461315c565b613267565b80f35b9050346109e35760203660031901126109e357803591610c2f612e3b565b6113888311610c415750506101625580f35b906020606492519162461bcd60e51b8352820152601c60248201527f536c617368696e672070657263656e7461676520746f6f2068696768000000006044820152fd5b83833461024f576020806003193601126109e357610ca0612afa565b9360018060a01b03938486168082526101659081855286868420541615610daf5790829186935284522094835194610cd786612bad565b86541685526001860154918386019283526002870154858701908152600388015491606088019283528801549260808801938452600589015460a0890152600689015460ff169060c08901911515825260078a01610d3490612c56565b8160e08b019b828d5260080154610100809c0152610d5191613845565b995190610d5d90613aa9565b9151151592519351945195519688519a8a8c9b8c528b01610d7d91612b4e565b908a8203908b0152610d8e91612b4e565b968801526060870152608086015260a085015260c084015260e08301520390f35b855162461bcd60e51b8152808501869052601260248201527115995c9a599a595c881b9bdd08199bdd5b9960721b6044820152606490fd5b83903461024f57602036600319011261024f57610e02612e3b565b356101635580f35b50503461024f578160031936011261024f57602090610161549051908152f35b9050346109e357826003193601126109e357610e4461373d565b610e4c613781565b3383526101689060209082825283852054928315610f6c57338652825283852085905561016454829084906001600160a01b031680610ed757508680935080925080913382f115610ecb577f48dc35af7b45e2a81fffad55f6e2fafacdb1d3d0d50d24ebdc16324f5ba757f191925b519283523392a2600161012d5580f35b505051903d90823e3d90fd5b865163a9059cbb60e01b8152339481019485526020850192909252909283919082908990829060400103925af1908115610f62577f48dc35af7b45e2a81fffad55f6e2fafacdb1d3d0d50d24ebdc16324f5ba757f1939491610f40918791610f45575b50613bad565b610ebb565b610f5c9150843d8611610806576107f78183612c34565b38610f3a565b84513d87823e3d90fd5b5060649184519162461bcd60e51b8352820152601760248201527f4e6f206561726e696e677320746f2077697468647261770000000000000000006044820152fd5b50503461024f578160031936011261024f5751908152602090f35b50503461024f578160031936011261024f57602090610163549051908152f35b9050346109e35760803660031901126109e357611004612afa565b6001600160a01b0391606435838116908190036108465785549260ff90818560081c16159384809561134a575b8015611334575b156112da575060ff1980861660019081178a5595856112c9575b50611097838a5460081c16611066816135fb565b61106f816135fb565b611078816135fb565b8260975416609755611089816135fb565b611092816135fb565b6135fb565b8561012d558880526065602097818952898b20931692838b52885283898b20541615611296575b7fa49807205ce4d355092ef5a8a18f56e8913cf4a201fbe287825b095693c21775808b52818952898b20848c528952848a8c20541615611262575b507f189ab7a9244df0848122154315af71fe140f3db0fe014031783b0946b8c9d2e3808b52818952898b20848c528952848a8c2054161561122e575b507f12b42e8a160f6064dc959c6f251e3af0750ad213dbecf573b4710d67d6c28e3993848b52818952898b20848c528952898b205416156111f9575b5050505060243561015f5560443561016055611388610161556103e86101625562278d0061016355806111df575b506111a8578380f35b7f7f26b83ff96e1f2b6a682f133852f6798a09c465da95921460cefb38474024989261ff0019855416855551908152a13880808380f35b61016480546001600160a01b03191690911790553861119f565b838a528752878920828a52875285888a20918254161790553391600080516020613cd98339815191528980a438808080611171565b808b52818952898b20848c528952898b208884825416179055833391600080516020613cd98339815191528d80a438611135565b808b52818952898b20848c528952898b208884825416179055833391600080516020613cd98339815191528d80a4386110f9565b898052808852888a20838b528852888a20878382541617905533838b600080516020613cd98339815191528180a46110be565b61ffff191661010117895538611052565b608490602089519162461bcd60e51b8352820152602e60248201527f496e697469616c697a61626c653a20636f6e747261637420697320616c72656160448201526d191e481a5b9a5d1a585b1a5e995960921b6064820152fd5b50303b1580156110385750600183871614611038565b50600183871610611031565b9050346109e357816003193601126109e3578160209360ff92611377612b15565b90358252606586528282206001600160a01b039091168252855220549151911615158152f35b50503461024f578160031936011261024f5760207f62e78cea01bee320cd4e420270b5ea74000d11b0c9f74754ebdbfc544b05a258916113db612e3b565b6113e361373d565b600160ff19609754161760975551338152a180f35b82843461166f578060031936011261166f57908190829061016654915b8281106116105750611426836137ff565b92611430816137e7565b9161143d81519384612c34565b818352601f19958661144e846137e7565b01815b8181106115fd57505061146c611466846137ff565b936137ff565b9481805b82821061151b57505050611491968251978897608089526080890190612dca565b602090888103828a01528651928382528282019083808660051b850101990195925b8584106114e3578b8a03888d01528b806114df8d6114d18e8e612e07565b908382036060850152612e07565b0390f35b91938080979b9c506115048b8486600196989a9c9d9e030188528d51612b4e565b9b0194019401918b9a9998979694919593956114b3565b61152b829a95969798999a612d7d565b60018060a01b0391549060031b1c168085528a610165918a898860209486865260ff6006848420015416611578575b505050505050509061156b906137d8565b9098979695949398611470565b968095936115b1866115ac600782976115c1976115f19d9b61156b9f8961159e91613831565b528481528b8b522001612c56565b613845565b6115bb8383613831565b52613831565b508b6115d6856115d084613aa9565b92613831565b52885252600288872001546115eb828d613831565b526137d8565b908b808a89888f61155a565b6060602082880181019190915201611451565b61161e819593949295612d7d565b905460039190911b1c6001600160a01b031683526101656020528483206006015460ff1661165a575b611650906137d8565b9390929193611415565b90611667611650916137d8565b919050611647565b80fd5b50503461024f578160031936011261024f57602090517fa49807205ce4d355092ef5a8a18f56e8913cf4a201fbe287825b095693c217758152f35b50503461024f578160031936011261024f576101645490516001600160a01b039091168152602090f35b83833461024f57602036600319011261024f576001600160a01b039161177d90829084611702612afa565b16815261016560205220928354169260018101549460028201549060038301549083015460058401549160ff60068601541693600861174360078801612c56565b9601549780519a8b9a8b5260208b01528901526060880152608087015260a0860152151560c08501526101208060e0860152840190612b4e565b906101008301520390f35b82843461166f578060031936011261166f57610166549181805b84811061183f57506117b3906137ff565b9180805b8581106117d3578351602080825281906114df90820188612dca565b6117dc81612d7d565b60018060a01b03809254600392831b1c16845261016560205260ff6006878620015416611814575b505061180f906137d8565b6117b7565b9361183791839561182761180f95612d7d565b9054911b1c166115eb8289613831565b929087611804565b61184881612d7d565b905460039190911b1c6001600160a01b031684526101656020528284206006015460ff1661187f575b61187a906137d8565b6117a2565b9061188c61187a916137d8565b919050611871565b50503461024f578160031936011261024f57602090610162549051908152f35b50503461024f578160031936011261024f5760209060ff6097541690519015158152f35b9050346109e35760203660031901126109e35735916101665483101561166f5750611904602092612d7d565b905491519160018060a01b039160031b1c168152f35b9050823461166f578060031936011261166f57507f00000000000000000000000000000000000000000000000000000000000000006001600160a01b031630036119755760208251600080516020613d198339815191528152f35b6020608492519162461bcd60e51b8352820152603860248201527f555550535570677261646561626c653a206d757374206e6f742062652063616c60448201527f6c6564207468726f7567682064656c656761746563616c6c00000000000000006064820152fd5b50503461024f578160031936011261024f57602090517f12b42e8a160f6064dc959c6f251e3af0750ad213dbecf573b4710d67d6c28e398152f35b918091506003193601126109e357611a2e612afa565b9060243567ffffffffffffffff811161063b573660238201121561063b57611a5f9036906024818701359101612d46565b6001600160a01b037f00000000000000000000000000000000000000000000000000000000000000008116929190611a99308514156132dd565b611ab6600080516020613d1983398151915294828654161461333e565b611abe613017565b7f4910fdfa16fed3260ed0e7147f7cc6da11a60208b5b9406d12a635614ffd91435460ff1615611af65750505050610c0e915061339f565b82516352d1902d60e01b81526020959394918416919086818981865afa899181611cb9575b50611b7a57855162461bcd60e51b8152808901889052602e60248201527f45524331393637557067726164653a206e657720696d706c656d656e7461746960448201526d6f6e206973206e6f74205555505360901b6064820152608490fd5b9691929594939603611c645750611b908561339f565b7fbc7cd75a20ee27fd9adebab32041f755214dbc6bffa90cc0225b39da2e5c2d3b8680a2825115801590611c5c575b611bcb575b5050505080f35b611c48938580835195611bdd87612be0565b602787527f416464726573733a206c6f772d6c6576656c2064656c65676174652063616c6c86880152660819985a5b195960ca1b858801528581519101845af4913d15611c52573d611c3a611c3182612d2a565b92519283612c34565b81528681943d92013e61342f565b5038808080611bc4565b506060925061342f565b506001611bbf565b825162461bcd60e51b8152908101849052602960248201527f45524331393637557067726164653a20756e737570706f727465642070726f786044820152681a58589b195555525160ba1b6064820152608490fd5b9091508781813d8311611ce5575b611cd18183612c34565b81010312611ce157519038611b1b565b8980fd5b503d611cc7565b83903461024f57602036600319011261024f57611d07612e3b565b3561015f5580f35b50503461024f578160031936011261024f57611d29612e3b565b815b61016654811015611e115780611d43611d8292612d7d565b60018060a01b0391549060031b1c168085526101656020908082528587209160069260ff84820154169081611df7575b50611d87575b505050506137d8565b611d2b565b7f0bb0e736b635387caa7eacd963cb5ebd26d81acc0b84decb6818d7b7277f67e992606092858a5282528789200160ff198154169055601d8751918083528201527f496e6163746976697479207468726573686f6c6420657863656564656400000087820152a238808080611d79565b611e0691506005015442613a9c565b610163541038611d73565b8280f35b919050346109e35760603660031901126109e357813590611e34612b15565b9260443580151591828203611f9c57611e4b612e3b565b611e5361373d565b60018060a01b0386169586885261016591602093838552611e7c60ff6006898d20015416613a5a565b878a526101679384865260ff83898d20015416611f595791879695949391611f149360037fb48e6a2cde5d6737db899ca96abf738de637e170d6e1bc4837e601531521e5979a8e8e8e8252898b52868383200160018d61ff0083549160081b169061ffff1916171790558152838a522001611ef781546137d8565b90558b8d528652878c2090426005830155611f45575b5050613beb565b858852815260028388200154908688526101688152838820611f378382546134f1565b90558351928352820152a380f35b01611f5081546137d8565b90553880611f0d565b875162461bcd60e51b8152808401879052601e60248201527f566572696669636174696f6e20616c726561647920636f6d706c6574656400006044820152606490fd5b8680fd5b9050346109e357826003193601126109e357611fba612e3b565b6097549060ff821615611ffc575060ff1916609755513381527f5db9ee0a495bf2e6ff9c91a7834c1ba4fdd244a5e8aa4e537bd38aeae4b073aa90602090a180f35b606490602084519162461bcd60e51b8352820152601460248201527314185d5cd8589b194e881b9bdd081c185d5cd95960621b6044820152fd5b919050346109e3576020806003193601126122f157612053612afa565b916001600160a01b037f0000000000000000000000000000000000000000000000000000000000000000811661208b308214156132dd565b6120a8600080516020613d1983398151915291838354161461333e565b6120b0613017565b8251908482019282841067ffffffffffffffff8511176122de578385528883527f4910fdfa16fed3260ed0e7147f7cc6da11a60208b5b9406d12a635614ffd91435460ff161561210a57505050505050610c0e915061339f565b869293949596169085516352d1902d60e01b815287818a81865afa8a91816122ab575b5061218c57865162461bcd60e51b8152808a01899052602e60248201527f45524331393637557067726164653a206e657720696d706c656d656e7461746960448201526d6f6e206973206e6f74205555505360901b6064820152608490fd5b97919293969594970361225657506121a38261339f565b7fbc7cd75a20ee27fd9adebab32041f755214dbc6bffa90cc0225b39da2e5c2d3b8780a28584511580159061224f575b6121e1575b50505050505080f35b80612243968451966121f288612be0565b602788527f416464726573733a206c6f772d6c6576656c2064656c65676174652063616c6c87890152660819985a5b195960ca1b868901525190845af4913d15611c52573d611c3a611c3182612d2a565b503880808080856121d8565b50806121d3565b835162461bcd60e51b8152908101859052602960248201527f45524331393637557067726164653a20756e737570706f727465642070726f786044820152681a58589b195555525160ba1b6064820152608490fd5b9091508881813d83116122d7575b6122c38183612c34565b810103126122d35751903861212d565b8a80fd5b503d6122b9565b634e487b7160e01b895260418852602489fd5b8380fd5b8391503461024f578260031936011261024f57612310612b15565b90336001600160a01b0383160361232c5790610c0e9135613267565b608490602085519162461bcd60e51b8352820152602f60248201527f416363657373436f6e74726f6c3a2063616e206f6e6c792072656e6f756e636560448201526e103937b632b9903337b91039b2b63360891b6064820152fd5b9050346109e357816003193601126109e35735906123a3612b15565b9082845260656020526123bb6001828620015461315c565b828452606560209081528185206001600160a01b039093168086529290528084205460ff16156123e9578380f35b82845260656020528084208285526020528320600160ff198254161790553391600080516020613cd98339815191528480a43880808380f35b83903461024f57602036600319011261024f5761243d612e3b565b356101615580f35b9050346109e35760203660031901126109e35781602093600192358152606585522001549051908152f35b83602084366003190182136109e35767ffffffffffffffff843581811161063b5761249e9036908701612cfc565b9290916124a961373d565b6124b1613781565b338652610165855260ff600683882001541661286e57831561282b57610164546001600160a01b0391908216806127a3575061015f5434106127605734955b8351916124fc83612bad565b3383528782840152611388858401528860608401528860808401524260a0840152600160c084015261252f368888612d46565b60e08401908152610100840191428352338b526101658452868b2094868151166bffffffffffffffffffffffff60a01b8754161786558481015160018701558781015160028701556060810151600387015560808101518d87015560a0810151600587015560c060068701910151151560ff80198354169116179055600785019151805191821161274d576125c48354612b73565b601f8111612705575b5084908c601f8411600114612699576008965091908361268e575b50508160011b916000199060031b1c19161790555b519101556101668054906801000000000000000082101561267b57916126508261266f9460017ff0734b98dfc7770549b33ca5c3f377b6fd40ebbfb8f6d7e39aee74fd5b3530de99989795019055612d7d565b819291549060031b9133831b921b19161790555192839233968461370f565b0390a2600161012d5580f35b634e487b7160e01b885260418952602488fd5b015190508d806125e8565b92939495601f1985169086855280852094905b8282106126ed575050916001939185600898979694106126d4575b505050811b0190556125fd565b015160001960f88460031b161c191690558d80806126c7565b806001869782949787015181550196019401906126ac565b838d52858d20601f840160051c810191878510612743575b601f0160051c01908d905b8281106127365750506125cd565b6001918155018d90612728565b909150819061271d565b634e487b7160e01b8c5260418d5260248cfd5b825162461bcd60e51b8152808901879052601960248201527f496e73756666696369656e74207374616b6520616d6f756e74000000000000006044820152606490fd5b956127ae341561365b565b61015f5484516323b872dd60e01b815233818c0190815230602082015260408101839052919890918391839182908d90829060600103925af190811561282157906127ff918a9161280457506136cb565b6124f0565b61281b9150833d8511610806576107f78183612c34565b8b610b5f565b85513d8b823e3d90fd5b815162461bcd60e51b8152808801869052601860248201527f4d657461646174612063616e6e6f7420626520656d70747900000000000000006044820152606490fd5b815162461bcd60e51b8152808801869052601e60248201527f416c7265616479207265676973746572656420617320766572696669657200006044820152606490fd5b82843461166f57602036600319011261166f57816114df9184358152610167602052209160ff60018060a01b0393848154169460018201541695600282015461290560056003850154938501549401612c56565b9480519889988952602089015287015260608601528181161515608086015260081c16151560a084015260e060c084015260e0830190612b4e565b50503461024f578160031936011261024f57602090610160549051908152f35b83833461024f576020918260031936011261166f57612a9d612980612afa565b948380519361298e85612bad565b808552808786015280828601528060608601528060808601528060a08601528060c0860152606060e0860152806101008096015260018060a01b038098168152610165875220845196879586936129e485612bad565b8284541685526001840154918986019283526002850154908087019182526003860154926060880193845286015493608088019485528b60058801549660a08a019788528b600860ff60068c0154169a60c08d019b15158c5260e0612a4b60078301612c56565b9d019c8d5201549d019c8d5283519e8f9e8f525116908d015251908b01525160608a01525160808901525160a08801525160c087015251151560e0860152516101208093860152610140850190612b4e565b9151908301520390f35b8491346109e35760203660031901126109e3573563ffffffff60e01b81168091036109e35760209250637965db0b60e01b8114908115612ae9575b5015158152f35b6301ffc9a760e01b14905083612ae2565b600435906001600160a01b0382168203612b1057565b600080fd5b602435906001600160a01b0382168203612b1057565b60005b838110612b3e5750506000910152565b8181015183820152602001612b2e565b90602091612b6781518092818552858086019101612b2b565b601f01601f1916010190565b90600182811c92168015612ba3575b6020831014612b8d57565b634e487b7160e01b600052602260045260246000fd5b91607f1691612b82565b610120810190811067ffffffffffffffff821117612bca57604052565b634e487b7160e01b600052604160045260246000fd5b6060810190811067ffffffffffffffff821117612bca57604052565b6040810190811067ffffffffffffffff821117612bca57604052565b6080810190811067ffffffffffffffff821117612bca57604052565b90601f8019910116810190811067ffffffffffffffff821117612bca57604052565b9060405191826000825492612c6a84612b73565b908184526001948581169081600014612cd95750600114612c96575b5050612c9492500383612c34565b565b9093915060005260209081600020936000915b818310612cc1575050612c9493508201013880612c86565b85548884018501529485019487945091830191612ca9565b915050612c9494506020925060ff191682840152151560051b8201013880612c86565b9181601f84011215612b105782359167ffffffffffffffff8311612b105760208381860195010111612b1057565b67ffffffffffffffff8111612bca57601f01601f191660200190565b929192612d5282612d2a565b91612d606040519384612c34565b829481845281830111612b10578281602093846000960137010152565b6101668054821015612db4576000527fa5a4c57b7184ec73d55be4993773cb4eef681bc86a28d0285cd66efb50676a970190600090565b634e487b7160e01b600052603260045260246000fd5b90815180825260208080930193019160005b828110612dea575050505090565b83516001600160a01b031685529381019392810192600101612ddc565b90815180825260208080930193019160005b828110612e27575050505090565b835185529381019392810192600101612e19565b3360009081527f2c01dc0041dfb6d4238a91e5a638996136aed16f837d5beb45610732cf9bf4b0602090815260408083205490927fa49807205ce4d355092ef5a8a18f56e8913cf4a201fbe287825b095693c217759160ff1615612e9f5750505050565b612ea83361350f565b91845190612eb582612c18565b6042825284820192606036853782511561300357603084538251906001918210156130035790607860218501536041915b818311612f9557505050612f6557604861057c938693612f4993612f3a985198899376020b1b1b2b9b9a1b7b73a3937b61d1030b1b1b7bab73a1604d1b8a86015261052c815180928c603789019101612b2b565b01036028810187520185612c34565b5192839262461bcd60e51b845260048401526024830190612b4e565b60648486519062461bcd60e51b82528060048301526024820152600080516020613cf98339815191526044820152fd5b909192600f81166010811015612fef576f181899199a1a9b1b9c1cb0b131b232b360811b901a612fc585876134fe565b5360041c928015612fdb57600019019190612ee6565b634e487b7160e01b82526011600452602482fd5b634e487b7160e01b83526032600452602483fd5b634e487b7160e01b81526032600452602490fd5b3360009081527f61c6261e6978331c793eee420d743e773864e0ec05cc862750e423d64f73e9f6602090815260408083205490927f189ab7a9244df0848122154315af71fe140f3db0fe014031783b0946b8c9d2e39160ff161561307b5750505050565b6130843361350f565b9184519061309182612c18565b6042825284820192606036853782511561300357603084538251906001918210156130035790607860218501536041915b81831161311657505050612f6557604861057c938693612f4993612f3a985198899376020b1b1b2b9b9a1b7b73a3937b61d1030b1b1b7bab73a1604d1b8a86015261052c815180928c603789019101612b2b565b909192600f81166010811015612fef576f181899199a1a9b1b9c1cb0b131b232b360811b901a61314685876134fe565b5360041c928015612fdb576000190191906130c2565b60009080825260209060658252604092838120338252835260ff8482205416156131865750505050565b61318f3361350f565b9184519061319c82612c18565b6042825284820192606036853782511561300357603084538251906001918210156130035790607860218501536041915b81831161322157505050612f6557604861057c938693612f4993612f3a985198899376020b1b1b2b9b9a1b7b73a3937b61d1030b1b1b7bab73a1604d1b8a86015261052c815180928c603789019101612b2b565b909192600f81166010811015612fef576f181899199a1a9b1b9c1cb0b131b232b360811b901a61325185876134fe565b5360041c928015612fdb576000190191906131cd565b906000918083526065602052604083209160018060a01b03169182845260205260ff60408420541661329857505050565b8083526065602052604083208284526020526040832060ff1981541690557ff6391f5c32d9c69d2a47ea670b442974b53935d1edc7fd64eb21e047a839171b339380a4565b156132e457565b60405162461bcd60e51b815260206004820152602c60248201527f46756e6374696f6e206d7573742062652063616c6c6564207468726f7567682060448201526b19195b1959d85d1958d85b1b60a21b6064820152608490fd5b1561334557565b60405162461bcd60e51b815260206004820152602c60248201527f46756e6374696f6e206d7573742062652063616c6c6564207468726f7567682060448201526b6163746976652070726f787960a01b6064820152608490fd5b803b156133d457600080516020613d1983398151915280546001600160a01b0319166001600160a01b03909216919091179055565b60405162461bcd60e51b815260206004820152602d60248201527f455243313936373a206e657720696d706c656d656e746174696f6e206973206e60448201526c1bdd08184818dbdb9d1c9858dd609a1b6064820152608490fd5b919290156134915750815115613443575090565b3b1561344c5790565b60405162461bcd60e51b815260206004820152601d60248201527f416464726573733a2063616c6c20746f206e6f6e2d636f6e74726163740000006044820152606490fd5b8251909150156134a45750805190602001fd5b60405162461bcd60e51b81526020600482015290819061057c906024830190612b4e565b818102929181159184041417156134db57565b634e487b7160e01b600052601160045260246000fd5b919082018092116134db57565b908151811015612db4570160200190565b6040519061351c82612be0565b602a8252602082016040368237825115612db457603090538151600190811015612db457607860218401536029905b80821161358d57505061355b5790565b606460405162461bcd60e51b81526020600482015260206024820152600080516020613cf98339815191526044820152fd5b9091600f811660108110156135e6576f181899199a1a9b1b9c1cb0b131b232b360811b901a6135bc84866134fe565b5360041c9180156135d157600019019061354b565b60246000634e487b7160e01b81526011600452fd5b60246000634e487b7160e01b81526032600452fd5b1561360257565b60405162461bcd60e51b815260206004820152602b60248201527f496e697469616c697a61626c653a20636f6e7472616374206973206e6f74206960448201526a6e697469616c697a696e6760a81b6064820152608490fd5b1561366257565b60405162461bcd60e51b8152602060048201526024808201527f4e6f206e61746976652063757272656e637920666f7220746f6b656e207374616044820152636b696e6760e01b6064820152608490fd5b90816020910312612b1057518015158103612b105790565b156136d257565b60405162461bcd60e51b815260206004820152601560248201527414dd185ad9481d1c985b9cd9995c8819985a5b1959605a1b6044820152606490fd5b91926060938192845260406020850152816040850152848401376000828201840152601f01601f1916010190565b60ff6097541661374957565b60405162461bcd60e51b815260206004820152601060248201526f14185d5cd8589b194e881c185d5cd95960821b6044820152606490fd5b61012d60028154146137935760029055565b60405162461bcd60e51b815260206004820152601f60248201527f5265656e7472616e637947756172643a207265656e7472616e742063616c6c006044820152606490fd5b60001981146134db5760010190565b67ffffffffffffffff8111612bca5760051b60200190565b90613809826137e7565b6138166040519182612c34565b8281528092613827601f19916137e7565b0190602036910137565b8051821015612db45760209160051b010190565b80511580159081613a39575b501561387d57505060405161386581612bfc565b60088152672b32b934b334b2b960c11b602082015290565b51156138b5575060405161389081612bfc565b601581527415995c9a599a595908141c9bd9995cdcda5bdb985b605a1b602082015290565b604051906001600160a01b03166138cb82612bfc565b601082526020916f181899199a1a9b1b9c1cb0b131b232b360811b83820152604051906138f782612be0565b602a8252838201926040368537825115612db45760308453825191600192831015612db4576078602185015360005b6014811061397257505050506802b32b934b334b2b9160bd1b9261396f9261395f60299360405196879485015251809285850190612b2b565b8101036009810184520182612c34565b90565b600c81018082116134db5787811015612db45783901a60046001600160f81b0319600f816139a485851c8316886134fe565b51169385891b94600290878704821488151715613a2457868201809211613a2457906139d96139e194939260001a918d6134fe565b5316866134fe565b5116906003928301809311613a0f575090613a04613a0a939260001a91886134fe565b536137d8565b613926565b601190634e487b7160e01b6000525260246000fd5b601186634e487b7160e01b6000525260246000fd5b9050612db45760208101516001600160f81b031916607b60f81b1438613851565b15613a6157565b60405162461bcd60e51b81526020600482015260136024820152725665726966696572206e6f742061637469766560681b6044820152606490fd5b919082039182116134db57565b60018060a01b03166000908082526101659081602052613ad260ff600660408620015416613a5a565b8252602052600260408220015490611387198201918213600116613b995761016154600160ff1b928082029183821285821416613b85578183051490151715612fdb576127109081900591808312613b3f575061396f9250613b386101605492836134c8565b04906134f1565b9161016054938114613b7157613b57908303846134c8565b049050818110613b68575060011c90565b61396f91613a9c565b634e487b7160e01b83526011600452602483fd5b634e487b7160e01b84526011600452602484fd5b634e487b7160e01b81526011600452602490fd5b15613bb457565b60405162461bcd60e51b815260206004820152600f60248201526e151c985b9cd9995c8819985a5b1959608a1b6044820152606490fd5b6001600160a01b031660008181526101656020819052604082206003810154600482015490939290918415613cd05760020154936127109283810290808204851490151715613cbc57046007850285810460071486151715613cbc57600382029180830460031490151715613cbc5791600a613c8d7f5b88a2e3fc1a53234357ab78c104df11c33ccfa79886793654565ad70b8afb6e979593604097956134f1565b0491808311613cb4575b5084836002928985965260205220015582519182526020820152a2565b915084613c97565b634e487b7160e01b85526011600452602485fd5b50505050505056fe2f8788117e7eff1d82e926ec794901d17c78024a50270940304540a733656f0d537472696e67733a20686578206c656e67746820696e73756666696369656e74360894a13ba1a3210667c828492db98dca3e2076cc3735a920a3ca505d382bbca2646970667358221220d59c79368c5235b81183b90cfff6ac2beb3eeea1b66acad0332eca6334027ee664736f6c63430008130033","opcodes":"PUSH1 0xA0 DUP1 PUSH1 0x40 MSTORE CALLVALUE PUSH3 0xE1 JUMPI ADDRESS PUSH1 0x80 MSTORE PUSH1 0x0 SLOAD SWAP1 PUSH1 0xFF DUP3 PUSH1 0x8 SHR AND PUSH3 0x8F JUMPI POP PUSH1 0xFF DUP1 DUP3 AND SUB PUSH3 0x53 JUMPI JUMPDEST PUSH1 0x40 MLOAD PUSH2 0x3D6E SWAP1 DUP2 PUSH3 0xE7 DUP3 CODECOPY PUSH1 0x80 MLOAD DUP2 DUP2 DUP2 PUSH2 0x1930 ADD MSTORE DUP2 DUP2 PUSH2 0x1A69 ADD MSTORE PUSH2 0x205E ADD MSTORE RETURN JUMPDEST PUSH1 0xFF SWAP1 DUP2 NOT AND OR PUSH1 0x0 SSTORE PUSH32 0x7F26B83FF96E1F2B6A682F133852F6798A09C465DA95921460CEFB3847402498 PUSH1 0x20 PUSH1 0x40 MLOAD PUSH1 0xFF DUP2 MSTORE LOG1 CODESIZE PUSH3 0x2C JUMP JUMPDEST PUSH3 0x461BCD PUSH1 0xE5 SHL DUP2 MSTORE PUSH1 0x20 PUSH1 0x4 DUP3 ADD MSTORE PUSH1 0x27 PUSH1 0x24 DUP3 ADD MSTORE PUSH32 0x496E697469616C697A61626C653A20636F6E747261637420697320696E697469 PUSH1 0x44 DUP3 ADD MSTORE PUSH7 0x616C697A696E67 PUSH1 0xC8 SHL PUSH1 0x64 DUP3 ADD MSTORE PUSH1 0x84 SWAP1 REVERT JUMPDEST PUSH1 0x0 DUP1 REVERT INVALID PUSH1 0x80 PUSH1 0x40 DUP2 DUP2 MSTORE PUSH1 0x4 SWAP2 DUP3 CALLDATASIZE LT ISZERO PUSH2 0x22 JUMPI JUMPDEST POP POP POP CALLDATASIZE ISZERO PUSH2 0x20 JUMPI PUSH1 0x0 DUP1 REVERT JUMPDEST STOP JUMPDEST PUSH1 0x0 SWAP3 DUP4 CALLDATALOAD PUSH1 0xE0 SHR SWAP2 DUP3 PUSH4 0x1FFC9A7 EQ PUSH2 0x2AA7 JUMPI POP DUP2 PUSH4 0x59CE95D EQ PUSH2 0x2960 JUMPI DUP2 PUSH4 0xDE3E665 EQ PUSH2 0x2940 JUMPI DUP2 PUSH4 0xF3908C8 EQ PUSH2 0x28B1 JUMPI DUP2 PUSH4 0x16CB4218 EQ PUSH2 0x2470 JUMPI DUP2 PUSH4 0x248A9CA3 EQ PUSH2 0x2445 JUMPI DUP2 PUSH4 0x267AE0A4 EQ PUSH2 0x2422 JUMPI DUP2 PUSH4 0x2F2FF15D EQ PUSH2 0x2387 JUMPI DUP2 PUSH4 0x36568ABE EQ PUSH2 0x22F5 JUMPI DUP2 PUSH4 0x3659CFE6 EQ PUSH2 0x2036 JUMPI DUP2 PUSH4 0x3F4BA83A EQ PUSH2 0x1FA0 JUMPI DUP2 PUSH4 0x3FDD6B49 EQ PUSH2 0x1E15 JUMPI DUP2 PUSH4 0x42EFE0DB EQ PUSH2 0x1D0F JUMPI DUP2 PUSH4 0x4C41E880 EQ PUSH2 0x1CEC JUMPI DUP2 PUSH4 0x4F1EF286 EQ PUSH2 0x1A18 JUMPI DUP2 PUSH4 0x5095AF64 EQ PUSH2 0x19DD JUMPI DUP2 PUSH4 0x52D1902D EQ PUSH2 0x191A JUMPI DUP2 PUSH4 0x57762DDD EQ PUSH2 0x18D8 JUMPI DUP2 PUSH4 0x5C975ABB EQ PUSH2 0x18B4 JUMPI DUP2 PUSH4 0x69666A49 EQ PUSH2 0x1894 JUMPI DUP2 PUSH4 0x6BAEC215 EQ PUSH2 0x1788 JUMPI DUP2 PUSH4 0x6C824487 EQ PUSH2 0x16D7 JUMPI DUP2 PUSH4 0x72F702F3 EQ PUSH2 0x16AD JUMPI DUP2 PUSH4 0x75B238FC EQ PUSH2 0x1672 JUMPI DUP2 PUSH4 0x76FCCAA2 EQ PUSH2 0x13F8 JUMPI DUP2 PUSH4 0x8456CB59 EQ PUSH2 0x139D JUMPI DUP2 PUSH4 0x91D14854 EQ PUSH2 0x1356 JUMPI DUP2 PUSH4 0x9E3D87CD EQ PUSH2 0xFE9 JUMPI DUP2 PUSH4 0x9EC86276 EQ PUSH2 0xFC9 JUMPI DUP2 PUSH4 0xA217FDDF EQ PUSH2 0xFAE JUMPI DUP2 PUSH4 0xB73C6CE9 EQ PUSH2 0xE2A JUMPI DUP2 PUSH4 0xBB55963E EQ PUSH2 0xE0A JUMPI DUP2 PUSH4 0xBE3F2280 EQ PUSH2 0xDE7 JUMPI DUP2 PUSH4 0xC20C4325 EQ PUSH2 0xC84 JUMPI DUP2 PUSH4 0xCF428F23 EQ PUSH2 0xC11 JUMPI DUP2 PUSH4 0xD547741F EQ PUSH2 0xBD2 JUMPI DUP2 PUSH4 0xD9E257EF EQ PUSH2 0x9E7 JUMPI DUP2 PUSH4 0xDB2E21BC EQ PUSH2 0x6E8 JUMPI DUP2 PUSH4 0xDBDA75AA EQ PUSH2 0x6BB JUMPI DUP2 PUSH4 0xE6DB0707 EQ PUSH2 0x682 JUMPI DUP2 PUSH4 0xEB0E6049 EQ PUSH2 0x65F JUMPI DUP2 PUSH4 0xEC5FFAC2 EQ PUSH2 0x63F JUMPI DUP2 PUSH4 0xF65ECC21 EQ PUSH2 0x253 JUMPI POP PUSH4 0xF72C0D8B EQ PUSH2 0x216 JUMPI DUP1 PUSH2 0x12 JUMP JUMPDEST CALLVALUE PUSH2 0x24F JUMPI DUP2 PUSH1 0x3 NOT CALLDATASIZE ADD SLT PUSH2 0x24F JUMPI PUSH1 0x20 SWAP1 MLOAD PUSH32 0x189AB7A9244DF0848122154315AF71FE140F3DB0FE014031783B0946B8C9D2E3 DUP2 MSTORE RETURN JUMPDEST POP DUP1 REVERT JUMPDEST DUP4 DUP4 CALLVALUE PUSH2 0x24F JUMPI DUP1 PUSH1 0x3 NOT CALLDATASIZE ADD SLT PUSH2 0x24F JUMPI PUSH2 0x26D PUSH2 0x2AFA JUMP JUMPDEST SWAP1 PUSH1 0x24 DUP1 CALLDATALOAD PUSH8 0xFFFFFFFFFFFFFFFF DUP2 GT PUSH2 0x63B JUMPI PUSH2 0x28E SWAP1 CALLDATASIZE SWAP1 DUP8 ADD PUSH2 0x2CFC JUMP JUMPDEST PUSH32 0x12B42E8A160F6064DC959C6F251E3AF0750AD213DBECF573B4710D67D6C28E39 SWAP5 SWAP2 SWAP5 SWAP2 DUP3 DUP8 MSTORE PUSH1 0x20 SWAP3 PUSH1 0x65 DUP5 MSTORE DUP6 DUP9 KECCAK256 CALLER DUP10 MSTORE DUP5 MSTORE PUSH1 0xFF DUP7 DUP10 KECCAK256 SLOAD AND ISZERO PUSH2 0x488 JUMPI POP PUSH2 0x2DA PUSH2 0x373D JUMP JUMPDEST PUSH2 0x2E2 PUSH2 0x3781 JUMP JUMPDEST PUSH1 0x1 DUP1 PUSH1 0xA0 SHL SUB AND SWAP5 DUP6 DUP8 MSTORE PUSH2 0x165 SWAP2 DUP3 DUP5 MSTORE PUSH2 0x307 PUSH1 0xFF PUSH1 0x6 DUP9 DUP12 KECCAK256 ADD SLOAD AND PUSH2 0x3A5A JUMP JUMPDEST DUP7 DUP9 MSTORE DUP3 DUP5 MSTORE PUSH2 0x2710 PUSH2 0x324 PUSH1 0x1 DUP9 DUP12 KECCAK256 ADD SLOAD PUSH2 0x162 SLOAD SWAP1 PUSH2 0x34C8 JUMP JUMPDEST DIV SWAP9 DUP8 DUP10 MSTORE DUP4 DUP6 MSTORE PUSH1 0x1 DUP8 DUP11 KECCAK256 ADD PUSH2 0x33D DUP12 DUP3 SLOAD PUSH2 0x3A9C JUMP JUMPDEST SWAP1 SSTORE DUP8 DUP10 MSTORE DUP4 DUP6 MSTORE DUP7 DUP10 KECCAK256 PUSH1 0x1 DUP2 ADD SLOAD PUSH2 0x15F SLOAD GT PUSH2 0x417 JUMPI JUMPDEST POP DUP8 DUP10 MSTORE DUP4 DUP6 MSTORE PUSH1 0x2 DUP8 DUP11 KECCAK256 ADD SLOAD SWAP6 PUSH1 0x7 DUP8 MUL SWAP2 DUP8 DUP4 DIV PUSH1 0x7 EQ DUP9 ISZERO OR ISZERO PUSH2 0x406 JUMPI POP POP SWAP2 DUP9 SWAP10 PUSH2 0x3E4 PUSH32 0xBC3A16D342F86683A50B2358B4BDBABB3EC89B9B5AE5293234053997ECED1BEF SWAP4 DUP12 PUSH1 0x2 DUP12 PUSH1 0xA DUP15 SWAP16 SWAP10 PUSH32 0x5B88A2E3FC1A53234357AB78C104DF11C33CCFA79886793654565AD70B8AFB6E SWAP16 DUP1 SWAP12 MSTORE DUP12 DUP14 MSTORE DIV SWAP3 KECCAK256 ADD SSTORE DUP10 MLOAD SWAP4 DUP5 SWAP4 DUP5 PUSH2 0x370F JUMP JUMPDEST SUB SWAP1 LOG2 DUP6 DUP8 MSTORE DUP2 MSTORE PUSH1 0x2 DUP4 DUP8 KECCAK256 ADD SLOAD SWAP1 DUP4 MLOAD SWAP3 DUP4 MSTORE DUP3 ADD MSTORE LOG2 PUSH1 0x1 PUSH2 0x12D SSTORE DUP1 RETURN JUMPDEST PUSH4 0x4E487B71 PUSH1 0xE0 SHL DUP12 MSTORE PUSH1 0x11 SWAP1 MSTORE DUP10 REVERT JUMPDEST PUSH1 0x6 ADD PUSH1 0xFF NOT DUP2 SLOAD AND SWAP1 SSTORE DUP8 PUSH32 0xBB0E736B635387CAA7EACD963CB5EBD26D81ACC0B84DECB6818D7B7277F67E9 PUSH1 0x80 DUP10 MLOAD DUP9 DUP2 MSTORE PUSH1 0x22 DUP10 DUP3 ADD MSTORE PUSH32 0x5374616B652062656C6F77206D696E696D756D20616674657220736C61736869 DUP12 DUP3 ADD MSTORE PUSH2 0x6E67 PUSH1 0xF0 SHL PUSH1 0x60 DUP3 ADD MSTORE LOG2 DUP11 PUSH2 0x357 JUMP JUMPDEST SWAP4 SWAP6 POP POP POP SWAP5 SWAP4 PUSH2 0x498 CALLER PUSH2 0x350F JUMP JUMPDEST SWAP2 DUP4 MLOAD SWAP1 PUSH2 0x4A5 DUP3 PUSH2 0x2C18 JUMP JUMPDEST PUSH1 0x42 DUP3 MSTORE DUP8 DUP3 ADD SWAP3 PUSH1 0x60 CALLDATASIZE DUP6 CALLDATACOPY DUP3 MLOAD ISZERO PUSH2 0x629 JUMPI PUSH1 0x30 DUP5 MSTORE8 DUP3 MLOAD SWAP1 PUSH1 0x1 SWAP2 DUP3 LT ISZERO PUSH2 0x617 JUMPI SWAP1 PUSH1 0x78 PUSH1 0x21 DUP6 ADD MSTORE8 PUSH1 0x41 SWAP2 JUMPDEST DUP2 DUP4 GT PUSH2 0x5AE JUMPI POP POP POP PUSH2 0x580 JUMPI PUSH1 0x48 PUSH2 0x57C SWAP6 SWAP4 DUP6 SWAP4 PUSH2 0x564 SWAP4 PUSH2 0x555 SWAP8 MLOAD SWAP8 DUP9 SWAP4 PUSH23 0x20B1B1B2B9B9A1B7B73A3937B61D1030B1B1B7BAB73A1 PUSH1 0x4D SHL DUP14 DUP7 ADD MSTORE PUSH2 0x52C DUP14 DUP3 MLOAD SWAP3 DUP4 SWAP2 PUSH1 0x37 DUP10 ADD SWAP2 ADD PUSH2 0x2B2B JUMP JUMPDEST DUP5 ADD SWAP2 PUSH17 0x1034B99036B4B9B9B4B733903937B6329 PUSH1 0x7D SHL PUSH1 0x37 DUP5 ADD MSTORE MLOAD DUP1 SWAP4 DUP7 DUP5 ADD SWAP1 PUSH2 0x2B2B JUMP JUMPDEST ADD SUB PUSH1 0x28 DUP2 ADD DUP7 MSTORE ADD DUP5 PUSH2 0x2C34 JUMP JUMPDEST MLOAD SWAP5 DUP6 SWAP5 PUSH3 0x461BCD PUSH1 0xE5 SHL DUP7 MSTORE DUP6 ADD MSTORE DUP4 ADD SWAP1 PUSH2 0x2B4E JUMP JUMPDEST SUB SWAP1 REVERT JUMPDEST PUSH1 0x64 DUP7 DUP9 DUP8 DUP2 DUP9 MLOAD SWAP4 PUSH3 0x461BCD PUSH1 0xE5 SHL DUP6 MSTORE DUP5 ADD MSTORE DUP3 ADD MSTORE PUSH1 0x0 DUP1 MLOAD PUSH1 0x20 PUSH2 0x3CF9 DUP4 CODECOPY DUP2 MLOAD SWAP2 MSTORE PUSH1 0x44 DUP3 ADD MSTORE REVERT JUMPDEST SWAP1 SWAP2 SWAP3 PUSH1 0xF DUP2 AND PUSH1 0x10 DUP2 LT ISZERO PUSH2 0x605 JUMPI PUSH16 0x181899199A1A9B1B9C1CB0B131B232B3 PUSH1 0x81 SHL SWAP1 BYTE PUSH2 0x5DE DUP6 DUP8 PUSH2 0x34FE JUMP JUMPDEST MSTORE8 DUP10 SHR SWAP3 DUP1 ISZERO PUSH2 0x5F3 JUMPI PUSH1 0x0 NOT ADD SWAP2 SWAP1 PUSH2 0x4D6 JUMP JUMPDEST PUSH4 0x4E487B71 PUSH1 0xE0 SHL DUP3 MSTORE PUSH1 0x11 DUP11 MSTORE DUP9 DUP3 REVERT JUMPDEST PUSH4 0x4E487B71 PUSH1 0xE0 SHL DUP4 MSTORE PUSH1 0x32 DUP12 MSTORE DUP10 DUP4 REVERT JUMPDEST PUSH4 0x4E487B71 PUSH1 0xE0 SHL DUP2 MSTORE PUSH1 0x32 DUP10 MSTORE DUP8 SWAP1 REVERT JUMPDEST PUSH4 0x4E487B71 PUSH1 0xE0 SHL DUP2 MSTORE PUSH1 0x32 DUP9 MSTORE DUP7 SWAP1 REVERT JUMPDEST DUP5 DUP1 REVERT JUMPDEST POP POP CALLVALUE PUSH2 0x24F JUMPI DUP2 PUSH1 0x3 NOT CALLDATASIZE ADD SLT PUSH2 0x24F JUMPI PUSH1 0x20 SWAP1 PUSH2 0x15F SLOAD SWAP1 MLOAD SWAP1 DUP2 MSTORE RETURN JUMPDEST DUP4 SWAP1 CALLVALUE PUSH2 0x24F JUMPI PUSH1 0x20 CALLDATASIZE PUSH1 0x3 NOT ADD SLT PUSH2 0x24F JUMPI PUSH2 0x67A PUSH2 0x2E3B JUMP JUMPDEST CALLDATALOAD PUSH2 0x160 SSTORE DUP1 RETURN JUMPDEST POP POP CALLVALUE PUSH2 0x24F JUMPI PUSH1 0x20 CALLDATASIZE PUSH1 0x3 NOT ADD SLT PUSH2 0x24F JUMPI PUSH1 0x20 SWAP2 DUP2 SWAP1 PUSH1 0x1 PUSH1 0x1 PUSH1 0xA0 SHL SUB PUSH2 0x6AA PUSH2 0x2AFA JUMP JUMPDEST AND DUP2 MSTORE PUSH2 0x168 DUP5 MSTORE KECCAK256 SLOAD SWAP1 MLOAD SWAP1 DUP2 MSTORE RETURN JUMPDEST POP POP CALLVALUE PUSH2 0x24F JUMPI PUSH1 0x20 CALLDATASIZE PUSH1 0x3 NOT ADD SLT PUSH2 0x24F JUMPI PUSH1 0x20 SWAP1 PUSH2 0x6E1 PUSH2 0x6DC PUSH2 0x2AFA JUMP JUMPDEST PUSH2 0x3AA9 JUMP JUMPDEST SWAP1 MLOAD SWAP1 DUP2 MSTORE RETURN JUMPDEST SWAP1 POP CALLVALUE PUSH2 0x9E3 JUMPI DUP3 PUSH1 0x3 NOT CALLDATASIZE ADD SLT PUSH2 0x9E3 JUMPI DUP3 DUP1 MSTORE PUSH1 0x20 SWAP1 PUSH1 0x65 DUP3 MSTORE DUP3 DUP5 KECCAK256 CALLER DUP6 MSTORE DUP3 MSTORE PUSH1 0xFF DUP4 DUP6 KECCAK256 SLOAD AND ISZERO PUSH2 0x85B JUMPI PUSH2 0x720 PUSH2 0x3781 JUMP JUMPDEST PUSH2 0x164 SLOAD PUSH1 0x1 PUSH1 0x1 PUSH1 0xA0 SHL SUB AND SWAP1 DUP2 PUSH2 0x769 JUMPI POP POP POP DUP2 DUP1 DUP1 DUP1 SELFBALANCE DUP2 DUP2 ISZERO PUSH2 0x760 JUMPI JUMPDEST CALLER SWAP1 CALL ISZERO PUSH2 0x756 JUMPI POP JUMPDEST PUSH1 0x1 PUSH2 0x12D SSTORE DUP1 RETURN JUMPDEST MLOAD SWAP1 RETURNDATASIZE SWAP1 DUP3 RETURNDATACOPY RETURNDATASIZE SWAP1 REVERT JUMPDEST POP PUSH2 0x8FC PUSH2 0x743 JUMP JUMPDEST DUP4 MLOAD PUSH4 0x70A08231 PUSH1 0xE0 SHL DUP2 MSTORE ADDRESS DUP3 DUP3 ADD MSTORE SWAP1 DUP4 DUP3 PUSH1 0x24 DUP2 DUP7 GAS STATICCALL SWAP1 DUP2 ISZERO PUSH2 0x851 JUMPI DUP5 SWAP3 DUP8 SWAP3 PUSH2 0x81A JUMPI JUMPDEST POP DUP6 MLOAD PUSH4 0xA9059CBB PUSH1 0xE0 SHL DUP2 MSTORE CALLER SWAP2 DUP2 ADD SWAP2 DUP3 MSTORE PUSH1 0x20 DUP3 ADD SWAP3 SWAP1 SWAP3 MSTORE SWAP1 SWAP3 DUP4 SWAP2 DUP3 SWAP1 DUP9 SWAP1 DUP3 SWAP1 PUSH1 0x40 ADD JUMPDEST SUB SWAP3 GAS CALL SWAP2 DUP3 ISZERO PUSH2 0x80D JUMPI PUSH2 0x7DB SWAP4 POP DUP5 SWAP3 PUSH2 0x7E0 JUMPI JUMPDEST POP POP PUSH2 0x3BAD JUMP JUMPDEST PUSH2 0x74D JUMP JUMPDEST PUSH2 0x7FF SWAP3 POP DUP1 RETURNDATASIZE LT PUSH2 0x806 JUMPI JUMPDEST PUSH2 0x7F7 DUP2 DUP4 PUSH2 0x2C34 JUMP JUMPDEST DUP2 ADD SWAP1 PUSH2 0x36B3 JUMP JUMPDEST CODESIZE DUP1 PUSH2 0x7D4 JUMP JUMPDEST POP RETURNDATASIZE PUSH2 0x7ED JUMP JUMPDEST POP POP POP MLOAD SWAP1 RETURNDATASIZE SWAP1 DUP3 RETURNDATACOPY RETURNDATASIZE SWAP1 REVERT JUMPDEST DUP4 DUP2 SWAP5 SWAP3 SWAP4 POP RETURNDATASIZE DUP4 GT PUSH2 0x84A JUMPI JUMPDEST PUSH2 0x832 DUP2 DUP4 PUSH2 0x2C34 JUMP JUMPDEST DUP2 ADD SUB SLT PUSH2 0x846 JUMPI SWAP1 MLOAD DUP4 SWAP2 PUSH2 0x7BD PUSH2 0x793 JUMP JUMPDEST DUP6 DUP1 REVERT JUMPDEST POP RETURNDATASIZE PUSH2 0x828 JUMP JUMPDEST DUP6 MLOAD RETURNDATASIZE DUP9 DUP3 RETURNDATACOPY RETURNDATASIZE SWAP1 REVERT JUMPDEST DUP3 DUP5 PUSH2 0x866 CALLER PUSH2 0x350F JUMP JUMPDEST SWAP1 DUP1 DUP4 MLOAD SWAP1 PUSH2 0x874 DUP3 PUSH2 0x2C18 JUMP JUMPDEST PUSH1 0x42 DUP3 MSTORE DUP7 DUP3 ADD SWAP3 PUSH1 0x60 CALLDATASIZE DUP6 CALLDATACOPY DUP3 MLOAD ISZERO PUSH2 0x9D0 JUMPI PUSH1 0x30 DUP5 MSTORE8 DUP3 MLOAD SWAP1 PUSH1 0x1 SWAP2 DUP3 LT ISZERO PUSH2 0x9BD JUMPI SWAP1 PUSH1 0x78 PUSH1 0x21 DUP6 ADD MSTORE8 PUSH1 0x41 SWAP2 JUMPDEST DUP2 DUP4 GT PUSH2 0x952 JUMPI POP POP POP PUSH2 0x923 JUMPI PUSH1 0x48 PUSH2 0x8FA SWAP4 DUP6 SWAP4 PUSH2 0x909 SWAP4 PUSH2 0x57C SWAP8 MLOAD SWAP7 DUP8 SWAP4 PUSH23 0x20B1B1B2B9B9A1B7B73A3937B61D1030B1B1B7BAB73A1 PUSH1 0x4D SHL DUP13 DUP7 ADD MSTORE PUSH2 0x52C DUP13 DUP3 MLOAD SWAP3 DUP4 SWAP2 PUSH1 0x37 DUP10 ADD SWAP2 ADD PUSH2 0x2B2B JUMP JUMPDEST ADD SUB PUSH1 0x28 DUP2 ADD DUP6 MSTORE ADD DUP4 PUSH2 0x2C34 JUMP JUMPDEST MLOAD SWAP4 DUP5 SWAP4 PUSH3 0x461BCD PUSH1 0xE5 SHL DUP6 MSTORE DUP5 ADD MSTORE PUSH1 0x24 DUP4 ADD SWAP1 PUSH2 0x2B4E JUMP JUMPDEST PUSH1 0x64 DUP6 DUP8 DUP1 DUP8 MLOAD SWAP3 PUSH3 0x461BCD PUSH1 0xE5 SHL DUP5 MSTORE DUP4 ADD MSTORE PUSH1 0x24 DUP3 ADD MSTORE PUSH1 0x0 DUP1 MLOAD PUSH1 0x20 PUSH2 0x3CF9 DUP4 CODECOPY DUP2 MLOAD SWAP2 MSTORE PUSH1 0x44 DUP3 ADD MSTORE REVERT JUMPDEST SWAP1 SWAP2 SWAP3 PUSH1 0xF DUP2 AND PUSH1 0x10 DUP2 LT ISZERO PUSH2 0x9AA JUMPI PUSH16 0x181899199A1A9B1B9C1CB0B131B232B3 PUSH1 0x81 SHL SWAP1 BYTE PUSH2 0x982 DUP6 DUP8 PUSH2 0x34FE JUMP JUMPDEST MSTORE8 DUP9 SHR SWAP3 DUP1 ISZERO PUSH2 0x997 JUMPI PUSH1 0x0 NOT ADD SWAP2 SWAP1 PUSH2 0x8A5 JUMP JUMPDEST PUSH4 0x4E487B71 PUSH1 0xE0 SHL DUP3 MSTORE PUSH1 0x11 DUP10 MSTORE PUSH1 0x24 DUP3 REVERT JUMPDEST PUSH4 0x4E487B71 PUSH1 0xE0 SHL DUP4 MSTORE PUSH1 0x32 DUP11 MSTORE PUSH1 0x24 DUP4 REVERT JUMPDEST PUSH4 0x4E487B71 PUSH1 0xE0 SHL DUP2 MSTORE PUSH1 0x32 DUP9 MSTORE PUSH1 0x24 SWAP1 REVERT JUMPDEST PUSH4 0x4E487B71 PUSH1 0xE0 SHL DUP2 MSTORE PUSH1 0x32 DUP8 MSTORE PUSH1 0x24 SWAP1 REVERT JUMPDEST DUP3 DUP1 REVERT JUMPDEST SWAP2 SWAP1 POP DUP3 PUSH1 0x3 NOT CALLDATASIZE ADD SLT PUSH2 0x9E3 JUMPI PUSH2 0x9FD PUSH2 0x373D JUMP JUMPDEST PUSH2 0xA05 PUSH2 0x3781 JUMP JUMPDEST CALLER DUP4 MSTORE PUSH2 0x165 SWAP2 PUSH1 0x20 SWAP1 DUP4 DUP3 MSTORE PUSH1 0xFF PUSH1 0x6 DUP5 DUP8 KECCAK256 ADD SLOAD AND ISZERO PUSH2 0xB91 JUMPI PUSH2 0x164 SLOAD PUSH1 0x1 PUSH1 0x1 PUSH1 0xA0 SHL SUB AND DUP1 PUSH2 0xADC JUMPI POP CALLVALUE ISZERO PUSH2 0xA9B JUMPI POP SWAP1 PUSH32 0x8D5E6772DA35D0173C64DDB673584AAD7E4D8D1BE8753288896F7008D012E292 SWAP2 CALLVALUE SWAP4 JUMPDEST CALLER DUP7 MSTORE DUP1 DUP3 MSTORE PUSH1 0x1 DUP4 DUP8 KECCAK256 ADD PUSH2 0xA78 DUP7 DUP3 SLOAD PUSH2 0x34F1 JUMP JUMPDEST SWAP1 SSTORE CALLER DUP7 MSTORE DUP2 MSTORE PUSH1 0x1 DUP3 DUP7 KECCAK256 ADD SLOAD SWAP1 DUP3 MLOAD SWAP5 DUP6 MSTORE DUP5 ADD MSTORE CALLER SWAP3 LOG2 PUSH1 0x1 PUSH2 0x12D SSTORE DUP1 RETURN JUMPDEST SWAP2 MLOAD PUSH3 0x461BCD PUSH1 0xE5 SHL DUP2 MSTORE SWAP2 DUP3 ADD DUP2 SWAP1 MSTORE PUSH1 0x24 DUP3 ADD MSTORE PUSH32 0x4D7573742073656E64204842415220746F20696E637265617365207374616B65 PUSH1 0x44 DUP3 ADD MSTORE PUSH1 0x64 SWAP1 REVERT JUMPDEST SWAP3 SWAP2 SWAP1 SWAP4 DUP2 PUSH2 0xB26 SWAP6 PUSH2 0xAEF CALLVALUE ISZERO PUSH2 0x365B JUMP JUMPDEST PUSH2 0x15F SLOAD DUP6 MLOAD PUSH4 0x23B872DD PUSH1 0xE0 SHL DUP2 MSTORE CALLER SWAP3 DUP2 ADD SWAP3 DUP4 MSTORE ADDRESS PUSH1 0x20 DUP5 ADD MSTORE PUSH1 0x40 DUP4 ADD DUP3 SWAP1 MSTORE SWAP8 SWAP1 SWAP7 DUP9 SWAP3 SWAP1 SWAP2 DUP4 SWAP2 DUP12 SWAP2 DUP4 SWAP2 PUSH1 0x60 ADD SWAP1 JUMP JUMPDEST SUB SWAP3 GAS CALL SWAP5 DUP6 ISZERO PUSH2 0xB87 JUMPI PUSH32 0x8D5E6772DA35D0173C64DDB673584AAD7E4D8D1BE8753288896F7008D012E292 SWAP5 SWAP6 PUSH2 0xB65 SWAP2 DUP9 SWAP2 PUSH2 0xB6A JUMPI JUMPDEST POP PUSH2 0x36CB JUMP JUMPDEST PUSH2 0xA61 JUMP JUMPDEST PUSH2 0xB81 SWAP2 POP DUP5 RETURNDATASIZE DUP7 GT PUSH2 0x806 JUMPI PUSH2 0x7F7 DUP2 DUP4 PUSH2 0x2C34 JUMP JUMPDEST CODESIZE PUSH2 0xB5F JUMP JUMPDEST DUP4 MLOAD RETURNDATASIZE DUP9 DUP3 RETURNDATACOPY RETURNDATASIZE SWAP1 REVERT JUMPDEST SWAP2 MLOAD PUSH3 0x461BCD PUSH1 0xE5 SHL DUP2 MSTORE SWAP2 DUP3 ADD MSTORE PUSH1 0x19 PUSH1 0x24 DUP3 ADD MSTORE PUSH32 0x4E6F742061207265676973746572656420766572696669657200000000000000 PUSH1 0x44 DUP3 ADD MSTORE PUSH1 0x64 SWAP1 REVERT JUMPDEST SWAP2 SWAP1 POP CALLVALUE PUSH2 0x9E3 JUMPI DUP1 PUSH1 0x3 NOT CALLDATASIZE ADD SLT PUSH2 0x9E3 JUMPI PUSH2 0xC0E SWAP2 CALLDATALOAD PUSH2 0xC09 PUSH1 0x1 PUSH2 0xBF7 PUSH2 0x2B15 JUMP JUMPDEST SWAP4 DUP4 DUP8 MSTORE PUSH1 0x65 PUSH1 0x20 MSTORE DUP7 KECCAK256 ADD SLOAD PUSH2 0x315C JUMP JUMPDEST PUSH2 0x3267 JUMP JUMPDEST DUP1 RETURN JUMPDEST SWAP1 POP CALLVALUE PUSH2 0x9E3 JUMPI PUSH1 0x20 CALLDATASIZE PUSH1 0x3 NOT ADD SLT PUSH2 0x9E3 JUMPI DUP1 CALLDATALOAD SWAP2 PUSH2 0xC2F PUSH2 0x2E3B JUMP JUMPDEST PUSH2 0x1388 DUP4 GT PUSH2 0xC41 JUMPI POP POP PUSH2 0x162 SSTORE DUP1 RETURN JUMPDEST SWAP1 PUSH1 0x20 PUSH1 0x64 SWAP3 MLOAD SWAP2 PUSH3 0x461BCD PUSH1 0xE5 SHL DUP4 MSTORE DUP3 ADD MSTORE PUSH1 0x1C PUSH1 0x24 DUP3 ADD MSTORE PUSH32 0x536C617368696E672070657263656E7461676520746F6F206869676800000000 PUSH1 0x44 DUP3 ADD MSTORE REVERT JUMPDEST DUP4 DUP4 CALLVALUE PUSH2 0x24F JUMPI PUSH1 0x20 DUP1 PUSH1 0x3 NOT CALLDATASIZE ADD SLT PUSH2 0x9E3 JUMPI PUSH2 0xCA0 PUSH2 0x2AFA JUMP JUMPDEST SWAP4 PUSH1 0x1 DUP1 PUSH1 0xA0 SHL SUB SWAP4 DUP5 DUP7 AND DUP1 DUP3 MSTORE PUSH2 0x165 SWAP1 DUP2 DUP6 MSTORE DUP7 DUP7 DUP5 KECCAK256 SLOAD AND ISZERO PUSH2 0xDAF JUMPI SWAP1 DUP3 SWAP2 DUP7 SWAP4 MSTORE DUP5 MSTORE KECCAK256 SWAP5 DUP4 MLOAD SWAP5 PUSH2 0xCD7 DUP7 PUSH2 0x2BAD JUMP JUMPDEST DUP7 SLOAD AND DUP6 MSTORE PUSH1 0x1 DUP7 ADD SLOAD SWAP2 DUP4 DUP7 ADD SWAP3 DUP4 MSTORE PUSH1 0x2 DUP8 ADD SLOAD DUP6 DUP8 ADD SWAP1 DUP2 MSTORE PUSH1 0x3 DUP9 ADD SLOAD SWAP2 PUSH1 0x60 DUP9 ADD SWAP3 DUP4 MSTORE DUP9 ADD SLOAD SWAP3 PUSH1 0x80 DUP9 ADD SWAP4 DUP5 MSTORE PUSH1 0x5 DUP10 ADD SLOAD PUSH1 0xA0 DUP10 ADD MSTORE PUSH1 0x6 DUP10 ADD SLOAD PUSH1 0xFF AND SWAP1 PUSH1 0xC0 DUP10 ADD SWAP2 ISZERO ISZERO DUP3 MSTORE PUSH1 0x7 DUP11 ADD PUSH2 0xD34 SWAP1 PUSH2 0x2C56 JUMP JUMPDEST DUP2 PUSH1 0xE0 DUP12 ADD SWAP12 DUP3 DUP14 MSTORE PUSH1 0x8 ADD SLOAD PUSH2 0x100 DUP1 SWAP13 ADD MSTORE PUSH2 0xD51 SWAP2 PUSH2 0x3845 JUMP JUMPDEST SWAP10 MLOAD SWAP1 PUSH2 0xD5D SWAP1 PUSH2 0x3AA9 JUMP JUMPDEST SWAP2 MLOAD ISZERO ISZERO SWAP3 MLOAD SWAP4 MLOAD SWAP5 MLOAD SWAP6 MLOAD SWAP7 DUP9 MLOAD SWAP11 DUP11 DUP13 SWAP12 DUP13 MSTORE DUP12 ADD PUSH2 0xD7D SWAP2 PUSH2 0x2B4E JUMP JUMPDEST SWAP1 DUP11 DUP3 SUB SWAP1 DUP12 ADD MSTORE PUSH2 0xD8E SWAP2 PUSH2 0x2B4E JUMP JUMPDEST SWAP7 DUP9 ADD MSTORE PUSH1 0x60 DUP8 ADD MSTORE PUSH1 0x80 DUP7 ADD MSTORE PUSH1 0xA0 DUP6 ADD MSTORE PUSH1 0xC0 DUP5 ADD MSTORE PUSH1 0xE0 DUP4 ADD MSTORE SUB SWAP1 RETURN JUMPDEST DUP6 MLOAD PUSH3 0x461BCD PUSH1 0xE5 SHL DUP2 MSTORE DUP1 DUP6 ADD DUP7 SWAP1 MSTORE PUSH1 0x12 PUSH1 0x24 DUP3 ADD MSTORE PUSH18 0x15995C9A599A595C881B9BDD08199BDD5B99 PUSH1 0x72 SHL PUSH1 0x44 DUP3 ADD MSTORE PUSH1 0x64 SWAP1 REVERT JUMPDEST DUP4 SWAP1 CALLVALUE PUSH2 0x24F JUMPI PUSH1 0x20 CALLDATASIZE PUSH1 0x3 NOT ADD SLT PUSH2 0x24F JUMPI PUSH2 0xE02 PUSH2 0x2E3B JUMP JUMPDEST CALLDATALOAD PUSH2 0x163 SSTORE DUP1 RETURN JUMPDEST POP POP CALLVALUE PUSH2 0x24F JUMPI DUP2 PUSH1 0x3 NOT CALLDATASIZE ADD SLT PUSH2 0x24F JUMPI PUSH1 0x20 SWAP1 PUSH2 0x161 SLOAD SWAP1 MLOAD SWAP1 DUP2 MSTORE RETURN JUMPDEST SWAP1 POP CALLVALUE PUSH2 0x9E3 JUMPI DUP3 PUSH1 0x3 NOT CALLDATASIZE ADD SLT PUSH2 0x9E3 JUMPI PUSH2 0xE44 PUSH2 0x373D JUMP JUMPDEST PUSH2 0xE4C PUSH2 0x3781 JUMP JUMPDEST CALLER DUP4 MSTORE PUSH2 0x168 SWAP1 PUSH1 0x20 SWAP1 DUP3 DUP3 MSTORE DUP4 DUP6 KECCAK256 SLOAD SWAP3 DUP4 ISZERO PUSH2 0xF6C JUMPI CALLER DUP7 MSTORE DUP3 MSTORE DUP4 DUP6 KECCAK256 DUP6 SWAP1 SSTORE PUSH2 0x164 SLOAD DUP3 SWAP1 DUP5 SWAP1 PUSH1 0x1 PUSH1 0x1 PUSH1 0xA0 SHL SUB AND DUP1 PUSH2 0xED7 JUMPI POP DUP7 DUP1 SWAP4 POP DUP1 SWAP3 POP DUP1 SWAP2 CALLER DUP3 CALL ISZERO PUSH2 0xECB JUMPI PUSH32 0x48DC35AF7B45E2A81FFFAD55F6E2FAFACDB1D3D0D50D24EBDC16324F5BA757F1 SWAP2 SWAP3 JUMPDEST MLOAD SWAP3 DUP4 MSTORE CALLER SWAP3 LOG2 PUSH1 0x1 PUSH2 0x12D SSTORE DUP1 RETURN JUMPDEST POP POP MLOAD SWAP1 RETURNDATASIZE SWAP1 DUP3 RETURNDATACOPY RETURNDATASIZE SWAP1 REVERT JUMPDEST DUP7 MLOAD PUSH4 0xA9059CBB PUSH1 0xE0 SHL DUP2 MSTORE CALLER SWAP5 DUP2 ADD SWAP5 DUP6 MSTORE PUSH1 0x20 DUP6 ADD SWAP3 SWAP1 SWAP3 MSTORE SWAP1 SWAP3 DUP4 SWAP2 SWAP1 DUP3 SWAP1 DUP10 SWAP1 DUP3 SWAP1 PUSH1 0x40 ADD SUB SWAP3 GAS CALL SWAP1 DUP2 ISZERO PUSH2 0xF62 JUMPI PUSH32 0x48DC35AF7B45E2A81FFFAD55F6E2FAFACDB1D3D0D50D24EBDC16324F5BA757F1 SWAP4 SWAP5 SWAP2 PUSH2 0xF40 SWAP2 DUP8 SWAP2 PUSH2 0xF45 JUMPI JUMPDEST POP PUSH2 0x3BAD JUMP JUMPDEST PUSH2 0xEBB JUMP JUMPDEST PUSH2 0xF5C SWAP2 POP DUP5 RETURNDATASIZE DUP7 GT PUSH2 0x806 JUMPI PUSH2 0x7F7 DUP2 DUP4 PUSH2 0x2C34 JUMP JUMPDEST CODESIZE PUSH2 0xF3A JUMP JUMPDEST DUP5 MLOAD RETURNDATASIZE DUP8 DUP3 RETURNDATACOPY RETURNDATASIZE SWAP1 REVERT JUMPDEST POP PUSH1 0x64 SWAP2 DUP5 MLOAD SWAP2 PUSH3 0x461BCD PUSH1 0xE5 SHL DUP4 MSTORE DUP3 ADD MSTORE PUSH1 0x17 PUSH1 0x24 DUP3 ADD MSTORE PUSH32 0x4E6F206561726E696E677320746F207769746864726177000000000000000000 PUSH1 0x44 DUP3 ADD MSTORE REVERT JUMPDEST POP POP CALLVALUE PUSH2 0x24F JUMPI DUP2 PUSH1 0x3 NOT CALLDATASIZE ADD SLT PUSH2 0x24F JUMPI MLOAD SWAP1 DUP2 MSTORE PUSH1 0x20 SWAP1 RETURN JUMPDEST POP POP CALLVALUE PUSH2 0x24F JUMPI DUP2 PUSH1 0x3 NOT CALLDATASIZE ADD SLT PUSH2 0x24F JUMPI PUSH1 0x20 SWAP1 PUSH2 0x163 SLOAD SWAP1 MLOAD SWAP1 DUP2 MSTORE RETURN JUMPDEST SWAP1 POP CALLVALUE PUSH2 0x9E3 JUMPI PUSH1 0x80 CALLDATASIZE PUSH1 0x3 NOT ADD SLT PUSH2 0x9E3 JUMPI PUSH2 0x1004 PUSH2 0x2AFA JUMP JUMPDEST PUSH1 0x1 PUSH1 0x1 PUSH1 0xA0 SHL SUB SWAP2 PUSH1 0x64 CALLDATALOAD DUP4 DUP2 AND SWAP1 DUP2 SWAP1 SUB PUSH2 0x846 JUMPI DUP6 SLOAD SWAP3 PUSH1 0xFF SWAP1 DUP2 DUP6 PUSH1 0x8 SHR AND ISZERO SWAP4 DUP5 DUP1 SWAP6 PUSH2 0x134A JUMPI JUMPDEST DUP1 ISZERO PUSH2 0x1334 JUMPI JUMPDEST ISZERO PUSH2 0x12DA JUMPI POP PUSH1 0xFF NOT DUP1 DUP7 AND PUSH1 0x1 SWAP1 DUP2 OR DUP11 SSTORE SWAP6 DUP6 PUSH2 0x12C9 JUMPI JUMPDEST POP PUSH2 0x1097 DUP4 DUP11 SLOAD PUSH1 0x8 SHR AND PUSH2 0x1066 DUP2 PUSH2 0x35FB JUMP JUMPDEST PUSH2 0x106F DUP2 PUSH2 0x35FB JUMP JUMPDEST PUSH2 0x1078 DUP2 PUSH2 0x35FB JUMP JUMPDEST DUP3 PUSH1 0x97 SLOAD AND PUSH1 0x97 SSTORE PUSH2 0x1089 DUP2 PUSH2 0x35FB JUMP JUMPDEST PUSH2 0x1092 DUP2 PUSH2 0x35FB JUMP JUMPDEST PUSH2 0x35FB JUMP JUMPDEST DUP6 PUSH2 0x12D SSTORE DUP9 DUP1 MSTORE PUSH1 0x65 PUSH1 0x20 SWAP8 DUP2 DUP10 MSTORE DUP10 DUP12 KECCAK256 SWAP4 AND SWAP3 DUP4 DUP12 MSTORE DUP9 MSTORE DUP4 DUP10 DUP12 KECCAK256 SLOAD AND ISZERO PUSH2 0x1296 JUMPI JUMPDEST PUSH32 0xA49807205CE4D355092EF5A8A18F56E8913CF4A201FBE287825B095693C21775 DUP1 DUP12 MSTORE DUP2 DUP10 MSTORE DUP10 DUP12 KECCAK256 DUP5 DUP13 MSTORE DUP10 MSTORE DUP5 DUP11 DUP13 KECCAK256 SLOAD AND ISZERO PUSH2 0x1262 JUMPI JUMPDEST POP PUSH32 0x189AB7A9244DF0848122154315AF71FE140F3DB0FE014031783B0946B8C9D2E3 DUP1 DUP12 MSTORE DUP2 DUP10 MSTORE DUP10 DUP12 KECCAK256 DUP5 DUP13 MSTORE DUP10 MSTORE DUP5 DUP11 DUP13 KECCAK256 SLOAD AND ISZERO PUSH2 0x122E JUMPI JUMPDEST POP PUSH32 0x12B42E8A160F6064DC959C6F251E3AF0750AD213DBECF573B4710D67D6C28E39 SWAP4 DUP5 DUP12 MSTORE DUP2 DUP10 MSTORE DUP10 DUP12 KECCAK256 DUP5 DUP13 MSTORE DUP10 MSTORE DUP10 DUP12 KECCAK256 SLOAD AND ISZERO PUSH2 0x11F9 JUMPI JUMPDEST POP POP POP POP PUSH1 0x24 CALLDATALOAD PUSH2 0x15F SSTORE PUSH1 0x44 CALLDATALOAD PUSH2 0x160 SSTORE PUSH2 0x1388 PUSH2 0x161 SSTORE PUSH2 0x3E8 PUSH2 0x162 SSTORE PUSH3 0x278D00 PUSH2 0x163 SSTORE DUP1 PUSH2 0x11DF JUMPI JUMPDEST POP PUSH2 0x11A8 JUMPI DUP4 DUP1 RETURN JUMPDEST PUSH32 0x7F26B83FF96E1F2B6A682F133852F6798A09C465DA95921460CEFB3847402498 SWAP3 PUSH2 0xFF00 NOT DUP6 SLOAD AND DUP6 SSTORE MLOAD SWAP1 DUP2 MSTORE LOG1 CODESIZE DUP1 DUP1 DUP4 DUP1 RETURN JUMPDEST PUSH2 0x164 DUP1 SLOAD PUSH1 0x1 PUSH1 0x1 PUSH1 0xA0 SHL SUB NOT AND SWAP1 SWAP2 OR SWAP1 SSTORE CODESIZE PUSH2 0x119F JUMP JUMPDEST DUP4 DUP11 MSTORE DUP8 MSTORE DUP8 DUP10 KECCAK256 DUP3 DUP11 MSTORE DUP8 MSTORE DUP6 DUP9 DUP11 KECCAK256 SWAP2 DUP3 SLOAD AND OR SWAP1 SSTORE CALLER SWAP2 PUSH1 0x0 DUP1 MLOAD PUSH1 0x20 PUSH2 0x3CD9 DUP4 CODECOPY DUP2 MLOAD SWAP2 MSTORE DUP10 DUP1 LOG4 CODESIZE DUP1 DUP1 DUP1 PUSH2 0x1171 JUMP JUMPDEST DUP1 DUP12 MSTORE DUP2 DUP10 MSTORE DUP10 DUP12 KECCAK256 DUP5 DUP13 MSTORE DUP10 MSTORE DUP10 DUP12 KECCAK256 DUP9 DUP5 DUP3 SLOAD AND OR SWAP1 SSTORE DUP4 CALLER SWAP2 PUSH1 0x0 DUP1 MLOAD PUSH1 0x20 PUSH2 0x3CD9 DUP4 CODECOPY DUP2 MLOAD SWAP2 MSTORE DUP14 DUP1 LOG4 CODESIZE PUSH2 0x1135 JUMP JUMPDEST DUP1 DUP12 MSTORE DUP2 DUP10 MSTORE DUP10 DUP12 KECCAK256 DUP5 DUP13 MSTORE DUP10 MSTORE DUP10 DUP12 KECCAK256 DUP9 DUP5 DUP3 SLOAD AND OR SWAP1 SSTORE DUP4 CALLER SWAP2 PUSH1 0x0 DUP1 MLOAD PUSH1 0x20 PUSH2 0x3CD9 DUP4 CODECOPY DUP2 MLOAD SWAP2 MSTORE DUP14 DUP1 LOG4 CODESIZE PUSH2 0x10F9 JUMP JUMPDEST DUP10 DUP1 MSTORE DUP1 DUP9 MSTORE DUP9 DUP11 KECCAK256 DUP4 DUP12 MSTORE DUP9 MSTORE DUP9 DUP11 KECCAK256 DUP8 DUP4 DUP3 SLOAD AND OR SWAP1 SSTORE CALLER DUP4 DUP12 PUSH1 0x0 DUP1 MLOAD PUSH1 0x20 PUSH2 0x3CD9 DUP4 CODECOPY DUP2 MLOAD SWAP2 MSTORE DUP2 DUP1 LOG4 PUSH2 0x10BE JUMP JUMPDEST PUSH2 0xFFFF NOT AND PUSH2 0x101 OR DUP10 SSTORE CODESIZE PUSH2 0x1052 JUMP JUMPDEST PUSH1 0x84 SWAP1 PUSH1 0x20 DUP10 MLOAD SWAP2 PUSH3 0x461BCD PUSH1 0xE5 SHL DUP4 MSTORE DUP3 ADD MSTORE PUSH1 0x2E PUSH1 0x24 DUP3 ADD MSTORE PUSH32 0x496E697469616C697A61626C653A20636F6E747261637420697320616C726561 PUSH1 0x44 DUP3 ADD MSTORE PUSH14 0x191E481A5B9A5D1A585B1A5E9959 PUSH1 0x92 SHL PUSH1 0x64 DUP3 ADD MSTORE REVERT JUMPDEST POP ADDRESS EXTCODESIZE ISZERO DUP1 ISZERO PUSH2 0x1038 JUMPI POP PUSH1 0x1 DUP4 DUP8 AND EQ PUSH2 0x1038 JUMP JUMPDEST POP PUSH1 0x1 DUP4 DUP8 AND LT PUSH2 0x1031 JUMP JUMPDEST SWAP1 POP CALLVALUE PUSH2 0x9E3 JUMPI DUP2 PUSH1 0x3 NOT CALLDATASIZE ADD SLT PUSH2 0x9E3 JUMPI DUP2 PUSH1 0x20 SWAP4 PUSH1 0xFF SWAP3 PUSH2 0x1377 PUSH2 0x2B15 JUMP JUMPDEST SWAP1 CALLDATALOAD DUP3 MSTORE PUSH1 0x65 DUP7 MSTORE DUP3 DUP3 KECCAK256 PUSH1 0x1 PUSH1 0x1 PUSH1 0xA0 SHL SUB SWAP1 SWAP2 AND DUP3 MSTORE DUP6 MSTORE KECCAK256 SLOAD SWAP2 MLOAD SWAP2 AND ISZERO ISZERO DUP2 MSTORE RETURN JUMPDEST POP POP CALLVALUE PUSH2 0x24F JUMPI DUP2 PUSH1 0x3 NOT CALLDATASIZE ADD SLT PUSH2 0x24F JUMPI PUSH1 0x20 PUSH32 0x62E78CEA01BEE320CD4E420270B5EA74000D11B0C9F74754EBDBFC544B05A258 SWAP2 PUSH2 0x13DB PUSH2 0x2E3B JUMP JUMPDEST PUSH2 0x13E3 PUSH2 0x373D JUMP JUMPDEST PUSH1 0x1 PUSH1 0xFF NOT PUSH1 0x97 SLOAD AND OR PUSH1 0x97 SSTORE MLOAD CALLER DUP2 MSTORE LOG1 DUP1 RETURN JUMPDEST DUP3 DUP5 CALLVALUE PUSH2 0x166F JUMPI DUP1 PUSH1 0x3 NOT CALLDATASIZE ADD SLT PUSH2 0x166F JUMPI SWAP1 DUP2 SWAP1 DUP3 SWAP1 PUSH2 0x166 SLOAD SWAP2 JUMPDEST DUP3 DUP2 LT PUSH2 0x1610 JUMPI POP PUSH2 0x1426 DUP4 PUSH2 0x37FF JUMP JUMPDEST SWAP3 PUSH2 0x1430 DUP2 PUSH2 0x37E7 JUMP JUMPDEST SWAP2 PUSH2 0x143D DUP2 MLOAD SWAP4 DUP5 PUSH2 0x2C34 JUMP JUMPDEST DUP2 DUP4 MSTORE PUSH1 0x1F NOT SWAP6 DUP7 PUSH2 0x144E DUP5 PUSH2 0x37E7 JUMP JUMPDEST ADD DUP2 JUMPDEST DUP2 DUP2 LT PUSH2 0x15FD JUMPI POP POP PUSH2 0x146C PUSH2 0x1466 DUP5 PUSH2 0x37FF JUMP JUMPDEST SWAP4 PUSH2 0x37FF JUMP JUMPDEST SWAP5 DUP2 DUP1 JUMPDEST DUP3 DUP3 LT PUSH2 0x151B JUMPI POP POP POP PUSH2 0x1491 SWAP7 DUP3 MLOAD SWAP8 DUP9 SWAP8 PUSH1 0x80 DUP10 MSTORE PUSH1 0x80 DUP10 ADD SWAP1 PUSH2 0x2DCA JUMP JUMPDEST PUSH1 0x20 SWAP1 DUP9 DUP2 SUB DUP3 DUP11 ADD MSTORE DUP7 MLOAD SWAP3 DUP4 DUP3 MSTORE DUP3 DUP3 ADD SWAP1 DUP4 DUP1 DUP7 PUSH1 0x5 SHL DUP6 ADD ADD SWAP10 ADD SWAP6 SWAP3 JUMPDEST DUP6 DUP5 LT PUSH2 0x14E3 JUMPI DUP12 DUP11 SUB DUP9 DUP14 ADD MSTORE DUP12 DUP1 PUSH2 0x14DF DUP14 PUSH2 0x14D1 DUP15 DUP15 PUSH2 0x2E07 JUMP JUMPDEST SWAP1 DUP4 DUP3 SUB PUSH1 0x60 DUP6 ADD MSTORE PUSH2 0x2E07 JUMP JUMPDEST SUB SWAP1 RETURN JUMPDEST SWAP2 SWAP4 DUP1 DUP1 SWAP8 SWAP12 SWAP13 POP PUSH2 0x1504 DUP12 DUP5 DUP7 PUSH1 0x1 SWAP7 SWAP9 SWAP11 SWAP13 SWAP14 SWAP15 SUB ADD DUP9 MSTORE DUP14 MLOAD PUSH2 0x2B4E JUMP JUMPDEST SWAP12 ADD SWAP5 ADD SWAP5 ADD SWAP2 DUP12 SWAP11 SWAP10 SWAP9 SWAP8 SWAP7 SWAP5 SWAP2 SWAP6 SWAP4 SWAP6 PUSH2 0x14B3 JUMP JUMPDEST PUSH2 0x152B DUP3 SWAP11 SWAP6 SWAP7 SWAP8 SWAP9 SWAP10 SWAP11 PUSH2 0x2D7D JUMP JUMPDEST PUSH1 0x1 DUP1 PUSH1 0xA0 SHL SUB SWAP2 SLOAD SWAP1 PUSH1 0x3 SHL SHR AND DUP1 DUP6 MSTORE DUP11 PUSH2 0x165 SWAP2 DUP11 DUP10 DUP9 PUSH1 0x20 SWAP5 DUP7 DUP7 MSTORE PUSH1 0xFF PUSH1 0x6 DUP5 DUP5 KECCAK256 ADD SLOAD AND PUSH2 0x1578 JUMPI JUMPDEST POP POP POP POP POP POP POP SWAP1 PUSH2 0x156B SWAP1 PUSH2 0x37D8 JUMP JUMPDEST SWAP1 SWAP9 SWAP8 SWAP7 SWAP6 SWAP5 SWAP4 SWAP9 PUSH2 0x1470 JUMP JUMPDEST SWAP7 DUP1 SWAP6 SWAP4 PUSH2 0x15B1 DUP7 PUSH2 0x15AC PUSH1 0x7 DUP3 SWAP8 PUSH2 0x15C1 SWAP8 PUSH2 0x15F1 SWAP14 SWAP12 PUSH2 0x156B SWAP16 DUP10 PUSH2 0x159E SWAP2 PUSH2 0x3831 JUMP JUMPDEST MSTORE DUP5 DUP2 MSTORE DUP12 DUP12 MSTORE KECCAK256 ADD PUSH2 0x2C56 JUMP JUMPDEST PUSH2 0x3845 JUMP JUMPDEST PUSH2 0x15BB DUP4 DUP4 PUSH2 0x3831 JUMP JUMPDEST MSTORE PUSH2 0x3831 JUMP JUMPDEST POP DUP12 PUSH2 0x15D6 DUP6 PUSH2 0x15D0 DUP5 PUSH2 0x3AA9 JUMP JUMPDEST SWAP3 PUSH2 0x3831 JUMP JUMPDEST MSTORE DUP9 MSTORE MSTORE PUSH1 0x2 DUP9 DUP8 KECCAK256 ADD SLOAD PUSH2 0x15EB DUP3 DUP14 PUSH2 0x3831 JUMP JUMPDEST MSTORE PUSH2 0x37D8 JUMP JUMPDEST SWAP1 DUP12 DUP1 DUP11 DUP10 DUP9 DUP16 PUSH2 0x155A JUMP JUMPDEST PUSH1 0x60 PUSH1 0x20 DUP3 DUP9 ADD DUP2 ADD SWAP2 SWAP1 SWAP2 MSTORE ADD PUSH2 0x1451 JUMP JUMPDEST PUSH2 0x161E DUP2 SWAP6 SWAP4 SWAP5 SWAP3 SWAP6 PUSH2 0x2D7D JUMP JUMPDEST SWAP1 SLOAD PUSH1 0x3 SWAP2 SWAP1 SWAP2 SHL SHR PUSH1 0x1 PUSH1 0x1 PUSH1 0xA0 SHL SUB AND DUP4 MSTORE PUSH2 0x165 PUSH1 0x20 MSTORE DUP5 DUP4 KECCAK256 PUSH1 0x6 ADD SLOAD PUSH1 0xFF AND PUSH2 0x165A JUMPI JUMPDEST PUSH2 0x1650 SWAP1 PUSH2 0x37D8 JUMP JUMPDEST SWAP4 SWAP1 SWAP3 SWAP2 SWAP4 PUSH2 0x1415 JUMP JUMPDEST SWAP1 PUSH2 0x1667 PUSH2 0x1650 SWAP2 PUSH2 0x37D8 JUMP JUMPDEST SWAP2 SWAP1 POP PUSH2 0x1647 JUMP JUMPDEST DUP1 REVERT JUMPDEST POP POP CALLVALUE PUSH2 0x24F JUMPI DUP2 PUSH1 0x3 NOT CALLDATASIZE ADD SLT PUSH2 0x24F JUMPI PUSH1 0x20 SWAP1 MLOAD PUSH32 0xA49807205CE4D355092EF5A8A18F56E8913CF4A201FBE287825B095693C21775 DUP2 MSTORE RETURN JUMPDEST POP POP CALLVALUE PUSH2 0x24F JUMPI DUP2 PUSH1 0x3 NOT CALLDATASIZE ADD SLT PUSH2 0x24F JUMPI PUSH2 0x164 SLOAD SWAP1 MLOAD PUSH1 0x1 PUSH1 0x1 PUSH1 0xA0 SHL SUB SWAP1 SWAP2 AND DUP2 MSTORE PUSH1 0x20 SWAP1 RETURN JUMPDEST DUP4 DUP4 CALLVALUE PUSH2 0x24F JUMPI PUSH1 0x20 CALLDATASIZE PUSH1 0x3 NOT ADD SLT PUSH2 0x24F JUMPI PUSH1 0x1 PUSH1 0x1 PUSH1 0xA0 SHL SUB SWAP2 PUSH2 0x177D SWAP1 DUP3 SWAP1 DUP5 PUSH2 0x1702 PUSH2 0x2AFA JUMP JUMPDEST AND DUP2 MSTORE PUSH2 0x165 PUSH1 0x20 MSTORE KECCAK256 SWAP3 DUP4 SLOAD AND SWAP3 PUSH1 0x1 DUP2 ADD SLOAD SWAP5 PUSH1 0x2 DUP3 ADD SLOAD SWAP1 PUSH1 0x3 DUP4 ADD SLOAD SWAP1 DUP4 ADD SLOAD PUSH1 0x5 DUP5 ADD SLOAD SWAP2 PUSH1 0xFF PUSH1 0x6 DUP7 ADD SLOAD AND SWAP4 PUSH1 0x8 PUSH2 0x1743 PUSH1 0x7 DUP9 ADD PUSH2 0x2C56 JUMP JUMPDEST SWAP7 ADD SLOAD SWAP8 DUP1 MLOAD SWAP11 DUP12 SWAP11 DUP12 MSTORE PUSH1 0x20 DUP12 ADD MSTORE DUP10 ADD MSTORE PUSH1 0x60 DUP9 ADD MSTORE PUSH1 0x80 DUP8 ADD MSTORE PUSH1 0xA0 DUP7 ADD MSTORE ISZERO ISZERO PUSH1 0xC0 DUP6 ADD MSTORE PUSH2 0x120 DUP1 PUSH1 0xE0 DUP7 ADD MSTORE DUP5 ADD SWAP1 PUSH2 0x2B4E JUMP JUMPDEST SWAP1 PUSH2 0x100 DUP4 ADD MSTORE SUB SWAP1 RETURN JUMPDEST DUP3 DUP5 CALLVALUE PUSH2 0x166F JUMPI DUP1 PUSH1 0x3 NOT CALLDATASIZE ADD SLT PUSH2 0x166F JUMPI PUSH2 0x166 SLOAD SWAP2 DUP2 DUP1 JUMPDEST DUP5 DUP2 LT PUSH2 0x183F JUMPI POP PUSH2 0x17B3 SWAP1 PUSH2 0x37FF JUMP JUMPDEST SWAP2 DUP1 DUP1 JUMPDEST DUP6 DUP2 LT PUSH2 0x17D3 JUMPI DUP4 MLOAD PUSH1 0x20 DUP1 DUP3 MSTORE DUP2 SWAP1 PUSH2 0x14DF SWAP1 DUP3 ADD DUP9 PUSH2 0x2DCA JUMP JUMPDEST PUSH2 0x17DC DUP2 PUSH2 0x2D7D JUMP JUMPDEST PUSH1 0x1 DUP1 PUSH1 0xA0 SHL SUB DUP1 SWAP3 SLOAD PUSH1 0x3 SWAP3 DUP4 SHL SHR AND DUP5 MSTORE PUSH2 0x165 PUSH1 0x20 MSTORE PUSH1 0xFF PUSH1 0x6 DUP8 DUP7 KECCAK256 ADD SLOAD AND PUSH2 0x1814 JUMPI JUMPDEST POP POP PUSH2 0x180F SWAP1 PUSH2 0x37D8 JUMP JUMPDEST PUSH2 0x17B7 JUMP JUMPDEST SWAP4 PUSH2 0x1837 SWAP2 DUP4 SWAP6 PUSH2 0x1827 PUSH2 0x180F SWAP6 PUSH2 0x2D7D JUMP JUMPDEST SWAP1 SLOAD SWAP2 SHL SHR AND PUSH2 0x15EB DUP3 DUP10 PUSH2 0x3831 JUMP JUMPDEST SWAP3 SWAP1 DUP8 PUSH2 0x1804 JUMP JUMPDEST PUSH2 0x1848 DUP2 PUSH2 0x2D7D JUMP JUMPDEST SWAP1 SLOAD PUSH1 0x3 SWAP2 SWAP1 SWAP2 SHL SHR PUSH1 0x1 PUSH1 0x1 PUSH1 0xA0 SHL SUB AND DUP5 MSTORE PUSH2 0x165 PUSH1 0x20 MSTORE DUP3 DUP5 KECCAK256 PUSH1 0x6 ADD SLOAD PUSH1 0xFF AND PUSH2 0x187F JUMPI JUMPDEST PUSH2 0x187A SWAP1 PUSH2 0x37D8 JUMP JUMPDEST PUSH2 0x17A2 JUMP JUMPDEST SWAP1 PUSH2 0x188C PUSH2 0x187A SWAP2 PUSH2 0x37D8 JUMP JUMPDEST SWAP2 SWAP1 POP PUSH2 0x1871 JUMP JUMPDEST POP POP CALLVALUE PUSH2 0x24F JUMPI DUP2 PUSH1 0x3 NOT CALLDATASIZE ADD SLT PUSH2 0x24F JUMPI PUSH1 0x20 SWAP1 PUSH2 0x162 SLOAD SWAP1 MLOAD SWAP1 DUP2 MSTORE RETURN JUMPDEST POP POP CALLVALUE PUSH2 0x24F JUMPI DUP2 PUSH1 0x3 NOT CALLDATASIZE ADD SLT PUSH2 0x24F JUMPI PUSH1 0x20 SWAP1 PUSH1 0xFF PUSH1 0x97 SLOAD AND SWAP1 MLOAD SWAP1 ISZERO ISZERO DUP2 MSTORE RETURN JUMPDEST SWAP1 POP CALLVALUE PUSH2 0x9E3 JUMPI PUSH1 0x20 CALLDATASIZE PUSH1 0x3 NOT ADD SLT PUSH2 0x9E3 JUMPI CALLDATALOAD SWAP2 PUSH2 0x166 SLOAD DUP4 LT ISZERO PUSH2 0x166F JUMPI POP PUSH2 0x1904 PUSH1 0x20 SWAP3 PUSH2 0x2D7D JUMP JUMPDEST SWAP1 SLOAD SWAP2 MLOAD SWAP2 PUSH1 0x1 DUP1 PUSH1 0xA0 SHL SUB SWAP2 PUSH1 0x3 SHL SHR AND DUP2 MSTORE RETURN JUMPDEST SWAP1 POP DUP3 CALLVALUE PUSH2 0x166F JUMPI DUP1 PUSH1 0x3 NOT CALLDATASIZE ADD SLT PUSH2 0x166F JUMPI POP PUSH32 0x0 PUSH1 0x1 PUSH1 0x1 PUSH1 0xA0 SHL SUB AND ADDRESS SUB PUSH2 0x1975 JUMPI PUSH1 0x20 DUP3 MLOAD PUSH1 0x0 DUP1 MLOAD PUSH1 0x20 PUSH2 0x3D19 DUP4 CODECOPY DUP2 MLOAD SWAP2 MSTORE DUP2 MSTORE RETURN JUMPDEST PUSH1 0x20 PUSH1 0x84 SWAP3 MLOAD SWAP2 PUSH3 0x461BCD PUSH1 0xE5 SHL DUP4 MSTORE DUP3 ADD MSTORE PUSH1 0x38 PUSH1 0x24 DUP3 ADD MSTORE PUSH32 0x555550535570677261646561626C653A206D757374206E6F742062652063616C PUSH1 0x44 DUP3 ADD MSTORE PUSH32 0x6C6564207468726F7567682064656C656761746563616C6C0000000000000000 PUSH1 0x64 DUP3 ADD MSTORE REVERT JUMPDEST POP POP CALLVALUE PUSH2 0x24F JUMPI DUP2 PUSH1 0x3 NOT CALLDATASIZE ADD SLT PUSH2 0x24F JUMPI PUSH1 0x20 SWAP1 MLOAD PUSH32 0x12B42E8A160F6064DC959C6F251E3AF0750AD213DBECF573B4710D67D6C28E39 DUP2 MSTORE RETURN JUMPDEST SWAP2 DUP1 SWAP2 POP PUSH1 0x3 NOT CALLDATASIZE ADD SLT PUSH2 0x9E3 JUMPI PUSH2 0x1A2E PUSH2 0x2AFA JUMP JUMPDEST SWAP1 PUSH1 0x24 CALLDATALOAD PUSH8 0xFFFFFFFFFFFFFFFF DUP2 GT PUSH2 0x63B JUMPI CALLDATASIZE PUSH1 0x23 DUP3 ADD SLT ISZERO PUSH2 0x63B JUMPI PUSH2 0x1A5F SWAP1 CALLDATASIZE SWAP1 PUSH1 0x24 DUP2 DUP8 ADD CALLDATALOAD SWAP2 ADD PUSH2 0x2D46 JUMP JUMPDEST PUSH1 0x1 PUSH1 0x1 PUSH1 0xA0 SHL SUB PUSH32 0x0 DUP2 AND SWAP3 SWAP2 SWAP1 PUSH2 0x1A99 ADDRESS DUP6 EQ ISZERO PUSH2 0x32DD JUMP JUMPDEST PUSH2 0x1AB6 PUSH1 0x0 DUP1 MLOAD PUSH1 0x20 PUSH2 0x3D19 DUP4 CODECOPY DUP2 MLOAD SWAP2 MSTORE SWAP5 DUP3 DUP7 SLOAD AND EQ PUSH2 0x333E JUMP JUMPDEST PUSH2 0x1ABE PUSH2 0x3017 JUMP JUMPDEST PUSH32 0x4910FDFA16FED3260ED0E7147F7CC6DA11A60208B5B9406D12A635614FFD9143 SLOAD PUSH1 0xFF AND ISZERO PUSH2 0x1AF6 JUMPI POP POP POP POP PUSH2 0xC0E SWAP2 POP PUSH2 0x339F JUMP JUMPDEST DUP3 MLOAD PUSH4 0x52D1902D PUSH1 0xE0 SHL DUP2 MSTORE PUSH1 0x20 SWAP6 SWAP4 SWAP5 SWAP2 DUP5 AND SWAP2 SWAP1 DUP7 DUP2 DUP10 DUP2 DUP7 GAS STATICCALL DUP10 SWAP2 DUP2 PUSH2 0x1CB9 JUMPI JUMPDEST POP PUSH2 0x1B7A JUMPI DUP6 MLOAD PUSH3 0x461BCD PUSH1 0xE5 SHL DUP2 MSTORE DUP1 DUP10 ADD DUP9 SWAP1 MSTORE PUSH1 0x2E PUSH1 0x24 DUP3 ADD MSTORE PUSH32 0x45524331393637557067726164653A206E657720696D706C656D656E74617469 PUSH1 0x44 DUP3 ADD MSTORE PUSH14 0x6F6E206973206E6F742055555053 PUSH1 0x90 SHL PUSH1 0x64 DUP3 ADD MSTORE PUSH1 0x84 SWAP1 REVERT JUMPDEST SWAP7 SWAP2 SWAP3 SWAP6 SWAP5 SWAP4 SWAP7 SUB PUSH2 0x1C64 JUMPI POP PUSH2 0x1B90 DUP6 PUSH2 0x339F JUMP JUMPDEST PUSH32 0xBC7CD75A20EE27FD9ADEBAB32041F755214DBC6BFFA90CC0225B39DA2E5C2D3B DUP7 DUP1 LOG2 DUP3 MLOAD ISZERO DUP1 ISZERO SWAP1 PUSH2 0x1C5C JUMPI JUMPDEST PUSH2 0x1BCB JUMPI JUMPDEST POP POP POP POP DUP1 RETURN JUMPDEST PUSH2 0x1C48 SWAP4 DUP6 DUP1 DUP4 MLOAD SWAP6 PUSH2 0x1BDD DUP8 PUSH2 0x2BE0 JUMP JUMPDEST PUSH1 0x27 DUP8 MSTORE PUSH32 0x416464726573733A206C6F772D6C6576656C2064656C65676174652063616C6C DUP7 DUP9 ADD MSTORE PUSH7 0x819985A5B1959 PUSH1 0xCA SHL DUP6 DUP9 ADD MSTORE DUP6 DUP2 MLOAD SWAP2 ADD DUP5 GAS DELEGATECALL SWAP2 RETURNDATASIZE ISZERO PUSH2 0x1C52 JUMPI RETURNDATASIZE PUSH2 0x1C3A PUSH2 0x1C31 DUP3 PUSH2 0x2D2A JUMP JUMPDEST SWAP3 MLOAD SWAP3 DUP4 PUSH2 0x2C34 JUMP JUMPDEST DUP2 MSTORE DUP7 DUP2 SWAP5 RETURNDATASIZE SWAP3 ADD RETURNDATACOPY PUSH2 0x342F JUMP JUMPDEST POP CODESIZE DUP1 DUP1 DUP1 PUSH2 0x1BC4 JUMP JUMPDEST POP PUSH1 0x60 SWAP3 POP PUSH2 0x342F JUMP JUMPDEST POP PUSH1 0x1 PUSH2 0x1BBF JUMP JUMPDEST DUP3 MLOAD PUSH3 0x461BCD PUSH1 0xE5 SHL DUP2 MSTORE SWAP1 DUP2 ADD DUP5 SWAP1 MSTORE PUSH1 0x29 PUSH1 0x24 DUP3 ADD MSTORE PUSH32 0x45524331393637557067726164653A20756E737570706F727465642070726F78 PUSH1 0x44 DUP3 ADD MSTORE PUSH9 0x1A58589B1955555251 PUSH1 0xBA SHL PUSH1 0x64 DUP3 ADD MSTORE PUSH1 0x84 SWAP1 REVERT JUMPDEST SWAP1 SWAP2 POP DUP8 DUP2 DUP2 RETURNDATASIZE DUP4 GT PUSH2 0x1CE5 JUMPI JUMPDEST PUSH2 0x1CD1 DUP2 DUP4 PUSH2 0x2C34 JUMP JUMPDEST DUP2 ADD SUB SLT PUSH2 0x1CE1 JUMPI MLOAD SWAP1 CODESIZE PUSH2 0x1B1B JUMP JUMPDEST DUP10 DUP1 REVERT JUMPDEST POP RETURNDATASIZE PUSH2 0x1CC7 JUMP JUMPDEST DUP4 SWAP1 CALLVALUE PUSH2 0x24F JUMPI PUSH1 0x20 CALLDATASIZE PUSH1 0x3 NOT ADD SLT PUSH2 0x24F JUMPI PUSH2 0x1D07 PUSH2 0x2E3B JUMP JUMPDEST CALLDATALOAD PUSH2 0x15F SSTORE DUP1 RETURN JUMPDEST POP POP CALLVALUE PUSH2 0x24F JUMPI DUP2 PUSH1 0x3 NOT CALLDATASIZE ADD SLT PUSH2 0x24F JUMPI PUSH2 0x1D29 PUSH2 0x2E3B JUMP JUMPDEST DUP2 JUMPDEST PUSH2 0x166 SLOAD DUP2 LT ISZERO PUSH2 0x1E11 JUMPI DUP1 PUSH2 0x1D43 PUSH2 0x1D82 SWAP3 PUSH2 0x2D7D JUMP JUMPDEST PUSH1 0x1 DUP1 PUSH1 0xA0 SHL SUB SWAP2 SLOAD SWAP1 PUSH1 0x3 SHL SHR AND DUP1 DUP6 MSTORE PUSH2 0x165 PUSH1 0x20 SWAP1 DUP1 DUP3 MSTORE DUP6 DUP8 KECCAK256 SWAP2 PUSH1 0x6 SWAP3 PUSH1 0xFF DUP5 DUP3 ADD SLOAD AND SWAP1 DUP2 PUSH2 0x1DF7 JUMPI JUMPDEST POP PUSH2 0x1D87 JUMPI JUMPDEST POP POP POP POP PUSH2 0x37D8 JUMP JUMPDEST PUSH2 0x1D2B JUMP JUMPDEST PUSH32 0xBB0E736B635387CAA7EACD963CB5EBD26D81ACC0B84DECB6818D7B7277F67E9 SWAP3 PUSH1 0x60 SWAP3 DUP6 DUP11 MSTORE DUP3 MSTORE DUP8 DUP10 KECCAK256 ADD PUSH1 0xFF NOT DUP2 SLOAD AND SWAP1 SSTORE PUSH1 0x1D DUP8 MLOAD SWAP2 DUP1 DUP4 MSTORE DUP3 ADD MSTORE PUSH32 0x496E6163746976697479207468726573686F6C64206578636565646564000000 DUP8 DUP3 ADD MSTORE LOG2 CODESIZE DUP1 DUP1 DUP1 PUSH2 0x1D79 JUMP JUMPDEST PUSH2 0x1E06 SWAP2 POP PUSH1 0x5 ADD SLOAD TIMESTAMP PUSH2 0x3A9C JUMP JUMPDEST PUSH2 0x163 SLOAD LT CODESIZE PUSH2 0x1D73 JUMP JUMPDEST DUP3 DUP1 RETURN JUMPDEST SWAP2 SWAP1 POP CALLVALUE PUSH2 0x9E3 JUMPI PUSH1 0x60 CALLDATASIZE PUSH1 0x3 NOT ADD SLT PUSH2 0x9E3 JUMPI DUP2 CALLDATALOAD SWAP1 PUSH2 0x1E34 PUSH2 0x2B15 JUMP JUMPDEST SWAP3 PUSH1 0x44 CALLDATALOAD DUP1 ISZERO ISZERO SWAP2 DUP3 DUP3 SUB PUSH2 0x1F9C JUMPI PUSH2 0x1E4B PUSH2 0x2E3B JUMP JUMPDEST PUSH2 0x1E53 PUSH2 0x373D JUMP JUMPDEST PUSH1 0x1 DUP1 PUSH1 0xA0 SHL SUB DUP7 AND SWAP6 DUP7 DUP9 MSTORE PUSH2 0x165 SWAP2 PUSH1 0x20 SWAP4 DUP4 DUP6 MSTORE PUSH2 0x1E7C PUSH1 0xFF PUSH1 0x6 DUP10 DUP14 KECCAK256 ADD SLOAD AND PUSH2 0x3A5A JUMP JUMPDEST DUP8 DUP11 MSTORE PUSH2 0x167 SWAP4 DUP5 DUP7 MSTORE PUSH1 0xFF DUP4 DUP10 DUP14 KECCAK256 ADD SLOAD AND PUSH2 0x1F59 JUMPI SWAP2 DUP8 SWAP7 SWAP6 SWAP5 SWAP4 SWAP2 PUSH2 0x1F14 SWAP4 PUSH1 0x3 PUSH32 0xB48E6A2CDE5D6737DB899CA96ABF738DE637E170D6E1BC4837E601531521E597 SWAP11 DUP15 DUP15 DUP15 DUP3 MSTORE DUP10 DUP12 MSTORE DUP7 DUP4 DUP4 KECCAK256 ADD PUSH1 0x1 DUP14 PUSH2 0xFF00 DUP4 SLOAD SWAP2 PUSH1 0x8 SHL AND SWAP1 PUSH2 0xFFFF NOT AND OR OR SWAP1 SSTORE DUP2 MSTORE DUP4 DUP11 MSTORE KECCAK256 ADD PUSH2 0x1EF7 DUP2 SLOAD PUSH2 0x37D8 JUMP JUMPDEST SWAP1 SSTORE DUP12 DUP14 MSTORE DUP7 MSTORE DUP8 DUP13 KECCAK256 SWAP1 TIMESTAMP PUSH1 0x5 DUP4 ADD SSTORE PUSH2 0x1F45 JUMPI JUMPDEST POP POP PUSH2 0x3BEB JUMP JUMPDEST DUP6 DUP9 MSTORE DUP2 MSTORE PUSH1 0x2 DUP4 DUP9 KECCAK256 ADD SLOAD SWAP1 DUP7 DUP9 MSTORE PUSH2 0x168 DUP2 MSTORE DUP4 DUP9 KECCAK256 PUSH2 0x1F37 DUP4 DUP3 SLOAD PUSH2 0x34F1 JUMP JUMPDEST SWAP1 SSTORE DUP4 MLOAD SWAP3 DUP4 MSTORE DUP3 ADD MSTORE LOG3 DUP1 RETURN JUMPDEST ADD PUSH2 0x1F50 DUP2 SLOAD PUSH2 0x37D8 JUMP JUMPDEST SWAP1 SSTORE CODESIZE DUP1 PUSH2 0x1F0D JUMP JUMPDEST DUP8 MLOAD PUSH3 0x461BCD PUSH1 0xE5 SHL DUP2 MSTORE DUP1 DUP5 ADD DUP8 SWAP1 MSTORE PUSH1 0x1E PUSH1 0x24 DUP3 ADD MSTORE PUSH32 0x566572696669636174696F6E20616C726561647920636F6D706C657465640000 PUSH1 0x44 DUP3 ADD MSTORE PUSH1 0x64 SWAP1 REVERT JUMPDEST DUP7 DUP1 REVERT JUMPDEST SWAP1 POP CALLVALUE PUSH2 0x9E3 JUMPI DUP3 PUSH1 0x3 NOT CALLDATASIZE ADD SLT PUSH2 0x9E3 JUMPI PUSH2 0x1FBA PUSH2 0x2E3B JUMP JUMPDEST PUSH1 0x97 SLOAD SWAP1 PUSH1 0xFF DUP3 AND ISZERO PUSH2 0x1FFC JUMPI POP PUSH1 0xFF NOT AND PUSH1 0x97 SSTORE MLOAD CALLER DUP2 MSTORE PUSH32 0x5DB9EE0A495BF2E6FF9C91A7834C1BA4FDD244A5E8AA4E537BD38AEAE4B073AA SWAP1 PUSH1 0x20 SWAP1 LOG1 DUP1 RETURN JUMPDEST PUSH1 0x64 SWAP1 PUSH1 0x20 DUP5 MLOAD SWAP2 PUSH3 0x461BCD PUSH1 0xE5 SHL DUP4 MSTORE DUP3 ADD MSTORE PUSH1 0x14 PUSH1 0x24 DUP3 ADD MSTORE PUSH20 0x14185D5CD8589B194E881B9BDD081C185D5CD959 PUSH1 0x62 SHL PUSH1 0x44 DUP3 ADD MSTORE REVERT JUMPDEST SWAP2 SWAP1 POP CALLVALUE PUSH2 0x9E3 JUMPI PUSH1 0x20 DUP1 PUSH1 0x3 NOT CALLDATASIZE ADD SLT PUSH2 0x22F1 JUMPI PUSH2 0x2053 PUSH2 0x2AFA JUMP JUMPDEST SWAP2 PUSH1 0x1 PUSH1 0x1 PUSH1 0xA0 SHL SUB PUSH32 0x0 DUP2 AND PUSH2 0x208B ADDRESS DUP3 EQ ISZERO PUSH2 0x32DD JUMP JUMPDEST PUSH2 0x20A8 PUSH1 0x0 DUP1 MLOAD PUSH1 0x20 PUSH2 0x3D19 DUP4 CODECOPY DUP2 MLOAD SWAP2 MSTORE SWAP2 DUP4 DUP4 SLOAD AND EQ PUSH2 0x333E JUMP JUMPDEST PUSH2 0x20B0 PUSH2 0x3017 JUMP JUMPDEST DUP3 MLOAD SWAP1 DUP5 DUP3 ADD SWAP3 DUP3 DUP5 LT PUSH8 0xFFFFFFFFFFFFFFFF DUP6 GT OR PUSH2 0x22DE JUMPI DUP4 DUP6 MSTORE DUP9 DUP4 MSTORE PUSH32 0x4910FDFA16FED3260ED0E7147F7CC6DA11A60208B5B9406D12A635614FFD9143 SLOAD PUSH1 0xFF AND ISZERO PUSH2 0x210A JUMPI POP POP POP POP POP POP PUSH2 0xC0E SWAP2 POP PUSH2 0x339F JUMP JUMPDEST DUP7 SWAP3 SWAP4 SWAP5 SWAP6 SWAP7 AND SWAP1 DUP6 MLOAD PUSH4 0x52D1902D PUSH1 0xE0 SHL DUP2 MSTORE DUP8 DUP2 DUP11 DUP2 DUP7 GAS STATICCALL DUP11 SWAP2 DUP2 PUSH2 0x22AB JUMPI JUMPDEST POP PUSH2 0x218C JUMPI DUP7 MLOAD PUSH3 0x461BCD PUSH1 0xE5 SHL DUP2 MSTORE DUP1 DUP11 ADD DUP10 SWAP1 MSTORE PUSH1 0x2E PUSH1 0x24 DUP3 ADD MSTORE PUSH32 0x45524331393637557067726164653A206E657720696D706C656D656E74617469 PUSH1 0x44 DUP3 ADD MSTORE PUSH14 0x6F6E206973206E6F742055555053 PUSH1 0x90 SHL PUSH1 0x64 DUP3 ADD MSTORE PUSH1 0x84 SWAP1 REVERT JUMPDEST SWAP8 SWAP2 SWAP3 SWAP4 SWAP7 SWAP6 SWAP5 SWAP8 SUB PUSH2 0x2256 JUMPI POP PUSH2 0x21A3 DUP3 PUSH2 0x339F JUMP JUMPDEST PUSH32 0xBC7CD75A20EE27FD9ADEBAB32041F755214DBC6BFFA90CC0225B39DA2E5C2D3B DUP8 DUP1 LOG2 DUP6 DUP5 MLOAD ISZERO DUP1 ISZERO SWAP1 PUSH2 0x224F JUMPI JUMPDEST PUSH2 0x21E1 JUMPI JUMPDEST POP POP POP POP POP POP DUP1 RETURN JUMPDEST DUP1 PUSH2 0x2243 SWAP7 DUP5 MLOAD SWAP7 PUSH2 0x21F2 DUP9 PUSH2 0x2BE0 JUMP JUMPDEST PUSH1 0x27 DUP9 MSTORE PUSH32 0x416464726573733A206C6F772D6C6576656C2064656C65676174652063616C6C DUP8 DUP10 ADD MSTORE PUSH7 0x819985A5B1959 PUSH1 0xCA SHL DUP7 DUP10 ADD MSTORE MLOAD SWAP1 DUP5 GAS DELEGATECALL SWAP2 RETURNDATASIZE ISZERO PUSH2 0x1C52 JUMPI RETURNDATASIZE PUSH2 0x1C3A PUSH2 0x1C31 DUP3 PUSH2 0x2D2A JUMP JUMPDEST POP CODESIZE DUP1 DUP1 DUP1 DUP1 DUP6 PUSH2 0x21D8 JUMP JUMPDEST POP DUP1 PUSH2 0x21D3 JUMP JUMPDEST DUP4 MLOAD PUSH3 0x461BCD PUSH1 0xE5 SHL DUP2 MSTORE SWAP1 DUP2 ADD DUP6 SWAP1 MSTORE PUSH1 0x29 PUSH1 0x24 DUP3 ADD MSTORE PUSH32 0x45524331393637557067726164653A20756E737570706F727465642070726F78 PUSH1 0x44 DUP3 ADD MSTORE PUSH9 0x1A58589B1955555251 PUSH1 0xBA SHL PUSH1 0x64 DUP3 ADD MSTORE PUSH1 0x84 SWAP1 REVERT JUMPDEST SWAP1 SWAP2 POP DUP9 DUP2 DUP2 RETURNDATASIZE DUP4 GT PUSH2 0x22D7 JUMPI JUMPDEST PUSH2 0x22C3 DUP2 DUP4 PUSH2 0x2C34 JUMP JUMPDEST DUP2 ADD SUB SLT PUSH2 0x22D3 JUMPI MLOAD SWAP1 CODESIZE PUSH2 0x212D JUMP JUMPDEST DUP11 DUP1 REVERT JUMPDEST POP RETURNDATASIZE PUSH2 0x22B9 JUMP JUMPDEST PUSH4 0x4E487B71 PUSH1 0xE0 SHL DUP10 MSTORE PUSH1 0x41 DUP9 MSTORE PUSH1 0x24 DUP10 REVERT JUMPDEST DUP4 DUP1 REVERT JUMPDEST DUP4 SWAP2 POP CALLVALUE PUSH2 0x24F JUMPI DUP3 PUSH1 0x3 NOT CALLDATASIZE ADD SLT PUSH2 0x24F JUMPI PUSH2 0x2310 PUSH2 0x2B15 JUMP JUMPDEST SWAP1 CALLER PUSH1 0x1 PUSH1 0x1 PUSH1 0xA0 SHL SUB DUP4 AND SUB PUSH2 0x232C JUMPI SWAP1 PUSH2 0xC0E SWAP2 CALLDATALOAD PUSH2 0x3267 JUMP JUMPDEST PUSH1 0x84 SWAP1 PUSH1 0x20 DUP6 MLOAD SWAP2 PUSH3 0x461BCD PUSH1 0xE5 SHL DUP4 MSTORE DUP3 ADD MSTORE PUSH1 0x2F PUSH1 0x24 DUP3 ADD MSTORE PUSH32 0x416363657373436F6E74726F6C3A2063616E206F6E6C792072656E6F756E6365 PUSH1 0x44 DUP3 ADD MSTORE PUSH15 0x103937B632B9903337B91039B2B633 PUSH1 0x89 SHL PUSH1 0x64 DUP3 ADD MSTORE REVERT JUMPDEST SWAP1 POP CALLVALUE PUSH2 0x9E3 JUMPI DUP2 PUSH1 0x3 NOT CALLDATASIZE ADD SLT PUSH2 0x9E3 JUMPI CALLDATALOAD SWAP1 PUSH2 0x23A3 PUSH2 0x2B15 JUMP JUMPDEST SWAP1 DUP3 DUP5 MSTORE PUSH1 0x65 PUSH1 0x20 MSTORE PUSH2 0x23BB PUSH1 0x1 DUP3 DUP7 KECCAK256 ADD SLOAD PUSH2 0x315C JUMP JUMPDEST DUP3 DUP5 MSTORE PUSH1 0x65 PUSH1 0x20 SWAP1 DUP2 MSTORE DUP2 DUP6 KECCAK256 PUSH1 0x1 PUSH1 0x1 PUSH1 0xA0 SHL SUB SWAP1 SWAP4 AND DUP1 DUP7 MSTORE SWAP3 SWAP1 MSTORE DUP1 DUP5 KECCAK256 SLOAD PUSH1 0xFF AND ISZERO PUSH2 0x23E9 JUMPI DUP4 DUP1 RETURN JUMPDEST DUP3 DUP5 MSTORE PUSH1 0x65 PUSH1 0x20 MSTORE DUP1 DUP5 KECCAK256 DUP3 DUP6 MSTORE PUSH1 0x20 MSTORE DUP4 KECCAK256 PUSH1 0x1 PUSH1 0xFF NOT DUP3 SLOAD AND OR SWAP1 SSTORE CALLER SWAP2 PUSH1 0x0 DUP1 MLOAD PUSH1 0x20 PUSH2 0x3CD9 DUP4 CODECOPY DUP2 MLOAD SWAP2 MSTORE DUP5 DUP1 LOG4 CODESIZE DUP1 DUP1 DUP4 DUP1 RETURN JUMPDEST DUP4 SWAP1 CALLVALUE PUSH2 0x24F JUMPI PUSH1 0x20 CALLDATASIZE PUSH1 0x3 NOT ADD SLT PUSH2 0x24F JUMPI PUSH2 0x243D PUSH2 0x2E3B JUMP JUMPDEST CALLDATALOAD PUSH2 0x161 SSTORE DUP1 RETURN JUMPDEST SWAP1 POP CALLVALUE PUSH2 0x9E3 JUMPI PUSH1 0x20 CALLDATASIZE PUSH1 0x3 NOT ADD SLT PUSH2 0x9E3 JUMPI DUP2 PUSH1 0x20 SWAP4 PUSH1 0x1 SWAP3 CALLDATALOAD DUP2 MSTORE PUSH1 0x65 DUP6 MSTORE KECCAK256 ADD SLOAD SWAP1 MLOAD SWAP1 DUP2 MSTORE RETURN JUMPDEST DUP4 PUSH1 0x20 DUP5 CALLDATASIZE PUSH1 0x3 NOT ADD DUP3 SGT PUSH2 0x9E3 JUMPI PUSH8 0xFFFFFFFFFFFFFFFF DUP5 CALLDATALOAD DUP2 DUP2 GT PUSH2 0x63B JUMPI PUSH2 0x249E SWAP1 CALLDATASIZE SWAP1 DUP8 ADD PUSH2 0x2CFC JUMP JUMPDEST SWAP3 SWAP1 SWAP2 PUSH2 0x24A9 PUSH2 0x373D JUMP JUMPDEST PUSH2 0x24B1 PUSH2 0x3781 JUMP JUMPDEST CALLER DUP7 MSTORE PUSH2 0x165 DUP6 MSTORE PUSH1 0xFF PUSH1 0x6 DUP4 DUP9 KECCAK256 ADD SLOAD AND PUSH2 0x286E JUMPI DUP4 ISZERO PUSH2 0x282B JUMPI PUSH2 0x164 SLOAD PUSH1 0x1 PUSH1 0x1 PUSH1 0xA0 SHL SUB SWAP2 SWAP1 DUP3 AND DUP1 PUSH2 0x27A3 JUMPI POP PUSH2 0x15F SLOAD CALLVALUE LT PUSH2 0x2760 JUMPI CALLVALUE SWAP6 JUMPDEST DUP4 MLOAD SWAP2 PUSH2 0x24FC DUP4 PUSH2 0x2BAD JUMP JUMPDEST CALLER DUP4 MSTORE DUP8 DUP3 DUP5 ADD MSTORE PUSH2 0x1388 DUP6 DUP5 ADD MSTORE DUP9 PUSH1 0x60 DUP5 ADD MSTORE DUP9 PUSH1 0x80 DUP5 ADD MSTORE TIMESTAMP PUSH1 0xA0 DUP5 ADD MSTORE PUSH1 0x1 PUSH1 0xC0 DUP5 ADD MSTORE PUSH2 0x252F CALLDATASIZE DUP9 DUP9 PUSH2 0x2D46 JUMP JUMPDEST PUSH1 0xE0 DUP5 ADD SWAP1 DUP2 MSTORE PUSH2 0x100 DUP5 ADD SWAP2 TIMESTAMP DUP4 MSTORE CALLER DUP12 MSTORE PUSH2 0x165 DUP5 MSTORE DUP7 DUP12 KECCAK256 SWAP5 DUP7 DUP2 MLOAD AND PUSH12 0xFFFFFFFFFFFFFFFFFFFFFFFF PUSH1 0xA0 SHL DUP8 SLOAD AND OR DUP7 SSTORE DUP5 DUP2 ADD MLOAD PUSH1 0x1 DUP8 ADD SSTORE DUP8 DUP2 ADD MLOAD PUSH1 0x2 DUP8 ADD SSTORE PUSH1 0x60 DUP2 ADD MLOAD PUSH1 0x3 DUP8 ADD SSTORE PUSH1 0x80 DUP2 ADD MLOAD DUP14 DUP8 ADD SSTORE PUSH1 0xA0 DUP2 ADD MLOAD PUSH1 0x5 DUP8 ADD SSTORE PUSH1 0xC0 PUSH1 0x6 DUP8 ADD SWAP2 ADD MLOAD ISZERO ISZERO PUSH1 0xFF DUP1 NOT DUP4 SLOAD AND SWAP2 AND OR SWAP1 SSTORE PUSH1 0x7 DUP6 ADD SWAP2 MLOAD DUP1 MLOAD SWAP2 DUP3 GT PUSH2 0x274D JUMPI PUSH2 0x25C4 DUP4 SLOAD PUSH2 0x2B73 JUMP JUMPDEST PUSH1 0x1F DUP2 GT PUSH2 0x2705 JUMPI JUMPDEST POP DUP5 SWAP1 DUP13 PUSH1 0x1F DUP5 GT PUSH1 0x1 EQ PUSH2 0x2699 JUMPI PUSH1 0x8 SWAP7 POP SWAP2 SWAP1 DUP4 PUSH2 0x268E JUMPI JUMPDEST POP POP DUP2 PUSH1 0x1 SHL SWAP2 PUSH1 0x0 NOT SWAP1 PUSH1 0x3 SHL SHR NOT AND OR SWAP1 SSTORE JUMPDEST MLOAD SWAP2 ADD SSTORE PUSH2 0x166 DUP1 SLOAD SWAP1 PUSH9 0x10000000000000000 DUP3 LT ISZERO PUSH2 0x267B JUMPI SWAP2 PUSH2 0x2650 DUP3 PUSH2 0x266F SWAP5 PUSH1 0x1 PUSH32 0xF0734B98DFC7770549B33CA5C3F377B6FD40EBBFB8F6D7E39AEE74FD5B3530DE SWAP10 SWAP9 SWAP8 SWAP6 ADD SWAP1 SSTORE PUSH2 0x2D7D JUMP JUMPDEST DUP2 SWAP3 SWAP2 SLOAD SWAP1 PUSH1 0x3 SHL SWAP2 CALLER DUP4 SHL SWAP3 SHL NOT AND OR SWAP1 SSTORE MLOAD SWAP3 DUP4 SWAP3 CALLER SWAP7 DUP5 PUSH2 0x370F JUMP JUMPDEST SUB SWAP1 LOG2 PUSH1 0x1 PUSH2 0x12D SSTORE DUP1 RETURN JUMPDEST PUSH4 0x4E487B71 PUSH1 0xE0 SHL DUP9 MSTORE PUSH1 0x41 DUP10 MSTORE PUSH1 0x24 DUP9 REVERT JUMPDEST ADD MLOAD SWAP1 POP DUP14 DUP1 PUSH2 0x25E8 JUMP JUMPDEST SWAP3 SWAP4 SWAP5 SWAP6 PUSH1 0x1F NOT DUP6 AND SWAP1 DUP7 DUP6 MSTORE DUP1 DUP6 KECCAK256 SWAP5 SWAP1 JUMPDEST DUP3 DUP3 LT PUSH2 0x26ED JUMPI POP POP SWAP2 PUSH1 0x1 SWAP4 SWAP2 DUP6 PUSH1 0x8 SWAP9 SWAP8 SWAP7 SWAP5 LT PUSH2 0x26D4 JUMPI JUMPDEST POP POP POP DUP2 SHL ADD SWAP1 SSTORE PUSH2 0x25FD JUMP JUMPDEST ADD MLOAD PUSH1 0x0 NOT PUSH1 0xF8 DUP5 PUSH1 0x3 SHL AND SHR NOT AND SWAP1 SSTORE DUP14 DUP1 DUP1 PUSH2 0x26C7 JUMP JUMPDEST DUP1 PUSH1 0x1 DUP7 SWAP8 DUP3 SWAP5 SWAP8 DUP8 ADD MLOAD DUP2 SSTORE ADD SWAP7 ADD SWAP5 ADD SWAP1 PUSH2 0x26AC JUMP JUMPDEST DUP4 DUP14 MSTORE DUP6 DUP14 KECCAK256 PUSH1 0x1F DUP5 ADD PUSH1 0x5 SHR DUP2 ADD SWAP2 DUP8 DUP6 LT PUSH2 0x2743 JUMPI JUMPDEST PUSH1 0x1F ADD PUSH1 0x5 SHR ADD SWAP1 DUP14 SWAP1 JUMPDEST DUP3 DUP2 LT PUSH2 0x2736 JUMPI POP POP PUSH2 0x25CD JUMP JUMPDEST PUSH1 0x1 SWAP2 DUP2 SSTORE ADD DUP14 SWAP1 PUSH2 0x2728 JUMP JUMPDEST SWAP1 SWAP2 POP DUP2 SWAP1 PUSH2 0x271D JUMP JUMPDEST PUSH4 0x4E487B71 PUSH1 0xE0 SHL DUP13 MSTORE PUSH1 0x41 DUP14 MSTORE PUSH1 0x24 DUP13 REVERT JUMPDEST DUP3 MLOAD PUSH3 0x461BCD PUSH1 0xE5 SHL DUP2 MSTORE DUP1 DUP10 ADD DUP8 SWAP1 MSTORE PUSH1 0x19 PUSH1 0x24 DUP3 ADD MSTORE PUSH32 0x496E73756666696369656E74207374616B6520616D6F756E7400000000000000 PUSH1 0x44 DUP3 ADD MSTORE PUSH1 0x64 SWAP1 REVERT JUMPDEST SWAP6 PUSH2 0x27AE CALLVALUE ISZERO PUSH2 0x365B JUMP JUMPDEST PUSH2 0x15F SLOAD DUP5 MLOAD PUSH4 0x23B872DD PUSH1 0xE0 SHL DUP2 MSTORE CALLER DUP2 DUP13 ADD SWAP1 DUP2 MSTORE ADDRESS PUSH1 0x20 DUP3 ADD MSTORE PUSH1 0x40 DUP2 ADD DUP4 SWAP1 MSTORE SWAP2 SWAP9 SWAP1 SWAP2 DUP4 SWAP2 DUP4 SWAP2 DUP3 SWAP1 DUP14 SWAP1 DUP3 SWAP1 PUSH1 0x60 ADD SUB SWAP3 GAS CALL SWAP1 DUP2 ISZERO PUSH2 0x2821 JUMPI SWAP1 PUSH2 0x27FF SWAP2 DUP11 SWAP2 PUSH2 0x2804 JUMPI POP PUSH2 0x36CB JUMP JUMPDEST PUSH2 0x24F0 JUMP JUMPDEST PUSH2 0x281B SWAP2 POP DUP4 RETURNDATASIZE DUP6 GT PUSH2 0x806 JUMPI PUSH2 0x7F7 DUP2 DUP4 PUSH2 0x2C34 JUMP JUMPDEST DUP12 PUSH2 0xB5F JUMP JUMPDEST DUP6 MLOAD RETURNDATASIZE DUP12 DUP3 RETURNDATACOPY RETURNDATASIZE SWAP1 REVERT JUMPDEST DUP2 MLOAD PUSH3 0x461BCD PUSH1 0xE5 SHL DUP2 MSTORE DUP1 DUP9 ADD DUP7 SWAP1 MSTORE PUSH1 0x18 PUSH1 0x24 DUP3 ADD MSTORE PUSH32 0x4D657461646174612063616E6E6F7420626520656D7074790000000000000000 PUSH1 0x44 DUP3 ADD MSTORE PUSH1 0x64 SWAP1 REVERT JUMPDEST DUP2 MLOAD PUSH3 0x461BCD PUSH1 0xE5 SHL DUP2 MSTORE DUP1 DUP9 ADD DUP7 SWAP1 MSTORE PUSH1 0x1E PUSH1 0x24 DUP3 ADD MSTORE PUSH32 0x416C726561647920726567697374657265642061732076657269666965720000 PUSH1 0x44 DUP3 ADD MSTORE PUSH1 0x64 SWAP1 REVERT JUMPDEST DUP3 DUP5 CALLVALUE PUSH2 0x166F JUMPI PUSH1 0x20 CALLDATASIZE PUSH1 0x3 NOT ADD SLT PUSH2 0x166F JUMPI DUP2 PUSH2 0x14DF SWAP2 DUP5 CALLDATALOAD DUP2 MSTORE PUSH2 0x167 PUSH1 0x20 MSTORE KECCAK256 SWAP2 PUSH1 0xFF PUSH1 0x1 DUP1 PUSH1 0xA0 SHL SUB SWAP4 DUP5 DUP2 SLOAD AND SWAP5 PUSH1 0x1 DUP3 ADD SLOAD AND SWAP6 PUSH1 0x2 DUP3 ADD SLOAD PUSH2 0x2905 PUSH1 0x5 PUSH1 0x3 DUP6 ADD SLOAD SWAP4 DUP6 ADD SLOAD SWAP5 ADD PUSH2 0x2C56 JUMP JUMPDEST SWAP5 DUP1 MLOAD SWAP9 DUP10 SWAP9 DUP10 MSTORE PUSH1 0x20 DUP10 ADD MSTORE DUP8 ADD MSTORE PUSH1 0x60 DUP7 ADD MSTORE DUP2 DUP2 AND ISZERO ISZERO PUSH1 0x80 DUP7 ADD MSTORE PUSH1 0x8 SHR AND ISZERO ISZERO PUSH1 0xA0 DUP5 ADD MSTORE PUSH1 0xE0 PUSH1 0xC0 DUP5 ADD MSTORE PUSH1 0xE0 DUP4 ADD SWAP1 PUSH2 0x2B4E JUMP JUMPDEST POP POP CALLVALUE PUSH2 0x24F JUMPI DUP2 PUSH1 0x3 NOT CALLDATASIZE ADD SLT PUSH2 0x24F JUMPI PUSH1 0x20 SWAP1 PUSH2 0x160 SLOAD SWAP1 MLOAD SWAP1 DUP2 MSTORE RETURN JUMPDEST DUP4 DUP4 CALLVALUE PUSH2 0x24F JUMPI PUSH1 0x20 SWAP2 DUP3 PUSH1 0x3 NOT CALLDATASIZE ADD SLT PUSH2 0x166F JUMPI PUSH2 0x2A9D PUSH2 0x2980 PUSH2 0x2AFA JUMP JUMPDEST SWAP5 DUP4 DUP1 MLOAD SWAP4 PUSH2 0x298E DUP6 PUSH2 0x2BAD JUMP JUMPDEST DUP1 DUP6 MSTORE DUP1 DUP8 DUP7 ADD MSTORE DUP1 DUP3 DUP7 ADD MSTORE DUP1 PUSH1 0x60 DUP7 ADD MSTORE DUP1 PUSH1 0x80 DUP7 ADD MSTORE DUP1 PUSH1 0xA0 DUP7 ADD MSTORE DUP1 PUSH1 0xC0 DUP7 ADD MSTORE PUSH1 0x60 PUSH1 0xE0 DUP7 ADD MSTORE DUP1 PUSH2 0x100 DUP1 SWAP7 ADD MSTORE PUSH1 0x1 DUP1 PUSH1 0xA0 SHL SUB DUP1 SWAP9 AND DUP2 MSTORE PUSH2 0x165 DUP8 MSTORE KECCAK256 DUP5 MLOAD SWAP7 DUP8 SWAP6 DUP7 SWAP4 PUSH2 0x29E4 DUP6 PUSH2 0x2BAD JUMP JUMPDEST DUP3 DUP5 SLOAD AND DUP6 MSTORE PUSH1 0x1 DUP5 ADD SLOAD SWAP2 DUP10 DUP7 ADD SWAP3 DUP4 MSTORE PUSH1 0x2 DUP6 ADD SLOAD SWAP1 DUP1 DUP8 ADD SWAP2 DUP3 MSTORE PUSH1 0x3 DUP7 ADD SLOAD SWAP3 PUSH1 0x60 DUP9 ADD SWAP4 DUP5 MSTORE DUP7 ADD SLOAD SWAP4 PUSH1 0x80 DUP9 ADD SWAP5 DUP6 MSTORE DUP12 PUSH1 0x5 DUP9 ADD SLOAD SWAP7 PUSH1 0xA0 DUP11 ADD SWAP8 DUP9 MSTORE DUP12 PUSH1 0x8 PUSH1 0xFF PUSH1 0x6 DUP13 ADD SLOAD AND SWAP11 PUSH1 0xC0 DUP14 ADD SWAP12 ISZERO ISZERO DUP13 MSTORE PUSH1 0xE0 PUSH2 0x2A4B PUSH1 0x7 DUP4 ADD PUSH2 0x2C56 JUMP JUMPDEST SWAP14 ADD SWAP13 DUP14 MSTORE ADD SLOAD SWAP14 ADD SWAP13 DUP14 MSTORE DUP4 MLOAD SWAP15 DUP16 SWAP15 DUP16 MSTORE MLOAD AND SWAP1 DUP14 ADD MSTORE MLOAD SWAP1 DUP12 ADD MSTORE MLOAD PUSH1 0x60 DUP11 ADD MSTORE MLOAD PUSH1 0x80 DUP10 ADD MSTORE MLOAD PUSH1 0xA0 DUP9 ADD MSTORE MLOAD PUSH1 0xC0 DUP8 ADD MSTORE MLOAD ISZERO ISZERO PUSH1 0xE0 DUP7 ADD MSTORE MLOAD PUSH2 0x120 DUP1 SWAP4 DUP7 ADD MSTORE PUSH2 0x140 DUP6 ADD SWAP1 PUSH2 0x2B4E JUMP JUMPDEST SWAP2 MLOAD SWAP1 DUP4 ADD MSTORE SUB SWAP1 RETURN JUMPDEST DUP5 SWAP2 CALLVALUE PUSH2 0x9E3 JUMPI PUSH1 0x20 CALLDATASIZE PUSH1 0x3 NOT ADD SLT PUSH2 0x9E3 JUMPI CALLDATALOAD PUSH4 0xFFFFFFFF PUSH1 0xE0 SHL DUP2 AND DUP1 SWAP2 SUB PUSH2 0x9E3 JUMPI PUSH1 0x20 SWAP3 POP PUSH4 0x7965DB0B PUSH1 0xE0 SHL DUP2 EQ SWAP1 DUP2 ISZERO PUSH2 0x2AE9 JUMPI JUMPDEST POP ISZERO ISZERO DUP2 MSTORE RETURN JUMPDEST PUSH4 0x1FFC9A7 PUSH1 0xE0 SHL EQ SWAP1 POP DUP4 PUSH2 0x2AE2 JUMP JUMPDEST PUSH1 0x4 CALLDATALOAD SWAP1 PUSH1 0x1 PUSH1 0x1 PUSH1 0xA0 SHL SUB DUP3 AND DUP3 SUB PUSH2 0x2B10 JUMPI JUMP JUMPDEST PUSH1 0x0 DUP1 REVERT JUMPDEST PUSH1 0x24 CALLDATALOAD SWAP1 PUSH1 0x1 PUSH1 0x1 PUSH1 0xA0 SHL SUB DUP3 AND DUP3 SUB PUSH2 0x2B10 JUMPI JUMP JUMPDEST PUSH1 0x0 JUMPDEST DUP4 DUP2 LT PUSH2 0x2B3E JUMPI POP POP PUSH1 0x0 SWAP2 ADD MSTORE JUMP JUMPDEST DUP2 DUP2 ADD MLOAD DUP4 DUP3 ADD MSTORE PUSH1 0x20 ADD PUSH2 0x2B2E JUMP JUMPDEST SWAP1 PUSH1 0x20 SWAP2 PUSH2 0x2B67 DUP2 MLOAD DUP1 SWAP3 DUP2 DUP6 MSTORE DUP6 DUP1 DUP7 ADD SWAP2 ADD PUSH2 0x2B2B JUMP JUMPDEST PUSH1 0x1F ADD PUSH1 0x1F NOT AND ADD ADD SWAP1 JUMP JUMPDEST SWAP1 PUSH1 0x1 DUP3 DUP2 SHR SWAP3 AND DUP1 ISZERO PUSH2 0x2BA3 JUMPI JUMPDEST PUSH1 0x20 DUP4 LT EQ PUSH2 0x2B8D JUMPI JUMP JUMPDEST PUSH4 0x4E487B71 PUSH1 0xE0 SHL PUSH1 0x0 MSTORE PUSH1 0x22 PUSH1 0x4 MSTORE PUSH1 0x24 PUSH1 0x0 REVERT JUMPDEST SWAP2 PUSH1 0x7F AND SWAP2 PUSH2 0x2B82 JUMP JUMPDEST PUSH2 0x120 DUP2 ADD SWAP1 DUP2 LT PUSH8 0xFFFFFFFFFFFFFFFF DUP3 GT OR PUSH2 0x2BCA JUMPI PUSH1 0x40 MSTORE JUMP JUMPDEST PUSH4 0x4E487B71 PUSH1 0xE0 SHL PUSH1 0x0 MSTORE PUSH1 0x41 PUSH1 0x4 MSTORE PUSH1 0x24 PUSH1 0x0 REVERT JUMPDEST PUSH1 0x60 DUP2 ADD SWAP1 DUP2 LT PUSH8 0xFFFFFFFFFFFFFFFF DUP3 GT OR PUSH2 0x2BCA JUMPI PUSH1 0x40 MSTORE JUMP JUMPDEST PUSH1 0x40 DUP2 ADD SWAP1 DUP2 LT PUSH8 0xFFFFFFFFFFFFFFFF DUP3 GT OR PUSH2 0x2BCA JUMPI PUSH1 0x40 MSTORE JUMP JUMPDEST PUSH1 0x80 DUP2 ADD SWAP1 DUP2 LT PUSH8 0xFFFFFFFFFFFFFFFF DUP3 GT OR PUSH2 0x2BCA JUMPI PUSH1 0x40 MSTORE JUMP JUMPDEST SWAP1 PUSH1 0x1F DUP1 NOT SWAP2 ADD AND DUP2 ADD SWAP1 DUP2 LT PUSH8 0xFFFFFFFFFFFFFFFF DUP3 GT OR PUSH2 0x2BCA JUMPI PUSH1 0x40 MSTORE JUMP JUMPDEST SWAP1 PUSH1 0x40 MLOAD SWAP2 DUP3 PUSH1 0x0 DUP3 SLOAD SWAP3 PUSH2 0x2C6A DUP5 PUSH2 0x2B73 JUMP JUMPDEST SWAP1 DUP2 DUP5 MSTORE PUSH1 0x1 SWAP5 DUP6 DUP2 AND SWAP1 DUP2 PUSH1 0x0 EQ PUSH2 0x2CD9 JUMPI POP PUSH1 0x1 EQ PUSH2 0x2C96 JUMPI JUMPDEST POP POP PUSH2 0x2C94 SWAP3 POP SUB DUP4 PUSH2 0x2C34 JUMP JUMPDEST JUMP JUMPDEST SWAP1 SWAP4 SWAP2 POP PUSH1 0x0 MSTORE PUSH1 0x20 SWAP1 DUP2 PUSH1 0x0 KECCAK256 SWAP4 PUSH1 0x0 SWAP2 JUMPDEST DUP2 DUP4 LT PUSH2 0x2CC1 JUMPI POP POP PUSH2 0x2C94 SWAP4 POP DUP3 ADD ADD CODESIZE DUP1 PUSH2 0x2C86 JUMP JUMPDEST DUP6 SLOAD DUP9 DUP5 ADD DUP6 ADD MSTORE SWAP5 DUP6 ADD SWAP5 DUP8 SWAP5 POP SWAP2 DUP4 ADD SWAP2 PUSH2 0x2CA9 JUMP JUMPDEST SWAP2 POP POP PUSH2 0x2C94 SWAP5 POP PUSH1 0x20 SWAP3 POP PUSH1 0xFF NOT AND DUP3 DUP5 ADD MSTORE ISZERO ISZERO PUSH1 0x5 SHL DUP3 ADD ADD CODESIZE DUP1 PUSH2 0x2C86 JUMP JUMPDEST SWAP2 DUP2 PUSH1 0x1F DUP5 ADD SLT ISZERO PUSH2 0x2B10 JUMPI DUP3 CALLDATALOAD SWAP2 PUSH8 0xFFFFFFFFFFFFFFFF DUP4 GT PUSH2 0x2B10 JUMPI PUSH1 0x20 DUP4 DUP2 DUP7 ADD SWAP6 ADD ADD GT PUSH2 0x2B10 JUMPI JUMP JUMPDEST PUSH8 0xFFFFFFFFFFFFFFFF DUP2 GT PUSH2 0x2BCA JUMPI PUSH1 0x1F ADD PUSH1 0x1F NOT AND PUSH1 0x20 ADD SWAP1 JUMP JUMPDEST SWAP3 SWAP2 SWAP3 PUSH2 0x2D52 DUP3 PUSH2 0x2D2A JUMP JUMPDEST SWAP2 PUSH2 0x2D60 PUSH1 0x40 MLOAD SWAP4 DUP5 PUSH2 0x2C34 JUMP JUMPDEST DUP3 SWAP5 DUP2 DUP5 MSTORE DUP2 DUP4 ADD GT PUSH2 0x2B10 JUMPI DUP3 DUP2 PUSH1 0x20 SWAP4 DUP5 PUSH1 0x0 SWAP7 ADD CALLDATACOPY ADD ADD MSTORE JUMP JUMPDEST PUSH2 0x166 DUP1 SLOAD DUP3 LT ISZERO PUSH2 0x2DB4 JUMPI PUSH1 0x0 MSTORE PUSH32 0xA5A4C57B7184EC73D55BE4993773CB4EEF681BC86A28D0285CD66EFB50676A97 ADD SWAP1 PUSH1 0x0 SWAP1 JUMP JUMPDEST PUSH4 0x4E487B71 PUSH1 0xE0 SHL PUSH1 0x0 MSTORE PUSH1 0x32 PUSH1 0x4 MSTORE PUSH1 0x24 PUSH1 0x0 REVERT JUMPDEST SWAP1 DUP2 MLOAD DUP1 DUP3 MSTORE PUSH1 0x20 DUP1 DUP1 SWAP4 ADD SWAP4 ADD SWAP2 PUSH1 0x0 JUMPDEST DUP3 DUP2 LT PUSH2 0x2DEA JUMPI POP POP POP POP SWAP1 JUMP JUMPDEST DUP4 MLOAD PUSH1 0x1 PUSH1 0x1 PUSH1 0xA0 SHL SUB AND DUP6 MSTORE SWAP4 DUP2 ADD SWAP4 SWAP3 DUP2 ADD SWAP3 PUSH1 0x1 ADD PUSH2 0x2DDC JUMP JUMPDEST SWAP1 DUP2 MLOAD DUP1 DUP3 MSTORE PUSH1 0x20 DUP1 DUP1 SWAP4 ADD SWAP4 ADD SWAP2 PUSH1 0x0 JUMPDEST DUP3 DUP2 LT PUSH2 0x2E27 JUMPI POP POP POP POP SWAP1 JUMP JUMPDEST DUP4 MLOAD DUP6 MSTORE SWAP4 DUP2 ADD SWAP4 SWAP3 DUP2 ADD SWAP3 PUSH1 0x1 ADD PUSH2 0x2E19 JUMP JUMPDEST CALLER PUSH1 0x0 SWAP1 DUP2 MSTORE PUSH32 0x2C01DC0041DFB6D4238A91E5A638996136AED16F837D5BEB45610732CF9BF4B0 PUSH1 0x20 SWAP1 DUP2 MSTORE PUSH1 0x40 DUP1 DUP4 KECCAK256 SLOAD SWAP1 SWAP3 PUSH32 0xA49807205CE4D355092EF5A8A18F56E8913CF4A201FBE287825B095693C21775 SWAP2 PUSH1 0xFF AND ISZERO PUSH2 0x2E9F JUMPI POP POP POP POP JUMP JUMPDEST PUSH2 0x2EA8 CALLER PUSH2 0x350F JUMP JUMPDEST SWAP2 DUP5 MLOAD SWAP1 PUSH2 0x2EB5 DUP3 PUSH2 0x2C18 JUMP JUMPDEST PUSH1 0x42 DUP3 MSTORE DUP5 DUP3 ADD SWAP3 PUSH1 0x60 CALLDATASIZE DUP6 CALLDATACOPY DUP3 MLOAD ISZERO PUSH2 0x3003 JUMPI PUSH1 0x30 DUP5 MSTORE8 DUP3 MLOAD SWAP1 PUSH1 0x1 SWAP2 DUP3 LT ISZERO PUSH2 0x3003 JUMPI SWAP1 PUSH1 0x78 PUSH1 0x21 DUP6 ADD MSTORE8 PUSH1 0x41 SWAP2 JUMPDEST DUP2 DUP4 GT PUSH2 0x2F95 JUMPI POP POP POP PUSH2 0x2F65 JUMPI PUSH1 0x48 PUSH2 0x57C SWAP4 DUP7 SWAP4 PUSH2 0x2F49 SWAP4 PUSH2 0x2F3A SWAP9 MLOAD SWAP9 DUP10 SWAP4 PUSH23 0x20B1B1B2B9B9A1B7B73A3937B61D1030B1B1B7BAB73A1 PUSH1 0x4D SHL DUP11 DUP7 ADD MSTORE PUSH2 0x52C DUP2 MLOAD DUP1 SWAP3 DUP13 PUSH1 0x37 DUP10 ADD SWAP2 ADD PUSH2 0x2B2B JUMP JUMPDEST ADD SUB PUSH1 0x28 DUP2 ADD DUP8 MSTORE ADD DUP6 PUSH2 0x2C34 JUMP JUMPDEST MLOAD SWAP3 DUP4 SWAP3 PUSH3 0x461BCD PUSH1 0xE5 SHL DUP5 MSTORE PUSH1 0x4 DUP5 ADD MSTORE PUSH1 0x24 DUP4 ADD SWAP1 PUSH2 0x2B4E JUMP JUMPDEST PUSH1 0x64 DUP5 DUP7 MLOAD SWAP1 PUSH3 0x461BCD PUSH1 0xE5 SHL DUP3 MSTORE DUP1 PUSH1 0x4 DUP4 ADD MSTORE PUSH1 0x24 DUP3 ADD MSTORE PUSH1 0x0 DUP1 MLOAD PUSH1 0x20 PUSH2 0x3CF9 DUP4 CODECOPY DUP2 MLOAD SWAP2 MSTORE PUSH1 0x44 DUP3 ADD MSTORE REVERT JUMPDEST SWAP1 SWAP2 SWAP3 PUSH1 0xF DUP2 AND PUSH1 0x10 DUP2 LT ISZERO PUSH2 0x2FEF JUMPI PUSH16 0x181899199A1A9B1B9C1CB0B131B232B3 PUSH1 0x81 SHL SWAP1 BYTE PUSH2 0x2FC5 DUP6 DUP8 PUSH2 0x34FE JUMP JUMPDEST MSTORE8 PUSH1 0x4 SHR SWAP3 DUP1 ISZERO PUSH2 0x2FDB JUMPI PUSH1 0x0 NOT ADD SWAP2 SWAP1 PUSH2 0x2EE6 JUMP JUMPDEST PUSH4 0x4E487B71 PUSH1 0xE0 SHL DUP3 MSTORE PUSH1 0x11 PUSH1 0x4 MSTORE PUSH1 0x24 DUP3 REVERT JUMPDEST PUSH4 0x4E487B71 PUSH1 0xE0 SHL DUP4 MSTORE PUSH1 0x32 PUSH1 0x4 MSTORE PUSH1 0x24 DUP4 REVERT JUMPDEST PUSH4 0x4E487B71 PUSH1 0xE0 SHL DUP2 MSTORE PUSH1 0x32 PUSH1 0x4 MSTORE PUSH1 0x24 SWAP1 REVERT JUMPDEST CALLER PUSH1 0x0 SWAP1 DUP2 MSTORE PUSH32 0x61C6261E6978331C793EEE420D743E773864E0EC05CC862750E423D64F73E9F6 PUSH1 0x20 SWAP1 DUP2 MSTORE PUSH1 0x40 DUP1 DUP4 KECCAK256 SLOAD SWAP1 SWAP3 PUSH32 0x189AB7A9244DF0848122154315AF71FE140F3DB0FE014031783B0946B8C9D2E3 SWAP2 PUSH1 0xFF AND ISZERO PUSH2 0x307B JUMPI POP POP POP POP JUMP JUMPDEST PUSH2 0x3084 CALLER PUSH2 0x350F JUMP JUMPDEST SWAP2 DUP5 MLOAD SWAP1 PUSH2 0x3091 DUP3 PUSH2 0x2C18 JUMP JUMPDEST PUSH1 0x42 DUP3 MSTORE DUP5 DUP3 ADD SWAP3 PUSH1 0x60 CALLDATASIZE DUP6 CALLDATACOPY DUP3 MLOAD ISZERO PUSH2 0x3003 JUMPI PUSH1 0x30 DUP5 MSTORE8 DUP3 MLOAD SWAP1 PUSH1 0x1 SWAP2 DUP3 LT ISZERO PUSH2 0x3003 JUMPI SWAP1 PUSH1 0x78 PUSH1 0x21 DUP6 ADD MSTORE8 PUSH1 0x41 SWAP2 JUMPDEST DUP2 DUP4 GT PUSH2 0x3116 JUMPI POP POP POP PUSH2 0x2F65 JUMPI PUSH1 0x48 PUSH2 0x57C SWAP4 DUP7 SWAP4 PUSH2 0x2F49 SWAP4 PUSH2 0x2F3A SWAP9 MLOAD SWAP9 DUP10 SWAP4 PUSH23 0x20B1B1B2B9B9A1B7B73A3937B61D1030B1B1B7BAB73A1 PUSH1 0x4D SHL DUP11 DUP7 ADD MSTORE PUSH2 0x52C DUP2 MLOAD DUP1 SWAP3 DUP13 PUSH1 0x37 DUP10 ADD SWAP2 ADD PUSH2 0x2B2B JUMP JUMPDEST SWAP1 SWAP2 SWAP3 PUSH1 0xF DUP2 AND PUSH1 0x10 DUP2 LT ISZERO PUSH2 0x2FEF JUMPI PUSH16 0x181899199A1A9B1B9C1CB0B131B232B3 PUSH1 0x81 SHL SWAP1 BYTE PUSH2 0x3146 DUP6 DUP8 PUSH2 0x34FE JUMP JUMPDEST MSTORE8 PUSH1 0x4 SHR SWAP3 DUP1 ISZERO PUSH2 0x2FDB JUMPI PUSH1 0x0 NOT ADD SWAP2 SWAP1 PUSH2 0x30C2 JUMP JUMPDEST PUSH1 0x0 SWAP1 DUP1 DUP3 MSTORE PUSH1 0x20 SWAP1 PUSH1 0x65 DUP3 MSTORE PUSH1 0x40 SWAP3 DUP4 DUP2 KECCAK256 CALLER DUP3 MSTORE DUP4 MSTORE PUSH1 0xFF DUP5 DUP3 KECCAK256 SLOAD AND ISZERO PUSH2 0x3186 JUMPI POP POP POP POP JUMP JUMPDEST PUSH2 0x318F CALLER PUSH2 0x350F JUMP JUMPDEST SWAP2 DUP5 MLOAD SWAP1 PUSH2 0x319C DUP3 PUSH2 0x2C18 JUMP JUMPDEST PUSH1 0x42 DUP3 MSTORE DUP5 DUP3 ADD SWAP3 PUSH1 0x60 CALLDATASIZE DUP6 CALLDATACOPY DUP3 MLOAD ISZERO PUSH2 0x3003 JUMPI PUSH1 0x30 DUP5 MSTORE8 DUP3 MLOAD SWAP1 PUSH1 0x1 SWAP2 DUP3 LT ISZERO PUSH2 0x3003 JUMPI SWAP1 PUSH1 0x78 PUSH1 0x21 DUP6 ADD MSTORE8 PUSH1 0x41 SWAP2 JUMPDEST DUP2 DUP4 GT PUSH2 0x3221 JUMPI POP POP POP PUSH2 0x2F65 JUMPI PUSH1 0x48 PUSH2 0x57C SWAP4 DUP7 SWAP4 PUSH2 0x2F49 SWAP4 PUSH2 0x2F3A SWAP9 MLOAD SWAP9 DUP10 SWAP4 PUSH23 0x20B1B1B2B9B9A1B7B73A3937B61D1030B1B1B7BAB73A1 PUSH1 0x4D SHL DUP11 DUP7 ADD MSTORE PUSH2 0x52C DUP2 MLOAD DUP1 SWAP3 DUP13 PUSH1 0x37 DUP10 ADD SWAP2 ADD PUSH2 0x2B2B JUMP JUMPDEST SWAP1 SWAP2 SWAP3 PUSH1 0xF DUP2 AND PUSH1 0x10 DUP2 LT ISZERO PUSH2 0x2FEF JUMPI PUSH16 0x181899199A1A9B1B9C1CB0B131B232B3 PUSH1 0x81 SHL SWAP1 BYTE PUSH2 0x3251 DUP6 DUP8 PUSH2 0x34FE JUMP JUMPDEST MSTORE8 PUSH1 0x4 SHR SWAP3 DUP1 ISZERO PUSH2 0x2FDB JUMPI PUSH1 0x0 NOT ADD SWAP2 SWAP1 PUSH2 0x31CD JUMP JUMPDEST SWAP1 PUSH1 0x0 SWAP2 DUP1 DUP4 MSTORE PUSH1 0x65 PUSH1 0x20 MSTORE PUSH1 0x40 DUP4 KECCAK256 SWAP2 PUSH1 0x1 DUP1 PUSH1 0xA0 SHL SUB AND SWAP2 DUP3 DUP5 MSTORE PUSH1 0x20 MSTORE PUSH1 0xFF PUSH1 0x40 DUP5 KECCAK256 SLOAD AND PUSH2 0x3298 JUMPI POP POP POP JUMP JUMPDEST DUP1 DUP4 MSTORE PUSH1 0x65 PUSH1 0x20 MSTORE PUSH1 0x40 DUP4 KECCAK256 DUP3 DUP5 MSTORE PUSH1 0x20 MSTORE PUSH1 0x40 DUP4 KECCAK256 PUSH1 0xFF NOT DUP2 SLOAD AND SWAP1 SSTORE PUSH32 0xF6391F5C32D9C69D2A47EA670B442974B53935D1EDC7FD64EB21E047A839171B CALLER SWAP4 DUP1 LOG4 JUMP JUMPDEST ISZERO PUSH2 0x32E4 JUMPI JUMP JUMPDEST PUSH1 0x40 MLOAD PUSH3 0x461BCD PUSH1 0xE5 SHL DUP2 MSTORE PUSH1 0x20 PUSH1 0x4 DUP3 ADD MSTORE PUSH1 0x2C PUSH1 0x24 DUP3 ADD MSTORE PUSH32 0x46756E6374696F6E206D7573742062652063616C6C6564207468726F75676820 PUSH1 0x44 DUP3 ADD MSTORE PUSH12 0x19195B1959D85D1958D85B1B PUSH1 0xA2 SHL PUSH1 0x64 DUP3 ADD MSTORE PUSH1 0x84 SWAP1 REVERT JUMPDEST ISZERO PUSH2 0x3345 JUMPI JUMP JUMPDEST PUSH1 0x40 MLOAD PUSH3 0x461BCD PUSH1 0xE5 SHL DUP2 MSTORE PUSH1 0x20 PUSH1 0x4 DUP3 ADD MSTORE PUSH1 0x2C PUSH1 0x24 DUP3 ADD MSTORE PUSH32 0x46756E6374696F6E206D7573742062652063616C6C6564207468726F75676820 PUSH1 0x44 DUP3 ADD MSTORE PUSH12 0x6163746976652070726F7879 PUSH1 0xA0 SHL PUSH1 0x64 DUP3 ADD MSTORE PUSH1 0x84 SWAP1 REVERT JUMPDEST DUP1 EXTCODESIZE ISZERO PUSH2 0x33D4 JUMPI PUSH1 0x0 DUP1 MLOAD PUSH1 0x20 PUSH2 0x3D19 DUP4 CODECOPY DUP2 MLOAD SWAP2 MSTORE DUP1 SLOAD PUSH1 0x1 PUSH1 0x1 PUSH1 0xA0 SHL SUB NOT AND PUSH1 0x1 PUSH1 0x1 PUSH1 0xA0 SHL SUB SWAP1 SWAP3 AND SWAP2 SWAP1 SWAP2 OR SWAP1 SSTORE JUMP JUMPDEST PUSH1 0x40 MLOAD PUSH3 0x461BCD PUSH1 0xE5 SHL DUP2 MSTORE PUSH1 0x20 PUSH1 0x4 DUP3 ADD MSTORE PUSH1 0x2D PUSH1 0x24 DUP3 ADD MSTORE PUSH32 0x455243313936373A206E657720696D706C656D656E746174696F6E206973206E PUSH1 0x44 DUP3 ADD MSTORE PUSH13 0x1BDD08184818DBDB9D1C9858DD PUSH1 0x9A SHL PUSH1 0x64 DUP3 ADD MSTORE PUSH1 0x84 SWAP1 REVERT JUMPDEST SWAP2 SWAP3 SWAP1 ISZERO PUSH2 0x3491 JUMPI POP DUP2 MLOAD ISZERO PUSH2 0x3443 JUMPI POP SWAP1 JUMP JUMPDEST EXTCODESIZE ISZERO PUSH2 0x344C JUMPI SWAP1 JUMP JUMPDEST PUSH1 0x40 MLOAD PUSH3 0x461BCD PUSH1 0xE5 SHL DUP2 MSTORE PUSH1 0x20 PUSH1 0x4 DUP3 ADD MSTORE PUSH1 0x1D PUSH1 0x24 DUP3 ADD MSTORE PUSH32 0x416464726573733A2063616C6C20746F206E6F6E2D636F6E7472616374000000 PUSH1 0x44 DUP3 ADD MSTORE PUSH1 0x64 SWAP1 REVERT JUMPDEST DUP3 MLOAD SWAP1 SWAP2 POP ISZERO PUSH2 0x34A4 JUMPI POP DUP1 MLOAD SWAP1 PUSH1 0x20 ADD REVERT JUMPDEST PUSH1 0x40 MLOAD PUSH3 0x461BCD PUSH1 0xE5 SHL DUP2 MSTORE PUSH1 0x20 PUSH1 0x4 DUP3 ADD MSTORE SWAP1 DUP2 SWAP1 PUSH2 0x57C SWAP1 PUSH1 0x24 DUP4 ADD SWAP1 PUSH2 0x2B4E JUMP JUMPDEST DUP2 DUP2 MUL SWAP3 SWAP2 DUP2 ISZERO SWAP2 DUP5 DIV EQ OR ISZERO PUSH2 0x34DB JUMPI JUMP JUMPDEST PUSH4 0x4E487B71 PUSH1 0xE0 SHL PUSH1 0x0 MSTORE PUSH1 0x11 PUSH1 0x4 MSTORE PUSH1 0x24 PUSH1 0x0 REVERT JUMPDEST SWAP2 SWAP1 DUP3 ADD DUP1 SWAP3 GT PUSH2 0x34DB JUMPI JUMP JUMPDEST SWAP1 DUP2 MLOAD DUP2 LT ISZERO PUSH2 0x2DB4 JUMPI ADD PUSH1 0x20 ADD SWAP1 JUMP JUMPDEST PUSH1 0x40 MLOAD SWAP1 PUSH2 0x351C DUP3 PUSH2 0x2BE0 JUMP JUMPDEST PUSH1 0x2A DUP3 MSTORE PUSH1 0x20 DUP3 ADD PUSH1 0x40 CALLDATASIZE DUP3 CALLDATACOPY DUP3 MLOAD ISZERO PUSH2 0x2DB4 JUMPI PUSH1 0x30 SWAP1 MSTORE8 DUP2 MLOAD PUSH1 0x1 SWAP1 DUP2 LT ISZERO PUSH2 0x2DB4 JUMPI PUSH1 0x78 PUSH1 0x21 DUP5 ADD MSTORE8 PUSH1 0x29 SWAP1 JUMPDEST DUP1 DUP3 GT PUSH2 0x358D JUMPI POP POP PUSH2 0x355B JUMPI SWAP1 JUMP JUMPDEST PUSH1 0x64 PUSH1 0x40 MLOAD PUSH3 0x461BCD PUSH1 0xE5 SHL DUP2 MSTORE PUSH1 0x20 PUSH1 0x4 DUP3 ADD MSTORE PUSH1 0x20 PUSH1 0x24 DUP3 ADD MSTORE PUSH1 0x0 DUP1 MLOAD PUSH1 0x20 PUSH2 0x3CF9 DUP4 CODECOPY DUP2 MLOAD SWAP2 MSTORE PUSH1 0x44 DUP3 ADD MSTORE REVERT JUMPDEST SWAP1 SWAP2 PUSH1 0xF DUP2 AND PUSH1 0x10 DUP2 LT ISZERO PUSH2 0x35E6 JUMPI PUSH16 0x181899199A1A9B1B9C1CB0B131B232B3 PUSH1 0x81 SHL SWAP1 BYTE PUSH2 0x35BC DUP5 DUP7 PUSH2 0x34FE JUMP JUMPDEST MSTORE8 PUSH1 0x4 SHR SWAP2 DUP1 ISZERO PUSH2 0x35D1 JUMPI PUSH1 0x0 NOT ADD SWAP1 PUSH2 0x354B JUMP JUMPDEST PUSH1 0x24 PUSH1 0x0 PUSH4 0x4E487B71 PUSH1 0xE0 SHL DUP2 MSTORE PUSH1 0x11 PUSH1 0x4 MSTORE REVERT JUMPDEST PUSH1 0x24 PUSH1 0x0 PUSH4 0x4E487B71 PUSH1 0xE0 SHL DUP2 MSTORE PUSH1 0x32 PUSH1 0x4 MSTORE REVERT JUMPDEST ISZERO PUSH2 0x3602 JUMPI JUMP JUMPDEST PUSH1 0x40 MLOAD PUSH3 0x461BCD PUSH1 0xE5 SHL DUP2 MSTORE PUSH1 0x20 PUSH1 0x4 DUP3 ADD MSTORE PUSH1 0x2B PUSH1 0x24 DUP3 ADD MSTORE PUSH32 0x496E697469616C697A61626C653A20636F6E7472616374206973206E6F742069 PUSH1 0x44 DUP3 ADD MSTORE PUSH11 0x6E697469616C697A696E67 PUSH1 0xA8 SHL PUSH1 0x64 DUP3 ADD MSTORE PUSH1 0x84 SWAP1 REVERT JUMPDEST ISZERO PUSH2 0x3662 JUMPI JUMP JUMPDEST PUSH1 0x40 MLOAD PUSH3 0x461BCD PUSH1 0xE5 SHL DUP2 MSTORE PUSH1 0x20 PUSH1 0x4 DUP3 ADD MSTORE PUSH1 0x24 DUP1 DUP3 ADD MSTORE PUSH32 0x4E6F206E61746976652063757272656E637920666F7220746F6B656E20737461 PUSH1 0x44 DUP3 ADD MSTORE PUSH4 0x6B696E67 PUSH1 0xE0 SHL PUSH1 0x64 DUP3 ADD MSTORE PUSH1 0x84 SWAP1 REVERT JUMPDEST SWAP1 DUP2 PUSH1 0x20 SWAP2 SUB SLT PUSH2 0x2B10 JUMPI MLOAD DUP1 ISZERO ISZERO DUP2 SUB PUSH2 0x2B10 JUMPI SWAP1 JUMP JUMPDEST ISZERO PUSH2 0x36D2 JUMPI JUMP JUMPDEST PUSH1 0x40 MLOAD PUSH3 0x461BCD PUSH1 0xE5 SHL DUP2 MSTORE PUSH1 0x20 PUSH1 0x4 DUP3 ADD MSTORE PUSH1 0x15 PUSH1 0x24 DUP3 ADD MSTORE PUSH21 0x14DD185AD9481D1C985B9CD9995C8819985A5B1959 PUSH1 0x5A SHL PUSH1 0x44 DUP3 ADD MSTORE PUSH1 0x64 SWAP1 REVERT JUMPDEST SWAP2 SWAP3 PUSH1 0x60 SWAP4 DUP2 SWAP3 DUP5 MSTORE PUSH1 0x40 PUSH1 0x20 DUP6 ADD MSTORE DUP2 PUSH1 0x40 DUP6 ADD MSTORE DUP5 DUP5 ADD CALLDATACOPY PUSH1 0x0 DUP3 DUP3 ADD DUP5 ADD MSTORE PUSH1 0x1F ADD PUSH1 0x1F NOT AND ADD ADD SWAP1 JUMP JUMPDEST PUSH1 0xFF PUSH1 0x97 SLOAD AND PUSH2 0x3749 JUMPI JUMP JUMPDEST PUSH1 0x40 MLOAD PUSH3 0x461BCD PUSH1 0xE5 SHL DUP2 MSTORE PUSH1 0x20 PUSH1 0x4 DUP3 ADD MSTORE PUSH1 0x10 PUSH1 0x24 DUP3 ADD MSTORE PUSH16 0x14185D5CD8589B194E881C185D5CD959 PUSH1 0x82 SHL PUSH1 0x44 DUP3 ADD MSTORE PUSH1 0x64 SWAP1 REVERT JUMPDEST PUSH2 0x12D PUSH1 0x2 DUP2 SLOAD EQ PUSH2 0x3793 JUMPI PUSH1 0x2 SWAP1 SSTORE JUMP JUMPDEST PUSH1 0x40 MLOAD PUSH3 0x461BCD PUSH1 0xE5 SHL DUP2 MSTORE PUSH1 0x20 PUSH1 0x4 DUP3 ADD MSTORE PUSH1 0x1F PUSH1 0x24 DUP3 ADD MSTORE PUSH32 0x5265656E7472616E637947756172643A207265656E7472616E742063616C6C00 PUSH1 0x44 DUP3 ADD MSTORE PUSH1 0x64 SWAP1 REVERT JUMPDEST PUSH1 0x0 NOT DUP2 EQ PUSH2 0x34DB JUMPI PUSH1 0x1 ADD SWAP1 JUMP JUMPDEST PUSH8 0xFFFFFFFFFFFFFFFF DUP2 GT PUSH2 0x2BCA JUMPI PUSH1 0x5 SHL PUSH1 0x20 ADD SWAP1 JUMP JUMPDEST SWAP1 PUSH2 0x3809 DUP3 PUSH2 0x37E7 JUMP JUMPDEST PUSH2 0x3816 PUSH1 0x40 MLOAD SWAP2 DUP3 PUSH2 0x2C34 JUMP JUMPDEST DUP3 DUP2 MSTORE DUP1 SWAP3 PUSH2 0x3827 PUSH1 0x1F NOT SWAP2 PUSH2 0x37E7 JUMP JUMPDEST ADD SWAP1 PUSH1 0x20 CALLDATASIZE SWAP2 ADD CALLDATACOPY JUMP JUMPDEST DUP1 MLOAD DUP3 LT ISZERO PUSH2 0x2DB4 JUMPI PUSH1 0x20 SWAP2 PUSH1 0x5 SHL ADD ADD SWAP1 JUMP JUMPDEST DUP1 MLOAD ISZERO DUP1 ISZERO SWAP1 DUP2 PUSH2 0x3A39 JUMPI JUMPDEST POP ISZERO PUSH2 0x387D JUMPI POP POP PUSH1 0x40 MLOAD PUSH2 0x3865 DUP2 PUSH2 0x2BFC JUMP JUMPDEST PUSH1 0x8 DUP2 MSTORE PUSH8 0x2B32B934B334B2B9 PUSH1 0xC1 SHL PUSH1 0x20 DUP3 ADD MSTORE SWAP1 JUMP JUMPDEST MLOAD ISZERO PUSH2 0x38B5 JUMPI POP PUSH1 0x40 MLOAD PUSH2 0x3890 DUP2 PUSH2 0x2BFC JUMP JUMPDEST PUSH1 0x15 DUP2 MSTORE PUSH21 0x15995C9A599A595908141C9BD9995CDCDA5BDB985B PUSH1 0x5A SHL PUSH1 0x20 DUP3 ADD MSTORE SWAP1 JUMP JUMPDEST PUSH1 0x40 MLOAD SWAP1 PUSH1 0x1 PUSH1 0x1 PUSH1 0xA0 SHL SUB AND PUSH2 0x38CB DUP3 PUSH2 0x2BFC JUMP JUMPDEST PUSH1 0x10 DUP3 MSTORE PUSH1 0x20 SWAP2 PUSH16 0x181899199A1A9B1B9C1CB0B131B232B3 PUSH1 0x81 SHL DUP4 DUP3 ADD MSTORE PUSH1 0x40 MLOAD SWAP1 PUSH2 0x38F7 DUP3 PUSH2 0x2BE0 JUMP JUMPDEST PUSH1 0x2A DUP3 MSTORE DUP4 DUP3 ADD SWAP3 PUSH1 0x40 CALLDATASIZE DUP6 CALLDATACOPY DUP3 MLOAD ISZERO PUSH2 0x2DB4 JUMPI PUSH1 0x30 DUP5 MSTORE8 DUP3 MLOAD SWAP2 PUSH1 0x1 SWAP3 DUP4 LT ISZERO PUSH2 0x2DB4 JUMPI PUSH1 0x78 PUSH1 0x21 DUP6 ADD MSTORE8 PUSH1 0x0 JUMPDEST PUSH1 0x14 DUP2 LT PUSH2 0x3972 JUMPI POP POP POP POP PUSH9 0x2B32B934B334B2B91 PUSH1 0xBD SHL SWAP3 PUSH2 0x396F SWAP3 PUSH2 0x395F PUSH1 0x29 SWAP4 PUSH1 0x40 MLOAD SWAP7 DUP8 SWAP5 DUP6 ADD MSTORE MLOAD DUP1 SWAP3 DUP6 DUP6 ADD SWAP1 PUSH2 0x2B2B JUMP JUMPDEST DUP2 ADD SUB PUSH1 0x9 DUP2 ADD DUP5 MSTORE ADD DUP3 PUSH2 0x2C34 JUMP JUMPDEST SWAP1 JUMP JUMPDEST PUSH1 0xC DUP2 ADD DUP1 DUP3 GT PUSH2 0x34DB JUMPI DUP8 DUP2 LT ISZERO PUSH2 0x2DB4 JUMPI DUP4 SWAP1 BYTE PUSH1 0x4 PUSH1 0x1 PUSH1 0x1 PUSH1 0xF8 SHL SUB NOT PUSH1 0xF DUP2 PUSH2 0x39A4 DUP6 DUP6 SHR DUP4 AND DUP9 PUSH2 0x34FE JUMP JUMPDEST MLOAD AND SWAP4 DUP6 DUP10 SHL SWAP5 PUSH1 0x2 SWAP1 DUP8 DUP8 DIV DUP3 EQ DUP9 ISZERO OR ISZERO PUSH2 0x3A24 JUMPI DUP7 DUP3 ADD DUP1 SWAP3 GT PUSH2 0x3A24 JUMPI SWAP1 PUSH2 0x39D9 PUSH2 0x39E1 SWAP5 SWAP4 SWAP3 PUSH1 0x0 BYTE SWAP2 DUP14 PUSH2 0x34FE JUMP JUMPDEST MSTORE8 AND DUP7 PUSH2 0x34FE JUMP JUMPDEST MLOAD AND SWAP1 PUSH1 0x3 SWAP3 DUP4 ADD DUP1 SWAP4 GT PUSH2 0x3A0F JUMPI POP SWAP1 PUSH2 0x3A04 PUSH2 0x3A0A SWAP4 SWAP3 PUSH1 0x0 BYTE SWAP2 DUP9 PUSH2 0x34FE JUMP JUMPDEST MSTORE8 PUSH2 0x37D8 JUMP JUMPDEST PUSH2 0x3926 JUMP JUMPDEST PUSH1 0x11 SWAP1 PUSH4 0x4E487B71 PUSH1 0xE0 SHL PUSH1 0x0 MSTORE MSTORE PUSH1 0x24 PUSH1 0x0 REVERT JUMPDEST PUSH1 0x11 DUP7 PUSH4 0x4E487B71 PUSH1 0xE0 SHL PUSH1 0x0 MSTORE MSTORE PUSH1 0x24 PUSH1 0x0 REVERT JUMPDEST SWAP1 POP PUSH2 0x2DB4 JUMPI PUSH1 0x20 DUP2 ADD MLOAD PUSH1 0x1 PUSH1 0x1 PUSH1 0xF8 SHL SUB NOT AND PUSH1 0x7B PUSH1 0xF8 SHL EQ CODESIZE PUSH2 0x3851 JUMP JUMPDEST ISZERO PUSH2 0x3A61 JUMPI JUMP JUMPDEST PUSH1 0x40 MLOAD PUSH3 0x461BCD PUSH1 0xE5 SHL DUP2 MSTORE PUSH1 0x20 PUSH1 0x4 DUP3 ADD MSTORE PUSH1 0x13 PUSH1 0x24 DUP3 ADD MSTORE PUSH19 0x5665726966696572206E6F7420616374697665 PUSH1 0x68 SHL PUSH1 0x44 DUP3 ADD MSTORE PUSH1 0x64 SWAP1 REVERT JUMPDEST SWAP2 SWAP1 DUP3 SUB SWAP2 DUP3 GT PUSH2 0x34DB JUMPI JUMP JUMPDEST PUSH1 0x1 DUP1 PUSH1 0xA0 SHL SUB AND PUSH1 0x0 SWAP1 DUP1 DUP3 MSTORE PUSH2 0x165 SWAP1 DUP2 PUSH1 0x20 MSTORE PUSH2 0x3AD2 PUSH1 0xFF PUSH1 0x6 PUSH1 0x40 DUP7 KECCAK256 ADD SLOAD AND PUSH2 0x3A5A JUMP JUMPDEST DUP3 MSTORE PUSH1 0x20 MSTORE PUSH1 0x2 PUSH1 0x40 DUP3 KECCAK256 ADD SLOAD SWAP1 PUSH2 0x1387 NOT DUP3 ADD SWAP2 DUP3 SGT PUSH1 0x1 AND PUSH2 0x3B99 JUMPI PUSH2 0x161 SLOAD PUSH1 0x1 PUSH1 0xFF SHL SWAP3 DUP1 DUP3 MUL SWAP2 DUP4 DUP3 SLT DUP6 DUP3 EQ AND PUSH2 0x3B85 JUMPI DUP2 DUP4 SDIV EQ SWAP1 ISZERO OR ISZERO PUSH2 0x2FDB JUMPI PUSH2 0x2710 SWAP1 DUP2 SWAP1 SDIV SWAP2 DUP1 DUP4 SLT PUSH2 0x3B3F JUMPI POP PUSH2 0x396F SWAP3 POP PUSH2 0x3B38 PUSH2 0x160 SLOAD SWAP3 DUP4 PUSH2 0x34C8 JUMP JUMPDEST DIV SWAP1 PUSH2 0x34F1 JUMP JUMPDEST SWAP2 PUSH2 0x160 SLOAD SWAP4 DUP2 EQ PUSH2 0x3B71 JUMPI PUSH2 0x3B57 SWAP1 DUP4 SUB DUP5 PUSH2 0x34C8 JUMP JUMPDEST DIV SWAP1 POP DUP2 DUP2 LT PUSH2 0x3B68 JUMPI POP PUSH1 0x1 SHR SWAP1 JUMP JUMPDEST PUSH2 0x396F SWAP2 PUSH2 0x3A9C JUMP JUMPDEST PUSH4 0x4E487B71 PUSH1 0xE0 SHL DUP4 MSTORE PUSH1 0x11 PUSH1 0x4 MSTORE PUSH1 0x24 DUP4 REVERT JUMPDEST PUSH4 0x4E487B71 PUSH1 0xE0 SHL DUP5 MSTORE PUSH1 0x11 PUSH1 0x4 MSTORE PUSH1 0x24 DUP5 REVERT JUMPDEST PUSH4 0x4E487B71 PUSH1 0xE0 SHL DUP2 MSTORE PUSH1 0x11 PUSH1 0x4 MSTORE PUSH1 0x24 SWAP1 REVERT JUMPDEST ISZERO PUSH2 0x3BB4 JUMPI JUMP JUMPDEST PUSH1 0x40 MLOAD PUSH3 0x461BCD PUSH1 0xE5 SHL DUP2 MSTORE PUSH1 0x20 PUSH1 0x4 DUP3 ADD MSTORE PUSH1 0xF PUSH1 0x24 DUP3 ADD MSTORE PUSH15 0x151C985B9CD9995C8819985A5B1959 PUSH1 0x8A SHL PUSH1 0x44 DUP3 ADD MSTORE PUSH1 0x64 SWAP1 REVERT JUMPDEST PUSH1 0x1 PUSH1 0x1 PUSH1 0xA0 SHL SUB AND PUSH1 0x0 DUP2 DUP2 MSTORE PUSH2 0x165 PUSH1 0x20 DUP2 SWAP1 MSTORE PUSH1 0x40 DUP3 KECCAK256 PUSH1 0x3 DUP2 ADD SLOAD PUSH1 0x4 DUP3 ADD SLOAD SWAP1 SWAP4 SWAP3 SWAP1 SWAP2 DUP5 ISZERO PUSH2 0x3CD0 JUMPI PUSH1 0x2 ADD SLOAD SWAP4 PUSH2 0x2710 SWAP3 DUP4 DUP2 MUL SWAP1 DUP1 DUP3 DIV DUP6 EQ SWAP1 ISZERO OR ISZERO PUSH2 0x3CBC JUMPI DIV PUSH1 0x7 DUP6 MUL DUP6 DUP2 DIV PUSH1 0x7 EQ DUP7 ISZERO OR ISZERO PUSH2 0x3CBC JUMPI PUSH1 0x3 DUP3 MUL SWAP2 DUP1 DUP4 DIV PUSH1 0x3 EQ SWAP1 ISZERO OR ISZERO PUSH2 0x3CBC JUMPI SWAP2 PUSH1 0xA PUSH2 0x3C8D PUSH32 0x5B88A2E3FC1A53234357AB78C104DF11C33CCFA79886793654565AD70B8AFB6E SWAP8 SWAP6 SWAP4 PUSH1 0x40 SWAP8 SWAP6 PUSH2 0x34F1 JUMP JUMPDEST DIV SWAP2 DUP1 DUP4 GT PUSH2 0x3CB4 JUMPI JUMPDEST POP DUP5 DUP4 PUSH1 0x2 SWAP3 DUP10 DUP6 SWAP7 MSTORE PUSH1 0x20 MSTORE KECCAK256 ADD SSTORE DUP3 MLOAD SWAP2 DUP3 MSTORE PUSH1 0x20 DUP3 ADD MSTORE LOG2 JUMP JUMPDEST SWAP2 POP DUP5 PUSH2 0x3C97 JUMP JUMPDEST PUSH4 0x4E487B71 PUSH1 0xE0 SHL DUP6 MSTORE PUSH1 0x11 PUSH1 0x4 MSTORE PUSH1 0x24 DUP6 REVERT JUMPDEST POP POP POP POP POP POP JUMP INVALID 0x2F DUP8 DUP9 GT PUSH31 0x7EFF1D82E926EC794901D17C78024A50270940304540A733656F0D53747269 PUSH15 0x67733A20686578206C656E67746820 PUSH10 0x6E73756666696369656E PUSH21 0x360894A13BA1A3210667C828492DB98DCA3E2076CC CALLDATACOPY CALLDATALOAD 0xA9 KECCAK256 LOG3 0xCA POP 0x5D CODESIZE 0x2B 0xBC LOG2 PUSH5 0x6970667358 0x22 SLT KECCAK256 0xD5 SWAP13 PUSH26 0x368C5235B81183B90CFFF6AC2BEB3EEEA1B66ACAD0332ECA6334 MUL PUSH31 0xE664736F6C6343000813003300000000000000000000000000000000000000 "},"methodIdentifiers":{"ADMIN_ROLE()":"75b238fc","DEFAULT_ADMIN_ROLE()":"a217fddf","SLASHER_ROLE()":"5095af64","UPGRADER_ROLE()":"f72c0d8b","baseVerificationFee()":"0de3e665","calculateVerificationFee(address)":"dbda75aa","checkInactiveVerifiers()":"42efe0db","completeVerification(bytes32,address,bool)":"3fdd6b49","emergencyWithdraw()":"db2e21bc","getActiveVerifiers()":"6baec215","getActiveVerifiersWithDetails()":"76fccaa2","getRoleAdmin(bytes32)":"248a9ca3","getVerifier(address)":"059ce95d","getVerifierDetails(address)":"c20c4325","grantRole(bytes32,address)":"2f2ff15d","hasRole(bytes32,address)":"91d14854","inactivityThreshold()":"9ec86276","increaseStake()":"d9e257ef","initialize(address,uint256,uint256,address)":"9e3d87cd","minimumStake()":"ec5ffac2","pause()":"8456cb59","paused()":"5c975abb","proxiableUUID()":"52d1902d","registerVerifier(string)":"16cb4218","renounceRole(bytes32,address)":"36568abe","reputationMultiplier()":"bb55963e","revokeRole(bytes32,address)":"d547741f","slashVerifier(address,string)":"f65ecc21","slashingPercentage()":"69666a49","stakingToken()":"72f702f3","supportsInterface(bytes4)":"01ffc9a7","unpause()":"3f4ba83a","updateBaseVerificationFee(uint256)":"eb0e6049","updateInactivityThreshold(uint256)":"be3f2280","updateMinimumStake(uint256)":"4c41e880","updateReputationMultiplier(uint256)":"267ae0a4","updateSlashingPercentage(uint256)":"cf428f23","upgradeTo(address)":"3659cfe6","upgradeToAndCall(address,bytes)":"4f1ef286","verificationRequests(bytes32)":"0f3908c8","verifierEarnings(address)":"e6db0707","verifierList(uint256)":"57762ddd","verifiers(address)":"6c824487","withdrawEarnings()":"b73c6ce9"}},"storageLayout":{"storage":[{"astId":810,"contract":"contracts/VerifierMarketplace.sol:VerifierMarketplace","label":"_initialized","offset":0,"slot":"0","type":"t_uint8"},{"astId":813,"contract":"contracts/VerifierMarketplace.sol:VerifierMarketplace","label":"_initializing","offset":1,"slot":"0","type":"t_bool"},{"astId":2993,"contract":"contracts/VerifierMarketplace.sol:VerifierMarketplace","label":"__gap","offset":0,"slot":"1","type":"t_array(t_uint256)50_storage"},{"astId":3451,"contract":"contracts/VerifierMarketplace.sol:VerifierMarketplace","label":"__gap","offset":0,"slot":"51","type":"t_array(t_uint256)50_storage"},{"astId":28,"contract":"contracts/VerifierMarketplace.sol:VerifierMarketplace","label":"_roles","offset":0,"slot":"101","type":"t_mapping(t_bytes32,t_struct(RoleData)23_storage)"},{"astId":335,"contract":"contracts/VerifierMarketplace.sol:VerifierMarketplace","label":"__gap","offset":0,"slot":"102","type":"t_array(t_uint256)49_storage"},{"astId":1131,"contract":"contracts/VerifierMarketplace.sol:VerifierMarketplace","label":"_paused","offset":0,"slot":"151","type":"t_bool"},{"astId":1236,"contract":"contracts/VerifierMarketplace.sol:VerifierMarketplace","label":"__gap","offset":0,"slot":"152","type":"t_array(t_uint256)49_storage"},{"astId":792,"contract":"contracts/VerifierMarketplace.sol:VerifierMarketplace","label":"__gap","offset":0,"slot":"201","type":"t_array(t_uint256)50_storage"},{"astId":1108,"contract":"contracts/VerifierMarketplace.sol:VerifierMarketplace","label":"__gap","offset":0,"slot":"251","type":"t_array(t_uint256)50_storage"},{"astId":1252,"contract":"contracts/VerifierMarketplace.sol:VerifierMarketplace","label":"_status","offset":0,"slot":"301","type":"t_uint256"},{"astId":1321,"contract":"contracts/VerifierMarketplace.sol:VerifierMarketplace","label":"__gap","offset":0,"slot":"302","type":"t_array(t_uint256)49_storage"},{"astId":7730,"contract":"contracts/VerifierMarketplace.sol:VerifierMarketplace","label":"minimumStake","offset":0,"slot":"351","type":"t_uint256"},{"astId":7732,"contract":"contracts/VerifierMarketplace.sol:VerifierMarketplace","label":"baseVerificationFee","offset":0,"slot":"352","type":"t_uint256"},{"astId":7734,"contract":"contracts/VerifierMarketplace.sol:VerifierMarketplace","label":"reputationMultiplier","offset":0,"slot":"353","type":"t_uint256"},{"astId":7736,"contract":"contracts/VerifierMarketplace.sol:VerifierMarketplace","label":"slashingPercentage","offset":0,"slot":"354","type":"t_uint256"},{"astId":7738,"contract":"contracts/VerifierMarketplace.sol:VerifierMarketplace","label":"inactivityThreshold","offset":0,"slot":"355","type":"t_uint256"},{"astId":7741,"contract":"contracts/VerifierMarketplace.sol:VerifierMarketplace","label":"stakingToken","offset":0,"slot":"356","type":"t_contract(IERC20)4513"},{"astId":7780,"contract":"contracts/VerifierMarketplace.sol:VerifierMarketplace","label":"verifiers","offset":0,"slot":"357","type":"t_mapping(t_address,t_struct(Verifier)7760_storage)"},{"astId":7783,"contract":"contracts/VerifierMarketplace.sol:VerifierMarketplace","label":"verifierList","offset":0,"slot":"358","type":"t_array(t_address)dyn_storage"},{"astId":7788,"contract":"contracts/VerifierMarketplace.sol:VerifierMarketplace","label":"verificationRequests","offset":0,"slot":"359","type":"t_mapping(t_bytes32,t_struct(VerificationRequest)7775_storage)"},{"astId":7792,"contract":"contracts/VerifierMarketplace.sol:VerifierMarketplace","label":"verifierEarnings","offset":0,"slot":"360","type":"t_mapping(t_address,t_uint256)"}],"types":{"t_address":{"encoding":"inplace","label":"address","numberOfBytes":"20"},"t_array(t_address)dyn_storage":{"base":"t_address","encoding":"dynamic_array","label":"address[]","numberOfBytes":"32"},"t_array(t_uint256)49_storage":{"base":"t_uint256","encoding":"inplace","label":"uint256[49]","numberOfBytes":"1568"},"t_array(t_uint256)50_storage":{"base":"t_uint256","encoding":"inplace","label":"uint256[50]","numberOfBytes":"1600"},"t_bool":{"encoding":"inplace","label":"bool","numberOfBytes":"1"},"t_bytes32":{"encoding":"inplace","label":"bytes32","numberOfBytes":"32"},"t_contract(IERC20)4513":{"encoding":"inplace","label":"contract IERC20","numberOfBytes":"20"},"t_mapping(t_address,t_bool)":{"encoding":"mapping","key":"t_address","label":"mapping(address => bool)","numberOfBytes":"32","value":"t_bool"},"t_mapping(t_address,t_struct(Verifier)7760_storage)":{"encoding":"mapping","key":"t_address","label":"mapping(address => struct VerifierMarketplace.Verifier)","numberOfBytes":"32","value":"t_struct(Verifier)7760_storage"},"t_mapping(t_address,t_uint256)":{"encoding":"mapping","key":"t_address","label":"mapping(address => uint256)","numberOfBytes":"32","value":"t_uint256"},"t_mapping(t_bytes32,t_struct(RoleData)23_storage)":{"encoding":"mapping","key":"t_bytes32","label":"mapping(bytes32 => struct AccessControlUpgradeable.RoleData)","numberOfBytes":"32","value":"t_struct(RoleData)23_storage"},"t_mapping(t_bytes32,t_struct(VerificationRequest)7775_storage)":{"encoding":"mapping","key":"t_bytes32","label":"mapping(bytes32 => struct VerifierMarketplace.VerificationRequest)","numberOfBytes":"32","value":"t_struct(VerificationRequest)7775_storage"},"t_string_storage":{"encoding":"bytes","label":"string","numberOfBytes":"32"},"t_struct(RoleData)23_storage":{"encoding":"inplace","label":"struct AccessControlUpgradeable.RoleData","members":[{"astId":20,"contract":"contracts/VerifierMarketplace.sol:VerifierMarketplace","label":"members","offset":0,"slot":"0","type":"t_mapping(t_address,t_bool)"},{"astId":22,"contract":"contracts/VerifierMarketplace.sol:VerifierMarketplace","label":"adminRole","offset":0,"slot":"1","type":"t_bytes32"}],"numberOfBytes":"64"},"t_struct(VerificationRequest)7775_storage":{"encoding":"inplace","label":"struct VerifierMarketplace.VerificationRequest","members":[{"astId":7762,"contract":"contracts/VerifierMarketplace.sol:VerifierMarketplace","label":"requester","offset":0,"slot":"0","type":"t_address"},{"astId":7764,"contract":"contracts/VerifierMarketplace.sol:VerifierMarketplace","label":"assignedVerifier","offset":0,"slot":"1","type":"t_address"},{"astId":7766,"contract":"contracts/VerifierMarketplace.sol:VerifierMarketplace","label":"fee","offset":0,"slot":"2","type":"t_uint256"},{"astId":7768,"contract":"contracts/VerifierMarketplace.sol:VerifierMarketplace","label":"timestamp","offset":0,"slot":"3","type":"t_uint256"},{"astId":7770,"contract":"contracts/VerifierMarketplace.sol:VerifierMarketplace","label":"completed","offset":0,"slot":"4","type":"t_bool"},{"astId":7772,"contract":"contracts/VerifierMarketplace.sol:VerifierMarketplace","label":"successful","offset":1,"slot":"4","type":"t_bool"},{"astId":7774,"contract":"contracts/VerifierMarketplace.sol:VerifierMarketplace","label":"requestData","offset":0,"slot":"5","type":"t_string_storage"}],"numberOfBytes":"192"},"t_struct(Verifier)7760_storage":{"encoding":"inplace","label":"struct VerifierMarketplace.Verifier","members":[{"astId":7743,"contract":"contracts/VerifierMarketplace.sol:VerifierMarketplace","label":"verifierAddress","offset":0,"slot":"0","type":"t_address"},{"astId":7745,"contract":"contracts/VerifierMarketplace.sol:VerifierMarketplace","label":"stakedAmount","offset":0,"slot":"1","type":"t_uint256"},{"astId":7747,"contract":"contracts/VerifierMarketplace.sol:VerifierMarketplace","label":"reputationScore","offset":0,"slot":"2","type":"t_uint256"},{"astId":7749,"contract":"contracts/VerifierMarketplace.sol:VerifierMarketplace","label":"totalVerifications","offset":0,"slot":"3","type":"t_uint256"},{"astId":7751,"contract":"contracts/VerifierMarketplace.sol:VerifierMarketplace","label":"successfulVerifications","offset":0,"slot":"4","type":"t_uint256"},{"astId":7753,"contract":"contracts/VerifierMarketplace.sol:VerifierMarketplace","label":"lastActivityTimestamp","offset":0,"slot":"5","type":"t_uint256"},{"astId":7755,"contract":"contracts/VerifierMarketplace.sol:VerifierMarketplace","label":"isActive","offset":0,"slot":"6","type":"t_bool"},{"astId":7757,"contract":"contracts/VerifierMarketplace.sol:VerifierMarketplace","label":"metadata","offset":0,"slot":"7","type":"t_string_storage"},{"astId":7759,"contract":"contracts/VerifierMarketplace.sol:VerifierMarketplace","label":"registrationTimestamp","offset":0,"slot":"8","type":"t_uint256"}],"numberOfBytes":"288"},"t_uint256":{"encoding":"inplace","label":"uint256","numberOfBytes":"32"},"t_uint8":{"encoding":"inplace","label":"uint8","numberOfBytes":"1"}}}}}}