{"contracts/VCRegistry.sol":{"VCRegistry":{"abi":[{"inputs":[],"stateMutability":"nonpayable","type":"constructor"},{"anonymous":false,"inputs":[{"indexed":false,"internalType":"address","name":"previousAdmin","type":"address"},{"indexed":false,"internalType":"address","name":"newAdmin","type":"address"}],"name":"AdminChanged","type":"event"},{"anonymous":false,"inputs":[{"indexed":true,"internalType":"address","name":"owner","type":"address"},{"indexed":true,"internalType":"address","name":"approved","type":"address"},{"indexed":true,"internalType":"uint256","name":"tokenId","type":"uint256"}],"name":"Approval","type":"event"},{"anonymous":false,"inputs":[{"indexed":true,"internalType":"address","name":"owner","type":"address"},{"indexed":true,"internalType":"address","name":"operator","type":"address"},{"indexed":false,"internalType":"bool","name":"approved","type":"bool"}],"name":"ApprovalForAll","type":"event"},{"anonymous":false,"inputs":[{"indexed":false,"internalType":"uint256","name":"_fromTokenId","type":"uint256"},{"indexed":false,"internalType":"uint256","name":"_toTokenId","type":"uint256"}],"name":"BatchMetadataUpdate","type":"event"},{"anonymous":false,"inputs":[{"indexed":true,"internalType":"address","name":"beacon","type":"address"}],"name":"BeaconUpgraded","type":"event"},{"anonymous":false,"inputs":[{"indexed":true,"internalType":"uint256","name":"tokenId","type":"uint256"},{"indexed":true,"internalType":"bytes32","name":"vcHash","type":"bytes32"},{"indexed":true,"internalType":"address","name":"issuer","type":"address"},{"indexed":false,"internalType":"address","name":"holder","type":"address"},{"indexed":false,"internalType":"string","name":"hederaDID","type":"string"},{"indexed":false,"internalType":"enum VCRegistry.CredentialType","name":"credentialType","type":"uint8"},{"indexed":false,"internalType":"uint64","name":"issuedAt","type":"uint64"},{"indexed":false,"internalType":"uint64","name":"expiresAt","type":"uint64"}],"name":"CredentialIssued","type":"event"},{"anonymous":false,"inputs":[{"indexed":true,"internalType":"uint256","name":"tokenId","type":"uint256"},{"indexed":true,"internalType":"address","name":"issuer","type":"address"}],"name":"CredentialReactivated","type":"event"},{"anonymous":false,"inputs":[{"indexed":true,"internalType":"uint256","name":"tokenId","type":"uint256"},{"indexed":true,"internalType":"bytes32","name":"vcHash","type":"bytes32"},{"indexed":true,"internalType":"address","name":"issuer","type":"address"},{"indexed":false,"internalType":"uint64","name":"revokedAt","type":"uint64"},{"indexed":false,"internalType":"string","name":"reason","type":"string"}],"name":"CredentialRevoked","type":"event"},{"anonymous":false,"inputs":[{"indexed":true,"internalType":"uint256","name":"tokenId","type":"uint256"},{"indexed":true,"internalType":"address","name":"issuer","type":"address"},{"indexed":false,"internalType":"string","name":"reason","type":"string"}],"name":"CredentialSuspended","type":"event"},{"anonymous":false,"inputs":[{"indexed":true,"internalType":"string","name":"did","type":"string"},{"indexed":true,"internalType":"address","name":"controller","type":"address"},{"indexed":false,"internalType":"uint64","name":"timestamp","type":"uint64"}],"name":"DIDDeactivated","type":"event"},{"anonymous":false,"inputs":[{"indexed":true,"internalType":"string","name":"did","type":"string"},{"indexed":true,"internalType":"address","name":"controller","type":"address"},{"indexed":false,"internalType":"uint64","name":"timestamp","type":"uint64"}],"name":"DIDRegistered","type":"event"},{"anonymous":false,"inputs":[{"indexed":true,"internalType":"string","name":"did","type":"string"},{"indexed":true,"internalType":"address","name":"controller","type":"address"},{"indexed":false,"internalType":"uint64","name":"timestamp","type":"uint64"}],"name":"DIDUpdated","type":"event"},{"anonymous":false,"inputs":[{"indexed":false,"internalType":"uint8","name":"version","type":"uint8"}],"name":"Initialized","type":"event"},{"anonymous":false,"inputs":[{"indexed":true,"internalType":"address","name":"issuer","type":"address"}],"name":"IssuerAdded","type":"event"},{"anonymous":false,"inputs":[{"indexed":true,"internalType":"address","name":"issuer","type":"address"}],"name":"IssuerRemoved","type":"event"},{"anonymous":false,"inputs":[{"indexed":false,"internalType":"uint256","name":"_tokenId","type":"uint256"}],"name":"MetadataUpdate","type":"event"},{"anonymous":false,"inputs":[{"indexed":false,"internalType":"address","name":"account","type":"address"}],"name":"Paused","type":"event"},{"anonymous":false,"inputs":[{"indexed":true,"internalType":"bytes32","name":"role","type":"bytes32"},{"indexed":true,"internalType":"bytes32","name":"previousAdminRole","type":"bytes32"},{"indexed":true,"internalType":"bytes32","name":"newAdminRole","type":"bytes32"}],"name":"RoleAdminChanged","type":"event"},{"anonymous":false,"inputs":[{"indexed":true,"internalType":"bytes32","name":"role","type":"bytes32"},{"indexed":true,"internalType":"address","name":"account","type":"address"},{"indexed":true,"internalType":"address","name":"sender","type":"address"}],"name":"RoleGranted","type":"event"},{"anonymous":false,"inputs":[{"indexed":true,"internalType":"bytes32","name":"role","type":"bytes32"},{"indexed":true,"internalType":"address","name":"account","type":"address"},{"indexed":true,"internalType":"address","name":"sender","type":"address"}],"name":"RoleRevoked","type":"event"},{"anonymous":false,"inputs":[{"indexed":true,"internalType":"string","name":"schemaURI","type":"string"},{"indexed":true,"internalType":"address","name":"approver","type":"address"}],"name":"SchemaApproved","type":"event"},{"anonymous":false,"inputs":[{"indexed":true,"internalType":"address","name":"from","type":"address"},{"indexed":true,"internalType":"address","name":"to","type":"address"},{"indexed":true,"internalType":"uint256","name":"tokenId","type":"uint256"}],"name":"Transfer","type":"event"},{"anonymous":false,"inputs":[{"indexed":true,"internalType":"address","name":"from","type":"address"},{"indexed":true,"internalType":"address","name":"to","type":"address"},{"indexed":true,"internalType":"uint256","name":"tokenId","type":"uint256"}],"name":"TransferAttemptBlocked","type":"event"},{"anonymous":false,"inputs":[{"indexed":false,"internalType":"address","name":"account","type":"address"}],"name":"Unpaused","type":"event"},{"anonymous":false,"inputs":[{"indexed":true,"internalType":"address","name":"implementation","type":"address"}],"name":"Upgraded","type":"event"},{"inputs":[],"name":"DEFAULT_ADMIN_ROLE","outputs":[{"internalType":"bytes32","name":"","type":"bytes32"}],"stateMutability":"view","type":"function"},{"inputs":[],"name":"DID_RESOLVER_ROLE","outputs":[{"internalType":"bytes32","name":"","type":"bytes32"}],"stateMutability":"view","type":"function"},{"inputs":[],"name":"ISSUER_ROLE","outputs":[{"internalType":"bytes32","name":"","type":"bytes32"}],"stateMutability":"view","type":"function"},{"inputs":[],"name":"UPGRADER_ROLE","outputs":[{"internalType":"bytes32","name":"","type":"bytes32"}],"stateMutability":"view","type":"function"},{"inputs":[{"internalType":"address","name":"to","type":"address"},{"internalType":"uint256","name":"tokenId","type":"uint256"}],"name":"approve","outputs":[],"stateMutability":"nonpayable","type":"function"},{"inputs":[{"internalType":"string","name":"schemaURI","type":"string"}],"name":"approveSchema","outputs":[],"stateMutability":"nonpayable","type":"function"},{"inputs":[{"internalType":"string","name":"","type":"string"}],"name":"approvedSchemas","outputs":[{"internalType":"bool","name":"","type":"bool"}],"stateMutability":"view","type":"function"},{"inputs":[{"internalType":"address","name":"","type":"address"}],"name":"authorizedIssuers","outputs":[{"internalType":"bool","name":"","type":"bool"}],"stateMutability":"view","type":"function"},{"inputs":[{"internalType":"address","name":"owner","type":"address"}],"name":"balanceOf","outputs":[{"internalType":"uint256","name":"","type":"uint256"}],"stateMutability":"view","type":"function"},{"inputs":[{"internalType":"enum VCRegistry.CredentialType","name":"","type":"uint8"}],"name":"credentialTypeCount","outputs":[{"internalType":"uint256","name":"","type":"uint256"}],"stateMutability":"view","type":"function"},{"inputs":[{"internalType":"uint256","name":"","type":"uint256"}],"name":"credentials","outputs":[{"internalType":"uint256","name":"tokenId","type":"uint256"},{"internalType":"address","name":"issuer","type":"address"},{"internalType":"address","name":"holder","type":"address"},{"internalType":"string","name":"hederaDID","type":"string"},{"internalType":"bytes32","name":"vcHash","type":"bytes32"},{"internalType":"enum VCRegistry.CredentialType","name":"credentialType","type":"uint8"},{"internalType":"enum VCRegistry.CredentialStatus","name":"status","type":"uint8"},{"internalType":"uint64","name":"issuedAt","type":"uint64"},{"internalType":"uint64","name":"expiresAt","type":"uint64"},{"internalType":"uint64","name":"revokedAt","type":"uint64"},{"internalType":"string","name":"metadataURI","type":"string"},{"internalType":"string","name":"schemaURI","type":"string"}],"stateMutability":"view","type":"function"},{"inputs":[{"internalType":"string","name":"did","type":"string"}],"name":"deactivateDID","outputs":[],"stateMutability":"nonpayable","type":"function"},{"inputs":[],"name":"defaultExpirationPeriod","outputs":[{"internalType":"uint256","name":"","type":"uint256"}],"stateMutability":"view","type":"function"},{"inputs":[{"internalType":"string","name":"","type":"string"}],"name":"didDocuments","outputs":[{"internalType":"string","name":"did","type":"string"},{"internalType":"address","name":"controller","type":"address"},{"internalType":"uint64","name":"created","type":"uint64"},{"internalType":"uint64","name":"updated","type":"uint64"},{"internalType":"bool","name":"active","type":"bool"}],"stateMutability":"view","type":"function"},{"inputs":[{"internalType":"string","name":"","type":"string"},{"internalType":"uint256","name":"","type":"uint256"}],"name":"didToTokenIds","outputs":[{"internalType":"uint256","name":"","type":"uint256"}],"stateMutability":"view","type":"function"},{"inputs":[{"internalType":"uint256","name":"tokenId","type":"uint256"}],"name":"getApproved","outputs":[{"internalType":"address","name":"","type":"address"}],"stateMutability":"view","type":"function"},{"inputs":[],"name":"getContractStats","outputs":[{"internalType":"uint256","name":"totalCredentials","type":"uint256"},{"internalType":"uint256","name":"totalIssuers","type":"uint256"},{"internalType":"uint256","name":"totalDIDs","type":"uint256"},{"internalType":"uint256[7]","name":"credentialTypeCounts","type":"uint256[7]"}],"stateMutability":"view","type":"function"},{"inputs":[{"internalType":"uint256","name":"tokenId","type":"uint256"}],"name":"getCredential","outputs":[{"internalType":"uint256","name":"_tokenId","type":"uint256"},{"internalType":"address","name":"issuer","type":"address"},{"internalType":"address","name":"holder","type":"address"},{"internalType":"string","name":"hederaDID","type":"string"},{"internalType":"bytes32","name":"vcHash","type":"bytes32"},{"internalType":"enum VCRegistry.CredentialType","name":"credentialType","type":"uint8"},{"internalType":"enum VCRegistry.CredentialStatus","name":"status","type":"uint8"},{"internalType":"uint64","name":"issuedAt","type":"uint64"},{"internalType":"uint64","name":"expiresAt","type":"uint64"},{"internalType":"uint64","name":"revokedAt","type":"uint64"},{"internalType":"string","name":"metadataURI","type":"string"},{"internalType":"string","name":"schemaURI","type":"string"},{"internalType":"bytes32[]","name":"claims","type":"bytes32[]"}],"stateMutability":"view","type":"function"},{"inputs":[{"internalType":"uint256","name":"tokenId","type":"uint256"},{"internalType":"string","name":"key","type":"string"}],"name":"getCredentialAttribute","outputs":[{"internalType":"string","name":"value","type":"string"}],"stateMutability":"view","type":"function"},{"inputs":[{"internalType":"bytes32","name":"vcHash","type":"bytes32"}],"name":"getCredentialByHash","outputs":[{"internalType":"uint256","name":"tokenId","type":"uint256"},{"internalType":"bool","name":"exists","type":"bool"}],"stateMutability":"view","type":"function"},{"inputs":[{"internalType":"string","name":"hederaDID","type":"string"}],"name":"getCredentialsByDID","outputs":[{"internalType":"uint256[]","name":"tokenIds","type":"uint256[]"}],"stateMutability":"view","type":"function"},{"inputs":[{"internalType":"string","name":"did","type":"string"}],"name":"getDIDDocument","outputs":[{"components":[{"internalType":"string","name":"did","type":"string"},{"internalType":"address","name":"controller","type":"address"},{"internalType":"string[]","name":"verificationMethods","type":"string[]"},{"internalType":"string[]","name":"services","type":"string[]"},{"internalType":"uint64","name":"created","type":"uint64"},{"internalType":"uint64","name":"updated","type":"uint64"},{"internalType":"bool","name":"active","type":"bool"}],"internalType":"struct VCRegistry.DIDDocument","name":"document","type":"tuple"}],"stateMutability":"view","type":"function"},{"inputs":[{"internalType":"bytes32","name":"role","type":"bytes32"}],"name":"getRoleAdmin","outputs":[{"internalType":"bytes32","name":"","type":"bytes32"}],"stateMutability":"view","type":"function"},{"inputs":[{"internalType":"bytes32","name":"role","type":"bytes32"},{"internalType":"address","name":"account","type":"address"}],"name":"grantRole","outputs":[],"stateMutability":"nonpayable","type":"function"},{"inputs":[{"internalType":"bytes32","name":"role","type":"bytes32"},{"internalType":"address","name":"account","type":"address"}],"name":"hasRole","outputs":[{"internalType":"bool","name":"","type":"bool"}],"stateMutability":"view","type":"function"},{"inputs":[{"internalType":"address","name":"admin","type":"address"},{"internalType":"string","name":"name","type":"string"},{"internalType":"string","name":"symbol","type":"string"}],"name":"initialize","outputs":[],"stateMutability":"nonpayable","type":"function"},{"inputs":[{"internalType":"address","name":"owner","type":"address"},{"internalType":"address","name":"operator","type":"address"}],"name":"isApprovedForAll","outputs":[{"internalType":"bool","name":"","type":"bool"}],"stateMutability":"view","type":"function"},{"inputs":[{"internalType":"address","name":"issuer","type":"address"}],"name":"isAuthorizedIssuer","outputs":[{"internalType":"bool","name":"","type":"bool"}],"stateMutability":"view","type":"function"},{"inputs":[{"internalType":"uint256","name":"tokenId","type":"uint256"}],"name":"isCredentialValid","outputs":[{"internalType":"bool","name":"valid","type":"bool"},{"internalType":"enum VCRegistry.CredentialStatus","name":"status","type":"uint8"},{"internalType":"uint64","name":"issuedAt","type":"uint64"},{"internalType":"uint64","name":"expiresAt","type":"uint64"},{"internalType":"uint64","name":"revokedAt","type":"uint64"}],"stateMutability":"view","type":"function"},{"inputs":[{"internalType":"address","name":"holder","type":"address"},{"internalType":"string","name":"hederaDID","type":"string"},{"internalType":"bytes32","name":"vcHash","type":"bytes32"},{"internalType":"enum VCRegistry.CredentialType","name":"credentialType","type":"uint8"},{"internalType":"string","name":"metadataURI","type":"string"},{"internalType":"string","name":"schemaURI","type":"string"},{"internalType":"bytes32[]","name":"claims","type":"bytes32[]"},{"internalType":"uint256","name":"expirationPeriod","type":"uint256"}],"name":"issueCredential","outputs":[],"stateMutability":"nonpayable","type":"function"},{"inputs":[{"internalType":"address","name":"","type":"address"}],"name":"issuerCredentialCount","outputs":[{"internalType":"uint256","name":"","type":"uint256"}],"stateMutability":"view","type":"function"},{"inputs":[],"name":"maxCredentialsPerDID","outputs":[{"internalType":"uint256","name":"","type":"uint256"}],"stateMutability":"view","type":"function"},{"inputs":[],"name":"name","outputs":[{"internalType":"string","name":"","type":"string"}],"stateMutability":"view","type":"function"},{"inputs":[{"internalType":"uint256","name":"tokenId","type":"uint256"}],"name":"ownerOf","outputs":[{"internalType":"address","name":"","type":"address"}],"stateMutability":"view","type":"function"},{"inputs":[],"name":"pause","outputs":[],"stateMutability":"nonpayable","type":"function"},{"inputs":[],"name":"paused","outputs":[{"internalType":"bool","name":"","type":"bool"}],"stateMutability":"view","type":"function"},{"inputs":[],"name":"proxiableUUID","outputs":[{"internalType":"bytes32","name":"","type":"bytes32"}],"stateMutability":"view","type":"function"},{"inputs":[{"internalType":"uint256","name":"tokenId","type":"uint256"}],"name":"reactivateCredential","outputs":[],"stateMutability":"nonpayable","type":"function"},{"inputs":[{"internalType":"string","name":"did","type":"string"},{"internalType":"address","name":"controller","type":"address"},{"internalType":"string[]","name":"verificationMethods","type":"string[]"},{"internalType":"string[]","name":"services","type":"string[]"}],"name":"registerDID","outputs":[],"stateMutability":"nonpayable","type":"function"},{"inputs":[{"internalType":"address","name":"issuer","type":"address"}],"name":"registerIssuer","outputs":[],"stateMutability":"nonpayable","type":"function"},{"inputs":[{"internalType":"bytes32","name":"role","type":"bytes32"},{"internalType":"address","name":"account","type":"address"}],"name":"renounceRole","outputs":[],"stateMutability":"nonpayable","type":"function"},{"inputs":[{"internalType":"uint256","name":"tokenId","type":"uint256"},{"internalType":"string","name":"reason","type":"string"}],"name":"revokeCredential","outputs":[],"stateMutability":"nonpayable","type":"function"},{"inputs":[{"internalType":"address","name":"issuer","type":"address"}],"name":"revokeIssuer","outputs":[],"stateMutability":"nonpayable","type":"function"},{"inputs":[{"internalType":"bytes32","name":"role","type":"bytes32"},{"internalType":"address","name":"account","type":"address"}],"name":"revokeRole","outputs":[],"stateMutability":"nonpayable","type":"function"},{"inputs":[{"internalType":"string","name":"schemaURI","type":"string"}],"name":"revokeSchemaApproval","outputs":[],"stateMutability":"nonpayable","type":"function"},{"inputs":[{"internalType":"address","name":"from","type":"address"},{"internalType":"address","name":"to","type":"address"},{"internalType":"uint256","name":"tokenId","type":"uint256"}],"name":"safeTransferFrom","outputs":[],"stateMutability":"nonpayable","type":"function"},{"inputs":[{"internalType":"address","name":"from","type":"address"},{"internalType":"address","name":"to","type":"address"},{"internalType":"uint256","name":"tokenId","type":"uint256"},{"internalType":"bytes","name":"data","type":"bytes"}],"name":"safeTransferFrom","outputs":[],"stateMutability":"nonpayable","type":"function"},{"inputs":[{"internalType":"address","name":"operator","type":"address"},{"internalType":"bool","name":"approved","type":"bool"}],"name":"setApprovalForAll","outputs":[],"stateMutability":"nonpayable","type":"function"},{"inputs":[{"internalType":"uint256","name":"tokenId","type":"uint256"},{"internalType":"string","name":"key","type":"string"},{"internalType":"string","name":"value","type":"string"}],"name":"setCredentialAttribute","outputs":[],"stateMutability":"nonpayable","type":"function"},{"inputs":[{"internalType":"bool","name":"_transfersEnabled","type":"bool"}],"name":"setTransfersEnabled","outputs":[],"stateMutability":"nonpayable","type":"function"},{"inputs":[{"internalType":"bytes4","name":"interfaceId","type":"bytes4"}],"name":"supportsInterface","outputs":[{"internalType":"bool","name":"","type":"bool"}],"stateMutability":"view","type":"function"},{"inputs":[{"internalType":"uint256","name":"tokenId","type":"uint256"},{"internalType":"string","name":"reason","type":"string"}],"name":"suspendCredential","outputs":[],"stateMutability":"nonpayable","type":"function"},{"inputs":[],"name":"symbol","outputs":[{"internalType":"string","name":"","type":"string"}],"stateMutability":"view","type":"function"},{"inputs":[{"internalType":"uint256","name":"tokenId","type":"uint256"}],"name":"tokenURI","outputs":[{"internalType":"string","name":"","type":"string"}],"stateMutability":"view","type":"function"},{"inputs":[{"internalType":"address","name":"from","type":"address"},{"internalType":"address","name":"to","type":"address"},{"internalType":"uint256","name":"tokenId","type":"uint256"}],"name":"transferFrom","outputs":[],"stateMutability":"nonpayable","type":"function"},{"inputs":[],"name":"transfersEnabled","outputs":[{"internalType":"bool","name":"","type":"bool"}],"stateMutability":"view","type":"function"},{"inputs":[],"name":"unpause","outputs":[],"stateMutability":"nonpayable","type":"function"},{"inputs":[{"internalType":"string","name":"did","type":"string"},{"internalType":"string[]","name":"verificationMethods","type":"string[]"},{"internalType":"string[]","name":"services","type":"string[]"}],"name":"updateDID","outputs":[],"stateMutability":"nonpayable","type":"function"},{"inputs":[{"internalType":"uint256","name":"_defaultExpirationPeriod","type":"uint256"}],"name":"updateDefaultExpirationPeriod","outputs":[],"stateMutability":"nonpayable","type":"function"},{"inputs":[{"internalType":"uint256","name":"_maxCredentialsPerDID","type":"uint256"}],"name":"updateMaxCredentialsPerDID","outputs":[],"stateMutability":"nonpayable","type":"function"},{"inputs":[{"internalType":"address","name":"newImplementation","type":"address"}],"name":"upgradeTo","outputs":[],"stateMutability":"nonpayable","type":"function"},{"inputs":[{"internalType":"address","name":"newImplementation","type":"address"},{"internalType":"bytes","name":"data","type":"bytes"}],"name":"upgradeToAndCall","outputs":[],"stateMutability":"payable","type":"function"},{"inputs":[{"internalType":"bytes32","name":"","type":"bytes32"}],"name":"vcHashToTokenId","outputs":[{"internalType":"uint256","name":"","type":"uint256"}],"stateMutability":"view","type":"function"}],"evm":{"bytecode":{"linkReferences":{},"object":"60a08060405234620000e157306080526000549060ff8260081c166200008f575060ff8082160362000053575b604051615ba79081620000e78239608051818181612e0801528181612ef70152613a320152f35b60ff90811916176000557f7f26b83ff96e1f2b6a682f133852f6798a09c465da95921460cefb3847402498602060405160ff8152a1386200002c565b62461bcd60e51b815260206004820152602760248201527f496e697469616c697a61626c653a20636f6e747261637420697320696e697469604482015266616c697a696e6760c81b6064820152608490fd5b600080fdfe6080604052600436101561001257600080fd5b60003560e01c8062629679146142cc57806301ffc9a71461422a57806306fdde0314614181578063081812fc14614163578063095ea7b3146140ec5780631c7b75dd146140b157806323b872dd1461408d5780632451e05714613ed3578063248a9ca314613ea457806324c483a514613e0657806325cc2e9914613dcb57806326b9ce1314613d905780632f2ff15d14613cef57806331ba196614613c8d57806334d699c814613c5c57806336568abe14613bca5780633659cfe614613a0d578063394f9d68146139ab5780633b253b23146138335780633c2d5760146132305780633f4ba83a1461319c57806342842e0e146131695780634f1565991461313c5780634f1ef28614612eb957806352d1902d14612df5578063557f699b14612d165780635977ac3714612cf45780635c975abb14612cd15780636352211e14612ca157806369fb9b5914612bd45780636da48b9a14612b7c5780636db842ab14612b2157806370a0823114612a895780637323555f146129a6578063784afc4e14612830578063826e63dd1461280e57806382aefa24146127e55780638456cb591461278b5780638dd18d2d146125c75780639065714714611fda57806391d1485414611f8d57806392c64784146112a7578063957a3205146110d857806395d89b4114610ff0578063a038d9fc14610c5e578063a217fddf14610c42578063a22cb46514610bc0578063b0bdb39014610b46578063b7bc582214610aea578063b88d4fde14610a76578063bd53412c14610a57578063bef97c8714610a33578063c87b56dd146109bf578063cc1c4cb3146107c4578063d0b643a314610624578063d547741f146105e3578063ddb6dbd614610587578063dfe6b5d6146104d3578063e0574e3f146103c6578063e985e9c51461036f578063ef78411114610350578063f72c0d8b146103155763f731fa0f146102d057600080fd5b34610310576020366003190112610310576001600160a01b036102f16143ba565b166000526101c8602052602060ff604060002054166040519015158152f35b600080fd5b346103105760003660031901126103105760206040517f189ab7a9244df0848122154315af71fe140f3db0fe014031783b0946b8c9d2e38152f35b346103105760003660031901126103105760206101cd54604051908152f35b34610310576040366003190112610310576103886143ba565b6103906143d0565b9060018060a01b0380911660005261013260205260406000209116600052602052602060ff604060002054166040519015158152f35b34610310576020366003190112610310576004356000526101c4602052604060002080546104cf60018060a01b03926104c08460018301541694600283015416916104136003820161459a565b9060048101549161045f60058301549161043b60076104346006870161459a565b950161459a565b966040519a8b9a8b5260208b015260408a01526101808060608b0152890190614409565b92608088015261047560a0880160ff831661474c565b61048860c0880160ff8360081c166146b7565b6001600160401b0390818160101c1660e0890152818160501c1661010089015260901c16610120870152858203610140870152614409565b90838203610160850152614409565b0390f35b34610310576000366003190112610310576040516104f081614463565b60e03682376101c3546000198101919082116105715760005b600781106105525750604051918252602060008184015260006040840152606083016000905b6007821061053d5761014085f35b8280600192865181520194019101909261052f565b8061055f61056c92614640565b548160051b8401526158dd565b610509565b634e487b7160e01b600052601160045260246000fd5b34610310576020366003190112610310576004356000526101c560205260408060002054801515806105c2575b825191825215156020820152f35b50600081815261012f60205260409020546001600160a01b031615156105b4565b34610310576040366003190112610310576106226004356106026143d0565b9080600052606560205261061d600160406000200154614bc8565b614cd3565b005b3461031057610632366146c4565b61063d92919261583a565b600082815261012f6020526040902054610661906001600160a01b03161515615959565b60008281526101c46020908152604090912060018101546001600160a01b0316949033861480156107a2575b1561075a57600501805460ff8160081c166004811015610744576106f55761ff0019166101001790556040518281527fa6bd64971aec0058a94590bdc8efbcec399c3aed928293c360edd6eff042f6e093909283926106f09291840191906158ec565b0390a3005b60405162461bcd60e51b815260048101859052602160248201527f564352656769737472793a2043726564656e7469616c206e6f742061637469766044820152606560f81b6064820152608490fd5b634e487b7160e01b600052602160045260246000fd5b60405162461bcd60e51b815260048101849052602c6024820152600080516020615b1283398151915260448201526b0818d85b881cdd5cdc195b9960a21b6064820152608490fd5b506000805260658352604060002033600052835260ff6040600020541661068d565b34610310576060366003190112610310576001600160401b03600435602435828111610310576107f890369060040161465a565b91906044358481116103105761081290369060040161465a565b9261081b61583a565b600081815261012f602052604090205461083f906001600160a01b03161515615959565b6000526020916101c4835260406000209460019560018060a01b0387820154163314801561099d575b1561094e5790600961087c9392019161570b565b94831161093857610897836108918754614560565b876156d1565b600091601f84116001146108d557509282939183926000946108ca575b50501b916000199060031b1c1916179055600080f35b0135925085806108b4565b9183601f1981168760005284600020946000905b8883831061091e5750505010610904575b505050811b019055005b0135600019600384901b60f8161c191690558380806108fa565b8686013588559096019593840193879350908101906108e9565b634e487b7160e01b600052604160045260246000fd5b60405162461bcd60e51b81526004810186905260336024820152600080516020615b128339815191526044820152722063616e20736574206174747269627574657360681b6064820152608490fd5b506000805260658552604060002033600052855260ff60406000205416610868565b3461031057602036600319011261031057600435600081815261012f60205260409020546109f7906001600160a01b03161515614e9b565b60005261015f6020526104cf610a10604060002061459a565b6000604051610a1e8161447e565b52604051918291602083526020830190614409565b3461031057600036600319011261031057602060ff6101ce54166040519015158152f35b346103105760003660031901126103105760206101cc54604051908152f35b3461031057608036600319011261031057610a8f6143ba565b610a976143d0565b90606435906044356001600160401b0383116103105761062293610ac2610ae5943690600401614542565b92610ad5610ad08433615020565b614f4b565b610ae08383836150e9565b61546e565b615000565b34610310576020366003190112610310576004356001600160401b03811161031057610b1c602091369060040161465a565b9190610b26614771565b8260405193849283376101cb90820190815203019020805460ff19169055005b34610310576040366003190112610310576004356001600160401b03811161031057610b76903690600401614542565b610b9260206024359281604051938285809451938492016143e6565b81016101c6815203019020805482101561031057602091610bb291614759565b90546040519160031b1c8152f35b3461031057604036600319011261031057610bd96143ba565b50602435801515036103105760405162461bcd60e51b815260206004820152602f60248201527f564352656769737472793a20536f756c626f756e6420746f6b656e732063616e60448201526e1b9bdd08189948185c1c1c9bdd9959608a1b6064820152608490fd5b3461031057600036600319011261031057602060405160008152f35b34610310576060366003190112610310576001600160401b0360043581811161031057610c8f90369060040161465a565b60249291923582811161031057610caa903690600401614687565b929060443582811161031057610cc4903690600401614687565b9091610cce61583a565b610cd6614a83565b60405185888237610d0160ff6004888401936020816101c79687815203019020015460801c1661587e565b60206040518092888b8337888201908152030190209560028701610d2582826157aa565b600090815260208120835b838310610ed357505050505060039182860190610d4d83836157aa565b60009182526020822090805b848410610de257894288167fbf2f58ef98f3b512411f78c775512da5ceba9561d21ec4aac5220520e2a0d44e60208b8d610db985600483019067ffffffffffffffff60401b82549160401b169067ffffffffffffffff60401b1916179055565b6001808060a01b03910154169481604051928392833781016000815203902092604051908152a3005b8035601e198336030181121561031057820180359088821161031057813603602082011361031057610e18826108918754614560565b600090601f8311600114610e64579282600194936020938695600092610e57575b5050600019828c1b1c191690841b1786555b01930193019291610d59565b8592500101358f80610e39565b601f198316918660005260206000209260005b818110610eb9575092600195928592879660209610610e9f575b505050831b83018655610e4b565b01840135600019838d1b60f8161c191690558e8080610e91565b919360206001819282888801013581550195019201610e77565b8035601e198636030181121561031057888187013511610310578086013536036020828801011361031057610f1581870135610f0f8554614560565b856156d1565b6000601f8288013511600114610f6d576001928392602092600090828b0135610f5e575b50818a0135851b91600019908b013560031b1c19161785555b01920192019190610d30565b849150828b0101013538610f39565b601f198288013516908460005260206000209160005b89828210610fd457602094915092859260019794968897013511610fb2575b5050880135831b83018555610f52565b848b60f88560001992013560031b161c1991848d010101351690558f80610fa2565b6001849560208094968982950101013581550194019201610f83565b3461031057600036600319011261031057604051600061012e805461101481614560565b808552916001918083169081156110ae5750600114611052575b6104cf8561103e818703826144cf565b604051918291602083526020830190614409565b600090815292507fbdaadd9f750d0166045bf387a364eadd28ba243e04512a47282aa5147a68e37f5b82841061109657505050810160200161103e826104cf61102e565b8054602085870181019190915290930192810161107b565b8695506104cf9693506020925061103e94915060ff191682840152151560051b820101929361102e565b34610310576110e6366146c4565b90916110f061583a565b600081815261012f6020526040902054611114906001600160a01b03161515615959565b60008181526101c46020908152604090912060018101546001600160a01b031694903386148015611285575b1561123e5760058101805460ff8160081c166004811015610744576002146111ea579260047f6229a1c7ca1138c3dc9d038cb759b5dcdd8a915b19f03a4918cf7c18ccb7d0c695936111e5936102006040976001600160401b0360901b4260901b169079ffffffffffffffff00000000000000000000000000000000ff0019161717905501549684519485946001600160401b034216865285015260408401916158ec565b0390a4005b60405162461bcd60e51b815260048101869052602660248201527f564352656769737472793a2043726564656e7469616c20616c72656164792072604482015265195d9bdad95960d21b6064820152608490fd5b60405162461bcd60e51b815260048101849052602b6024820152600080516020615b1283398151915260448201526a2063616e207265766f6b6560a81b6064820152608490fd5b506000805260658352604060002033600052835260ff60406000205416611140565b3461031057610100366003190112610310576112c16143ba565b6024356001600160401b038111610310576112e090369060040161465a565b60076064351015610310576084356001600160401b0381116103105761130a90369060040161465a565b92909160a4356001600160401b0381116103105761132c90369060040161465a565b94909360c4356001600160401b0381116103105761134e903690600401614687565b909561135861583a565b3360009081527fdc90190c5595698a8d1df3df5e997a1c14cddcee1e8a77f4eb097988bdbd877e6020526040902054600080516020615b528339815191529060ff1615611df8575060026101915414611db3576002610191556001600160a01b03891615611d63578415611d1e5760443515611cd9578315611c83576044356000526101c5602052604060002054611c3e5761141260ff6004604051888a82376020818a81016101c7815203019020015460801c1661587e565b604051858782376020818781016101c6815203019020546101cc541115611be45787611b81575b6101c380546001810190915596600060e43515611b5357506001600160401b0361146560e43542615582565b16985b60008981526101c4602052604090208981556001810180546001600160a01b031990811633179091556002820180549091166001600160a01b038e16179055926001600160401b038811610938576114d0886114c76003870154614560565b600387016156d1565b876000601f8211600114611ae357600091611ad8575b508860011b906000198a60031b1c19161760038501555b604435600485015560058401805460ff606435169065ffffffffffff60d01b161769ffffffffffffffff00004260101b16176001600160401b0360501b8d60501b161790556001600160401b0387116109385761156a876115616006870154614560565b600687016156d1565b866000601f8211600114611a6a57600091611a5f575b508760011b906000198960031b1c19161760068501555b6001600160401b0382116109385781906115c1826115b86007880154614560565b600788016156d1565b600090601f83116001146119ee576000926119e3575b50508160011b916000199060031b1c19161760078301555b6001600160401b03831161093857600160401b83116109385760088201548360088401558084106119b6575b506008909101600052602060002060005b8381106119a257505050506044356000526101c560205284604060002055604051838582376020818581016101c681520301902091825492600160401b841015610938578361168391600161179d96018155614759565b8154888260031b1b916000199060031b1b1916179055336000526101c960205260406000206116b281546158dd565b90556116bf606435614640565b6116c981546158dd565b9055611796610ae56040516116dd8161447e565b600080825289815261012f6020526040902054611706906001600160a01b031615155b1561590d565b600089815261012f602052604090205461172a906001600160a01b03161515611700565b6001600160a01b038b16600081815261013060209081526040808320805460010190558c835261012f909152812080546001600160a01b031916831790558a91907fddf252ad1be2c89b69c2b068fc378daa952ba7f163c4a11628f55a4df523b3ef8180a4888b615373565b369161450b565b600084815261012f60205260409020546001600160a01b031615611946578360005261015f6020526040600020908051906001600160401b038211610938576117ea82610f0f8554614560565b602090601f83116001146118ce5791806001600160401b0396949261187296946000926118c3575b50508160011b916000199060031b1c19161790555b7ff8e1a15aba9398e019f0b49df1a4fde98ee17ae345cb5f6b5e2c27f5033e8ce76020604051878152a16040516001600160a01b03909716875260a0602088018190528701916158ec565b926118826040860160643561474c565b81421660608601521660808401527f62b11d2fe571bf506c79e1b0df12c591be85a72c64ac00059be1c6fc5a33667f339380604435940390a4600161019155005b015190508a80611812565b908360005260206000209160005b601f198516811061192e5750926001600160401b03969492600192611872979583601f19811610611915575b505050811b019055611827565b015160001960f88460031b161c191690558a8080611908565b919260206001819286850151815501940192016118dc565b60405162461bcd60e51b815260206004820152602e60248201527f45524337323155524953746f726167653a2055524920736574206f66206e6f6e60448201526d32bc34b9ba32b73a103a37b5b2b760911b6064820152608490fd5b60019060208435940193818401550161162c565b600883016000526020600020908482015b81830181106119d757505061161b565b600081556001016119c7565b013590508c806115d7565b909250600785016000526020600020906000935b601f1984168510611a47576001945083601f19811610611a2d575b505050811b0160078301556115ef565b0135600019600384901b60f8161c191690558c8080611a1d565b81810135835560209485019460019093019201611a02565b90508601358d611580565b90506006850160005260206000209060005b601f198a168110611ac0575088601f19811610611aa6575b5050600187811b016006850155611597565b87013560001960038a901b60f8161c191690558c80611a94565b9091602060018192858c013581550193019101611a7c565b90508901358d6114e6565b90506003850160005260206000209060005b8b601f198c168210611b3b57505089601f19811610611b21575b5050600188811b0160038501556114fd565b8a013560001960038b901b60f8161c191690558c80611b0f565b60018394602093948493013581550193019101611af5565b986101cd5480611b64575b50611468565b6001600160401b03919a50611b799042615582565b16988b611b5e565b60ff604051898382376020818b81016101cb81520301902054166114395760405162461bcd60e51b815260206004820152601f60248201527f564352656769737472793a20536368656d61206e6f7420617070726f766564006044820152606490fd5b60405162461bcd60e51b815260206004820152602c60248201527f564352656769737472793a204d61782063726564656e7469616c73207065722060448201526b11125108195e18d95959195960a21b6064820152608490fd5b60405162461bcd60e51b815260206004820152601d60248201527f564352656769737472793a20564320616c7265616479206973737565640000006044820152606490fd5b60405162461bcd60e51b815260206004820152602860248201527f564352656769737472793a204d65746164617461205552492063616e6e6f7420604482015267626520656d70747960c01b6064820152608490fd5b60405162461bcd60e51b815260206004820152601b60248201527f564352656769737472793a20496e76616c6964205643206861736800000000006044820152606490fd5b60405162461bcd60e51b815260206004820152601e60248201527f564352656769737472793a20496e76616c6964204865646572612044494400006044820152606490fd5b60405162461bcd60e51b815260206004820152602260248201527f564352656769737472793a20496e76616c696420686f6c646572206164647265604482015261737360f01b6064820152608490fd5b60405162461bcd60e51b815260206004820152601f60248201527f5265656e7472616e637947756172643a207265656e7472616e742063616c6c006044820152606490fd5b611e01336155a0565b60405191611e0e836144b4565b6042835260208301906060368337835115611f7757603082538351600190811015611f7757607860218601536041905b808211611f33575050611eef576048611ebc92611ecb92611eeb9560405195869376020b1b1b2b9b9a1b7b73a3937b61d1030b1b1b7bab73a1604d1b6020860152611e938151809260206037890191016143e6565b8401917001034b99036b4b9b9b4b733903937b6329607d1b6037840152518093868401906143e6565b010360288101845201826144cf565b60405162461bcd60e51b8152602060048201529182916024830190614409565b0390fd5b606460405162461bcd60e51b815260206004820152602060248201527f537472696e67733a20686578206c656e67746820696e73756666696369656e746044820152fd5b9091600f81166010811015611f77576f181899199a1a9b1b9c1cb0b131b232b360811b901a611f62848861558f565b5360041c918015610571576000190190611e3e565b634e487b7160e01b600052603260045260246000fd5b3461031057604036600319011261031057611fa66143d0565b600435600052606560205260406000209060018060a01b0316600052602052602060ff604060002054166040519015158152f35b3461031057606036600319011261031057611ff36143ba565b6024356001600160401b03811161031057612012903690600401614542565b906044356001600160401b03811161031057612032903690600401614542565b906000549060ff8260081c1615918280936125ba575b80156125a3575b156125475760ff19811660011760005582612535575b506120ae60ff60005460081c1661207b8161565a565b6120848161565a565b61208d8161565a565b60ff19609754166097556120a08161565a565b6120a98161565a565b61565a565b83516001600160401b038111610938576120ca61012d54614560565b601f81116124e5575b506020601f821160011461245c578192939495600092612451575b50508160011b916000199060031b1c19161761012d555b82516001600160401b0381116109385761012e906121238254614560565b601f81116123f8575b50602094601f82116001146123765794819293949560009261236b575b50508160011b916000199060031b1c19161790555b61217360ff60005460081c166120a08161565a565b6001610191556001600160a01b031660008181527fffdfc1249c027f9191656349feb0761381bb32c9f557e01f419fd08754bf5a1b60205260409020546065919060ff161561232c575b7f189ab7a9244df0848122154315af71fe140f3db0fe014031783b0946b8c9d2e3806000528260205260406000208260005260205260ff60406000205416156122ec575b507fa4057a4b1ab9ab5267dd02ca73e655ddebc38467f166bba2faa7a1e160dc900f91826000528060205260406000208260005260205260ff60406000205416156122ac575b5050600a6101cc55506301e133806101cd556101ce805460ff191690556101c38054600101905561227457005b61ff0019600054166000557f7f26b83ff96e1f2b6a682f133852f6798a09c465da95921460cefb3847402498602060405160018152a1005b826000526020526040600020816000526020526040600020600160ff198254161790553391600080516020615af2833981519152600080a4818080612247565b80600052826020526040600020826000526020526040600020600160ff19825416179055813391600080516020615af2833981519152600080a483612201565b60008052816020526040600020816000526020526040600020600160ff1982541617905533816000600080516020615af28339815191528180a46121bd565b015190508580612149565b601f19821695836000527fbdaadd9f750d0166045bf387a364eadd28ba243e04512a47282aa5147a68e37f9160005b8881106123e0575083600195969798106123c7575b505050811b01905561215e565b015160001960f88460031b161c191690558580806123ba565b919260206001819286850151815501940192016123a5565b61244190836000527fbdaadd9f750d0166045bf387a364eadd28ba243e04512a47282aa5147a68e37f601f840160051c81019160208510612447575b601f0160051c01906156ba565b8561212c565b9091508190612434565b0151905085806120ee565b61012d6000527f193a3ae4da5049eb74cee39e4cf5827f7ce7b1d1d1775ef1c6311eb60558e6d59060005b601f19841681106124cd575060019394959683601f198116106124b4575b505050811b0161012d55612105565b015160001960f88460031b161c191690558580806124a5565b9091602060018192858b015181550193019101612487565b61252f9061012d6000527f193a3ae4da5049eb74cee39e4cf5827f7ce7b1d1d1775ef1c6311eb60558e6d5601f840160051c8101916020851061244757601f0160051c01906156ba565b856120d3565b61ffff19166101011760005584612065565b60405162461bcd60e51b815260206004820152602e60248201527f496e697469616c697a61626c653a20636f6e747261637420697320616c72656160448201526d191e481a5b9a5d1a585b1a5e995960921b6064820152608490fd5b50303b15801561204f5750600160ff82161461204f565b50600160ff821610612048565b3461031057602036600319011261031057600435600081815261012f60205260409020546125ff906001600160a01b03161515615959565b6000526101c4602052604060002080549060018060a01b0380600183015416906002830154166004830154600584015461263b6003860161459a565b906126486006870161459a565b916126556007880161459a565b946040519687602060088b01549182815201906008829b0160005260206000209060005b818110612775575050508761272a886020988e986126c98f998f998d996126a58c6127399b038d6144cf565b6040519e8f9e8f908152015260408d015260608c6101a091829101528c0190614409565b9260808b01526126df60a08b0160ff831661474c565b6126f260c08b0160ff8360081c166146b7565b6001600160401b0390818160101c1660e08c0152818160501c166101008c015260901c166101208a01528882036101408a0152614409565b90868203610160880152614409565b91848303610180860152519182815201919060005b81811061275c575050500390f35b825184528594506020938401939092019160010161274e565b8254845260209093019260019283019201612679565b34610310576000366003190112610310576127a4614771565b6127ac61583a565b600160ff1960975416176097557f62e78cea01bee320cd4e420270b5ea74000d11b0c9f74754ebdbfc544b05a2586020604051338152a1005b34610310576000366003190112610310576020604051600080516020615b528339815191528152f35b3461031057602036600319011261031057612827614771565b6004356101cd55005b3461031057602080600319360112610310576001600160401b036004358181116103105761286290369060040161465a565b836040519261287084614463565b606093848152828101600090528460408201528480820152608081016000905260a081016000905260c0016000905282604051938492833781016101c781520301902090604051926128c184614463565b6128ca8361459a565b845260018301546001600160a01b039081168686019081529282906128f160028701615a45565b604088019081529561290560038201615a45565b9082890191825260040154956080890197848816895260a08a0195858960401c16875260c08b019860801c60ff16151589526040519b8c9b818d5251908c0160e090526101008c0161295691614409565b92511660408b01525190601f1993848b830301908b0152612976916146f7565b90519188820301608089015261298b916146f7565b94511660a0860152511660c084015251151560e08301520390f35b3461031057602080600319360112610310576101c86129c36143ba565b6129cb614771565b6001600160a01b0316916129e0831515615a9a565b600080516020615b528339815191528060005260658252604060002084600052825260ff6040600020541615612a4a575b50526040600020600160ff198254161790557f05e7c881d716bee8cb7ed92293133ba156704252439e5c502c277448f04e20c2600080a2005b806000526065825260406000208460005282526040600020600160ff19825416179055833391600080516020615af2833981519152600080a483612a11565b34610310576020366003190112610310576001600160a01b03612aaa6143ba565b168015612aca576000526101306020526020604060002054604051908152f35b60405162461bcd60e51b815260206004820152602960248201527f4552433732313a2061646472657373207a65726f206973206e6f7420612076616044820152683634b21037bbb732b960b91b6064820152608490fd5b34610310576104cf61103e612b77612b38366146c4565b600083815261012f602052604090205491929091612b60906001600160a01b03161515615959565b6000526101c460205260096040600020019161570b565b61459a565b346103105760203660031901126103105760a0612bb4612b9d6004356159a4565b9260409591949551951515865260208601906146b7565b6001600160401b0392838092166040860152166060840152166080820152f35b3461031057602080600319360112610310576004356001600160401b03811161031057612c068291369060040161465a565b919082604051938492833781016101c681520301902060405190818382549182815201908192600052846000209060005b86828210612c8d578686612c4d828803836144cf565b604051928392818401908285525180915260408401929160005b828110612c7657505050500390f35b835185528695509381019392810192600101612c67565b835485529093019260019283019201612c37565b34610310576020366003190112610310576020612cbf600435614ee7565b6040516001600160a01b039091168152f35b3461031057600036600319011261031057602060ff609754166040519015158152f35b3461031057602036600319011261031057612d0d614771565b6004356101cc55005b34610310576020366003190112610310576004356001600160401b03811161031057612d4690369060040161465a565b612d4e614771565b8015612db057604051818382376020818381016101cb815203019020600160ff1982541617905580604051928337810190600082528033920390207fab6feb290431679e31dd219fbc08c1bcebbfd9a2ae72235d52c08f3a0b318879600080a3005b60405162461bcd60e51b815260206004820152601e60248201527f564352656769737472793a20496e76616c696420736368656d612055524900006044820152606490fd5b34610310576000366003190112610310577f00000000000000000000000000000000000000000000000000000000000000006001600160a01b03163003612e4e576020604051600080516020615b328339815191528152f35b60405162461bcd60e51b815260206004820152603860248201527f555550535570677261646561626c653a206d757374206e6f742062652063616c60448201527f6c6564207468726f7567682064656c656761746563616c6c00000000000000006064820152608490fd5b604036600319011261031057612ecd6143ba565b6024356001600160401b03811161031057612eec903690600401614542565b906001600160a01b037f0000000000000000000000000000000000000000000000000000000000000000811690612f2530831415614d49565b612f42600080516020615b32833981519152928284541614614daa565b612f4a61493e565b7f4910fdfa16fed3260ed0e7147f7cc6da11a60208b5b9406d12a635614ffd91435460ff1615612f805750506106229150614e0b565b6040516352d1902d60e01b81526020939291831691908481600481865afa6000918161310d575b506130085760405162461bcd60e51b815260048101869052602e60248201527f45524331393637557067726164653a206e657720696d706c656d656e7461746960448201526d6f6e206973206e6f74205555505360901b6064820152608490fd5b036130b65761301682614e0b565b7fbc7cd75a20ee27fd9adebab32041f755214dbc6bffa90cc0225b39da2e5c2d3b600080a28251158015906130ae575b61304c57005b600080610622946040519461306086614499565b602786527f416464726573733a206c6f772d6c6576656c2064656c65676174652063616c6c81870152660819985a5b195960ca1b604087015281519101845af46130a8615343565b916154e9565b506001613046565b60405162461bcd60e51b815260048101849052602960248201527f45524331393637557067726164653a20756e737570706f727465642070726f786044820152681a58589b195555525160ba1b6064820152608490fd5b9091508581813d8311613135575b61312581836144cf565b8101031261031057519087612fa7565b503d61311b565b34610310576020366003190112610310576004356000526101c56020526020604060002054604051908152f35b3461031057610622610ae561317d3661442e565b906040519261318b8461447e565b60008452610ad5610ad08433615020565b34610310576000366003190112610310576131b5614771565b60975460ff8116156131f45760ff19166097557f5db9ee0a495bf2e6ff9c91a7834c1ba4fdd244a5e8aa4e537bd38aeae4b073aa6020604051338152a1005b60405162461bcd60e51b815260206004820152601460248201527314185d5cd8589b194e881b9bdd081c185d5cd95960621b6044820152606490fd5b34610310576080366003190112610310576004356001600160401b0381116103105761326090369060040161465a565b6132686143d0565b916044356001600160401b03811161031057613288903690600401614687565b906064356001600160401b038111610310576132a8903690600401614687565b91906132b261583a565b6132ba614a83565b85156137ee576001600160a01b038716156137a957604051928686853760ff6004888601956020816101c79889815203019020015460801c166137595761332e61333a936040519661330b88614463565b613316368b8b61450b565b88526001600160a01b038b166020890152369161573b565b6040860152369161573b565b60608301526001600160401b03421660808301526001600160401b03421660a0830152600160c083015260206040518092868683378682019081520301902081518051906001600160401b0382116109385781906133a28261339c8654614560565b866156d1565b602090601f83116001146136ed576000926136e2575b50508160011b916000199060031b1c19161781555b6001810160018060a01b036020840151166bffffffffffffffffffffffff60a01b825416179055600281016040830151602081519161340c83856157aa565b01916000526020600020916000905b8282106136055750505050600381016060830151602081519161343e83856157aa565b01916000526020600020916000905b8282106135225750505050600460c09101916001600160401b036080820151166001600160401b03198454161783556134b66001600160401b0360a083015116849067ffffffffffffffff60401b82549160401b169067ffffffffffffffff60401b1916179055565b0151815460ff60801b191690151560801b60ff60801b16179055604051918291819083378101600081520390207f55122e217e812164e89f85ac57ced9d6a1e7d39533e5f921cbb1489f04f518136020604051936001600160401b034216855260018060a01b031693a3005b80518051906001600160401b03821161093857613549826135438854614560565b886156d1565b602090601f831160011461359557928260019493602093869560009261358a575b5050600019600383901b1c191690841b1787555b0194019101909261344d565b015190508e8061356a565b908660005260206000209160005b601f19851681106135ed575083602093600196938796938794601f198116106135d4575b505050811b01875561357e565b015160001960f88460031b161c191690558e80806135c7565b919260206001819286850151815501940192016135a3565b80518051906001600160401b03821161093857613626826135438854614560565b602090601f8311600114613672579282600194936020938695600092613667575b5050600019600383901b1c191690841b1787555b0194019101909261341b565b015190508e80613647565b908660005260206000209160005b601f19851681106136ca575083602093600196938796938794601f198116106136b1575b505050811b01875561365b565b015160001960f88460031b161c191690558e80806136a4565b91926020600181928685015181550194019201613680565b0151905087806133b8565b9250836000526020600020906000935b601f198416851061373e576001945083601f19811610613725575b505050811b0181556133cd565b015160001960f88460031b161c19169055878080613718565b818101518355602094850194600190930192909101906136fd565b60405162461bcd60e51b815260206004820152602260248201527f564352656769737472793a2044494420616c7265616479207265676973746572604482015261195960f21b6064820152608490fd5b60405162461bcd60e51b815260206004820152601e60248201527f564352656769737472793a20496e76616c696420636f6e74726f6c6c657200006044820152606490fd5b60405162461bcd60e51b815260206004820152601760248201527f564352656769737472793a20496e76616c6964204449440000000000000000006044820152606490fd5b3461031057602080600319360112610310576001600160401b036004358181116103105761386590369060040161465a565b61387093919361583a565b613878614a83565b604051928185853760ff60048386019585816101c79889815203019020015460801c161561396657907f3b0aff36a36ae2ba995cdba3733206f9438955e2e295c8662df5cf21fc2ac5cf92916004604051838882378481858101898152030190200160ff60801b19815416905542169361392a856004604051858a8237868187810187815203019020019067ffffffffffffffff60401b82549160401b169067ffffffffffffffff60401b1916179055565b6001604051838882378381019283528481838060a01b0394030190200154169481604051928392833781016000815203902092604051908152a3005b60405162461bcd60e51b815260048101849052601a60248201527f564352656769737472793a20444944206e6f74206163746976650000000000006044820152606490fd5b34610310576020366003190112610310576004356001600160401b0381116103105760ff6139f660206139e381943690600401614542565b81604051938285809451938492016143e6565b81016101cb81520301902054166040519015158152f35b346103105760208060031936011261031057613a276143ba565b6001600160a01b03917f00000000000000000000000000000000000000000000000000000000000000008316613a5f30821415614d49565b613a7c600080516020615b32833981519152918583541614614daa565b613a8461493e565b60405193613a918561447e565b600085527f4910fdfa16fed3260ed0e7147f7cc6da11a60208b5b9406d12a635614ffd91435460ff1615613acc575050506106229150614e0b565b83929316906040516352d1902d60e01b81528481600481865afa60009181613b9b575b50613b505760405162461bcd60e51b815260048101869052602e60248201527f45524331393637557067726164653a206e657720696d706c656d656e7461746960448201526d6f6e206973206e6f74205555505360901b6064820152608490fd5b036130b657613b5e82614e0b565b7fbc7cd75a20ee27fd9adebab32041f755214dbc6bffa90cc0225b39da2e5c2d3b600080a2825115801590613b935761304c57005b506000613046565b9091508581813d8311613bc3575b613bb381836144cf565b8101031261031057519087613aef565b503d613ba9565b3461031057604036600319011261031057613be36143d0565b336001600160a01b03821603613bff5761062290600435614cd3565b60405162461bcd60e51b815260206004820152602f60248201527f416363657373436f6e74726f6c3a2063616e206f6e6c792072656e6f756e636560448201526e103937b632b9903337b91039b2b63360891b6064820152608490fd5b3461031057602036600319011261031057600435600781101561031057613c84602091614640565b54604051908152f35b3461031057602036600319011261031057613ca66143ba565b6001600160a01b031660009081527fdc90190c5595698a8d1df3df5e997a1c14cddcee1e8a77f4eb097988bdbd877e602090815260409182902054915160ff9092161515825290f35b3461031057604036600319011261031057600435613d0b6143d0565b816000526065602052613d25600160406000200154614bc8565b81600052606560205260406000209060018060a01b0316908160005260205260ff6040600020541615613d5457005b8160005260656020526040600020816000526020526040600020600160ff198254161790553391600080516020615af2833981519152600080a4005b346103105760203660031901126103105760043580151580910361031057613db6614771565b6101ce9060ff80198354169116179055600080f35b346103105760003660031901126103105760206040517fa4057a4b1ab9ab5267dd02ca73e655ddebc38467f166bba2faa7a1e160dc900f8152f35b34610310576020366003190112610310576004356001600160401b0380821161031057613e3f60206139e3613e7d943690600401614542565b81016101c781520301902060ff613e558261459a565b92600460018060a01b036001850154169301549060405195869560a0875260a0870190614409565b93602086015280821660408601528160401c16606085015260801c16151560808301520390f35b346103105760203660031901126103105760043560005260656020526020600160406000200154604051908152f35b34610310576020806003193601126103105760043590613ef161583a565b600082815261012f6020526040902054613f15906001600160a01b03161515615959565b60008281526101c48252604090206001810180546001600160a01b039391929084163314801561406b575b15614020576005019081549060ff8260081c16600481101561074457600103613fd057506001600160401b038160501c168015159081613fc6575b5015613fba5750805461ff0019166103001790555b5416907f89fee67112d0c62a5d62f651ad4d70d614c89bb025a775b933bff507bc70397a600080a3005b61ff0019169055613f90565b9050421186613f7b565b6084906040519062461bcd60e51b825260048201526024808201527f564352656769737472793a2043726564656e7469616c206e6f742073757370656044820152631b99195960e21b6064820152fd5b60405162461bcd60e51b815260048101839052602f6024820152600080516020615b1283398151915260448201526e2063616e207265616374697661746560881b6064820152608490fd5b506000805260658252604060002033600052825260ff60406000205416613f40565b346103105761062261409e3661442e565b916140ac610ad08433615020565b6150e9565b34610310576020366003190112610310576001600160a01b036140d26143ba565b166000526101c96020526020604060002054604051908152f35b34610310576040366003190112610310576141056143ba565b5060405162461bcd60e51b815260206004820152602f60248201527f564352656769737472793a20536f756c626f756e6420746f6b656e732063616e60448201526e1b9bdd08189948185c1c1c9bdd9959608a1b6064820152608490fd5b34610310576020366003190112610310576020612cbf600435614f0b565b3461031057600036600319011261031057604051600061012d80546141a581614560565b808552916001918083169081156110ae57506001146141ce576104cf8561103e818703826144cf565b600090815292507f193a3ae4da5049eb74cee39e4cf5827f7ce7b1d1d1775ef1c6311eb60558e6d55b82841061421257505050810160200161103e826104cf61102e565b805460208587018101919091529093019281016141f7565b346103105760203660031901126103105760043563ffffffff60e01b811680910361031057602090632483248360e11b811490811561426f575b506040519015158152f35b6380ac58cd60e01b8114915081156142bb575b8115614290575b5082614264565b637965db0b60e01b8114915081156142aa575b5082614289565b6301ffc9a760e01b149050826142a3565b635b5e139f60e01b81149150614282565b3461031057602080600319360112610310576101c86142e96143ba565b6142f1614771565b6001600160a01b031691614306831515615a9a565b600080516020615b528339815191528060005260658252604060002084600052825260ff6040600020541661436c575b5052604060002060ff1981541690557faf66545c919a3be306ee446d8f42a9558b5b022620df880517bc9593ec0f2d52600080a2005b80600052606582526040600020846000528252604060002060ff1981541690558333917ff6391f5c32d9c69d2a47ea670b442974b53935d1edc7fd64eb21e047a839171b600080a483614336565b600435906001600160a01b038216820361031057565b602435906001600160a01b038216820361031057565b60005b8381106143f95750506000910152565b81810151838201526020016143e9565b90602091614422815180928185528580860191016143e6565b601f01601f1916010190565b6060906003190112610310576001600160a01b0390600435828116810361031057916024359081168103610310579060443590565b60e081019081106001600160401b0382111761093857604052565b602081019081106001600160401b0382111761093857604052565b606081019081106001600160401b0382111761093857604052565b608081019081106001600160401b0382111761093857604052565b90601f801991011681019081106001600160401b0382111761093857604052565b6001600160401b03811161093857601f01601f191660200190565b929192614517826144f0565b9161452560405193846144cf565b829481845281830111610310578281602093846000960137010152565b9080601f830112156103105781602061455d9335910161450b565b90565b90600182811c92168015614590575b602083101461457a57565b634e487b7160e01b600052602260045260246000fd5b91607f169161456f565b90604051918260008254926145ae84614560565b90818452600194858116908160001461461d57506001146145da575b50506145d8925003836144cf565b565b9093915060005260209081600020936000915b8183106146055750506145d8935082010138806145ca565b855488840185015294850194879450918301916145ed565b9150506145d894506020925060ff191682840152151560051b82010138806145ca565b6007811015610744576000526101ca602052604060002090565b9181601f84011215610310578235916001600160401b038311610310576020838186019501011161031057565b9181601f84011215610310578235916001600160401b038311610310576020808501948460051b01011161031057565b9060048210156107445752565b9060406003198301126103105760043591602435906001600160401b038211610310576146f39160040161465a565b9091565b90815180825260208092019182818360051b85019501936000915b8483106147225750505050505090565b909192939495848061473c83856001950387528a51614409565b9801930193019194939290614712565b9060078210156107445752565b8054821015611f775760005260206000200190600090565b3360009081527fffdfc1249c027f9191656349feb0761381bb32c9f557e01f419fd08754bf5a1b602090815260408083205490929060ff16156147b357505050565b6147bc336155a0565b90808451906147ca826144b4565b6042825284820192606036853782511561492a576030845382519060019182101561492a5790607860218501536041915b8183116148bc5750505061487a576048611eeb93869361485e9361484f985198899376020b1b1b2b9b9a1b7b73a3937b61d1030b1b1b7bab73a1604d1b8a860152611e93815180928c6037890191016143e6565b010360288101875201856144cf565b5192839262461bcd60e51b845260048401526024830190614409565b60648486519062461bcd60e51b825280600483015260248201527f537472696e67733a20686578206c656e67746820696e73756666696369656e746044820152fd5b909192600f81166010811015614916576f181899199a1a9b1b9c1cb0b131b232b360811b901a6148ec858761558f565b5360041c928015614902576000190191906147fb565b634e487b7160e01b82526011600452602482fd5b634e487b7160e01b83526032600452602483fd5b634e487b7160e01b81526032600452602490fd5b3360009081527f61c6261e6978331c793eee420d743e773864e0ec05cc862750e423d64f73e9f6602090815260408083205490927f189ab7a9244df0848122154315af71fe140f3db0fe014031783b0946b8c9d2e39160ff16156149a25750505050565b6149ab336155a0565b918451906149b8826144b4565b6042825284820192606036853782511561492a576030845382519060019182101561492a5790607860218501536041915b818311614a3d5750505061487a576048611eeb93869361485e9361484f985198899376020b1b1b2b9b9a1b7b73a3937b61d1030b1b1b7bab73a1604d1b8a860152611e93815180928c6037890191016143e6565b909192600f81166010811015614916576f181899199a1a9b1b9c1cb0b131b232b360811b901a614a6d858761558f565b5360041c928015614902576000190191906149e9565b3360009081527f55c0d5b0ff48dce25436fe2aa58a4419f6d3ed31ba53bee0b2fd8a1915347c84602090815260408083205490927fa4057a4b1ab9ab5267dd02ca73e655ddebc38467f166bba2faa7a1e160dc900f9160ff1615614ae75750505050565b614af0336155a0565b91845190614afd826144b4565b6042825284820192606036853782511561492a576030845382519060019182101561492a5790607860218501536041915b818311614b825750505061487a576048611eeb93869361485e9361484f985198899376020b1b1b2b9b9a1b7b73a3937b61d1030b1b1b7bab73a1604d1b8a860152611e93815180928c6037890191016143e6565b909192600f81166010811015614916576f181899199a1a9b1b9c1cb0b131b232b360811b901a614bb2858761558f565b5360041c92801561490257600019019190614b2e565b60009080825260209060658252604092838120338252835260ff848220541615614bf25750505050565b614bfb336155a0565b91845190614c08826144b4565b6042825284820192606036853782511561492a576030845382519060019182101561492a5790607860218501536041915b818311614c8d5750505061487a576048611eeb93869361485e9361484f985198899376020b1b1b2b9b9a1b7b73a3937b61d1030b1b1b7bab73a1604d1b8a860152611e93815180928c6037890191016143e6565b909192600f81166010811015614916576f181899199a1a9b1b9c1cb0b131b232b360811b901a614cbd858761558f565b5360041c92801561490257600019019190614c39565b906000918083526065602052604083209160018060a01b03169182845260205260ff604084205416614d0457505050565b8083526065602052604083208284526020526040832060ff1981541690557ff6391f5c32d9c69d2a47ea670b442974b53935d1edc7fd64eb21e047a839171b339380a4565b15614d5057565b60405162461bcd60e51b815260206004820152602c60248201527f46756e6374696f6e206d7573742062652063616c6c6564207468726f7567682060448201526b19195b1959d85d1958d85b1b60a21b6064820152608490fd5b15614db157565b60405162461bcd60e51b815260206004820152602c60248201527f46756e6374696f6e206d7573742062652063616c6c6564207468726f7567682060448201526b6163746976652070726f787960a01b6064820152608490fd5b803b15614e4057600080516020615b3283398151915280546001600160a01b0319166001600160a01b03909216919091179055565b60405162461bcd60e51b815260206004820152602d60248201527f455243313936373a206e657720696d706c656d656e746174696f6e206973206e60448201526c1bdd08184818dbdb9d1c9858dd609a1b6064820152608490fd5b15614ea257565b60405162461bcd60e51b815260206004820152601860248201527f4552433732313a20696e76616c696420746f6b656e20494400000000000000006044820152606490fd5b600090815261012f60205260409020546001600160a01b031661455d811515614e9b565b600081815261012f6020526040902054614f2f906001600160a01b03161515614e9b565b600090815261013160205260409020546001600160a01b031690565b15614f5257565b60405162461bcd60e51b815260206004820152602d60248201527f4552433732313a2063616c6c6572206973206e6f7420746f6b656e206f776e6560448201526c1c881bdc88185c1c1c9bdd9959609a1b6064820152608490fd5b60809060208152603260208201527f4552433732313a207472616e7366657220746f206e6f6e20455243373231526560408201527131b2b4bb32b91034b6b83632b6b2b73a32b960711b60608201520190565b1561500757565b60405162461bcd60e51b815280611eeb60048201614fad565b906001600160a01b03808061503484614ee7565b16931691838314938415615067575b508315615051575b50505090565b61505d91929350614f0b565b161438808061504b565b90935060005261013260205260406000208260005260205260ff604060002054169238615043565b1561509657565b60405162461bcd60e51b815260206004820152602560248201527f4552433732313a207472616e736665722066726f6d20696e636f72726563742060448201526437bbb732b960d91b6064820152608490fd5b90615111916150f784614ee7565b6001600160a01b039391841692849290918316841461508f565b169182156152f25781801515806152ea575b6151bf575b61513c9161513586614ee7565b161461508f565b7fddf252ad1be2c89b69c2b068fc378daa952ba7f163c4a11628f55a4df523b3ef6000848152610131602052604081206bffffffffffffffffffffffff60a01b90818154169055838252610130602052604082206000198154019055848252604082206001815401905585825261012f60205284604083209182541617905580a4565b5060ff6101ce541615615263573360009081527fffdfc1249c027f9191656349feb0761381bb32c9f557e01f419fd08754bf5a1b602052604090205460ff16156152095781615128565b60405162461bcd60e51b815260206004820152602c60248201527f564352656769737472793a205472616e7366657220726571756972657320616460448201526b1b5a5b88185c1c1c9bdd985b60a21b6064820152608490fd5b5082608492604051927f184e520b4f95d7866c7393beb94b3043b9fc654d6f1788aebe4a15afc2bfaa24600080a462461bcd60e51b815260206004820152603160248201527f564352656769737472793a20536f756c626f756e6420746f6b656e7320617265604482015270206e6f6e2d7472616e7366657261626c6560781b6064820152fd5b506001615123565b60405162461bcd60e51b8152602060048201526024808201527f4552433732313a207472616e7366657220746f20746865207a65726f206164646044820152637265737360e01b6064820152608490fd5b3d1561536e573d90615354826144f0565b9161536260405193846144cf565b82523d6000602084013e565b606090565b9091600091803b15615465576153be6020918493604051948580948193630a85bd0160e11b9a8b84523360048501528460248501526044840152608060648401526084830190614409565b03926001600160a01b03165af190829082615416575b5050615408576153e2615343565b805190816154035760405162461bcd60e51b815280611eeb60048201614fad565b602001fd5b6001600160e01b0319161490565b909192506020813d821161545d575b81615432602093836144cf565b810103126154595751906001600160e01b03198216820361545657509038806153d4565b80fd5b5080fd5b3d9150615425565b50505050600190565b91926000929190813b156154df576020916154c49185604051958680958194630a85bd0160e11b9b8c845233600485015260018060a01b0380951660248501526044840152608060648401526084830190614409565b0393165af190829082615416575050615408576153e2615343565b5050505050600190565b9192901561554b57508151156154fd575090565b3b156155065790565b60405162461bcd60e51b815260206004820152601d60248201527f416464726573733a2063616c6c20746f206e6f6e2d636f6e74726163740000006044820152606490fd5b82519091501561555e5750805190602001fd5b60405162461bcd60e51b815260206004820152908190611eeb906024830190614409565b9190820180921161057157565b908151811015611f77570160200190565b604051906155ad82614499565b602a8252602082016040368237825115611f7757603090538151600190811015611f7757607860218401536029905b8082116155ec575050611eef5790565b9091600f81166010811015615645576f181899199a1a9b1b9c1cb0b131b232b360811b901a61561b848661558f565b5360041c9180156156305760001901906155dc565b60246000634e487b7160e01b81526011600452fd5b60246000634e487b7160e01b81526032600452fd5b1561566157565b60405162461bcd60e51b815260206004820152602b60248201527f496e697469616c697a61626c653a20636f6e7472616374206973206e6f74206960448201526a6e697469616c697a696e6760a81b6064820152608490fd5b8181106156c5575050565b600081556001016156ba565b9190601f81116156e057505050565b6145d8926000526020600020906020601f840160051c8301931061244757601f0160051c01906156ba565b6020919283604051948593843782019081520301902090565b6001600160401b0381116109385760051b60200190565b9291909261574884615724565b9161575660405193846144cf565b829480845260208094019060051b8301928284116103105780915b84831061578057505050505050565b82356001600160401b03811161031057869161579f8684938601614542565b815201920191615771565b600160401b8211610938578054918082558281106157c757505050565b600091825260209081832093840193015b8381106157e55750505050565b80836157f360019354614560565b80615801575b5050016157d8565b601f808211851461581857505081555b83386157f9565b61583190848452868420920160051c82018583016156ba565b81835555615811565b60ff6097541661584657565b60405162461bcd60e51b815260206004820152601060248201526f14185d5cd8589b194e881c185d5cd95960821b6044820152606490fd5b1561588557565b60405162461bcd60e51b815260206004820152602a60248201527f564352656769737472793a20444944206e6f742072656769737465726564206f6044820152697220696e61637469766560b01b6064820152608490fd5b60001981146105715760010190565b908060209392818452848401376000828201840152601f01601f1916010190565b1561591457565b60405162461bcd60e51b815260206004820152601c60248201527f4552433732313a20746f6b656e20616c7265616479206d696e746564000000006044820152606490fd5b1561596057565b606460405162461bcd60e51b815260206004820152602060248201527f564352656769737472793a20546f6b656e20646f6573206e6f742065786973746044820152fd5b600081815261012f60205260409020546001600160a01b031615615a33576000526101c46020526005604060002001546001600160401b0390818160501c169081151580615a2a575b615a155760ff8160081c169360048510156107445784159493808360101c16939260901c1690565b600093600393808360101c16939260901c1690565b508142116159ed565b50600090600290600090600090600090565b908154615a5181615724565b92615a5f60405194856144cf565b818452600090815260208082208186015b848410615a7e575050505050565b6001838192615a8c8561459a565b815201920193019290615a70565b15615aa157565b60405162461bcd60e51b815260206004820152602260248201527f564352656769737472793a20496e76616c696420697373756572206164647265604482015261737360f01b6064820152608490fdfe2f8788117e7eff1d82e926ec794901d17c78024a50270940304540a733656f0d564352656769737472793a204f6e6c7920697373756572206f722061646d696e360894a13ba1a3210667c828492db98dca3e2076cc3735a920a3ca505d382bbc114e74f6ea3bd819998f78687bfcb11b140da08e9b7d222fa9c1f1ba1f2aa122a26469706673582212202806c95db3324b8569d63179cc99c61d06428e262c36b84e46fb2172fceb616e64736f6c63430008130033","opcodes":"PUSH1 0xA0 DUP1 PUSH1 0x40 MSTORE CALLVALUE PUSH3 0xE1 JUMPI ADDRESS PUSH1 0x80 MSTORE PUSH1 0x0 SLOAD SWAP1 PUSH1 0xFF DUP3 PUSH1 0x8 SHR AND PUSH3 0x8F JUMPI POP PUSH1 0xFF DUP1 DUP3 AND SUB PUSH3 0x53 JUMPI JUMPDEST PUSH1 0x40 MLOAD PUSH2 0x5BA7 SWAP1 DUP2 PUSH3 0xE7 DUP3 CODECOPY PUSH1 0x80 MLOAD DUP2 DUP2 DUP2 PUSH2 0x2E08 ADD MSTORE DUP2 DUP2 PUSH2 0x2EF7 ADD MSTORE PUSH2 0x3A32 ADD MSTORE RETURN JUMPDEST PUSH1 0xFF SWAP1 DUP2 NOT AND OR PUSH1 0x0 SSTORE PUSH32 0x7F26B83FF96E1F2B6A682F133852F6798A09C465DA95921460CEFB3847402498 PUSH1 0x20 PUSH1 0x40 MLOAD PUSH1 0xFF DUP2 MSTORE LOG1 CODESIZE PUSH3 0x2C JUMP JUMPDEST PUSH3 0x461BCD PUSH1 0xE5 SHL DUP2 MSTORE PUSH1 0x20 PUSH1 0x4 DUP3 ADD MSTORE PUSH1 0x27 PUSH1 0x24 DUP3 ADD MSTORE PUSH32 0x496E697469616C697A61626C653A20636F6E747261637420697320696E697469 PUSH1 0x44 DUP3 ADD MSTORE PUSH7 0x616C697A696E67 PUSH1 0xC8 SHL PUSH1 0x64 DUP3 ADD MSTORE PUSH1 0x84 SWAP1 REVERT JUMPDEST PUSH1 0x0 DUP1 REVERT INVALID PUSH1 0x80 PUSH1 0x40 MSTORE PUSH1 0x4 CALLDATASIZE LT ISZERO PUSH2 0x12 JUMPI PUSH1 0x0 DUP1 REVERT JUMPDEST PUSH1 0x0 CALLDATALOAD PUSH1 0xE0 SHR DUP1 PUSH3 0x629679 EQ PUSH2 0x42CC JUMPI DUP1 PUSH4 0x1FFC9A7 EQ PUSH2 0x422A JUMPI DUP1 PUSH4 0x6FDDE03 EQ PUSH2 0x4181 JUMPI DUP1 PUSH4 0x81812FC EQ PUSH2 0x4163 JUMPI DUP1 PUSH4 0x95EA7B3 EQ PUSH2 0x40EC JUMPI DUP1 PUSH4 0x1C7B75DD EQ PUSH2 0x40B1 JUMPI DUP1 PUSH4 0x23B872DD EQ PUSH2 0x408D JUMPI DUP1 PUSH4 0x2451E057 EQ PUSH2 0x3ED3 JUMPI DUP1 PUSH4 0x248A9CA3 EQ PUSH2 0x3EA4 JUMPI DUP1 PUSH4 0x24C483A5 EQ PUSH2 0x3E06 JUMPI DUP1 PUSH4 0x25CC2E99 EQ PUSH2 0x3DCB JUMPI DUP1 PUSH4 0x26B9CE13 EQ PUSH2 0x3D90 JUMPI DUP1 PUSH4 0x2F2FF15D EQ PUSH2 0x3CEF JUMPI DUP1 PUSH4 0x31BA1966 EQ PUSH2 0x3C8D JUMPI DUP1 PUSH4 0x34D699C8 EQ PUSH2 0x3C5C JUMPI DUP1 PUSH4 0x36568ABE EQ PUSH2 0x3BCA JUMPI DUP1 PUSH4 0x3659CFE6 EQ PUSH2 0x3A0D JUMPI DUP1 PUSH4 0x394F9D68 EQ PUSH2 0x39AB JUMPI DUP1 PUSH4 0x3B253B23 EQ PUSH2 0x3833 JUMPI DUP1 PUSH4 0x3C2D5760 EQ PUSH2 0x3230 JUMPI DUP1 PUSH4 0x3F4BA83A EQ PUSH2 0x319C JUMPI DUP1 PUSH4 0x42842E0E EQ PUSH2 0x3169 JUMPI DUP1 PUSH4 0x4F156599 EQ PUSH2 0x313C JUMPI DUP1 PUSH4 0x4F1EF286 EQ PUSH2 0x2EB9 JUMPI DUP1 PUSH4 0x52D1902D EQ PUSH2 0x2DF5 JUMPI DUP1 PUSH4 0x557F699B EQ PUSH2 0x2D16 JUMPI DUP1 PUSH4 0x5977AC37 EQ PUSH2 0x2CF4 JUMPI DUP1 PUSH4 0x5C975ABB EQ PUSH2 0x2CD1 JUMPI DUP1 PUSH4 0x6352211E EQ PUSH2 0x2CA1 JUMPI DUP1 PUSH4 0x69FB9B59 EQ PUSH2 0x2BD4 JUMPI DUP1 PUSH4 0x6DA48B9A EQ PUSH2 0x2B7C JUMPI DUP1 PUSH4 0x6DB842AB EQ PUSH2 0x2B21 JUMPI DUP1 PUSH4 0x70A08231 EQ PUSH2 0x2A89 JUMPI DUP1 PUSH4 0x7323555F EQ PUSH2 0x29A6 JUMPI DUP1 PUSH4 0x784AFC4E EQ PUSH2 0x2830 JUMPI DUP1 PUSH4 0x826E63DD EQ PUSH2 0x280E JUMPI DUP1 PUSH4 0x82AEFA24 EQ PUSH2 0x27E5 JUMPI DUP1 PUSH4 0x8456CB59 EQ PUSH2 0x278B JUMPI DUP1 PUSH4 0x8DD18D2D EQ PUSH2 0x25C7 JUMPI DUP1 PUSH4 0x90657147 EQ PUSH2 0x1FDA JUMPI DUP1 PUSH4 0x91D14854 EQ PUSH2 0x1F8D JUMPI DUP1 PUSH4 0x92C64784 EQ PUSH2 0x12A7 JUMPI DUP1 PUSH4 0x957A3205 EQ PUSH2 0x10D8 JUMPI DUP1 PUSH4 0x95D89B41 EQ PUSH2 0xFF0 JUMPI DUP1 PUSH4 0xA038D9FC EQ PUSH2 0xC5E JUMPI DUP1 PUSH4 0xA217FDDF EQ PUSH2 0xC42 JUMPI DUP1 PUSH4 0xA22CB465 EQ PUSH2 0xBC0 JUMPI DUP1 PUSH4 0xB0BDB390 EQ PUSH2 0xB46 JUMPI DUP1 PUSH4 0xB7BC5822 EQ PUSH2 0xAEA JUMPI DUP1 PUSH4 0xB88D4FDE EQ PUSH2 0xA76 JUMPI DUP1 PUSH4 0xBD53412C EQ PUSH2 0xA57 JUMPI DUP1 PUSH4 0xBEF97C87 EQ PUSH2 0xA33 JUMPI DUP1 PUSH4 0xC87B56DD EQ PUSH2 0x9BF JUMPI DUP1 PUSH4 0xCC1C4CB3 EQ PUSH2 0x7C4 JUMPI DUP1 PUSH4 0xD0B643A3 EQ PUSH2 0x624 JUMPI DUP1 PUSH4 0xD547741F EQ PUSH2 0x5E3 JUMPI DUP1 PUSH4 0xDDB6DBD6 EQ PUSH2 0x587 JUMPI DUP1 PUSH4 0xDFE6B5D6 EQ PUSH2 0x4D3 JUMPI DUP1 PUSH4 0xE0574E3F EQ PUSH2 0x3C6 JUMPI DUP1 PUSH4 0xE985E9C5 EQ PUSH2 0x36F JUMPI DUP1 PUSH4 0xEF784111 EQ PUSH2 0x350 JUMPI DUP1 PUSH4 0xF72C0D8B EQ PUSH2 0x315 JUMPI PUSH4 0xF731FA0F EQ PUSH2 0x2D0 JUMPI PUSH1 0x0 DUP1 REVERT JUMPDEST CALLVALUE PUSH2 0x310 JUMPI PUSH1 0x20 CALLDATASIZE PUSH1 0x3 NOT ADD SLT PUSH2 0x310 JUMPI PUSH1 0x1 PUSH1 0x1 PUSH1 0xA0 SHL SUB PUSH2 0x2F1 PUSH2 0x43BA JUMP JUMPDEST AND PUSH1 0x0 MSTORE PUSH2 0x1C8 PUSH1 0x20 MSTORE PUSH1 0x20 PUSH1 0xFF PUSH1 0x40 PUSH1 0x0 KECCAK256 SLOAD AND PUSH1 0x40 MLOAD SWAP1 ISZERO ISZERO DUP2 MSTORE RETURN JUMPDEST PUSH1 0x0 DUP1 REVERT JUMPDEST CALLVALUE PUSH2 0x310 JUMPI PUSH1 0x0 CALLDATASIZE PUSH1 0x3 NOT ADD SLT PUSH2 0x310 JUMPI PUSH1 0x20 PUSH1 0x40 MLOAD PUSH32 0x189AB7A9244DF0848122154315AF71FE140F3DB0FE014031783B0946B8C9D2E3 DUP2 MSTORE RETURN JUMPDEST CALLVALUE PUSH2 0x310 JUMPI PUSH1 0x0 CALLDATASIZE PUSH1 0x3 NOT ADD SLT PUSH2 0x310 JUMPI PUSH1 0x20 PUSH2 0x1CD SLOAD PUSH1 0x40 MLOAD SWAP1 DUP2 MSTORE RETURN JUMPDEST CALLVALUE PUSH2 0x310 JUMPI PUSH1 0x40 CALLDATASIZE PUSH1 0x3 NOT ADD SLT PUSH2 0x310 JUMPI PUSH2 0x388 PUSH2 0x43BA JUMP JUMPDEST PUSH2 0x390 PUSH2 0x43D0 JUMP JUMPDEST SWAP1 PUSH1 0x1 DUP1 PUSH1 0xA0 SHL SUB DUP1 SWAP2 AND PUSH1 0x0 MSTORE PUSH2 0x132 PUSH1 0x20 MSTORE PUSH1 0x40 PUSH1 0x0 KECCAK256 SWAP2 AND PUSH1 0x0 MSTORE PUSH1 0x20 MSTORE PUSH1 0x20 PUSH1 0xFF PUSH1 0x40 PUSH1 0x0 KECCAK256 SLOAD AND PUSH1 0x40 MLOAD SWAP1 ISZERO ISZERO DUP2 MSTORE RETURN JUMPDEST CALLVALUE PUSH2 0x310 JUMPI PUSH1 0x20 CALLDATASIZE PUSH1 0x3 NOT ADD SLT PUSH2 0x310 JUMPI PUSH1 0x4 CALLDATALOAD PUSH1 0x0 MSTORE PUSH2 0x1C4 PUSH1 0x20 MSTORE PUSH1 0x40 PUSH1 0x0 KECCAK256 DUP1 SLOAD PUSH2 0x4CF PUSH1 0x1 DUP1 PUSH1 0xA0 SHL SUB SWAP3 PUSH2 0x4C0 DUP5 PUSH1 0x1 DUP4 ADD SLOAD AND SWAP5 PUSH1 0x2 DUP4 ADD SLOAD AND SWAP2 PUSH2 0x413 PUSH1 0x3 DUP3 ADD PUSH2 0x459A JUMP JUMPDEST SWAP1 PUSH1 0x4 DUP2 ADD SLOAD SWAP2 PUSH2 0x45F PUSH1 0x5 DUP4 ADD SLOAD SWAP2 PUSH2 0x43B PUSH1 0x7 PUSH2 0x434 PUSH1 0x6 DUP8 ADD PUSH2 0x459A JUMP JUMPDEST SWAP6 ADD PUSH2 0x459A JUMP JUMPDEST SWAP7 PUSH1 0x40 MLOAD SWAP11 DUP12 SWAP11 DUP12 MSTORE PUSH1 0x20 DUP12 ADD MSTORE PUSH1 0x40 DUP11 ADD MSTORE PUSH2 0x180 DUP1 PUSH1 0x60 DUP12 ADD MSTORE DUP10 ADD SWAP1 PUSH2 0x4409 JUMP JUMPDEST SWAP3 PUSH1 0x80 DUP9 ADD MSTORE PUSH2 0x475 PUSH1 0xA0 DUP9 ADD PUSH1 0xFF DUP4 AND PUSH2 0x474C JUMP JUMPDEST PUSH2 0x488 PUSH1 0xC0 DUP9 ADD PUSH1 0xFF DUP4 PUSH1 0x8 SHR AND PUSH2 0x46B7 JUMP JUMPDEST PUSH1 0x1 PUSH1 0x1 PUSH1 0x40 SHL SUB SWAP1 DUP2 DUP2 PUSH1 0x10 SHR AND PUSH1 0xE0 DUP10 ADD MSTORE DUP2 DUP2 PUSH1 0x50 SHR AND PUSH2 0x100 DUP10 ADD MSTORE PUSH1 0x90 SHR AND PUSH2 0x120 DUP8 ADD MSTORE DUP6 DUP3 SUB PUSH2 0x140 DUP8 ADD MSTORE PUSH2 0x4409 JUMP JUMPDEST SWAP1 DUP4 DUP3 SUB PUSH2 0x160 DUP6 ADD MSTORE PUSH2 0x4409 JUMP JUMPDEST SUB SWAP1 RETURN JUMPDEST CALLVALUE PUSH2 0x310 JUMPI PUSH1 0x0 CALLDATASIZE PUSH1 0x3 NOT ADD SLT PUSH2 0x310 JUMPI PUSH1 0x40 MLOAD PUSH2 0x4F0 DUP2 PUSH2 0x4463 JUMP JUMPDEST PUSH1 0xE0 CALLDATASIZE DUP3 CALLDATACOPY PUSH2 0x1C3 SLOAD PUSH1 0x0 NOT DUP2 ADD SWAP2 SWAP1 DUP3 GT PUSH2 0x571 JUMPI PUSH1 0x0 JUMPDEST PUSH1 0x7 DUP2 LT PUSH2 0x552 JUMPI POP PUSH1 0x40 MLOAD SWAP2 DUP3 MSTORE PUSH1 0x20 PUSH1 0x0 DUP2 DUP5 ADD MSTORE PUSH1 0x0 PUSH1 0x40 DUP5 ADD MSTORE PUSH1 0x60 DUP4 ADD PUSH1 0x0 SWAP1 JUMPDEST PUSH1 0x7 DUP3 LT PUSH2 0x53D JUMPI PUSH2 0x140 DUP6 RETURN JUMPDEST DUP3 DUP1 PUSH1 0x1 SWAP3 DUP7 MLOAD DUP2 MSTORE ADD SWAP5 ADD SWAP2 ADD SWAP1 SWAP3 PUSH2 0x52F JUMP JUMPDEST DUP1 PUSH2 0x55F PUSH2 0x56C SWAP3 PUSH2 0x4640 JUMP JUMPDEST SLOAD DUP2 PUSH1 0x5 SHL DUP5 ADD MSTORE PUSH2 0x58DD JUMP JUMPDEST PUSH2 0x509 JUMP JUMPDEST PUSH4 0x4E487B71 PUSH1 0xE0 SHL PUSH1 0x0 MSTORE PUSH1 0x11 PUSH1 0x4 MSTORE PUSH1 0x24 PUSH1 0x0 REVERT JUMPDEST CALLVALUE PUSH2 0x310 JUMPI PUSH1 0x20 CALLDATASIZE PUSH1 0x3 NOT ADD SLT PUSH2 0x310 JUMPI PUSH1 0x4 CALLDATALOAD PUSH1 0x0 MSTORE PUSH2 0x1C5 PUSH1 0x20 MSTORE PUSH1 0x40 DUP1 PUSH1 0x0 KECCAK256 SLOAD DUP1 ISZERO ISZERO DUP1 PUSH2 0x5C2 JUMPI JUMPDEST DUP3 MLOAD SWAP2 DUP3 MSTORE ISZERO ISZERO PUSH1 0x20 DUP3 ADD MSTORE RETURN JUMPDEST POP PUSH1 0x0 DUP2 DUP2 MSTORE PUSH2 0x12F PUSH1 0x20 MSTORE PUSH1 0x40 SWAP1 KECCAK256 SLOAD PUSH1 0x1 PUSH1 0x1 PUSH1 0xA0 SHL SUB AND ISZERO ISZERO PUSH2 0x5B4 JUMP JUMPDEST CALLVALUE PUSH2 0x310 JUMPI PUSH1 0x40 CALLDATASIZE PUSH1 0x3 NOT ADD SLT PUSH2 0x310 JUMPI PUSH2 0x622 PUSH1 0x4 CALLDATALOAD PUSH2 0x602 PUSH2 0x43D0 JUMP JUMPDEST SWAP1 DUP1 PUSH1 0x0 MSTORE PUSH1 0x65 PUSH1 0x20 MSTORE PUSH2 0x61D PUSH1 0x1 PUSH1 0x40 PUSH1 0x0 KECCAK256 ADD SLOAD PUSH2 0x4BC8 JUMP JUMPDEST PUSH2 0x4CD3 JUMP JUMPDEST STOP JUMPDEST CALLVALUE PUSH2 0x310 JUMPI PUSH2 0x632 CALLDATASIZE PUSH2 0x46C4 JUMP JUMPDEST PUSH2 0x63D SWAP3 SWAP2 SWAP3 PUSH2 0x583A JUMP JUMPDEST PUSH1 0x0 DUP3 DUP2 MSTORE PUSH2 0x12F PUSH1 0x20 MSTORE PUSH1 0x40 SWAP1 KECCAK256 SLOAD PUSH2 0x661 SWAP1 PUSH1 0x1 PUSH1 0x1 PUSH1 0xA0 SHL SUB AND ISZERO ISZERO PUSH2 0x5959 JUMP JUMPDEST PUSH1 0x0 DUP3 DUP2 MSTORE PUSH2 0x1C4 PUSH1 0x20 SWAP1 DUP2 MSTORE PUSH1 0x40 SWAP1 SWAP2 KECCAK256 PUSH1 0x1 DUP2 ADD SLOAD PUSH1 0x1 PUSH1 0x1 PUSH1 0xA0 SHL SUB AND SWAP5 SWAP1 CALLER DUP7 EQ DUP1 ISZERO PUSH2 0x7A2 JUMPI JUMPDEST ISZERO PUSH2 0x75A JUMPI PUSH1 0x5 ADD DUP1 SLOAD PUSH1 0xFF DUP2 PUSH1 0x8 SHR AND PUSH1 0x4 DUP2 LT ISZERO PUSH2 0x744 JUMPI PUSH2 0x6F5 JUMPI PUSH2 0xFF00 NOT AND PUSH2 0x100 OR SWAP1 SSTORE PUSH1 0x40 MLOAD DUP3 DUP2 MSTORE PUSH32 0xA6BD64971AEC0058A94590BDC8EFBCEC399C3AED928293C360EDD6EFF042F6E0 SWAP4 SWAP1 SWAP3 DUP4 SWAP3 PUSH2 0x6F0 SWAP3 SWAP2 DUP5 ADD SWAP2 SWAP1 PUSH2 0x58EC JUMP JUMPDEST SUB SWAP1 LOG3 STOP JUMPDEST PUSH1 0x40 MLOAD PUSH3 0x461BCD PUSH1 0xE5 SHL DUP2 MSTORE PUSH1 0x4 DUP2 ADD DUP6 SWAP1 MSTORE PUSH1 0x21 PUSH1 0x24 DUP3 ADD MSTORE PUSH32 0x564352656769737472793A2043726564656E7469616C206E6F74206163746976 PUSH1 0x44 DUP3 ADD MSTORE PUSH1 0x65 PUSH1 0xF8 SHL PUSH1 0x64 DUP3 ADD MSTORE PUSH1 0x84 SWAP1 REVERT JUMPDEST PUSH4 0x4E487B71 PUSH1 0xE0 SHL PUSH1 0x0 MSTORE PUSH1 0x21 PUSH1 0x4 MSTORE PUSH1 0x24 PUSH1 0x0 REVERT JUMPDEST PUSH1 0x40 MLOAD PUSH3 0x461BCD PUSH1 0xE5 SHL DUP2 MSTORE PUSH1 0x4 DUP2 ADD DUP5 SWAP1 MSTORE PUSH1 0x2C PUSH1 0x24 DUP3 ADD MSTORE PUSH1 0x0 DUP1 MLOAD PUSH1 0x20 PUSH2 0x5B12 DUP4 CODECOPY DUP2 MLOAD SWAP2 MSTORE PUSH1 0x44 DUP3 ADD MSTORE PUSH12 0x818D85B881CDD5CDC195B99 PUSH1 0xA2 SHL PUSH1 0x64 DUP3 ADD MSTORE PUSH1 0x84 SWAP1 REVERT JUMPDEST POP PUSH1 0x0 DUP1 MSTORE PUSH1 0x65 DUP4 MSTORE PUSH1 0x40 PUSH1 0x0 KECCAK256 CALLER PUSH1 0x0 MSTORE DUP4 MSTORE PUSH1 0xFF PUSH1 0x40 PUSH1 0x0 KECCAK256 SLOAD AND PUSH2 0x68D JUMP JUMPDEST CALLVALUE PUSH2 0x310 JUMPI PUSH1 0x60 CALLDATASIZE PUSH1 0x3 NOT ADD SLT PUSH2 0x310 JUMPI PUSH1 0x1 PUSH1 0x1 PUSH1 0x40 SHL SUB PUSH1 0x4 CALLDATALOAD PUSH1 0x24 CALLDATALOAD DUP3 DUP2 GT PUSH2 0x310 JUMPI PUSH2 0x7F8 SWAP1 CALLDATASIZE SWAP1 PUSH1 0x4 ADD PUSH2 0x465A JUMP JUMPDEST SWAP2 SWAP1 PUSH1 0x44 CALLDATALOAD DUP5 DUP2 GT PUSH2 0x310 JUMPI PUSH2 0x812 SWAP1 CALLDATASIZE SWAP1 PUSH1 0x4 ADD PUSH2 0x465A JUMP JUMPDEST SWAP3 PUSH2 0x81B PUSH2 0x583A JUMP JUMPDEST PUSH1 0x0 DUP2 DUP2 MSTORE PUSH2 0x12F PUSH1 0x20 MSTORE PUSH1 0x40 SWAP1 KECCAK256 SLOAD PUSH2 0x83F SWAP1 PUSH1 0x1 PUSH1 0x1 PUSH1 0xA0 SHL SUB AND ISZERO ISZERO PUSH2 0x5959 JUMP JUMPDEST PUSH1 0x0 MSTORE PUSH1 0x20 SWAP2 PUSH2 0x1C4 DUP4 MSTORE PUSH1 0x40 PUSH1 0x0 KECCAK256 SWAP5 PUSH1 0x1 SWAP6 PUSH1 0x1 DUP1 PUSH1 0xA0 SHL SUB DUP8 DUP3 ADD SLOAD AND CALLER EQ DUP1 ISZERO PUSH2 0x99D JUMPI JUMPDEST ISZERO PUSH2 0x94E JUMPI SWAP1 PUSH1 0x9 PUSH2 0x87C SWAP4 SWAP3 ADD SWAP2 PUSH2 0x570B JUMP JUMPDEST SWAP5 DUP4 GT PUSH2 0x938 JUMPI PUSH2 0x897 DUP4 PUSH2 0x891 DUP8 SLOAD PUSH2 0x4560 JUMP JUMPDEST DUP8 PUSH2 0x56D1 JUMP JUMPDEST PUSH1 0x0 SWAP2 PUSH1 0x1F DUP5 GT PUSH1 0x1 EQ PUSH2 0x8D5 JUMPI POP SWAP3 DUP3 SWAP4 SWAP2 DUP4 SWAP3 PUSH1 0x0 SWAP5 PUSH2 0x8CA JUMPI JUMPDEST POP POP SHL SWAP2 PUSH1 0x0 NOT SWAP1 PUSH1 0x3 SHL SHR NOT AND OR SWAP1 SSTORE PUSH1 0x0 DUP1 RETURN JUMPDEST ADD CALLDATALOAD SWAP3 POP DUP6 DUP1 PUSH2 0x8B4 JUMP JUMPDEST SWAP2 DUP4 PUSH1 0x1F NOT DUP2 AND DUP8 PUSH1 0x0 MSTORE DUP5 PUSH1 0x0 KECCAK256 SWAP5 PUSH1 0x0 SWAP1 JUMPDEST DUP9 DUP4 DUP4 LT PUSH2 0x91E JUMPI POP POP POP LT PUSH2 0x904 JUMPI JUMPDEST POP POP POP DUP2 SHL ADD SWAP1 SSTORE STOP JUMPDEST ADD CALLDATALOAD PUSH1 0x0 NOT PUSH1 0x3 DUP5 SWAP1 SHL PUSH1 0xF8 AND SHR NOT AND SWAP1 SSTORE DUP4 DUP1 DUP1 PUSH2 0x8FA JUMP JUMPDEST DUP7 DUP7 ADD CALLDATALOAD DUP9 SSTORE SWAP1 SWAP7 ADD SWAP6 SWAP4 DUP5 ADD SWAP4 DUP8 SWAP4 POP SWAP1 DUP2 ADD SWAP1 PUSH2 0x8E9 JUMP JUMPDEST PUSH4 0x4E487B71 PUSH1 0xE0 SHL PUSH1 0x0 MSTORE PUSH1 0x41 PUSH1 0x4 MSTORE PUSH1 0x24 PUSH1 0x0 REVERT JUMPDEST PUSH1 0x40 MLOAD PUSH3 0x461BCD PUSH1 0xE5 SHL DUP2 MSTORE PUSH1 0x4 DUP2 ADD DUP7 SWAP1 MSTORE PUSH1 0x33 PUSH1 0x24 DUP3 ADD MSTORE PUSH1 0x0 DUP1 MLOAD PUSH1 0x20 PUSH2 0x5B12 DUP4 CODECOPY DUP2 MLOAD SWAP2 MSTORE PUSH1 0x44 DUP3 ADD MSTORE PUSH19 0x2063616E207365742061747472696275746573 PUSH1 0x68 SHL PUSH1 0x64 DUP3 ADD MSTORE PUSH1 0x84 SWAP1 REVERT JUMPDEST POP PUSH1 0x0 DUP1 MSTORE PUSH1 0x65 DUP6 MSTORE PUSH1 0x40 PUSH1 0x0 KECCAK256 CALLER PUSH1 0x0 MSTORE DUP6 MSTORE PUSH1 0xFF PUSH1 0x40 PUSH1 0x0 KECCAK256 SLOAD AND PUSH2 0x868 JUMP JUMPDEST CALLVALUE PUSH2 0x310 JUMPI PUSH1 0x20 CALLDATASIZE PUSH1 0x3 NOT ADD SLT PUSH2 0x310 JUMPI PUSH1 0x4 CALLDATALOAD PUSH1 0x0 DUP2 DUP2 MSTORE PUSH2 0x12F PUSH1 0x20 MSTORE PUSH1 0x40 SWAP1 KECCAK256 SLOAD PUSH2 0x9F7 SWAP1 PUSH1 0x1 PUSH1 0x1 PUSH1 0xA0 SHL SUB AND ISZERO ISZERO PUSH2 0x4E9B JUMP JUMPDEST PUSH1 0x0 MSTORE PUSH2 0x15F PUSH1 0x20 MSTORE PUSH2 0x4CF PUSH2 0xA10 PUSH1 0x40 PUSH1 0x0 KECCAK256 PUSH2 0x459A JUMP JUMPDEST PUSH1 0x0 PUSH1 0x40 MLOAD PUSH2 0xA1E DUP2 PUSH2 0x447E JUMP JUMPDEST MSTORE PUSH1 0x40 MLOAD SWAP2 DUP3 SWAP2 PUSH1 0x20 DUP4 MSTORE PUSH1 0x20 DUP4 ADD SWAP1 PUSH2 0x4409 JUMP JUMPDEST CALLVALUE PUSH2 0x310 JUMPI PUSH1 0x0 CALLDATASIZE PUSH1 0x3 NOT ADD SLT PUSH2 0x310 JUMPI PUSH1 0x20 PUSH1 0xFF PUSH2 0x1CE SLOAD AND PUSH1 0x40 MLOAD SWAP1 ISZERO ISZERO DUP2 MSTORE RETURN JUMPDEST CALLVALUE PUSH2 0x310 JUMPI PUSH1 0x0 CALLDATASIZE PUSH1 0x3 NOT ADD SLT PUSH2 0x310 JUMPI PUSH1 0x20 PUSH2 0x1CC SLOAD PUSH1 0x40 MLOAD SWAP1 DUP2 MSTORE RETURN JUMPDEST CALLVALUE PUSH2 0x310 JUMPI PUSH1 0x80 CALLDATASIZE PUSH1 0x3 NOT ADD SLT PUSH2 0x310 JUMPI PUSH2 0xA8F PUSH2 0x43BA JUMP JUMPDEST PUSH2 0xA97 PUSH2 0x43D0 JUMP JUMPDEST SWAP1 PUSH1 0x64 CALLDATALOAD SWAP1 PUSH1 0x44 CALLDATALOAD PUSH1 0x1 PUSH1 0x1 PUSH1 0x40 SHL SUB DUP4 GT PUSH2 0x310 JUMPI PUSH2 0x622 SWAP4 PUSH2 0xAC2 PUSH2 0xAE5 SWAP5 CALLDATASIZE SWAP1 PUSH1 0x4 ADD PUSH2 0x4542 JUMP JUMPDEST SWAP3 PUSH2 0xAD5 PUSH2 0xAD0 DUP5 CALLER PUSH2 0x5020 JUMP JUMPDEST PUSH2 0x4F4B JUMP JUMPDEST PUSH2 0xAE0 DUP4 DUP4 DUP4 PUSH2 0x50E9 JUMP JUMPDEST PUSH2 0x546E JUMP JUMPDEST PUSH2 0x5000 JUMP JUMPDEST CALLVALUE PUSH2 0x310 JUMPI PUSH1 0x20 CALLDATASIZE PUSH1 0x3 NOT ADD SLT PUSH2 0x310 JUMPI PUSH1 0x4 CALLDATALOAD PUSH1 0x1 PUSH1 0x1 PUSH1 0x40 SHL SUB DUP2 GT PUSH2 0x310 JUMPI PUSH2 0xB1C PUSH1 0x20 SWAP2 CALLDATASIZE SWAP1 PUSH1 0x4 ADD PUSH2 0x465A JUMP JUMPDEST SWAP2 SWAP1 PUSH2 0xB26 PUSH2 0x4771 JUMP JUMPDEST DUP3 PUSH1 0x40 MLOAD SWAP4 DUP5 SWAP3 DUP4 CALLDATACOPY PUSH2 0x1CB SWAP1 DUP3 ADD SWAP1 DUP2 MSTORE SUB ADD SWAP1 KECCAK256 DUP1 SLOAD PUSH1 0xFF NOT AND SWAP1 SSTORE STOP JUMPDEST CALLVALUE PUSH2 0x310 JUMPI PUSH1 0x40 CALLDATASIZE PUSH1 0x3 NOT ADD SLT PUSH2 0x310 JUMPI PUSH1 0x4 CALLDATALOAD PUSH1 0x1 PUSH1 0x1 PUSH1 0x40 SHL SUB DUP2 GT PUSH2 0x310 JUMPI PUSH2 0xB76 SWAP1 CALLDATASIZE SWAP1 PUSH1 0x4 ADD PUSH2 0x4542 JUMP JUMPDEST PUSH2 0xB92 PUSH1 0x20 PUSH1 0x24 CALLDATALOAD SWAP3 DUP2 PUSH1 0x40 MLOAD SWAP4 DUP3 DUP6 DUP1 SWAP5 MLOAD SWAP4 DUP5 SWAP3 ADD PUSH2 0x43E6 JUMP JUMPDEST DUP2 ADD PUSH2 0x1C6 DUP2 MSTORE SUB ADD SWAP1 KECCAK256 DUP1 SLOAD DUP3 LT ISZERO PUSH2 0x310 JUMPI PUSH1 0x20 SWAP2 PUSH2 0xBB2 SWAP2 PUSH2 0x4759 JUMP JUMPDEST SWAP1 SLOAD PUSH1 0x40 MLOAD SWAP2 PUSH1 0x3 SHL SHR DUP2 MSTORE RETURN JUMPDEST CALLVALUE PUSH2 0x310 JUMPI PUSH1 0x40 CALLDATASIZE PUSH1 0x3 NOT ADD SLT PUSH2 0x310 JUMPI PUSH2 0xBD9 PUSH2 0x43BA JUMP JUMPDEST POP PUSH1 0x24 CALLDATALOAD DUP1 ISZERO ISZERO SUB PUSH2 0x310 JUMPI PUSH1 0x40 MLOAD PUSH3 0x461BCD PUSH1 0xE5 SHL DUP2 MSTORE PUSH1 0x20 PUSH1 0x4 DUP3 ADD MSTORE PUSH1 0x2F PUSH1 0x24 DUP3 ADD MSTORE PUSH32 0x564352656769737472793A20536F756C626F756E6420746F6B656E732063616E PUSH1 0x44 DUP3 ADD MSTORE PUSH15 0x1B9BDD08189948185C1C1C9BDD9959 PUSH1 0x8A SHL PUSH1 0x64 DUP3 ADD MSTORE PUSH1 0x84 SWAP1 REVERT JUMPDEST CALLVALUE PUSH2 0x310 JUMPI PUSH1 0x0 CALLDATASIZE PUSH1 0x3 NOT ADD SLT PUSH2 0x310 JUMPI PUSH1 0x20 PUSH1 0x40 MLOAD PUSH1 0x0 DUP2 MSTORE RETURN JUMPDEST CALLVALUE PUSH2 0x310 JUMPI PUSH1 0x60 CALLDATASIZE PUSH1 0x3 NOT ADD SLT PUSH2 0x310 JUMPI PUSH1 0x1 PUSH1 0x1 PUSH1 0x40 SHL SUB PUSH1 0x4 CALLDATALOAD DUP2 DUP2 GT PUSH2 0x310 JUMPI PUSH2 0xC8F SWAP1 CALLDATASIZE SWAP1 PUSH1 0x4 ADD PUSH2 0x465A JUMP JUMPDEST PUSH1 0x24 SWAP3 SWAP2 SWAP3 CALLDATALOAD DUP3 DUP2 GT PUSH2 0x310 JUMPI PUSH2 0xCAA SWAP1 CALLDATASIZE SWAP1 PUSH1 0x4 ADD PUSH2 0x4687 JUMP JUMPDEST SWAP3 SWAP1 PUSH1 0x44 CALLDATALOAD DUP3 DUP2 GT PUSH2 0x310 JUMPI PUSH2 0xCC4 SWAP1 CALLDATASIZE SWAP1 PUSH1 0x4 ADD PUSH2 0x4687 JUMP JUMPDEST SWAP1 SWAP2 PUSH2 0xCCE PUSH2 0x583A JUMP JUMPDEST PUSH2 0xCD6 PUSH2 0x4A83 JUMP JUMPDEST PUSH1 0x40 MLOAD DUP6 DUP9 DUP3 CALLDATACOPY PUSH2 0xD01 PUSH1 0xFF PUSH1 0x4 DUP9 DUP5 ADD SWAP4 PUSH1 0x20 DUP2 PUSH2 0x1C7 SWAP7 DUP8 DUP2 MSTORE SUB ADD SWAP1 KECCAK256 ADD SLOAD PUSH1 0x80 SHR AND PUSH2 0x587E JUMP JUMPDEST PUSH1 0x20 PUSH1 0x40 MLOAD DUP1 SWAP3 DUP9 DUP12 DUP4 CALLDATACOPY DUP9 DUP3 ADD SWAP1 DUP2 MSTORE SUB ADD SWAP1 KECCAK256 SWAP6 PUSH1 0x2 DUP8 ADD PUSH2 0xD25 DUP3 DUP3 PUSH2 0x57AA JUMP JUMPDEST PUSH1 0x0 SWAP1 DUP2 MSTORE PUSH1 0x20 DUP2 KECCAK256 DUP4 JUMPDEST DUP4 DUP4 LT PUSH2 0xED3 JUMPI POP POP POP POP POP PUSH1 0x3 SWAP2 DUP3 DUP7 ADD SWAP1 PUSH2 0xD4D DUP4 DUP4 PUSH2 0x57AA JUMP JUMPDEST PUSH1 0x0 SWAP2 DUP3 MSTORE PUSH1 0x20 DUP3 KECCAK256 SWAP1 DUP1 JUMPDEST DUP5 DUP5 LT PUSH2 0xDE2 JUMPI DUP10 TIMESTAMP DUP9 AND PUSH32 0xBF2F58EF98F3B512411F78C775512DA5CEBA9561D21EC4AAC5220520E2A0D44E PUSH1 0x20 DUP12 DUP14 PUSH2 0xDB9 DUP6 PUSH1 0x4 DUP4 ADD SWAP1 PUSH8 0xFFFFFFFFFFFFFFFF PUSH1 0x40 SHL DUP3 SLOAD SWAP2 PUSH1 0x40 SHL AND SWAP1 PUSH8 0xFFFFFFFFFFFFFFFF PUSH1 0x40 SHL NOT AND OR SWAP1 SSTORE JUMP JUMPDEST PUSH1 0x1 DUP1 DUP1 PUSH1 0xA0 SHL SUB SWAP2 ADD SLOAD AND SWAP5 DUP2 PUSH1 0x40 MLOAD SWAP3 DUP4 SWAP3 DUP4 CALLDATACOPY DUP2 ADD PUSH1 0x0 DUP2 MSTORE SUB SWAP1 KECCAK256 SWAP3 PUSH1 0x40 MLOAD SWAP1 DUP2 MSTORE LOG3 STOP JUMPDEST DUP1 CALLDATALOAD PUSH1 0x1E NOT DUP4 CALLDATASIZE SUB ADD DUP2 SLT ISZERO PUSH2 0x310 JUMPI DUP3 ADD DUP1 CALLDATALOAD SWAP1 DUP9 DUP3 GT PUSH2 0x310 JUMPI DUP2 CALLDATASIZE SUB PUSH1 0x20 DUP3 ADD SGT PUSH2 0x310 JUMPI PUSH2 0xE18 DUP3 PUSH2 0x891 DUP8 SLOAD PUSH2 0x4560 JUMP JUMPDEST PUSH1 0x0 SWAP1 PUSH1 0x1F DUP4 GT PUSH1 0x1 EQ PUSH2 0xE64 JUMPI SWAP3 DUP3 PUSH1 0x1 SWAP5 SWAP4 PUSH1 0x20 SWAP4 DUP7 SWAP6 PUSH1 0x0 SWAP3 PUSH2 0xE57 JUMPI JUMPDEST POP POP PUSH1 0x0 NOT DUP3 DUP13 SHL SHR NOT AND SWAP1 DUP5 SHL OR DUP7 SSTORE JUMPDEST ADD SWAP4 ADD SWAP4 ADD SWAP3 SWAP2 PUSH2 0xD59 JUMP JUMPDEST DUP6 SWAP3 POP ADD ADD CALLDATALOAD DUP16 DUP1 PUSH2 0xE39 JUMP JUMPDEST PUSH1 0x1F NOT DUP4 AND SWAP2 DUP7 PUSH1 0x0 MSTORE PUSH1 0x20 PUSH1 0x0 KECCAK256 SWAP3 PUSH1 0x0 JUMPDEST DUP2 DUP2 LT PUSH2 0xEB9 JUMPI POP SWAP3 PUSH1 0x1 SWAP6 SWAP3 DUP6 SWAP3 DUP8 SWAP7 PUSH1 0x20 SWAP7 LT PUSH2 0xE9F JUMPI JUMPDEST POP POP POP DUP4 SHL DUP4 ADD DUP7 SSTORE PUSH2 0xE4B JUMP JUMPDEST ADD DUP5 ADD CALLDATALOAD PUSH1 0x0 NOT DUP4 DUP14 SHL PUSH1 0xF8 AND SHR NOT AND SWAP1 SSTORE DUP15 DUP1 DUP1 PUSH2 0xE91 JUMP JUMPDEST SWAP2 SWAP4 PUSH1 0x20 PUSH1 0x1 DUP2 SWAP3 DUP3 DUP9 DUP9 ADD ADD CALLDATALOAD DUP2 SSTORE ADD SWAP6 ADD SWAP3 ADD PUSH2 0xE77 JUMP JUMPDEST DUP1 CALLDATALOAD PUSH1 0x1E NOT DUP7 CALLDATASIZE SUB ADD DUP2 SLT ISZERO PUSH2 0x310 JUMPI DUP9 DUP2 DUP8 ADD CALLDATALOAD GT PUSH2 0x310 JUMPI DUP1 DUP7 ADD CALLDATALOAD CALLDATASIZE SUB PUSH1 0x20 DUP3 DUP9 ADD ADD SGT PUSH2 0x310 JUMPI PUSH2 0xF15 DUP2 DUP8 ADD CALLDATALOAD PUSH2 0xF0F DUP6 SLOAD PUSH2 0x4560 JUMP JUMPDEST DUP6 PUSH2 0x56D1 JUMP JUMPDEST PUSH1 0x0 PUSH1 0x1F DUP3 DUP9 ADD CALLDATALOAD GT PUSH1 0x1 EQ PUSH2 0xF6D JUMPI PUSH1 0x1 SWAP3 DUP4 SWAP3 PUSH1 0x20 SWAP3 PUSH1 0x0 SWAP1 DUP3 DUP12 ADD CALLDATALOAD PUSH2 0xF5E JUMPI JUMPDEST POP DUP2 DUP11 ADD CALLDATALOAD DUP6 SHL SWAP2 PUSH1 0x0 NOT SWAP1 DUP12 ADD CALLDATALOAD PUSH1 0x3 SHL SHR NOT AND OR DUP6 SSTORE JUMPDEST ADD SWAP3 ADD SWAP3 ADD SWAP2 SWAP1 PUSH2 0xD30 JUMP JUMPDEST DUP5 SWAP2 POP DUP3 DUP12 ADD ADD ADD CALLDATALOAD CODESIZE PUSH2 0xF39 JUMP JUMPDEST PUSH1 0x1F NOT DUP3 DUP9 ADD CALLDATALOAD AND SWAP1 DUP5 PUSH1 0x0 MSTORE PUSH1 0x20 PUSH1 0x0 KECCAK256 SWAP2 PUSH1 0x0 JUMPDEST DUP10 DUP3 DUP3 LT PUSH2 0xFD4 JUMPI PUSH1 0x20 SWAP5 SWAP2 POP SWAP3 DUP6 SWAP3 PUSH1 0x1 SWAP8 SWAP5 SWAP7 DUP9 SWAP8 ADD CALLDATALOAD GT PUSH2 0xFB2 JUMPI JUMPDEST POP POP DUP9 ADD CALLDATALOAD DUP4 SHL DUP4 ADD DUP6 SSTORE PUSH2 0xF52 JUMP JUMPDEST DUP5 DUP12 PUSH1 0xF8 DUP6 PUSH1 0x0 NOT SWAP3 ADD CALLDATALOAD PUSH1 0x3 SHL AND SHR NOT SWAP2 DUP5 DUP14 ADD ADD ADD CALLDATALOAD AND SWAP1 SSTORE DUP16 DUP1 PUSH2 0xFA2 JUMP JUMPDEST PUSH1 0x1 DUP5 SWAP6 PUSH1 0x20 DUP1 SWAP5 SWAP7 DUP10 DUP3 SWAP6 ADD ADD ADD CALLDATALOAD DUP2 SSTORE ADD SWAP5 ADD SWAP3 ADD PUSH2 0xF83 JUMP JUMPDEST CALLVALUE PUSH2 0x310 JUMPI PUSH1 0x0 CALLDATASIZE PUSH1 0x3 NOT ADD SLT PUSH2 0x310 JUMPI PUSH1 0x40 MLOAD PUSH1 0x0 PUSH2 0x12E DUP1 SLOAD PUSH2 0x1014 DUP2 PUSH2 0x4560 JUMP JUMPDEST DUP1 DUP6 MSTORE SWAP2 PUSH1 0x1 SWAP2 DUP1 DUP4 AND SWAP1 DUP2 ISZERO PUSH2 0x10AE JUMPI POP PUSH1 0x1 EQ PUSH2 0x1052 JUMPI JUMPDEST PUSH2 0x4CF DUP6 PUSH2 0x103E DUP2 DUP8 SUB DUP3 PUSH2 0x44CF JUMP JUMPDEST PUSH1 0x40 MLOAD SWAP2 DUP3 SWAP2 PUSH1 0x20 DUP4 MSTORE PUSH1 0x20 DUP4 ADD SWAP1 PUSH2 0x4409 JUMP JUMPDEST PUSH1 0x0 SWAP1 DUP2 MSTORE SWAP3 POP PUSH32 0xBDAADD9F750D0166045BF387A364EADD28BA243E04512A47282AA5147A68E37F JUMPDEST DUP3 DUP5 LT PUSH2 0x1096 JUMPI POP POP POP DUP2 ADD PUSH1 0x20 ADD PUSH2 0x103E DUP3 PUSH2 0x4CF PUSH2 0x102E JUMP JUMPDEST DUP1 SLOAD PUSH1 0x20 DUP6 DUP8 ADD DUP2 ADD SWAP2 SWAP1 SWAP2 MSTORE SWAP1 SWAP4 ADD SWAP3 DUP2 ADD PUSH2 0x107B JUMP JUMPDEST DUP7 SWAP6 POP PUSH2 0x4CF SWAP7 SWAP4 POP PUSH1 0x20 SWAP3 POP PUSH2 0x103E SWAP5 SWAP2 POP PUSH1 0xFF NOT AND DUP3 DUP5 ADD MSTORE ISZERO ISZERO PUSH1 0x5 SHL DUP3 ADD ADD SWAP3 SWAP4 PUSH2 0x102E JUMP JUMPDEST CALLVALUE PUSH2 0x310 JUMPI PUSH2 0x10E6 CALLDATASIZE PUSH2 0x46C4 JUMP JUMPDEST SWAP1 SWAP2 PUSH2 0x10F0 PUSH2 0x583A JUMP JUMPDEST PUSH1 0x0 DUP2 DUP2 MSTORE PUSH2 0x12F PUSH1 0x20 MSTORE PUSH1 0x40 SWAP1 KECCAK256 SLOAD PUSH2 0x1114 SWAP1 PUSH1 0x1 PUSH1 0x1 PUSH1 0xA0 SHL SUB AND ISZERO ISZERO PUSH2 0x5959 JUMP JUMPDEST PUSH1 0x0 DUP2 DUP2 MSTORE PUSH2 0x1C4 PUSH1 0x20 SWAP1 DUP2 MSTORE PUSH1 0x40 SWAP1 SWAP2 KECCAK256 PUSH1 0x1 DUP2 ADD SLOAD PUSH1 0x1 PUSH1 0x1 PUSH1 0xA0 SHL SUB AND SWAP5 SWAP1 CALLER DUP7 EQ DUP1 ISZERO PUSH2 0x1285 JUMPI JUMPDEST ISZERO PUSH2 0x123E JUMPI PUSH1 0x5 DUP2 ADD DUP1 SLOAD PUSH1 0xFF DUP2 PUSH1 0x8 SHR AND PUSH1 0x4 DUP2 LT ISZERO PUSH2 0x744 JUMPI PUSH1 0x2 EQ PUSH2 0x11EA JUMPI SWAP3 PUSH1 0x4 PUSH32 0x6229A1C7CA1138C3DC9D038CB759B5DCDD8A915B19F03A4918CF7C18CCB7D0C6 SWAP6 SWAP4 PUSH2 0x11E5 SWAP4 PUSH2 0x200 PUSH1 0x40 SWAP8 PUSH1 0x1 PUSH1 0x1 PUSH1 0x40 SHL SUB PUSH1 0x90 SHL TIMESTAMP PUSH1 0x90 SHL AND SWAP1 PUSH26 0xFFFFFFFFFFFFFFFF00000000000000000000000000000000FF00 NOT AND OR OR SWAP1 SSTORE ADD SLOAD SWAP7 DUP5 MLOAD SWAP5 DUP6 SWAP5 PUSH1 0x1 PUSH1 0x1 PUSH1 0x40 SHL SUB TIMESTAMP AND DUP7 MSTORE DUP6 ADD MSTORE PUSH1 0x40 DUP5 ADD SWAP2 PUSH2 0x58EC JUMP JUMPDEST SUB SWAP1 LOG4 STOP JUMPDEST PUSH1 0x40 MLOAD PUSH3 0x461BCD PUSH1 0xE5 SHL DUP2 MSTORE PUSH1 0x4 DUP2 ADD DUP7 SWAP1 MSTORE PUSH1 0x26 PUSH1 0x24 DUP3 ADD MSTORE PUSH32 0x564352656769737472793A2043726564656E7469616C20616C72656164792072 PUSH1 0x44 DUP3 ADD MSTORE PUSH6 0x195D9BDAD959 PUSH1 0xD2 SHL PUSH1 0x64 DUP3 ADD MSTORE PUSH1 0x84 SWAP1 REVERT JUMPDEST PUSH1 0x40 MLOAD PUSH3 0x461BCD PUSH1 0xE5 SHL DUP2 MSTORE PUSH1 0x4 DUP2 ADD DUP5 SWAP1 MSTORE PUSH1 0x2B PUSH1 0x24 DUP3 ADD MSTORE PUSH1 0x0 DUP1 MLOAD PUSH1 0x20 PUSH2 0x5B12 DUP4 CODECOPY DUP2 MLOAD SWAP2 MSTORE PUSH1 0x44 DUP3 ADD MSTORE PUSH11 0x2063616E207265766F6B65 PUSH1 0xA8 SHL PUSH1 0x64 DUP3 ADD MSTORE PUSH1 0x84 SWAP1 REVERT JUMPDEST POP PUSH1 0x0 DUP1 MSTORE PUSH1 0x65 DUP4 MSTORE PUSH1 0x40 PUSH1 0x0 KECCAK256 CALLER PUSH1 0x0 MSTORE DUP4 MSTORE PUSH1 0xFF PUSH1 0x40 PUSH1 0x0 KECCAK256 SLOAD AND PUSH2 0x1140 JUMP JUMPDEST CALLVALUE PUSH2 0x310 JUMPI PUSH2 0x100 CALLDATASIZE PUSH1 0x3 NOT ADD SLT PUSH2 0x310 JUMPI PUSH2 0x12C1 PUSH2 0x43BA JUMP JUMPDEST PUSH1 0x24 CALLDATALOAD PUSH1 0x1 PUSH1 0x1 PUSH1 0x40 SHL SUB DUP2 GT PUSH2 0x310 JUMPI PUSH2 0x12E0 SWAP1 CALLDATASIZE SWAP1 PUSH1 0x4 ADD PUSH2 0x465A JUMP JUMPDEST PUSH1 0x7 PUSH1 0x64 CALLDATALOAD LT ISZERO PUSH2 0x310 JUMPI PUSH1 0x84 CALLDATALOAD PUSH1 0x1 PUSH1 0x1 PUSH1 0x40 SHL SUB DUP2 GT PUSH2 0x310 JUMPI PUSH2 0x130A SWAP1 CALLDATASIZE SWAP1 PUSH1 0x4 ADD PUSH2 0x465A JUMP JUMPDEST SWAP3 SWAP1 SWAP2 PUSH1 0xA4 CALLDATALOAD PUSH1 0x1 PUSH1 0x1 PUSH1 0x40 SHL SUB DUP2 GT PUSH2 0x310 JUMPI PUSH2 0x132C SWAP1 CALLDATASIZE SWAP1 PUSH1 0x4 ADD PUSH2 0x465A JUMP JUMPDEST SWAP5 SWAP1 SWAP4 PUSH1 0xC4 CALLDATALOAD PUSH1 0x1 PUSH1 0x1 PUSH1 0x40 SHL SUB DUP2 GT PUSH2 0x310 JUMPI PUSH2 0x134E SWAP1 CALLDATASIZE SWAP1 PUSH1 0x4 ADD PUSH2 0x4687 JUMP JUMPDEST SWAP1 SWAP6 PUSH2 0x1358 PUSH2 0x583A JUMP JUMPDEST CALLER PUSH1 0x0 SWAP1 DUP2 MSTORE PUSH32 0xDC90190C5595698A8D1DF3DF5E997A1C14CDDCEE1E8A77F4EB097988BDBD877E PUSH1 0x20 MSTORE PUSH1 0x40 SWAP1 KECCAK256 SLOAD PUSH1 0x0 DUP1 MLOAD PUSH1 0x20 PUSH2 0x5B52 DUP4 CODECOPY DUP2 MLOAD SWAP2 MSTORE SWAP1 PUSH1 0xFF AND ISZERO PUSH2 0x1DF8 JUMPI POP PUSH1 0x2 PUSH2 0x191 SLOAD EQ PUSH2 0x1DB3 JUMPI PUSH1 0x2 PUSH2 0x191 SSTORE PUSH1 0x1 PUSH1 0x1 PUSH1 0xA0 SHL SUB DUP10 AND ISZERO PUSH2 0x1D63 JUMPI DUP5 ISZERO PUSH2 0x1D1E JUMPI PUSH1 0x44 CALLDATALOAD ISZERO PUSH2 0x1CD9 JUMPI DUP4 ISZERO PUSH2 0x1C83 JUMPI PUSH1 0x44 CALLDATALOAD PUSH1 0x0 MSTORE PUSH2 0x1C5 PUSH1 0x20 MSTORE PUSH1 0x40 PUSH1 0x0 KECCAK256 SLOAD PUSH2 0x1C3E JUMPI PUSH2 0x1412 PUSH1 0xFF PUSH1 0x4 PUSH1 0x40 MLOAD DUP9 DUP11 DUP3 CALLDATACOPY PUSH1 0x20 DUP2 DUP11 DUP2 ADD PUSH2 0x1C7 DUP2 MSTORE SUB ADD SWAP1 KECCAK256 ADD SLOAD PUSH1 0x80 SHR AND PUSH2 0x587E JUMP JUMPDEST PUSH1 0x40 MLOAD DUP6 DUP8 DUP3 CALLDATACOPY PUSH1 0x20 DUP2 DUP8 DUP2 ADD PUSH2 0x1C6 DUP2 MSTORE SUB ADD SWAP1 KECCAK256 SLOAD PUSH2 0x1CC SLOAD GT ISZERO PUSH2 0x1BE4 JUMPI DUP8 PUSH2 0x1B81 JUMPI JUMPDEST PUSH2 0x1C3 DUP1 SLOAD PUSH1 0x1 DUP2 ADD SWAP1 SWAP2 SSTORE SWAP7 PUSH1 0x0 PUSH1 0xE4 CALLDATALOAD ISZERO PUSH2 0x1B53 JUMPI POP PUSH1 0x1 PUSH1 0x1 PUSH1 0x40 SHL SUB PUSH2 0x1465 PUSH1 0xE4 CALLDATALOAD TIMESTAMP PUSH2 0x5582 JUMP JUMPDEST AND SWAP9 JUMPDEST PUSH1 0x0 DUP10 DUP2 MSTORE PUSH2 0x1C4 PUSH1 0x20 MSTORE PUSH1 0x40 SWAP1 KECCAK256 DUP10 DUP2 SSTORE PUSH1 0x1 DUP2 ADD DUP1 SLOAD PUSH1 0x1 PUSH1 0x1 PUSH1 0xA0 SHL SUB NOT SWAP1 DUP2 AND CALLER OR SWAP1 SWAP2 SSTORE PUSH1 0x2 DUP3 ADD DUP1 SLOAD SWAP1 SWAP2 AND PUSH1 0x1 PUSH1 0x1 PUSH1 0xA0 SHL SUB DUP15 AND OR SWAP1 SSTORE SWAP3 PUSH1 0x1 PUSH1 0x1 PUSH1 0x40 SHL SUB DUP9 GT PUSH2 0x938 JUMPI PUSH2 0x14D0 DUP9 PUSH2 0x14C7 PUSH1 0x3 DUP8 ADD SLOAD PUSH2 0x4560 JUMP JUMPDEST PUSH1 0x3 DUP8 ADD PUSH2 0x56D1 JUMP JUMPDEST DUP8 PUSH1 0x0 PUSH1 0x1F DUP3 GT PUSH1 0x1 EQ PUSH2 0x1AE3 JUMPI PUSH1 0x0 SWAP2 PUSH2 0x1AD8 JUMPI JUMPDEST POP DUP9 PUSH1 0x1 SHL SWAP1 PUSH1 0x0 NOT DUP11 PUSH1 0x3 SHL SHR NOT AND OR PUSH1 0x3 DUP6 ADD SSTORE JUMPDEST PUSH1 0x44 CALLDATALOAD PUSH1 0x4 DUP6 ADD SSTORE PUSH1 0x5 DUP5 ADD DUP1 SLOAD PUSH1 0xFF PUSH1 0x64 CALLDATALOAD AND SWAP1 PUSH6 0xFFFFFFFFFFFF PUSH1 0xD0 SHL AND OR PUSH10 0xFFFFFFFFFFFFFFFF0000 TIMESTAMP PUSH1 0x10 SHL AND OR PUSH1 0x1 PUSH1 0x1 PUSH1 0x40 SHL SUB PUSH1 0x50 SHL DUP14 PUSH1 0x50 SHL AND OR SWAP1 SSTORE PUSH1 0x1 PUSH1 0x1 PUSH1 0x40 SHL SUB DUP8 GT PUSH2 0x938 JUMPI PUSH2 0x156A DUP8 PUSH2 0x1561 PUSH1 0x6 DUP8 ADD SLOAD PUSH2 0x4560 JUMP JUMPDEST PUSH1 0x6 DUP8 ADD PUSH2 0x56D1 JUMP JUMPDEST DUP7 PUSH1 0x0 PUSH1 0x1F DUP3 GT PUSH1 0x1 EQ PUSH2 0x1A6A JUMPI PUSH1 0x0 SWAP2 PUSH2 0x1A5F JUMPI JUMPDEST POP DUP8 PUSH1 0x1 SHL SWAP1 PUSH1 0x0 NOT DUP10 PUSH1 0x3 SHL SHR NOT AND OR PUSH1 0x6 DUP6 ADD SSTORE JUMPDEST PUSH1 0x1 PUSH1 0x1 PUSH1 0x40 SHL SUB DUP3 GT PUSH2 0x938 JUMPI DUP2 SWAP1 PUSH2 0x15C1 DUP3 PUSH2 0x15B8 PUSH1 0x7 DUP9 ADD SLOAD PUSH2 0x4560 JUMP JUMPDEST PUSH1 0x7 DUP9 ADD PUSH2 0x56D1 JUMP JUMPDEST PUSH1 0x0 SWAP1 PUSH1 0x1F DUP4 GT PUSH1 0x1 EQ PUSH2 0x19EE JUMPI PUSH1 0x0 SWAP3 PUSH2 0x19E3 JUMPI JUMPDEST POP POP DUP2 PUSH1 0x1 SHL SWAP2 PUSH1 0x0 NOT SWAP1 PUSH1 0x3 SHL SHR NOT AND OR PUSH1 0x7 DUP4 ADD SSTORE JUMPDEST PUSH1 0x1 PUSH1 0x1 PUSH1 0x40 SHL SUB DUP4 GT PUSH2 0x938 JUMPI PUSH1 0x1 PUSH1 0x40 SHL DUP4 GT PUSH2 0x938 JUMPI PUSH1 0x8 DUP3 ADD SLOAD DUP4 PUSH1 0x8 DUP5 ADD SSTORE DUP1 DUP5 LT PUSH2 0x19B6 JUMPI JUMPDEST POP PUSH1 0x8 SWAP1 SWAP2 ADD PUSH1 0x0 MSTORE PUSH1 0x20 PUSH1 0x0 KECCAK256 PUSH1 0x0 JUMPDEST DUP4 DUP2 LT PUSH2 0x19A2 JUMPI POP POP POP POP PUSH1 0x44 CALLDATALOAD PUSH1 0x0 MSTORE PUSH2 0x1C5 PUSH1 0x20 MSTORE DUP5 PUSH1 0x40 PUSH1 0x0 KECCAK256 SSTORE PUSH1 0x40 MLOAD DUP4 DUP6 DUP3 CALLDATACOPY PUSH1 0x20 DUP2 DUP6 DUP2 ADD PUSH2 0x1C6 DUP2 MSTORE SUB ADD SWAP1 KECCAK256 SWAP2 DUP3 SLOAD SWAP3 PUSH1 0x1 PUSH1 0x40 SHL DUP5 LT ISZERO PUSH2 0x938 JUMPI DUP4 PUSH2 0x1683 SWAP2 PUSH1 0x1 PUSH2 0x179D SWAP7 ADD DUP2 SSTORE PUSH2 0x4759 JUMP JUMPDEST DUP2 SLOAD DUP9 DUP3 PUSH1 0x3 SHL SHL SWAP2 PUSH1 0x0 NOT SWAP1 PUSH1 0x3 SHL SHL NOT AND OR SWAP1 SSTORE CALLER PUSH1 0x0 MSTORE PUSH2 0x1C9 PUSH1 0x20 MSTORE PUSH1 0x40 PUSH1 0x0 KECCAK256 PUSH2 0x16B2 DUP2 SLOAD PUSH2 0x58DD JUMP JUMPDEST SWAP1 SSTORE PUSH2 0x16BF PUSH1 0x64 CALLDATALOAD PUSH2 0x4640 JUMP JUMPDEST PUSH2 0x16C9 DUP2 SLOAD PUSH2 0x58DD JUMP JUMPDEST SWAP1 SSTORE PUSH2 0x1796 PUSH2 0xAE5 PUSH1 0x40 MLOAD PUSH2 0x16DD DUP2 PUSH2 0x447E JUMP JUMPDEST PUSH1 0x0 DUP1 DUP3 MSTORE DUP10 DUP2 MSTORE PUSH2 0x12F PUSH1 0x20 MSTORE PUSH1 0x40 SWAP1 KECCAK256 SLOAD PUSH2 0x1706 SWAP1 PUSH1 0x1 PUSH1 0x1 PUSH1 0xA0 SHL SUB AND ISZERO ISZERO JUMPDEST ISZERO PUSH2 0x590D JUMP JUMPDEST PUSH1 0x0 DUP10 DUP2 MSTORE PUSH2 0x12F PUSH1 0x20 MSTORE PUSH1 0x40 SWAP1 KECCAK256 SLOAD PUSH2 0x172A SWAP1 PUSH1 0x1 PUSH1 0x1 PUSH1 0xA0 SHL SUB AND ISZERO ISZERO PUSH2 0x1700 JUMP JUMPDEST PUSH1 0x1 PUSH1 0x1 PUSH1 0xA0 SHL SUB DUP12 AND PUSH1 0x0 DUP2 DUP2 MSTORE PUSH2 0x130 PUSH1 0x20 SWAP1 DUP2 MSTORE PUSH1 0x40 DUP1 DUP4 KECCAK256 DUP1 SLOAD PUSH1 0x1 ADD SWAP1 SSTORE DUP13 DUP4 MSTORE PUSH2 0x12F SWAP1 SWAP2 MSTORE DUP2 KECCAK256 DUP1 SLOAD PUSH1 0x1 PUSH1 0x1 PUSH1 0xA0 SHL SUB NOT AND DUP4 OR SWAP1 SSTORE DUP11 SWAP2 SWAP1 PUSH32 0xDDF252AD1BE2C89B69C2B068FC378DAA952BA7F163C4A11628F55A4DF523B3EF DUP2 DUP1 LOG4 DUP9 DUP12 PUSH2 0x5373 JUMP JUMPDEST CALLDATASIZE SWAP2 PUSH2 0x450B JUMP JUMPDEST PUSH1 0x0 DUP5 DUP2 MSTORE PUSH2 0x12F PUSH1 0x20 MSTORE PUSH1 0x40 SWAP1 KECCAK256 SLOAD PUSH1 0x1 PUSH1 0x1 PUSH1 0xA0 SHL SUB AND ISZERO PUSH2 0x1946 JUMPI DUP4 PUSH1 0x0 MSTORE PUSH2 0x15F PUSH1 0x20 MSTORE PUSH1 0x40 PUSH1 0x0 KECCAK256 SWAP1 DUP1 MLOAD SWAP1 PUSH1 0x1 PUSH1 0x1 PUSH1 0x40 SHL SUB DUP3 GT PUSH2 0x938 JUMPI PUSH2 0x17EA DUP3 PUSH2 0xF0F DUP6 SLOAD PUSH2 0x4560 JUMP JUMPDEST PUSH1 0x20 SWAP1 PUSH1 0x1F DUP4 GT PUSH1 0x1 EQ PUSH2 0x18CE JUMPI SWAP2 DUP1 PUSH1 0x1 PUSH1 0x1 PUSH1 0x40 SHL SUB SWAP7 SWAP5 SWAP3 PUSH2 0x1872 SWAP7 SWAP5 PUSH1 0x0 SWAP3 PUSH2 0x18C3 JUMPI JUMPDEST POP POP DUP2 PUSH1 0x1 SHL SWAP2 PUSH1 0x0 NOT SWAP1 PUSH1 0x3 SHL SHR NOT AND OR SWAP1 SSTORE JUMPDEST PUSH32 0xF8E1A15ABA9398E019F0B49DF1A4FDE98EE17AE345CB5F6B5E2C27F5033E8CE7 PUSH1 0x20 PUSH1 0x40 MLOAD DUP8 DUP2 MSTORE LOG1 PUSH1 0x40 MLOAD PUSH1 0x1 PUSH1 0x1 PUSH1 0xA0 SHL SUB SWAP1 SWAP8 AND DUP8 MSTORE PUSH1 0xA0 PUSH1 0x20 DUP9 ADD DUP2 SWAP1 MSTORE DUP8 ADD SWAP2 PUSH2 0x58EC JUMP JUMPDEST SWAP3 PUSH2 0x1882 PUSH1 0x40 DUP7 ADD PUSH1 0x64 CALLDATALOAD PUSH2 0x474C JUMP JUMPDEST DUP2 TIMESTAMP AND PUSH1 0x60 DUP7 ADD MSTORE AND PUSH1 0x80 DUP5 ADD MSTORE PUSH32 0x62B11D2FE571BF506C79E1B0DF12C591BE85A72C64AC00059BE1C6FC5A33667F CALLER SWAP4 DUP1 PUSH1 0x44 CALLDATALOAD SWAP5 SUB SWAP1 LOG4 PUSH1 0x1 PUSH2 0x191 SSTORE STOP JUMPDEST ADD MLOAD SWAP1 POP DUP11 DUP1 PUSH2 0x1812 JUMP JUMPDEST SWAP1 DUP4 PUSH1 0x0 MSTORE PUSH1 0x20 PUSH1 0x0 KECCAK256 SWAP2 PUSH1 0x0 JUMPDEST PUSH1 0x1F NOT DUP6 AND DUP2 LT PUSH2 0x192E JUMPI POP SWAP3 PUSH1 0x1 PUSH1 0x1 PUSH1 0x40 SHL SUB SWAP7 SWAP5 SWAP3 PUSH1 0x1 SWAP3 PUSH2 0x1872 SWAP8 SWAP6 DUP4 PUSH1 0x1F NOT DUP2 AND LT PUSH2 0x1915 JUMPI JUMPDEST POP POP POP DUP2 SHL ADD SWAP1 SSTORE PUSH2 0x1827 JUMP JUMPDEST ADD MLOAD PUSH1 0x0 NOT PUSH1 0xF8 DUP5 PUSH1 0x3 SHL AND SHR NOT AND SWAP1 SSTORE DUP11 DUP1 DUP1 PUSH2 0x1908 JUMP JUMPDEST SWAP2 SWAP3 PUSH1 0x20 PUSH1 0x1 DUP2 SWAP3 DUP7 DUP6 ADD MLOAD DUP2 SSTORE ADD SWAP5 ADD SWAP3 ADD PUSH2 0x18DC JUMP JUMPDEST PUSH1 0x40 MLOAD PUSH3 0x461BCD PUSH1 0xE5 SHL DUP2 MSTORE PUSH1 0x20 PUSH1 0x4 DUP3 ADD MSTORE PUSH1 0x2E PUSH1 0x24 DUP3 ADD MSTORE PUSH32 0x45524337323155524953746F726167653A2055524920736574206F66206E6F6E PUSH1 0x44 DUP3 ADD MSTORE PUSH14 0x32BC34B9BA32B73A103A37B5B2B7 PUSH1 0x91 SHL PUSH1 0x64 DUP3 ADD MSTORE PUSH1 0x84 SWAP1 REVERT JUMPDEST PUSH1 0x1 SWAP1 PUSH1 0x20 DUP5 CALLDATALOAD SWAP5 ADD SWAP4 DUP2 DUP5 ADD SSTORE ADD PUSH2 0x162C JUMP JUMPDEST PUSH1 0x8 DUP4 ADD PUSH1 0x0 MSTORE PUSH1 0x20 PUSH1 0x0 KECCAK256 SWAP1 DUP5 DUP3 ADD JUMPDEST DUP2 DUP4 ADD DUP2 LT PUSH2 0x19D7 JUMPI POP POP PUSH2 0x161B JUMP JUMPDEST PUSH1 0x0 DUP2 SSTORE PUSH1 0x1 ADD PUSH2 0x19C7 JUMP JUMPDEST ADD CALLDATALOAD SWAP1 POP DUP13 DUP1 PUSH2 0x15D7 JUMP JUMPDEST SWAP1 SWAP3 POP PUSH1 0x7 DUP6 ADD PUSH1 0x0 MSTORE PUSH1 0x20 PUSH1 0x0 KECCAK256 SWAP1 PUSH1 0x0 SWAP4 JUMPDEST PUSH1 0x1F NOT DUP5 AND DUP6 LT PUSH2 0x1A47 JUMPI PUSH1 0x1 SWAP5 POP DUP4 PUSH1 0x1F NOT DUP2 AND LT PUSH2 0x1A2D JUMPI JUMPDEST POP POP POP DUP2 SHL ADD PUSH1 0x7 DUP4 ADD SSTORE PUSH2 0x15EF JUMP JUMPDEST ADD CALLDATALOAD PUSH1 0x0 NOT PUSH1 0x3 DUP5 SWAP1 SHL PUSH1 0xF8 AND SHR NOT AND SWAP1 SSTORE DUP13 DUP1 DUP1 PUSH2 0x1A1D JUMP JUMPDEST DUP2 DUP2 ADD CALLDATALOAD DUP4 SSTORE PUSH1 0x20 SWAP5 DUP6 ADD SWAP5 PUSH1 0x1 SWAP1 SWAP4 ADD SWAP3 ADD PUSH2 0x1A02 JUMP JUMPDEST SWAP1 POP DUP7 ADD CALLDATALOAD DUP14 PUSH2 0x1580 JUMP JUMPDEST SWAP1 POP PUSH1 0x6 DUP6 ADD PUSH1 0x0 MSTORE PUSH1 0x20 PUSH1 0x0 KECCAK256 SWAP1 PUSH1 0x0 JUMPDEST PUSH1 0x1F NOT DUP11 AND DUP2 LT PUSH2 0x1AC0 JUMPI POP DUP9 PUSH1 0x1F NOT DUP2 AND LT PUSH2 0x1AA6 JUMPI JUMPDEST POP POP PUSH1 0x1 DUP8 DUP2 SHL ADD PUSH1 0x6 DUP6 ADD SSTORE PUSH2 0x1597 JUMP JUMPDEST DUP8 ADD CALLDATALOAD PUSH1 0x0 NOT PUSH1 0x3 DUP11 SWAP1 SHL PUSH1 0xF8 AND SHR NOT AND SWAP1 SSTORE DUP13 DUP1 PUSH2 0x1A94 JUMP JUMPDEST SWAP1 SWAP2 PUSH1 0x20 PUSH1 0x1 DUP2 SWAP3 DUP6 DUP13 ADD CALLDATALOAD DUP2 SSTORE ADD SWAP4 ADD SWAP2 ADD PUSH2 0x1A7C JUMP JUMPDEST SWAP1 POP DUP10 ADD CALLDATALOAD DUP14 PUSH2 0x14E6 JUMP JUMPDEST SWAP1 POP PUSH1 0x3 DUP6 ADD PUSH1 0x0 MSTORE PUSH1 0x20 PUSH1 0x0 KECCAK256 SWAP1 PUSH1 0x0 JUMPDEST DUP12 PUSH1 0x1F NOT DUP13 AND DUP3 LT PUSH2 0x1B3B JUMPI POP POP DUP10 PUSH1 0x1F NOT DUP2 AND LT PUSH2 0x1B21 JUMPI JUMPDEST POP POP PUSH1 0x1 DUP9 DUP2 SHL ADD PUSH1 0x3 DUP6 ADD SSTORE PUSH2 0x14FD JUMP JUMPDEST DUP11 ADD CALLDATALOAD PUSH1 0x0 NOT PUSH1 0x3 DUP12 SWAP1 SHL PUSH1 0xF8 AND SHR NOT AND SWAP1 SSTORE DUP13 DUP1 PUSH2 0x1B0F JUMP JUMPDEST PUSH1 0x1 DUP4 SWAP5 PUSH1 0x20 SWAP4 SWAP5 DUP5 SWAP4 ADD CALLDATALOAD DUP2 SSTORE ADD SWAP4 ADD SWAP2 ADD PUSH2 0x1AF5 JUMP JUMPDEST SWAP9 PUSH2 0x1CD SLOAD DUP1 PUSH2 0x1B64 JUMPI JUMPDEST POP PUSH2 0x1468 JUMP JUMPDEST PUSH1 0x1 PUSH1 0x1 PUSH1 0x40 SHL SUB SWAP2 SWAP11 POP PUSH2 0x1B79 SWAP1 TIMESTAMP PUSH2 0x5582 JUMP JUMPDEST AND SWAP9 DUP12 PUSH2 0x1B5E JUMP JUMPDEST PUSH1 0xFF PUSH1 0x40 MLOAD DUP10 DUP4 DUP3 CALLDATACOPY PUSH1 0x20 DUP2 DUP12 DUP2 ADD PUSH2 0x1CB DUP2 MSTORE SUB ADD SWAP1 KECCAK256 SLOAD AND PUSH2 0x1439 JUMPI PUSH1 0x40 MLOAD PUSH3 0x461BCD PUSH1 0xE5 SHL DUP2 MSTORE PUSH1 0x20 PUSH1 0x4 DUP3 ADD MSTORE PUSH1 0x1F PUSH1 0x24 DUP3 ADD MSTORE PUSH32 0x564352656769737472793A20536368656D61206E6F7420617070726F76656400 PUSH1 0x44 DUP3 ADD MSTORE PUSH1 0x64 SWAP1 REVERT JUMPDEST PUSH1 0x40 MLOAD PUSH3 0x461BCD PUSH1 0xE5 SHL DUP2 MSTORE PUSH1 0x20 PUSH1 0x4 DUP3 ADD MSTORE PUSH1 0x2C PUSH1 0x24 DUP3 ADD MSTORE PUSH32 0x564352656769737472793A204D61782063726564656E7469616C732070657220 PUSH1 0x44 DUP3 ADD MSTORE PUSH12 0x11125108195E18D959591959 PUSH1 0xA2 SHL PUSH1 0x64 DUP3 ADD MSTORE PUSH1 0x84 SWAP1 REVERT JUMPDEST PUSH1 0x40 MLOAD PUSH3 0x461BCD PUSH1 0xE5 SHL DUP2 MSTORE PUSH1 0x20 PUSH1 0x4 DUP3 ADD MSTORE PUSH1 0x1D PUSH1 0x24 DUP3 ADD MSTORE PUSH32 0x564352656769737472793A20564320616C726561647920697373756564000000 PUSH1 0x44 DUP3 ADD MSTORE PUSH1 0x64 SWAP1 REVERT JUMPDEST PUSH1 0x40 MLOAD PUSH3 0x461BCD PUSH1 0xE5 SHL DUP2 MSTORE PUSH1 0x20 PUSH1 0x4 DUP3 ADD MSTORE PUSH1 0x28 PUSH1 0x24 DUP3 ADD MSTORE PUSH32 0x564352656769737472793A204D65746164617461205552492063616E6E6F7420 PUSH1 0x44 DUP3 ADD MSTORE PUSH8 0x626520656D707479 PUSH1 0xC0 SHL PUSH1 0x64 DUP3 ADD MSTORE PUSH1 0x84 SWAP1 REVERT JUMPDEST PUSH1 0x40 MLOAD PUSH3 0x461BCD PUSH1 0xE5 SHL DUP2 MSTORE PUSH1 0x20 PUSH1 0x4 DUP3 ADD MSTORE PUSH1 0x1B PUSH1 0x24 DUP3 ADD MSTORE PUSH32 0x564352656769737472793A20496E76616C696420564320686173680000000000 PUSH1 0x44 DUP3 ADD MSTORE PUSH1 0x64 SWAP1 REVERT JUMPDEST PUSH1 0x40 MLOAD PUSH3 0x461BCD PUSH1 0xE5 SHL DUP2 MSTORE PUSH1 0x20 PUSH1 0x4 DUP3 ADD MSTORE PUSH1 0x1E PUSH1 0x24 DUP3 ADD MSTORE PUSH32 0x564352656769737472793A20496E76616C696420486564657261204449440000 PUSH1 0x44 DUP3 ADD MSTORE PUSH1 0x64 SWAP1 REVERT JUMPDEST PUSH1 0x40 MLOAD PUSH3 0x461BCD PUSH1 0xE5 SHL DUP2 MSTORE PUSH1 0x20 PUSH1 0x4 DUP3 ADD MSTORE PUSH1 0x22 PUSH1 0x24 DUP3 ADD MSTORE PUSH32 0x564352656769737472793A20496E76616C696420686F6C646572206164647265 PUSH1 0x44 DUP3 ADD MSTORE PUSH2 0x7373 PUSH1 0xF0 SHL PUSH1 0x64 DUP3 ADD MSTORE PUSH1 0x84 SWAP1 REVERT JUMPDEST PUSH1 0x40 MLOAD PUSH3 0x461BCD PUSH1 0xE5 SHL DUP2 MSTORE PUSH1 0x20 PUSH1 0x4 DUP3 ADD MSTORE PUSH1 0x1F PUSH1 0x24 DUP3 ADD MSTORE PUSH32 0x5265656E7472616E637947756172643A207265656E7472616E742063616C6C00 PUSH1 0x44 DUP3 ADD MSTORE PUSH1 0x64 SWAP1 REVERT JUMPDEST PUSH2 0x1E01 CALLER PUSH2 0x55A0 JUMP JUMPDEST PUSH1 0x40 MLOAD SWAP2 PUSH2 0x1E0E DUP4 PUSH2 0x44B4 JUMP JUMPDEST PUSH1 0x42 DUP4 MSTORE PUSH1 0x20 DUP4 ADD SWAP1 PUSH1 0x60 CALLDATASIZE DUP4 CALLDATACOPY DUP4 MLOAD ISZERO PUSH2 0x1F77 JUMPI PUSH1 0x30 DUP3 MSTORE8 DUP4 MLOAD PUSH1 0x1 SWAP1 DUP2 LT ISZERO PUSH2 0x1F77 JUMPI PUSH1 0x78 PUSH1 0x21 DUP7 ADD MSTORE8 PUSH1 0x41 SWAP1 JUMPDEST DUP1 DUP3 GT PUSH2 0x1F33 JUMPI POP POP PUSH2 0x1EEF JUMPI PUSH1 0x48 PUSH2 0x1EBC SWAP3 PUSH2 0x1ECB SWAP3 PUSH2 0x1EEB SWAP6 PUSH1 0x40 MLOAD SWAP6 DUP7 SWAP4 PUSH23 0x20B1B1B2B9B9A1B7B73A3937B61D1030B1B1B7BAB73A1 PUSH1 0x4D SHL PUSH1 0x20 DUP7 ADD MSTORE PUSH2 0x1E93 DUP2 MLOAD DUP1 SWAP3 PUSH1 0x20 PUSH1 0x37 DUP10 ADD SWAP2 ADD PUSH2 0x43E6 JUMP JUMPDEST DUP5 ADD SWAP2 PUSH17 0x1034B99036B4B9B9B4B733903937B6329 PUSH1 0x7D SHL PUSH1 0x37 DUP5 ADD MSTORE MLOAD DUP1 SWAP4 DUP7 DUP5 ADD SWAP1 PUSH2 0x43E6 JUMP JUMPDEST ADD SUB PUSH1 0x28 DUP2 ADD DUP5 MSTORE ADD DUP3 PUSH2 0x44CF JUMP JUMPDEST PUSH1 0x40 MLOAD PUSH3 0x461BCD PUSH1 0xE5 SHL DUP2 MSTORE PUSH1 0x20 PUSH1 0x4 DUP3 ADD MSTORE SWAP2 DUP3 SWAP2 PUSH1 0x24 DUP4 ADD SWAP1 PUSH2 0x4409 JUMP JUMPDEST SUB SWAP1 REVERT JUMPDEST PUSH1 0x64 PUSH1 0x40 MLOAD PUSH3 0x461BCD PUSH1 0xE5 SHL DUP2 MSTORE PUSH1 0x20 PUSH1 0x4 DUP3 ADD MSTORE PUSH1 0x20 PUSH1 0x24 DUP3 ADD MSTORE PUSH32 0x537472696E67733A20686578206C656E67746820696E73756666696369656E74 PUSH1 0x44 DUP3 ADD MSTORE REVERT JUMPDEST SWAP1 SWAP2 PUSH1 0xF DUP2 AND PUSH1 0x10 DUP2 LT ISZERO PUSH2 0x1F77 JUMPI PUSH16 0x181899199A1A9B1B9C1CB0B131B232B3 PUSH1 0x81 SHL SWAP1 BYTE PUSH2 0x1F62 DUP5 DUP9 PUSH2 0x558F JUMP JUMPDEST MSTORE8 PUSH1 0x4 SHR SWAP2 DUP1 ISZERO PUSH2 0x571 JUMPI PUSH1 0x0 NOT ADD SWAP1 PUSH2 0x1E3E JUMP JUMPDEST PUSH4 0x4E487B71 PUSH1 0xE0 SHL PUSH1 0x0 MSTORE PUSH1 0x32 PUSH1 0x4 MSTORE PUSH1 0x24 PUSH1 0x0 REVERT JUMPDEST CALLVALUE PUSH2 0x310 JUMPI PUSH1 0x40 CALLDATASIZE PUSH1 0x3 NOT ADD SLT PUSH2 0x310 JUMPI PUSH2 0x1FA6 PUSH2 0x43D0 JUMP JUMPDEST PUSH1 0x4 CALLDATALOAD PUSH1 0x0 MSTORE PUSH1 0x65 PUSH1 0x20 MSTORE PUSH1 0x40 PUSH1 0x0 KECCAK256 SWAP1 PUSH1 0x1 DUP1 PUSH1 0xA0 SHL SUB AND PUSH1 0x0 MSTORE PUSH1 0x20 MSTORE PUSH1 0x20 PUSH1 0xFF PUSH1 0x40 PUSH1 0x0 KECCAK256 SLOAD AND PUSH1 0x40 MLOAD SWAP1 ISZERO ISZERO DUP2 MSTORE RETURN JUMPDEST CALLVALUE PUSH2 0x310 JUMPI PUSH1 0x60 CALLDATASIZE PUSH1 0x3 NOT ADD SLT PUSH2 0x310 JUMPI PUSH2 0x1FF3 PUSH2 0x43BA JUMP JUMPDEST PUSH1 0x24 CALLDATALOAD PUSH1 0x1 PUSH1 0x1 PUSH1 0x40 SHL SUB DUP2 GT PUSH2 0x310 JUMPI PUSH2 0x2012 SWAP1 CALLDATASIZE SWAP1 PUSH1 0x4 ADD PUSH2 0x4542 JUMP JUMPDEST SWAP1 PUSH1 0x44 CALLDATALOAD PUSH1 0x1 PUSH1 0x1 PUSH1 0x40 SHL SUB DUP2 GT PUSH2 0x310 JUMPI PUSH2 0x2032 SWAP1 CALLDATASIZE SWAP1 PUSH1 0x4 ADD PUSH2 0x4542 JUMP JUMPDEST SWAP1 PUSH1 0x0 SLOAD SWAP1 PUSH1 0xFF DUP3 PUSH1 0x8 SHR AND ISZERO SWAP2 DUP3 DUP1 SWAP4 PUSH2 0x25BA JUMPI JUMPDEST DUP1 ISZERO PUSH2 0x25A3 JUMPI JUMPDEST ISZERO PUSH2 0x2547 JUMPI PUSH1 0xFF NOT DUP2 AND PUSH1 0x1 OR PUSH1 0x0 SSTORE DUP3 PUSH2 0x2535 JUMPI JUMPDEST POP PUSH2 0x20AE PUSH1 0xFF PUSH1 0x0 SLOAD PUSH1 0x8 SHR AND PUSH2 0x207B DUP2 PUSH2 0x565A JUMP JUMPDEST PUSH2 0x2084 DUP2 PUSH2 0x565A JUMP JUMPDEST PUSH2 0x208D DUP2 PUSH2 0x565A JUMP JUMPDEST PUSH1 0xFF NOT PUSH1 0x97 SLOAD AND PUSH1 0x97 SSTORE PUSH2 0x20A0 DUP2 PUSH2 0x565A JUMP JUMPDEST PUSH2 0x20A9 DUP2 PUSH2 0x565A JUMP JUMPDEST PUSH2 0x565A JUMP JUMPDEST DUP4 MLOAD PUSH1 0x1 PUSH1 0x1 PUSH1 0x40 SHL SUB DUP2 GT PUSH2 0x938 JUMPI PUSH2 0x20CA PUSH2 0x12D SLOAD PUSH2 0x4560 JUMP JUMPDEST PUSH1 0x1F DUP2 GT PUSH2 0x24E5 JUMPI JUMPDEST POP PUSH1 0x20 PUSH1 0x1F DUP3 GT PUSH1 0x1 EQ PUSH2 0x245C JUMPI DUP2 SWAP3 SWAP4 SWAP5 SWAP6 PUSH1 0x0 SWAP3 PUSH2 0x2451 JUMPI JUMPDEST POP POP DUP2 PUSH1 0x1 SHL SWAP2 PUSH1 0x0 NOT SWAP1 PUSH1 0x3 SHL SHR NOT AND OR PUSH2 0x12D SSTORE JUMPDEST DUP3 MLOAD PUSH1 0x1 PUSH1 0x1 PUSH1 0x40 SHL SUB DUP2 GT PUSH2 0x938 JUMPI PUSH2 0x12E SWAP1 PUSH2 0x2123 DUP3 SLOAD PUSH2 0x4560 JUMP JUMPDEST PUSH1 0x1F DUP2 GT PUSH2 0x23F8 JUMPI JUMPDEST POP PUSH1 0x20 SWAP5 PUSH1 0x1F DUP3 GT PUSH1 0x1 EQ PUSH2 0x2376 JUMPI SWAP5 DUP2 SWAP3 SWAP4 SWAP5 SWAP6 PUSH1 0x0 SWAP3 PUSH2 0x236B JUMPI JUMPDEST POP POP DUP2 PUSH1 0x1 SHL SWAP2 PUSH1 0x0 NOT SWAP1 PUSH1 0x3 SHL SHR NOT AND OR SWAP1 SSTORE JUMPDEST PUSH2 0x2173 PUSH1 0xFF PUSH1 0x0 SLOAD PUSH1 0x8 SHR AND PUSH2 0x20A0 DUP2 PUSH2 0x565A JUMP JUMPDEST PUSH1 0x1 PUSH2 0x191 SSTORE PUSH1 0x1 PUSH1 0x1 PUSH1 0xA0 SHL SUB AND PUSH1 0x0 DUP2 DUP2 MSTORE PUSH32 0xFFDFC1249C027F9191656349FEB0761381BB32C9F557E01F419FD08754BF5A1B PUSH1 0x20 MSTORE PUSH1 0x40 SWAP1 KECCAK256 SLOAD PUSH1 0x65 SWAP2 SWAP1 PUSH1 0xFF AND ISZERO PUSH2 0x232C JUMPI JUMPDEST PUSH32 0x189AB7A9244DF0848122154315AF71FE140F3DB0FE014031783B0946B8C9D2E3 DUP1 PUSH1 0x0 MSTORE DUP3 PUSH1 0x20 MSTORE PUSH1 0x40 PUSH1 0x0 KECCAK256 DUP3 PUSH1 0x0 MSTORE PUSH1 0x20 MSTORE PUSH1 0xFF PUSH1 0x40 PUSH1 0x0 KECCAK256 SLOAD AND ISZERO PUSH2 0x22EC JUMPI JUMPDEST POP PUSH32 0xA4057A4B1AB9AB5267DD02CA73E655DDEBC38467F166BBA2FAA7A1E160DC900F SWAP2 DUP3 PUSH1 0x0 MSTORE DUP1 PUSH1 0x20 MSTORE PUSH1 0x40 PUSH1 0x0 KECCAK256 DUP3 PUSH1 0x0 MSTORE PUSH1 0x20 MSTORE PUSH1 0xFF PUSH1 0x40 PUSH1 0x0 KECCAK256 SLOAD AND ISZERO PUSH2 0x22AC JUMPI JUMPDEST POP POP PUSH1 0xA PUSH2 0x1CC SSTORE POP PUSH4 0x1E13380 PUSH2 0x1CD SSTORE PUSH2 0x1CE DUP1 SLOAD PUSH1 0xFF NOT AND SWAP1 SSTORE PUSH2 0x1C3 DUP1 SLOAD PUSH1 0x1 ADD SWAP1 SSTORE PUSH2 0x2274 JUMPI STOP JUMPDEST PUSH2 0xFF00 NOT PUSH1 0x0 SLOAD AND PUSH1 0x0 SSTORE PUSH32 0x7F26B83FF96E1F2B6A682F133852F6798A09C465DA95921460CEFB3847402498 PUSH1 0x20 PUSH1 0x40 MLOAD PUSH1 0x1 DUP2 MSTORE LOG1 STOP JUMPDEST DUP3 PUSH1 0x0 MSTORE PUSH1 0x20 MSTORE PUSH1 0x40 PUSH1 0x0 KECCAK256 DUP2 PUSH1 0x0 MSTORE PUSH1 0x20 MSTORE PUSH1 0x40 PUSH1 0x0 KECCAK256 PUSH1 0x1 PUSH1 0xFF NOT DUP3 SLOAD AND OR SWAP1 SSTORE CALLER SWAP2 PUSH1 0x0 DUP1 MLOAD PUSH1 0x20 PUSH2 0x5AF2 DUP4 CODECOPY DUP2 MLOAD SWAP2 MSTORE PUSH1 0x0 DUP1 LOG4 DUP2 DUP1 DUP1 PUSH2 0x2247 JUMP JUMPDEST DUP1 PUSH1 0x0 MSTORE DUP3 PUSH1 0x20 MSTORE PUSH1 0x40 PUSH1 0x0 KECCAK256 DUP3 PUSH1 0x0 MSTORE PUSH1 0x20 MSTORE PUSH1 0x40 PUSH1 0x0 KECCAK256 PUSH1 0x1 PUSH1 0xFF NOT DUP3 SLOAD AND OR SWAP1 SSTORE DUP2 CALLER SWAP2 PUSH1 0x0 DUP1 MLOAD PUSH1 0x20 PUSH2 0x5AF2 DUP4 CODECOPY DUP2 MLOAD SWAP2 MSTORE PUSH1 0x0 DUP1 LOG4 DUP4 PUSH2 0x2201 JUMP JUMPDEST PUSH1 0x0 DUP1 MSTORE DUP2 PUSH1 0x20 MSTORE PUSH1 0x40 PUSH1 0x0 KECCAK256 DUP2 PUSH1 0x0 MSTORE PUSH1 0x20 MSTORE PUSH1 0x40 PUSH1 0x0 KECCAK256 PUSH1 0x1 PUSH1 0xFF NOT DUP3 SLOAD AND OR SWAP1 SSTORE CALLER DUP2 PUSH1 0x0 PUSH1 0x0 DUP1 MLOAD PUSH1 0x20 PUSH2 0x5AF2 DUP4 CODECOPY DUP2 MLOAD SWAP2 MSTORE DUP2 DUP1 LOG4 PUSH2 0x21BD JUMP JUMPDEST ADD MLOAD SWAP1 POP DUP6 DUP1 PUSH2 0x2149 JUMP JUMPDEST PUSH1 0x1F NOT DUP3 AND SWAP6 DUP4 PUSH1 0x0 MSTORE PUSH32 0xBDAADD9F750D0166045BF387A364EADD28BA243E04512A47282AA5147A68E37F SWAP2 PUSH1 0x0 JUMPDEST DUP9 DUP2 LT PUSH2 0x23E0 JUMPI POP DUP4 PUSH1 0x1 SWAP6 SWAP7 SWAP8 SWAP9 LT PUSH2 0x23C7 JUMPI JUMPDEST POP POP POP DUP2 SHL ADD SWAP1 SSTORE PUSH2 0x215E JUMP JUMPDEST ADD MLOAD PUSH1 0x0 NOT PUSH1 0xF8 DUP5 PUSH1 0x3 SHL AND SHR NOT AND SWAP1 SSTORE DUP6 DUP1 DUP1 PUSH2 0x23BA JUMP JUMPDEST SWAP2 SWAP3 PUSH1 0x20 PUSH1 0x1 DUP2 SWAP3 DUP7 DUP6 ADD MLOAD DUP2 SSTORE ADD SWAP5 ADD SWAP3 ADD PUSH2 0x23A5 JUMP JUMPDEST PUSH2 0x2441 SWAP1 DUP4 PUSH1 0x0 MSTORE PUSH32 0xBDAADD9F750D0166045BF387A364EADD28BA243E04512A47282AA5147A68E37F PUSH1 0x1F DUP5 ADD PUSH1 0x5 SHR DUP2 ADD SWAP2 PUSH1 0x20 DUP6 LT PUSH2 0x2447 JUMPI JUMPDEST PUSH1 0x1F ADD PUSH1 0x5 SHR ADD SWAP1 PUSH2 0x56BA JUMP JUMPDEST DUP6 PUSH2 0x212C JUMP JUMPDEST SWAP1 SWAP2 POP DUP2 SWAP1 PUSH2 0x2434 JUMP JUMPDEST ADD MLOAD SWAP1 POP DUP6 DUP1 PUSH2 0x20EE JUMP JUMPDEST PUSH2 0x12D PUSH1 0x0 MSTORE PUSH32 0x193A3AE4DA5049EB74CEE39E4CF5827F7CE7B1D1D1775EF1C6311EB60558E6D5 SWAP1 PUSH1 0x0 JUMPDEST PUSH1 0x1F NOT DUP5 AND DUP2 LT PUSH2 0x24CD JUMPI POP PUSH1 0x1 SWAP4 SWAP5 SWAP6 SWAP7 DUP4 PUSH1 0x1F NOT DUP2 AND LT PUSH2 0x24B4 JUMPI JUMPDEST POP POP POP DUP2 SHL ADD PUSH2 0x12D SSTORE PUSH2 0x2105 JUMP JUMPDEST ADD MLOAD PUSH1 0x0 NOT PUSH1 0xF8 DUP5 PUSH1 0x3 SHL AND SHR NOT AND SWAP1 SSTORE DUP6 DUP1 DUP1 PUSH2 0x24A5 JUMP JUMPDEST SWAP1 SWAP2 PUSH1 0x20 PUSH1 0x1 DUP2 SWAP3 DUP6 DUP12 ADD MLOAD DUP2 SSTORE ADD SWAP4 ADD SWAP2 ADD PUSH2 0x2487 JUMP JUMPDEST PUSH2 0x252F SWAP1 PUSH2 0x12D PUSH1 0x0 MSTORE PUSH32 0x193A3AE4DA5049EB74CEE39E4CF5827F7CE7B1D1D1775EF1C6311EB60558E6D5 PUSH1 0x1F DUP5 ADD PUSH1 0x5 SHR DUP2 ADD SWAP2 PUSH1 0x20 DUP6 LT PUSH2 0x2447 JUMPI PUSH1 0x1F ADD PUSH1 0x5 SHR ADD SWAP1 PUSH2 0x56BA JUMP JUMPDEST DUP6 PUSH2 0x20D3 JUMP JUMPDEST PUSH2 0xFFFF NOT AND PUSH2 0x101 OR PUSH1 0x0 SSTORE DUP5 PUSH2 0x2065 JUMP JUMPDEST PUSH1 0x40 MLOAD PUSH3 0x461BCD PUSH1 0xE5 SHL DUP2 MSTORE PUSH1 0x20 PUSH1 0x4 DUP3 ADD MSTORE PUSH1 0x2E PUSH1 0x24 DUP3 ADD MSTORE PUSH32 0x496E697469616C697A61626C653A20636F6E747261637420697320616C726561 PUSH1 0x44 DUP3 ADD MSTORE PUSH14 0x191E481A5B9A5D1A585B1A5E9959 PUSH1 0x92 SHL PUSH1 0x64 DUP3 ADD MSTORE PUSH1 0x84 SWAP1 REVERT JUMPDEST POP ADDRESS EXTCODESIZE ISZERO DUP1 ISZERO PUSH2 0x204F JUMPI POP PUSH1 0x1 PUSH1 0xFF DUP3 AND EQ PUSH2 0x204F JUMP JUMPDEST POP PUSH1 0x1 PUSH1 0xFF DUP3 AND LT PUSH2 0x2048 JUMP JUMPDEST CALLVALUE PUSH2 0x310 JUMPI PUSH1 0x20 CALLDATASIZE PUSH1 0x3 NOT ADD SLT PUSH2 0x310 JUMPI PUSH1 0x4 CALLDATALOAD PUSH1 0x0 DUP2 DUP2 MSTORE PUSH2 0x12F PUSH1 0x20 MSTORE PUSH1 0x40 SWAP1 KECCAK256 SLOAD PUSH2 0x25FF SWAP1 PUSH1 0x1 PUSH1 0x1 PUSH1 0xA0 SHL SUB AND ISZERO ISZERO PUSH2 0x5959 JUMP JUMPDEST PUSH1 0x0 MSTORE PUSH2 0x1C4 PUSH1 0x20 MSTORE PUSH1 0x40 PUSH1 0x0 KECCAK256 DUP1 SLOAD SWAP1 PUSH1 0x1 DUP1 PUSH1 0xA0 SHL SUB DUP1 PUSH1 0x1 DUP4 ADD SLOAD AND SWAP1 PUSH1 0x2 DUP4 ADD SLOAD AND PUSH1 0x4 DUP4 ADD SLOAD PUSH1 0x5 DUP5 ADD SLOAD PUSH2 0x263B PUSH1 0x3 DUP7 ADD PUSH2 0x459A JUMP JUMPDEST SWAP1 PUSH2 0x2648 PUSH1 0x6 DUP8 ADD PUSH2 0x459A JUMP JUMPDEST SWAP2 PUSH2 0x2655 PUSH1 0x7 DUP9 ADD PUSH2 0x459A JUMP JUMPDEST SWAP5 PUSH1 0x40 MLOAD SWAP7 DUP8 PUSH1 0x20 PUSH1 0x8 DUP12 ADD SLOAD SWAP2 DUP3 DUP2 MSTORE ADD SWAP1 PUSH1 0x8 DUP3 SWAP12 ADD PUSH1 0x0 MSTORE PUSH1 0x20 PUSH1 0x0 KECCAK256 SWAP1 PUSH1 0x0 JUMPDEST DUP2 DUP2 LT PUSH2 0x2775 JUMPI POP POP POP DUP8 PUSH2 0x272A DUP9 PUSH1 0x20 SWAP9 DUP15 SWAP9 PUSH2 0x26C9 DUP16 SWAP10 DUP16 SWAP10 DUP14 SWAP10 PUSH2 0x26A5 DUP13 PUSH2 0x2739 SWAP12 SUB DUP14 PUSH2 0x44CF JUMP JUMPDEST PUSH1 0x40 MLOAD SWAP15 DUP16 SWAP15 DUP16 SWAP1 DUP2 MSTORE ADD MSTORE PUSH1 0x40 DUP14 ADD MSTORE PUSH1 0x60 DUP13 PUSH2 0x1A0 SWAP2 DUP3 SWAP2 ADD MSTORE DUP13 ADD SWAP1 PUSH2 0x4409 JUMP JUMPDEST SWAP3 PUSH1 0x80 DUP12 ADD MSTORE PUSH2 0x26DF PUSH1 0xA0 DUP12 ADD PUSH1 0xFF DUP4 AND PUSH2 0x474C JUMP JUMPDEST PUSH2 0x26F2 PUSH1 0xC0 DUP12 ADD PUSH1 0xFF DUP4 PUSH1 0x8 SHR AND PUSH2 0x46B7 JUMP JUMPDEST PUSH1 0x1 PUSH1 0x1 PUSH1 0x40 SHL SUB SWAP1 DUP2 DUP2 PUSH1 0x10 SHR AND PUSH1 0xE0 DUP13 ADD MSTORE DUP2 DUP2 PUSH1 0x50 SHR AND PUSH2 0x100 DUP13 ADD MSTORE PUSH1 0x90 SHR AND PUSH2 0x120 DUP11 ADD MSTORE DUP9 DUP3 SUB PUSH2 0x140 DUP11 ADD MSTORE PUSH2 0x4409 JUMP JUMPDEST SWAP1 DUP7 DUP3 SUB PUSH2 0x160 DUP9 ADD MSTORE PUSH2 0x4409 JUMP JUMPDEST SWAP2 DUP5 DUP4 SUB PUSH2 0x180 DUP7 ADD MSTORE MLOAD SWAP2 DUP3 DUP2 MSTORE ADD SWAP2 SWAP1 PUSH1 0x0 JUMPDEST DUP2 DUP2 LT PUSH2 0x275C JUMPI POP POP POP SUB SWAP1 RETURN JUMPDEST DUP3 MLOAD DUP5 MSTORE DUP6 SWAP5 POP PUSH1 0x20 SWAP4 DUP5 ADD SWAP4 SWAP1 SWAP3 ADD SWAP2 PUSH1 0x1 ADD PUSH2 0x274E JUMP JUMPDEST DUP3 SLOAD DUP5 MSTORE PUSH1 0x20 SWAP1 SWAP4 ADD SWAP3 PUSH1 0x1 SWAP3 DUP4 ADD SWAP3 ADD PUSH2 0x2679 JUMP JUMPDEST CALLVALUE PUSH2 0x310 JUMPI PUSH1 0x0 CALLDATASIZE PUSH1 0x3 NOT ADD SLT PUSH2 0x310 JUMPI PUSH2 0x27A4 PUSH2 0x4771 JUMP JUMPDEST PUSH2 0x27AC PUSH2 0x583A JUMP JUMPDEST PUSH1 0x1 PUSH1 0xFF NOT PUSH1 0x97 SLOAD AND OR PUSH1 0x97 SSTORE PUSH32 0x62E78CEA01BEE320CD4E420270B5EA74000D11B0C9F74754EBDBFC544B05A258 PUSH1 0x20 PUSH1 0x40 MLOAD CALLER DUP2 MSTORE LOG1 STOP JUMPDEST CALLVALUE PUSH2 0x310 JUMPI PUSH1 0x0 CALLDATASIZE PUSH1 0x3 NOT ADD SLT PUSH2 0x310 JUMPI PUSH1 0x20 PUSH1 0x40 MLOAD PUSH1 0x0 DUP1 MLOAD PUSH1 0x20 PUSH2 0x5B52 DUP4 CODECOPY DUP2 MLOAD SWAP2 MSTORE DUP2 MSTORE RETURN JUMPDEST CALLVALUE PUSH2 0x310 JUMPI PUSH1 0x20 CALLDATASIZE PUSH1 0x3 NOT ADD SLT PUSH2 0x310 JUMPI PUSH2 0x2827 PUSH2 0x4771 JUMP JUMPDEST PUSH1 0x4 CALLDATALOAD PUSH2 0x1CD SSTORE STOP JUMPDEST CALLVALUE PUSH2 0x310 JUMPI PUSH1 0x20 DUP1 PUSH1 0x3 NOT CALLDATASIZE ADD SLT PUSH2 0x310 JUMPI PUSH1 0x1 PUSH1 0x1 PUSH1 0x40 SHL SUB PUSH1 0x4 CALLDATALOAD DUP2 DUP2 GT PUSH2 0x310 JUMPI PUSH2 0x2862 SWAP1 CALLDATASIZE SWAP1 PUSH1 0x4 ADD PUSH2 0x465A JUMP JUMPDEST DUP4 PUSH1 0x40 MLOAD SWAP3 PUSH2 0x2870 DUP5 PUSH2 0x4463 JUMP JUMPDEST PUSH1 0x60 SWAP4 DUP5 DUP2 MSTORE DUP3 DUP2 ADD PUSH1 0x0 SWAP1 MSTORE DUP5 PUSH1 0x40 DUP3 ADD MSTORE DUP5 DUP1 DUP3 ADD MSTORE PUSH1 0x80 DUP2 ADD PUSH1 0x0 SWAP1 MSTORE PUSH1 0xA0 DUP2 ADD PUSH1 0x0 SWAP1 MSTORE PUSH1 0xC0 ADD PUSH1 0x0 SWAP1 MSTORE DUP3 PUSH1 0x40 MLOAD SWAP4 DUP5 SWAP3 DUP4 CALLDATACOPY DUP2 ADD PUSH2 0x1C7 DUP2 MSTORE SUB ADD SWAP1 KECCAK256 SWAP1 PUSH1 0x40 MLOAD SWAP3 PUSH2 0x28C1 DUP5 PUSH2 0x4463 JUMP JUMPDEST PUSH2 0x28CA DUP4 PUSH2 0x459A JUMP JUMPDEST DUP5 MSTORE PUSH1 0x1 DUP4 ADD SLOAD PUSH1 0x1 PUSH1 0x1 PUSH1 0xA0 SHL SUB SWAP1 DUP2 AND DUP7 DUP7 ADD SWAP1 DUP2 MSTORE SWAP3 DUP3 SWAP1 PUSH2 0x28F1 PUSH1 0x2 DUP8 ADD PUSH2 0x5A45 JUMP JUMPDEST PUSH1 0x40 DUP9 ADD SWAP1 DUP2 MSTORE SWAP6 PUSH2 0x2905 PUSH1 0x3 DUP3 ADD PUSH2 0x5A45 JUMP JUMPDEST SWAP1 DUP3 DUP10 ADD SWAP2 DUP3 MSTORE PUSH1 0x4 ADD SLOAD SWAP6 PUSH1 0x80 DUP10 ADD SWAP8 DUP5 DUP9 AND DUP10 MSTORE PUSH1 0xA0 DUP11 ADD SWAP6 DUP6 DUP10 PUSH1 0x40 SHR AND DUP8 MSTORE PUSH1 0xC0 DUP12 ADD SWAP9 PUSH1 0x80 SHR PUSH1 0xFF AND ISZERO ISZERO DUP10 MSTORE PUSH1 0x40 MLOAD SWAP12 DUP13 SWAP12 DUP2 DUP14 MSTORE MLOAD SWAP1 DUP13 ADD PUSH1 0xE0 SWAP1 MSTORE PUSH2 0x100 DUP13 ADD PUSH2 0x2956 SWAP2 PUSH2 0x4409 JUMP JUMPDEST SWAP3 MLOAD AND PUSH1 0x40 DUP12 ADD MSTORE MLOAD SWAP1 PUSH1 0x1F NOT SWAP4 DUP5 DUP12 DUP4 SUB ADD SWAP1 DUP12 ADD MSTORE PUSH2 0x2976 SWAP2 PUSH2 0x46F7 JUMP JUMPDEST SWAP1 MLOAD SWAP2 DUP9 DUP3 SUB ADD PUSH1 0x80 DUP10 ADD MSTORE PUSH2 0x298B SWAP2 PUSH2 0x46F7 JUMP JUMPDEST SWAP5 MLOAD AND PUSH1 0xA0 DUP7 ADD MSTORE MLOAD AND PUSH1 0xC0 DUP5 ADD MSTORE MLOAD ISZERO ISZERO PUSH1 0xE0 DUP4 ADD MSTORE SUB SWAP1 RETURN JUMPDEST CALLVALUE PUSH2 0x310 JUMPI PUSH1 0x20 DUP1 PUSH1 0x3 NOT CALLDATASIZE ADD SLT PUSH2 0x310 JUMPI PUSH2 0x1C8 PUSH2 0x29C3 PUSH2 0x43BA JUMP JUMPDEST PUSH2 0x29CB PUSH2 0x4771 JUMP JUMPDEST PUSH1 0x1 PUSH1 0x1 PUSH1 0xA0 SHL SUB AND SWAP2 PUSH2 0x29E0 DUP4 ISZERO ISZERO PUSH2 0x5A9A JUMP JUMPDEST PUSH1 0x0 DUP1 MLOAD PUSH1 0x20 PUSH2 0x5B52 DUP4 CODECOPY DUP2 MLOAD SWAP2 MSTORE DUP1 PUSH1 0x0 MSTORE PUSH1 0x65 DUP3 MSTORE PUSH1 0x40 PUSH1 0x0 KECCAK256 DUP5 PUSH1 0x0 MSTORE DUP3 MSTORE PUSH1 0xFF PUSH1 0x40 PUSH1 0x0 KECCAK256 SLOAD AND ISZERO PUSH2 0x2A4A JUMPI JUMPDEST POP MSTORE PUSH1 0x40 PUSH1 0x0 KECCAK256 PUSH1 0x1 PUSH1 0xFF NOT DUP3 SLOAD AND OR SWAP1 SSTORE PUSH32 0x5E7C881D716BEE8CB7ED92293133BA156704252439E5C502C277448F04E20C2 PUSH1 0x0 DUP1 LOG2 STOP JUMPDEST DUP1 PUSH1 0x0 MSTORE PUSH1 0x65 DUP3 MSTORE PUSH1 0x40 PUSH1 0x0 KECCAK256 DUP5 PUSH1 0x0 MSTORE DUP3 MSTORE PUSH1 0x40 PUSH1 0x0 KECCAK256 PUSH1 0x1 PUSH1 0xFF NOT DUP3 SLOAD AND OR SWAP1 SSTORE DUP4 CALLER SWAP2 PUSH1 0x0 DUP1 MLOAD PUSH1 0x20 PUSH2 0x5AF2 DUP4 CODECOPY DUP2 MLOAD SWAP2 MSTORE PUSH1 0x0 DUP1 LOG4 DUP4 PUSH2 0x2A11 JUMP JUMPDEST CALLVALUE PUSH2 0x310 JUMPI PUSH1 0x20 CALLDATASIZE PUSH1 0x3 NOT ADD SLT PUSH2 0x310 JUMPI PUSH1 0x1 PUSH1 0x1 PUSH1 0xA0 SHL SUB PUSH2 0x2AAA PUSH2 0x43BA JUMP JUMPDEST AND DUP1 ISZERO PUSH2 0x2ACA JUMPI PUSH1 0x0 MSTORE PUSH2 0x130 PUSH1 0x20 MSTORE PUSH1 0x20 PUSH1 0x40 PUSH1 0x0 KECCAK256 SLOAD PUSH1 0x40 MLOAD SWAP1 DUP2 MSTORE RETURN JUMPDEST PUSH1 0x40 MLOAD PUSH3 0x461BCD PUSH1 0xE5 SHL DUP2 MSTORE PUSH1 0x20 PUSH1 0x4 DUP3 ADD MSTORE PUSH1 0x29 PUSH1 0x24 DUP3 ADD MSTORE PUSH32 0x4552433732313A2061646472657373207A65726F206973206E6F742061207661 PUSH1 0x44 DUP3 ADD MSTORE PUSH9 0x3634B21037BBB732B9 PUSH1 0xB9 SHL PUSH1 0x64 DUP3 ADD MSTORE PUSH1 0x84 SWAP1 REVERT JUMPDEST CALLVALUE PUSH2 0x310 JUMPI PUSH2 0x4CF PUSH2 0x103E PUSH2 0x2B77 PUSH2 0x2B38 CALLDATASIZE PUSH2 0x46C4 JUMP JUMPDEST PUSH1 0x0 DUP4 DUP2 MSTORE PUSH2 0x12F PUSH1 0x20 MSTORE PUSH1 0x40 SWAP1 KECCAK256 SLOAD SWAP2 SWAP3 SWAP1 SWAP2 PUSH2 0x2B60 SWAP1 PUSH1 0x1 PUSH1 0x1 PUSH1 0xA0 SHL SUB AND ISZERO ISZERO PUSH2 0x5959 JUMP JUMPDEST PUSH1 0x0 MSTORE PUSH2 0x1C4 PUSH1 0x20 MSTORE PUSH1 0x9 PUSH1 0x40 PUSH1 0x0 KECCAK256 ADD SWAP2 PUSH2 0x570B JUMP JUMPDEST PUSH2 0x459A JUMP JUMPDEST CALLVALUE PUSH2 0x310 JUMPI PUSH1 0x20 CALLDATASIZE PUSH1 0x3 NOT ADD SLT PUSH2 0x310 JUMPI PUSH1 0xA0 PUSH2 0x2BB4 PUSH2 0x2B9D PUSH1 0x4 CALLDATALOAD PUSH2 0x59A4 JUMP JUMPDEST SWAP3 PUSH1 0x40 SWAP6 SWAP2 SWAP5 SWAP6 MLOAD SWAP6 ISZERO ISZERO DUP7 MSTORE PUSH1 0x20 DUP7 ADD SWAP1 PUSH2 0x46B7 JUMP JUMPDEST PUSH1 0x1 PUSH1 0x1 PUSH1 0x40 SHL SUB SWAP3 DUP4 DUP1 SWAP3 AND PUSH1 0x40 DUP7 ADD MSTORE AND PUSH1 0x60 DUP5 ADD MSTORE AND PUSH1 0x80 DUP3 ADD MSTORE RETURN JUMPDEST CALLVALUE PUSH2 0x310 JUMPI PUSH1 0x20 DUP1 PUSH1 0x3 NOT CALLDATASIZE ADD SLT PUSH2 0x310 JUMPI PUSH1 0x4 CALLDATALOAD PUSH1 0x1 PUSH1 0x1 PUSH1 0x40 SHL SUB DUP2 GT PUSH2 0x310 JUMPI PUSH2 0x2C06 DUP3 SWAP2 CALLDATASIZE SWAP1 PUSH1 0x4 ADD PUSH2 0x465A JUMP JUMPDEST SWAP2 SWAP1 DUP3 PUSH1 0x40 MLOAD SWAP4 DUP5 SWAP3 DUP4 CALLDATACOPY DUP2 ADD PUSH2 0x1C6 DUP2 MSTORE SUB ADD SWAP1 KECCAK256 PUSH1 0x40 MLOAD SWAP1 DUP2 DUP4 DUP3 SLOAD SWAP2 DUP3 DUP2 MSTORE ADD SWAP1 DUP2 SWAP3 PUSH1 0x0 MSTORE DUP5 PUSH1 0x0 KECCAK256 SWAP1 PUSH1 0x0 JUMPDEST DUP7 DUP3 DUP3 LT PUSH2 0x2C8D JUMPI DUP7 DUP7 PUSH2 0x2C4D DUP3 DUP9 SUB DUP4 PUSH2 0x44CF JUMP JUMPDEST PUSH1 0x40 MLOAD SWAP3 DUP4 SWAP3 DUP2 DUP5 ADD SWAP1 DUP3 DUP6 MSTORE MLOAD DUP1 SWAP2 MSTORE PUSH1 0x40 DUP5 ADD SWAP3 SWAP2 PUSH1 0x0 JUMPDEST DUP3 DUP2 LT PUSH2 0x2C76 JUMPI POP POP POP POP SUB SWAP1 RETURN JUMPDEST DUP4 MLOAD DUP6 MSTORE DUP7 SWAP6 POP SWAP4 DUP2 ADD SWAP4 SWAP3 DUP2 ADD SWAP3 PUSH1 0x1 ADD PUSH2 0x2C67 JUMP JUMPDEST DUP4 SLOAD DUP6 MSTORE SWAP1 SWAP4 ADD SWAP3 PUSH1 0x1 SWAP3 DUP4 ADD SWAP3 ADD PUSH2 0x2C37 JUMP JUMPDEST CALLVALUE PUSH2 0x310 JUMPI PUSH1 0x20 CALLDATASIZE PUSH1 0x3 NOT ADD SLT PUSH2 0x310 JUMPI PUSH1 0x20 PUSH2 0x2CBF PUSH1 0x4 CALLDATALOAD PUSH2 0x4EE7 JUMP JUMPDEST PUSH1 0x40 MLOAD PUSH1 0x1 PUSH1 0x1 PUSH1 0xA0 SHL SUB SWAP1 SWAP2 AND DUP2 MSTORE RETURN JUMPDEST CALLVALUE PUSH2 0x310 JUMPI PUSH1 0x0 CALLDATASIZE PUSH1 0x3 NOT ADD SLT PUSH2 0x310 JUMPI PUSH1 0x20 PUSH1 0xFF PUSH1 0x97 SLOAD AND PUSH1 0x40 MLOAD SWAP1 ISZERO ISZERO DUP2 MSTORE RETURN JUMPDEST CALLVALUE PUSH2 0x310 JUMPI PUSH1 0x20 CALLDATASIZE PUSH1 0x3 NOT ADD SLT PUSH2 0x310 JUMPI PUSH2 0x2D0D PUSH2 0x4771 JUMP JUMPDEST PUSH1 0x4 CALLDATALOAD PUSH2 0x1CC SSTORE STOP JUMPDEST CALLVALUE PUSH2 0x310 JUMPI PUSH1 0x20 CALLDATASIZE PUSH1 0x3 NOT ADD SLT PUSH2 0x310 JUMPI PUSH1 0x4 CALLDATALOAD PUSH1 0x1 PUSH1 0x1 PUSH1 0x40 SHL SUB DUP2 GT PUSH2 0x310 JUMPI PUSH2 0x2D46 SWAP1 CALLDATASIZE SWAP1 PUSH1 0x4 ADD PUSH2 0x465A JUMP JUMPDEST PUSH2 0x2D4E PUSH2 0x4771 JUMP JUMPDEST DUP1 ISZERO PUSH2 0x2DB0 JUMPI PUSH1 0x40 MLOAD DUP2 DUP4 DUP3 CALLDATACOPY PUSH1 0x20 DUP2 DUP4 DUP2 ADD PUSH2 0x1CB DUP2 MSTORE SUB ADD SWAP1 KECCAK256 PUSH1 0x1 PUSH1 0xFF NOT DUP3 SLOAD AND OR SWAP1 SSTORE DUP1 PUSH1 0x40 MLOAD SWAP3 DUP4 CALLDATACOPY DUP2 ADD SWAP1 PUSH1 0x0 DUP3 MSTORE DUP1 CALLER SWAP3 SUB SWAP1 KECCAK256 PUSH32 0xAB6FEB290431679E31DD219FBC08C1BCEBBFD9A2AE72235D52C08F3A0B318879 PUSH1 0x0 DUP1 LOG3 STOP JUMPDEST PUSH1 0x40 MLOAD PUSH3 0x461BCD PUSH1 0xE5 SHL DUP2 MSTORE PUSH1 0x20 PUSH1 0x4 DUP3 ADD MSTORE PUSH1 0x1E PUSH1 0x24 DUP3 ADD MSTORE PUSH32 0x564352656769737472793A20496E76616C696420736368656D61205552490000 PUSH1 0x44 DUP3 ADD MSTORE PUSH1 0x64 SWAP1 REVERT JUMPDEST CALLVALUE PUSH2 0x310 JUMPI PUSH1 0x0 CALLDATASIZE PUSH1 0x3 NOT ADD SLT PUSH2 0x310 JUMPI PUSH32 0x0 PUSH1 0x1 PUSH1 0x1 PUSH1 0xA0 SHL SUB AND ADDRESS SUB PUSH2 0x2E4E JUMPI PUSH1 0x20 PUSH1 0x40 MLOAD PUSH1 0x0 DUP1 MLOAD PUSH1 0x20 PUSH2 0x5B32 DUP4 CODECOPY DUP2 MLOAD SWAP2 MSTORE DUP2 MSTORE RETURN JUMPDEST PUSH1 0x40 MLOAD PUSH3 0x461BCD PUSH1 0xE5 SHL DUP2 MSTORE PUSH1 0x20 PUSH1 0x4 DUP3 ADD MSTORE PUSH1 0x38 PUSH1 0x24 DUP3 ADD MSTORE PUSH32 0x555550535570677261646561626C653A206D757374206E6F742062652063616C PUSH1 0x44 DUP3 ADD MSTORE PUSH32 0x6C6564207468726F7567682064656C656761746563616C6C0000000000000000 PUSH1 0x64 DUP3 ADD MSTORE PUSH1 0x84 SWAP1 REVERT JUMPDEST PUSH1 0x40 CALLDATASIZE PUSH1 0x3 NOT ADD SLT PUSH2 0x310 JUMPI PUSH2 0x2ECD PUSH2 0x43BA JUMP JUMPDEST PUSH1 0x24 CALLDATALOAD PUSH1 0x1 PUSH1 0x1 PUSH1 0x40 SHL SUB DUP2 GT PUSH2 0x310 JUMPI PUSH2 0x2EEC SWAP1 CALLDATASIZE SWAP1 PUSH1 0x4 ADD PUSH2 0x4542 JUMP JUMPDEST SWAP1 PUSH1 0x1 PUSH1 0x1 PUSH1 0xA0 SHL SUB PUSH32 0x0 DUP2 AND SWAP1 PUSH2 0x2F25 ADDRESS DUP4 EQ ISZERO PUSH2 0x4D49 JUMP JUMPDEST PUSH2 0x2F42 PUSH1 0x0 DUP1 MLOAD PUSH1 0x20 PUSH2 0x5B32 DUP4 CODECOPY DUP2 MLOAD SWAP2 MSTORE SWAP3 DUP3 DUP5 SLOAD AND EQ PUSH2 0x4DAA JUMP JUMPDEST PUSH2 0x2F4A PUSH2 0x493E JUMP JUMPDEST PUSH32 0x4910FDFA16FED3260ED0E7147F7CC6DA11A60208B5B9406D12A635614FFD9143 SLOAD PUSH1 0xFF AND ISZERO PUSH2 0x2F80 JUMPI POP POP PUSH2 0x622 SWAP2 POP PUSH2 0x4E0B JUMP JUMPDEST PUSH1 0x40 MLOAD PUSH4 0x52D1902D PUSH1 0xE0 SHL DUP2 MSTORE PUSH1 0x20 SWAP4 SWAP3 SWAP2 DUP4 AND SWAP2 SWAP1 DUP5 DUP2 PUSH1 0x4 DUP2 DUP7 GAS STATICCALL PUSH1 0x0 SWAP2 DUP2 PUSH2 0x310D JUMPI JUMPDEST POP PUSH2 0x3008 JUMPI PUSH1 0x40 MLOAD PUSH3 0x461BCD PUSH1 0xE5 SHL DUP2 MSTORE PUSH1 0x4 DUP2 ADD DUP7 SWAP1 MSTORE PUSH1 0x2E PUSH1 0x24 DUP3 ADD MSTORE PUSH32 0x45524331393637557067726164653A206E657720696D706C656D656E74617469 PUSH1 0x44 DUP3 ADD MSTORE PUSH14 0x6F6E206973206E6F742055555053 PUSH1 0x90 SHL PUSH1 0x64 DUP3 ADD MSTORE PUSH1 0x84 SWAP1 REVERT JUMPDEST SUB PUSH2 0x30B6 JUMPI PUSH2 0x3016 DUP3 PUSH2 0x4E0B JUMP JUMPDEST PUSH32 0xBC7CD75A20EE27FD9ADEBAB32041F755214DBC6BFFA90CC0225B39DA2E5C2D3B PUSH1 0x0 DUP1 LOG2 DUP3 MLOAD ISZERO DUP1 ISZERO SWAP1 PUSH2 0x30AE JUMPI JUMPDEST PUSH2 0x304C JUMPI STOP JUMPDEST PUSH1 0x0 DUP1 PUSH2 0x622 SWAP5 PUSH1 0x40 MLOAD SWAP5 PUSH2 0x3060 DUP7 PUSH2 0x4499 JUMP JUMPDEST PUSH1 0x27 DUP7 MSTORE PUSH32 0x416464726573733A206C6F772D6C6576656C2064656C65676174652063616C6C DUP2 DUP8 ADD MSTORE PUSH7 0x819985A5B1959 PUSH1 0xCA SHL PUSH1 0x40 DUP8 ADD MSTORE DUP2 MLOAD SWAP2 ADD DUP5 GAS DELEGATECALL PUSH2 0x30A8 PUSH2 0x5343 JUMP JUMPDEST SWAP2 PUSH2 0x54E9 JUMP JUMPDEST POP PUSH1 0x1 PUSH2 0x3046 JUMP JUMPDEST PUSH1 0x40 MLOAD PUSH3 0x461BCD PUSH1 0xE5 SHL DUP2 MSTORE PUSH1 0x4 DUP2 ADD DUP5 SWAP1 MSTORE PUSH1 0x29 PUSH1 0x24 DUP3 ADD MSTORE PUSH32 0x45524331393637557067726164653A20756E737570706F727465642070726F78 PUSH1 0x44 DUP3 ADD MSTORE PUSH9 0x1A58589B1955555251 PUSH1 0xBA SHL PUSH1 0x64 DUP3 ADD MSTORE PUSH1 0x84 SWAP1 REVERT JUMPDEST SWAP1 SWAP2 POP DUP6 DUP2 DUP2 RETURNDATASIZE DUP4 GT PUSH2 0x3135 JUMPI JUMPDEST PUSH2 0x3125 DUP2 DUP4 PUSH2 0x44CF JUMP JUMPDEST DUP2 ADD SUB SLT PUSH2 0x310 JUMPI MLOAD SWAP1 DUP8 PUSH2 0x2FA7 JUMP JUMPDEST POP RETURNDATASIZE PUSH2 0x311B JUMP JUMPDEST CALLVALUE PUSH2 0x310 JUMPI PUSH1 0x20 CALLDATASIZE PUSH1 0x3 NOT ADD SLT PUSH2 0x310 JUMPI PUSH1 0x4 CALLDATALOAD PUSH1 0x0 MSTORE PUSH2 0x1C5 PUSH1 0x20 MSTORE PUSH1 0x20 PUSH1 0x40 PUSH1 0x0 KECCAK256 SLOAD PUSH1 0x40 MLOAD SWAP1 DUP2 MSTORE RETURN JUMPDEST CALLVALUE PUSH2 0x310 JUMPI PUSH2 0x622 PUSH2 0xAE5 PUSH2 0x317D CALLDATASIZE PUSH2 0x442E JUMP JUMPDEST SWAP1 PUSH1 0x40 MLOAD SWAP3 PUSH2 0x318B DUP5 PUSH2 0x447E JUMP JUMPDEST PUSH1 0x0 DUP5 MSTORE PUSH2 0xAD5 PUSH2 0xAD0 DUP5 CALLER PUSH2 0x5020 JUMP JUMPDEST CALLVALUE PUSH2 0x310 JUMPI PUSH1 0x0 CALLDATASIZE PUSH1 0x3 NOT ADD SLT PUSH2 0x310 JUMPI PUSH2 0x31B5 PUSH2 0x4771 JUMP JUMPDEST PUSH1 0x97 SLOAD PUSH1 0xFF DUP2 AND ISZERO PUSH2 0x31F4 JUMPI PUSH1 0xFF NOT AND PUSH1 0x97 SSTORE PUSH32 0x5DB9EE0A495BF2E6FF9C91A7834C1BA4FDD244A5E8AA4E537BD38AEAE4B073AA PUSH1 0x20 PUSH1 0x40 MLOAD CALLER DUP2 MSTORE LOG1 STOP JUMPDEST PUSH1 0x40 MLOAD PUSH3 0x461BCD PUSH1 0xE5 SHL DUP2 MSTORE PUSH1 0x20 PUSH1 0x4 DUP3 ADD MSTORE PUSH1 0x14 PUSH1 0x24 DUP3 ADD MSTORE PUSH20 0x14185D5CD8589B194E881B9BDD081C185D5CD959 PUSH1 0x62 SHL PUSH1 0x44 DUP3 ADD MSTORE PUSH1 0x64 SWAP1 REVERT JUMPDEST CALLVALUE PUSH2 0x310 JUMPI PUSH1 0x80 CALLDATASIZE PUSH1 0x3 NOT ADD SLT PUSH2 0x310 JUMPI PUSH1 0x4 CALLDATALOAD PUSH1 0x1 PUSH1 0x1 PUSH1 0x40 SHL SUB DUP2 GT PUSH2 0x310 JUMPI PUSH2 0x3260 SWAP1 CALLDATASIZE SWAP1 PUSH1 0x4 ADD PUSH2 0x465A JUMP JUMPDEST PUSH2 0x3268 PUSH2 0x43D0 JUMP JUMPDEST SWAP2 PUSH1 0x44 CALLDATALOAD PUSH1 0x1 PUSH1 0x1 PUSH1 0x40 SHL SUB DUP2 GT PUSH2 0x310 JUMPI PUSH2 0x3288 SWAP1 CALLDATASIZE SWAP1 PUSH1 0x4 ADD PUSH2 0x4687 JUMP JUMPDEST SWAP1 PUSH1 0x64 CALLDATALOAD PUSH1 0x1 PUSH1 0x1 PUSH1 0x40 SHL SUB DUP2 GT PUSH2 0x310 JUMPI PUSH2 0x32A8 SWAP1 CALLDATASIZE SWAP1 PUSH1 0x4 ADD PUSH2 0x4687 JUMP JUMPDEST SWAP2 SWAP1 PUSH2 0x32B2 PUSH2 0x583A JUMP JUMPDEST PUSH2 0x32BA PUSH2 0x4A83 JUMP JUMPDEST DUP6 ISZERO PUSH2 0x37EE JUMPI PUSH1 0x1 PUSH1 0x1 PUSH1 0xA0 SHL SUB DUP8 AND ISZERO PUSH2 0x37A9 JUMPI PUSH1 0x40 MLOAD SWAP3 DUP7 DUP7 DUP6 CALLDATACOPY PUSH1 0xFF PUSH1 0x4 DUP9 DUP7 ADD SWAP6 PUSH1 0x20 DUP2 PUSH2 0x1C7 SWAP9 DUP10 DUP2 MSTORE SUB ADD SWAP1 KECCAK256 ADD SLOAD PUSH1 0x80 SHR AND PUSH2 0x3759 JUMPI PUSH2 0x332E PUSH2 0x333A SWAP4 PUSH1 0x40 MLOAD SWAP7 PUSH2 0x330B DUP9 PUSH2 0x4463 JUMP JUMPDEST PUSH2 0x3316 CALLDATASIZE DUP12 DUP12 PUSH2 0x450B JUMP JUMPDEST DUP9 MSTORE PUSH1 0x1 PUSH1 0x1 PUSH1 0xA0 SHL SUB DUP12 AND PUSH1 0x20 DUP10 ADD MSTORE CALLDATASIZE SWAP2 PUSH2 0x573B JUMP JUMPDEST PUSH1 0x40 DUP7 ADD MSTORE CALLDATASIZE SWAP2 PUSH2 0x573B JUMP JUMPDEST PUSH1 0x60 DUP4 ADD MSTORE PUSH1 0x1 PUSH1 0x1 PUSH1 0x40 SHL SUB TIMESTAMP AND PUSH1 0x80 DUP4 ADD MSTORE PUSH1 0x1 PUSH1 0x1 PUSH1 0x40 SHL SUB TIMESTAMP AND PUSH1 0xA0 DUP4 ADD MSTORE PUSH1 0x1 PUSH1 0xC0 DUP4 ADD MSTORE PUSH1 0x20 PUSH1 0x40 MLOAD DUP1 SWAP3 DUP7 DUP7 DUP4 CALLDATACOPY DUP7 DUP3 ADD SWAP1 DUP2 MSTORE SUB ADD SWAP1 KECCAK256 DUP2 MLOAD DUP1 MLOAD SWAP1 PUSH1 0x1 PUSH1 0x1 PUSH1 0x40 SHL SUB DUP3 GT PUSH2 0x938 JUMPI DUP2 SWAP1 PUSH2 0x33A2 DUP3 PUSH2 0x339C DUP7 SLOAD PUSH2 0x4560 JUMP JUMPDEST DUP7 PUSH2 0x56D1 JUMP JUMPDEST PUSH1 0x20 SWAP1 PUSH1 0x1F DUP4 GT PUSH1 0x1 EQ PUSH2 0x36ED JUMPI PUSH1 0x0 SWAP3 PUSH2 0x36E2 JUMPI JUMPDEST POP POP DUP2 PUSH1 0x1 SHL SWAP2 PUSH1 0x0 NOT SWAP1 PUSH1 0x3 SHL SHR NOT AND OR DUP2 SSTORE JUMPDEST PUSH1 0x1 DUP2 ADD PUSH1 0x1 DUP1 PUSH1 0xA0 SHL SUB PUSH1 0x20 DUP5 ADD MLOAD AND PUSH12 0xFFFFFFFFFFFFFFFFFFFFFFFF PUSH1 0xA0 SHL DUP3 SLOAD AND OR SWAP1 SSTORE PUSH1 0x2 DUP2 ADD PUSH1 0x40 DUP4 ADD MLOAD PUSH1 0x20 DUP2 MLOAD SWAP2 PUSH2 0x340C DUP4 DUP6 PUSH2 0x57AA JUMP JUMPDEST ADD SWAP2 PUSH1 0x0 MSTORE PUSH1 0x20 PUSH1 0x0 KECCAK256 SWAP2 PUSH1 0x0 SWAP1 JUMPDEST DUP3 DUP3 LT PUSH2 0x3605 JUMPI POP POP POP POP PUSH1 0x3 DUP2 ADD PUSH1 0x60 DUP4 ADD MLOAD PUSH1 0x20 DUP2 MLOAD SWAP2 PUSH2 0x343E DUP4 DUP6 PUSH2 0x57AA JUMP JUMPDEST ADD SWAP2 PUSH1 0x0 MSTORE PUSH1 0x20 PUSH1 0x0 KECCAK256 SWAP2 PUSH1 0x0 SWAP1 JUMPDEST DUP3 DUP3 LT PUSH2 0x3522 JUMPI POP POP POP POP PUSH1 0x4 PUSH1 0xC0 SWAP2 ADD SWAP2 PUSH1 0x1 PUSH1 0x1 PUSH1 0x40 SHL SUB PUSH1 0x80 DUP3 ADD MLOAD AND PUSH1 0x1 PUSH1 0x1 PUSH1 0x40 SHL SUB NOT DUP5 SLOAD AND OR DUP4 SSTORE PUSH2 0x34B6 PUSH1 0x1 PUSH1 0x1 PUSH1 0x40 SHL SUB PUSH1 0xA0 DUP4 ADD MLOAD AND DUP5 SWAP1 PUSH8 0xFFFFFFFFFFFFFFFF PUSH1 0x40 SHL DUP3 SLOAD SWAP2 PUSH1 0x40 SHL AND SWAP1 PUSH8 0xFFFFFFFFFFFFFFFF PUSH1 0x40 SHL NOT AND OR SWAP1 SSTORE JUMP JUMPDEST ADD MLOAD DUP2 SLOAD PUSH1 0xFF PUSH1 0x80 SHL NOT AND SWAP1 ISZERO ISZERO PUSH1 0x80 SHL PUSH1 0xFF PUSH1 0x80 SHL AND OR SWAP1 SSTORE PUSH1 0x40 MLOAD SWAP2 DUP3 SWAP2 DUP2 SWAP1 DUP4 CALLDATACOPY DUP2 ADD PUSH1 0x0 DUP2 MSTORE SUB SWAP1 KECCAK256 PUSH32 0x55122E217E812164E89F85AC57CED9D6A1E7D39533E5F921CBB1489F04F51813 PUSH1 0x20 PUSH1 0x40 MLOAD SWAP4 PUSH1 0x1 PUSH1 0x1 PUSH1 0x40 SHL SUB TIMESTAMP AND DUP6 MSTORE PUSH1 0x1 DUP1 PUSH1 0xA0 SHL SUB AND SWAP4 LOG3 STOP JUMPDEST DUP1 MLOAD DUP1 MLOAD SWAP1 PUSH1 0x1 PUSH1 0x1 PUSH1 0x40 SHL SUB DUP3 GT PUSH2 0x938 JUMPI PUSH2 0x3549 DUP3 PUSH2 0x3543 DUP9 SLOAD PUSH2 0x4560 JUMP JUMPDEST DUP9 PUSH2 0x56D1 JUMP JUMPDEST PUSH1 0x20 SWAP1 PUSH1 0x1F DUP4 GT PUSH1 0x1 EQ PUSH2 0x3595 JUMPI SWAP3 DUP3 PUSH1 0x1 SWAP5 SWAP4 PUSH1 0x20 SWAP4 DUP7 SWAP6 PUSH1 0x0 SWAP3 PUSH2 0x358A JUMPI JUMPDEST POP POP PUSH1 0x0 NOT PUSH1 0x3 DUP4 SWAP1 SHL SHR NOT AND SWAP1 DUP5 SHL OR DUP8 SSTORE JUMPDEST ADD SWAP5 ADD SWAP2 ADD SWAP1 SWAP3 PUSH2 0x344D JUMP JUMPDEST ADD MLOAD SWAP1 POP DUP15 DUP1 PUSH2 0x356A JUMP JUMPDEST SWAP1 DUP7 PUSH1 0x0 MSTORE PUSH1 0x20 PUSH1 0x0 KECCAK256 SWAP2 PUSH1 0x0 JUMPDEST PUSH1 0x1F NOT DUP6 AND DUP2 LT PUSH2 0x35ED JUMPI POP DUP4 PUSH1 0x20 SWAP4 PUSH1 0x1 SWAP7 SWAP4 DUP8 SWAP7 SWAP4 DUP8 SWAP5 PUSH1 0x1F NOT DUP2 AND LT PUSH2 0x35D4 JUMPI JUMPDEST POP POP POP DUP2 SHL ADD DUP8 SSTORE PUSH2 0x357E JUMP JUMPDEST ADD MLOAD PUSH1 0x0 NOT PUSH1 0xF8 DUP5 PUSH1 0x3 SHL AND SHR NOT AND SWAP1 SSTORE DUP15 DUP1 DUP1 PUSH2 0x35C7 JUMP JUMPDEST SWAP2 SWAP3 PUSH1 0x20 PUSH1 0x1 DUP2 SWAP3 DUP7 DUP6 ADD MLOAD DUP2 SSTORE ADD SWAP5 ADD SWAP3 ADD PUSH2 0x35A3 JUMP JUMPDEST DUP1 MLOAD DUP1 MLOAD SWAP1 PUSH1 0x1 PUSH1 0x1 PUSH1 0x40 SHL SUB DUP3 GT PUSH2 0x938 JUMPI PUSH2 0x3626 DUP3 PUSH2 0x3543 DUP9 SLOAD PUSH2 0x4560 JUMP JUMPDEST PUSH1 0x20 SWAP1 PUSH1 0x1F DUP4 GT PUSH1 0x1 EQ PUSH2 0x3672 JUMPI SWAP3 DUP3 PUSH1 0x1 SWAP5 SWAP4 PUSH1 0x20 SWAP4 DUP7 SWAP6 PUSH1 0x0 SWAP3 PUSH2 0x3667 JUMPI JUMPDEST POP POP PUSH1 0x0 NOT PUSH1 0x3 DUP4 SWAP1 SHL SHR NOT AND SWAP1 DUP5 SHL OR DUP8 SSTORE JUMPDEST ADD SWAP5 ADD SWAP2 ADD SWAP1 SWAP3 PUSH2 0x341B JUMP JUMPDEST ADD MLOAD SWAP1 POP DUP15 DUP1 PUSH2 0x3647 JUMP JUMPDEST SWAP1 DUP7 PUSH1 0x0 MSTORE PUSH1 0x20 PUSH1 0x0 KECCAK256 SWAP2 PUSH1 0x0 JUMPDEST PUSH1 0x1F NOT DUP6 AND DUP2 LT PUSH2 0x36CA JUMPI POP DUP4 PUSH1 0x20 SWAP4 PUSH1 0x1 SWAP7 SWAP4 DUP8 SWAP7 SWAP4 DUP8 SWAP5 PUSH1 0x1F NOT DUP2 AND LT PUSH2 0x36B1 JUMPI JUMPDEST POP POP POP DUP2 SHL ADD DUP8 SSTORE PUSH2 0x365B JUMP JUMPDEST ADD MLOAD PUSH1 0x0 NOT PUSH1 0xF8 DUP5 PUSH1 0x3 SHL AND SHR NOT AND SWAP1 SSTORE DUP15 DUP1 DUP1 PUSH2 0x36A4 JUMP JUMPDEST SWAP2 SWAP3 PUSH1 0x20 PUSH1 0x1 DUP2 SWAP3 DUP7 DUP6 ADD MLOAD DUP2 SSTORE ADD SWAP5 ADD SWAP3 ADD PUSH2 0x3680 JUMP JUMPDEST ADD MLOAD SWAP1 POP DUP8 DUP1 PUSH2 0x33B8 JUMP JUMPDEST SWAP3 POP DUP4 PUSH1 0x0 MSTORE PUSH1 0x20 PUSH1 0x0 KECCAK256 SWAP1 PUSH1 0x0 SWAP4 JUMPDEST PUSH1 0x1F NOT DUP5 AND DUP6 LT PUSH2 0x373E JUMPI PUSH1 0x1 SWAP5 POP DUP4 PUSH1 0x1F NOT DUP2 AND LT PUSH2 0x3725 JUMPI JUMPDEST POP POP POP DUP2 SHL ADD DUP2 SSTORE PUSH2 0x33CD JUMP JUMPDEST ADD MLOAD PUSH1 0x0 NOT PUSH1 0xF8 DUP5 PUSH1 0x3 SHL AND SHR NOT AND SWAP1 SSTORE DUP8 DUP1 DUP1 PUSH2 0x3718 JUMP JUMPDEST DUP2 DUP2 ADD MLOAD DUP4 SSTORE PUSH1 0x20 SWAP5 DUP6 ADD SWAP5 PUSH1 0x1 SWAP1 SWAP4 ADD SWAP3 SWAP1 SWAP2 ADD SWAP1 PUSH2 0x36FD JUMP JUMPDEST PUSH1 0x40 MLOAD PUSH3 0x461BCD PUSH1 0xE5 SHL DUP2 MSTORE PUSH1 0x20 PUSH1 0x4 DUP3 ADD MSTORE PUSH1 0x22 PUSH1 0x24 DUP3 ADD MSTORE PUSH32 0x564352656769737472793A2044494420616C7265616479207265676973746572 PUSH1 0x44 DUP3 ADD MSTORE PUSH2 0x1959 PUSH1 0xF2 SHL PUSH1 0x64 DUP3 ADD MSTORE PUSH1 0x84 SWAP1 REVERT JUMPDEST PUSH1 0x40 MLOAD PUSH3 0x461BCD PUSH1 0xE5 SHL DUP2 MSTORE PUSH1 0x20 PUSH1 0x4 DUP3 ADD MSTORE PUSH1 0x1E PUSH1 0x24 DUP3 ADD MSTORE PUSH32 0x564352656769737472793A20496E76616C696420636F6E74726F6C6C65720000 PUSH1 0x44 DUP3 ADD MSTORE PUSH1 0x64 SWAP1 REVERT JUMPDEST PUSH1 0x40 MLOAD PUSH3 0x461BCD PUSH1 0xE5 SHL DUP2 MSTORE PUSH1 0x20 PUSH1 0x4 DUP3 ADD MSTORE PUSH1 0x17 PUSH1 0x24 DUP3 ADD MSTORE PUSH32 0x564352656769737472793A20496E76616C696420444944000000000000000000 PUSH1 0x44 DUP3 ADD MSTORE PUSH1 0x64 SWAP1 REVERT JUMPDEST CALLVALUE PUSH2 0x310 JUMPI PUSH1 0x20 DUP1 PUSH1 0x3 NOT CALLDATASIZE ADD SLT PUSH2 0x310 JUMPI PUSH1 0x1 PUSH1 0x1 PUSH1 0x40 SHL SUB PUSH1 0x4 CALLDATALOAD DUP2 DUP2 GT PUSH2 0x310 JUMPI PUSH2 0x3865 SWAP1 CALLDATASIZE SWAP1 PUSH1 0x4 ADD PUSH2 0x465A JUMP JUMPDEST PUSH2 0x3870 SWAP4 SWAP2 SWAP4 PUSH2 0x583A JUMP JUMPDEST PUSH2 0x3878 PUSH2 0x4A83 JUMP JUMPDEST PUSH1 0x40 MLOAD SWAP3 DUP2 DUP6 DUP6 CALLDATACOPY PUSH1 0xFF PUSH1 0x4 DUP4 DUP7 ADD SWAP6 DUP6 DUP2 PUSH2 0x1C7 SWAP9 DUP10 DUP2 MSTORE SUB ADD SWAP1 KECCAK256 ADD SLOAD PUSH1 0x80 SHR AND ISZERO PUSH2 0x3966 JUMPI SWAP1 PUSH32 0x3B0AFF36A36AE2BA995CDBA3733206F9438955E2E295C8662DF5CF21FC2AC5CF SWAP3 SWAP2 PUSH1 0x4 PUSH1 0x40 MLOAD DUP4 DUP9 DUP3 CALLDATACOPY DUP5 DUP2 DUP6 DUP2 ADD DUP10 DUP2 MSTORE SUB ADD SWAP1 KECCAK256 ADD PUSH1 0xFF PUSH1 0x80 SHL NOT DUP2 SLOAD AND SWAP1 SSTORE TIMESTAMP AND SWAP4 PUSH2 0x392A DUP6 PUSH1 0x4 PUSH1 0x40 MLOAD DUP6 DUP11 DUP3 CALLDATACOPY DUP7 DUP2 DUP8 DUP2 ADD DUP8 DUP2 MSTORE SUB ADD SWAP1 KECCAK256 ADD SWAP1 PUSH8 0xFFFFFFFFFFFFFFFF PUSH1 0x40 SHL DUP3 SLOAD SWAP2 PUSH1 0x40 SHL AND SWAP1 PUSH8 0xFFFFFFFFFFFFFFFF PUSH1 0x40 SHL NOT AND OR SWAP1 SSTORE JUMP JUMPDEST PUSH1 0x1 PUSH1 0x40 MLOAD DUP4 DUP9 DUP3 CALLDATACOPY DUP4 DUP2 ADD SWAP3 DUP4 MSTORE DUP5 DUP2 DUP4 DUP1 PUSH1 0xA0 SHL SUB SWAP5 SUB ADD SWAP1 KECCAK256 ADD SLOAD AND SWAP5 DUP2 PUSH1 0x40 MLOAD SWAP3 DUP4 SWAP3 DUP4 CALLDATACOPY DUP2 ADD PUSH1 0x0 DUP2 MSTORE SUB SWAP1 KECCAK256 SWAP3 PUSH1 0x40 MLOAD SWAP1 DUP2 MSTORE LOG3 STOP JUMPDEST PUSH1 0x40 MLOAD PUSH3 0x461BCD PUSH1 0xE5 SHL DUP2 MSTORE PUSH1 0x4 DUP2 ADD DUP5 SWAP1 MSTORE PUSH1 0x1A PUSH1 0x24 DUP3 ADD MSTORE PUSH32 0x564352656769737472793A20444944206E6F7420616374697665000000000000 PUSH1 0x44 DUP3 ADD MSTORE PUSH1 0x64 SWAP1 REVERT JUMPDEST CALLVALUE PUSH2 0x310 JUMPI PUSH1 0x20 CALLDATASIZE PUSH1 0x3 NOT ADD SLT PUSH2 0x310 JUMPI PUSH1 0x4 CALLDATALOAD PUSH1 0x1 PUSH1 0x1 PUSH1 0x40 SHL SUB DUP2 GT PUSH2 0x310 JUMPI PUSH1 0xFF PUSH2 0x39F6 PUSH1 0x20 PUSH2 0x39E3 DUP2 SWAP5 CALLDATASIZE SWAP1 PUSH1 0x4 ADD PUSH2 0x4542 JUMP JUMPDEST DUP2 PUSH1 0x40 MLOAD SWAP4 DUP3 DUP6 DUP1 SWAP5 MLOAD SWAP4 DUP5 SWAP3 ADD PUSH2 0x43E6 JUMP JUMPDEST DUP2 ADD PUSH2 0x1CB DUP2 MSTORE SUB ADD SWAP1 KECCAK256 SLOAD AND PUSH1 0x40 MLOAD SWAP1 ISZERO ISZERO DUP2 MSTORE RETURN JUMPDEST CALLVALUE PUSH2 0x310 JUMPI PUSH1 0x20 DUP1 PUSH1 0x3 NOT CALLDATASIZE ADD SLT PUSH2 0x310 JUMPI PUSH2 0x3A27 PUSH2 0x43BA JUMP JUMPDEST PUSH1 0x1 PUSH1 0x1 PUSH1 0xA0 SHL SUB SWAP2 PUSH32 0x0 DUP4 AND PUSH2 0x3A5F ADDRESS DUP3 EQ ISZERO PUSH2 0x4D49 JUMP JUMPDEST PUSH2 0x3A7C PUSH1 0x0 DUP1 MLOAD PUSH1 0x20 PUSH2 0x5B32 DUP4 CODECOPY DUP2 MLOAD SWAP2 MSTORE SWAP2 DUP6 DUP4 SLOAD AND EQ PUSH2 0x4DAA JUMP JUMPDEST PUSH2 0x3A84 PUSH2 0x493E JUMP JUMPDEST PUSH1 0x40 MLOAD SWAP4 PUSH2 0x3A91 DUP6 PUSH2 0x447E JUMP JUMPDEST PUSH1 0x0 DUP6 MSTORE PUSH32 0x4910FDFA16FED3260ED0E7147F7CC6DA11A60208B5B9406D12A635614FFD9143 SLOAD PUSH1 0xFF AND ISZERO PUSH2 0x3ACC JUMPI POP POP POP PUSH2 0x622 SWAP2 POP PUSH2 0x4E0B JUMP JUMPDEST DUP4 SWAP3 SWAP4 AND SWAP1 PUSH1 0x40 MLOAD PUSH4 0x52D1902D PUSH1 0xE0 SHL DUP2 MSTORE DUP5 DUP2 PUSH1 0x4 DUP2 DUP7 GAS STATICCALL PUSH1 0x0 SWAP2 DUP2 PUSH2 0x3B9B JUMPI JUMPDEST POP PUSH2 0x3B50 JUMPI PUSH1 0x40 MLOAD PUSH3 0x461BCD PUSH1 0xE5 SHL DUP2 MSTORE PUSH1 0x4 DUP2 ADD DUP7 SWAP1 MSTORE PUSH1 0x2E PUSH1 0x24 DUP3 ADD MSTORE PUSH32 0x45524331393637557067726164653A206E657720696D706C656D656E74617469 PUSH1 0x44 DUP3 ADD MSTORE PUSH14 0x6F6E206973206E6F742055555053 PUSH1 0x90 SHL PUSH1 0x64 DUP3 ADD MSTORE PUSH1 0x84 SWAP1 REVERT JUMPDEST SUB PUSH2 0x30B6 JUMPI PUSH2 0x3B5E DUP3 PUSH2 0x4E0B JUMP JUMPDEST PUSH32 0xBC7CD75A20EE27FD9ADEBAB32041F755214DBC6BFFA90CC0225B39DA2E5C2D3B PUSH1 0x0 DUP1 LOG2 DUP3 MLOAD ISZERO DUP1 ISZERO SWAP1 PUSH2 0x3B93 JUMPI PUSH2 0x304C JUMPI STOP JUMPDEST POP PUSH1 0x0 PUSH2 0x3046 JUMP JUMPDEST SWAP1 SWAP2 POP DUP6 DUP2 DUP2 RETURNDATASIZE DUP4 GT PUSH2 0x3BC3 JUMPI JUMPDEST PUSH2 0x3BB3 DUP2 DUP4 PUSH2 0x44CF JUMP JUMPDEST DUP2 ADD SUB SLT PUSH2 0x310 JUMPI MLOAD SWAP1 DUP8 PUSH2 0x3AEF JUMP JUMPDEST POP RETURNDATASIZE PUSH2 0x3BA9 JUMP JUMPDEST CALLVALUE PUSH2 0x310 JUMPI PUSH1 0x40 CALLDATASIZE PUSH1 0x3 NOT ADD SLT PUSH2 0x310 JUMPI PUSH2 0x3BE3 PUSH2 0x43D0 JUMP JUMPDEST CALLER PUSH1 0x1 PUSH1 0x1 PUSH1 0xA0 SHL SUB DUP3 AND SUB PUSH2 0x3BFF JUMPI PUSH2 0x622 SWAP1 PUSH1 0x4 CALLDATALOAD PUSH2 0x4CD3 JUMP JUMPDEST PUSH1 0x40 MLOAD PUSH3 0x461BCD PUSH1 0xE5 SHL DUP2 MSTORE PUSH1 0x20 PUSH1 0x4 DUP3 ADD MSTORE PUSH1 0x2F PUSH1 0x24 DUP3 ADD MSTORE PUSH32 0x416363657373436F6E74726F6C3A2063616E206F6E6C792072656E6F756E6365 PUSH1 0x44 DUP3 ADD MSTORE PUSH15 0x103937B632B9903337B91039B2B633 PUSH1 0x89 SHL PUSH1 0x64 DUP3 ADD MSTORE PUSH1 0x84 SWAP1 REVERT JUMPDEST CALLVALUE PUSH2 0x310 JUMPI PUSH1 0x20 CALLDATASIZE PUSH1 0x3 NOT ADD SLT PUSH2 0x310 JUMPI PUSH1 0x4 CALLDATALOAD PUSH1 0x7 DUP2 LT ISZERO PUSH2 0x310 JUMPI PUSH2 0x3C84 PUSH1 0x20 SWAP2 PUSH2 0x4640 JUMP JUMPDEST SLOAD PUSH1 0x40 MLOAD SWAP1 DUP2 MSTORE RETURN JUMPDEST CALLVALUE PUSH2 0x310 JUMPI PUSH1 0x20 CALLDATASIZE PUSH1 0x3 NOT ADD SLT PUSH2 0x310 JUMPI PUSH2 0x3CA6 PUSH2 0x43BA JUMP JUMPDEST PUSH1 0x1 PUSH1 0x1 PUSH1 0xA0 SHL SUB AND PUSH1 0x0 SWAP1 DUP2 MSTORE PUSH32 0xDC90190C5595698A8D1DF3DF5E997A1C14CDDCEE1E8A77F4EB097988BDBD877E PUSH1 0x20 SWAP1 DUP2 MSTORE PUSH1 0x40 SWAP2 DUP3 SWAP1 KECCAK256 SLOAD SWAP2 MLOAD PUSH1 0xFF SWAP1 SWAP3 AND ISZERO ISZERO DUP3 MSTORE SWAP1 RETURN JUMPDEST CALLVALUE PUSH2 0x310 JUMPI PUSH1 0x40 CALLDATASIZE PUSH1 0x3 NOT ADD SLT PUSH2 0x310 JUMPI PUSH1 0x4 CALLDATALOAD PUSH2 0x3D0B PUSH2 0x43D0 JUMP JUMPDEST DUP2 PUSH1 0x0 MSTORE PUSH1 0x65 PUSH1 0x20 MSTORE PUSH2 0x3D25 PUSH1 0x1 PUSH1 0x40 PUSH1 0x0 KECCAK256 ADD SLOAD PUSH2 0x4BC8 JUMP JUMPDEST DUP2 PUSH1 0x0 MSTORE PUSH1 0x65 PUSH1 0x20 MSTORE PUSH1 0x40 PUSH1 0x0 KECCAK256 SWAP1 PUSH1 0x1 DUP1 PUSH1 0xA0 SHL SUB AND SWAP1 DUP2 PUSH1 0x0 MSTORE PUSH1 0x20 MSTORE PUSH1 0xFF PUSH1 0x40 PUSH1 0x0 KECCAK256 SLOAD AND ISZERO PUSH2 0x3D54 JUMPI STOP JUMPDEST DUP2 PUSH1 0x0 MSTORE PUSH1 0x65 PUSH1 0x20 MSTORE PUSH1 0x40 PUSH1 0x0 KECCAK256 DUP2 PUSH1 0x0 MSTORE PUSH1 0x20 MSTORE PUSH1 0x40 PUSH1 0x0 KECCAK256 PUSH1 0x1 PUSH1 0xFF NOT DUP3 SLOAD AND OR SWAP1 SSTORE CALLER SWAP2 PUSH1 0x0 DUP1 MLOAD PUSH1 0x20 PUSH2 0x5AF2 DUP4 CODECOPY DUP2 MLOAD SWAP2 MSTORE PUSH1 0x0 DUP1 LOG4 STOP JUMPDEST CALLVALUE PUSH2 0x310 JUMPI PUSH1 0x20 CALLDATASIZE PUSH1 0x3 NOT ADD SLT PUSH2 0x310 JUMPI PUSH1 0x4 CALLDATALOAD DUP1 ISZERO ISZERO DUP1 SWAP2 SUB PUSH2 0x310 JUMPI PUSH2 0x3DB6 PUSH2 0x4771 JUMP JUMPDEST PUSH2 0x1CE SWAP1 PUSH1 0xFF DUP1 NOT DUP4 SLOAD AND SWAP2 AND OR SWAP1 SSTORE PUSH1 0x0 DUP1 RETURN JUMPDEST CALLVALUE PUSH2 0x310 JUMPI PUSH1 0x0 CALLDATASIZE PUSH1 0x3 NOT ADD SLT PUSH2 0x310 JUMPI PUSH1 0x20 PUSH1 0x40 MLOAD PUSH32 0xA4057A4B1AB9AB5267DD02CA73E655DDEBC38467F166BBA2FAA7A1E160DC900F DUP2 MSTORE RETURN JUMPDEST CALLVALUE PUSH2 0x310 JUMPI PUSH1 0x20 CALLDATASIZE PUSH1 0x3 NOT ADD SLT PUSH2 0x310 JUMPI PUSH1 0x4 CALLDATALOAD PUSH1 0x1 PUSH1 0x1 PUSH1 0x40 SHL SUB DUP1 DUP3 GT PUSH2 0x310 JUMPI PUSH2 0x3E3F PUSH1 0x20 PUSH2 0x39E3 PUSH2 0x3E7D SWAP5 CALLDATASIZE SWAP1 PUSH1 0x4 ADD PUSH2 0x4542 JUMP JUMPDEST DUP2 ADD PUSH2 0x1C7 DUP2 MSTORE SUB ADD SWAP1 KECCAK256 PUSH1 0xFF PUSH2 0x3E55 DUP3 PUSH2 0x459A JUMP JUMPDEST SWAP3 PUSH1 0x4 PUSH1 0x1 DUP1 PUSH1 0xA0 SHL SUB PUSH1 0x1 DUP6 ADD SLOAD AND SWAP4 ADD SLOAD SWAP1 PUSH1 0x40 MLOAD SWAP6 DUP7 SWAP6 PUSH1 0xA0 DUP8 MSTORE PUSH1 0xA0 DUP8 ADD SWAP1 PUSH2 0x4409 JUMP JUMPDEST SWAP4 PUSH1 0x20 DUP7 ADD MSTORE DUP1 DUP3 AND PUSH1 0x40 DUP7 ADD MSTORE DUP2 PUSH1 0x40 SHR AND PUSH1 0x60 DUP6 ADD MSTORE PUSH1 0x80 SHR AND ISZERO ISZERO PUSH1 0x80 DUP4 ADD MSTORE SUB SWAP1 RETURN JUMPDEST CALLVALUE PUSH2 0x310 JUMPI PUSH1 0x20 CALLDATASIZE PUSH1 0x3 NOT ADD SLT PUSH2 0x310 JUMPI PUSH1 0x4 CALLDATALOAD PUSH1 0x0 MSTORE PUSH1 0x65 PUSH1 0x20 MSTORE PUSH1 0x20 PUSH1 0x1 PUSH1 0x40 PUSH1 0x0 KECCAK256 ADD SLOAD PUSH1 0x40 MLOAD SWAP1 DUP2 MSTORE RETURN JUMPDEST CALLVALUE PUSH2 0x310 JUMPI PUSH1 0x20 DUP1 PUSH1 0x3 NOT CALLDATASIZE ADD SLT PUSH2 0x310 JUMPI PUSH1 0x4 CALLDATALOAD SWAP1 PUSH2 0x3EF1 PUSH2 0x583A JUMP JUMPDEST PUSH1 0x0 DUP3 DUP2 MSTORE PUSH2 0x12F PUSH1 0x20 MSTORE PUSH1 0x40 SWAP1 KECCAK256 SLOAD PUSH2 0x3F15 SWAP1 PUSH1 0x1 PUSH1 0x1 PUSH1 0xA0 SHL SUB AND ISZERO ISZERO PUSH2 0x5959 JUMP JUMPDEST PUSH1 0x0 DUP3 DUP2 MSTORE PUSH2 0x1C4 DUP3 MSTORE PUSH1 0x40 SWAP1 KECCAK256 PUSH1 0x1 DUP2 ADD DUP1 SLOAD PUSH1 0x1 PUSH1 0x1 PUSH1 0xA0 SHL SUB SWAP4 SWAP2 SWAP3 SWAP1 DUP5 AND CALLER EQ DUP1 ISZERO PUSH2 0x406B JUMPI JUMPDEST ISZERO PUSH2 0x4020 JUMPI PUSH1 0x5 ADD SWAP1 DUP2 SLOAD SWAP1 PUSH1 0xFF DUP3 PUSH1 0x8 SHR AND PUSH1 0x4 DUP2 LT ISZERO PUSH2 0x744 JUMPI PUSH1 0x1 SUB PUSH2 0x3FD0 JUMPI POP PUSH1 0x1 PUSH1 0x1 PUSH1 0x40 SHL SUB DUP2 PUSH1 0x50 SHR AND DUP1 ISZERO ISZERO SWAP1 DUP2 PUSH2 0x3FC6 JUMPI JUMPDEST POP ISZERO PUSH2 0x3FBA JUMPI POP DUP1 SLOAD PUSH2 0xFF00 NOT AND PUSH2 0x300 OR SWAP1 SSTORE JUMPDEST SLOAD AND SWAP1 PUSH32 0x89FEE67112D0C62A5D62F651AD4D70D614C89BB025A775B933BFF507BC70397A PUSH1 0x0 DUP1 LOG3 STOP JUMPDEST PUSH2 0xFF00 NOT AND SWAP1 SSTORE PUSH2 0x3F90 JUMP JUMPDEST SWAP1 POP TIMESTAMP GT DUP7 PUSH2 0x3F7B JUMP JUMPDEST PUSH1 0x84 SWAP1 PUSH1 0x40 MLOAD SWAP1 PUSH3 0x461BCD PUSH1 0xE5 SHL DUP3 MSTORE PUSH1 0x4 DUP3 ADD MSTORE PUSH1 0x24 DUP1 DUP3 ADD MSTORE PUSH32 0x564352656769737472793A2043726564656E7469616C206E6F74207375737065 PUSH1 0x44 DUP3 ADD MSTORE PUSH4 0x1B991959 PUSH1 0xE2 SHL PUSH1 0x64 DUP3 ADD MSTORE REVERT JUMPDEST PUSH1 0x40 MLOAD PUSH3 0x461BCD PUSH1 0xE5 SHL DUP2 MSTORE PUSH1 0x4 DUP2 ADD DUP4 SWAP1 MSTORE PUSH1 0x2F PUSH1 0x24 DUP3 ADD MSTORE PUSH1 0x0 DUP1 MLOAD PUSH1 0x20 PUSH2 0x5B12 DUP4 CODECOPY DUP2 MLOAD SWAP2 MSTORE PUSH1 0x44 DUP3 ADD MSTORE PUSH15 0x2063616E2072656163746976617465 PUSH1 0x88 SHL PUSH1 0x64 DUP3 ADD MSTORE PUSH1 0x84 SWAP1 REVERT JUMPDEST POP PUSH1 0x0 DUP1 MSTORE PUSH1 0x65 DUP3 MSTORE PUSH1 0x40 PUSH1 0x0 KECCAK256 CALLER PUSH1 0x0 MSTORE DUP3 MSTORE PUSH1 0xFF PUSH1 0x40 PUSH1 0x0 KECCAK256 SLOAD AND PUSH2 0x3F40 JUMP JUMPDEST CALLVALUE PUSH2 0x310 JUMPI PUSH2 0x622 PUSH2 0x409E CALLDATASIZE PUSH2 0x442E JUMP JUMPDEST SWAP2 PUSH2 0x40AC PUSH2 0xAD0 DUP5 CALLER PUSH2 0x5020 JUMP JUMPDEST PUSH2 0x50E9 JUMP JUMPDEST CALLVALUE PUSH2 0x310 JUMPI PUSH1 0x20 CALLDATASIZE PUSH1 0x3 NOT ADD SLT PUSH2 0x310 JUMPI PUSH1 0x1 PUSH1 0x1 PUSH1 0xA0 SHL SUB PUSH2 0x40D2 PUSH2 0x43BA JUMP JUMPDEST AND PUSH1 0x0 MSTORE PUSH2 0x1C9 PUSH1 0x20 MSTORE PUSH1 0x20 PUSH1 0x40 PUSH1 0x0 KECCAK256 SLOAD PUSH1 0x40 MLOAD SWAP1 DUP2 MSTORE RETURN JUMPDEST CALLVALUE PUSH2 0x310 JUMPI PUSH1 0x40 CALLDATASIZE PUSH1 0x3 NOT ADD SLT PUSH2 0x310 JUMPI PUSH2 0x4105 PUSH2 0x43BA JUMP JUMPDEST POP PUSH1 0x40 MLOAD PUSH3 0x461BCD PUSH1 0xE5 SHL DUP2 MSTORE PUSH1 0x20 PUSH1 0x4 DUP3 ADD MSTORE PUSH1 0x2F PUSH1 0x24 DUP3 ADD MSTORE PUSH32 0x564352656769737472793A20536F756C626F756E6420746F6B656E732063616E PUSH1 0x44 DUP3 ADD MSTORE PUSH15 0x1B9BDD08189948185C1C1C9BDD9959 PUSH1 0x8A SHL PUSH1 0x64 DUP3 ADD MSTORE PUSH1 0x84 SWAP1 REVERT JUMPDEST CALLVALUE PUSH2 0x310 JUMPI PUSH1 0x20 CALLDATASIZE PUSH1 0x3 NOT ADD SLT PUSH2 0x310 JUMPI PUSH1 0x20 PUSH2 0x2CBF PUSH1 0x4 CALLDATALOAD PUSH2 0x4F0B JUMP JUMPDEST CALLVALUE PUSH2 0x310 JUMPI PUSH1 0x0 CALLDATASIZE PUSH1 0x3 NOT ADD SLT PUSH2 0x310 JUMPI PUSH1 0x40 MLOAD PUSH1 0x0 PUSH2 0x12D DUP1 SLOAD PUSH2 0x41A5 DUP2 PUSH2 0x4560 JUMP JUMPDEST DUP1 DUP6 MSTORE SWAP2 PUSH1 0x1 SWAP2 DUP1 DUP4 AND SWAP1 DUP2 ISZERO PUSH2 0x10AE JUMPI POP PUSH1 0x1 EQ PUSH2 0x41CE JUMPI PUSH2 0x4CF DUP6 PUSH2 0x103E DUP2 DUP8 SUB DUP3 PUSH2 0x44CF JUMP JUMPDEST PUSH1 0x0 SWAP1 DUP2 MSTORE SWAP3 POP PUSH32 0x193A3AE4DA5049EB74CEE39E4CF5827F7CE7B1D1D1775EF1C6311EB60558E6D5 JUMPDEST DUP3 DUP5 LT PUSH2 0x4212 JUMPI POP POP POP DUP2 ADD PUSH1 0x20 ADD PUSH2 0x103E DUP3 PUSH2 0x4CF PUSH2 0x102E JUMP JUMPDEST DUP1 SLOAD PUSH1 0x20 DUP6 DUP8 ADD DUP2 ADD SWAP2 SWAP1 SWAP2 MSTORE SWAP1 SWAP4 ADD SWAP3 DUP2 ADD PUSH2 0x41F7 JUMP JUMPDEST CALLVALUE PUSH2 0x310 JUMPI PUSH1 0x20 CALLDATASIZE PUSH1 0x3 NOT ADD SLT PUSH2 0x310 JUMPI PUSH1 0x4 CALLDATALOAD PUSH4 0xFFFFFFFF PUSH1 0xE0 SHL DUP2 AND DUP1 SWAP2 SUB PUSH2 0x310 JUMPI PUSH1 0x20 SWAP1 PUSH4 0x24832483 PUSH1 0xE1 SHL DUP2 EQ SWAP1 DUP2 ISZERO PUSH2 0x426F JUMPI JUMPDEST POP PUSH1 0x40 MLOAD SWAP1 ISZERO ISZERO DUP2 MSTORE RETURN JUMPDEST PUSH4 0x80AC58CD PUSH1 0xE0 SHL DUP2 EQ SWAP2 POP DUP2 ISZERO PUSH2 0x42BB JUMPI JUMPDEST DUP2 ISZERO PUSH2 0x4290 JUMPI JUMPDEST POP DUP3 PUSH2 0x4264 JUMP JUMPDEST PUSH4 0x7965DB0B PUSH1 0xE0 SHL DUP2 EQ SWAP2 POP DUP2 ISZERO PUSH2 0x42AA JUMPI JUMPDEST POP DUP3 PUSH2 0x4289 JUMP JUMPDEST PUSH4 0x1FFC9A7 PUSH1 0xE0 SHL EQ SWAP1 POP DUP3 PUSH2 0x42A3 JUMP JUMPDEST PUSH4 0x5B5E139F PUSH1 0xE0 SHL DUP2 EQ SWAP2 POP PUSH2 0x4282 JUMP JUMPDEST CALLVALUE PUSH2 0x310 JUMPI PUSH1 0x20 DUP1 PUSH1 0x3 NOT CALLDATASIZE ADD SLT PUSH2 0x310 JUMPI PUSH2 0x1C8 PUSH2 0x42E9 PUSH2 0x43BA JUMP JUMPDEST PUSH2 0x42F1 PUSH2 0x4771 JUMP JUMPDEST PUSH1 0x1 PUSH1 0x1 PUSH1 0xA0 SHL SUB AND SWAP2 PUSH2 0x4306 DUP4 ISZERO ISZERO PUSH2 0x5A9A JUMP JUMPDEST PUSH1 0x0 DUP1 MLOAD PUSH1 0x20 PUSH2 0x5B52 DUP4 CODECOPY DUP2 MLOAD SWAP2 MSTORE DUP1 PUSH1 0x0 MSTORE PUSH1 0x65 DUP3 MSTORE PUSH1 0x40 PUSH1 0x0 KECCAK256 DUP5 PUSH1 0x0 MSTORE DUP3 MSTORE PUSH1 0xFF PUSH1 0x40 PUSH1 0x0 KECCAK256 SLOAD AND PUSH2 0x436C JUMPI JUMPDEST POP MSTORE PUSH1 0x40 PUSH1 0x0 KECCAK256 PUSH1 0xFF NOT DUP2 SLOAD AND SWAP1 SSTORE PUSH32 0xAF66545C919A3BE306EE446D8F42A9558B5B022620DF880517BC9593EC0F2D52 PUSH1 0x0 DUP1 LOG2 STOP JUMPDEST DUP1 PUSH1 0x0 MSTORE PUSH1 0x65 DUP3 MSTORE PUSH1 0x40 PUSH1 0x0 KECCAK256 DUP5 PUSH1 0x0 MSTORE DUP3 MSTORE PUSH1 0x40 PUSH1 0x0 KECCAK256 PUSH1 0xFF NOT DUP2 SLOAD AND SWAP1 SSTORE DUP4 CALLER SWAP2 PUSH32 0xF6391F5C32D9C69D2A47EA670B442974B53935D1EDC7FD64EB21E047A839171B PUSH1 0x0 DUP1 LOG4 DUP4 PUSH2 0x4336 JUMP JUMPDEST PUSH1 0x4 CALLDATALOAD SWAP1 PUSH1 0x1 PUSH1 0x1 PUSH1 0xA0 SHL SUB DUP3 AND DUP3 SUB PUSH2 0x310 JUMPI JUMP JUMPDEST PUSH1 0x24 CALLDATALOAD SWAP1 PUSH1 0x1 PUSH1 0x1 PUSH1 0xA0 SHL SUB DUP3 AND DUP3 SUB PUSH2 0x310 JUMPI JUMP JUMPDEST PUSH1 0x0 JUMPDEST DUP4 DUP2 LT PUSH2 0x43F9 JUMPI POP POP PUSH1 0x0 SWAP2 ADD MSTORE JUMP JUMPDEST DUP2 DUP2 ADD MLOAD DUP4 DUP3 ADD MSTORE PUSH1 0x20 ADD PUSH2 0x43E9 JUMP JUMPDEST SWAP1 PUSH1 0x20 SWAP2 PUSH2 0x4422 DUP2 MLOAD DUP1 SWAP3 DUP2 DUP6 MSTORE DUP6 DUP1 DUP7 ADD SWAP2 ADD PUSH2 0x43E6 JUMP JUMPDEST PUSH1 0x1F ADD PUSH1 0x1F NOT AND ADD ADD SWAP1 JUMP JUMPDEST PUSH1 0x60 SWAP1 PUSH1 0x3 NOT ADD SLT PUSH2 0x310 JUMPI PUSH1 0x1 PUSH1 0x1 PUSH1 0xA0 SHL SUB SWAP1 PUSH1 0x4 CALLDATALOAD DUP3 DUP2 AND DUP2 SUB PUSH2 0x310 JUMPI SWAP2 PUSH1 0x24 CALLDATALOAD SWAP1 DUP2 AND DUP2 SUB PUSH2 0x310 JUMPI SWAP1 PUSH1 0x44 CALLDATALOAD SWAP1 JUMP JUMPDEST PUSH1 0xE0 DUP2 ADD SWAP1 DUP2 LT PUSH1 0x1 PUSH1 0x1 PUSH1 0x40 SHL SUB DUP3 GT OR PUSH2 0x938 JUMPI PUSH1 0x40 MSTORE JUMP JUMPDEST PUSH1 0x20 DUP2 ADD SWAP1 DUP2 LT PUSH1 0x1 PUSH1 0x1 PUSH1 0x40 SHL SUB DUP3 GT OR PUSH2 0x938 JUMPI PUSH1 0x40 MSTORE JUMP JUMPDEST PUSH1 0x60 DUP2 ADD SWAP1 DUP2 LT PUSH1 0x1 PUSH1 0x1 PUSH1 0x40 SHL SUB DUP3 GT OR PUSH2 0x938 JUMPI PUSH1 0x40 MSTORE JUMP JUMPDEST PUSH1 0x80 DUP2 ADD SWAP1 DUP2 LT PUSH1 0x1 PUSH1 0x1 PUSH1 0x40 SHL SUB DUP3 GT OR PUSH2 0x938 JUMPI PUSH1 0x40 MSTORE JUMP JUMPDEST SWAP1 PUSH1 0x1F DUP1 NOT SWAP2 ADD AND DUP2 ADD SWAP1 DUP2 LT PUSH1 0x1 PUSH1 0x1 PUSH1 0x40 SHL SUB DUP3 GT OR PUSH2 0x938 JUMPI PUSH1 0x40 MSTORE JUMP JUMPDEST PUSH1 0x1 PUSH1 0x1 PUSH1 0x40 SHL SUB DUP2 GT PUSH2 0x938 JUMPI PUSH1 0x1F ADD PUSH1 0x1F NOT AND PUSH1 0x20 ADD SWAP1 JUMP JUMPDEST SWAP3 SWAP2 SWAP3 PUSH2 0x4517 DUP3 PUSH2 0x44F0 JUMP JUMPDEST SWAP2 PUSH2 0x4525 PUSH1 0x40 MLOAD SWAP4 DUP5 PUSH2 0x44CF JUMP JUMPDEST DUP3 SWAP5 DUP2 DUP5 MSTORE DUP2 DUP4 ADD GT PUSH2 0x310 JUMPI DUP3 DUP2 PUSH1 0x20 SWAP4 DUP5 PUSH1 0x0 SWAP7 ADD CALLDATACOPY ADD ADD MSTORE JUMP JUMPDEST SWAP1 DUP1 PUSH1 0x1F DUP4 ADD SLT ISZERO PUSH2 0x310 JUMPI DUP2 PUSH1 0x20 PUSH2 0x455D SWAP4 CALLDATALOAD SWAP2 ADD PUSH2 0x450B JUMP JUMPDEST SWAP1 JUMP JUMPDEST SWAP1 PUSH1 0x1 DUP3 DUP2 SHR SWAP3 AND DUP1 ISZERO PUSH2 0x4590 JUMPI JUMPDEST PUSH1 0x20 DUP4 LT EQ PUSH2 0x457A JUMPI JUMP JUMPDEST PUSH4 0x4E487B71 PUSH1 0xE0 SHL PUSH1 0x0 MSTORE PUSH1 0x22 PUSH1 0x4 MSTORE PUSH1 0x24 PUSH1 0x0 REVERT JUMPDEST SWAP2 PUSH1 0x7F AND SWAP2 PUSH2 0x456F JUMP JUMPDEST SWAP1 PUSH1 0x40 MLOAD SWAP2 DUP3 PUSH1 0x0 DUP3 SLOAD SWAP3 PUSH2 0x45AE DUP5 PUSH2 0x4560 JUMP JUMPDEST SWAP1 DUP2 DUP5 MSTORE PUSH1 0x1 SWAP5 DUP6 DUP2 AND SWAP1 DUP2 PUSH1 0x0 EQ PUSH2 0x461D JUMPI POP PUSH1 0x1 EQ PUSH2 0x45DA JUMPI JUMPDEST POP POP PUSH2 0x45D8 SWAP3 POP SUB DUP4 PUSH2 0x44CF JUMP JUMPDEST JUMP JUMPDEST SWAP1 SWAP4 SWAP2 POP PUSH1 0x0 MSTORE PUSH1 0x20 SWAP1 DUP2 PUSH1 0x0 KECCAK256 SWAP4 PUSH1 0x0 SWAP2 JUMPDEST DUP2 DUP4 LT PUSH2 0x4605 JUMPI POP POP PUSH2 0x45D8 SWAP4 POP DUP3 ADD ADD CODESIZE DUP1 PUSH2 0x45CA JUMP JUMPDEST DUP6 SLOAD DUP9 DUP5 ADD DUP6 ADD MSTORE SWAP5 DUP6 ADD SWAP5 DUP8 SWAP5 POP SWAP2 DUP4 ADD SWAP2 PUSH2 0x45ED JUMP JUMPDEST SWAP2 POP POP PUSH2 0x45D8 SWAP5 POP PUSH1 0x20 SWAP3 POP PUSH1 0xFF NOT AND DUP3 DUP5 ADD MSTORE ISZERO ISZERO PUSH1 0x5 SHL DUP3 ADD ADD CODESIZE DUP1 PUSH2 0x45CA JUMP JUMPDEST PUSH1 0x7 DUP2 LT ISZERO PUSH2 0x744 JUMPI PUSH1 0x0 MSTORE PUSH2 0x1CA PUSH1 0x20 MSTORE PUSH1 0x40 PUSH1 0x0 KECCAK256 SWAP1 JUMP JUMPDEST SWAP2 DUP2 PUSH1 0x1F DUP5 ADD SLT ISZERO PUSH2 0x310 JUMPI DUP3 CALLDATALOAD SWAP2 PUSH1 0x1 PUSH1 0x1 PUSH1 0x40 SHL SUB DUP4 GT PUSH2 0x310 JUMPI PUSH1 0x20 DUP4 DUP2 DUP7 ADD SWAP6 ADD ADD GT PUSH2 0x310 JUMPI JUMP JUMPDEST SWAP2 DUP2 PUSH1 0x1F DUP5 ADD SLT ISZERO PUSH2 0x310 JUMPI DUP3 CALLDATALOAD SWAP2 PUSH1 0x1 PUSH1 0x1 PUSH1 0x40 SHL SUB DUP4 GT PUSH2 0x310 JUMPI PUSH1 0x20 DUP1 DUP6 ADD SWAP5 DUP5 PUSH1 0x5 SHL ADD ADD GT PUSH2 0x310 JUMPI JUMP JUMPDEST SWAP1 PUSH1 0x4 DUP3 LT ISZERO PUSH2 0x744 JUMPI MSTORE JUMP JUMPDEST SWAP1 PUSH1 0x40 PUSH1 0x3 NOT DUP4 ADD SLT PUSH2 0x310 JUMPI PUSH1 0x4 CALLDATALOAD SWAP2 PUSH1 0x24 CALLDATALOAD SWAP1 PUSH1 0x1 PUSH1 0x1 PUSH1 0x40 SHL SUB DUP3 GT PUSH2 0x310 JUMPI PUSH2 0x46F3 SWAP2 PUSH1 0x4 ADD PUSH2 0x465A JUMP JUMPDEST SWAP1 SWAP2 JUMP JUMPDEST SWAP1 DUP2 MLOAD DUP1 DUP3 MSTORE PUSH1 0x20 DUP1 SWAP3 ADD SWAP2 DUP3 DUP2 DUP4 PUSH1 0x5 SHL DUP6 ADD SWAP6 ADD SWAP4 PUSH1 0x0 SWAP2 JUMPDEST DUP5 DUP4 LT PUSH2 0x4722 JUMPI POP POP POP POP POP POP SWAP1 JUMP JUMPDEST SWAP1 SWAP2 SWAP3 SWAP4 SWAP5 SWAP6 DUP5 DUP1 PUSH2 0x473C DUP4 DUP6 PUSH1 0x1 SWAP6 SUB DUP8 MSTORE DUP11 MLOAD PUSH2 0x4409 JUMP JUMPDEST SWAP9 ADD SWAP4 ADD SWAP4 ADD SWAP2 SWAP5 SWAP4 SWAP3 SWAP1 PUSH2 0x4712 JUMP JUMPDEST SWAP1 PUSH1 0x7 DUP3 LT ISZERO PUSH2 0x744 JUMPI MSTORE JUMP JUMPDEST DUP1 SLOAD DUP3 LT ISZERO PUSH2 0x1F77 JUMPI PUSH1 0x0 MSTORE PUSH1 0x20 PUSH1 0x0 KECCAK256 ADD SWAP1 PUSH1 0x0 SWAP1 JUMP JUMPDEST CALLER PUSH1 0x0 SWAP1 DUP2 MSTORE PUSH32 0xFFDFC1249C027F9191656349FEB0761381BB32C9F557E01F419FD08754BF5A1B PUSH1 0x20 SWAP1 DUP2 MSTORE PUSH1 0x40 DUP1 DUP4 KECCAK256 SLOAD SWAP1 SWAP3 SWAP1 PUSH1 0xFF AND ISZERO PUSH2 0x47B3 JUMPI POP POP POP JUMP JUMPDEST PUSH2 0x47BC CALLER PUSH2 0x55A0 JUMP JUMPDEST SWAP1 DUP1 DUP5 MLOAD SWAP1 PUSH2 0x47CA DUP3 PUSH2 0x44B4 JUMP JUMPDEST PUSH1 0x42 DUP3 MSTORE DUP5 DUP3 ADD SWAP3 PUSH1 0x60 CALLDATASIZE DUP6 CALLDATACOPY DUP3 MLOAD ISZERO PUSH2 0x492A JUMPI PUSH1 0x30 DUP5 MSTORE8 DUP3 MLOAD SWAP1 PUSH1 0x1 SWAP2 DUP3 LT ISZERO PUSH2 0x492A JUMPI SWAP1 PUSH1 0x78 PUSH1 0x21 DUP6 ADD MSTORE8 PUSH1 0x41 SWAP2 JUMPDEST DUP2 DUP4 GT PUSH2 0x48BC JUMPI POP POP POP PUSH2 0x487A JUMPI PUSH1 0x48 PUSH2 0x1EEB SWAP4 DUP7 SWAP4 PUSH2 0x485E SWAP4 PUSH2 0x484F SWAP9 MLOAD SWAP9 DUP10 SWAP4 PUSH23 0x20B1B1B2B9B9A1B7B73A3937B61D1030B1B1B7BAB73A1 PUSH1 0x4D SHL DUP11 DUP7 ADD MSTORE PUSH2 0x1E93 DUP2 MLOAD DUP1 SWAP3 DUP13 PUSH1 0x37 DUP10 ADD SWAP2 ADD PUSH2 0x43E6 JUMP JUMPDEST ADD SUB PUSH1 0x28 DUP2 ADD DUP8 MSTORE ADD DUP6 PUSH2 0x44CF JUMP JUMPDEST MLOAD SWAP3 DUP4 SWAP3 PUSH3 0x461BCD PUSH1 0xE5 SHL DUP5 MSTORE PUSH1 0x4 DUP5 ADD MSTORE PUSH1 0x24 DUP4 ADD SWAP1 PUSH2 0x4409 JUMP JUMPDEST PUSH1 0x64 DUP5 DUP7 MLOAD SWAP1 PUSH3 0x461BCD PUSH1 0xE5 SHL DUP3 MSTORE DUP1 PUSH1 0x4 DUP4 ADD MSTORE PUSH1 0x24 DUP3 ADD MSTORE PUSH32 0x537472696E67733A20686578206C656E67746820696E73756666696369656E74 PUSH1 0x44 DUP3 ADD MSTORE REVERT JUMPDEST SWAP1 SWAP2 SWAP3 PUSH1 0xF DUP2 AND PUSH1 0x10 DUP2 LT ISZERO PUSH2 0x4916 JUMPI PUSH16 0x181899199A1A9B1B9C1CB0B131B232B3 PUSH1 0x81 SHL SWAP1 BYTE PUSH2 0x48EC DUP6 DUP8 PUSH2 0x558F JUMP JUMPDEST MSTORE8 PUSH1 0x4 SHR SWAP3 DUP1 ISZERO PUSH2 0x4902 JUMPI PUSH1 0x0 NOT ADD SWAP2 SWAP1 PUSH2 0x47FB JUMP JUMPDEST PUSH4 0x4E487B71 PUSH1 0xE0 SHL DUP3 MSTORE PUSH1 0x11 PUSH1 0x4 MSTORE PUSH1 0x24 DUP3 REVERT JUMPDEST PUSH4 0x4E487B71 PUSH1 0xE0 SHL DUP4 MSTORE PUSH1 0x32 PUSH1 0x4 MSTORE PUSH1 0x24 DUP4 REVERT JUMPDEST PUSH4 0x4E487B71 PUSH1 0xE0 SHL DUP2 MSTORE PUSH1 0x32 PUSH1 0x4 MSTORE PUSH1 0x24 SWAP1 REVERT JUMPDEST CALLER PUSH1 0x0 SWAP1 DUP2 MSTORE PUSH32 0x61C6261E6978331C793EEE420D743E773864E0EC05CC862750E423D64F73E9F6 PUSH1 0x20 SWAP1 DUP2 MSTORE PUSH1 0x40 DUP1 DUP4 KECCAK256 SLOAD SWAP1 SWAP3 PUSH32 0x189AB7A9244DF0848122154315AF71FE140F3DB0FE014031783B0946B8C9D2E3 SWAP2 PUSH1 0xFF AND ISZERO PUSH2 0x49A2 JUMPI POP POP POP POP JUMP JUMPDEST PUSH2 0x49AB CALLER PUSH2 0x55A0 JUMP JUMPDEST SWAP2 DUP5 MLOAD SWAP1 PUSH2 0x49B8 DUP3 PUSH2 0x44B4 JUMP JUMPDEST PUSH1 0x42 DUP3 MSTORE DUP5 DUP3 ADD SWAP3 PUSH1 0x60 CALLDATASIZE DUP6 CALLDATACOPY DUP3 MLOAD ISZERO PUSH2 0x492A JUMPI PUSH1 0x30 DUP5 MSTORE8 DUP3 MLOAD SWAP1 PUSH1 0x1 SWAP2 DUP3 LT ISZERO PUSH2 0x492A JUMPI SWAP1 PUSH1 0x78 PUSH1 0x21 DUP6 ADD MSTORE8 PUSH1 0x41 SWAP2 JUMPDEST DUP2 DUP4 GT PUSH2 0x4A3D JUMPI POP POP POP PUSH2 0x487A JUMPI PUSH1 0x48 PUSH2 0x1EEB SWAP4 DUP7 SWAP4 PUSH2 0x485E SWAP4 PUSH2 0x484F SWAP9 MLOAD SWAP9 DUP10 SWAP4 PUSH23 0x20B1B1B2B9B9A1B7B73A3937B61D1030B1B1B7BAB73A1 PUSH1 0x4D SHL DUP11 DUP7 ADD MSTORE PUSH2 0x1E93 DUP2 MLOAD DUP1 SWAP3 DUP13 PUSH1 0x37 DUP10 ADD SWAP2 ADD PUSH2 0x43E6 JUMP JUMPDEST SWAP1 SWAP2 SWAP3 PUSH1 0xF DUP2 AND PUSH1 0x10 DUP2 LT ISZERO PUSH2 0x4916 JUMPI PUSH16 0x181899199A1A9B1B9C1CB0B131B232B3 PUSH1 0x81 SHL SWAP1 BYTE PUSH2 0x4A6D DUP6 DUP8 PUSH2 0x558F JUMP JUMPDEST MSTORE8 PUSH1 0x4 SHR SWAP3 DUP1 ISZERO PUSH2 0x4902 JUMPI PUSH1 0x0 NOT ADD SWAP2 SWAP1 PUSH2 0x49E9 JUMP JUMPDEST CALLER PUSH1 0x0 SWAP1 DUP2 MSTORE PUSH32 0x55C0D5B0FF48DCE25436FE2AA58A4419F6D3ED31BA53BEE0B2FD8A1915347C84 PUSH1 0x20 SWAP1 DUP2 MSTORE PUSH1 0x40 DUP1 DUP4 KECCAK256 SLOAD SWAP1 SWAP3 PUSH32 0xA4057A4B1AB9AB5267DD02CA73E655DDEBC38467F166BBA2FAA7A1E160DC900F SWAP2 PUSH1 0xFF AND ISZERO PUSH2 0x4AE7 JUMPI POP POP POP POP JUMP JUMPDEST PUSH2 0x4AF0 CALLER PUSH2 0x55A0 JUMP JUMPDEST SWAP2 DUP5 MLOAD SWAP1 PUSH2 0x4AFD DUP3 PUSH2 0x44B4 JUMP JUMPDEST PUSH1 0x42 DUP3 MSTORE DUP5 DUP3 ADD SWAP3 PUSH1 0x60 CALLDATASIZE DUP6 CALLDATACOPY DUP3 MLOAD ISZERO PUSH2 0x492A JUMPI PUSH1 0x30 DUP5 MSTORE8 DUP3 MLOAD SWAP1 PUSH1 0x1 SWAP2 DUP3 LT ISZERO PUSH2 0x492A JUMPI SWAP1 PUSH1 0x78 PUSH1 0x21 DUP6 ADD MSTORE8 PUSH1 0x41 SWAP2 JUMPDEST DUP2 DUP4 GT PUSH2 0x4B82 JUMPI POP POP POP PUSH2 0x487A JUMPI PUSH1 0x48 PUSH2 0x1EEB SWAP4 DUP7 SWAP4 PUSH2 0x485E SWAP4 PUSH2 0x484F SWAP9 MLOAD SWAP9 DUP10 SWAP4 PUSH23 0x20B1B1B2B9B9A1B7B73A3937B61D1030B1B1B7BAB73A1 PUSH1 0x4D SHL DUP11 DUP7 ADD MSTORE PUSH2 0x1E93 DUP2 MLOAD DUP1 SWAP3 DUP13 PUSH1 0x37 DUP10 ADD SWAP2 ADD PUSH2 0x43E6 JUMP JUMPDEST SWAP1 SWAP2 SWAP3 PUSH1 0xF DUP2 AND PUSH1 0x10 DUP2 LT ISZERO PUSH2 0x4916 JUMPI PUSH16 0x181899199A1A9B1B9C1CB0B131B232B3 PUSH1 0x81 SHL SWAP1 BYTE PUSH2 0x4BB2 DUP6 DUP8 PUSH2 0x558F JUMP JUMPDEST MSTORE8 PUSH1 0x4 SHR SWAP3 DUP1 ISZERO PUSH2 0x4902 JUMPI PUSH1 0x0 NOT ADD SWAP2 SWAP1 PUSH2 0x4B2E JUMP JUMPDEST PUSH1 0x0 SWAP1 DUP1 DUP3 MSTORE PUSH1 0x20 SWAP1 PUSH1 0x65 DUP3 MSTORE PUSH1 0x40 SWAP3 DUP4 DUP2 KECCAK256 CALLER DUP3 MSTORE DUP4 MSTORE PUSH1 0xFF DUP5 DUP3 KECCAK256 SLOAD AND ISZERO PUSH2 0x4BF2 JUMPI POP POP POP POP JUMP JUMPDEST PUSH2 0x4BFB CALLER PUSH2 0x55A0 JUMP JUMPDEST SWAP2 DUP5 MLOAD SWAP1 PUSH2 0x4C08 DUP3 PUSH2 0x44B4 JUMP JUMPDEST PUSH1 0x42 DUP3 MSTORE DUP5 DUP3 ADD SWAP3 PUSH1 0x60 CALLDATASIZE DUP6 CALLDATACOPY DUP3 MLOAD ISZERO PUSH2 0x492A JUMPI PUSH1 0x30 DUP5 MSTORE8 DUP3 MLOAD SWAP1 PUSH1 0x1 SWAP2 DUP3 LT ISZERO PUSH2 0x492A JUMPI SWAP1 PUSH1 0x78 PUSH1 0x21 DUP6 ADD MSTORE8 PUSH1 0x41 SWAP2 JUMPDEST DUP2 DUP4 GT PUSH2 0x4C8D JUMPI POP POP POP PUSH2 0x487A JUMPI PUSH1 0x48 PUSH2 0x1EEB SWAP4 DUP7 SWAP4 PUSH2 0x485E SWAP4 PUSH2 0x484F SWAP9 MLOAD SWAP9 DUP10 SWAP4 PUSH23 0x20B1B1B2B9B9A1B7B73A3937B61D1030B1B1B7BAB73A1 PUSH1 0x4D SHL DUP11 DUP7 ADD MSTORE PUSH2 0x1E93 DUP2 MLOAD DUP1 SWAP3 DUP13 PUSH1 0x37 DUP10 ADD SWAP2 ADD PUSH2 0x43E6 JUMP JUMPDEST SWAP1 SWAP2 SWAP3 PUSH1 0xF DUP2 AND PUSH1 0x10 DUP2 LT ISZERO PUSH2 0x4916 JUMPI PUSH16 0x181899199A1A9B1B9C1CB0B131B232B3 PUSH1 0x81 SHL SWAP1 BYTE PUSH2 0x4CBD DUP6 DUP8 PUSH2 0x558F JUMP JUMPDEST MSTORE8 PUSH1 0x4 SHR SWAP3 DUP1 ISZERO PUSH2 0x4902 JUMPI PUSH1 0x0 NOT ADD SWAP2 SWAP1 PUSH2 0x4C39 JUMP JUMPDEST SWAP1 PUSH1 0x0 SWAP2 DUP1 DUP4 MSTORE PUSH1 0x65 PUSH1 0x20 MSTORE PUSH1 0x40 DUP4 KECCAK256 SWAP2 PUSH1 0x1 DUP1 PUSH1 0xA0 SHL SUB AND SWAP2 DUP3 DUP5 MSTORE PUSH1 0x20 MSTORE PUSH1 0xFF PUSH1 0x40 DUP5 KECCAK256 SLOAD AND PUSH2 0x4D04 JUMPI POP POP POP JUMP JUMPDEST DUP1 DUP4 MSTORE PUSH1 0x65 PUSH1 0x20 MSTORE PUSH1 0x40 DUP4 KECCAK256 DUP3 DUP5 MSTORE PUSH1 0x20 MSTORE PUSH1 0x40 DUP4 KECCAK256 PUSH1 0xFF NOT DUP2 SLOAD AND SWAP1 SSTORE PUSH32 0xF6391F5C32D9C69D2A47EA670B442974B53935D1EDC7FD64EB21E047A839171B CALLER SWAP4 DUP1 LOG4 JUMP JUMPDEST ISZERO PUSH2 0x4D50 JUMPI JUMP JUMPDEST PUSH1 0x40 MLOAD PUSH3 0x461BCD PUSH1 0xE5 SHL DUP2 MSTORE PUSH1 0x20 PUSH1 0x4 DUP3 ADD MSTORE PUSH1 0x2C PUSH1 0x24 DUP3 ADD MSTORE PUSH32 0x46756E6374696F6E206D7573742062652063616C6C6564207468726F75676820 PUSH1 0x44 DUP3 ADD MSTORE PUSH12 0x19195B1959D85D1958D85B1B PUSH1 0xA2 SHL PUSH1 0x64 DUP3 ADD MSTORE PUSH1 0x84 SWAP1 REVERT JUMPDEST ISZERO PUSH2 0x4DB1 JUMPI JUMP JUMPDEST PUSH1 0x40 MLOAD PUSH3 0x461BCD PUSH1 0xE5 SHL DUP2 MSTORE PUSH1 0x20 PUSH1 0x4 DUP3 ADD MSTORE PUSH1 0x2C PUSH1 0x24 DUP3 ADD MSTORE PUSH32 0x46756E6374696F6E206D7573742062652063616C6C6564207468726F75676820 PUSH1 0x44 DUP3 ADD MSTORE PUSH12 0x6163746976652070726F7879 PUSH1 0xA0 SHL PUSH1 0x64 DUP3 ADD MSTORE PUSH1 0x84 SWAP1 REVERT JUMPDEST DUP1 EXTCODESIZE ISZERO PUSH2 0x4E40 JUMPI PUSH1 0x0 DUP1 MLOAD PUSH1 0x20 PUSH2 0x5B32 DUP4 CODECOPY DUP2 MLOAD SWAP2 MSTORE DUP1 SLOAD PUSH1 0x1 PUSH1 0x1 PUSH1 0xA0 SHL SUB NOT AND PUSH1 0x1 PUSH1 0x1 PUSH1 0xA0 SHL SUB SWAP1 SWAP3 AND SWAP2 SWAP1 SWAP2 OR SWAP1 SSTORE JUMP JUMPDEST PUSH1 0x40 MLOAD PUSH3 0x461BCD PUSH1 0xE5 SHL DUP2 MSTORE PUSH1 0x20 PUSH1 0x4 DUP3 ADD MSTORE PUSH1 0x2D PUSH1 0x24 DUP3 ADD MSTORE PUSH32 0x455243313936373A206E657720696D706C656D656E746174696F6E206973206E PUSH1 0x44 DUP3 ADD MSTORE PUSH13 0x1BDD08184818DBDB9D1C9858DD PUSH1 0x9A SHL PUSH1 0x64 DUP3 ADD MSTORE PUSH1 0x84 SWAP1 REVERT JUMPDEST ISZERO PUSH2 0x4EA2 JUMPI JUMP JUMPDEST PUSH1 0x40 MLOAD PUSH3 0x461BCD PUSH1 0xE5 SHL DUP2 MSTORE PUSH1 0x20 PUSH1 0x4 DUP3 ADD MSTORE PUSH1 0x18 PUSH1 0x24 DUP3 ADD MSTORE PUSH32 0x4552433732313A20696E76616C696420746F6B656E2049440000000000000000 PUSH1 0x44 DUP3 ADD MSTORE PUSH1 0x64 SWAP1 REVERT JUMPDEST PUSH1 0x0 SWAP1 DUP2 MSTORE PUSH2 0x12F PUSH1 0x20 MSTORE PUSH1 0x40 SWAP1 KECCAK256 SLOAD PUSH1 0x1 PUSH1 0x1 PUSH1 0xA0 SHL SUB AND PUSH2 0x455D DUP2 ISZERO ISZERO PUSH2 0x4E9B JUMP JUMPDEST PUSH1 0x0 DUP2 DUP2 MSTORE PUSH2 0x12F PUSH1 0x20 MSTORE PUSH1 0x40 SWAP1 KECCAK256 SLOAD PUSH2 0x4F2F SWAP1 PUSH1 0x1 PUSH1 0x1 PUSH1 0xA0 SHL SUB AND ISZERO ISZERO PUSH2 0x4E9B JUMP JUMPDEST PUSH1 0x0 SWAP1 DUP2 MSTORE PUSH2 0x131 PUSH1 0x20 MSTORE PUSH1 0x40 SWAP1 KECCAK256 SLOAD PUSH1 0x1 PUSH1 0x1 PUSH1 0xA0 SHL SUB AND SWAP1 JUMP JUMPDEST ISZERO PUSH2 0x4F52 JUMPI JUMP JUMPDEST PUSH1 0x40 MLOAD PUSH3 0x461BCD PUSH1 0xE5 SHL DUP2 MSTORE PUSH1 0x20 PUSH1 0x4 DUP3 ADD MSTORE PUSH1 0x2D PUSH1 0x24 DUP3 ADD MSTORE PUSH32 0x4552433732313A2063616C6C6572206973206E6F7420746F6B656E206F776E65 PUSH1 0x44 DUP3 ADD MSTORE PUSH13 0x1C881BDC88185C1C1C9BDD9959 PUSH1 0x9A SHL PUSH1 0x64 DUP3 ADD MSTORE PUSH1 0x84 SWAP1 REVERT JUMPDEST PUSH1 0x80 SWAP1 PUSH1 0x20 DUP2 MSTORE PUSH1 0x32 PUSH1 0x20 DUP3 ADD MSTORE PUSH32 0x4552433732313A207472616E7366657220746F206E6F6E204552433732315265 PUSH1 0x40 DUP3 ADD MSTORE PUSH18 0x31B2B4BB32B91034B6B83632B6B2B73A32B9 PUSH1 0x71 SHL PUSH1 0x60 DUP3 ADD MSTORE ADD SWAP1 JUMP JUMPDEST ISZERO PUSH2 0x5007 JUMPI JUMP JUMPDEST PUSH1 0x40 MLOAD PUSH3 0x461BCD PUSH1 0xE5 SHL DUP2 MSTORE DUP1 PUSH2 0x1EEB PUSH1 0x4 DUP3 ADD PUSH2 0x4FAD JUMP JUMPDEST SWAP1 PUSH1 0x1 PUSH1 0x1 PUSH1 0xA0 SHL SUB DUP1 DUP1 PUSH2 0x5034 DUP5 PUSH2 0x4EE7 JUMP JUMPDEST AND SWAP4 AND SWAP2 DUP4 DUP4 EQ SWAP4 DUP5 ISZERO PUSH2 0x5067 JUMPI JUMPDEST POP DUP4 ISZERO PUSH2 0x5051 JUMPI JUMPDEST POP POP POP SWAP1 JUMP JUMPDEST PUSH2 0x505D SWAP2 SWAP3 SWAP4 POP PUSH2 0x4F0B JUMP JUMPDEST AND EQ CODESIZE DUP1 DUP1 PUSH2 0x504B JUMP JUMPDEST SWAP1 SWAP4 POP PUSH1 0x0 MSTORE PUSH2 0x132 PUSH1 0x20 MSTORE PUSH1 0x40 PUSH1 0x0 KECCAK256 DUP3 PUSH1 0x0 MSTORE PUSH1 0x20 MSTORE PUSH1 0xFF PUSH1 0x40 PUSH1 0x0 KECCAK256 SLOAD AND SWAP3 CODESIZE PUSH2 0x5043 JUMP JUMPDEST ISZERO PUSH2 0x5096 JUMPI JUMP JUMPDEST PUSH1 0x40 MLOAD PUSH3 0x461BCD PUSH1 0xE5 SHL DUP2 MSTORE PUSH1 0x20 PUSH1 0x4 DUP3 ADD MSTORE PUSH1 0x25 PUSH1 0x24 DUP3 ADD MSTORE PUSH32 0x4552433732313A207472616E736665722066726F6D20696E636F727265637420 PUSH1 0x44 DUP3 ADD MSTORE PUSH5 0x37BBB732B9 PUSH1 0xD9 SHL PUSH1 0x64 DUP3 ADD MSTORE PUSH1 0x84 SWAP1 REVERT JUMPDEST SWAP1 PUSH2 0x5111 SWAP2 PUSH2 0x50F7 DUP5 PUSH2 0x4EE7 JUMP JUMPDEST PUSH1 0x1 PUSH1 0x1 PUSH1 0xA0 SHL SUB SWAP4 SWAP2 DUP5 AND SWAP3 DUP5 SWAP3 SWAP1 SWAP2 DUP4 AND DUP5 EQ PUSH2 0x508F JUMP JUMPDEST AND SWAP2 DUP3 ISZERO PUSH2 0x52F2 JUMPI DUP2 DUP1 ISZERO ISZERO DUP1 PUSH2 0x52EA JUMPI JUMPDEST PUSH2 0x51BF JUMPI JUMPDEST PUSH2 0x513C SWAP2 PUSH2 0x5135 DUP7 PUSH2 0x4EE7 JUMP JUMPDEST AND EQ PUSH2 0x508F JUMP JUMPDEST PUSH32 0xDDF252AD1BE2C89B69C2B068FC378DAA952BA7F163C4A11628F55A4DF523B3EF PUSH1 0x0 DUP5 DUP2 MSTORE PUSH2 0x131 PUSH1 0x20 MSTORE PUSH1 0x40 DUP2 KECCAK256 PUSH12 0xFFFFFFFFFFFFFFFFFFFFFFFF PUSH1 0xA0 SHL SWAP1 DUP2 DUP2 SLOAD AND SWAP1 SSTORE DUP4 DUP3 MSTORE PUSH2 0x130 PUSH1 0x20 MSTORE PUSH1 0x40 DUP3 KECCAK256 PUSH1 0x0 NOT DUP2 SLOAD ADD SWAP1 SSTORE DUP5 DUP3 MSTORE PUSH1 0x40 DUP3 KECCAK256 PUSH1 0x1 DUP2 SLOAD ADD SWAP1 SSTORE DUP6 DUP3 MSTORE PUSH2 0x12F PUSH1 0x20 MSTORE DUP5 PUSH1 0x40 DUP4 KECCAK256 SWAP2 DUP3 SLOAD AND OR SWAP1 SSTORE DUP1 LOG4 JUMP JUMPDEST POP PUSH1 0xFF PUSH2 0x1CE SLOAD AND ISZERO PUSH2 0x5263 JUMPI CALLER PUSH1 0x0 SWAP1 DUP2 MSTORE PUSH32 0xFFDFC1249C027F9191656349FEB0761381BB32C9F557E01F419FD08754BF5A1B PUSH1 0x20 MSTORE PUSH1 0x40 SWAP1 KECCAK256 SLOAD PUSH1 0xFF AND ISZERO PUSH2 0x5209 JUMPI DUP2 PUSH2 0x5128 JUMP JUMPDEST PUSH1 0x40 MLOAD PUSH3 0x461BCD PUSH1 0xE5 SHL DUP2 MSTORE PUSH1 0x20 PUSH1 0x4 DUP3 ADD MSTORE PUSH1 0x2C PUSH1 0x24 DUP3 ADD MSTORE PUSH32 0x564352656769737472793A205472616E73666572207265717569726573206164 PUSH1 0x44 DUP3 ADD MSTORE PUSH12 0x1B5A5B88185C1C1C9BDD985B PUSH1 0xA2 SHL PUSH1 0x64 DUP3 ADD MSTORE PUSH1 0x84 SWAP1 REVERT JUMPDEST POP DUP3 PUSH1 0x84 SWAP3 PUSH1 0x40 MLOAD SWAP3 PUSH32 0x184E520B4F95D7866C7393BEB94B3043B9FC654D6F1788AEBE4A15AFC2BFAA24 PUSH1 0x0 DUP1 LOG4 PUSH3 0x461BCD PUSH1 0xE5 SHL DUP2 MSTORE PUSH1 0x20 PUSH1 0x4 DUP3 ADD MSTORE PUSH1 0x31 PUSH1 0x24 DUP3 ADD MSTORE PUSH32 0x564352656769737472793A20536F756C626F756E6420746F6B656E7320617265 PUSH1 0x44 DUP3 ADD MSTORE PUSH17 0x206E6F6E2D7472616E7366657261626C65 PUSH1 0x78 SHL PUSH1 0x64 DUP3 ADD MSTORE REVERT JUMPDEST POP PUSH1 0x1 PUSH2 0x5123 JUMP JUMPDEST PUSH1 0x40 MLOAD PUSH3 0x461BCD PUSH1 0xE5 SHL DUP2 MSTORE PUSH1 0x20 PUSH1 0x4 DUP3 ADD MSTORE PUSH1 0x24 DUP1 DUP3 ADD MSTORE PUSH32 0x4552433732313A207472616E7366657220746F20746865207A65726F20616464 PUSH1 0x44 DUP3 ADD MSTORE PUSH4 0x72657373 PUSH1 0xE0 SHL PUSH1 0x64 DUP3 ADD MSTORE PUSH1 0x84 SWAP1 REVERT JUMPDEST RETURNDATASIZE ISZERO PUSH2 0x536E JUMPI RETURNDATASIZE SWAP1 PUSH2 0x5354 DUP3 PUSH2 0x44F0 JUMP JUMPDEST SWAP2 PUSH2 0x5362 PUSH1 0x40 MLOAD SWAP4 DUP5 PUSH2 0x44CF JUMP JUMPDEST DUP3 MSTORE RETURNDATASIZE PUSH1 0x0 PUSH1 0x20 DUP5 ADD RETURNDATACOPY JUMP JUMPDEST PUSH1 0x60 SWAP1 JUMP JUMPDEST SWAP1 SWAP2 PUSH1 0x0 SWAP2 DUP1 EXTCODESIZE ISZERO PUSH2 0x5465 JUMPI PUSH2 0x53BE PUSH1 0x20 SWAP2 DUP5 SWAP4 PUSH1 0x40 MLOAD SWAP5 DUP6 DUP1 SWAP5 DUP2 SWAP4 PUSH4 0xA85BD01 PUSH1 0xE1 SHL SWAP11 DUP12 DUP5 MSTORE CALLER PUSH1 0x4 DUP6 ADD MSTORE DUP5 PUSH1 0x24 DUP6 ADD MSTORE PUSH1 0x44 DUP5 ADD MSTORE PUSH1 0x80 PUSH1 0x64 DUP5 ADD MSTORE PUSH1 0x84 DUP4 ADD SWAP1 PUSH2 0x4409 JUMP JUMPDEST SUB SWAP3 PUSH1 0x1 PUSH1 0x1 PUSH1 0xA0 SHL SUB AND GAS CALL SWAP1 DUP3 SWAP1 DUP3 PUSH2 0x5416 JUMPI JUMPDEST POP POP PUSH2 0x5408 JUMPI PUSH2 0x53E2 PUSH2 0x5343 JUMP JUMPDEST DUP1 MLOAD SWAP1 DUP2 PUSH2 0x5403 JUMPI PUSH1 0x40 MLOAD PUSH3 0x461BCD PUSH1 0xE5 SHL DUP2 MSTORE DUP1 PUSH2 0x1EEB PUSH1 0x4 DUP3 ADD PUSH2 0x4FAD JUMP JUMPDEST PUSH1 0x20 ADD REVERT JUMPDEST PUSH1 0x1 PUSH1 0x1 PUSH1 0xE0 SHL SUB NOT AND EQ SWAP1 JUMP JUMPDEST SWAP1 SWAP2 SWAP3 POP PUSH1 0x20 DUP2 RETURNDATASIZE DUP3 GT PUSH2 0x545D JUMPI JUMPDEST DUP2 PUSH2 0x5432 PUSH1 0x20 SWAP4 DUP4 PUSH2 0x44CF JUMP JUMPDEST DUP2 ADD SUB SLT PUSH2 0x5459 JUMPI MLOAD SWAP1 PUSH1 0x1 PUSH1 0x1 PUSH1 0xE0 SHL SUB NOT DUP3 AND DUP3 SUB PUSH2 0x5456 JUMPI POP SWAP1 CODESIZE DUP1 PUSH2 0x53D4 JUMP JUMPDEST DUP1 REVERT JUMPDEST POP DUP1 REVERT JUMPDEST RETURNDATASIZE SWAP2 POP PUSH2 0x5425 JUMP JUMPDEST POP POP POP POP PUSH1 0x1 SWAP1 JUMP JUMPDEST SWAP2 SWAP3 PUSH1 0x0 SWAP3 SWAP2 SWAP1 DUP2 EXTCODESIZE ISZERO PUSH2 0x54DF JUMPI PUSH1 0x20 SWAP2 PUSH2 0x54C4 SWAP2 DUP6 PUSH1 0x40 MLOAD SWAP6 DUP7 DUP1 SWAP6 DUP2 SWAP5 PUSH4 0xA85BD01 PUSH1 0xE1 SHL SWAP12 DUP13 DUP5 MSTORE CALLER PUSH1 0x4 DUP6 ADD MSTORE PUSH1 0x1 DUP1 PUSH1 0xA0 SHL SUB DUP1 SWAP6 AND PUSH1 0x24 DUP6 ADD MSTORE PUSH1 0x44 DUP5 ADD MSTORE PUSH1 0x80 PUSH1 0x64 DUP5 ADD MSTORE PUSH1 0x84 DUP4 ADD SWAP1 PUSH2 0x4409 JUMP JUMPDEST SUB SWAP4 AND GAS CALL SWAP1 DUP3 SWAP1 DUP3 PUSH2 0x5416 JUMPI POP POP PUSH2 0x5408 JUMPI PUSH2 0x53E2 PUSH2 0x5343 JUMP JUMPDEST POP POP POP POP POP PUSH1 0x1 SWAP1 JUMP JUMPDEST SWAP2 SWAP3 SWAP1 ISZERO PUSH2 0x554B JUMPI POP DUP2 MLOAD ISZERO PUSH2 0x54FD JUMPI POP SWAP1 JUMP JUMPDEST EXTCODESIZE ISZERO PUSH2 0x5506 JUMPI SWAP1 JUMP JUMPDEST PUSH1 0x40 MLOAD PUSH3 0x461BCD PUSH1 0xE5 SHL DUP2 MSTORE PUSH1 0x20 PUSH1 0x4 DUP3 ADD MSTORE PUSH1 0x1D PUSH1 0x24 DUP3 ADD MSTORE PUSH32 0x416464726573733A2063616C6C20746F206E6F6E2D636F6E7472616374000000 PUSH1 0x44 DUP3 ADD MSTORE PUSH1 0x64 SWAP1 REVERT JUMPDEST DUP3 MLOAD SWAP1 SWAP2 POP ISZERO PUSH2 0x555E JUMPI POP DUP1 MLOAD SWAP1 PUSH1 0x20 ADD REVERT JUMPDEST PUSH1 0x40 MLOAD PUSH3 0x461BCD PUSH1 0xE5 SHL DUP2 MSTORE PUSH1 0x20 PUSH1 0x4 DUP3 ADD MSTORE SWAP1 DUP2 SWAP1 PUSH2 0x1EEB SWAP1 PUSH1 0x24 DUP4 ADD SWAP1 PUSH2 0x4409 JUMP JUMPDEST SWAP2 SWAP1 DUP3 ADD DUP1 SWAP3 GT PUSH2 0x571 JUMPI JUMP JUMPDEST SWAP1 DUP2 MLOAD DUP2 LT ISZERO PUSH2 0x1F77 JUMPI ADD PUSH1 0x20 ADD SWAP1 JUMP JUMPDEST PUSH1 0x40 MLOAD SWAP1 PUSH2 0x55AD DUP3 PUSH2 0x4499 JUMP JUMPDEST PUSH1 0x2A DUP3 MSTORE PUSH1 0x20 DUP3 ADD PUSH1 0x40 CALLDATASIZE DUP3 CALLDATACOPY DUP3 MLOAD ISZERO PUSH2 0x1F77 JUMPI PUSH1 0x30 SWAP1 MSTORE8 DUP2 MLOAD PUSH1 0x1 SWAP1 DUP2 LT ISZERO PUSH2 0x1F77 JUMPI PUSH1 0x78 PUSH1 0x21 DUP5 ADD MSTORE8 PUSH1 0x29 SWAP1 JUMPDEST DUP1 DUP3 GT PUSH2 0x55EC JUMPI POP POP PUSH2 0x1EEF JUMPI SWAP1 JUMP JUMPDEST SWAP1 SWAP2 PUSH1 0xF DUP2 AND PUSH1 0x10 DUP2 LT ISZERO PUSH2 0x5645 JUMPI PUSH16 0x181899199A1A9B1B9C1CB0B131B232B3 PUSH1 0x81 SHL SWAP1 BYTE PUSH2 0x561B DUP5 DUP7 PUSH2 0x558F JUMP JUMPDEST MSTORE8 PUSH1 0x4 SHR SWAP2 DUP1 ISZERO PUSH2 0x5630 JUMPI PUSH1 0x0 NOT ADD SWAP1 PUSH2 0x55DC JUMP JUMPDEST PUSH1 0x24 PUSH1 0x0 PUSH4 0x4E487B71 PUSH1 0xE0 SHL DUP2 MSTORE PUSH1 0x11 PUSH1 0x4 MSTORE REVERT JUMPDEST PUSH1 0x24 PUSH1 0x0 PUSH4 0x4E487B71 PUSH1 0xE0 SHL DUP2 MSTORE PUSH1 0x32 PUSH1 0x4 MSTORE REVERT JUMPDEST ISZERO PUSH2 0x5661 JUMPI JUMP JUMPDEST PUSH1 0x40 MLOAD PUSH3 0x461BCD PUSH1 0xE5 SHL DUP2 MSTORE PUSH1 0x20 PUSH1 0x4 DUP3 ADD MSTORE PUSH1 0x2B PUSH1 0x24 DUP3 ADD MSTORE PUSH32 0x496E697469616C697A61626C653A20636F6E7472616374206973206E6F742069 PUSH1 0x44 DUP3 ADD MSTORE PUSH11 0x6E697469616C697A696E67 PUSH1 0xA8 SHL PUSH1 0x64 DUP3 ADD MSTORE PUSH1 0x84 SWAP1 REVERT JUMPDEST DUP2 DUP2 LT PUSH2 0x56C5 JUMPI POP POP JUMP JUMPDEST PUSH1 0x0 DUP2 SSTORE PUSH1 0x1 ADD PUSH2 0x56BA JUMP JUMPDEST SWAP2 SWAP1 PUSH1 0x1F DUP2 GT PUSH2 0x56E0 JUMPI POP POP POP JUMP JUMPDEST PUSH2 0x45D8 SWAP3 PUSH1 0x0 MSTORE PUSH1 0x20 PUSH1 0x0 KECCAK256 SWAP1 PUSH1 0x20 PUSH1 0x1F DUP5 ADD PUSH1 0x5 SHR DUP4 ADD SWAP4 LT PUSH2 0x2447 JUMPI PUSH1 0x1F ADD PUSH1 0x5 SHR ADD SWAP1 PUSH2 0x56BA JUMP JUMPDEST PUSH1 0x20 SWAP2 SWAP3 DUP4 PUSH1 0x40 MLOAD SWAP5 DUP6 SWAP4 DUP5 CALLDATACOPY DUP3 ADD SWAP1 DUP2 MSTORE SUB ADD SWAP1 KECCAK256 SWAP1 JUMP JUMPDEST PUSH1 0x1 PUSH1 0x1 PUSH1 0x40 SHL SUB DUP2 GT PUSH2 0x938 JUMPI PUSH1 0x5 SHL PUSH1 0x20 ADD SWAP1 JUMP JUMPDEST SWAP3 SWAP2 SWAP1 SWAP3 PUSH2 0x5748 DUP5 PUSH2 0x5724 JUMP JUMPDEST SWAP2 PUSH2 0x5756 PUSH1 0x40 MLOAD SWAP4 DUP5 PUSH2 0x44CF JUMP JUMPDEST DUP3 SWAP5 DUP1 DUP5 MSTORE PUSH1 0x20 DUP1 SWAP5 ADD SWAP1 PUSH1 0x5 SHL DUP4 ADD SWAP3 DUP3 DUP5 GT PUSH2 0x310 JUMPI DUP1 SWAP2 JUMPDEST DUP5 DUP4 LT PUSH2 0x5780 JUMPI POP POP POP POP POP POP JUMP JUMPDEST DUP3 CALLDATALOAD PUSH1 0x1 PUSH1 0x1 PUSH1 0x40 SHL SUB DUP2 GT PUSH2 0x310 JUMPI DUP7 SWAP2 PUSH2 0x579F DUP7 DUP5 SWAP4 DUP7 ADD PUSH2 0x4542 JUMP JUMPDEST DUP2 MSTORE ADD SWAP3 ADD SWAP2 PUSH2 0x5771 JUMP JUMPDEST PUSH1 0x1 PUSH1 0x40 SHL DUP3 GT PUSH2 0x938 JUMPI DUP1 SLOAD SWAP2 DUP1 DUP3 SSTORE DUP3 DUP2 LT PUSH2 0x57C7 JUMPI POP POP POP JUMP JUMPDEST PUSH1 0x0 SWAP2 DUP3 MSTORE PUSH1 0x20 SWAP1 DUP2 DUP4 KECCAK256 SWAP4 DUP5 ADD SWAP4 ADD JUMPDEST DUP4 DUP2 LT PUSH2 0x57E5 JUMPI POP POP POP POP JUMP JUMPDEST DUP1 DUP4 PUSH2 0x57F3 PUSH1 0x1 SWAP4 SLOAD PUSH2 0x4560 JUMP JUMPDEST DUP1 PUSH2 0x5801 JUMPI JUMPDEST POP POP ADD PUSH2 0x57D8 JUMP JUMPDEST PUSH1 0x1F DUP1 DUP3 GT DUP6 EQ PUSH2 0x5818 JUMPI POP POP DUP2 SSTORE JUMPDEST DUP4 CODESIZE PUSH2 0x57F9 JUMP JUMPDEST PUSH2 0x5831 SWAP1 DUP5 DUP5 MSTORE DUP7 DUP5 KECCAK256 SWAP3 ADD PUSH1 0x5 SHR DUP3 ADD DUP6 DUP4 ADD PUSH2 0x56BA JUMP JUMPDEST DUP2 DUP4 SSTORE SSTORE PUSH2 0x5811 JUMP JUMPDEST PUSH1 0xFF PUSH1 0x97 SLOAD AND PUSH2 0x5846 JUMPI JUMP JUMPDEST PUSH1 0x40 MLOAD PUSH3 0x461BCD PUSH1 0xE5 SHL DUP2 MSTORE PUSH1 0x20 PUSH1 0x4 DUP3 ADD MSTORE PUSH1 0x10 PUSH1 0x24 DUP3 ADD MSTORE PUSH16 0x14185D5CD8589B194E881C185D5CD959 PUSH1 0x82 SHL PUSH1 0x44 DUP3 ADD MSTORE PUSH1 0x64 SWAP1 REVERT JUMPDEST ISZERO PUSH2 0x5885 JUMPI JUMP JUMPDEST PUSH1 0x40 MLOAD PUSH3 0x461BCD PUSH1 0xE5 SHL DUP2 MSTORE PUSH1 0x20 PUSH1 0x4 DUP3 ADD MSTORE PUSH1 0x2A PUSH1 0x24 DUP3 ADD MSTORE PUSH32 0x564352656769737472793A20444944206E6F742072656769737465726564206F PUSH1 0x44 DUP3 ADD MSTORE PUSH10 0x7220696E616374697665 PUSH1 0xB0 SHL PUSH1 0x64 DUP3 ADD MSTORE PUSH1 0x84 SWAP1 REVERT JUMPDEST PUSH1 0x0 NOT DUP2 EQ PUSH2 0x571 JUMPI PUSH1 0x1 ADD SWAP1 JUMP JUMPDEST SWAP1 DUP1 PUSH1 0x20 SWAP4 SWAP3 DUP2 DUP5 MSTORE DUP5 DUP5 ADD CALLDATACOPY PUSH1 0x0 DUP3 DUP3 ADD DUP5 ADD MSTORE PUSH1 0x1F ADD PUSH1 0x1F NOT AND ADD ADD SWAP1 JUMP JUMPDEST ISZERO PUSH2 0x5914 JUMPI JUMP JUMPDEST PUSH1 0x40 MLOAD PUSH3 0x461BCD PUSH1 0xE5 SHL DUP2 MSTORE PUSH1 0x20 PUSH1 0x4 DUP3 ADD MSTORE PUSH1 0x1C PUSH1 0x24 DUP3 ADD MSTORE PUSH32 0x4552433732313A20746F6B656E20616C7265616479206D696E74656400000000 PUSH1 0x44 DUP3 ADD MSTORE PUSH1 0x64 SWAP1 REVERT JUMPDEST ISZERO PUSH2 0x5960 JUMPI JUMP JUMPDEST PUSH1 0x64 PUSH1 0x40 MLOAD PUSH3 0x461BCD PUSH1 0xE5 SHL DUP2 MSTORE PUSH1 0x20 PUSH1 0x4 DUP3 ADD MSTORE PUSH1 0x20 PUSH1 0x24 DUP3 ADD MSTORE PUSH32 0x564352656769737472793A20546F6B656E20646F6573206E6F74206578697374 PUSH1 0x44 DUP3 ADD MSTORE REVERT JUMPDEST PUSH1 0x0 DUP2 DUP2 MSTORE PUSH2 0x12F PUSH1 0x20 MSTORE PUSH1 0x40 SWAP1 KECCAK256 SLOAD PUSH1 0x1 PUSH1 0x1 PUSH1 0xA0 SHL SUB AND ISZERO PUSH2 0x5A33 JUMPI PUSH1 0x0 MSTORE PUSH2 0x1C4 PUSH1 0x20 MSTORE PUSH1 0x5 PUSH1 0x40 PUSH1 0x0 KECCAK256 ADD SLOAD PUSH1 0x1 PUSH1 0x1 PUSH1 0x40 SHL SUB SWAP1 DUP2 DUP2 PUSH1 0x50 SHR AND SWAP1 DUP2 ISZERO ISZERO DUP1 PUSH2 0x5A2A JUMPI JUMPDEST PUSH2 0x5A15 JUMPI PUSH1 0xFF DUP2 PUSH1 0x8 SHR AND SWAP4 PUSH1 0x4 DUP6 LT ISZERO PUSH2 0x744 JUMPI DUP5 ISZERO SWAP5 SWAP4 DUP1 DUP4 PUSH1 0x10 SHR AND SWAP4 SWAP3 PUSH1 0x90 SHR AND SWAP1 JUMP JUMPDEST PUSH1 0x0 SWAP4 PUSH1 0x3 SWAP4 DUP1 DUP4 PUSH1 0x10 SHR AND SWAP4 SWAP3 PUSH1 0x90 SHR AND SWAP1 JUMP JUMPDEST POP DUP2 TIMESTAMP GT PUSH2 0x59ED JUMP JUMPDEST POP PUSH1 0x0 SWAP1 PUSH1 0x2 SWAP1 PUSH1 0x0 SWAP1 PUSH1 0x0 SWAP1 PUSH1 0x0 SWAP1 JUMP JUMPDEST SWAP1 DUP2 SLOAD PUSH2 0x5A51 DUP2 PUSH2 0x5724 JUMP JUMPDEST SWAP3 PUSH2 0x5A5F PUSH1 0x40 MLOAD SWAP5 DUP6 PUSH2 0x44CF JUMP JUMPDEST DUP2 DUP5 MSTORE PUSH1 0x0 SWAP1 DUP2 MSTORE PUSH1 0x20 DUP1 DUP3 KECCAK256 DUP2 DUP7 ADD JUMPDEST DUP5 DUP5 LT PUSH2 0x5A7E JUMPI POP POP POP POP POP JUMP JUMPDEST PUSH1 0x1 DUP4 DUP2 SWAP3 PUSH2 0x5A8C DUP6 PUSH2 0x459A JUMP JUMPDEST DUP2 MSTORE ADD SWAP3 ADD SWAP4 ADD SWAP3 SWAP1 PUSH2 0x5A70 JUMP JUMPDEST ISZERO PUSH2 0x5AA1 JUMPI JUMP JUMPDEST PUSH1 0x40 MLOAD PUSH3 0x461BCD PUSH1 0xE5 SHL DUP2 MSTORE PUSH1 0x20 PUSH1 0x4 DUP3 ADD MSTORE PUSH1 0x22 PUSH1 0x24 DUP3 ADD MSTORE PUSH32 0x564352656769737472793A20496E76616C696420697373756572206164647265 PUSH1 0x44 DUP3 ADD MSTORE PUSH2 0x7373 PUSH1 0xF0 SHL PUSH1 0x64 DUP3 ADD MSTORE PUSH1 0x84 SWAP1 REVERT INVALID 0x2F DUP8 DUP9 GT PUSH31 0x7EFF1D82E926EC794901D17C78024A50270940304540A733656F0D56435265 PUSH8 0x69737472793A204F PUSH15 0x6C7920697373756572206F72206164 PUSH14 0x696E360894A13BA1A3210667C828 0x49 0x2D 0xB9 DUP14 0xCA RETURNDATACOPY KECCAK256 PUSH23 0xCC3735A920A3CA505D382BBC114E74F6EA3BD819998F78 PUSH9 0x7BFCB11B140DA08E9B PUSH30 0x222FA9C1F1BA1F2AA122A26469706673582212202806C95DB3324B8569D6 BALANCE PUSH26 0xCC99C61D06428E262C36B84E46FB2172FCEB616E64736F6C6343 STOP ADDMOD SGT STOP CALLER "},"methodIdentifiers":{"DEFAULT_ADMIN_ROLE()":"a217fddf","DID_RESOLVER_ROLE()":"25cc2e99","ISSUER_ROLE()":"82aefa24","UPGRADER_ROLE()":"f72c0d8b","approve(address,uint256)":"095ea7b3","approveSchema(string)":"557f699b","approvedSchemas(string)":"394f9d68","authorizedIssuers(address)":"f731fa0f","balanceOf(address)":"70a08231","credentialTypeCount(uint8)":"34d699c8","credentials(uint256)":"e0574e3f","deactivateDID(string)":"3b253b23","defaultExpirationPeriod()":"ef784111","didDocuments(string)":"24c483a5","didToTokenIds(string,uint256)":"b0bdb390","getApproved(uint256)":"081812fc","getContractStats()":"dfe6b5d6","getCredential(uint256)":"8dd18d2d","getCredentialAttribute(uint256,string)":"6db842ab","getCredentialByHash(bytes32)":"ddb6dbd6","getCredentialsByDID(string)":"69fb9b59","getDIDDocument(string)":"784afc4e","getRoleAdmin(bytes32)":"248a9ca3","grantRole(bytes32,address)":"2f2ff15d","hasRole(bytes32,address)":"91d14854","initialize(address,string,string)":"90657147","isApprovedForAll(address,address)":"e985e9c5","isAuthorizedIssuer(address)":"31ba1966","isCredentialValid(uint256)":"6da48b9a","issueCredential(address,string,bytes32,uint8,string,string,bytes32[],uint256)":"92c64784","issuerCredentialCount(address)":"1c7b75dd","maxCredentialsPerDID()":"bd53412c","name()":"06fdde03","ownerOf(uint256)":"6352211e","pause()":"8456cb59","paused()":"5c975abb","proxiableUUID()":"52d1902d","reactivateCredential(uint256)":"2451e057","registerDID(string,address,string[],string[])":"3c2d5760","registerIssuer(address)":"7323555f","renounceRole(bytes32,address)":"36568abe","revokeCredential(uint256,string)":"957a3205","revokeIssuer(address)":"00629679","revokeRole(bytes32,address)":"d547741f","revokeSchemaApproval(string)":"b7bc5822","safeTransferFrom(address,address,uint256)":"42842e0e","safeTransferFrom(address,address,uint256,bytes)":"b88d4fde","setApprovalForAll(address,bool)":"a22cb465","setCredentialAttribute(uint256,string,string)":"cc1c4cb3","setTransfersEnabled(bool)":"26b9ce13","supportsInterface(bytes4)":"01ffc9a7","suspendCredential(uint256,string)":"d0b643a3","symbol()":"95d89b41","tokenURI(uint256)":"c87b56dd","transferFrom(address,address,uint256)":"23b872dd","transfersEnabled()":"bef97c87","unpause()":"3f4ba83a","updateDID(string,string[],string[])":"a038d9fc","updateDefaultExpirationPeriod(uint256)":"826e63dd","updateMaxCredentialsPerDID(uint256)":"5977ac37","upgradeTo(address)":"3659cfe6","upgradeToAndCall(address,bytes)":"4f1ef286","vcHashToTokenId(bytes32)":"4f156599"}},"storageLayout":{"storage":[{"astId":810,"contract":"contracts/VCRegistry.sol:VCRegistry","label":"_initialized","offset":0,"slot":"0","type":"t_uint8"},{"astId":813,"contract":"contracts/VCRegistry.sol:VCRegistry","label":"_initializing","offset":1,"slot":"0","type":"t_bool"},{"astId":2993,"contract":"contracts/VCRegistry.sol:VCRegistry","label":"__gap","offset":0,"slot":"1","type":"t_array(t_uint256)50_storage"},{"astId":3451,"contract":"contracts/VCRegistry.sol:VCRegistry","label":"__gap","offset":0,"slot":"51","type":"t_array(t_uint256)50_storage"},{"astId":28,"contract":"contracts/VCRegistry.sol:VCRegistry","label":"_roles","offset":0,"slot":"101","type":"t_mapping(t_bytes32,t_struct(RoleData)23_storage)"},{"astId":335,"contract":"contracts/VCRegistry.sol:VCRegistry","label":"__gap","offset":0,"slot":"102","type":"t_array(t_uint256)49_storage"},{"astId":1131,"contract":"contracts/VCRegistry.sol:VCRegistry","label":"_paused","offset":0,"slot":"151","type":"t_bool"},{"astId":1236,"contract":"contracts/VCRegistry.sol:VCRegistry","label":"__gap","offset":0,"slot":"152","type":"t_array(t_uint256)49_storage"},{"astId":792,"contract":"contracts/VCRegistry.sol:VCRegistry","label":"__gap","offset":0,"slot":"201","type":"t_array(t_uint256)50_storage"},{"astId":1108,"contract":"contracts/VCRegistry.sol:VCRegistry","label":"__gap","offset":0,"slot":"251","type":"t_array(t_uint256)50_storage"},{"astId":1352,"contract":"contracts/VCRegistry.sol:VCRegistry","label":"_name","offset":0,"slot":"301","type":"t_string_storage"},{"astId":1354,"contract":"contracts/VCRegistry.sol:VCRegistry","label":"_symbol","offset":0,"slot":"302","type":"t_string_storage"},{"astId":1358,"contract":"contracts/VCRegistry.sol:VCRegistry","label":"_owners","offset":0,"slot":"303","type":"t_mapping(t_uint256,t_address)"},{"astId":1362,"contract":"contracts/VCRegistry.sol:VCRegistry","label":"_balances","offset":0,"slot":"304","type":"t_mapping(t_address,t_uint256)"},{"astId":1366,"contract":"contracts/VCRegistry.sol:VCRegistry","label":"_tokenApprovals","offset":0,"slot":"305","type":"t_mapping(t_uint256,t_address)"},{"astId":1372,"contract":"contracts/VCRegistry.sol:VCRegistry","label":"_operatorApprovals","offset":0,"slot":"306","type":"t_mapping(t_address,t_mapping(t_address,t_bool))"},{"astId":2274,"contract":"contracts/VCRegistry.sol:VCRegistry","label":"__gap","offset":0,"slot":"307","type":"t_array(t_uint256)44_storage"},{"astId":2429,"contract":"contracts/VCRegistry.sol:VCRegistry","label":"_tokenURIs","offset":0,"slot":"351","type":"t_mapping(t_uint256,t_string_storage)"},{"astId":2585,"contract":"contracts/VCRegistry.sol:VCRegistry","label":"__gap","offset":0,"slot":"352","type":"t_array(t_uint256)49_storage"},{"astId":1252,"contract":"contracts/VCRegistry.sol:VCRegistry","label":"_status","offset":0,"slot":"401","type":"t_uint256"},{"astId":1321,"contract":"contracts/VCRegistry.sol:VCRegistry","label":"__gap","offset":0,"slot":"402","type":"t_array(t_uint256)49_storage"},{"astId":6076,"contract":"contracts/VCRegistry.sol:VCRegistry","label":"_tokenIdCounter","offset":0,"slot":"451","type":"t_struct(Counter)3000_storage"},{"astId":6081,"contract":"contracts/VCRegistry.sol:VCRegistry","label":"credentials","offset":0,"slot":"452","type":"t_mapping(t_uint256,t_struct(CredentialRecord)6056_storage)"},{"astId":6085,"contract":"contracts/VCRegistry.sol:VCRegistry","label":"vcHashToTokenId","offset":0,"slot":"453","type":"t_mapping(t_bytes32,t_uint256)"},{"astId":6090,"contract":"contracts/VCRegistry.sol:VCRegistry","label":"didToTokenIds","offset":0,"slot":"454","type":"t_mapping(t_string_memory_ptr,t_array(t_uint256)dyn_storage)"},{"astId":6095,"contract":"contracts/VCRegistry.sol:VCRegistry","label":"didDocuments","offset":0,"slot":"455","type":"t_mapping(t_string_memory_ptr,t_struct(DIDDocument)6073_storage)"},{"astId":6099,"contract":"contracts/VCRegistry.sol:VCRegistry","label":"authorizedIssuers","offset":0,"slot":"456","type":"t_mapping(t_address,t_bool)"},{"astId":6103,"contract":"contracts/VCRegistry.sol:VCRegistry","label":"issuerCredentialCount","offset":0,"slot":"457","type":"t_mapping(t_address,t_uint256)"},{"astId":6108,"contract":"contracts/VCRegistry.sol:VCRegistry","label":"credentialTypeCount","offset":0,"slot":"458","type":"t_mapping(t_enum(CredentialType)6017,t_uint256)"},{"astId":6112,"contract":"contracts/VCRegistry.sol:VCRegistry","label":"approvedSchemas","offset":0,"slot":"459","type":"t_mapping(t_string_memory_ptr,t_bool)"},{"astId":6114,"contract":"contracts/VCRegistry.sol:VCRegistry","label":"maxCredentialsPerDID","offset":0,"slot":"460","type":"t_uint256"},{"astId":6116,"contract":"contracts/VCRegistry.sol:VCRegistry","label":"defaultExpirationPeriod","offset":0,"slot":"461","type":"t_uint256"},{"astId":6118,"contract":"contracts/VCRegistry.sol:VCRegistry","label":"transfersEnabled","offset":0,"slot":"462","type":"t_bool"}],"types":{"t_address":{"encoding":"inplace","label":"address","numberOfBytes":"20"},"t_array(t_bytes32)dyn_storage":{"base":"t_bytes32","encoding":"dynamic_array","label":"bytes32[]","numberOfBytes":"32"},"t_array(t_string_storage)dyn_storage":{"base":"t_string_storage","encoding":"dynamic_array","label":"string[]","numberOfBytes":"32"},"t_array(t_uint256)44_storage":{"base":"t_uint256","encoding":"inplace","label":"uint256[44]","numberOfBytes":"1408"},"t_array(t_uint256)49_storage":{"base":"t_uint256","encoding":"inplace","label":"uint256[49]","numberOfBytes":"1568"},"t_array(t_uint256)50_storage":{"base":"t_uint256","encoding":"inplace","label":"uint256[50]","numberOfBytes":"1600"},"t_array(t_uint256)dyn_storage":{"base":"t_uint256","encoding":"dynamic_array","label":"uint256[]","numberOfBytes":"32"},"t_bool":{"encoding":"inplace","label":"bool","numberOfBytes":"1"},"t_bytes32":{"encoding":"inplace","label":"bytes32","numberOfBytes":"32"},"t_enum(CredentialStatus)6022":{"encoding":"inplace","label":"enum VCRegistry.CredentialStatus","numberOfBytes":"1"},"t_enum(CredentialType)6017":{"encoding":"inplace","label":"enum VCRegistry.CredentialType","numberOfBytes":"1"},"t_mapping(t_address,t_bool)":{"encoding":"mapping","key":"t_address","label":"mapping(address => bool)","numberOfBytes":"32","value":"t_bool"},"t_mapping(t_address,t_mapping(t_address,t_bool))":{"encoding":"mapping","key":"t_address","label":"mapping(address => mapping(address => bool))","numberOfBytes":"32","value":"t_mapping(t_address,t_bool)"},"t_mapping(t_address,t_uint256)":{"encoding":"mapping","key":"t_address","label":"mapping(address => uint256)","numberOfBytes":"32","value":"t_uint256"},"t_mapping(t_bytes32,t_struct(RoleData)23_storage)":{"encoding":"mapping","key":"t_bytes32","label":"mapping(bytes32 => struct AccessControlUpgradeable.RoleData)","numberOfBytes":"32","value":"t_struct(RoleData)23_storage"},"t_mapping(t_bytes32,t_uint256)":{"encoding":"mapping","key":"t_bytes32","label":"mapping(bytes32 => uint256)","numberOfBytes":"32","value":"t_uint256"},"t_mapping(t_enum(CredentialType)6017,t_uint256)":{"encoding":"mapping","key":"t_enum(CredentialType)6017","label":"mapping(enum VCRegistry.CredentialType => uint256)","numberOfBytes":"32","value":"t_uint256"},"t_mapping(t_string_memory_ptr,t_array(t_uint256)dyn_storage)":{"encoding":"mapping","key":"t_string_memory_ptr","label":"mapping(string => uint256[])","numberOfBytes":"32","value":"t_array(t_uint256)dyn_storage"},"t_mapping(t_string_memory_ptr,t_bool)":{"encoding":"mapping","key":"t_string_memory_ptr","label":"mapping(string => bool)","numberOfBytes":"32","value":"t_bool"},"t_mapping(t_string_memory_ptr,t_string_storage)":{"encoding":"mapping","key":"t_string_memory_ptr","label":"mapping(string => string)","numberOfBytes":"32","value":"t_string_storage"},"t_mapping(t_string_memory_ptr,t_struct(DIDDocument)6073_storage)":{"encoding":"mapping","key":"t_string_memory_ptr","label":"mapping(string => struct VCRegistry.DIDDocument)","numberOfBytes":"32","value":"t_struct(DIDDocument)6073_storage"},"t_mapping(t_uint256,t_address)":{"encoding":"mapping","key":"t_uint256","label":"mapping(uint256 => address)","numberOfBytes":"32","value":"t_address"},"t_mapping(t_uint256,t_string_storage)":{"encoding":"mapping","key":"t_uint256","label":"mapping(uint256 => string)","numberOfBytes":"32","value":"t_string_storage"},"t_mapping(t_uint256,t_struct(CredentialRecord)6056_storage)":{"encoding":"mapping","key":"t_uint256","label":"mapping(uint256 => struct VCRegistry.CredentialRecord)","numberOfBytes":"32","value":"t_struct(CredentialRecord)6056_storage"},"t_string_memory_ptr":{"encoding":"bytes","label":"string","numberOfBytes":"32"},"t_string_storage":{"encoding":"bytes","label":"string","numberOfBytes":"32"},"t_struct(Counter)3000_storage":{"encoding":"inplace","label":"struct CountersUpgradeable.Counter","members":[{"astId":2999,"contract":"contracts/VCRegistry.sol:VCRegistry","label":"_value","offset":0,"slot":"0","type":"t_uint256"}],"numberOfBytes":"32"},"t_struct(CredentialRecord)6056_storage":{"encoding":"inplace","label":"struct VCRegistry.CredentialRecord","members":[{"astId":6024,"contract":"contracts/VCRegistry.sol:VCRegistry","label":"tokenId","offset":0,"slot":"0","type":"t_uint256"},{"astId":6026,"contract":"contracts/VCRegistry.sol:VCRegistry","label":"issuer","offset":0,"slot":"1","type":"t_address"},{"astId":6028,"contract":"contracts/VCRegistry.sol:VCRegistry","label":"holder","offset":0,"slot":"2","type":"t_address"},{"astId":6030,"contract":"contracts/VCRegistry.sol:VCRegistry","label":"hederaDID","offset":0,"slot":"3","type":"t_string_storage"},{"astId":6032,"contract":"contracts/VCRegistry.sol:VCRegistry","label":"vcHash","offset":0,"slot":"4","type":"t_bytes32"},{"astId":6035,"contract":"contracts/VCRegistry.sol:VCRegistry","label":"credentialType","offset":0,"slot":"5","type":"t_enum(CredentialType)6017"},{"astId":6038,"contract":"contracts/VCRegistry.sol:VCRegistry","label":"status","offset":1,"slot":"5","type":"t_enum(CredentialStatus)6022"},{"astId":6040,"contract":"contracts/VCRegistry.sol:VCRegistry","label":"issuedAt","offset":2,"slot":"5","type":"t_uint64"},{"astId":6042,"contract":"contracts/VCRegistry.sol:VCRegistry","label":"expiresAt","offset":10,"slot":"5","type":"t_uint64"},{"astId":6044,"contract":"contracts/VCRegistry.sol:VCRegistry","label":"revokedAt","offset":18,"slot":"5","type":"t_uint64"},{"astId":6046,"contract":"contracts/VCRegistry.sol:VCRegistry","label":"metadataURI","offset":0,"slot":"6","type":"t_string_storage"},{"astId":6048,"contract":"contracts/VCRegistry.sol:VCRegistry","label":"schemaURI","offset":0,"slot":"7","type":"t_string_storage"},{"astId":6051,"contract":"contracts/VCRegistry.sol:VCRegistry","label":"claims","offset":0,"slot":"8","type":"t_array(t_bytes32)dyn_storage"},{"astId":6055,"contract":"contracts/VCRegistry.sol:VCRegistry","label":"attributes","offset":0,"slot":"9","type":"t_mapping(t_string_memory_ptr,t_string_storage)"}],"numberOfBytes":"320"},"t_struct(DIDDocument)6073_storage":{"encoding":"inplace","label":"struct VCRegistry.DIDDocument","members":[{"astId":6058,"contract":"contracts/VCRegistry.sol:VCRegistry","label":"did","offset":0,"slot":"0","type":"t_string_storage"},{"astId":6060,"contract":"contracts/VCRegistry.sol:VCRegistry","label":"controller","offset":0,"slot":"1","type":"t_address"},{"astId":6063,"contract":"contracts/VCRegistry.sol:VCRegistry","label":"verificationMethods","offset":0,"slot":"2","type":"t_array(t_string_storage)dyn_storage"},{"astId":6066,"contract":"contracts/VCRegistry.sol:VCRegistry","label":"services","offset":0,"slot":"3","type":"t_array(t_string_storage)dyn_storage"},{"astId":6068,"contract":"contracts/VCRegistry.sol:VCRegistry","label":"created","offset":0,"slot":"4","type":"t_uint64"},{"astId":6070,"contract":"contracts/VCRegistry.sol:VCRegistry","label":"updated","offset":8,"slot":"4","type":"t_uint64"},{"astId":6072,"contract":"contracts/VCRegistry.sol:VCRegistry","label":"active","offset":16,"slot":"4","type":"t_bool"}],"numberOfBytes":"160"},"t_struct(RoleData)23_storage":{"encoding":"inplace","label":"struct AccessControlUpgradeable.RoleData","members":[{"astId":20,"contract":"contracts/VCRegistry.sol:VCRegistry","label":"members","offset":0,"slot":"0","type":"t_mapping(t_address,t_bool)"},{"astId":22,"contract":"contracts/VCRegistry.sol:VCRegistry","label":"adminRole","offset":0,"slot":"1","type":"t_bytes32"}],"numberOfBytes":"64"},"t_uint256":{"encoding":"inplace","label":"uint256","numberOfBytes":"32"},"t_uint64":{"encoding":"inplace","label":"uint64","numberOfBytes":"8"},"t_uint8":{"encoding":"inplace","label":"uint8","numberOfBytes":"1"}}}}}}