{
  "_format": "hh-sol-artifact-1",
  "contractName": "VCRegistry",
  "sourceName": "contracts/VCRegistry.sol",
  "abi": [
    {
      "inputs": [],
      "stateMutability": "nonpayable",
      "type": "constructor"
    },
    {
      "anonymous": false,
      "inputs": [
        {
          "indexed": false,
          "internalType": "address",
          "name": "previousAdmin",
          "type": "address"
        },
        {
          "indexed": false,
          "internalType": "address",
          "name": "newAdmin",
          "type": "address"
        }
      ],
      "name": "AdminChanged",
      "type": "event"
    },
    {
      "anonymous": false,
      "inputs": [
        {
          "indexed": true,
          "internalType": "address",
          "name": "owner",
          "type": "address"
        },
        {
          "indexed": true,
          "internalType": "address",
          "name": "approved",
          "type": "address"
        },
        {
          "indexed": true,
          "internalType": "uint256",
          "name": "tokenId",
          "type": "uint256"
        }
      ],
      "name": "Approval",
      "type": "event"
    },
    {
      "anonymous": false,
      "inputs": [
        {
          "indexed": true,
          "internalType": "address",
          "name": "owner",
          "type": "address"
        },
        {
          "indexed": true,
          "internalType": "address",
          "name": "operator",
          "type": "address"
        },
        {
          "indexed": false,
          "internalType": "bool",
          "name": "approved",
          "type": "bool"
        }
      ],
      "name": "ApprovalForAll",
      "type": "event"
    },
    {
      "anonymous": false,
      "inputs": [
        {
          "indexed": false,
          "internalType": "uint256",
          "name": "_fromTokenId",
          "type": "uint256"
        },
        {
          "indexed": false,
          "internalType": "uint256",
          "name": "_toTokenId",
          "type": "uint256"
        }
      ],
      "name": "BatchMetadataUpdate",
      "type": "event"
    },
    {
      "anonymous": false,
      "inputs": [
        {
          "indexed": true,
          "internalType": "address",
          "name": "beacon",
          "type": "address"
        }
      ],
      "name": "BeaconUpgraded",
      "type": "event"
    },
    {
      "anonymous": false,
      "inputs": [
        {
          "indexed": true,
          "internalType": "uint256",
          "name": "tokenId",
          "type": "uint256"
        },
        {
          "indexed": true,
          "internalType": "bytes32",
          "name": "vcHash",
          "type": "bytes32"
        },
        {
          "indexed": true,
          "internalType": "address",
          "name": "issuer",
          "type": "address"
        },
        {
          "indexed": false,
          "internalType": "address",
          "name": "holder",
          "type": "address"
        },
        {
          "indexed": false,
          "internalType": "string",
          "name": "hederaDID",
          "type": "string"
        },
        {
          "indexed": false,
          "internalType": "enum VCRegistry.CredentialType",
          "name": "credentialType",
          "type": "uint8"
        },
        {
          "indexed": false,
          "internalType": "uint64",
          "name": "issuedAt",
          "type": "uint64"
        },
        {
          "indexed": false,
          "internalType": "uint64",
          "name": "expiresAt",
          "type": "uint64"
        }
      ],
      "name": "CredentialIssued",
      "type": "event"
    },
    {
      "anonymous": false,
      "inputs": [
        {
          "indexed": true,
          "internalType": "uint256",
          "name": "tokenId",
          "type": "uint256"
        },
        {
          "indexed": true,
          "internalType": "address",
          "name": "issuer",
          "type": "address"
        }
      ],
      "name": "CredentialReactivated",
      "type": "event"
    },
    {
      "anonymous": false,
      "inputs": [
        {
          "indexed": true,
          "internalType": "uint256",
          "name": "tokenId",
          "type": "uint256"
        },
        {
          "indexed": true,
          "internalType": "bytes32",
          "name": "vcHash",
          "type": "bytes32"
        },
        {
          "indexed": true,
          "internalType": "address",
          "name": "issuer",
          "type": "address"
        },
        {
          "indexed": false,
          "internalType": "uint64",
          "name": "revokedAt",
          "type": "uint64"
        },
        {
          "indexed": false,
          "internalType": "string",
          "name": "reason",
          "type": "string"
        }
      ],
      "name": "CredentialRevoked",
      "type": "event"
    },
    {
      "anonymous": false,
      "inputs": [
        {
          "indexed": true,
          "internalType": "uint256",
          "name": "tokenId",
          "type": "uint256"
        },
        {
          "indexed": true,
          "internalType": "address",
          "name": "issuer",
          "type": "address"
        },
        {
          "indexed": false,
          "internalType": "string",
          "name": "reason",
          "type": "string"
        }
      ],
      "name": "CredentialSuspended",
      "type": "event"
    },
    {
      "anonymous": false,
      "inputs": [
        {
          "indexed": true,
          "internalType": "string",
          "name": "did",
          "type": "string"
        },
        {
          "indexed": true,
          "internalType": "address",
          "name": "controller",
          "type": "address"
        },
        {
          "indexed": false,
          "internalType": "uint64",
          "name": "timestamp",
          "type": "uint64"
        }
      ],
      "name": "DIDDeactivated",
      "type": "event"
    },
    {
      "anonymous": false,
      "inputs": [
        {
          "indexed": true,
          "internalType": "string",
          "name": "did",
          "type": "string"
        },
        {
          "indexed": true,
          "internalType": "address",
          "name": "controller",
          "type": "address"
        },
        {
          "indexed": false,
          "internalType": "uint64",
          "name": "timestamp",
          "type": "uint64"
        }
      ],
      "name": "DIDRegistered",
      "type": "event"
    },
    {
      "anonymous": false,
      "inputs": [
        {
          "indexed": true,
          "internalType": "string",
          "name": "did",
          "type": "string"
        },
        {
          "indexed": true,
          "internalType": "address",
          "name": "controller",
          "type": "address"
        },
        {
          "indexed": false,
          "internalType": "uint64",
          "name": "timestamp",
          "type": "uint64"
        }
      ],
      "name": "DIDUpdated",
      "type": "event"
    },
    {
      "anonymous": false,
      "inputs": [
        {
          "indexed": false,
          "internalType": "uint8",
          "name": "version",
          "type": "uint8"
        }
      ],
      "name": "Initialized",
      "type": "event"
    },
    {
      "anonymous": false,
      "inputs": [
        {
          "indexed": true,
          "internalType": "address",
          "name": "issuer",
          "type": "address"
        }
      ],
      "name": "IssuerAdded",
      "type": "event"
    },
    {
      "anonymous": false,
      "inputs": [
        {
          "indexed": true,
          "internalType": "address",
          "name": "issuer",
          "type": "address"
        }
      ],
      "name": "IssuerRemoved",
      "type": "event"
    },
    {
      "anonymous": false,
      "inputs": [
        {
          "indexed": false,
          "internalType": "uint256",
          "name": "_tokenId",
          "type": "uint256"
        }
      ],
      "name": "MetadataUpdate",
      "type": "event"
    },
    {
      "anonymous": false,
      "inputs": [
        {
          "indexed": false,
          "internalType": "address",
          "name": "account",
          "type": "address"
        }
      ],
      "name": "Paused",
      "type": "event"
    },
    {
      "anonymous": false,
      "inputs": [
        {
          "indexed": true,
          "internalType": "bytes32",
          "name": "role",
          "type": "bytes32"
        },
        {
          "indexed": true,
          "internalType": "bytes32",
          "name": "previousAdminRole",
          "type": "bytes32"
        },
        {
          "indexed": true,
          "internalType": "bytes32",
          "name": "newAdminRole",
          "type": "bytes32"
        }
      ],
      "name": "RoleAdminChanged",
      "type": "event"
    },
    {
      "anonymous": false,
      "inputs": [
        {
          "indexed": true,
          "internalType": "bytes32",
          "name": "role",
          "type": "bytes32"
        },
        {
          "indexed": true,
          "internalType": "address",
          "name": "account",
          "type": "address"
        },
        {
          "indexed": true,
          "internalType": "address",
          "name": "sender",
          "type": "address"
        }
      ],
      "name": "RoleGranted",
      "type": "event"
    },
    {
      "anonymous": false,
      "inputs": [
        {
          "indexed": true,
          "internalType": "bytes32",
          "name": "role",
          "type": "bytes32"
        },
        {
          "indexed": true,
          "internalType": "address",
          "name": "account",
          "type": "address"
        },
        {
          "indexed": true,
          "internalType": "address",
          "name": "sender",
          "type": "address"
        }
      ],
      "name": "RoleRevoked",
      "type": "event"
    },
    {
      "anonymous": false,
      "inputs": [
        {
          "indexed": true,
          "internalType": "string",
          "name": "schemaURI",
          "type": "string"
        },
        {
          "indexed": true,
          "internalType": "address",
          "name": "approver",
          "type": "address"
        }
      ],
      "name": "SchemaApproved",
      "type": "event"
    },
    {
      "anonymous": false,
      "inputs": [
        {
          "indexed": true,
          "internalType": "address",
          "name": "from",
          "type": "address"
        },
        {
          "indexed": true,
          "internalType": "address",
          "name": "to",
          "type": "address"
        },
        {
          "indexed": true,
          "internalType": "uint256",
          "name": "tokenId",
          "type": "uint256"
        }
      ],
      "name": "Transfer",
      "type": "event"
    },
    {
      "anonymous": false,
      "inputs": [
        {
          "indexed": true,
          "internalType": "address",
          "name": "from",
          "type": "address"
        },
        {
          "indexed": true,
          "internalType": "address",
          "name": "to",
          "type": "address"
        },
        {
          "indexed": true,
          "internalType": "uint256",
          "name": "tokenId",
          "type": "uint256"
        }
      ],
      "name": "TransferAttemptBlocked",
      "type": "event"
    },
    {
      "anonymous": false,
      "inputs": [
        {
          "indexed": false,
          "internalType": "address",
          "name": "account",
          "type": "address"
        }
      ],
      "name": "Unpaused",
      "type": "event"
    },
    {
      "anonymous": false,
      "inputs": [
        {
          "indexed": true,
          "internalType": "address",
          "name": "implementation",
          "type": "address"
        }
      ],
      "name": "Upgraded",
      "type": "event"
    },
    {
      "inputs": [],
      "name": "DEFAULT_ADMIN_ROLE",
      "outputs": [
        {
          "internalType": "bytes32",
          "name": "",
          "type": "bytes32"
        }
      ],
      "stateMutability": "view",
      "type": "function"
    },
    {
      "inputs": [],
      "name": "DID_RESOLVER_ROLE",
      "outputs": [
        {
          "internalType": "bytes32",
          "name": "",
          "type": "bytes32"
        }
      ],
      "stateMutability": "view",
      "type": "function"
    },
    {
      "inputs": [],
      "name": "ISSUER_ROLE",
      "outputs": [
        {
          "internalType": "bytes32",
          "name": "",
          "type": "bytes32"
        }
      ],
      "stateMutability": "view",
      "type": "function"
    },
    {
      "inputs": [],
      "name": "UPGRADER_ROLE",
      "outputs": [
        {
          "internalType": "bytes32",
          "name": "",
          "type": "bytes32"
        }
      ],
      "stateMutability": "view",
      "type": "function"
    },
    {
      "inputs": [
        {
          "internalType": "address",
          "name": "to",
          "type": "address"
        },
        {
          "internalType": "uint256",
          "name": "tokenId",
          "type": "uint256"
        }
      ],
      "name": "approve",
      "outputs": [],
      "stateMutability": "nonpayable",
      "type": "function"
    },
    {
      "inputs": [
        {
          "internalType": "string",
          "name": "schemaURI",
          "type": "string"
        }
      ],
      "name": "approveSchema",
      "outputs": [],
      "stateMutability": "nonpayable",
      "type": "function"
    },
    {
      "inputs": [
        {
          "internalType": "string",
          "name": "",
          "type": "string"
        }
      ],
      "name": "approvedSchemas",
      "outputs": [
        {
          "internalType": "bool",
          "name": "",
          "type": "bool"
        }
      ],
      "stateMutability": "view",
      "type": "function"
    },
    {
      "inputs": [
        {
          "internalType": "address",
          "name": "",
          "type": "address"
        }
      ],
      "name": "authorizedIssuers",
      "outputs": [
        {
          "internalType": "bool",
          "name": "",
          "type": "bool"
        }
      ],
      "stateMutability": "view",
      "type": "function"
    },
    {
      "inputs": [
        {
          "internalType": "address",
          "name": "owner",
          "type": "address"
        }
      ],
      "name": "balanceOf",
      "outputs": [
        {
          "internalType": "uint256",
          "name": "",
          "type": "uint256"
        }
      ],
      "stateMutability": "view",
      "type": "function"
    },
    {
      "inputs": [
        {
          "internalType": "enum VCRegistry.CredentialType",
          "name": "",
          "type": "uint8"
        }
      ],
      "name": "credentialTypeCount",
      "outputs": [
        {
          "internalType": "uint256",
          "name": "",
          "type": "uint256"
        }
      ],
      "stateMutability": "view",
      "type": "function"
    },
    {
      "inputs": [
        {
          "internalType": "uint256",
          "name": "",
          "type": "uint256"
        }
      ],
      "name": "credentials",
      "outputs": [
        {
          "internalType": "uint256",
          "name": "tokenId",
          "type": "uint256"
        },
        {
          "internalType": "address",
          "name": "issuer",
          "type": "address"
        },
        {
          "internalType": "address",
          "name": "holder",
          "type": "address"
        },
        {
          "internalType": "string",
          "name": "hederaDID",
          "type": "string"
        },
        {
          "internalType": "bytes32",
          "name": "vcHash",
          "type": "bytes32"
        },
        {
          "internalType": "enum VCRegistry.CredentialType",
          "name": "credentialType",
          "type": "uint8"
        },
        {
          "internalType": "enum VCRegistry.CredentialStatus",
          "name": "status",
          "type": "uint8"
        },
        {
          "internalType": "uint64",
          "name": "issuedAt",
          "type": "uint64"
        },
        {
          "internalType": "uint64",
          "name": "expiresAt",
          "type": "uint64"
        },
        {
          "internalType": "uint64",
          "name": "revokedAt",
          "type": "uint64"
        },
        {
          "internalType": "string",
          "name": "metadataURI",
          "type": "string"
        },
        {
          "internalType": "string",
          "name": "schemaURI",
          "type": "string"
        }
      ],
      "stateMutability": "view",
      "type": "function"
    },
    {
      "inputs": [
        {
          "internalType": "string",
          "name": "did",
          "type": "string"
        }
      ],
      "name": "deactivateDID",
      "outputs": [],
      "stateMutability": "nonpayable",
      "type": "function"
    },
    {
      "inputs": [],
      "name": "defaultExpirationPeriod",
      "outputs": [
        {
          "internalType": "uint256",
          "name": "",
          "type": "uint256"
        }
      ],
      "stateMutability": "view",
      "type": "function"
    },
    {
      "inputs": [
        {
          "internalType": "string",
          "name": "",
          "type": "string"
        }
      ],
      "name": "didDocuments",
      "outputs": [
        {
          "internalType": "string",
          "name": "did",
          "type": "string"
        },
        {
          "internalType": "address",
          "name": "controller",
          "type": "address"
        },
        {
          "internalType": "uint64",
          "name": "created",
          "type": "uint64"
        },
        {
          "internalType": "uint64",
          "name": "updated",
          "type": "uint64"
        },
        {
          "internalType": "bool",
          "name": "active",
          "type": "bool"
        }
      ],
      "stateMutability": "view",
      "type": "function"
    },
    {
      "inputs": [
        {
          "internalType": "string",
          "name": "",
          "type": "string"
        },
        {
          "internalType": "uint256",
          "name": "",
          "type": "uint256"
        }
      ],
      "name": "didToTokenIds",
      "outputs": [
        {
          "internalType": "uint256",
          "name": "",
          "type": "uint256"
        }
      ],
      "stateMutability": "view",
      "type": "function"
    },
    {
      "inputs": [
        {
          "internalType": "uint256",
          "name": "tokenId",
          "type": "uint256"
        }
      ],
      "name": "getApproved",
      "outputs": [
        {
          "internalType": "address",
          "name": "",
          "type": "address"
        }
      ],
      "stateMutability": "view",
      "type": "function"
    },
    {
      "inputs": [],
      "name": "getContractStats",
      "outputs": [
        {
          "internalType": "uint256",
          "name": "totalCredentials",
          "type": "uint256"
        },
        {
          "internalType": "uint256",
          "name": "totalIssuers",
          "type": "uint256"
        },
        {
          "internalType": "uint256",
          "name": "totalDIDs",
          "type": "uint256"
        },
        {
          "internalType": "uint256[7]",
          "name": "credentialTypeCounts",
          "type": "uint256[7]"
        }
      ],
      "stateMutability": "view",
      "type": "function"
    },
    {
      "inputs": [
        {
          "internalType": "uint256",
          "name": "tokenId",
          "type": "uint256"
        }
      ],
      "name": "getCredential",
      "outputs": [
        {
          "internalType": "uint256",
          "name": "_tokenId",
          "type": "uint256"
        },
        {
          "internalType": "address",
          "name": "issuer",
          "type": "address"
        },
        {
          "internalType": "address",
          "name": "holder",
          "type": "address"
        },
        {
          "internalType": "string",
          "name": "hederaDID",
          "type": "string"
        },
        {
          "internalType": "bytes32",
          "name": "vcHash",
          "type": "bytes32"
        },
        {
          "internalType": "enum VCRegistry.CredentialType",
          "name": "credentialType",
          "type": "uint8"
        },
        {
          "internalType": "enum VCRegistry.CredentialStatus",
          "name": "status",
          "type": "uint8"
        },
        {
          "internalType": "uint64",
          "name": "issuedAt",
          "type": "uint64"
        },
        {
          "internalType": "uint64",
          "name": "expiresAt",
          "type": "uint64"
        },
        {
          "internalType": "uint64",
          "name": "revokedAt",
          "type": "uint64"
        },
        {
          "internalType": "string",
          "name": "metadataURI",
          "type": "string"
        },
        {
          "internalType": "string",
          "name": "schemaURI",
          "type": "string"
        },
        {
          "internalType": "bytes32[]",
          "name": "claims",
          "type": "bytes32[]"
        }
      ],
      "stateMutability": "view",
      "type": "function"
    },
    {
      "inputs": [
        {
          "internalType": "uint256",
          "name": "tokenId",
          "type": "uint256"
        },
        {
          "internalType": "string",
          "name": "key",
          "type": "string"
        }
      ],
      "name": "getCredentialAttribute",
      "outputs": [
        {
          "internalType": "string",
          "name": "value",
          "type": "string"
        }
      ],
      "stateMutability": "view",
      "type": "function"
    },
    {
      "inputs": [
        {
          "internalType": "bytes32",
          "name": "vcHash",
          "type": "bytes32"
        }
      ],
      "name": "getCredentialByHash",
      "outputs": [
        {
          "internalType": "uint256",
          "name": "tokenId",
          "type": "uint256"
        },
        {
          "internalType": "bool",
          "name": "exists",
          "type": "bool"
        }
      ],
      "stateMutability": "view",
      "type": "function"
    },
    {
      "inputs": [
        {
          "internalType": "string",
          "name": "hederaDID",
          "type": "string"
        }
      ],
      "name": "getCredentialsByDID",
      "outputs": [
        {
          "internalType": "uint256[]",
          "name": "tokenIds",
          "type": "uint256[]"
        }
      ],
      "stateMutability": "view",
      "type": "function"
    },
    {
      "inputs": [
        {
          "internalType": "string",
          "name": "did",
          "type": "string"
        }
      ],
      "name": "getDIDDocument",
      "outputs": [
        {
          "components": [
            {
              "internalType": "string",
              "name": "did",
              "type": "string"
            },
            {
              "internalType": "address",
              "name": "controller",
              "type": "address"
            },
            {
              "internalType": "string[]",
              "name": "verificationMethods",
              "type": "string[]"
            },
            {
              "internalType": "string[]",
              "name": "services",
              "type": "string[]"
            },
            {
              "internalType": "uint64",
              "name": "created",
              "type": "uint64"
            },
            {
              "internalType": "uint64",
              "name": "updated",
              "type": "uint64"
            },
            {
              "internalType": "bool",
              "name": "active",
              "type": "bool"
            }
          ],
          "internalType": "struct VCRegistry.DIDDocument",
          "name": "document",
          "type": "tuple"
        }
      ],
      "stateMutability": "view",
      "type": "function"
    },
    {
      "inputs": [
        {
          "internalType": "bytes32",
          "name": "role",
          "type": "bytes32"
        }
      ],
      "name": "getRoleAdmin",
      "outputs": [
        {
          "internalType": "bytes32",
          "name": "",
          "type": "bytes32"
        }
      ],
      "stateMutability": "view",
      "type": "function"
    },
    {
      "inputs": [
        {
          "internalType": "bytes32",
          "name": "role",
          "type": "bytes32"
        },
        {
          "internalType": "address",
          "name": "account",
          "type": "address"
        }
      ],
      "name": "grantRole",
      "outputs": [],
      "stateMutability": "nonpayable",
      "type": "function"
    },
    {
      "inputs": [
        {
          "internalType": "bytes32",
          "name": "role",
          "type": "bytes32"
        },
        {
          "internalType": "address",
          "name": "account",
          "type": "address"
        }
      ],
      "name": "hasRole",
      "outputs": [
        {
          "internalType": "bool",
          "name": "",
          "type": "bool"
        }
      ],
      "stateMutability": "view",
      "type": "function"
    },
    {
      "inputs": [
        {
          "internalType": "address",
          "name": "admin",
          "type": "address"
        },
        {
          "internalType": "string",
          "name": "name",
          "type": "string"
        },
        {
          "internalType": "string",
          "name": "symbol",
          "type": "string"
        }
      ],
      "name": "initialize",
      "outputs": [],
      "stateMutability": "nonpayable",
      "type": "function"
    },
    {
      "inputs": [
        {
          "internalType": "address",
          "name": "owner",
          "type": "address"
        },
        {
          "internalType": "address",
          "name": "operator",
          "type": "address"
        }
      ],
      "name": "isApprovedForAll",
      "outputs": [
        {
          "internalType": "bool",
          "name": "",
          "type": "bool"
        }
      ],
      "stateMutability": "view",
      "type": "function"
    },
    {
      "inputs": [
        {
          "internalType": "address",
          "name": "issuer",
          "type": "address"
        }
      ],
      "name": "isAuthorizedIssuer",
      "outputs": [
        {
          "internalType": "bool",
          "name": "",
          "type": "bool"
        }
      ],
      "stateMutability": "view",
      "type": "function"
    },
    {
      "inputs": [
        {
          "internalType": "uint256",
          "name": "tokenId",
          "type": "uint256"
        }
      ],
      "name": "isCredentialValid",
      "outputs": [
        {
          "internalType": "bool",
          "name": "valid",
          "type": "bool"
        },
        {
          "internalType": "enum VCRegistry.CredentialStatus",
          "name": "status",
          "type": "uint8"
        },
        {
          "internalType": "uint64",
          "name": "issuedAt",
          "type": "uint64"
        },
        {
          "internalType": "uint64",
          "name": "expiresAt",
          "type": "uint64"
        },
        {
          "internalType": "uint64",
          "name": "revokedAt",
          "type": "uint64"
        }
      ],
      "stateMutability": "view",
      "type": "function"
    },
    {
      "inputs": [
        {
          "internalType": "address",
          "name": "holder",
          "type": "address"
        },
        {
          "internalType": "string",
          "name": "hederaDID",
          "type": "string"
        },
        {
          "internalType": "bytes32",
          "name": "vcHash",
          "type": "bytes32"
        },
        {
          "internalType": "enum VCRegistry.CredentialType",
          "name": "credentialType",
          "type": "uint8"
        },
        {
          "internalType": "string",
          "name": "metadataURI",
          "type": "string"
        },
        {
          "internalType": "string",
          "name": "schemaURI",
          "type": "string"
        },
        {
          "internalType": "bytes32[]",
          "name": "claims",
          "type": "bytes32[]"
        },
        {
          "internalType": "uint256",
          "name": "expirationPeriod",
          "type": "uint256"
        }
      ],
      "name": "issueCredential",
      "outputs": [],
      "stateMutability": "nonpayable",
      "type": "function"
    },
    {
      "inputs": [
        {
          "internalType": "address",
          "name": "",
          "type": "address"
        }
      ],
      "name": "issuerCredentialCount",
      "outputs": [
        {
          "internalType": "uint256",
          "name": "",
          "type": "uint256"
        }
      ],
      "stateMutability": "view",
      "type": "function"
    },
    {
      "inputs": [],
      "name": "maxCredentialsPerDID",
      "outputs": [
        {
          "internalType": "uint256",
          "name": "",
          "type": "uint256"
        }
      ],
      "stateMutability": "view",
      "type": "function"
    },
    {
      "inputs": [],
      "name": "name",
      "outputs": [
        {
          "internalType": "string",
          "name": "",
          "type": "string"
        }
      ],
      "stateMutability": "view",
      "type": "function"
    },
    {
      "inputs": [
        {
          "internalType": "uint256",
          "name": "tokenId",
          "type": "uint256"
        }
      ],
      "name": "ownerOf",
      "outputs": [
        {
          "internalType": "address",
          "name": "",
          "type": "address"
        }
      ],
      "stateMutability": "view",
      "type": "function"
    },
    {
      "inputs": [],
      "name": "pause",
      "outputs": [],
      "stateMutability": "nonpayable",
      "type": "function"
    },
    {
      "inputs": [],
      "name": "paused",
      "outputs": [
        {
          "internalType": "bool",
          "name": "",
          "type": "bool"
        }
      ],
      "stateMutability": "view",
      "type": "function"
    },
    {
      "inputs": [],
      "name": "proxiableUUID",
      "outputs": [
        {
          "internalType": "bytes32",
          "name": "",
          "type": "bytes32"
        }
      ],
      "stateMutability": "view",
      "type": "function"
    },
    {
      "inputs": [
        {
          "internalType": "uint256",
          "name": "tokenId",
          "type": "uint256"
        }
      ],
      "name": "reactivateCredential",
      "outputs": [],
      "stateMutability": "nonpayable",
      "type": "function"
    },
    {
      "inputs": [
        {
          "internalType": "string",
          "name": "did",
          "type": "string"
        },
        {
          "internalType": "address",
          "name": "controller",
          "type": "address"
        },
        {
          "internalType": "string[]",
          "name": "verificationMethods",
          "type": "string[]"
        },
        {
          "internalType": "string[]",
          "name": "services",
          "type": "string[]"
        }
      ],
      "name": "registerDID",
      "outputs": [],
      "stateMutability": "nonpayable",
      "type": "function"
    },
    {
      "inputs": [
        {
          "internalType": "address",
          "name": "issuer",
          "type": "address"
        }
      ],
      "name": "registerIssuer",
      "outputs": [],
      "stateMutability": "nonpayable",
      "type": "function"
    },
    {
      "inputs": [
        {
          "internalType": "bytes32",
          "name": "role",
          "type": "bytes32"
        },
        {
          "internalType": "address",
          "name": "account",
          "type": "address"
        }
      ],
      "name": "renounceRole",
      "outputs": [],
      "stateMutability": "nonpayable",
      "type": "function"
    },
    {
      "inputs": [
        {
          "internalType": "uint256",
          "name": "tokenId",
          "type": "uint256"
        },
        {
          "internalType": "string",
          "name": "reason",
          "type": "string"
        }
      ],
      "name": "revokeCredential",
      "outputs": [],
      "stateMutability": "nonpayable",
      "type": "function"
    },
    {
      "inputs": [
        {
          "internalType": "address",
          "name": "issuer",
          "type": "address"
        }
      ],
      "name": "revokeIssuer",
      "outputs": [],
      "stateMutability": "nonpayable",
      "type": "function"
    },
    {
      "inputs": [
        {
          "internalType": "bytes32",
          "name": "role",
          "type": "bytes32"
        },
        {
          "internalType": "address",
          "name": "account",
          "type": "address"
        }
      ],
      "name": "revokeRole",
      "outputs": [],
      "stateMutability": "nonpayable",
      "type": "function"
    },
    {
      "inputs": [
        {
          "internalType": "string",
          "name": "schemaURI",
          "type": "string"
        }
      ],
      "name": "revokeSchemaApproval",
      "outputs": [],
      "stateMutability": "nonpayable",
      "type": "function"
    },
    {
      "inputs": [
        {
          "internalType": "address",
          "name": "from",
          "type": "address"
        },
        {
          "internalType": "address",
          "name": "to",
          "type": "address"
        },
        {
          "internalType": "uint256",
          "name": "tokenId",
          "type": "uint256"
        }
      ],
      "name": "safeTransferFrom",
      "outputs": [],
      "stateMutability": "nonpayable",
      "type": "function"
    },
    {
      "inputs": [
        {
          "internalType": "address",
          "name": "from",
          "type": "address"
        },
        {
          "internalType": "address",
          "name": "to",
          "type": "address"
        },
        {
          "internalType": "uint256",
          "name": "tokenId",
          "type": "uint256"
        },
        {
          "internalType": "bytes",
          "name": "data",
          "type": "bytes"
        }
      ],
      "name": "safeTransferFrom",
      "outputs": [],
      "stateMutability": "nonpayable",
      "type": "function"
    },
    {
      "inputs": [
        {
          "internalType": "address",
          "name": "operator",
          "type": "address"
        },
        {
          "internalType": "bool",
          "name": "approved",
          "type": "bool"
        }
      ],
      "name": "setApprovalForAll",
      "outputs": [],
      "stateMutability": "nonpayable",
      "type": "function"
    },
    {
      "inputs": [
        {
          "internalType": "uint256",
          "name": "tokenId",
          "type": "uint256"
        },
        {
          "internalType": "string",
          "name": "key",
          "type": "string"
        },
        {
          "internalType": "string",
          "name": "value",
          "type": "string"
        }
      ],
      "name": "setCredentialAttribute",
      "outputs": [],
      "stateMutability": "nonpayable",
      "type": "function"
    },
    {
      "inputs": [
        {
          "internalType": "bool",
          "name": "_transfersEnabled",
          "type": "bool"
        }
      ],
      "name": "setTransfersEnabled",
      "outputs": [],
      "stateMutability": "nonpayable",
      "type": "function"
    },
    {
      "inputs": [
        {
          "internalType": "bytes4",
          "name": "interfaceId",
          "type": "bytes4"
        }
      ],
      "name": "supportsInterface",
      "outputs": [
        {
          "internalType": "bool",
          "name": "",
          "type": "bool"
        }
      ],
      "stateMutability": "view",
      "type": "function"
    },
    {
      "inputs": [
        {
          "internalType": "uint256",
          "name": "tokenId",
          "type": "uint256"
        },
        {
          "internalType": "string",
          "name": "reason",
          "type": "string"
        }
      ],
      "name": "suspendCredential",
      "outputs": [],
      "stateMutability": "nonpayable",
      "type": "function"
    },
    {
      "inputs": [],
      "name": "symbol",
      "outputs": [
        {
          "internalType": "string",
          "name": "",
          "type": "string"
        }
      ],
      "stateMutability": "view",
      "type": "function"
    },
    {
      "inputs": [
        {
          "internalType": "uint256",
          "name": "tokenId",
          "type": "uint256"
        }
      ],
      "name": "tokenURI",
      "outputs": [
        {
          "internalType": "string",
          "name": "",
          "type": "string"
        }
      ],
      "stateMutability": "view",
      "type": "function"
    },
    {
      "inputs": [
        {
          "internalType": "address",
          "name": "from",
          "type": "address"
        },
        {
          "internalType": "address",
          "name": "to",
          "type": "address"
        },
        {
          "internalType": "uint256",
          "name": "tokenId",
          "type": "uint256"
        }
      ],
      "name": "transferFrom",
      "outputs": [],
      "stateMutability": "nonpayable",
      "type": "function"
    },
    {
      "inputs": [],
      "name": "transfersEnabled",
      "outputs": [
        {
          "internalType": "bool",
          "name": "",
          "type": "bool"
        }
      ],
      "stateMutability": "view",
      "type": "function"
    },
    {
      "inputs": [],
      "name": "unpause",
      "outputs": [],
      "stateMutability": "nonpayable",
      "type": "function"
    },
    {
      "inputs": [
        {
          "internalType": "string",
          "name": "did",
          "type": "string"
        },
        {
          "internalType": "string[]",
          "name": "verificationMethods",
          "type": "string[]"
        },
        {
          "internalType": "string[]",
          "name": "services",
          "type": "string[]"
        }
      ],
      "name": "updateDID",
      "outputs": [],
      "stateMutability": "nonpayable",
      "type": "function"
    },
    {
      "inputs": [
        {
          "internalType": "uint256",
          "name": "_defaultExpirationPeriod",
          "type": "uint256"
        }
      ],
      "name": "updateDefaultExpirationPeriod",
      "outputs": [],
      "stateMutability": "nonpayable",
      "type": "function"
    },
    {
      "inputs": [
        {
          "internalType": "uint256",
          "name": "_maxCredentialsPerDID",
          "type": "uint256"
        }
      ],
      "name": "updateMaxCredentialsPerDID",
      "outputs": [],
      "stateMutability": "nonpayable",
      "type": "function"
    },
    {
      "inputs": [
        {
          "internalType": "address",
          "name": "newImplementation",
          "type": "address"
        }
      ],
      "name": "upgradeTo",
      "outputs": [],
      "stateMutability": "nonpayable",
      "type": "function"
    },
    {
      "inputs": [
        {
          "internalType": "address",
          "name": "newImplementation",
          "type": "address"
        },
        {
          "internalType": "bytes",
          "name": "data",
          "type": "bytes"
        }
      ],
      "name": "upgradeToAndCall",
      "outputs": [],
      "stateMutability": "payable",
      "type": "function"
    },
    {
      "inputs": [
        {
          "internalType": "bytes32",
          "name": "",
          "type": "bytes32"
        }
      ],
      "name": "vcHashToTokenId",
      "outputs": [
        {
          "internalType": "uint256",
          "name": "",
          "type": "uint256"
        }
      ],
      "stateMutability": "view",
      "type": "function"
    }
  ],
  "bytecode": "0x60a08060405234620000e157306080526000549060ff8260081c166200008f575060ff8082160362000053575b604051615ba79081620000e78239608051818181612e0801528181612ef70152613a320152f35b60ff90811916176000557f7f26b83ff96e1f2b6a682f133852f6798a09c465da95921460cefb3847402498602060405160ff8152a1386200002c565b62461bcd60e51b815260206004820152602760248201527f496e697469616c697a61626c653a20636f6e747261637420697320696e697469604482015266616c697a696e6760c81b6064820152608490fd5b600080fdfe6080604052600436101561001257600080fd5b60003560e01c8062629679146142cc57806301ffc9a71461422a57806306fdde0314614181578063081812fc14614163578063095ea7b3146140ec5780631c7b75dd146140b157806323b872dd1461408d5780632451e05714613ed3578063248a9ca314613ea457806324c483a514613e0657806325cc2e9914613dcb57806326b9ce1314613d905780632f2ff15d14613cef57806331ba196614613c8d57806334d699c814613c5c57806336568abe14613bca5780633659cfe614613a0d578063394f9d68146139ab5780633b253b23146138335780633c2d5760146132305780633f4ba83a1461319c57806342842e0e146131695780634f1565991461313c5780634f1ef28614612eb957806352d1902d14612df5578063557f699b14612d165780635977ac3714612cf45780635c975abb14612cd15780636352211e14612ca157806369fb9b5914612bd45780636da48b9a14612b7c5780636db842ab14612b2157806370a0823114612a895780637323555f146129a6578063784afc4e14612830578063826e63dd1461280e57806382aefa24146127e55780638456cb591461278b5780638dd18d2d146125c75780639065714714611fda57806391d1485414611f8d57806392c64784146112a7578063957a3205146110d857806395d89b4114610ff0578063a038d9fc14610c5e578063a217fddf14610c42578063a22cb46514610bc0578063b0bdb39014610b46578063b7bc582214610aea578063b88d4fde14610a76578063bd53412c14610a57578063bef97c8714610a33578063c87b56dd146109bf578063cc1c4cb3146107c4578063d0b643a314610624578063d547741f146105e3578063ddb6dbd614610587578063dfe6b5d6146104d3578063e0574e3f146103c6578063e985e9c51461036f578063ef78411114610350578063f72c0d8b146103155763f731fa0f146102d057600080fd5b34610310576020366003190112610310576001600160a01b036102f16143ba565b166000526101c8602052602060ff604060002054166040519015158152f35b600080fd5b346103105760003660031901126103105760206040517f189ab7a9244df0848122154315af71fe140f3db0fe014031783b0946b8c9d2e38152f35b346103105760003660031901126103105760206101cd54604051908152f35b34610310576040366003190112610310576103886143ba565b6103906143d0565b9060018060a01b0380911660005261013260205260406000209116600052602052602060ff604060002054166040519015158152f35b34610310576020366003190112610310576004356000526101c4602052604060002080546104cf60018060a01b03926104c08460018301541694600283015416916104136003820161459a565b9060048101549161045f60058301549161043b60076104346006870161459a565b950161459a565b966040519a8b9a8b5260208b015260408a01526101808060608b0152890190614409565b92608088015261047560a0880160ff831661474c565b61048860c0880160ff8360081c166146b7565b6001600160401b0390818160101c1660e0890152818160501c1661010089015260901c16610120870152858203610140870152614409565b90838203610160850152614409565b0390f35b34610310576000366003190112610310576040516104f081614463565b60e03682376101c3546000198101919082116105715760005b600781106105525750604051918252602060008184015260006040840152606083016000905b6007821061053d5761014085f35b8280600192865181520194019101909261052f565b8061055f61056c92614640565b548160051b8401526158dd565b610509565b634e487b7160e01b600052601160045260246000fd5b34610310576020366003190112610310576004356000526101c560205260408060002054801515806105c2575b825191825215156020820152f35b50600081815261012f60205260409020546001600160a01b031615156105b4565b34610310576040366003190112610310576106226004356106026143d0565b9080600052606560205261061d600160406000200154614bc8565b614cd3565b005b3461031057610632366146c4565b61063d92919261583a565b600082815261012f6020526040902054610661906001600160a01b03161515615959565b60008281526101c46020908152604090912060018101546001600160a01b0316949033861480156107a2575b1561075a57600501805460ff8160081c166004811015610744576106f55761ff0019166101001790556040518281527fa6bd64971aec0058a94590bdc8efbcec399c3aed928293c360edd6eff042f6e093909283926106f09291840191906158ec565b0390a3005b60405162461bcd60e51b815260048101859052602160248201527f564352656769737472793a2043726564656e7469616c206e6f742061637469766044820152606560f81b6064820152608490fd5b634e487b7160e01b600052602160045260246000fd5b60405162461bcd60e51b815260048101849052602c6024820152600080516020615b1283398151915260448201526b0818d85b881cdd5cdc195b9960a21b6064820152608490fd5b506000805260658352604060002033600052835260ff6040600020541661068d565b34610310576060366003190112610310576001600160401b03600435602435828111610310576107f890369060040161465a565b91906044358481116103105761081290369060040161465a565b9261081b61583a565b600081815261012f602052604090205461083f906001600160a01b03161515615959565b6000526020916101c4835260406000209460019560018060a01b0387820154163314801561099d575b1561094e5790600961087c9392019161570b565b94831161093857610897836108918754614560565b876156d1565b600091601f84116001146108d557509282939183926000946108ca575b50501b916000199060031b1c1916179055600080f35b0135925085806108b4565b9183601f1981168760005284600020946000905b8883831061091e5750505010610904575b505050811b019055005b0135600019600384901b60f8161c191690558380806108fa565b8686013588559096019593840193879350908101906108e9565b634e487b7160e01b600052604160045260246000fd5b60405162461bcd60e51b81526004810186905260336024820152600080516020615b128339815191526044820152722063616e20736574206174747269627574657360681b6064820152608490fd5b506000805260658552604060002033600052855260ff60406000205416610868565b3461031057602036600319011261031057600435600081815261012f60205260409020546109f7906001600160a01b03161515614e9b565b60005261015f6020526104cf610a10604060002061459a565b6000604051610a1e8161447e565b52604051918291602083526020830190614409565b3461031057600036600319011261031057602060ff6101ce54166040519015158152f35b346103105760003660031901126103105760206101cc54604051908152f35b3461031057608036600319011261031057610a8f6143ba565b610a976143d0565b90606435906044356001600160401b0383116103105761062293610ac2610ae5943690600401614542565b92610ad5610ad08433615020565b614f4b565b610ae08383836150e9565b61546e565b615000565b34610310576020366003190112610310576004356001600160401b03811161031057610b1c602091369060040161465a565b9190610b26614771565b8260405193849283376101cb90820190815203019020805460ff19169055005b34610310576040366003190112610310576004356001600160401b03811161031057610b76903690600401614542565b610b9260206024359281604051938285809451938492016143e6565b81016101c6815203019020805482101561031057602091610bb291614759565b90546040519160031b1c8152f35b3461031057604036600319011261031057610bd96143ba565b50602435801515036103105760405162461bcd60e51b815260206004820152602f60248201527f564352656769737472793a20536f756c626f756e6420746f6b656e732063616e60448201526e1b9bdd08189948185c1c1c9bdd9959608a1b6064820152608490fd5b3461031057600036600319011261031057602060405160008152f35b34610310576060366003190112610310576001600160401b0360043581811161031057610c8f90369060040161465a565b60249291923582811161031057610caa903690600401614687565b929060443582811161031057610cc4903690600401614687565b9091610cce61583a565b610cd6614a83565b60405185888237610d0160ff6004888401936020816101c79687815203019020015460801c1661587e565b60206040518092888b8337888201908152030190209560028701610d2582826157aa565b600090815260208120835b838310610ed357505050505060039182860190610d4d83836157aa565b60009182526020822090805b848410610de257894288167fbf2f58ef98f3b512411f78c775512da5ceba9561d21ec4aac5220520e2a0d44e60208b8d610db985600483019067ffffffffffffffff60401b82549160401b169067ffffffffffffffff60401b1916179055565b6001808060a01b03910154169481604051928392833781016000815203902092604051908152a3005b8035601e198336030181121561031057820180359088821161031057813603602082011361031057610e18826108918754614560565b600090601f8311600114610e64579282600194936020938695600092610e57575b5050600019828c1b1c191690841b1786555b01930193019291610d59565b8592500101358f80610e39565b601f198316918660005260206000209260005b818110610eb9575092600195928592879660209610610e9f575b505050831b83018655610e4b565b01840135600019838d1b60f8161c191690558e8080610e91565b919360206001819282888801013581550195019201610e77565b8035601e198636030181121561031057888187013511610310578086013536036020828801011361031057610f1581870135610f0f8554614560565b856156d1565b6000601f8288013511600114610f6d576001928392602092600090828b0135610f5e575b50818a0135851b91600019908b013560031b1c19161785555b01920192019190610d30565b849150828b0101013538610f39565b601f198288013516908460005260206000209160005b89828210610fd457602094915092859260019794968897013511610fb2575b5050880135831b83018555610f52565b848b60f88560001992013560031b161c1991848d010101351690558f80610fa2565b6001849560208094968982950101013581550194019201610f83565b3461031057600036600319011261031057604051600061012e805461101481614560565b808552916001918083169081156110ae5750600114611052575b6104cf8561103e818703826144cf565b604051918291602083526020830190614409565b600090815292507fbdaadd9f750d0166045bf387a364eadd28ba243e04512a47282aa5147a68e37f5b82841061109657505050810160200161103e826104cf61102e565b8054602085870181019190915290930192810161107b565b8695506104cf9693506020925061103e94915060ff191682840152151560051b820101929361102e565b34610310576110e6366146c4565b90916110f061583a565b600081815261012f6020526040902054611114906001600160a01b03161515615959565b60008181526101c46020908152604090912060018101546001600160a01b031694903386148015611285575b1561123e5760058101805460ff8160081c166004811015610744576002146111ea579260047f6229a1c7ca1138c3dc9d038cb759b5dcdd8a915b19f03a4918cf7c18ccb7d0c695936111e5936102006040976001600160401b0360901b4260901b169079ffffffffffffffff00000000000000000000000000000000ff0019161717905501549684519485946001600160401b034216865285015260408401916158ec565b0390a4005b60405162461bcd60e51b815260048101869052602660248201527f564352656769737472793a2043726564656e7469616c20616c72656164792072604482015265195d9bdad95960d21b6064820152608490fd5b60405162461bcd60e51b815260048101849052602b6024820152600080516020615b1283398151915260448201526a2063616e207265766f6b6560a81b6064820152608490fd5b506000805260658352604060002033600052835260ff60406000205416611140565b3461031057610100366003190112610310576112c16143ba565b6024356001600160401b038111610310576112e090369060040161465a565b60076064351015610310576084356001600160401b0381116103105761130a90369060040161465a565b92909160a4356001600160401b0381116103105761132c90369060040161465a565b94909360c4356001600160401b0381116103105761134e903690600401614687565b909561135861583a565b3360009081527fdc90190c5595698a8d1df3df5e997a1c14cddcee1e8a77f4eb097988bdbd877e6020526040902054600080516020615b528339815191529060ff1615611df8575060026101915414611db3576002610191556001600160a01b03891615611d63578415611d1e5760443515611cd9578315611c83576044356000526101c5602052604060002054611c3e5761141260ff6004604051888a82376020818a81016101c7815203019020015460801c1661587e565b604051858782376020818781016101c6815203019020546101cc541115611be45787611b81575b6101c380546001810190915596600060e43515611b5357506001600160401b0361146560e43542615582565b16985b60008981526101c4602052604090208981556001810180546001600160a01b031990811633179091556002820180549091166001600160a01b038e16179055926001600160401b038811610938576114d0886114c76003870154614560565b600387016156d1565b876000601f8211600114611ae357600091611ad8575b508860011b906000198a60031b1c19161760038501555b604435600485015560058401805460ff606435169065ffffffffffff60d01b161769ffffffffffffffff00004260101b16176001600160401b0360501b8d60501b161790556001600160401b0387116109385761156a876115616006870154614560565b600687016156d1565b866000601f8211600114611a6a57600091611a5f575b508760011b906000198960031b1c19161760068501555b6001600160401b0382116109385781906115c1826115b86007880154614560565b600788016156d1565b600090601f83116001146119ee576000926119e3575b50508160011b916000199060031b1c19161760078301555b6001600160401b03831161093857600160401b83116109385760088201548360088401558084106119b6575b506008909101600052602060002060005b8381106119a257505050506044356000526101c560205284604060002055604051838582376020818581016101c681520301902091825492600160401b841015610938578361168391600161179d96018155614759565b8154888260031b1b916000199060031b1b1916179055336000526101c960205260406000206116b281546158dd565b90556116bf606435614640565b6116c981546158dd565b9055611796610ae56040516116dd8161447e565b600080825289815261012f6020526040902054611706906001600160a01b031615155b1561590d565b600089815261012f602052604090205461172a906001600160a01b03161515611700565b6001600160a01b038b16600081815261013060209081526040808320805460010190558c835261012f909152812080546001600160a01b031916831790558a91907fddf252ad1be2c89b69c2b068fc378daa952ba7f163c4a11628f55a4df523b3ef8180a4888b615373565b369161450b565b600084815261012f60205260409020546001600160a01b031615611946578360005261015f6020526040600020908051906001600160401b038211610938576117ea82610f0f8554614560565b602090601f83116001146118ce5791806001600160401b0396949261187296946000926118c3575b50508160011b916000199060031b1c19161790555b7ff8e1a15aba9398e019f0b49df1a4fde98ee17ae345cb5f6b5e2c27f5033e8ce76020604051878152a16040516001600160a01b03909716875260a0602088018190528701916158ec565b926118826040860160643561474c565b81421660608601521660808401527f62b11d2fe571bf506c79e1b0df12c591be85a72c64ac00059be1c6fc5a33667f339380604435940390a4600161019155005b015190508a80611812565b908360005260206000209160005b601f198516811061192e5750926001600160401b03969492600192611872979583601f19811610611915575b505050811b019055611827565b015160001960f88460031b161c191690558a8080611908565b919260206001819286850151815501940192016118dc565b60405162461bcd60e51b815260206004820152602e60248201527f45524337323155524953746f726167653a2055524920736574206f66206e6f6e60448201526d32bc34b9ba32b73a103a37b5b2b760911b6064820152608490fd5b60019060208435940193818401550161162c565b600883016000526020600020908482015b81830181106119d757505061161b565b600081556001016119c7565b013590508c806115d7565b909250600785016000526020600020906000935b601f1984168510611a47576001945083601f19811610611a2d575b505050811b0160078301556115ef565b0135600019600384901b60f8161c191690558c8080611a1d565b81810135835560209485019460019093019201611a02565b90508601358d611580565b90506006850160005260206000209060005b601f198a168110611ac0575088601f19811610611aa6575b5050600187811b016006850155611597565b87013560001960038a901b60f8161c191690558c80611a94565b9091602060018192858c013581550193019101611a7c565b90508901358d6114e6565b90506003850160005260206000209060005b8b601f198c168210611b3b57505089601f19811610611b21575b5050600188811b0160038501556114fd565b8a013560001960038b901b60f8161c191690558c80611b0f565b60018394602093948493013581550193019101611af5565b986101cd5480611b64575b50611468565b6001600160401b03919a50611b799042615582565b16988b611b5e565b60ff604051898382376020818b81016101cb81520301902054166114395760405162461bcd60e51b815260206004820152601f60248201527f564352656769737472793a20536368656d61206e6f7420617070726f766564006044820152606490fd5b60405162461bcd60e51b815260206004820152602c60248201527f564352656769737472793a204d61782063726564656e7469616c73207065722060448201526b11125108195e18d95959195960a21b6064820152608490fd5b60405162461bcd60e51b815260206004820152601d60248201527f564352656769737472793a20564320616c7265616479206973737565640000006044820152606490fd5b60405162461bcd60e51b815260206004820152602860248201527f564352656769737472793a204d65746164617461205552492063616e6e6f7420604482015267626520656d70747960c01b6064820152608490fd5b60405162461bcd60e51b815260206004820152601b60248201527f564352656769737472793a20496e76616c6964205643206861736800000000006044820152606490fd5b60405162461bcd60e51b815260206004820152601e60248201527f564352656769737472793a20496e76616c6964204865646572612044494400006044820152606490fd5b60405162461bcd60e51b815260206004820152602260248201527f564352656769737472793a20496e76616c696420686f6c646572206164647265604482015261737360f01b6064820152608490fd5b60405162461bcd60e51b815260206004820152601f60248201527f5265656e7472616e637947756172643a207265656e7472616e742063616c6c006044820152606490fd5b611e01336155a0565b60405191611e0e836144b4565b6042835260208301906060368337835115611f7757603082538351600190811015611f7757607860218601536041905b808211611f33575050611eef576048611ebc92611ecb92611eeb9560405195869376020b1b1b2b9b9a1b7b73a3937b61d1030b1b1b7bab73a1604d1b6020860152611e938151809260206037890191016143e6565b8401917001034b99036b4b9b9b4b733903937b6329607d1b6037840152518093868401906143e6565b010360288101845201826144cf565b60405162461bcd60e51b8152602060048201529182916024830190614409565b0390fd5b606460405162461bcd60e51b815260206004820152602060248201527f537472696e67733a20686578206c656e67746820696e73756666696369656e746044820152fd5b9091600f81166010811015611f77576f181899199a1a9b1b9c1cb0b131b232b360811b901a611f62848861558f565b5360041c918015610571576000190190611e3e565b634e487b7160e01b600052603260045260246000fd5b3461031057604036600319011261031057611fa66143d0565b600435600052606560205260406000209060018060a01b0316600052602052602060ff604060002054166040519015158152f35b3461031057606036600319011261031057611ff36143ba565b6024356001600160401b03811161031057612012903690600401614542565b906044356001600160401b03811161031057612032903690600401614542565b906000549060ff8260081c1615918280936125ba575b80156125a3575b156125475760ff19811660011760005582612535575b506120ae60ff60005460081c1661207b8161565a565b6120848161565a565b61208d8161565a565b60ff19609754166097556120a08161565a565b6120a98161565a565b61565a565b83516001600160401b038111610938576120ca61012d54614560565b601f81116124e5575b506020601f821160011461245c578192939495600092612451575b50508160011b916000199060031b1c19161761012d555b82516001600160401b0381116109385761012e906121238254614560565b601f81116123f8575b50602094601f82116001146123765794819293949560009261236b575b50508160011b916000199060031b1c19161790555b61217360ff60005460081c166120a08161565a565b6001610191556001600160a01b031660008181527fffdfc1249c027f9191656349feb0761381bb32c9f557e01f419fd08754bf5a1b60205260409020546065919060ff161561232c575b7f189ab7a9244df0848122154315af71fe140f3db0fe014031783b0946b8c9d2e3806000528260205260406000208260005260205260ff60406000205416156122ec575b507fa4057a4b1ab9ab5267dd02ca73e655ddebc38467f166bba2faa7a1e160dc900f91826000528060205260406000208260005260205260ff60406000205416156122ac575b5050600a6101cc55506301e133806101cd556101ce805460ff191690556101c38054600101905561227457005b61ff0019600054166000557f7f26b83ff96e1f2b6a682f133852f6798a09c465da95921460cefb3847402498602060405160018152a1005b826000526020526040600020816000526020526040600020600160ff198254161790553391600080516020615af2833981519152600080a4818080612247565b80600052826020526040600020826000526020526040600020600160ff19825416179055813391600080516020615af2833981519152600080a483612201565b60008052816020526040600020816000526020526040600020600160ff1982541617905533816000600080516020615af28339815191528180a46121bd565b015190508580612149565b601f19821695836000527fbdaadd9f750d0166045bf387a364eadd28ba243e04512a47282aa5147a68e37f9160005b8881106123e0575083600195969798106123c7575b505050811b01905561215e565b015160001960f88460031b161c191690558580806123ba565b919260206001819286850151815501940192016123a5565b61244190836000527fbdaadd9f750d0166045bf387a364eadd28ba243e04512a47282aa5147a68e37f601f840160051c81019160208510612447575b601f0160051c01906156ba565b8561212c565b9091508190612434565b0151905085806120ee565b61012d6000527f193a3ae4da5049eb74cee39e4cf5827f7ce7b1d1d1775ef1c6311eb60558e6d59060005b601f19841681106124cd575060019394959683601f198116106124b4575b505050811b0161012d55612105565b015160001960f88460031b161c191690558580806124a5565b9091602060018192858b015181550193019101612487565b61252f9061012d6000527f193a3ae4da5049eb74cee39e4cf5827f7ce7b1d1d1775ef1c6311eb60558e6d5601f840160051c8101916020851061244757601f0160051c01906156ba565b856120d3565b61ffff19166101011760005584612065565b60405162461bcd60e51b815260206004820152602e60248201527f496e697469616c697a61626c653a20636f6e747261637420697320616c72656160448201526d191e481a5b9a5d1a585b1a5e995960921b6064820152608490fd5b50303b15801561204f5750600160ff82161461204f565b50600160ff821610612048565b3461031057602036600319011261031057600435600081815261012f60205260409020546125ff906001600160a01b03161515615959565b6000526101c4602052604060002080549060018060a01b0380600183015416906002830154166004830154600584015461263b6003860161459a565b906126486006870161459a565b916126556007880161459a565b946040519687602060088b01549182815201906008829b0160005260206000209060005b818110612775575050508761272a886020988e986126c98f998f998d996126a58c6127399b038d6144cf565b6040519e8f9e8f908152015260408d015260608c6101a091829101528c0190614409565b9260808b01526126df60a08b0160ff831661474c565b6126f260c08b0160ff8360081c166146b7565b6001600160401b0390818160101c1660e08c0152818160501c166101008c015260901c166101208a01528882036101408a0152614409565b90868203610160880152614409565b91848303610180860152519182815201919060005b81811061275c575050500390f35b825184528594506020938401939092019160010161274e565b8254845260209093019260019283019201612679565b34610310576000366003190112610310576127a4614771565b6127ac61583a565b600160ff1960975416176097557f62e78cea01bee320cd4e420270b5ea74000d11b0c9f74754ebdbfc544b05a2586020604051338152a1005b34610310576000366003190112610310576020604051600080516020615b528339815191528152f35b3461031057602036600319011261031057612827614771565b6004356101cd55005b3461031057602080600319360112610310576001600160401b036004358181116103105761286290369060040161465a565b836040519261287084614463565b606093848152828101600090528460408201528480820152608081016000905260a081016000905260c0016000905282604051938492833781016101c781520301902090604051926128c184614463565b6128ca8361459a565b845260018301546001600160a01b039081168686019081529282906128f160028701615a45565b604088019081529561290560038201615a45565b9082890191825260040154956080890197848816895260a08a0195858960401c16875260c08b019860801c60ff16151589526040519b8c9b818d5251908c0160e090526101008c0161295691614409565b92511660408b01525190601f1993848b830301908b0152612976916146f7565b90519188820301608089015261298b916146f7565b94511660a0860152511660c084015251151560e08301520390f35b3461031057602080600319360112610310576101c86129c36143ba565b6129cb614771565b6001600160a01b0316916129e0831515615a9a565b600080516020615b528339815191528060005260658252604060002084600052825260ff6040600020541615612a4a575b50526040600020600160ff198254161790557f05e7c881d716bee8cb7ed92293133ba156704252439e5c502c277448f04e20c2600080a2005b806000526065825260406000208460005282526040600020600160ff19825416179055833391600080516020615af2833981519152600080a483612a11565b34610310576020366003190112610310576001600160a01b03612aaa6143ba565b168015612aca576000526101306020526020604060002054604051908152f35b60405162461bcd60e51b815260206004820152602960248201527f4552433732313a2061646472657373207a65726f206973206e6f7420612076616044820152683634b21037bbb732b960b91b6064820152608490fd5b34610310576104cf61103e612b77612b38366146c4565b600083815261012f602052604090205491929091612b60906001600160a01b03161515615959565b6000526101c460205260096040600020019161570b565b61459a565b346103105760203660031901126103105760a0612bb4612b9d6004356159a4565b9260409591949551951515865260208601906146b7565b6001600160401b0392838092166040860152166060840152166080820152f35b3461031057602080600319360112610310576004356001600160401b03811161031057612c068291369060040161465a565b919082604051938492833781016101c681520301902060405190818382549182815201908192600052846000209060005b86828210612c8d578686612c4d828803836144cf565b604051928392818401908285525180915260408401929160005b828110612c7657505050500390f35b835185528695509381019392810192600101612c67565b835485529093019260019283019201612c37565b34610310576020366003190112610310576020612cbf600435614ee7565b6040516001600160a01b039091168152f35b3461031057600036600319011261031057602060ff609754166040519015158152f35b3461031057602036600319011261031057612d0d614771565b6004356101cc55005b34610310576020366003190112610310576004356001600160401b03811161031057612d4690369060040161465a565b612d4e614771565b8015612db057604051818382376020818381016101cb815203019020600160ff1982541617905580604051928337810190600082528033920390207fab6feb290431679e31dd219fbc08c1bcebbfd9a2ae72235d52c08f3a0b318879600080a3005b60405162461bcd60e51b815260206004820152601e60248201527f564352656769737472793a20496e76616c696420736368656d612055524900006044820152606490fd5b34610310576000366003190112610310577f00000000000000000000000000000000000000000000000000000000000000006001600160a01b03163003612e4e576020604051600080516020615b328339815191528152f35b60405162461bcd60e51b815260206004820152603860248201527f555550535570677261646561626c653a206d757374206e6f742062652063616c60448201527f6c6564207468726f7567682064656c656761746563616c6c00000000000000006064820152608490fd5b604036600319011261031057612ecd6143ba565b6024356001600160401b03811161031057612eec903690600401614542565b906001600160a01b037f0000000000000000000000000000000000000000000000000000000000000000811690612f2530831415614d49565b612f42600080516020615b32833981519152928284541614614daa565b612f4a61493e565b7f4910fdfa16fed3260ed0e7147f7cc6da11a60208b5b9406d12a635614ffd91435460ff1615612f805750506106229150614e0b565b6040516352d1902d60e01b81526020939291831691908481600481865afa6000918161310d575b506130085760405162461bcd60e51b815260048101869052602e60248201527f45524331393637557067726164653a206e657720696d706c656d656e7461746960448201526d6f6e206973206e6f74205555505360901b6064820152608490fd5b036130b65761301682614e0b565b7fbc7cd75a20ee27fd9adebab32041f755214dbc6bffa90cc0225b39da2e5c2d3b600080a28251158015906130ae575b61304c57005b600080610622946040519461306086614499565b602786527f416464726573733a206c6f772d6c6576656c2064656c65676174652063616c6c81870152660819985a5b195960ca1b604087015281519101845af46130a8615343565b916154e9565b506001613046565b60405162461bcd60e51b815260048101849052602960248201527f45524331393637557067726164653a20756e737570706f727465642070726f786044820152681a58589b195555525160ba1b6064820152608490fd5b9091508581813d8311613135575b61312581836144cf565b8101031261031057519087612fa7565b503d61311b565b34610310576020366003190112610310576004356000526101c56020526020604060002054604051908152f35b3461031057610622610ae561317d3661442e565b906040519261318b8461447e565b60008452610ad5610ad08433615020565b34610310576000366003190112610310576131b5614771565b60975460ff8116156131f45760ff19166097557f5db9ee0a495bf2e6ff9c91a7834c1ba4fdd244a5e8aa4e537bd38aeae4b073aa6020604051338152a1005b60405162461bcd60e51b815260206004820152601460248201527314185d5cd8589b194e881b9bdd081c185d5cd95960621b6044820152606490fd5b34610310576080366003190112610310576004356001600160401b0381116103105761326090369060040161465a565b6132686143d0565b916044356001600160401b03811161031057613288903690600401614687565b906064356001600160401b038111610310576132a8903690600401614687565b91906132b261583a565b6132ba614a83565b85156137ee576001600160a01b038716156137a957604051928686853760ff6004888601956020816101c79889815203019020015460801c166137595761332e61333a936040519661330b88614463565b613316368b8b61450b565b88526001600160a01b038b166020890152369161573b565b6040860152369161573b565b60608301526001600160401b03421660808301526001600160401b03421660a0830152600160c083015260206040518092868683378682019081520301902081518051906001600160401b0382116109385781906133a28261339c8654614560565b866156d1565b602090601f83116001146136ed576000926136e2575b50508160011b916000199060031b1c19161781555b6001810160018060a01b036020840151166bffffffffffffffffffffffff60a01b825416179055600281016040830151602081519161340c83856157aa565b01916000526020600020916000905b8282106136055750505050600381016060830151602081519161343e83856157aa565b01916000526020600020916000905b8282106135225750505050600460c09101916001600160401b036080820151166001600160401b03198454161783556134b66001600160401b0360a083015116849067ffffffffffffffff60401b82549160401b169067ffffffffffffffff60401b1916179055565b0151815460ff60801b191690151560801b60ff60801b16179055604051918291819083378101600081520390207f55122e217e812164e89f85ac57ced9d6a1e7d39533e5f921cbb1489f04f518136020604051936001600160401b034216855260018060a01b031693a3005b80518051906001600160401b03821161093857613549826135438854614560565b886156d1565b602090601f831160011461359557928260019493602093869560009261358a575b5050600019600383901b1c191690841b1787555b0194019101909261344d565b015190508e8061356a565b908660005260206000209160005b601f19851681106135ed575083602093600196938796938794601f198116106135d4575b505050811b01875561357e565b015160001960f88460031b161c191690558e80806135c7565b919260206001819286850151815501940192016135a3565b80518051906001600160401b03821161093857613626826135438854614560565b602090601f8311600114613672579282600194936020938695600092613667575b5050600019600383901b1c191690841b1787555b0194019101909261341b565b015190508e80613647565b908660005260206000209160005b601f19851681106136ca575083602093600196938796938794601f198116106136b1575b505050811b01875561365b565b015160001960f88460031b161c191690558e80806136a4565b91926020600181928685015181550194019201613680565b0151905087806133b8565b9250836000526020600020906000935b601f198416851061373e576001945083601f19811610613725575b505050811b0181556133cd565b015160001960f88460031b161c19169055878080613718565b818101518355602094850194600190930192909101906136fd565b60405162461bcd60e51b815260206004820152602260248201527f564352656769737472793a2044494420616c7265616479207265676973746572604482015261195960f21b6064820152608490fd5b60405162461bcd60e51b815260206004820152601e60248201527f564352656769737472793a20496e76616c696420636f6e74726f6c6c657200006044820152606490fd5b60405162461bcd60e51b815260206004820152601760248201527f564352656769737472793a20496e76616c6964204449440000000000000000006044820152606490fd5b3461031057602080600319360112610310576001600160401b036004358181116103105761386590369060040161465a565b61387093919361583a565b613878614a83565b604051928185853760ff60048386019585816101c79889815203019020015460801c161561396657907f3b0aff36a36ae2ba995cdba3733206f9438955e2e295c8662df5cf21fc2ac5cf92916004604051838882378481858101898152030190200160ff60801b19815416905542169361392a856004604051858a8237868187810187815203019020019067ffffffffffffffff60401b82549160401b169067ffffffffffffffff60401b1916179055565b6001604051838882378381019283528481838060a01b0394030190200154169481604051928392833781016000815203902092604051908152a3005b60405162461bcd60e51b815260048101849052601a60248201527f564352656769737472793a20444944206e6f74206163746976650000000000006044820152606490fd5b34610310576020366003190112610310576004356001600160401b0381116103105760ff6139f660206139e381943690600401614542565b81604051938285809451938492016143e6565b81016101cb81520301902054166040519015158152f35b346103105760208060031936011261031057613a276143ba565b6001600160a01b03917f00000000000000000000000000000000000000000000000000000000000000008316613a5f30821415614d49565b613a7c600080516020615b32833981519152918583541614614daa565b613a8461493e565b60405193613a918561447e565b600085527f4910fdfa16fed3260ed0e7147f7cc6da11a60208b5b9406d12a635614ffd91435460ff1615613acc575050506106229150614e0b565b83929316906040516352d1902d60e01b81528481600481865afa60009181613b9b575b50613b505760405162461bcd60e51b815260048101869052602e60248201527f45524331393637557067726164653a206e657720696d706c656d656e7461746960448201526d6f6e206973206e6f74205555505360901b6064820152608490fd5b036130b657613b5e82614e0b565b7fbc7cd75a20ee27fd9adebab32041f755214dbc6bffa90cc0225b39da2e5c2d3b600080a2825115801590613b935761304c57005b506000613046565b9091508581813d8311613bc3575b613bb381836144cf565b8101031261031057519087613aef565b503d613ba9565b3461031057604036600319011261031057613be36143d0565b336001600160a01b03821603613bff5761062290600435614cd3565b60405162461bcd60e51b815260206004820152602f60248201527f416363657373436f6e74726f6c3a2063616e206f6e6c792072656e6f756e636560448201526e103937b632b9903337b91039b2b63360891b6064820152608490fd5b3461031057602036600319011261031057600435600781101561031057613c84602091614640565b54604051908152f35b3461031057602036600319011261031057613ca66143ba565b6001600160a01b031660009081527fdc90190c5595698a8d1df3df5e997a1c14cddcee1e8a77f4eb097988bdbd877e602090815260409182902054915160ff9092161515825290f35b3461031057604036600319011261031057600435613d0b6143d0565b816000526065602052613d25600160406000200154614bc8565b81600052606560205260406000209060018060a01b0316908160005260205260ff6040600020541615613d5457005b8160005260656020526040600020816000526020526040600020600160ff198254161790553391600080516020615af2833981519152600080a4005b346103105760203660031901126103105760043580151580910361031057613db6614771565b6101ce9060ff80198354169116179055600080f35b346103105760003660031901126103105760206040517fa4057a4b1ab9ab5267dd02ca73e655ddebc38467f166bba2faa7a1e160dc900f8152f35b34610310576020366003190112610310576004356001600160401b0380821161031057613e3f60206139e3613e7d943690600401614542565b81016101c781520301902060ff613e558261459a565b92600460018060a01b036001850154169301549060405195869560a0875260a0870190614409565b93602086015280821660408601528160401c16606085015260801c16151560808301520390f35b346103105760203660031901126103105760043560005260656020526020600160406000200154604051908152f35b34610310576020806003193601126103105760043590613ef161583a565b600082815261012f6020526040902054613f15906001600160a01b03161515615959565b60008281526101c48252604090206001810180546001600160a01b039391929084163314801561406b575b15614020576005019081549060ff8260081c16600481101561074457600103613fd057506001600160401b038160501c168015159081613fc6575b5015613fba5750805461ff0019166103001790555b5416907f89fee67112d0c62a5d62f651ad4d70d614c89bb025a775b933bff507bc70397a600080a3005b61ff0019169055613f90565b9050421186613f7b565b6084906040519062461bcd60e51b825260048201526024808201527f564352656769737472793a2043726564656e7469616c206e6f742073757370656044820152631b99195960e21b6064820152fd5b60405162461bcd60e51b815260048101839052602f6024820152600080516020615b1283398151915260448201526e2063616e207265616374697661746560881b6064820152608490fd5b506000805260658252604060002033600052825260ff60406000205416613f40565b346103105761062261409e3661442e565b916140ac610ad08433615020565b6150e9565b34610310576020366003190112610310576001600160a01b036140d26143ba565b166000526101c96020526020604060002054604051908152f35b34610310576040366003190112610310576141056143ba565b5060405162461bcd60e51b815260206004820152602f60248201527f564352656769737472793a20536f756c626f756e6420746f6b656e732063616e60448201526e1b9bdd08189948185c1c1c9bdd9959608a1b6064820152608490fd5b34610310576020366003190112610310576020612cbf600435614f0b565b3461031057600036600319011261031057604051600061012d80546141a581614560565b808552916001918083169081156110ae57506001146141ce576104cf8561103e818703826144cf565b600090815292507f193a3ae4da5049eb74cee39e4cf5827f7ce7b1d1d1775ef1c6311eb60558e6d55b82841061421257505050810160200161103e826104cf61102e565b805460208587018101919091529093019281016141f7565b346103105760203660031901126103105760043563ffffffff60e01b811680910361031057602090632483248360e11b811490811561426f575b506040519015158152f35b6380ac58cd60e01b8114915081156142bb575b8115614290575b5082614264565b637965db0b60e01b8114915081156142aa575b5082614289565b6301ffc9a760e01b149050826142a3565b635b5e139f60e01b81149150614282565b3461031057602080600319360112610310576101c86142e96143ba565b6142f1614771565b6001600160a01b031691614306831515615a9a565b600080516020615b528339815191528060005260658252604060002084600052825260ff6040600020541661436c575b5052604060002060ff1981541690557faf66545c919a3be306ee446d8f42a9558b5b022620df880517bc9593ec0f2d52600080a2005b80600052606582526040600020846000528252604060002060ff1981541690558333917ff6391f5c32d9c69d2a47ea670b442974b53935d1edc7fd64eb21e047a839171b600080a483614336565b600435906001600160a01b038216820361031057565b602435906001600160a01b038216820361031057565b60005b8381106143f95750506000910152565b81810151838201526020016143e9565b90602091614422815180928185528580860191016143e6565b601f01601f1916010190565b6060906003190112610310576001600160a01b0390600435828116810361031057916024359081168103610310579060443590565b60e081019081106001600160401b0382111761093857604052565b602081019081106001600160401b0382111761093857604052565b606081019081106001600160401b0382111761093857604052565b608081019081106001600160401b0382111761093857604052565b90601f801991011681019081106001600160401b0382111761093857604052565b6001600160401b03811161093857601f01601f191660200190565b929192614517826144f0565b9161452560405193846144cf565b829481845281830111610310578281602093846000960137010152565b9080601f830112156103105781602061455d9335910161450b565b90565b90600182811c92168015614590575b602083101461457a57565b634e487b7160e01b600052602260045260246000fd5b91607f169161456f565b90604051918260008254926145ae84614560565b90818452600194858116908160001461461d57506001146145da575b50506145d8925003836144cf565b565b9093915060005260209081600020936000915b8183106146055750506145d8935082010138806145ca565b855488840185015294850194879450918301916145ed565b9150506145d894506020925060ff191682840152151560051b82010138806145ca565b6007811015610744576000526101ca602052604060002090565b9181601f84011215610310578235916001600160401b038311610310576020838186019501011161031057565b9181601f84011215610310578235916001600160401b038311610310576020808501948460051b01011161031057565b9060048210156107445752565b9060406003198301126103105760043591602435906001600160401b038211610310576146f39160040161465a565b9091565b90815180825260208092019182818360051b85019501936000915b8483106147225750505050505090565b909192939495848061473c83856001950387528a51614409565b9801930193019194939290614712565b9060078210156107445752565b8054821015611f775760005260206000200190600090565b3360009081527fffdfc1249c027f9191656349feb0761381bb32c9f557e01f419fd08754bf5a1b602090815260408083205490929060ff16156147b357505050565b6147bc336155a0565b90808451906147ca826144b4565b6042825284820192606036853782511561492a576030845382519060019182101561492a5790607860218501536041915b8183116148bc5750505061487a576048611eeb93869361485e9361484f985198899376020b1b1b2b9b9a1b7b73a3937b61d1030b1b1b7bab73a1604d1b8a860152611e93815180928c6037890191016143e6565b010360288101875201856144cf565b5192839262461bcd60e51b845260048401526024830190614409565b60648486519062461bcd60e51b825280600483015260248201527f537472696e67733a20686578206c656e67746820696e73756666696369656e746044820152fd5b909192600f81166010811015614916576f181899199a1a9b1b9c1cb0b131b232b360811b901a6148ec858761558f565b5360041c928015614902576000190191906147fb565b634e487b7160e01b82526011600452602482fd5b634e487b7160e01b83526032600452602483fd5b634e487b7160e01b81526032600452602490fd5b3360009081527f61c6261e6978331c793eee420d743e773864e0ec05cc862750e423d64f73e9f6602090815260408083205490927f189ab7a9244df0848122154315af71fe140f3db0fe014031783b0946b8c9d2e39160ff16156149a25750505050565b6149ab336155a0565b918451906149b8826144b4565b6042825284820192606036853782511561492a576030845382519060019182101561492a5790607860218501536041915b818311614a3d5750505061487a576048611eeb93869361485e9361484f985198899376020b1b1b2b9b9a1b7b73a3937b61d1030b1b1b7bab73a1604d1b8a860152611e93815180928c6037890191016143e6565b909192600f81166010811015614916576f181899199a1a9b1b9c1cb0b131b232b360811b901a614a6d858761558f565b5360041c928015614902576000190191906149e9565b3360009081527f55c0d5b0ff48dce25436fe2aa58a4419f6d3ed31ba53bee0b2fd8a1915347c84602090815260408083205490927fa4057a4b1ab9ab5267dd02ca73e655ddebc38467f166bba2faa7a1e160dc900f9160ff1615614ae75750505050565b614af0336155a0565b91845190614afd826144b4565b6042825284820192606036853782511561492a576030845382519060019182101561492a5790607860218501536041915b818311614b825750505061487a576048611eeb93869361485e9361484f985198899376020b1b1b2b9b9a1b7b73a3937b61d1030b1b1b7bab73a1604d1b8a860152611e93815180928c6037890191016143e6565b909192600f81166010811015614916576f181899199a1a9b1b9c1cb0b131b232b360811b901a614bb2858761558f565b5360041c92801561490257600019019190614b2e565b60009080825260209060658252604092838120338252835260ff848220541615614bf25750505050565b614bfb336155a0565b91845190614c08826144b4565b6042825284820192606036853782511561492a576030845382519060019182101561492a5790607860218501536041915b818311614c8d5750505061487a576048611eeb93869361485e9361484f985198899376020b1b1b2b9b9a1b7b73a3937b61d1030b1b1b7bab73a1604d1b8a860152611e93815180928c6037890191016143e6565b909192600f81166010811015614916576f181899199a1a9b1b9c1cb0b131b232b360811b901a614cbd858761558f565b5360041c92801561490257600019019190614c39565b906000918083526065602052604083209160018060a01b03169182845260205260ff604084205416614d0457505050565b8083526065602052604083208284526020526040832060ff1981541690557ff6391f5c32d9c69d2a47ea670b442974b53935d1edc7fd64eb21e047a839171b339380a4565b15614d5057565b60405162461bcd60e51b815260206004820152602c60248201527f46756e6374696f6e206d7573742062652063616c6c6564207468726f7567682060448201526b19195b1959d85d1958d85b1b60a21b6064820152608490fd5b15614db157565b60405162461bcd60e51b815260206004820152602c60248201527f46756e6374696f6e206d7573742062652063616c6c6564207468726f7567682060448201526b6163746976652070726f787960a01b6064820152608490fd5b803b15614e4057600080516020615b3283398151915280546001600160a01b0319166001600160a01b03909216919091179055565b60405162461bcd60e51b815260206004820152602d60248201527f455243313936373a206e657720696d706c656d656e746174696f6e206973206e60448201526c1bdd08184818dbdb9d1c9858dd609a1b6064820152608490fd5b15614ea257565b60405162461bcd60e51b815260206004820152601860248201527f4552433732313a20696e76616c696420746f6b656e20494400000000000000006044820152606490fd5b600090815261012f60205260409020546001600160a01b031661455d811515614e9b565b600081815261012f6020526040902054614f2f906001600160a01b03161515614e9b565b600090815261013160205260409020546001600160a01b031690565b15614f5257565b60405162461bcd60e51b815260206004820152602d60248201527f4552433732313a2063616c6c6572206973206e6f7420746f6b656e206f776e6560448201526c1c881bdc88185c1c1c9bdd9959609a1b6064820152608490fd5b60809060208152603260208201527f4552433732313a207472616e7366657220746f206e6f6e20455243373231526560408201527131b2b4bb32b91034b6b83632b6b2b73a32b960711b60608201520190565b1561500757565b60405162461bcd60e51b815280611eeb60048201614fad565b906001600160a01b03808061503484614ee7565b16931691838314938415615067575b508315615051575b50505090565b61505d91929350614f0b565b161438808061504b565b90935060005261013260205260406000208260005260205260ff604060002054169238615043565b1561509657565b60405162461bcd60e51b815260206004820152602560248201527f4552433732313a207472616e736665722066726f6d20696e636f72726563742060448201526437bbb732b960d91b6064820152608490fd5b90615111916150f784614ee7565b6001600160a01b039391841692849290918316841461508f565b169182156152f25781801515806152ea575b6151bf575b61513c9161513586614ee7565b161461508f565b7fddf252ad1be2c89b69c2b068fc378daa952ba7f163c4a11628f55a4df523b3ef6000848152610131602052604081206bffffffffffffffffffffffff60a01b90818154169055838252610130602052604082206000198154019055848252604082206001815401905585825261012f60205284604083209182541617905580a4565b5060ff6101ce541615615263573360009081527fffdfc1249c027f9191656349feb0761381bb32c9f557e01f419fd08754bf5a1b602052604090205460ff16156152095781615128565b60405162461bcd60e51b815260206004820152602c60248201527f564352656769737472793a205472616e7366657220726571756972657320616460448201526b1b5a5b88185c1c1c9bdd985b60a21b6064820152608490fd5b5082608492604051927f184e520b4f95d7866c7393beb94b3043b9fc654d6f1788aebe4a15afc2bfaa24600080a462461bcd60e51b815260206004820152603160248201527f564352656769737472793a20536f756c626f756e6420746f6b656e7320617265604482015270206e6f6e2d7472616e7366657261626c6560781b6064820152fd5b506001615123565b60405162461bcd60e51b8152602060048201526024808201527f4552433732313a207472616e7366657220746f20746865207a65726f206164646044820152637265737360e01b6064820152608490fd5b3d1561536e573d90615354826144f0565b9161536260405193846144cf565b82523d6000602084013e565b606090565b9091600091803b15615465576153be6020918493604051948580948193630a85bd0160e11b9a8b84523360048501528460248501526044840152608060648401526084830190614409565b03926001600160a01b03165af190829082615416575b5050615408576153e2615343565b805190816154035760405162461bcd60e51b815280611eeb60048201614fad565b602001fd5b6001600160e01b0319161490565b909192506020813d821161545d575b81615432602093836144cf565b810103126154595751906001600160e01b03198216820361545657509038806153d4565b80fd5b5080fd5b3d9150615425565b50505050600190565b91926000929190813b156154df576020916154c49185604051958680958194630a85bd0160e11b9b8c845233600485015260018060a01b0380951660248501526044840152608060648401526084830190614409565b0393165af190829082615416575050615408576153e2615343565b5050505050600190565b9192901561554b57508151156154fd575090565b3b156155065790565b60405162461bcd60e51b815260206004820152601d60248201527f416464726573733a2063616c6c20746f206e6f6e2d636f6e74726163740000006044820152606490fd5b82519091501561555e5750805190602001fd5b60405162461bcd60e51b815260206004820152908190611eeb906024830190614409565b9190820180921161057157565b908151811015611f77570160200190565b604051906155ad82614499565b602a8252602082016040368237825115611f7757603090538151600190811015611f7757607860218401536029905b8082116155ec575050611eef5790565b9091600f81166010811015615645576f181899199a1a9b1b9c1cb0b131b232b360811b901a61561b848661558f565b5360041c9180156156305760001901906155dc565b60246000634e487b7160e01b81526011600452fd5b60246000634e487b7160e01b81526032600452fd5b1561566157565b60405162461bcd60e51b815260206004820152602b60248201527f496e697469616c697a61626c653a20636f6e7472616374206973206e6f74206960448201526a6e697469616c697a696e6760a81b6064820152608490fd5b8181106156c5575050565b600081556001016156ba565b9190601f81116156e057505050565b6145d8926000526020600020906020601f840160051c8301931061244757601f0160051c01906156ba565b6020919283604051948593843782019081520301902090565b6001600160401b0381116109385760051b60200190565b9291909261574884615724565b9161575660405193846144cf565b829480845260208094019060051b8301928284116103105780915b84831061578057505050505050565b82356001600160401b03811161031057869161579f8684938601614542565b815201920191615771565b600160401b8211610938578054918082558281106157c757505050565b600091825260209081832093840193015b8381106157e55750505050565b80836157f360019354614560565b80615801575b5050016157d8565b601f808211851461581857505081555b83386157f9565b61583190848452868420920160051c82018583016156ba565b81835555615811565b60ff6097541661584657565b60405162461bcd60e51b815260206004820152601060248201526f14185d5cd8589b194e881c185d5cd95960821b6044820152606490fd5b1561588557565b60405162461bcd60e51b815260206004820152602a60248201527f564352656769737472793a20444944206e6f742072656769737465726564206f6044820152697220696e61637469766560b01b6064820152608490fd5b60001981146105715760010190565b908060209392818452848401376000828201840152601f01601f1916010190565b1561591457565b60405162461bcd60e51b815260206004820152601c60248201527f4552433732313a20746f6b656e20616c7265616479206d696e746564000000006044820152606490fd5b1561596057565b606460405162461bcd60e51b815260206004820152602060248201527f564352656769737472793a20546f6b656e20646f6573206e6f742065786973746044820152fd5b600081815261012f60205260409020546001600160a01b031615615a33576000526101c46020526005604060002001546001600160401b0390818160501c169081151580615a2a575b615a155760ff8160081c169360048510156107445784159493808360101c16939260901c1690565b600093600393808360101c16939260901c1690565b508142116159ed565b50600090600290600090600090600090565b908154615a5181615724565b92615a5f60405194856144cf565b818452600090815260208082208186015b848410615a7e575050505050565b6001838192615a8c8561459a565b815201920193019290615a70565b15615aa157565b60405162461bcd60e51b815260206004820152602260248201527f564352656769737472793a20496e76616c696420697373756572206164647265604482015261737360f01b6064820152608490fdfe2f8788117e7eff1d82e926ec794901d17c78024a50270940304540a733656f0d564352656769737472793a204f6e6c7920697373756572206f722061646d696e360894a13ba1a3210667c828492db98dca3e2076cc3735a920a3ca505d382bbc114e74f6ea3bd819998f78687bfcb11b140da08e9b7d222fa9c1f1ba1f2aa122a26469706673582212202806c95db3324b8569d63179cc99c61d06428e262c36b84e46fb2172fceb616e64736f6c63430008130033",
  "linkReferences": {},
  "deployedLinkReferences": {}
}