{
  "_format": "hh-sol-artifact-1",
  "contractName": "EscrowContract",
  "sourceName": "contracts/EscrowContract.sol",
  "abi": [
    {
      "inputs": [],
      "stateMutability": "nonpayable",
      "type": "constructor"
    },
    {
      "anonymous": false,
      "inputs": [
        {
          "indexed": false,
          "internalType": "address",
          "name": "previousAdmin",
          "type": "address"
        },
        {
          "indexed": false,
          "internalType": "address",
          "name": "newAdmin",
          "type": "address"
        }
      ],
      "name": "AdminChanged",
      "type": "event"
    },
    {
      "anonymous": false,
      "inputs": [
        {
          "indexed": true,
          "internalType": "address",
          "name": "beacon",
          "type": "address"
        }
      ],
      "name": "BeaconUpgraded",
      "type": "event"
    },
    {
      "anonymous": false,
      "inputs": [
        {
          "indexed": true,
          "internalType": "bytes32",
          "name": "requestId",
          "type": "bytes32"
        },
        {
          "indexed": true,
          "internalType": "address",
          "name": "initiator",
          "type": "address"
        },
        {
          "indexed": false,
          "internalType": "string",
          "name": "reason",
          "type": "string"
        }
      ],
      "name": "DisputeRaised",
      "type": "event"
    },
    {
      "anonymous": false,
      "inputs": [
        {
          "indexed": true,
          "internalType": "bytes32",
          "name": "requestId",
          "type": "bytes32"
        },
        {
          "indexed": true,
          "internalType": "address",
          "name": "resolver",
          "type": "address"
        },
        {
          "indexed": false,
          "internalType": "bool",
          "name": "userFavored",
          "type": "bool"
        },
        {
          "indexed": false,
          "internalType": "string",
          "name": "resolution",
          "type": "string"
        }
      ],
      "name": "DisputeResolved",
      "type": "event"
    },
    {
      "anonymous": false,
      "inputs": [
        {
          "indexed": true,
          "internalType": "bytes32",
          "name": "requestId",
          "type": "bytes32"
        },
        {
          "indexed": false,
          "internalType": "string",
          "name": "reason",
          "type": "string"
        }
      ],
      "name": "EscrowCancelled",
      "type": "event"
    },
    {
      "anonymous": false,
      "inputs": [
        {
          "indexed": true,
          "internalType": "bytes32",
          "name": "requestId",
          "type": "bytes32"
        },
        {
          "indexed": true,
          "internalType": "address",
          "name": "user",
          "type": "address"
        },
        {
          "indexed": true,
          "internalType": "address",
          "name": "verifier",
          "type": "address"
        },
        {
          "indexed": false,
          "internalType": "uint256",
          "name": "amount",
          "type": "uint256"
        }
      ],
      "name": "EscrowCreated",
      "type": "event"
    },
    {
      "anonymous": false,
      "inputs": [
        {
          "indexed": true,
          "internalType": "bytes32",
          "name": "requestId",
          "type": "bytes32"
        },
        {
          "indexed": false,
          "internalType": "uint256",
          "name": "fraudScore",
          "type": "uint256"
        },
        {
          "indexed": false,
          "internalType": "bool",
          "name": "fraudDetected",
          "type": "bool"
        }
      ],
      "name": "FraudCheckCompleted",
      "type": "event"
    },
    {
      "anonymous": false,
      "inputs": [
        {
          "indexed": true,
          "internalType": "bytes32",
          "name": "requestId",
          "type": "bytes32"
        },
        {
          "indexed": false,
          "internalType": "uint256",
          "name": "amount",
          "type": "uint256"
        },
        {
          "indexed": false,
          "internalType": "uint256",
          "name": "expiresAt",
          "type": "uint256"
        }
      ],
      "name": "FundsLocked",
      "type": "event"
    },
    {
      "anonymous": false,
      "inputs": [
        {
          "indexed": true,
          "internalType": "bytes32",
          "name": "requestId",
          "type": "bytes32"
        },
        {
          "indexed": true,
          "internalType": "address",
          "name": "verifier",
          "type": "address"
        },
        {
          "indexed": false,
          "internalType": "uint256",
          "name": "amount",
          "type": "uint256"
        },
        {
          "indexed": false,
          "internalType": "uint256",
          "name": "platformFee",
          "type": "uint256"
        }
      ],
      "name": "FundsReleased",
      "type": "event"
    },
    {
      "anonymous": false,
      "inputs": [
        {
          "indexed": false,
          "internalType": "uint8",
          "name": "version",
          "type": "uint8"
        }
      ],
      "name": "Initialized",
      "type": "event"
    },
    {
      "anonymous": false,
      "inputs": [
        {
          "indexed": false,
          "internalType": "address",
          "name": "account",
          "type": "address"
        }
      ],
      "name": "Paused",
      "type": "event"
    },
    {
      "anonymous": false,
      "inputs": [
        {
          "indexed": true,
          "internalType": "bytes32",
          "name": "requestId",
          "type": "bytes32"
        },
        {
          "indexed": true,
          "internalType": "address",
          "name": "user",
          "type": "address"
        },
        {
          "indexed": false,
          "internalType": "uint256",
          "name": "amount",
          "type": "uint256"
        }
      ],
      "name": "RefundIssued",
      "type": "event"
    },
    {
      "anonymous": false,
      "inputs": [
        {
          "indexed": true,
          "internalType": "bytes32",
          "name": "role",
          "type": "bytes32"
        },
        {
          "indexed": true,
          "internalType": "bytes32",
          "name": "previousAdminRole",
          "type": "bytes32"
        },
        {
          "indexed": true,
          "internalType": "bytes32",
          "name": "newAdminRole",
          "type": "bytes32"
        }
      ],
      "name": "RoleAdminChanged",
      "type": "event"
    },
    {
      "anonymous": false,
      "inputs": [
        {
          "indexed": true,
          "internalType": "bytes32",
          "name": "role",
          "type": "bytes32"
        },
        {
          "indexed": true,
          "internalType": "address",
          "name": "account",
          "type": "address"
        },
        {
          "indexed": true,
          "internalType": "address",
          "name": "sender",
          "type": "address"
        }
      ],
      "name": "RoleGranted",
      "type": "event"
    },
    {
      "anonymous": false,
      "inputs": [
        {
          "indexed": true,
          "internalType": "bytes32",
          "name": "role",
          "type": "bytes32"
        },
        {
          "indexed": true,
          "internalType": "address",
          "name": "account",
          "type": "address"
        },
        {
          "indexed": true,
          "internalType": "address",
          "name": "sender",
          "type": "address"
        }
      ],
      "name": "RoleRevoked",
      "type": "event"
    },
    {
      "anonymous": false,
      "inputs": [
        {
          "indexed": false,
          "internalType": "address",
          "name": "account",
          "type": "address"
        }
      ],
      "name": "Unpaused",
      "type": "event"
    },
    {
      "anonymous": false,
      "inputs": [
        {
          "indexed": true,
          "internalType": "address",
          "name": "implementation",
          "type": "address"
        }
      ],
      "name": "Upgraded",
      "type": "event"
    },
    {
      "anonymous": false,
      "inputs": [
        {
          "indexed": true,
          "internalType": "bytes32",
          "name": "requestId",
          "type": "bytes32"
        },
        {
          "indexed": true,
          "internalType": "address",
          "name": "verifier",
          "type": "address"
        },
        {
          "indexed": false,
          "internalType": "string",
          "name": "verificationData",
          "type": "string"
        }
      ],
      "name": "VerificationSubmitted",
      "type": "event"
    },
    {
      "inputs": [],
      "name": "ADMIN_ROLE",
      "outputs": [
        {
          "internalType": "bytes32",
          "name": "",
          "type": "bytes32"
        }
      ],
      "stateMutability": "view",
      "type": "function"
    },
    {
      "inputs": [],
      "name": "DEFAULT_ADMIN_ROLE",
      "outputs": [
        {
          "internalType": "bytes32",
          "name": "",
          "type": "bytes32"
        }
      ],
      "stateMutability": "view",
      "type": "function"
    },
    {
      "inputs": [],
      "name": "DISPUTE_RESOLVER_ROLE",
      "outputs": [
        {
          "internalType": "bytes32",
          "name": "",
          "type": "bytes32"
        }
      ],
      "stateMutability": "view",
      "type": "function"
    },
    {
      "inputs": [],
      "name": "ORACLE_ROLE",
      "outputs": [
        {
          "internalType": "bytes32",
          "name": "",
          "type": "bytes32"
        }
      ],
      "stateMutability": "view",
      "type": "function"
    },
    {
      "inputs": [],
      "name": "UPGRADER_ROLE",
      "outputs": [
        {
          "internalType": "bytes32",
          "name": "",
          "type": "bytes32"
        }
      ],
      "stateMutability": "view",
      "type": "function"
    },
    {
      "inputs": [
        {
          "internalType": "bytes32",
          "name": "requestId",
          "type": "bytes32"
        }
      ],
      "name": "cancelExpiredEscrow",
      "outputs": [],
      "stateMutability": "nonpayable",
      "type": "function"
    },
    {
      "inputs": [
        {
          "internalType": "bytes32",
          "name": "requestId",
          "type": "bytes32"
        },
        {
          "internalType": "uint256",
          "name": "riskScore",
          "type": "uint256"
        },
        {
          "internalType": "bool",
          "name": "isFraud",
          "type": "bool"
        }
      ],
      "name": "completeFraudCheck",
      "outputs": [],
      "stateMutability": "nonpayable",
      "type": "function"
    },
    {
      "inputs": [
        {
          "internalType": "bytes32",
          "name": "requestId",
          "type": "bytes32"
        },
        {
          "internalType": "address",
          "name": "verifier",
          "type": "address"
        }
      ],
      "name": "createEscrow",
      "outputs": [],
      "stateMutability": "payable",
      "type": "function"
    },
    {
      "inputs": [],
      "name": "disputeTimeout",
      "outputs": [
        {
          "internalType": "uint256",
          "name": "",
          "type": "uint256"
        }
      ],
      "stateMutability": "view",
      "type": "function"
    },
    {
      "inputs": [
        {
          "internalType": "bytes32",
          "name": "",
          "type": "bytes32"
        }
      ],
      "name": "disputes",
      "outputs": [
        {
          "internalType": "bytes32",
          "name": "requestId",
          "type": "bytes32"
        },
        {
          "internalType": "address",
          "name": "initiator",
          "type": "address"
        },
        {
          "internalType": "string",
          "name": "reason",
          "type": "string"
        },
        {
          "internalType": "uint256",
          "name": "createdAt",
          "type": "uint256"
        },
        {
          "internalType": "uint256",
          "name": "resolvedAt",
          "type": "uint256"
        },
        {
          "internalType": "address",
          "name": "resolver",
          "type": "address"
        },
        {
          "internalType": "bool",
          "name": "userFavored",
          "type": "bool"
        },
        {
          "internalType": "string",
          "name": "resolution",
          "type": "string"
        }
      ],
      "stateMutability": "view",
      "type": "function"
    },
    {
      "inputs": [],
      "name": "emergencyWithdraw",
      "outputs": [],
      "stateMutability": "nonpayable",
      "type": "function"
    },
    {
      "inputs": [
        {
          "internalType": "bytes32",
          "name": "",
          "type": "bytes32"
        }
      ],
      "name": "escrowRequests",
      "outputs": [
        {
          "internalType": "bytes32",
          "name": "requestId",
          "type": "bytes32"
        },
        {
          "internalType": "address",
          "name": "user",
          "type": "address"
        },
        {
          "internalType": "address",
          "name": "verifier",
          "type": "address"
        },
        {
          "internalType": "uint256",
          "name": "amount",
          "type": "uint256"
        },
        {
          "internalType": "uint256",
          "name": "createdAt",
          "type": "uint256"
        },
        {
          "internalType": "uint256",
          "name": "expiresAt",
          "type": "uint256"
        },
        {
          "internalType": "enum EscrowContract.EscrowStatus",
          "name": "status",
          "type": "uint8"
        },
        {
          "internalType": "string",
          "name": "verificationData",
          "type": "string"
        },
        {
          "internalType": "uint256",
          "name": "fraudScore",
          "type": "uint256"
        },
        {
          "internalType": "bool",
          "name": "fraudDetected",
          "type": "bool"
        },
        {
          "internalType": "enum EscrowContract.DisputeStatus",
          "name": "disputeStatus",
          "type": "uint8"
        },
        {
          "internalType": "string",
          "name": "disputeReason",
          "type": "string"
        },
        {
          "internalType": "address",
          "name": "disputeResolver",
          "type": "address"
        },
        {
          "internalType": "uint256",
          "name": "resolvedAt",
          "type": "uint256"
        }
      ],
      "stateMutability": "view",
      "type": "function"
    },
    {
      "inputs": [],
      "name": "escrowTimeout",
      "outputs": [
        {
          "internalType": "uint256",
          "name": "",
          "type": "uint256"
        }
      ],
      "stateMutability": "view",
      "type": "function"
    },
    {
      "inputs": [],
      "name": "feeRecipient",
      "outputs": [
        {
          "internalType": "address",
          "name": "",
          "type": "address"
        }
      ],
      "stateMutability": "view",
      "type": "function"
    },
    {
      "inputs": [],
      "name": "fraudDetection",
      "outputs": [
        {
          "internalType": "contract IFraudDetection",
          "name": "",
          "type": "address"
        }
      ],
      "stateMutability": "view",
      "type": "function"
    },
    {
      "inputs": [],
      "name": "fraudThreshold",
      "outputs": [
        {
          "internalType": "uint256",
          "name": "",
          "type": "uint256"
        }
      ],
      "stateMutability": "view",
      "type": "function"
    },
    {
      "inputs": [
        {
          "internalType": "bytes32",
          "name": "requestId",
          "type": "bytes32"
        }
      ],
      "name": "getDispute",
      "outputs": [
        {
          "components": [
            {
              "internalType": "bytes32",
              "name": "requestId",
              "type": "bytes32"
            },
            {
              "internalType": "address",
              "name": "initiator",
              "type": "address"
            },
            {
              "internalType": "string",
              "name": "reason",
              "type": "string"
            },
            {
              "internalType": "uint256",
              "name": "createdAt",
              "type": "uint256"
            },
            {
              "internalType": "uint256",
              "name": "resolvedAt",
              "type": "uint256"
            },
            {
              "internalType": "address",
              "name": "resolver",
              "type": "address"
            },
            {
              "internalType": "bool",
              "name": "userFavored",
              "type": "bool"
            },
            {
              "internalType": "string",
              "name": "resolution",
              "type": "string"
            }
          ],
          "internalType": "struct EscrowContract.DisputeInfo",
          "name": "",
          "type": "tuple"
        }
      ],
      "stateMutability": "view",
      "type": "function"
    },
    {
      "inputs": [
        {
          "internalType": "bytes32",
          "name": "requestId",
          "type": "bytes32"
        }
      ],
      "name": "getEscrowRequest",
      "outputs": [
        {
          "components": [
            {
              "internalType": "bytes32",
              "name": "requestId",
              "type": "bytes32"
            },
            {
              "internalType": "address",
              "name": "user",
              "type": "address"
            },
            {
              "internalType": "address",
              "name": "verifier",
              "type": "address"
            },
            {
              "internalType": "uint256",
              "name": "amount",
              "type": "uint256"
            },
            {
              "internalType": "uint256",
              "name": "createdAt",
              "type": "uint256"
            },
            {
              "internalType": "uint256",
              "name": "expiresAt",
              "type": "uint256"
            },
            {
              "internalType": "enum EscrowContract.EscrowStatus",
              "name": "status",
              "type": "uint8"
            },
            {
              "internalType": "string",
              "name": "verificationData",
              "type": "string"
            },
            {
              "internalType": "uint256",
              "name": "fraudScore",
              "type": "uint256"
            },
            {
              "internalType": "bool",
              "name": "fraudDetected",
              "type": "bool"
            },
            {
              "internalType": "enum EscrowContract.DisputeStatus",
              "name": "disputeStatus",
              "type": "uint8"
            },
            {
              "internalType": "string",
              "name": "disputeReason",
              "type": "string"
            },
            {
              "internalType": "address",
              "name": "disputeResolver",
              "type": "address"
            },
            {
              "internalType": "uint256",
              "name": "resolvedAt",
              "type": "uint256"
            }
          ],
          "internalType": "struct EscrowContract.EscrowRequest",
          "name": "",
          "type": "tuple"
        }
      ],
      "stateMutability": "view",
      "type": "function"
    },
    {
      "inputs": [
        {
          "internalType": "bytes32",
          "name": "role",
          "type": "bytes32"
        }
      ],
      "name": "getRoleAdmin",
      "outputs": [
        {
          "internalType": "bytes32",
          "name": "",
          "type": "bytes32"
        }
      ],
      "stateMutability": "view",
      "type": "function"
    },
    {
      "inputs": [
        {
          "internalType": "bytes32",
          "name": "role",
          "type": "bytes32"
        },
        {
          "internalType": "address",
          "name": "account",
          "type": "address"
        }
      ],
      "name": "grantRole",
      "outputs": [],
      "stateMutability": "nonpayable",
      "type": "function"
    },
    {
      "inputs": [
        {
          "internalType": "bytes32",
          "name": "role",
          "type": "bytes32"
        },
        {
          "internalType": "address",
          "name": "account",
          "type": "address"
        }
      ],
      "name": "hasRole",
      "outputs": [
        {
          "internalType": "bool",
          "name": "",
          "type": "bool"
        }
      ],
      "stateMutability": "view",
      "type": "function"
    },
    {
      "inputs": [
        {
          "internalType": "address",
          "name": "admin",
          "type": "address"
        },
        {
          "internalType": "address",
          "name": "_verifierMarketplace",
          "type": "address"
        },
        {
          "internalType": "address",
          "name": "_fraudDetection",
          "type": "address"
        },
        {
          "internalType": "address",
          "name": "_paymentToken",
          "type": "address"
        },
        {
          "internalType": "address",
          "name": "_feeRecipient",
          "type": "address"
        }
      ],
      "name": "initialize",
      "outputs": [],
      "stateMutability": "nonpayable",
      "type": "function"
    },
    {
      "inputs": [
        {
          "internalType": "bytes32",
          "name": "requestId",
          "type": "bytes32"
        }
      ],
      "name": "lockFunds",
      "outputs": [],
      "stateMutability": "nonpayable",
      "type": "function"
    },
    {
      "inputs": [],
      "name": "pause",
      "outputs": [],
      "stateMutability": "nonpayable",
      "type": "function"
    },
    {
      "inputs": [],
      "name": "paused",
      "outputs": [
        {
          "internalType": "bool",
          "name": "",
          "type": "bool"
        }
      ],
      "stateMutability": "view",
      "type": "function"
    },
    {
      "inputs": [],
      "name": "paymentToken",
      "outputs": [
        {
          "internalType": "contract IERC20",
          "name": "",
          "type": "address"
        }
      ],
      "stateMutability": "view",
      "type": "function"
    },
    {
      "inputs": [],
      "name": "platformFeePercentage",
      "outputs": [
        {
          "internalType": "uint256",
          "name": "",
          "type": "uint256"
        }
      ],
      "stateMutability": "view",
      "type": "function"
    },
    {
      "inputs": [],
      "name": "proxiableUUID",
      "outputs": [
        {
          "internalType": "bytes32",
          "name": "",
          "type": "bytes32"
        }
      ],
      "stateMutability": "view",
      "type": "function"
    },
    {
      "inputs": [
        {
          "internalType": "bytes32",
          "name": "requestId",
          "type": "bytes32"
        },
        {
          "internalType": "string",
          "name": "reason",
          "type": "string"
        }
      ],
      "name": "raiseDispute",
      "outputs": [],
      "stateMutability": "nonpayable",
      "type": "function"
    },
    {
      "inputs": [
        {
          "internalType": "bytes32",
          "name": "role",
          "type": "bytes32"
        },
        {
          "internalType": "address",
          "name": "account",
          "type": "address"
        }
      ],
      "name": "renounceRole",
      "outputs": [],
      "stateMutability": "nonpayable",
      "type": "function"
    },
    {
      "inputs": [
        {
          "internalType": "bytes32",
          "name": "requestId",
          "type": "bytes32"
        },
        {
          "internalType": "bool",
          "name": "userFavored",
          "type": "bool"
        },
        {
          "internalType": "string",
          "name": "resolution",
          "type": "string"
        }
      ],
      "name": "resolveDispute",
      "outputs": [],
      "stateMutability": "nonpayable",
      "type": "function"
    },
    {
      "inputs": [
        {
          "internalType": "bytes32",
          "name": "role",
          "type": "bytes32"
        },
        {
          "internalType": "address",
          "name": "account",
          "type": "address"
        }
      ],
      "name": "revokeRole",
      "outputs": [],
      "stateMutability": "nonpayable",
      "type": "function"
    },
    {
      "inputs": [
        {
          "internalType": "bytes32",
          "name": "requestId",
          "type": "bytes32"
        },
        {
          "internalType": "string",
          "name": "verificationData",
          "type": "string"
        }
      ],
      "name": "submitVerification",
      "outputs": [],
      "stateMutability": "nonpayable",
      "type": "function"
    },
    {
      "inputs": [
        {
          "internalType": "bytes4",
          "name": "interfaceId",
          "type": "bytes4"
        }
      ],
      "name": "supportsInterface",
      "outputs": [
        {
          "internalType": "bool",
          "name": "",
          "type": "bool"
        }
      ],
      "stateMutability": "view",
      "type": "function"
    },
    {
      "inputs": [],
      "name": "totalAmountEscrowed",
      "outputs": [
        {
          "internalType": "uint256",
          "name": "",
          "type": "uint256"
        }
      ],
      "stateMutability": "view",
      "type": "function"
    },
    {
      "inputs": [],
      "name": "totalDisputesRaised",
      "outputs": [
        {
          "internalType": "uint256",
          "name": "",
          "type": "uint256"
        }
      ],
      "stateMutability": "view",
      "type": "function"
    },
    {
      "inputs": [],
      "name": "totalEscrowsCreated",
      "outputs": [
        {
          "internalType": "uint256",
          "name": "",
          "type": "uint256"
        }
      ],
      "stateMutability": "view",
      "type": "function"
    },
    {
      "inputs": [],
      "name": "totalFraudDetected",
      "outputs": [
        {
          "internalType": "uint256",
          "name": "",
          "type": "uint256"
        }
      ],
      "stateMutability": "view",
      "type": "function"
    },
    {
      "inputs": [],
      "name": "unpause",
      "outputs": [],
      "stateMutability": "nonpayable",
      "type": "function"
    },
    {
      "inputs": [
        {
          "internalType": "uint256",
          "name": "_disputeTimeout",
          "type": "uint256"
        }
      ],
      "name": "updateDisputeTimeout",
      "outputs": [],
      "stateMutability": "nonpayable",
      "type": "function"
    },
    {
      "inputs": [
        {
          "internalType": "uint256",
          "name": "_escrowTimeout",
          "type": "uint256"
        }
      ],
      "name": "updateEscrowTimeout",
      "outputs": [],
      "stateMutability": "nonpayable",
      "type": "function"
    },
    {
      "inputs": [
        {
          "internalType": "address",
          "name": "_feeRecipient",
          "type": "address"
        }
      ],
      "name": "updateFeeRecipient",
      "outputs": [],
      "stateMutability": "nonpayable",
      "type": "function"
    },
    {
      "inputs": [
        {
          "internalType": "uint256",
          "name": "_fraudThreshold",
          "type": "uint256"
        }
      ],
      "name": "updateFraudThreshold",
      "outputs": [],
      "stateMutability": "nonpayable",
      "type": "function"
    },
    {
      "inputs": [
        {
          "internalType": "uint256",
          "name": "_platformFeePercentage",
          "type": "uint256"
        }
      ],
      "name": "updatePlatformFee",
      "outputs": [],
      "stateMutability": "nonpayable",
      "type": "function"
    },
    {
      "inputs": [
        {
          "internalType": "address",
          "name": "newImplementation",
          "type": "address"
        }
      ],
      "name": "upgradeTo",
      "outputs": [],
      "stateMutability": "nonpayable",
      "type": "function"
    },
    {
      "inputs": [
        {
          "internalType": "address",
          "name": "newImplementation",
          "type": "address"
        },
        {
          "internalType": "bytes",
          "name": "data",
          "type": "bytes"
        }
      ],
      "name": "upgradeToAndCall",
      "outputs": [],
      "stateMutability": "payable",
      "type": "function"
    },
    {
      "inputs": [
        {
          "internalType": "address",
          "name": "",
          "type": "address"
        }
      ],
      "name": "userRefunds",
      "outputs": [
        {
          "internalType": "uint256",
          "name": "",
          "type": "uint256"
        }
      ],
      "stateMutability": "view",
      "type": "function"
    },
    {
      "inputs": [
        {
          "internalType": "address",
          "name": "",
          "type": "address"
        }
      ],
      "name": "verifierEarnings",
      "outputs": [
        {
          "internalType": "uint256",
          "name": "",
          "type": "uint256"
        }
      ],
      "stateMutability": "view",
      "type": "function"
    },
    {
      "inputs": [],
      "name": "verifierMarketplace",
      "outputs": [
        {
          "internalType": "contract IVerifierMarketplace",
          "name": "",
          "type": "address"
        }
      ],
      "stateMutability": "view",
      "type": "function"
    },
    {
      "inputs": [],
      "name": "withdrawEarnings",
      "outputs": [],
      "stateMutability": "nonpayable",
      "type": "function"
    },
    {
      "inputs": [],
      "name": "withdrawRefund",
      "outputs": [],
      "stateMutability": "nonpayable",
      "type": "function"
    },
    {
      "stateMutability": "payable",
      "type": "receive"
    }
  ],
  "bytecode": "0x60a08060405234620000e157306080526000549060ff8260081c166200008f575060ff8082160362000053575b6040516147919081620000e782396080518181816128b1015281816129b00152612d030152f35b60ff90811916176000557f7f26b83ff96e1f2b6a682f133852f6798a09c465da95921460cefb3847402498602060405160ff8152a1386200002c565b62461bcd60e51b815260206004820152602760248201527f496e697469616c697a61626c653a20636f6e747261637420697320696e697469604482015266616c697a696e6760c81b6064820152608490fd5b600080fdfe608080604052600436101561001d575b50361561001b57600080fd5b005b60003560e01c90816301ffc9a7146137535750806307e2cea514613718578063110f88741461368d57806311be1997146135e0578063136ba6aa146134925780631459457a14613028578063248a9ca314612ff95780632f2ff15d14612f585780633013ce2914612f2e57806336568abe14612e9c5780633659cfe614612cde5780633f4ba83a14612c4a5780634690484014612c205780634f1ef2861461296257806352d1902d1461289e5780635b4e9a421461287c5780635c975abb146128595780635f5b79901461283a578063605c6d631461281b578063613df47c146127f15780636d038770146126d957806375b238fc1461269e578063795e0a79146121215780638456cb59146120c7578063882cc8b3146120a8578063883f3d961461206d57806391d14854146120205780639ab2026914611dcf5780639cbeb6c114611cee5780639d4f89d214611ccf578063a217fddf14611cb3578063a4b66f0314611c44578063a86a08d514611a5c578063aa0b5988146119f4578063b5c608b7146119ca578063b73c6ce91461193d578063be7b8a77146113a3578063bfe42a3714611368578063c04c22a414611349578063cdd78cfc1461132a578063d547741f146112eb578063db2e21bc14610ff3578063e61b13e114610e2f578063e6db070714610df4578063e772e51414610b4e578063e84a571c14610b2c578063ed74d26e14610b0d578063edbc4d1414610aee578063f160d36914610aab578063f421db5d1461029b5763f72c0d8b1461025b573861000f565b346102965760003660031901126102965760206040517f189ab7a9244df0848122154315af71fe140f3db0fe014031783b0946b8c9d2e38152f35b600080fd5b6040366003190112610296576102af6139a9565b6102b7614407565b6102bf61444b565b60043515610a71576001600160a01b03811615610a2c576004356000526101676020526040600020546109ef5761015f5460405163059ce95d60e01b81526001600160a01b0383811660048301529091169190600081602481865afa90811561088957600091610955575b501561091a57604051636ded3ad560e11b81526001600160a01b038216600482015291602090839060249082905afa918215610889576000926108e6575b50610161546001600160a01b0316806107c457509034106107885734905b610393610162544261422d565b604051906103a0826137fc565b600435825233602083015260018060a01b038316604083015283606083015242608083015260a0820152600060c08201526040516103dd81613818565b6000815260e082015260006101008201526000610120820152600061014082015260405161040a81613818565b60008152610160820152600061018082015260006101a08201526004356000526101676020526040600020908051825560018060a01b036020820151166001600160601b0360a01b6001840154161760018301556002820160018060a01b036040830151166001600160601b0360a01b825416179055606081015160038301556080810151600483015560a081015160058301556006820160c082015160088110156106f55760ff8019835416911617905560e08101518051906001600160401b0382116106df5781906104ee826104e560078801546137a6565b600788016143a4565b602090601f83116001146107165760009261070b575b50508160011b916000199060031b1c19161760078301555b6101008101516008830155600982016105486101208301511515829060ff801983541691151516179055565b61014082015160048110156106f55761ff0082549160081b169061ff0019161790556101608101518051906001600160401b0382116106df5761059b82610592600a8701546137a6565b600a87016143a4565b602090601f8311600114610669579180600c94926101a09460009261065e575b50508160011b916000199060031b1c191617600a8501555b600b840160018060a01b03610180830151166001600160601b0360a01b825416179055015191015561016b61060881546143f8565b905561016c61061883825461422d565b90556040519182526001600160a01b0316903390600435907f0dd968c277d9dc6b36b6ec2b638324c3d937882c64ca109440bc050ebf26cb0790602090a4600161012d55005b0151905088806105bb565b90600a850160005260206000209160005b601f19851681106106c7575092600c94926001926101a09583601f198116106106ae575b505050811b01600a8501556105d3565b015160001960f88460031b161c1916905588808061069e565b9192602060018192868501518155019401920161067a565b634e487b7160e01b600052604160045260246000fd5b634e487b7160e01b600052602160045260246000fd5b015190508680610504565b9250600785016000526020600020906000935b601f198416851061076d576001945083601f19811610610754575b505050811b01600783015561051c565b015160001960f88460031b161c19169055868080610744565b81810151835560209485019460019093019290910190610729565b60405162461bcd60e51b8152602060048201526014602482015273125b9cdd59999a58da595b9d081c185e5b595b9d60621b6044820152606490fd5b3461089557602060009160648560405194859384926323b872dd60e01b845233600485015230602485015260448401525af19081156108895760009161084f575b506103865760405162461bcd60e51b815260206004820152601760248201527f5061796d656e74207472616e73666572206661696c65640000000000000000006044820152606490fd5b90506020813d602011610881575b8161086a60209383613884565b810103126102965761087b90614397565b83610805565b3d915061085d565b6040513d6000823e3d90fd5b60405162461bcd60e51b8152602060048201526024808201527f4e6f206e61746976652063757272656e637920666f7220746f6b656e207061796044820152631b595b9d60e21b6064820152608490fd5b9091506020813d602011610912575b8161090260209383613884565b8101031261029657519082610368565b3d91506108f5565b60405162461bcd60e51b81526020600482015260136024820152725665726966696572206e6f742061637469766560681b6044820152606490fd5b90503d806000833e6109678183613884565b8101610120828203126102965781516001600160a01b038116036102965761099160c08301614397565b9160e0810151906001600160401b038211610296570181601f82011215610296578051906109be826139bf565b926109cc6040519485613884565b82845260208383010111610296576020806109e99401910161394b565b8361032a565b60405162461bcd60e51b8152602060048201526015602482015274457363726f7720616c72656164792065786973747360581b6044820152606490fd5b60405162461bcd60e51b815260206004820152601860248201527f496e76616c6964207665726966696572206164647265737300000000000000006044820152606490fd5b60405162461bcd60e51b8152602060048201526012602482015271125b9d985b1a59081c995c5d595cdd08125160721b6044820152606490fd5b3461029657602036600319011261029657610ac4613993565b610acc613c5b565b61016680546001600160a01b0319166001600160a01b03909216919091179055005b3461029657600036600319011261029657602061016e54604051908152f35b3461029657600036600319011261029657602061016c54604051908152f35b3461029657602036600319011261029657610b45613c5b565b60043561016255005b3461029657610b5c36613a58565b610b67929192614407565b8160005261016791602091838352604060002060018060a01b036002820154163303610da557600681019560ff8754169160088310156106f5576001809303610d6057610bba60058201544211156144a2565b8315610d11576007016001600160401b0384116106df57838593610be882610be285546137a6565b856143a4565b6000601f8311600114610c81579180610c5994927f03115ef48405aed01f38b4ffd9972f946bcef90d3f19063bc78a65978605c6bb9694600093610c76575b501b906000198860031b1c19161790555b60ff199860028a8254161790556040519182918883523396898401916144df565b0390a3600052526003600660406000200191825416179055600080f35b85013592508d610c27565b60008481528981209293508790601f198216905b8b828210610cf757505091610c599593917f03115ef48405aed01f38b4ffd9972f946bcef90d3f19063bc78a65978605c6bb97959310610cdd575b505086811b019055610c38565b84013560001960038a901b60f8161c191690558b80610cd0565b8489013586558b995094860194938401938a935001610c95565b60405162461bcd60e51b815260048101879052602160248201527f566572696669636174696f6e20646174612063616e6e6f7420626520656d70746044820152607960f81b6064820152608490fd5b60405162461bcd60e51b815260048101879052601d60248201527f496e76616c69642073746174757320666f72207375626d697373696f6e0000006044820152606490fd5b60405162461bcd60e51b815260048101859052602160248201527f4f6e6c792061737369676e65642076657269666965722063616e207375626d696044820152601d60fa1b6064820152608490fd5b34610296576020366003190112610296576001600160a01b03610e15613993565b1660005261016a6020526020604060002054604051908152f35b34610296576060366003190112610296576004356024356044358015159081810361029657610e5c613d94565b610e64614407565b83600052610167602091818352604060002060ff60068201541660088110156106f557600303610fae579181610ed58795936009867fd5bb6af7d4f5c5e8947f901c0fd7777f3a7574caf63ccc2f4e9ae8252d0f552c9a600860409b990155019060ff801983541691151516179055565b15610f9f5761016e610ee781546143f8565b90557f46726175642064657465637465642062792041492073797374656d0000000000828651610f168161384e565b601b8152015286600052815283600020867ff8590cd6b8c44be7a2bc57131f10e203ec5f7d7f2f761e1508a8cc964ecb9eb78360038401938454906006600182019160018060a01b0393848454166000526101698652610f7b8d60002091825461422d565b905501600660ff19825416179055541693548851908152a35b8351928352820152a2005b50610fa986614500565b610f94565b60405162461bcd60e51b815260048101859052601e60248201527f496e76616c69642073746174757320666f7220667261756420636865636b00006044820152606490fd5b34610296576000366003190112610296573360009081527fffdfc1249c027f9191656349feb0761381bb32c9f557e01f419fd08754bf5a1b602090815260409091205460ff16156111625761104661444b565b610161546001600160a01b0316908161108357505060008080804781811561107a575b3390f115610889575b600161012d55005b506108fc611069565b6040516370a0823160e01b8152306004820152918183602481845afa92831561088957600093611131575b5060405163a9059cbb60e01b815233600482015260248101939093528190839081600081604481015b03925af1908115610889576000916110fa575b506110f591506145d7565b611072565b905081813d831161112a575b6111108183613884565b81010312610296576111246110f591614397565b826110ea565b503d611106565b92508183813d831161115b575b6111488183613884565b81010312610296579151916110d76110ae565b503d61113e565b61116b3361424b565b90600060405161117a81613869565b604281528281019160603684378151156112d5576030835381516001908110156112d557607860218401536041905b80821161127b57505061124a57611216936112259260489260405196879360008051602061471c833981519152888601526111ed815180928a60378901910161394b565b8401917001034b99036b4b9b9b4b733903937b6329607d1b60378401525180938684019061394b565b01036028810185520183613884565b61124660405192839262461bcd60e51b84526004840152602483019061396e565b0390fd5b6064836040519062461bcd60e51b825280600483015260248201526000805160206146fc8339815191526044820152fd5b9091600f811660108110156112d5576f181899199a1a9b1b9c1cb0b131b232b360811b901a6112aa848661423a565b5360041c9180156112bf5760001901906111a9565b634e487b7160e01b600052601160045260246000fd5b634e487b7160e01b600052603260045260246000fd5b346102965760403660031901126102965761001b60043561130a6139a9565b90806000526065602052611325600160406000200154613ecd565b613fcc565b3461029657600036600319011261029657602061016554604051908152f35b3461029657600036600319011261029657602061016354604051908152f35b346102965760003660031901126102965760206040517f7b8bb8356a3f32f5c111ff23f050d97f08988e0883529ea7bff3b918887a6e0e8152f35b34610296576113b136613a58565b91906113bb614407565b81600052610167602052604060002060018060a01b0360018201541633148015611927575b156118d257600681019060ff82541660088110156106f557600281149081156118c7575b501561188257600981019081549160ff8360081c1660048110156106f5576118445786156117ff57610100600a9361ff001916179055016001600160401b0385116106df5761145d8561145783546137a6565b836143a4565b846000601f82116001146117995760009161178e575b508560011b906000198760031b1c19161790555b805460ff1916600417905560405161149e816137e0565b8281523360208201526114b23685846139da565b604082015242606082015260006080820152600060a0820152600060c08201526040516114de81613818565b6000815260e0820152826000526101686020526040600020815181556001810160018060a01b036020840151166001600160601b0360a01b82541617905560408201518051906001600160401b0382116106df5761154c8261154360028601546137a6565b600286016143a4565b602090601f831160011461171957918060e0949260069460009261170e575b50508160011b916000199060031b1c19161760028201555b606084015160038201556080840151600482015560a08085015160058301805460c08801516001600160a81b03199091166001600160a01b03939093169290921791151590921b60ff60a01b16179055019101518051906001600160401b0382116106df576115f682610be285546137a6565b602090601f831160011461168057918061167094927f49e53fd224357020766ce272815e8a15c300aace14a011cfcded9335798fbd0e9694600092611675575b50508160011b916000199060031b1c19161790555b61016d61165881546143f8565b905560405191829160208352339660208401916144df565b0390a3005b015190508880611636565b90601f198316918460005260206000209260005b8181106116f657509260019285927f49e53fd224357020766ce272815e8a15c300aace14a011cfcded9335798fbd0e98966116709896106116dd575b505050811b01905561164b565b015160001960f88460031b161c191690558880806116d0565b92936020600181928786015181550195019301611694565b01519050898061156b565b906002840160005260206000209160005b601f198516811061177657509260e0949260019260069583601f1981161061175d575b505050811b016002820155611583565b015160001960f88460031b161c1916905589808061174d565b9192602060018192868501518155019401920161172a565b905083013586611473565b60008381526020812092508790601f198216905b8181106117e45750106117ca575b5050600185811b019055611487565b840135600019600388901b60f8161c1916905585806117bb565b8784013585556001909401936020938401938a9350016117ad565b60405162461bcd60e51b815260206004820152601e60248201527f4469737075746520726561736f6e2063616e6e6f7420626520656d70747900006044820152606490fd5b60405162461bcd60e51b8152602060048201526016602482015275111a5cdc1d5d1948185b1c9958591e481c985a5cd95960521b6044820152606490fd5b60405162461bcd60e51b815260206004820152601a60248201527f496e76616c69642073746174757320666f7220646973707574650000000000006044820152606490fd5b600591501486611404565b60405162461bcd60e51b815260206004820152602760248201527f4f6e6c792075736572206f722076657269666965722063616e207261697365206044820152666469737075746560c81b6064820152608490fd5b5060028101546001600160a01b031633146113e0565b3461029657600036600319011261029657611956614407565b61195e61444b565b3360005261016a80602052604060002054801561198d5761107291336000526020526000604081205533614615565b60405162461bcd60e51b81526020600482015260156024820152744e6f206561726e696e677320617661696c61626c6560581b6044820152606490fd5b346102965760003660031901126102965761015f546040516001600160a01b039091168152602090f35b3461029657602036600319011261029657600435611a10613c5b565b6103e88111611a1f5761016555005b60405162461bcd60e51b81526020600482015260156024820152740a0d8c2e8ccdee4da40cccaca40e8dede40d0d2ced605b1b6044820152606490fd5b34610296576020806003193601126102965760043590611a7a614407565b8160005261016780825260406000206005810154421115611c0a576006015460ff1660088110156106f5578015908115611bff575b5015611bab576d115cd8dc9bddc8195e1c1a5c995960921b82604051611ad48161384e565b600e81520152826000528152817ff8590cd6b8c44be7a2bc57131f10e203ec5f7d7f2f761e1508a8cc964ecb9eb760406000209260038401938454906006600182019160018060a01b0393848454166000526101698652611b3b604060002091825461422d565b905501600660ff1982541617905554169354604051908152a37fe173efa1002dc96426573f832df7b93111bd0400b4e61ba7b2edd306b8e1f0e760405180611ba68160609060208152600e60208201526d115cd8dc9bddc8195e1c1a5c995960921b60408201520190565b0390a2005b60405162461bcd60e51b815260048101839052602660248201527f43616e6e6f742063616e63656c20657363726f7720696e2063757272656e742060448201526573746174757360d01b6064820152608490fd5b600191501484611aaf565b60405162461bcd60e51b8152600481018490526012602482015271115cd8dc9bddc81b9bdd08195e1c1a5c995960721b6044820152606490fd5b3461029657602036600319011261029657600435611c60613c5b565b60648111611c6e5761016455005b60405162461bcd60e51b815260206004820152601760248201527f496e76616c6964206672617564207468726573686f6c640000000000000000006044820152606490fd5b3461029657600036600319011261029657602060405160008152f35b3461029657600036600319011261029657602061016d54604051908152f35b3461029657602036600319011261029657600435611d0a613d94565b611d12614407565b8060005261016760205260406000206006810190815460ff811660088110156106f557611d8b576003827f37aff1eb3df35f85df91d58f1924918a122a79cab9b4e364c432cb66682c64b29460016005604096015494611d74864211156144a2565b60ff191617905501549082519182526020820152a2005b606460405162461bcd60e51b815260206004820152602060248201527f496e76616c69642073746174757320666f72206c6f636b696e672066756e64736044820152fd5b346102965760203660031901126102965760006101a0604051611df1816137fc565b8281528260208201528260408201528260608201528260808201528260a08201528260c0820152606060e08201528261010082015282610120820152826101408201526060610160820152826101808201520152600435600052610167602052604060002060405190611e63826137fc565b8054825260018101546001600160a01b03908116602084015260028201541660408301526003810154606083015260048101546080830152600581015460a0830152600681015460ff1660088110156106f55760c0830152611ec7600782016138a5565b60e0830152600881015461010083015260098101549060ff82161515610120840152600460ff8360081c1610156106f55760ff600c9260081c16610140840152611f13600a82016138a5565b61016084015260018060a01b03600b8201541661018084015201546101a08201526040518091602082528051602083015260018060a01b03602082015116604083015260018060a01b03604082015116606083015260608101516080830152608081015160a083015260a081015160c0830152611f9860c082015160e0840190613a11565b60e08101516101a0612002611fbc6101c093846101008801526101e087019061396e565b6101008501516101208701526101208501511515610140870152611fea610140860151610160880190613a1e565b610160850151868203601f190161018088015261396e565b6101808401516001600160a01b031685830152920151908301520390f35b34610296576040366003190112610296576120396139a9565b600435600052606560205260406000209060018060a01b0316600052602052602060ff604060002054166040519015158152f35b34610296576020366003190112610296576001600160a01b0361208e613993565b166000526101696020526020604060002054604051908152f35b3461029657600036600319011261029657602061016b54604051908152f35b34610296576000366003190112610296576120e0613c5b565b6120e8614407565b600160ff1960975416176097557f62e78cea01bee320cd4e420270b5ea74000d11b0c9f74754ebdbfc544b05a2586020604051338152a1005b346102965760603660031901126102965760246004358135801515808203610296576001600160401b039360443585811161029657612164903690600401613a2b565b9590917f7b8bb8356a3f32f5c111ff23f050d97f08988e0883529ea7bff3b918887a6e0e948560005260209560658752604060002033600052875260ff604060002054161561251c57506121b6614407565b866000526101679182875260406000209060ff6006830154166008811015612507576004036124d0576009820160ff815460081c169560048710156124bb5760018097036124775760008b81526101688b526040902060058101805442600484015560ff60a01b1933166001600160a81b03199091161787151560a01b60ff60a01b161790556001600160a01b03199390600601918d1161246357506122608c61145783546137a6565b8b6000601f82116001146123ca5791817f88e268ce399f0dad6d216a47576b1feed8fdf0e2047604ec38d03bd0a94852639c9b9a989694926116709a9896946000916123bf575b50600019600383901b1c191690881b1790555b805461ff001916610300179055600b820180549091163317905542600c90910155156123af57603960f91b604080516122f281613833565b602181527f44697370757465207265736f6c76656420696e206661766f72206f6620757365898201520152876000528552867ff8590cd6b8c44be7a2bc57131f10e203ec5f7d7f2f761e1508a8cc964ecb9eb7866040600020936003850194600686549282019160018060a01b039384845416600052610169865261237d604060002091825461422d565b905501600660ff1982541617905554169354604051908152a35b604080519485948552840152339660408401916144df565b50506123ba86614500565b612397565b9050890135386122a7565b601f19821690836000528c6000209160005b8181106124445750928a989694926116709b927f88e268ce399f0dad6d216a47576b1feed8fdf0e2047604ec38d03bd0a94852639f9e9d9b999795831161242a575b5050811b0190556122ba565b8b0135600019600384901b60f8161c19169055388061241e565b928294508b8f92939183928f013581550194019201908f9392916123dc565b634e487b7160e01b60009081526041600452fd5b60405162461bcd60e51b8152600481018b9052601c818501527f44697370757465206e6f7420696e20636f7272656374207374617465000000006044820152606490fd5b82634e487b7160e01b60005260216004526000fd5b8760116064926040519262461bcd60e51b84526004840152820152704e6f20616374697665206469737075746560781b6044820152fd5b50634e487b7160e01b60009081526021600452fd5b8691506125283361424b565b9060405161253581613869565b604281528381019160603684378151156126895760308353815160019081101561267457607860218401536041905b8082116126065750506125d6576048611246936125ab936125ba9360405195869360008051602061471c8339815191528a8601526111ed815180928c60378901910161394b565b01036028810184520182613884565b60405193849362461bcd60e51b8552600485015283019061396e565b606485856040519162461bcd60e51b83528160048401528201526000805160206146fc8339815191526044820152fd5b9091600f8116601081101561265f576f181899199a1a9b1b9c1cb0b131b232b360811b901a612635848661423a565b5360041c91801561264a576000190190612564565b87634e487b7160e01b60005260116004526000fd5b88634e487b7160e01b60005260326004526000fd5b86634e487b7160e01b60005260326004526000fd5b85634e487b7160e01b60005260326004526000fd5b346102965760003660031901126102965760206040517fa49807205ce4d355092ef5a8a18f56e8913cf4a201fbe287825b095693c217758152f35b346102965760203660031901126102965760043560005261016760205260406000208054600160a01b60019003918260018201541692806002830154169060038301546004840154906005850154600686015460ff166007870161273c906138a5565b91600888015494600989015494600a8a01612756906138a5565b97600b8b01541699600c0154986040519c8d9c8d5260208d015260408c015260608b015260808a015260a089015260c0880161279191613a11565b6101c08060e089015287016127a59161396e565b9161010087015260ff8116151561012087015261014086019060081c60ff16906127ce91613a1e565b8481036101608601526127e09161396e565b916101808401526101a08301520390f35b3461029657600036600319011261029657610160546040516001600160a01b039091168152602090f35b3461029657600036600319011261029657602061016254604051908152f35b3461029657600036600319011261029657602061016454604051908152f35b3461029657600036600319011261029657602060ff609754166040519015158152f35b3461029657602036600319011261029657612895613c5b565b60043561016355005b34610296576000366003190112610296577f00000000000000000000000000000000000000000000000000000000000000006001600160a01b031630036128f757602060405160008051602061473c8339815191528152f35b60405162461bcd60e51b815260206004820152603860248201527f555550535570677261646561626c653a206d757374206e6f742062652063616c60448201527f6c6564207468726f7567682064656c656761746563616c6c00000000000000006064820152608490fd5b604036600319011261029657612976613993565b6024356001600160401b0381116102965736602382011215610296576129a69036906024816004013591016139da565b6001600160a01b037f0000000000000000000000000000000000000000000000000000000000000000811691906129df30841415614042565b6129fc60008051602061473c8339815191529382855416146140a3565b612a04613a8b565b7f4910fdfa16fed3260ed0e7147f7cc6da11a60208b5b9406d12a635614ffd91435460ff1615612a3a5750505061001b90614104565b8316604051926352d1902d60e01b84526020938481600481865afa60009181612bf1575b50612abf5760405162461bcd60e51b815260048101869052602e60248201527f45524331393637557067726164653a206e657720696d706c656d656e7461746960448201526d6f6e206973206e6f74205555505360901b6064820152608490fd5b93929303612b9a57612ad084614104565b7fbc7cd75a20ee27fd9adebab32041f755214dbc6bffa90cc0225b39da2e5c2d3b600080a2815115801590612b92575b612b0657005b61001b9260008060405194612b1a86613833565b602786527f416464726573733a206c6f772d6c6576656c2064656c65676174652063616c6c85870152660819985a5b195960ca1b60408701528481519101845af4903d15612b89573d612b6c816139bf565b90612b7a6040519283613884565b8152600081943d92013e614194565b60609250614194565b506001612b00565b60405162461bcd60e51b815260048101839052602960248201527f45524331393637557067726164653a20756e737570706f727465642070726f786044820152681a58589b195555525160ba1b6064820152608490fd5b9091508581813d8311612c19575b612c098183613884565b8101031261029657519087612a5e565b503d612bff565b3461029657600036600319011261029657610166546040516001600160a01b039091168152602090f35b3461029657600036600319011261029657612c63613c5b565b60975460ff811615612ca25760ff19166097557f5db9ee0a495bf2e6ff9c91a7834c1ba4fdd244a5e8aa4e537bd38aeae4b073aa6020604051338152a1005b60405162461bcd60e51b815260206004820152601460248201527314185d5cd8589b194e881b9bdd081c185d5cd95960621b6044820152606490fd5b346102965760208060031936011261029657612cf8613993565b906001600160a01b037f00000000000000000000000000000000000000000000000000000000000000008116612d3030821415614042565b612d4d60008051602061473c8339815191529183835416146140a3565b612d55613a8b565b60405191612d6283613818565b600083527f4910fdfa16fed3260ed0e7147f7cc6da11a60208b5b9406d12a635614ffd91435460ff1615612d9d575050505061001b90614104565b8416906040516352d1902d60e01b81528481600481865afa60009181612e6d575b50612e1f5760405162461bcd60e51b815260048101869052602e60248201527f45524331393637557067726164653a206e657720696d706c656d656e7461746960448201526d6f6e206973206e6f74205555505360901b6064820152608490fd5b93929303612b9a57612e3084614104565b7fbc7cd75a20ee27fd9adebab32041f755214dbc6bffa90cc0225b39da2e5c2d3b600080a2815115801590612e6557612b0657005b506000612b00565b9091508581813d8311612e95575b612e858183613884565b8101031261029657519087612dbe565b503d612e7b565b3461029657604036600319011261029657612eb56139a9565b336001600160a01b03821603612ed15761001b90600435613fcc565b60405162461bcd60e51b815260206004820152602f60248201527f416363657373436f6e74726f6c3a2063616e206f6e6c792072656e6f756e636560448201526e103937b632b9903337b91039b2b63360891b6064820152608490fd5b3461029657600036600319011261029657610161546040516001600160a01b039091168152602090f35b3461029657604036600319011261029657600435612f746139a9565b816000526065602052612f8e600160406000200154613ecd565b81600052606560205260406000209060018060a01b0316908160005260205260ff6040600020541615612fbd57005b8160005260656020526040600020816000526020526040600020600160ff1982541617905533916000805160206146dc833981519152600080a4005b346102965760203660031901126102965760043560005260656020526020600160406000200154604051908152f35b346102965760a036600319011261029657613041613993565b6130496139a9565b6044356001600160a01b038181169291839003610296576064358181168091036102965760843590828216809203610296576000549460ff94858760081c161595868097613486575b8015613470575b156134145760019860ff1998888b8b831617600055613402575b506130f98260005460081c166130c881614337565b6130d181614337565b6130da81614337565b8a609754166097556130eb81614337565b6130f481614337565b614337565b61012d8a9055861660008181527fffdfc1249c027f9191656349feb0761381bb32c9f557e01f419fd08754bf5a1b60209081526040909120549099906065908416156133c8575b7fa49807205ce4d355092ef5a8a18f56e8913cf4a201fbe287825b095693c2177580600052818c526040600020846000528c5284604060002054161561338d575b507f189ab7a9244df0848122154315af71fe140f3db0fe014031783b0946b8c9d2e380600052818c526040600020846000528c52846040600020541615613352575b507f68e79a7bf1e0bc45d0a330c573bc367f9cf464fd326078812f301165fbda4ef180600052818c526040600020846000528c52846040600020541615613317575b507f7b8bb8356a3f32f5c111ff23f050d97f08988e0883529ea7bff3b918887a6e0e9384600052818c526040600020846000528c5260406000205416156132db575b505050506001600160601b0360a01b9461015f911685825416179055610160908482541617905561016190838254161790556101669182541617905562093a80610162556203f4806101635560466101645560fa610165556132a557005b7f7f26b83ff96e1f2b6a682f133852f6798a09c465da95921460cefb38474024989161ff001960005416600055604051908152a1005b836000528a526040600020826000528a528a60406000209182541617905533916000805160206146dc833981519152600080a488808080613247565b80600052818c526040600020846000528c5260406000208d848254161790558333916000805160206146dc833981519152600080a48c613205565b80600052818c526040600020846000528c5260406000208d848254161790558333916000805160206146dc833981519152600080a48c6131c3565b80600052818c526040600020846000528c5260406000208d848254161790558333916000805160206146dc833981519152600080a48c613181565b60008052808b526040600020836000528b5260406000208c83825416179055338360006000805160206146dc8339815191528180a4613140565b61ffff1916610101176000558a6130b3565b60405162461bcd60e51b815260206004820152602e60248201527f496e697469616c697a61626c653a20636f6e747261637420697320616c72656160448201526d191e481a5b9a5d1a585b1a5e995960921b6064820152608490fd5b50303b1580156130995750600181891614613099565b50600181891610613092565b346102965760208060031936011261029657606060e06040516134b4816137e0565b6000815260008482015282604082015260008382015260006080820152600060a0820152600060c08201520152600435600052610168815260406000206135dc60405191613501836137e0565b8054835260018101546001600160a01b0390811685850190815290919061352a600283016138a5565b916040860192835260038101549360608701948552866004830154946080820195865282613577600660058701549660ff60c060a0880197868b168952019860a01c1615158852016138a5565b9560e08b019687526040519b8c9b818d5251908c0152511660408a015251946135ae610100968760608c01526101208b019061396e565b965160808a01525160a0890152511660c087015251151560e08601525190601f19858403019085015261396e565b0390f35b3461029657602036600319011261029657600435600052610168602052604060002080546135dc60018060a01b03806001850154169360ff613624600283016138a5565b9160038101549360048201546136636136446006600586015495016138a5565b956040519a8b9a8b5260208b01526101008060408c01528a019061396e565b9560608901526080880152811660a087015260a01c16151560c085015283820360e085015261396e565b34610296576000366003190112610296576136a6614407565b6136ae61444b565b336000526101698060205260406000205480156136dd5761107291336000526020526000604081205533614615565b60405162461bcd60e51b81526020600482015260136024820152724e6f20726566756e6420617661696c61626c6560681b6044820152606490fd5b346102965760003660031901126102965760206040517f68e79a7bf1e0bc45d0a330c573bc367f9cf464fd326078812f301165fbda4ef18152f35b34610296576020366003190112610296576004359063ffffffff60e01b821680920361029657602091637965db0b60e01b8114908115613795575b5015158152f35b6301ffc9a760e01b1490508361378e565b90600182811c921680156137d6575b60208310146137c057565b634e487b7160e01b600052602260045260246000fd5b91607f16916137b5565b61010081019081106001600160401b038211176106df57604052565b6101c081019081106001600160401b038211176106df57604052565b602081019081106001600160401b038211176106df57604052565b606081019081106001600160401b038211176106df57604052565b604081019081106001600160401b038211176106df57604052565b608081019081106001600160401b038211176106df57604052565b90601f801991011681019081106001600160401b038211176106df57604052565b90604051918260008254926138b9846137a6565b90818452600194858116908160001461392857506001146138e5575b50506138e392500383613884565b565b9093915060005260209081600020936000915b8183106139105750506138e3935082010138806138d5565b855488840185015294850194879450918301916138f8565b9150506138e394506020925060ff191682840152151560051b82010138806138d5565b60005b83811061395e5750506000910152565b818101518382015260200161394e565b906020916139878151809281855285808601910161394b565b601f01601f1916010190565b600435906001600160a01b038216820361029657565b602435906001600160a01b038216820361029657565b6001600160401b0381116106df57601f01601f191660200190565b9291926139e6826139bf565b916139f46040519384613884565b829481845281830111610296578281602093846000960137010152565b9060088210156106f55752565b9060048210156106f55752565b9181601f84011215610296578235916001600160401b038311610296576020838186019501011161029657565b9060406003198301126102965760043591602435906001600160401b03821161029657613a8791600401613a2b565b9091565b3360009081527f61c6261e6978331c793eee420d743e773864e0ec05cc862750e423d64f73e9f6602090815260408083205490927f189ab7a9244df0848122154315af71fe140f3db0fe014031783b0946b8c9d2e39160ff1615613aef5750505050565b613af83361424b565b91845190613b0582613869565b60428252848201926060368537825115613c475760308453825190600191821015613c475790607860218501536041915b818311613bd957505050613ba9576048611246938693613b8d93613b7e985198899360008051602061471c8339815191528a8601526111ed815180928c60378901910161394b565b01036028810187520185613884565b5192839262461bcd60e51b84526004840152602483019061396e565b60648486519062461bcd60e51b825280600483015260248201526000805160206146fc8339815191526044820152fd5b909192600f81166010811015613c33576f181899199a1a9b1b9c1cb0b131b232b360811b901a613c09858761423a565b5360041c928015613c1f57600019019190613b36565b634e487b7160e01b82526011600452602482fd5b634e487b7160e01b83526032600452602483fd5b634e487b7160e01b81526032600452602490fd5b3360009081527f2c01dc0041dfb6d4238a91e5a638996136aed16f837d5beb45610732cf9bf4b0602090815260408083205490927fa49807205ce4d355092ef5a8a18f56e8913cf4a201fbe287825b095693c217759160ff1615613cbf5750505050565b613cc83361424b565b91845190613cd582613869565b60428252848201926060368537825115613c475760308453825190600191821015613c475790607860218501536041915b818311613d4e57505050613ba9576048611246938693613b8d93613b7e985198899360008051602061471c8339815191528a8601526111ed815180928c60378901910161394b565b909192600f81166010811015613c33576f181899199a1a9b1b9c1cb0b131b232b360811b901a613d7e858761423a565b5360041c928015613c1f57600019019190613d06565b3360009081527fcce6827fa156bcd84b0076b5a7b2dec11c993fb264d8dc1e547a62045d60e4af602090815260408083205490927f68e79a7bf1e0bc45d0a330c573bc367f9cf464fd326078812f301165fbda4ef19160ff1615613df85750505050565b613e013361424b565b91845190613e0e82613869565b60428252848201926060368537825115613c475760308453825190600191821015613c475790607860218501536041915b818311613e8757505050613ba9576048611246938693613b8d93613b7e985198899360008051602061471c8339815191528a8601526111ed815180928c60378901910161394b565b909192600f81166010811015613c33576f181899199a1a9b1b9c1cb0b131b232b360811b901a613eb7858761423a565b5360041c928015613c1f57600019019190613e3f565b60009080825260209060658252604092838120338252835260ff848220541615613ef75750505050565b613f003361424b565b91845190613f0d82613869565b60428252848201926060368537825115613c475760308453825190600191821015613c475790607860218501536041915b818311613f8657505050613ba9576048611246938693613b8d93613b7e985198899360008051602061471c8339815191528a8601526111ed815180928c60378901910161394b565b909192600f81166010811015613c33576f181899199a1a9b1b9c1cb0b131b232b360811b901a613fb6858761423a565b5360041c928015613c1f57600019019190613f3e565b906000918083526065602052604083209160018060a01b03169182845260205260ff604084205416613ffd57505050565b8083526065602052604083208284526020526040832060ff1981541690557ff6391f5c32d9c69d2a47ea670b442974b53935d1edc7fd64eb21e047a839171b339380a4565b1561404957565b60405162461bcd60e51b815260206004820152602c60248201527f46756e6374696f6e206d7573742062652063616c6c6564207468726f7567682060448201526b19195b1959d85d1958d85b1b60a21b6064820152608490fd5b156140aa57565b60405162461bcd60e51b815260206004820152602c60248201527f46756e6374696f6e206d7573742062652063616c6c6564207468726f7567682060448201526b6163746976652070726f787960a01b6064820152608490fd5b803b156141395760008051602061473c83398151915280546001600160a01b0319166001600160a01b03909216919091179055565b60405162461bcd60e51b815260206004820152602d60248201527f455243313936373a206e657720696d706c656d656e746174696f6e206973206e60448201526c1bdd08184818dbdb9d1c9858dd609a1b6064820152608490fd5b919290156141f657508151156141a8575090565b3b156141b15790565b60405162461bcd60e51b815260206004820152601d60248201527f416464726573733a2063616c6c20746f206e6f6e2d636f6e74726163740000006044820152606490fd5b8251909150156142095750805190602001fd5b60405162461bcd60e51b81526020600482015290819061124690602483019061396e565b919082018092116112bf57565b9081518110156112d5570160200190565b6040519061425882613833565b602a82526020820160403682378251156112d5576030905381516001908110156112d557607860218401536029905b8082116142c95750506142975790565b606460405162461bcd60e51b815260206004820152602060248201526000805160206146fc8339815191526044820152fd5b9091600f81166010811015614322576f181899199a1a9b1b9c1cb0b131b232b360811b901a6142f8848661423a565b5360041c91801561430d576000190190614287565b60246000634e487b7160e01b81526011600452fd5b60246000634e487b7160e01b81526032600452fd5b1561433e57565b60405162461bcd60e51b815260206004820152602b60248201527f496e697469616c697a61626c653a20636f6e7472616374206973206e6f74206960448201526a6e697469616c697a696e6760a81b6064820152608490fd5b5190811515820361029657565b90601f81116143b257505050565b600091825260208220906020601f850160051c830194106143ee575b601f0160051c01915b8281106143e357505050565b8181556001016143d7565b90925082906143ce565b60001981146112bf5760010190565b60ff6097541661441357565b60405162461bcd60e51b815260206004820152601060248201526f14185d5cd8589b194e881c185d5cd95960821b6044820152606490fd5b61012d600281541461445d5760029055565b60405162461bcd60e51b815260206004820152601f60248201527f5265656e7472616e637947756172643a207265656e7472616e742063616c6c006044820152606490fd5b156144a957565b60405162461bcd60e51b815260206004820152600e60248201526d115cd8dc9bddc8195e1c1a5c995960921b6044820152606490fd5b908060209392818452848401376000828201840152601f01601f1916010190565b600090808252610167602052604082209160038301549061016554808302908382041483151715613c1f57612710900493848303928311613c1f579160409183600660027f06823cbbe3d86b8d3bc32f4679210e4ff0a8b1bf495ca5889fffc53b19c6add49601918560018060a01b039485855416815261016a6020522061458986825461422d565b9055881515806145c9575b6145b5575b01600560ff1982541617905554169482519182526020820152a3565b6145c489856101665416614615565b614599565b508361016654161515614594565b156145de57565b60405162461bcd60e51b815260206004820152600f60248201526e151c985b9cd9995c8819985a5b1959608a1b6044820152606490fd5b610161546001600160a01b039081168061464f5750600080938193829383918315614645575b1690f11561088957565b6108fc925061463b565b60405163a9059cbb60e01b81526001600160a01b0393909316600484015260248301939093525090602090829060449082906000905af180156108895760009061469e575b6138e391506145d7565b6020823d82116146d3575b816146b660209383613884565b810103126146d057506146cb6138e391614397565b614694565b80fd5b3d91506146a956fe2f8788117e7eff1d82e926ec794901d17c78024a50270940304540a733656f0d537472696e67733a20686578206c656e67746820696e73756666696369656e74416363657373436f6e74726f6c3a206163636f756e7420000000000000000000360894a13ba1a3210667c828492db98dca3e2076cc3735a920a3ca505d382bbca26469706673582212203080e903e36a49dd3fea2fd2903cb7f4051ce7cd114f47f6406c13725671be5b64736f6c63430008130033",
  "linkReferences": {},
  "deployedLinkReferences": {}
}