{
  "_format": "hh-sol-artifact-1",
  "contractName": "VerifierMarketplace",
  "sourceName": "contracts/VerifierMarketplace.sol",
  "abi": [
    {
      "inputs": [],
      "stateMutability": "nonpayable",
      "type": "constructor"
    },
    {
      "anonymous": false,
      "inputs": [
        {
          "indexed": false,
          "internalType": "address",
          "name": "previousAdmin",
          "type": "address"
        },
        {
          "indexed": false,
          "internalType": "address",
          "name": "newAdmin",
          "type": "address"
        }
      ],
      "name": "AdminChanged",
      "type": "event"
    },
    {
      "anonymous": false,
      "inputs": [
        {
          "indexed": true,
          "internalType": "address",
          "name": "beacon",
          "type": "address"
        }
      ],
      "name": "BeaconUpgraded",
      "type": "event"
    },
    {
      "anonymous": false,
      "inputs": [
        {
          "indexed": true,
          "internalType": "address",
          "name": "verifier",
          "type": "address"
        },
        {
          "indexed": false,
          "internalType": "uint256",
          "name": "amount",
          "type": "uint256"
        }
      ],
      "name": "EarningsWithdrawn",
      "type": "event"
    },
    {
      "anonymous": false,
      "inputs": [
        {
          "indexed": false,
          "internalType": "uint8",
          "name": "version",
          "type": "uint8"
        }
      ],
      "name": "Initialized",
      "type": "event"
    },
    {
      "anonymous": false,
      "inputs": [
        {
          "indexed": false,
          "internalType": "address",
          "name": "account",
          "type": "address"
        }
      ],
      "name": "Paused",
      "type": "event"
    },
    {
      "anonymous": false,
      "inputs": [
        {
          "indexed": true,
          "internalType": "address",
          "name": "verifier",
          "type": "address"
        },
        {
          "indexed": false,
          "internalType": "uint256",
          "name": "oldScore",
          "type": "uint256"
        },
        {
          "indexed": false,
          "internalType": "uint256",
          "name": "newScore",
          "type": "uint256"
        }
      ],
      "name": "ReputationUpdated",
      "type": "event"
    },
    {
      "anonymous": false,
      "inputs": [
        {
          "indexed": true,
          "internalType": "bytes32",
          "name": "role",
          "type": "bytes32"
        },
        {
          "indexed": true,
          "internalType": "bytes32",
          "name": "previousAdminRole",
          "type": "bytes32"
        },
        {
          "indexed": true,
          "internalType": "bytes32",
          "name": "newAdminRole",
          "type": "bytes32"
        }
      ],
      "name": "RoleAdminChanged",
      "type": "event"
    },
    {
      "anonymous": false,
      "inputs": [
        {
          "indexed": true,
          "internalType": "bytes32",
          "name": "role",
          "type": "bytes32"
        },
        {
          "indexed": true,
          "internalType": "address",
          "name": "account",
          "type": "address"
        },
        {
          "indexed": true,
          "internalType": "address",
          "name": "sender",
          "type": "address"
        }
      ],
      "name": "RoleGranted",
      "type": "event"
    },
    {
      "anonymous": false,
      "inputs": [
        {
          "indexed": true,
          "internalType": "bytes32",
          "name": "role",
          "type": "bytes32"
        },
        {
          "indexed": true,
          "internalType": "address",
          "name": "account",
          "type": "address"
        },
        {
          "indexed": true,
          "internalType": "address",
          "name": "sender",
          "type": "address"
        }
      ],
      "name": "RoleRevoked",
      "type": "event"
    },
    {
      "anonymous": false,
      "inputs": [
        {
          "indexed": false,
          "internalType": "address",
          "name": "account",
          "type": "address"
        }
      ],
      "name": "Unpaused",
      "type": "event"
    },
    {
      "anonymous": false,
      "inputs": [
        {
          "indexed": true,
          "internalType": "address",
          "name": "implementation",
          "type": "address"
        }
      ],
      "name": "Upgraded",
      "type": "event"
    },
    {
      "anonymous": false,
      "inputs": [
        {
          "indexed": true,
          "internalType": "bytes32",
          "name": "requestId",
          "type": "bytes32"
        },
        {
          "indexed": true,
          "internalType": "address",
          "name": "verifier",
          "type": "address"
        },
        {
          "indexed": false,
          "internalType": "bool",
          "name": "successful",
          "type": "bool"
        },
        {
          "indexed": false,
          "internalType": "uint256",
          "name": "fee",
          "type": "uint256"
        }
      ],
      "name": "VerificationCompleted",
      "type": "event"
    },
    {
      "anonymous": false,
      "inputs": [
        {
          "indexed": true,
          "internalType": "address",
          "name": "verifier",
          "type": "address"
        },
        {
          "indexed": false,
          "internalType": "string",
          "name": "reason",
          "type": "string"
        }
      ],
      "name": "VerifierDeactivated",
      "type": "event"
    },
    {
      "anonymous": false,
      "inputs": [
        {
          "indexed": true,
          "internalType": "address",
          "name": "verifier",
          "type": "address"
        },
        {
          "indexed": false,
          "internalType": "uint256",
          "name": "stakedAmount",
          "type": "uint256"
        },
        {
          "indexed": false,
          "internalType": "string",
          "name": "metadata",
          "type": "string"
        }
      ],
      "name": "VerifierRegistered",
      "type": "event"
    },
    {
      "anonymous": false,
      "inputs": [
        {
          "indexed": true,
          "internalType": "address",
          "name": "verifier",
          "type": "address"
        },
        {
          "indexed": false,
          "internalType": "uint256",
          "name": "slashedAmount",
          "type": "uint256"
        },
        {
          "indexed": false,
          "internalType": "string",
          "name": "reason",
          "type": "string"
        }
      ],
      "name": "VerifierSlashed",
      "type": "event"
    },
    {
      "anonymous": false,
      "inputs": [
        {
          "indexed": true,
          "internalType": "address",
          "name": "verifier",
          "type": "address"
        },
        {
          "indexed": false,
          "internalType": "uint256",
          "name": "additionalAmount",
          "type": "uint256"
        },
        {
          "indexed": false,
          "internalType": "uint256",
          "name": "totalStake",
          "type": "uint256"
        }
      ],
      "name": "VerifierStakeIncreased",
      "type": "event"
    },
    {
      "inputs": [],
      "name": "ADMIN_ROLE",
      "outputs": [
        {
          "internalType": "bytes32",
          "name": "",
          "type": "bytes32"
        }
      ],
      "stateMutability": "view",
      "type": "function"
    },
    {
      "inputs": [],
      "name": "DEFAULT_ADMIN_ROLE",
      "outputs": [
        {
          "internalType": "bytes32",
          "name": "",
          "type": "bytes32"
        }
      ],
      "stateMutability": "view",
      "type": "function"
    },
    {
      "inputs": [],
      "name": "SLASHER_ROLE",
      "outputs": [
        {
          "internalType": "bytes32",
          "name": "",
          "type": "bytes32"
        }
      ],
      "stateMutability": "view",
      "type": "function"
    },
    {
      "inputs": [],
      "name": "UPGRADER_ROLE",
      "outputs": [
        {
          "internalType": "bytes32",
          "name": "",
          "type": "bytes32"
        }
      ],
      "stateMutability": "view",
      "type": "function"
    },
    {
      "inputs": [],
      "name": "baseVerificationFee",
      "outputs": [
        {
          "internalType": "uint256",
          "name": "",
          "type": "uint256"
        }
      ],
      "stateMutability": "view",
      "type": "function"
    },
    {
      "inputs": [
        {
          "internalType": "address",
          "name": "verifier",
          "type": "address"
        }
      ],
      "name": "calculateVerificationFee",
      "outputs": [
        {
          "internalType": "uint256",
          "name": "fee",
          "type": "uint256"
        }
      ],
      "stateMutability": "view",
      "type": "function"
    },
    {
      "inputs": [],
      "name": "checkInactiveVerifiers",
      "outputs": [],
      "stateMutability": "nonpayable",
      "type": "function"
    },
    {
      "inputs": [
        {
          "internalType": "bytes32",
          "name": "requestId",
          "type": "bytes32"
        },
        {
          "internalType": "address",
          "name": "verifier",
          "type": "address"
        },
        {
          "internalType": "bool",
          "name": "successful",
          "type": "bool"
        }
      ],
      "name": "completeVerification",
      "outputs": [],
      "stateMutability": "nonpayable",
      "type": "function"
    },
    {
      "inputs": [],
      "name": "emergencyWithdraw",
      "outputs": [],
      "stateMutability": "nonpayable",
      "type": "function"
    },
    {
      "inputs": [],
      "name": "getActiveVerifiers",
      "outputs": [
        {
          "internalType": "address[]",
          "name": "",
          "type": "address[]"
        }
      ],
      "stateMutability": "view",
      "type": "function"
    },
    {
      "inputs": [
        {
          "internalType": "bytes32",
          "name": "role",
          "type": "bytes32"
        }
      ],
      "name": "getRoleAdmin",
      "outputs": [
        {
          "internalType": "bytes32",
          "name": "",
          "type": "bytes32"
        }
      ],
      "stateMutability": "view",
      "type": "function"
    },
    {
      "inputs": [
        {
          "internalType": "address",
          "name": "verifier",
          "type": "address"
        }
      ],
      "name": "getVerifier",
      "outputs": [
        {
          "components": [
            {
              "internalType": "address",
              "name": "verifierAddress",
              "type": "address"
            },
            {
              "internalType": "uint256",
              "name": "stakedAmount",
              "type": "uint256"
            },
            {
              "internalType": "uint256",
              "name": "reputationScore",
              "type": "uint256"
            },
            {
              "internalType": "uint256",
              "name": "totalVerifications",
              "type": "uint256"
            },
            {
              "internalType": "uint256",
              "name": "successfulVerifications",
              "type": "uint256"
            },
            {
              "internalType": "uint256",
              "name": "lastActivityTimestamp",
              "type": "uint256"
            },
            {
              "internalType": "bool",
              "name": "isActive",
              "type": "bool"
            },
            {
              "internalType": "string",
              "name": "metadata",
              "type": "string"
            },
            {
              "internalType": "uint256",
              "name": "registrationTimestamp",
              "type": "uint256"
            }
          ],
          "internalType": "struct VerifierMarketplace.Verifier",
          "name": "",
          "type": "tuple"
        }
      ],
      "stateMutability": "view",
      "type": "function"
    },
    {
      "inputs": [
        {
          "internalType": "bytes32",
          "name": "role",
          "type": "bytes32"
        },
        {
          "internalType": "address",
          "name": "account",
          "type": "address"
        }
      ],
      "name": "grantRole",
      "outputs": [],
      "stateMutability": "nonpayable",
      "type": "function"
    },
    {
      "inputs": [
        {
          "internalType": "bytes32",
          "name": "role",
          "type": "bytes32"
        },
        {
          "internalType": "address",
          "name": "account",
          "type": "address"
        }
      ],
      "name": "hasRole",
      "outputs": [
        {
          "internalType": "bool",
          "name": "",
          "type": "bool"
        }
      ],
      "stateMutability": "view",
      "type": "function"
    },
    {
      "inputs": [],
      "name": "inactivityThreshold",
      "outputs": [
        {
          "internalType": "uint256",
          "name": "",
          "type": "uint256"
        }
      ],
      "stateMutability": "view",
      "type": "function"
    },
    {
      "inputs": [],
      "name": "increaseStake",
      "outputs": [],
      "stateMutability": "payable",
      "type": "function"
    },
    {
      "inputs": [
        {
          "internalType": "address",
          "name": "admin",
          "type": "address"
        },
        {
          "internalType": "uint256",
          "name": "_minimumStake",
          "type": "uint256"
        },
        {
          "internalType": "uint256",
          "name": "_baseVerificationFee",
          "type": "uint256"
        },
        {
          "internalType": "address",
          "name": "_stakingToken",
          "type": "address"
        }
      ],
      "name": "initialize",
      "outputs": [],
      "stateMutability": "nonpayable",
      "type": "function"
    },
    {
      "inputs": [],
      "name": "minimumStake",
      "outputs": [
        {
          "internalType": "uint256",
          "name": "",
          "type": "uint256"
        }
      ],
      "stateMutability": "view",
      "type": "function"
    },
    {
      "inputs": [],
      "name": "pause",
      "outputs": [],
      "stateMutability": "nonpayable",
      "type": "function"
    },
    {
      "inputs": [],
      "name": "paused",
      "outputs": [
        {
          "internalType": "bool",
          "name": "",
          "type": "bool"
        }
      ],
      "stateMutability": "view",
      "type": "function"
    },
    {
      "inputs": [],
      "name": "proxiableUUID",
      "outputs": [
        {
          "internalType": "bytes32",
          "name": "",
          "type": "bytes32"
        }
      ],
      "stateMutability": "view",
      "type": "function"
    },
    {
      "inputs": [
        {
          "internalType": "string",
          "name": "metadata",
          "type": "string"
        }
      ],
      "name": "registerVerifier",
      "outputs": [],
      "stateMutability": "payable",
      "type": "function"
    },
    {
      "inputs": [
        {
          "internalType": "bytes32",
          "name": "role",
          "type": "bytes32"
        },
        {
          "internalType": "address",
          "name": "account",
          "type": "address"
        }
      ],
      "name": "renounceRole",
      "outputs": [],
      "stateMutability": "nonpayable",
      "type": "function"
    },
    {
      "inputs": [],
      "name": "reputationMultiplier",
      "outputs": [
        {
          "internalType": "uint256",
          "name": "",
          "type": "uint256"
        }
      ],
      "stateMutability": "view",
      "type": "function"
    },
    {
      "inputs": [
        {
          "internalType": "bytes32",
          "name": "role",
          "type": "bytes32"
        },
        {
          "internalType": "address",
          "name": "account",
          "type": "address"
        }
      ],
      "name": "revokeRole",
      "outputs": [],
      "stateMutability": "nonpayable",
      "type": "function"
    },
    {
      "inputs": [
        {
          "internalType": "address",
          "name": "verifier",
          "type": "address"
        },
        {
          "internalType": "string",
          "name": "reason",
          "type": "string"
        }
      ],
      "name": "slashVerifier",
      "outputs": [],
      "stateMutability": "nonpayable",
      "type": "function"
    },
    {
      "inputs": [],
      "name": "slashingPercentage",
      "outputs": [
        {
          "internalType": "uint256",
          "name": "",
          "type": "uint256"
        }
      ],
      "stateMutability": "view",
      "type": "function"
    },
    {
      "inputs": [],
      "name": "stakingToken",
      "outputs": [
        {
          "internalType": "contract IERC20",
          "name": "",
          "type": "address"
        }
      ],
      "stateMutability": "view",
      "type": "function"
    },
    {
      "inputs": [
        {
          "internalType": "bytes4",
          "name": "interfaceId",
          "type": "bytes4"
        }
      ],
      "name": "supportsInterface",
      "outputs": [
        {
          "internalType": "bool",
          "name": "",
          "type": "bool"
        }
      ],
      "stateMutability": "view",
      "type": "function"
    },
    {
      "inputs": [],
      "name": "unpause",
      "outputs": [],
      "stateMutability": "nonpayable",
      "type": "function"
    },
    {
      "inputs": [
        {
          "internalType": "uint256",
          "name": "_baseVerificationFee",
          "type": "uint256"
        }
      ],
      "name": "updateBaseVerificationFee",
      "outputs": [],
      "stateMutability": "nonpayable",
      "type": "function"
    },
    {
      "inputs": [
        {
          "internalType": "uint256",
          "name": "_inactivityThreshold",
          "type": "uint256"
        }
      ],
      "name": "updateInactivityThreshold",
      "outputs": [],
      "stateMutability": "nonpayable",
      "type": "function"
    },
    {
      "inputs": [
        {
          "internalType": "uint256",
          "name": "_minimumStake",
          "type": "uint256"
        }
      ],
      "name": "updateMinimumStake",
      "outputs": [],
      "stateMutability": "nonpayable",
      "type": "function"
    },
    {
      "inputs": [
        {
          "internalType": "uint256",
          "name": "_reputationMultiplier",
          "type": "uint256"
        }
      ],
      "name": "updateReputationMultiplier",
      "outputs": [],
      "stateMutability": "nonpayable",
      "type": "function"
    },
    {
      "inputs": [
        {
          "internalType": "uint256",
          "name": "_slashingPercentage",
          "type": "uint256"
        }
      ],
      "name": "updateSlashingPercentage",
      "outputs": [],
      "stateMutability": "nonpayable",
      "type": "function"
    },
    {
      "inputs": [
        {
          "internalType": "address",
          "name": "newImplementation",
          "type": "address"
        }
      ],
      "name": "upgradeTo",
      "outputs": [],
      "stateMutability": "nonpayable",
      "type": "function"
    },
    {
      "inputs": [
        {
          "internalType": "address",
          "name": "newImplementation",
          "type": "address"
        },
        {
          "internalType": "bytes",
          "name": "data",
          "type": "bytes"
        }
      ],
      "name": "upgradeToAndCall",
      "outputs": [],
      "stateMutability": "payable",
      "type": "function"
    },
    {
      "inputs": [
        {
          "internalType": "bytes32",
          "name": "",
          "type": "bytes32"
        }
      ],
      "name": "verificationRequests",
      "outputs": [
        {
          "internalType": "address",
          "name": "requester",
          "type": "address"
        },
        {
          "internalType": "address",
          "name": "assignedVerifier",
          "type": "address"
        },
        {
          "internalType": "uint256",
          "name": "fee",
          "type": "uint256"
        },
        {
          "internalType": "uint256",
          "name": "timestamp",
          "type": "uint256"
        },
        {
          "internalType": "bool",
          "name": "completed",
          "type": "bool"
        },
        {
          "internalType": "bool",
          "name": "successful",
          "type": "bool"
        },
        {
          "internalType": "string",
          "name": "requestData",
          "type": "string"
        }
      ],
      "stateMutability": "view",
      "type": "function"
    },
    {
      "inputs": [
        {
          "internalType": "address",
          "name": "",
          "type": "address"
        }
      ],
      "name": "verifierEarnings",
      "outputs": [
        {
          "internalType": "uint256",
          "name": "",
          "type": "uint256"
        }
      ],
      "stateMutability": "view",
      "type": "function"
    },
    {
      "inputs": [
        {
          "internalType": "uint256",
          "name": "",
          "type": "uint256"
        }
      ],
      "name": "verifierList",
      "outputs": [
        {
          "internalType": "address",
          "name": "",
          "type": "address"
        }
      ],
      "stateMutability": "view",
      "type": "function"
    },
    {
      "inputs": [
        {
          "internalType": "address",
          "name": "",
          "type": "address"
        }
      ],
      "name": "verifiers",
      "outputs": [
        {
          "internalType": "address",
          "name": "verifierAddress",
          "type": "address"
        },
        {
          "internalType": "uint256",
          "name": "stakedAmount",
          "type": "uint256"
        },
        {
          "internalType": "uint256",
          "name": "reputationScore",
          "type": "uint256"
        },
        {
          "internalType": "uint256",
          "name": "totalVerifications",
          "type": "uint256"
        },
        {
          "internalType": "uint256",
          "name": "successfulVerifications",
          "type": "uint256"
        },
        {
          "internalType": "uint256",
          "name": "lastActivityTimestamp",
          "type": "uint256"
        },
        {
          "internalType": "bool",
          "name": "isActive",
          "type": "bool"
        },
        {
          "internalType": "string",
          "name": "metadata",
          "type": "string"
        },
        {
          "internalType": "uint256",
          "name": "registrationTimestamp",
          "type": "uint256"
        }
      ],
      "stateMutability": "view",
      "type": "function"
    },
    {
      "inputs": [],
      "name": "withdrawEarnings",
      "outputs": [],
      "stateMutability": "nonpayable",
      "type": "function"
    },
    {
      "stateMutability": "payable",
      "type": "receive"
    }
  ],
  "bytecode": "0x60a08060405234620000e157306080526000549060ff8260081c166200008f575060ff8082160362000053575b6040516137419081620000e782396080518181816116eb015281816118240152611e190152f35b60ff90811916176000557f7f26b83ff96e1f2b6a682f133852f6798a09c465da95921460cefb3847402498602060405160ff8152a1386200002c565b62461bcd60e51b815260206004820152602760248201527f496e697469616c697a61626c653a20636f6e747261637420697320696e697469604482015266616c697a696e6760c81b6064820152608490fd5b600080fdfe6080604081815260049182361015610022575b505050361561002057600080fd5b005b600092833560e01c91826301ffc9a71461286657508163059ce95d1461271f5781630de3e665146126ff5781630f3908c81461266c57816316cb42181461222b578163248a9ca314612200578163267ae0a4146121dd5781632f2ff15d1461214257816336568abe146120b05781633659cfe614611df15781633f4ba83a14611d5b5781633fdd6b4914611bd057816342efe0db14611aca5781634c41e88014611aa75781634f1ef286146117d35781635095af641461179857816352d1902d146116d557816357762ddd146116935781635c975abb1461166f57816369666a491461164f5781636baec215146114b15781636c8244871461140057816372f702f3146113d657816375b238fc1461139b5781638456cb591461134057816391d14854146112f95781639e3d87cd14610f8c5781639ec8627614610f6c578163a217fddf14610f51578163b73c6ce914610dcd578163bb55963e14610dad578163be3f228014610d8a578163cf428f2314610d17578163d547741f14610cd8578163d9e257ef14610aed578163db2e21bc146107ee578163dbda75aa146106a5578163e6db07071461066c578163eb0e604914610649578163ec5ffac214610629578163f65ecc211461023d575063f72c0d8b146102005780610012565b34610239578160031936011261023957602090517f189ab7a9244df0848122154315af71fe140f3db0fe014031783b0946b8c9d2e38152f35b5080fd5b8383346102395780600319360112610239576102576128b9565b906024803567ffffffffffffffff8111610625576102789036908701612a9f565b7f12b42e8a160f6064dc959c6f251e3af0750ad213dbecf573b4710d67d6c28e399491949182875260209260658452858820338952845260ff86892054161561047257506102c461346f565b6102cc6134b3565b60018060a01b031694858752610165918284526102f160ff6006888b2001541661350a565b86885282845261271061030e6001888b20015461016254906131fa565b04988789528385526001878a20016103278b825461354c565b9055878952838552868920600181015461015f5411610401575b508789528385526002878a200154956007870291878304600714881517156103f05750509188996103ce7fbc3a16d342f86683a50b2358b4bdbabb3ec89b9b5ae5293234053997eced1bef938b60028b600a8e9f997f5b88a2e3fc1a53234357ab78c104df11c33ccfa79886793654565ad70b8afb6e9f809b528b8d520492200155895193849384613441565b0390a2858752815260028387200154908351928352820152a2600161012d5580f35b634e487b7160e01b8b526011905289fd5b60060160ff198154169055877f0bb0e736b635387caa7eacd963cb5ebd26d81acc0b84decb6818d7b7277f67e9608089518881526022898201527f5374616b652062656c6f77206d696e696d756d20616674657220736c617368698b820152616e6760f01b6060820152a28a610341565b9395505050949361048233613241565b9183519061048f826129bb565b6042825287820192606036853782511561061357603084538251906001918210156106015790607860218501536041915b8183116105985750505061056a5760486105669593859361054e9361053f975197889376020b1b1b2b9b9a1b7b73a3937b61d1030b1b1b7bab73a1604d1b8d8601526105168d82519283916037890191016128ea565b8401917001034b99036b4b9b9b4b733903937b6329607d1b6037840152518093868401906128ea565b010360288101865201846129d7565b5194859462461bcd60e51b865285015283019061290d565b0390fd5b60648688878188519362461bcd60e51b85528401528201526000805160206136cc8339815191526044820152fd5b909192600f811660108110156105ef576f181899199a1a9b1b9c1cb0b131b232b360811b901a6105c88587613230565b53891c9280156105dd576000190191906104c0565b634e487b7160e01b825260118a528882fd5b634e487b7160e01b835260328b528983fd5b634e487b7160e01b8152603289528790fd5b634e487b7160e01b8152603288528690fd5b8480fd5b50503461023957816003193601126102395760209061015f549051908152f35b83903461023957602036600319011261023957610664612b6d565b356101605580f35b5050346102395760203660031901126102395760209181906001600160a01b036106946128b9565b168152610168845220549051908152f35b8284346107eb5760203660031901126107eb576106c06128b9565b60018060a01b031680825261016590816020526106e560ff600686862001541661350a565b825260205260028282200154926113871984019384136001166107d8576101615484810294600160ff1b91848212838214166107c55781870514901517156107b257612710948590059280841261075d575050506107559060209361074e6101605492836131fa565b0490613223565b905b51908152f35b919490926101605493811461079f576020955061077c908303846131fa565b049050818110610791575060011c5b90610757565b61079a9161354c565b61078b565b634e487b7160e01b835260118652602483fd5b634e487b7160e01b835260118252602483fd5b634e487b7160e01b855260118452602485fd5b634e487b7160e01b825260119052602490fd5b80fd5b905034610ae95782600319360112610ae95782805260209060658252828420338552825260ff838520541615610961576108266134b3565b610164546001600160a01b0316908161086f575050508180808047818115610866575b3390f11561085c57505b600161012d5580f35b51903d90823e3d90fd5b506108fc610849565b83516370a0823160e01b81523082820152908382602481865afa9081156109575784928792610920575b50855163a9059cbb60e01b8152339181019182526020820192909252909283918290889082906040015b03925af1918215610913576108e1935084926108e6575b5050613568565b610853565b6109059250803d1061090c575b6108fd81836129d7565b8101906133e5565b38806108da565b503d6108f3565b50505051903d90823e3d90fd5b8381949293503d8311610950575b61093881836129d7565b8101031261094c57905183916108c3610899565b8580fd5b503d61092e565b85513d88823e3d90fd5b828461096c33613241565b908083519061097a826129bb565b60428252868201926060368537825115610ad65760308453825190600191821015610ac35790607860218501536041915b818311610a5857505050610a29576048610a00938593610a0f93610566975196879376020b1b1b2b9b9a1b7b73a3937b61d1030b1b1b7bab73a1604d1b8c8601526105168c82519283916037890191016128ea565b010360288101855201836129d7565b5193849362461bcd60e51b8552840152602483019061290d565b606485878087519262461bcd60e51b845283015260248201526000805160206136cc8339815191526044820152fd5b909192600f81166010811015610ab0576f181899199a1a9b1b9c1cb0b131b232b360811b901a610a888587613230565b53881c928015610a9d576000190191906109ab565b634e487b7160e01b825260118952602482fd5b634e487b7160e01b835260328a52602483fd5b634e487b7160e01b815260328852602490fd5b634e487b7160e01b815260328752602490fd5b8280fd5b91905082600319360112610ae957610b0361346f565b610b0b6134b3565b3383526101659160209083825260ff600684872001541615610c9757610164546001600160a01b031680610be257503415610ba15750907f8d5e6772da35d0173c64ddb673584aad7e4d8d1be8753288896f7008d012e2929134935b338652808252600183872001610b7e868254613223565b90553386528152600182862001549082519485528401523392a2600161012d5580f35b915162461bcd60e51b815291820181905260248201527f4d7573742073656e64204842415220746f20696e637265617365207374616b656044820152606490fd5b9291909381610c2c95610bf5341561338d565b61015f5485516323b872dd60e01b815233928101928352306020840152604083018290529790968892909183918b91839160600190565b03925af1948515610c8d577f8d5e6772da35d0173c64ddb673584aad7e4d8d1be8753288896f7008d012e2929495610c6b918891610c70575b506133fd565b610b67565b610c879150843d861161090c576108fd81836129d7565b38610c65565b83513d88823e3d90fd5b915162461bcd60e51b815291820152601960248201527f4e6f7420612072656769737465726564207665726966696572000000000000006044820152606490fd5b91905034610ae95780600319360112610ae957610d149135610d0f6001610cfd6128d4565b93838752606560205286200154612e8e565b612f99565b80f35b905034610ae9576020366003190112610ae957803591610d35612b6d565b6113888311610d475750506101625580f35b906020606492519162461bcd60e51b8352820152601c60248201527f536c617368696e672070657263656e7461676520746f6f2068696768000000006044820152fd5b83903461023957602036600319011261023957610da5612b6d565b356101635580f35b505034610239578160031936011261023957602090610161549051908152f35b905034610ae95782600319360112610ae957610de761346f565b610def6134b3565b3383526101689060209082825283852054928315610f0f57338652825283852085905561016454829084906001600160a01b031680610e7a57508680935080925080913382f115610e6e577f48dc35af7b45e2a81fffad55f6e2fafacdb1d3d0d50d24ebdc16324f5ba757f191925b519283523392a2600161012d5580f35b505051903d90823e3d90fd5b865163a9059cbb60e01b8152339481019485526020850192909252909283919082908990829060400103925af1908115610f05577f48dc35af7b45e2a81fffad55f6e2fafacdb1d3d0d50d24ebdc16324f5ba757f1939491610ee3918791610ee8575b50613568565b610e5e565b610eff9150843d861161090c576108fd81836129d7565b38610edd565b84513d87823e3d90fd5b5060649184519162461bcd60e51b8352820152601760248201527f4e6f206561726e696e677320746f2077697468647261770000000000000000006044820152fd5b50503461023957816003193601126102395751908152602090f35b505034610239578160031936011261023957602090610163549051908152f35b905034610ae9576080366003190112610ae957610fa76128b9565b6001600160a01b03916064358381169081900361094c5785549260ff90818560081c1615938480956112ed575b80156112d7575b1561127d575060ff1980861660019081178a55958561126c575b5061103a838a5460081c166110098161332d565b6110128161332d565b61101b8161332d565b826097541660975561102c8161332d565b6110358161332d565b61332d565b8561012d558880526065602097818952898b20931692838b52885283898b20541615611239575b7fa49807205ce4d355092ef5a8a18f56e8913cf4a201fbe287825b095693c21775808b52818952898b20848c528952848a8c20541615611205575b507f189ab7a9244df0848122154315af71fe140f3db0fe014031783b0946b8c9d2e3808b52818952898b20848c528952848a8c205416156111d1575b507f12b42e8a160f6064dc959c6f251e3af0750ad213dbecf573b4710d67d6c28e3993848b52818952898b20848c528952898b2054161561119c575b5050505060243561015f5560443561016055611388610161556103e86101625562278d006101635580611182575b5061114b578380f35b7f7f26b83ff96e1f2b6a682f133852f6798a09c465da95921460cefb38474024989261ff0019855416855551908152a13880808380f35b61016480546001600160a01b031916909117905538611142565b838a528752878920828a52875285888a209182541617905533916000805160206136ac8339815191528980a438808080611114565b808b52818952898b20848c528952898b2088848254161790558333916000805160206136ac8339815191528d80a4386110d8565b808b52818952898b20848c528952898b2088848254161790558333916000805160206136ac8339815191528d80a43861109c565b898052808852888a20838b528852888a20878382541617905533838b6000805160206136ac8339815191528180a4611061565b61ffff191661010117895538610ff5565b608490602089519162461bcd60e51b8352820152602e60248201527f496e697469616c697a61626c653a20636f6e747261637420697320616c72656160448201526d191e481a5b9a5d1a585b1a5e995960921b6064820152fd5b50303b158015610fdb5750600183871614610fdb565b50600183871610610fd4565b905034610ae95781600319360112610ae9578160209360ff9261131a6128d4565b90358252606586528282206001600160a01b039091168252855220549151911615158152f35b50503461023957816003193601126102395760207f62e78cea01bee320cd4e420270b5ea74000d11b0c9f74754ebdbfc544b05a2589161137e612b6d565b61138661346f565b600160ff19609754161760975551338152a180f35b505034610239578160031936011261023957602090517fa49807205ce4d355092ef5a8a18f56e8913cf4a201fbe287825b095693c217758152f35b5050346102395781600319360112610239576101645490516001600160a01b039091168152602090f35b838334610239576020366003190112610239576001600160a01b03916114a69082908461142b6128b9565b16815261016560205220928354169260018101549460028201549060038301549083015460058401549160ff60068601541693600861146c600788016129f9565b9601549780519a8b9a8b5260208b01528901526060880152608087015260a0860152151560c08501526101208060e086015284019061290d565b906101008301520390f35b905082346107eb57806003193601126107eb576101665492919080805b8581106115ee57506114f76114e2826135a6565b916114ef865193846129d7565b8083526135a6565b6020958287019491601f190136863783805b828210611558575050505083519485948186019282875251809352850193925b82811061153857505050500390f35b83516001600160a01b031685528695509381019392810192600101611529565b61156782999695979899612b20565b60018060a01b03809254600392831b1c168752610165885260ff60068c89200154166115a6575b50509061159a90613559565b90979695939497611509565b6115af84612b20565b9054911b1c1687518210156115db57816115d4918861159a9460051b8b010152613559565b908a61158e565b634e487b7160e01b865260328552602486fd5b6115fd81969392949596612b20565b905460039190911b1c6001600160a01b031682526101656020528582206006015460ff1661163a575b61162f90613559565b9493929091946114ce565b9261164761162f91613559565b939050611626565b505034610239578160031936011261023957602090610162549051908152f35b50503461023957816003193601126102395760209060ff6097541690519015158152f35b905034610ae9576020366003190112610ae9573591610166548310156107eb57506116bf602092612b20565b905491519160018060a01b039160031b1c168152f35b905082346107eb57806003193601126107eb57507f00000000000000000000000000000000000000000000000000000000000000006001600160a01b0316300361173057602082516000805160206136ec8339815191528152f35b6020608492519162461bcd60e51b8352820152603860248201527f555550535570677261646561626c653a206d757374206e6f742062652063616c60448201527f6c6564207468726f7567682064656c656761746563616c6c00000000000000006064820152fd5b505034610239578160031936011261023957602090517f12b42e8a160f6064dc959c6f251e3af0750ad213dbecf573b4710d67d6c28e398152f35b91809150600319360112610ae9576117e96128b9565b9060243567ffffffffffffffff811161062557366023820112156106255761181a9036906024818701359101612ae9565b6001600160a01b037f000000000000000000000000000000000000000000000000000000000000000081169291906118543085141561300f565b6118716000805160206136ec833981519152948286541614613070565b611879612d49565b7f4910fdfa16fed3260ed0e7147f7cc6da11a60208b5b9406d12a635614ffd91435460ff16156118b15750505050610d1491506130d1565b82516352d1902d60e01b81526020959394918416919086818981865afa899181611a74575b5061193557855162461bcd60e51b8152808901889052602e60248201527f45524331393637557067726164653a206e657720696d706c656d656e7461746960448201526d6f6e206973206e6f74205555505360901b6064820152608490fd5b9691929594939603611a1f575061194b856130d1565b7fbc7cd75a20ee27fd9adebab32041f755214dbc6bffa90cc0225b39da2e5c2d3b8680a2825115801590611a17575b611986575b5050505080f35b611a039385808351956119988761299f565b602787527f416464726573733a206c6f772d6c6576656c2064656c65676174652063616c6c86880152660819985a5b195960ca1b858801528581519101845af4913d15611a0d573d6119f56119ec82612acd565b925192836129d7565b81528681943d92013e613161565b503880808061197f565b5060609250613161565b50600161197a565b825162461bcd60e51b8152908101849052602960248201527f45524331393637557067726164653a20756e737570706f727465642070726f786044820152681a58589b195555525160ba1b6064820152608490fd5b9091508781813d8311611aa0575b611a8c81836129d7565b81010312611a9c575190386118d6565b8980fd5b503d611a82565b83903461023957602036600319011261023957611ac2612b6d565b3561015f5580f35b505034610239578160031936011261023957611ae4612b6d565b815b61016654811015611bcc5780611afe611b3d92612b20565b60018060a01b0391549060031b1c168085526101656020908082528587209160069260ff84820154169081611bb2575b50611b42575b50505050613559565b611ae6565b7f0bb0e736b635387caa7eacd963cb5ebd26d81acc0b84decb6818d7b7277f67e992606092858a5282528789200160ff198154169055601d8751918083528201527f496e6163746976697479207468726573686f6c6420657863656564656400000087820152a238808080611b34565b611bc19150600501544261354c565b610163541038611b2e565b8280f35b91905034610ae9576060366003190112610ae957813590611bef6128d4565b9260443580151591828203611d5757611c06612b6d565b611c0e61346f565b60018060a01b0386169586885261016591602093838552611c3760ff6006898d2001541661350a565b878a526101679384865260ff83898d20015416611d145791879695949391611ccf9360037fb48e6a2cde5d6737db899ca96abf738de637e170d6e1bc4837e601531521e5979a8e8e8e8252898b52868383200160018d61ff0083549160081b169061ffff1916171790558152838a522001611cb28154613559565b90558b8d528652878c2090426005830155611d00575b50506135be565b858852815260028388200154908688526101688152838820611cf2838254613223565b90558351928352820152a380f35b01611d0b8154613559565b90553880611cc8565b875162461bcd60e51b8152808401879052601e60248201527f566572696669636174696f6e20616c726561647920636f6d706c6574656400006044820152606490fd5b8680fd5b905034610ae95782600319360112610ae957611d75612b6d565b6097549060ff821615611db7575060ff1916609755513381527f5db9ee0a495bf2e6ff9c91a7834c1ba4fdd244a5e8aa4e537bd38aeae4b073aa90602090a180f35b606490602084519162461bcd60e51b8352820152601460248201527314185d5cd8589b194e881b9bdd081c185d5cd95960621b6044820152fd5b91905034610ae9576020806003193601126120ac57611e0e6128b9565b916001600160a01b037f00000000000000000000000000000000000000000000000000000000000000008116611e463082141561300f565b611e636000805160206136ec833981519152918383541614613070565b611e6b612d49565b8251908482019282841067ffffffffffffffff851117612099578385528883527f4910fdfa16fed3260ed0e7147f7cc6da11a60208b5b9406d12a635614ffd91435460ff1615611ec557505050505050610d1491506130d1565b869293949596169085516352d1902d60e01b815287818a81865afa8a9181612066575b50611f4757865162461bcd60e51b8152808a01899052602e60248201527f45524331393637557067726164653a206e657720696d706c656d656e7461746960448201526d6f6e206973206e6f74205555505360901b6064820152608490fd5b9791929396959497036120115750611f5e826130d1565b7fbc7cd75a20ee27fd9adebab32041f755214dbc6bffa90cc0225b39da2e5c2d3b8780a28584511580159061200a575b611f9c575b50505050505080f35b80611ffe96845196611fad8861299f565b602788527f416464726573733a206c6f772d6c6576656c2064656c65676174652063616c6c87890152660819985a5b195960ca1b868901525190845af4913d15611a0d573d6119f56119ec82612acd565b50388080808085611f93565b5080611f8e565b835162461bcd60e51b8152908101859052602960248201527f45524331393637557067726164653a20756e737570706f727465642070726f786044820152681a58589b195555525160ba1b6064820152608490fd5b9091508881813d8311612092575b61207e81836129d7565b8101031261208e57519038611ee8565b8a80fd5b503d612074565b634e487b7160e01b895260418852602489fd5b8380fd5b839150346102395782600319360112610239576120cb6128d4565b90336001600160a01b038316036120e75790610d149135612f99565b608490602085519162461bcd60e51b8352820152602f60248201527f416363657373436f6e74726f6c3a2063616e206f6e6c792072656e6f756e636560448201526e103937b632b9903337b91039b2b63360891b6064820152fd5b905034610ae95781600319360112610ae957359061215e6128d4565b90828452606560205261217660018286200154612e8e565b828452606560209081528185206001600160a01b039093168086529290528084205460ff16156121a4578380f35b82845260656020528084208285526020528320600160ff1982541617905533916000805160206136ac8339815191528480a43880808380f35b839034610239576020366003190112610239576121f8612b6d565b356101615580f35b905034610ae9576020366003190112610ae95781602093600192358152606585522001549051908152f35b8360208436600319018213610ae95767ffffffffffffffff8435818111610625576122599036908701612a9f565b92909161226461346f565b61226c6134b3565b338652610165855260ff60068388200154166126295783156125e657610164546001600160a01b03919082168061255e575061015f54341061251b5734955b8351916122b78361296c565b3383528782840152611388858401528860608401528860808401524260a0840152600160c08401526122ea368888612ae9565b60e08401908152610100840191428352338b526101658452868b2094868151166bffffffffffffffffffffffff60a01b8754161786558481015160018701558781015160028701556060810151600387015560808101518d87015560a0810151600587015560c060068701910151151560ff8019835416911617905560078501915180519182116125085761237f8354612932565b601f81116124c0575b5084908c601f84116001146124545760089650919083612449575b50508160011b916000199060031b1c19161790555b5191015561016680549068010000000000000000821015612436579161240b8261242a9460017ff0734b98dfc7770549b33ca5c3f377b6fd40ebbfb8f6d7e39aee74fd5b3530de99989795019055612b20565b819291549060031b9133831b921b191617905551928392339684613441565b0390a2600161012d5580f35b634e487b7160e01b885260418952602488fd5b015190508d806123a3565b92939495601f1985169086855280852094905b8282106124a85750509160019391856008989796941061248f575b505050811b0190556123b8565b015160001960f88460031b161c191690558d8080612482565b80600186978294978701518155019601940190612467565b838d52858d20601f840160051c8101918785106124fe575b601f0160051c01908d905b8281106124f1575050612388565b6001918155018d906124e3565b90915081906124d8565b634e487b7160e01b8c5260418d5260248cfd5b825162461bcd60e51b8152808901879052601960248201527f496e73756666696369656e74207374616b6520616d6f756e74000000000000006044820152606490fd5b95612569341561338d565b61015f5484516323b872dd60e01b815233818c0190815230602082015260408101839052919890918391839182908d90829060600103925af19081156125dc57906125ba918a916125bf57506133fd565b6122ab565b6125d69150833d851161090c576108fd81836129d7565b8b610c65565b85513d8b823e3d90fd5b815162461bcd60e51b8152808801869052601860248201527f4d657461646174612063616e6e6f7420626520656d70747900000000000000006044820152606490fd5b815162461bcd60e51b8152808801869052601e60248201527f416c7265616479207265676973746572656420617320766572696669657200006044820152606490fd5b8284346107eb5760203660031901126107eb57816126fb9184358152610167602052209160ff60018060a01b039384815416946001820154169560028201546126c0600560038501549385015494016129f9565b9480519889988952602089015287015260608601528181161515608086015260081c16151560a084015260e060c084015260e083019061290d565b0390f35b505034610239578160031936011261023957602090610160549051908152f35b83833461023957602091826003193601126107eb5761285c61273f6128b9565b948380519361274d8561296c565b808552808786015280828601528060608601528060808601528060a08601528060c0860152606060e0860152806101008096015260018060a01b038098168152610165875220845196879586936127a38561296c565b8284541685526001840154918986019283526002850154908087019182526003860154926060880193845286015493608088019485528b60058801549660a08a019788528b600860ff60068c0154169a60c08d019b15158c5260e061280a600783016129f9565b9d019c8d5201549d019c8d5283519e8f9e8f525116908d015251908b01525160608a01525160808901525160a08801525160c087015251151560e086015251610120809386015261014085019061290d565b9151908301520390f35b849134610ae9576020366003190112610ae9573563ffffffff60e01b8116809103610ae95760209250637965db0b60e01b81149081156128a8575b5015158152f35b6301ffc9a760e01b149050836128a1565b600435906001600160a01b03821682036128cf57565b600080fd5b602435906001600160a01b03821682036128cf57565b60005b8381106128fd5750506000910152565b81810151838201526020016128ed565b90602091612926815180928185528580860191016128ea565b601f01601f1916010190565b90600182811c92168015612962575b602083101461294c57565b634e487b7160e01b600052602260045260246000fd5b91607f1691612941565b610120810190811067ffffffffffffffff82111761298957604052565b634e487b7160e01b600052604160045260246000fd5b6060810190811067ffffffffffffffff82111761298957604052565b6080810190811067ffffffffffffffff82111761298957604052565b90601f8019910116810190811067ffffffffffffffff82111761298957604052565b9060405191826000825492612a0d84612932565b908184526001948581169081600014612a7c5750600114612a39575b5050612a37925003836129d7565b565b9093915060005260209081600020936000915b818310612a64575050612a3793508201013880612a29565b85548884018501529485019487945091830191612a4c565b915050612a3794506020925060ff191682840152151560051b8201013880612a29565b9181601f840112156128cf5782359167ffffffffffffffff83116128cf57602083818601950101116128cf57565b67ffffffffffffffff811161298957601f01601f191660200190565b929192612af582612acd565b91612b0360405193846129d7565b8294818452818301116128cf578281602093846000960137010152565b6101668054821015612b57576000527fa5a4c57b7184ec73d55be4993773cb4eef681bc86a28d0285cd66efb50676a970190600090565b634e487b7160e01b600052603260045260246000fd5b3360009081527f2c01dc0041dfb6d4238a91e5a638996136aed16f837d5beb45610732cf9bf4b0602090815260408083205490927fa49807205ce4d355092ef5a8a18f56e8913cf4a201fbe287825b095693c217759160ff1615612bd15750505050565b612bda33613241565b91845190612be7826129bb565b60428252848201926060368537825115612d355760308453825190600191821015612d355790607860218501536041915b818311612cc757505050612c97576048610566938693612c7b93612c6c985198899376020b1b1b2b9b9a1b7b73a3937b61d1030b1b1b7bab73a1604d1b8a860152610516815180928c6037890191016128ea565b010360288101875201856129d7565b5192839262461bcd60e51b84526004840152602483019061290d565b60648486519062461bcd60e51b825280600483015260248201526000805160206136cc8339815191526044820152fd5b909192600f81166010811015612d21576f181899199a1a9b1b9c1cb0b131b232b360811b901a612cf78587613230565b5360041c928015612d0d57600019019190612c18565b634e487b7160e01b82526011600452602482fd5b634e487b7160e01b83526032600452602483fd5b634e487b7160e01b81526032600452602490fd5b3360009081527f61c6261e6978331c793eee420d743e773864e0ec05cc862750e423d64f73e9f6602090815260408083205490927f189ab7a9244df0848122154315af71fe140f3db0fe014031783b0946b8c9d2e39160ff1615612dad5750505050565b612db633613241565b91845190612dc3826129bb565b60428252848201926060368537825115612d355760308453825190600191821015612d355790607860218501536041915b818311612e4857505050612c97576048610566938693612c7b93612c6c985198899376020b1b1b2b9b9a1b7b73a3937b61d1030b1b1b7bab73a1604d1b8a860152610516815180928c6037890191016128ea565b909192600f81166010811015612d21576f181899199a1a9b1b9c1cb0b131b232b360811b901a612e788587613230565b5360041c928015612d0d57600019019190612df4565b60009080825260209060658252604092838120338252835260ff848220541615612eb85750505050565b612ec133613241565b91845190612ece826129bb565b60428252848201926060368537825115612d355760308453825190600191821015612d355790607860218501536041915b818311612f5357505050612c97576048610566938693612c7b93612c6c985198899376020b1b1b2b9b9a1b7b73a3937b61d1030b1b1b7bab73a1604d1b8a860152610516815180928c6037890191016128ea565b909192600f81166010811015612d21576f181899199a1a9b1b9c1cb0b131b232b360811b901a612f838587613230565b5360041c928015612d0d57600019019190612eff565b906000918083526065602052604083209160018060a01b03169182845260205260ff604084205416612fca57505050565b8083526065602052604083208284526020526040832060ff1981541690557ff6391f5c32d9c69d2a47ea670b442974b53935d1edc7fd64eb21e047a839171b339380a4565b1561301657565b60405162461bcd60e51b815260206004820152602c60248201527f46756e6374696f6e206d7573742062652063616c6c6564207468726f7567682060448201526b19195b1959d85d1958d85b1b60a21b6064820152608490fd5b1561307757565b60405162461bcd60e51b815260206004820152602c60248201527f46756e6374696f6e206d7573742062652063616c6c6564207468726f7567682060448201526b6163746976652070726f787960a01b6064820152608490fd5b803b15613106576000805160206136ec83398151915280546001600160a01b0319166001600160a01b03909216919091179055565b60405162461bcd60e51b815260206004820152602d60248201527f455243313936373a206e657720696d706c656d656e746174696f6e206973206e60448201526c1bdd08184818dbdb9d1c9858dd609a1b6064820152608490fd5b919290156131c35750815115613175575090565b3b1561317e5790565b60405162461bcd60e51b815260206004820152601d60248201527f416464726573733a2063616c6c20746f206e6f6e2d636f6e74726163740000006044820152606490fd5b8251909150156131d65750805190602001fd5b60405162461bcd60e51b81526020600482015290819061056690602483019061290d565b8181029291811591840414171561320d57565b634e487b7160e01b600052601160045260246000fd5b9190820180921161320d57565b908151811015612b57570160200190565b6040519061324e8261299f565b602a8252602082016040368237825115612b5757603090538151600190811015612b5757607860218401536029905b8082116132bf57505061328d5790565b606460405162461bcd60e51b815260206004820152602060248201526000805160206136cc8339815191526044820152fd5b9091600f81166010811015613318576f181899199a1a9b1b9c1cb0b131b232b360811b901a6132ee8486613230565b5360041c91801561330357600019019061327d565b60246000634e487b7160e01b81526011600452fd5b60246000634e487b7160e01b81526032600452fd5b1561333457565b60405162461bcd60e51b815260206004820152602b60248201527f496e697469616c697a61626c653a20636f6e7472616374206973206e6f74206960448201526a6e697469616c697a696e6760a81b6064820152608490fd5b1561339457565b60405162461bcd60e51b8152602060048201526024808201527f4e6f206e61746976652063757272656e637920666f7220746f6b656e207374616044820152636b696e6760e01b6064820152608490fd5b908160209103126128cf575180151581036128cf5790565b1561340457565b60405162461bcd60e51b815260206004820152601560248201527414dd185ad9481d1c985b9cd9995c8819985a5b1959605a1b6044820152606490fd5b91926060938192845260406020850152816040850152848401376000828201840152601f01601f1916010190565b60ff6097541661347b57565b60405162461bcd60e51b815260206004820152601060248201526f14185d5cd8589b194e881c185d5cd95960821b6044820152606490fd5b61012d60028154146134c55760029055565b60405162461bcd60e51b815260206004820152601f60248201527f5265656e7472616e637947756172643a207265656e7472616e742063616c6c006044820152606490fd5b1561351157565b60405162461bcd60e51b81526020600482015260136024820152725665726966696572206e6f742061637469766560681b6044820152606490fd5b9190820391821161320d57565b600019811461320d5760010190565b1561356f57565b60405162461bcd60e51b815260206004820152600f60248201526e151c985b9cd9995c8819985a5b1959608a1b6044820152606490fd5b67ffffffffffffffff81116129895760051b60200190565b6001600160a01b0316600081815261016560208190526040822060038101546004820154909392909184156136a3576002015493612710928381029080820485149015171561368f5704600785028581046007148615171561368f5760038202918083046003149015171561368f5791600a6136607f5b88a2e3fc1a53234357ab78c104df11c33ccfa79886793654565ad70b8afb6e97959360409795613223565b0491808311613687575b5084836002928985965260205220015582519182526020820152a2565b91508461366a565b634e487b7160e01b85526011600452602485fd5b50505050505056fe2f8788117e7eff1d82e926ec794901d17c78024a50270940304540a733656f0d537472696e67733a20686578206c656e67746820696e73756666696369656e74360894a13ba1a3210667c828492db98dca3e2076cc3735a920a3ca505d382bbca26469706673582212204142bf74d3a0593d58c222ba4ef93fab2caae91c7363c145c8c479a0e8d5141a64736f6c63430008130033",
  "linkReferences": {},
  "deployedLinkReferences": {}
}