{
  "_format": "hh-sol-artifact-1",
  "contractName": "VerifierMarketplace",
  "sourceName": "contracts/VerifierMarketplace.sol",
  "abi": [
    {
      "inputs": [],
      "stateMutability": "nonpayable",
      "type": "constructor"
    },
    {
      "anonymous": false,
      "inputs": [
        {
          "indexed": false,
          "internalType": "address",
          "name": "previousAdmin",
          "type": "address"
        },
        {
          "indexed": false,
          "internalType": "address",
          "name": "newAdmin",
          "type": "address"
        }
      ],
      "name": "AdminChanged",
      "type": "event"
    },
    {
      "anonymous": false,
      "inputs": [
        {
          "indexed": true,
          "internalType": "address",
          "name": "beacon",
          "type": "address"
        }
      ],
      "name": "BeaconUpgraded",
      "type": "event"
    },
    {
      "anonymous": false,
      "inputs": [
        {
          "indexed": true,
          "internalType": "address",
          "name": "verifier",
          "type": "address"
        },
        {
          "indexed": false,
          "internalType": "uint256",
          "name": "amount",
          "type": "uint256"
        }
      ],
      "name": "EarningsWithdrawn",
      "type": "event"
    },
    {
      "anonymous": false,
      "inputs": [
        {
          "indexed": false,
          "internalType": "uint8",
          "name": "version",
          "type": "uint8"
        }
      ],
      "name": "Initialized",
      "type": "event"
    },
    {
      "anonymous": false,
      "inputs": [
        {
          "indexed": false,
          "internalType": "address",
          "name": "account",
          "type": "address"
        }
      ],
      "name": "Paused",
      "type": "event"
    },
    {
      "anonymous": false,
      "inputs": [
        {
          "indexed": true,
          "internalType": "address",
          "name": "verifier",
          "type": "address"
        },
        {
          "indexed": false,
          "internalType": "uint256",
          "name": "oldScore",
          "type": "uint256"
        },
        {
          "indexed": false,
          "internalType": "uint256",
          "name": "newScore",
          "type": "uint256"
        }
      ],
      "name": "ReputationUpdated",
      "type": "event"
    },
    {
      "anonymous": false,
      "inputs": [
        {
          "indexed": true,
          "internalType": "bytes32",
          "name": "role",
          "type": "bytes32"
        },
        {
          "indexed": true,
          "internalType": "bytes32",
          "name": "previousAdminRole",
          "type": "bytes32"
        },
        {
          "indexed": true,
          "internalType": "bytes32",
          "name": "newAdminRole",
          "type": "bytes32"
        }
      ],
      "name": "RoleAdminChanged",
      "type": "event"
    },
    {
      "anonymous": false,
      "inputs": [
        {
          "indexed": true,
          "internalType": "bytes32",
          "name": "role",
          "type": "bytes32"
        },
        {
          "indexed": true,
          "internalType": "address",
          "name": "account",
          "type": "address"
        },
        {
          "indexed": true,
          "internalType": "address",
          "name": "sender",
          "type": "address"
        }
      ],
      "name": "RoleGranted",
      "type": "event"
    },
    {
      "anonymous": false,
      "inputs": [
        {
          "indexed": true,
          "internalType": "bytes32",
          "name": "role",
          "type": "bytes32"
        },
        {
          "indexed": true,
          "internalType": "address",
          "name": "account",
          "type": "address"
        },
        {
          "indexed": true,
          "internalType": "address",
          "name": "sender",
          "type": "address"
        }
      ],
      "name": "RoleRevoked",
      "type": "event"
    },
    {
      "anonymous": false,
      "inputs": [
        {
          "indexed": false,
          "internalType": "address",
          "name": "account",
          "type": "address"
        }
      ],
      "name": "Unpaused",
      "type": "event"
    },
    {
      "anonymous": false,
      "inputs": [
        {
          "indexed": true,
          "internalType": "address",
          "name": "implementation",
          "type": "address"
        }
      ],
      "name": "Upgraded",
      "type": "event"
    },
    {
      "anonymous": false,
      "inputs": [
        {
          "indexed": true,
          "internalType": "bytes32",
          "name": "requestId",
          "type": "bytes32"
        },
        {
          "indexed": true,
          "internalType": "address",
          "name": "verifier",
          "type": "address"
        },
        {
          "indexed": false,
          "internalType": "bool",
          "name": "successful",
          "type": "bool"
        },
        {
          "indexed": false,
          "internalType": "uint256",
          "name": "fee",
          "type": "uint256"
        }
      ],
      "name": "VerificationCompleted",
      "type": "event"
    },
    {
      "anonymous": false,
      "inputs": [
        {
          "indexed": true,
          "internalType": "address",
          "name": "verifier",
          "type": "address"
        },
        {
          "indexed": false,
          "internalType": "string",
          "name": "reason",
          "type": "string"
        }
      ],
      "name": "VerifierDeactivated",
      "type": "event"
    },
    {
      "anonymous": false,
      "inputs": [
        {
          "indexed": true,
          "internalType": "address",
          "name": "verifier",
          "type": "address"
        },
        {
          "indexed": false,
          "internalType": "uint256",
          "name": "stakedAmount",
          "type": "uint256"
        },
        {
          "indexed": false,
          "internalType": "string",
          "name": "metadata",
          "type": "string"
        }
      ],
      "name": "VerifierRegistered",
      "type": "event"
    },
    {
      "anonymous": false,
      "inputs": [
        {
          "indexed": true,
          "internalType": "address",
          "name": "verifier",
          "type": "address"
        },
        {
          "indexed": false,
          "internalType": "uint256",
          "name": "slashedAmount",
          "type": "uint256"
        },
        {
          "indexed": false,
          "internalType": "string",
          "name": "reason",
          "type": "string"
        }
      ],
      "name": "VerifierSlashed",
      "type": "event"
    },
    {
      "anonymous": false,
      "inputs": [
        {
          "indexed": true,
          "internalType": "address",
          "name": "verifier",
          "type": "address"
        },
        {
          "indexed": false,
          "internalType": "uint256",
          "name": "additionalAmount",
          "type": "uint256"
        },
        {
          "indexed": false,
          "internalType": "uint256",
          "name": "totalStake",
          "type": "uint256"
        }
      ],
      "name": "VerifierStakeIncreased",
      "type": "event"
    },
    {
      "inputs": [],
      "name": "ADMIN_ROLE",
      "outputs": [
        {
          "internalType": "bytes32",
          "name": "",
          "type": "bytes32"
        }
      ],
      "stateMutability": "view",
      "type": "function"
    },
    {
      "inputs": [],
      "name": "DEFAULT_ADMIN_ROLE",
      "outputs": [
        {
          "internalType": "bytes32",
          "name": "",
          "type": "bytes32"
        }
      ],
      "stateMutability": "view",
      "type": "function"
    },
    {
      "inputs": [],
      "name": "SLASHER_ROLE",
      "outputs": [
        {
          "internalType": "bytes32",
          "name": "",
          "type": "bytes32"
        }
      ],
      "stateMutability": "view",
      "type": "function"
    },
    {
      "inputs": [],
      "name": "UPGRADER_ROLE",
      "outputs": [
        {
          "internalType": "bytes32",
          "name": "",
          "type": "bytes32"
        }
      ],
      "stateMutability": "view",
      "type": "function"
    },
    {
      "inputs": [],
      "name": "baseVerificationFee",
      "outputs": [
        {
          "internalType": "uint256",
          "name": "",
          "type": "uint256"
        }
      ],
      "stateMutability": "view",
      "type": "function"
    },
    {
      "inputs": [
        {
          "internalType": "address",
          "name": "verifier",
          "type": "address"
        }
      ],
      "name": "calculateVerificationFee",
      "outputs": [
        {
          "internalType": "uint256",
          "name": "fee",
          "type": "uint256"
        }
      ],
      "stateMutability": "view",
      "type": "function"
    },
    {
      "inputs": [],
      "name": "checkInactiveVerifiers",
      "outputs": [],
      "stateMutability": "nonpayable",
      "type": "function"
    },
    {
      "inputs": [
        {
          "internalType": "bytes32",
          "name": "requestId",
          "type": "bytes32"
        },
        {
          "internalType": "address",
          "name": "verifier",
          "type": "address"
        },
        {
          "internalType": "bool",
          "name": "successful",
          "type": "bool"
        }
      ],
      "name": "completeVerification",
      "outputs": [],
      "stateMutability": "nonpayable",
      "type": "function"
    },
    {
      "inputs": [],
      "name": "emergencyWithdraw",
      "outputs": [],
      "stateMutability": "nonpayable",
      "type": "function"
    },
    {
      "inputs": [],
      "name": "getActiveVerifiers",
      "outputs": [
        {
          "internalType": "address[]",
          "name": "",
          "type": "address[]"
        }
      ],
      "stateMutability": "view",
      "type": "function"
    },
    {
      "inputs": [],
      "name": "getActiveVerifiersWithDetails",
      "outputs": [
        {
          "internalType": "address[]",
          "name": "verifierAddresses",
          "type": "address[]"
        },
        {
          "internalType": "string[]",
          "name": "names",
          "type": "string[]"
        },
        {
          "internalType": "uint256[]",
          "name": "fees",
          "type": "uint256[]"
        },
        {
          "internalType": "uint256[]",
          "name": "reputationScores",
          "type": "uint256[]"
        }
      ],
      "stateMutability": "view",
      "type": "function"
    },
    {
      "inputs": [
        {
          "internalType": "bytes32",
          "name": "role",
          "type": "bytes32"
        }
      ],
      "name": "getRoleAdmin",
      "outputs": [
        {
          "internalType": "bytes32",
          "name": "",
          "type": "bytes32"
        }
      ],
      "stateMutability": "view",
      "type": "function"
    },
    {
      "inputs": [
        {
          "internalType": "address",
          "name": "verifier",
          "type": "address"
        }
      ],
      "name": "getVerifier",
      "outputs": [
        {
          "components": [
            {
              "internalType": "address",
              "name": "verifierAddress",
              "type": "address"
            },
            {
              "internalType": "uint256",
              "name": "stakedAmount",
              "type": "uint256"
            },
            {
              "internalType": "uint256",
              "name": "reputationScore",
              "type": "uint256"
            },
            {
              "internalType": "uint256",
              "name": "totalVerifications",
              "type": "uint256"
            },
            {
              "internalType": "uint256",
              "name": "successfulVerifications",
              "type": "uint256"
            },
            {
              "internalType": "uint256",
              "name": "lastActivityTimestamp",
              "type": "uint256"
            },
            {
              "internalType": "bool",
              "name": "isActive",
              "type": "bool"
            },
            {
              "internalType": "string",
              "name": "metadata",
              "type": "string"
            },
            {
              "internalType": "uint256",
              "name": "registrationTimestamp",
              "type": "uint256"
            }
          ],
          "internalType": "struct VerifierMarketplace.Verifier",
          "name": "",
          "type": "tuple"
        }
      ],
      "stateMutability": "view",
      "type": "function"
    },
    {
      "inputs": [
        {
          "internalType": "address",
          "name": "verifier",
          "type": "address"
        }
      ],
      "name": "getVerifierDetails",
      "outputs": [
        {
          "internalType": "string",
          "name": "name",
          "type": "string"
        },
        {
          "internalType": "string",
          "name": "metadataURI",
          "type": "string"
        },
        {
          "internalType": "uint256",
          "name": "baseFee",
          "type": "uint256"
        },
        {
          "internalType": "bool",
          "name": "isActive",
          "type": "bool"
        },
        {
          "internalType": "uint256",
          "name": "reputationScore",
          "type": "uint256"
        },
        {
          "internalType": "uint256",
          "name": "totalVerifications",
          "type": "uint256"
        },
        {
          "internalType": "uint256",
          "name": "successfulVerifications",
          "type": "uint256"
        },
        {
          "internalType": "uint256",
          "name": "stakedAmount",
          "type": "uint256"
        }
      ],
      "stateMutability": "view",
      "type": "function"
    },
    {
      "inputs": [
        {
          "internalType": "bytes32",
          "name": "role",
          "type": "bytes32"
        },
        {
          "internalType": "address",
          "name": "account",
          "type": "address"
        }
      ],
      "name": "grantRole",
      "outputs": [],
      "stateMutability": "nonpayable",
      "type": "function"
    },
    {
      "inputs": [
        {
          "internalType": "bytes32",
          "name": "role",
          "type": "bytes32"
        },
        {
          "internalType": "address",
          "name": "account",
          "type": "address"
        }
      ],
      "name": "hasRole",
      "outputs": [
        {
          "internalType": "bool",
          "name": "",
          "type": "bool"
        }
      ],
      "stateMutability": "view",
      "type": "function"
    },
    {
      "inputs": [],
      "name": "inactivityThreshold",
      "outputs": [
        {
          "internalType": "uint256",
          "name": "",
          "type": "uint256"
        }
      ],
      "stateMutability": "view",
      "type": "function"
    },
    {
      "inputs": [],
      "name": "increaseStake",
      "outputs": [],
      "stateMutability": "payable",
      "type": "function"
    },
    {
      "inputs": [
        {
          "internalType": "address",
          "name": "admin",
          "type": "address"
        },
        {
          "internalType": "uint256",
          "name": "_minimumStake",
          "type": "uint256"
        },
        {
          "internalType": "uint256",
          "name": "_baseVerificationFee",
          "type": "uint256"
        },
        {
          "internalType": "address",
          "name": "_stakingToken",
          "type": "address"
        }
      ],
      "name": "initialize",
      "outputs": [],
      "stateMutability": "nonpayable",
      "type": "function"
    },
    {
      "inputs": [],
      "name": "minimumStake",
      "outputs": [
        {
          "internalType": "uint256",
          "name": "",
          "type": "uint256"
        }
      ],
      "stateMutability": "view",
      "type": "function"
    },
    {
      "inputs": [],
      "name": "pause",
      "outputs": [],
      "stateMutability": "nonpayable",
      "type": "function"
    },
    {
      "inputs": [],
      "name": "paused",
      "outputs": [
        {
          "internalType": "bool",
          "name": "",
          "type": "bool"
        }
      ],
      "stateMutability": "view",
      "type": "function"
    },
    {
      "inputs": [],
      "name": "proxiableUUID",
      "outputs": [
        {
          "internalType": "bytes32",
          "name": "",
          "type": "bytes32"
        }
      ],
      "stateMutability": "view",
      "type": "function"
    },
    {
      "inputs": [
        {
          "internalType": "string",
          "name": "metadata",
          "type": "string"
        }
      ],
      "name": "registerVerifier",
      "outputs": [],
      "stateMutability": "payable",
      "type": "function"
    },
    {
      "inputs": [
        {
          "internalType": "bytes32",
          "name": "role",
          "type": "bytes32"
        },
        {
          "internalType": "address",
          "name": "account",
          "type": "address"
        }
      ],
      "name": "renounceRole",
      "outputs": [],
      "stateMutability": "nonpayable",
      "type": "function"
    },
    {
      "inputs": [],
      "name": "reputationMultiplier",
      "outputs": [
        {
          "internalType": "uint256",
          "name": "",
          "type": "uint256"
        }
      ],
      "stateMutability": "view",
      "type": "function"
    },
    {
      "inputs": [
        {
          "internalType": "bytes32",
          "name": "role",
          "type": "bytes32"
        },
        {
          "internalType": "address",
          "name": "account",
          "type": "address"
        }
      ],
      "name": "revokeRole",
      "outputs": [],
      "stateMutability": "nonpayable",
      "type": "function"
    },
    {
      "inputs": [
        {
          "internalType": "address",
          "name": "verifier",
          "type": "address"
        },
        {
          "internalType": "string",
          "name": "reason",
          "type": "string"
        }
      ],
      "name": "slashVerifier",
      "outputs": [],
      "stateMutability": "nonpayable",
      "type": "function"
    },
    {
      "inputs": [],
      "name": "slashingPercentage",
      "outputs": [
        {
          "internalType": "uint256",
          "name": "",
          "type": "uint256"
        }
      ],
      "stateMutability": "view",
      "type": "function"
    },
    {
      "inputs": [],
      "name": "stakingToken",
      "outputs": [
        {
          "internalType": "contract IERC20",
          "name": "",
          "type": "address"
        }
      ],
      "stateMutability": "view",
      "type": "function"
    },
    {
      "inputs": [
        {
          "internalType": "bytes4",
          "name": "interfaceId",
          "type": "bytes4"
        }
      ],
      "name": "supportsInterface",
      "outputs": [
        {
          "internalType": "bool",
          "name": "",
          "type": "bool"
        }
      ],
      "stateMutability": "view",
      "type": "function"
    },
    {
      "inputs": [],
      "name": "unpause",
      "outputs": [],
      "stateMutability": "nonpayable",
      "type": "function"
    },
    {
      "inputs": [
        {
          "internalType": "uint256",
          "name": "_baseVerificationFee",
          "type": "uint256"
        }
      ],
      "name": "updateBaseVerificationFee",
      "outputs": [],
      "stateMutability": "nonpayable",
      "type": "function"
    },
    {
      "inputs": [
        {
          "internalType": "uint256",
          "name": "_inactivityThreshold",
          "type": "uint256"
        }
      ],
      "name": "updateInactivityThreshold",
      "outputs": [],
      "stateMutability": "nonpayable",
      "type": "function"
    },
    {
      "inputs": [
        {
          "internalType": "uint256",
          "name": "_minimumStake",
          "type": "uint256"
        }
      ],
      "name": "updateMinimumStake",
      "outputs": [],
      "stateMutability": "nonpayable",
      "type": "function"
    },
    {
      "inputs": [
        {
          "internalType": "uint256",
          "name": "_reputationMultiplier",
          "type": "uint256"
        }
      ],
      "name": "updateReputationMultiplier",
      "outputs": [],
      "stateMutability": "nonpayable",
      "type": "function"
    },
    {
      "inputs": [
        {
          "internalType": "uint256",
          "name": "_slashingPercentage",
          "type": "uint256"
        }
      ],
      "name": "updateSlashingPercentage",
      "outputs": [],
      "stateMutability": "nonpayable",
      "type": "function"
    },
    {
      "inputs": [
        {
          "internalType": "address",
          "name": "newImplementation",
          "type": "address"
        }
      ],
      "name": "upgradeTo",
      "outputs": [],
      "stateMutability": "nonpayable",
      "type": "function"
    },
    {
      "inputs": [
        {
          "internalType": "address",
          "name": "newImplementation",
          "type": "address"
        },
        {
          "internalType": "bytes",
          "name": "data",
          "type": "bytes"
        }
      ],
      "name": "upgradeToAndCall",
      "outputs": [],
      "stateMutability": "payable",
      "type": "function"
    },
    {
      "inputs": [
        {
          "internalType": "bytes32",
          "name": "",
          "type": "bytes32"
        }
      ],
      "name": "verificationRequests",
      "outputs": [
        {
          "internalType": "address",
          "name": "requester",
          "type": "address"
        },
        {
          "internalType": "address",
          "name": "assignedVerifier",
          "type": "address"
        },
        {
          "internalType": "uint256",
          "name": "fee",
          "type": "uint256"
        },
        {
          "internalType": "uint256",
          "name": "timestamp",
          "type": "uint256"
        },
        {
          "internalType": "bool",
          "name": "completed",
          "type": "bool"
        },
        {
          "internalType": "bool",
          "name": "successful",
          "type": "bool"
        },
        {
          "internalType": "string",
          "name": "requestData",
          "type": "string"
        }
      ],
      "stateMutability": "view",
      "type": "function"
    },
    {
      "inputs": [
        {
          "internalType": "address",
          "name": "",
          "type": "address"
        }
      ],
      "name": "verifierEarnings",
      "outputs": [
        {
          "internalType": "uint256",
          "name": "",
          "type": "uint256"
        }
      ],
      "stateMutability": "view",
      "type": "function"
    },
    {
      "inputs": [
        {
          "internalType": "uint256",
          "name": "",
          "type": "uint256"
        }
      ],
      "name": "verifierList",
      "outputs": [
        {
          "internalType": "address",
          "name": "",
          "type": "address"
        }
      ],
      "stateMutability": "view",
      "type": "function"
    },
    {
      "inputs": [
        {
          "internalType": "address",
          "name": "",
          "type": "address"
        }
      ],
      "name": "verifiers",
      "outputs": [
        {
          "internalType": "address",
          "name": "verifierAddress",
          "type": "address"
        },
        {
          "internalType": "uint256",
          "name": "stakedAmount",
          "type": "uint256"
        },
        {
          "internalType": "uint256",
          "name": "reputationScore",
          "type": "uint256"
        },
        {
          "internalType": "uint256",
          "name": "totalVerifications",
          "type": "uint256"
        },
        {
          "internalType": "uint256",
          "name": "successfulVerifications",
          "type": "uint256"
        },
        {
          "internalType": "uint256",
          "name": "lastActivityTimestamp",
          "type": "uint256"
        },
        {
          "internalType": "bool",
          "name": "isActive",
          "type": "bool"
        },
        {
          "internalType": "string",
          "name": "metadata",
          "type": "string"
        },
        {
          "internalType": "uint256",
          "name": "registrationTimestamp",
          "type": "uint256"
        }
      ],
      "stateMutability": "view",
      "type": "function"
    },
    {
      "inputs": [],
      "name": "withdrawEarnings",
      "outputs": [],
      "stateMutability": "nonpayable",
      "type": "function"
    },
    {
      "stateMutability": "payable",
      "type": "receive"
    }
  ],
  "bytecode": "0x60a08060405234620000e157306080526000549060ff8260081c166200008f575060ff8082160362000053575b604051613d6e9081620000e7823960805181818161193001528181611a69015261205e0152f35b60ff90811916176000557f7f26b83ff96e1f2b6a682f133852f6798a09c465da95921460cefb3847402498602060405160ff8152a1386200002c565b62461bcd60e51b815260206004820152602760248201527f496e697469616c697a61626c653a20636f6e747261637420697320696e697469604482015266616c697a696e6760c81b6064820152608490fd5b600080fdfe6080604081815260049182361015610022575b505050361561002057600080fd5b005b600092833560e01c91826301ffc9a714612aa757508163059ce95d146129605781630de3e665146129405781630f3908c8146128b157816316cb421814612470578163248a9ca314612445578163267ae0a4146124225781632f2ff15d1461238757816336568abe146122f55781633659cfe6146120365781633f4ba83a14611fa05781633fdd6b4914611e1557816342efe0db14611d0f5781634c41e88014611cec5781634f1ef28614611a185781635095af64146119dd57816352d1902d1461191a57816357762ddd146118d85781635c975abb146118b457816369666a49146118945781636baec215146117885781636c824487146116d757816372f702f3146116ad57816375b238fc1461167257816376fccaa2146113f85781638456cb591461139d57816391d14854146113565781639e3d87cd14610fe95781639ec8627614610fc9578163a217fddf14610fae578163b73c6ce914610e2a578163bb55963e14610e0a578163be3f228014610de7578163c20c432514610c84578163cf428f2314610c11578163d547741f14610bd2578163d9e257ef146109e7578163db2e21bc146106e8578163dbda75aa146106bb578163e6db070714610682578163eb0e60491461065f578163ec5ffac21461063f578163f65ecc2114610253575063f72c0d8b146102165780610012565b3461024f578160031936011261024f57602090517f189ab7a9244df0848122154315af71fe140f3db0fe014031783b0946b8c9d2e38152f35b5080fd5b83833461024f578060031936011261024f5761026d612afa565b906024803567ffffffffffffffff811161063b5761028e9036908701612cfc565b7f12b42e8a160f6064dc959c6f251e3af0750ad213dbecf573b4710d67d6c28e399491949182875260209260658452858820338952845260ff86892054161561048857506102da61373d565b6102e2613781565b60018060a01b0316948587526101659182845261030760ff6006888b20015416613a5a565b8688528284526127106103246001888b20015461016254906134c8565b04988789528385526001878a200161033d8b8254613a9c565b9055878952838552868920600181015461015f5411610417575b508789528385526002878a200154956007870291878304600714881517156104065750509188996103e47fbc3a16d342f86683a50b2358b4bdbabb3ec89b9b5ae5293234053997eced1bef938b60028b600a8e9f997f5b88a2e3fc1a53234357ab78c104df11c33ccfa79886793654565ad70b8afb6e9f809b528b8d52049220015589519384938461370f565b0390a2858752815260028387200154908351928352820152a2600161012d5580f35b634e487b7160e01b8b526011905289fd5b60060160ff198154169055877f0bb0e736b635387caa7eacd963cb5ebd26d81acc0b84decb6818d7b7277f67e9608089518881526022898201527f5374616b652062656c6f77206d696e696d756d20616674657220736c617368698b820152616e6760f01b6060820152a28a610357565b939550505094936104983361350f565b918351906104a582612c18565b6042825287820192606036853782511561062957603084538251906001918210156106175790607860218501536041915b8183116105ae5750505061058057604861057c9593859361056493610555975197889376020b1b1b2b9b9a1b7b73a3937b61d1030b1b1b7bab73a1604d1b8d86015261052c8d8251928391603789019101612b2b565b8401917001034b99036b4b9b9b4b733903937b6329607d1b603784015251809386840190612b2b565b01036028810186520184612c34565b5194859462461bcd60e51b8652850152830190612b4e565b0390fd5b60648688878188519362461bcd60e51b8552840152820152600080516020613cf98339815191526044820152fd5b909192600f81166010811015610605576f181899199a1a9b1b9c1cb0b131b232b360811b901a6105de85876134fe565b53891c9280156105f3576000190191906104d6565b634e487b7160e01b825260118a528882fd5b634e487b7160e01b835260328b528983fd5b634e487b7160e01b8152603289528790fd5b634e487b7160e01b8152603288528690fd5b8480fd5b50503461024f578160031936011261024f5760209061015f549051908152f35b83903461024f57602036600319011261024f5761067a612e3b565b356101605580f35b50503461024f57602036600319011261024f5760209181906001600160a01b036106aa612afa565b168152610168845220549051908152f35b50503461024f57602036600319011261024f576020906106e16106dc612afa565b613aa9565b9051908152f35b9050346109e357826003193601126109e35782805260209060658252828420338552825260ff83852054161561085b57610720613781565b610164546001600160a01b03169081610769575050508180808047818115610760575b3390f11561075657505b600161012d5580f35b51903d90823e3d90fd5b506108fc610743565b83516370a0823160e01b81523082820152908382602481865afa908115610851578492879261081a575b50855163a9059cbb60e01b8152339181019182526020820192909252909283918290889082906040015b03925af191821561080d576107db935084926107e0575b5050613bad565b61074d565b6107ff9250803d10610806575b6107f78183612c34565b8101906136b3565b38806107d4565b503d6107ed565b50505051903d90823e3d90fd5b8381949293503d831161084a575b6108328183612c34565b8101031261084657905183916107bd610793565b8580fd5b503d610828565b85513d88823e3d90fd5b82846108663361350f565b908083519061087482612c18565b604282528682019260603685378251156109d057603084538251906001918210156109bd5790607860218501536041915b818311610952575050506109235760486108fa9385936109099361057c975196879376020b1b1b2b9b9a1b7b73a3937b61d1030b1b1b7bab73a1604d1b8c86015261052c8c8251928391603789019101612b2b565b01036028810185520183612c34565b5193849362461bcd60e51b85528401526024830190612b4e565b606485878087519262461bcd60e51b84528301526024820152600080516020613cf98339815191526044820152fd5b909192600f811660108110156109aa576f181899199a1a9b1b9c1cb0b131b232b360811b901a61098285876134fe565b53881c928015610997576000190191906108a5565b634e487b7160e01b825260118952602482fd5b634e487b7160e01b835260328a52602483fd5b634e487b7160e01b815260328852602490fd5b634e487b7160e01b815260328752602490fd5b8280fd5b919050826003193601126109e3576109fd61373d565b610a05613781565b3383526101659160209083825260ff600684872001541615610b9157610164546001600160a01b031680610adc57503415610a9b5750907f8d5e6772da35d0173c64ddb673584aad7e4d8d1be8753288896f7008d012e2929134935b338652808252600183872001610a788682546134f1565b90553386528152600182862001549082519485528401523392a2600161012d5580f35b915162461bcd60e51b815291820181905260248201527f4d7573742073656e64204842415220746f20696e637265617365207374616b656044820152606490fd5b9291909381610b2695610aef341561365b565b61015f5485516323b872dd60e01b815233928101928352306020840152604083018290529790968892909183918b91839160600190565b03925af1948515610b87577f8d5e6772da35d0173c64ddb673584aad7e4d8d1be8753288896f7008d012e2929495610b65918891610b6a575b506136cb565b610a61565b610b819150843d8611610806576107f78183612c34565b38610b5f565b83513d88823e3d90fd5b915162461bcd60e51b815291820152601960248201527f4e6f7420612072656769737465726564207665726966696572000000000000006044820152606490fd5b919050346109e357806003193601126109e357610c0e9135610c096001610bf7612b15565b9383875260656020528620015461315c565b613267565b80f35b9050346109e35760203660031901126109e357803591610c2f612e3b565b6113888311610c415750506101625580f35b906020606492519162461bcd60e51b8352820152601c60248201527f536c617368696e672070657263656e7461676520746f6f2068696768000000006044820152fd5b83833461024f576020806003193601126109e357610ca0612afa565b9360018060a01b03938486168082526101659081855286868420541615610daf5790829186935284522094835194610cd786612bad565b86541685526001860154918386019283526002870154858701908152600388015491606088019283528801549260808801938452600589015460a0890152600689015460ff169060c08901911515825260078a01610d3490612c56565b8160e08b019b828d5260080154610100809c0152610d5191613845565b995190610d5d90613aa9565b9151151592519351945195519688519a8a8c9b8c528b01610d7d91612b4e565b908a8203908b0152610d8e91612b4e565b968801526060870152608086015260a085015260c084015260e08301520390f35b855162461bcd60e51b8152808501869052601260248201527115995c9a599a595c881b9bdd08199bdd5b9960721b6044820152606490fd5b83903461024f57602036600319011261024f57610e02612e3b565b356101635580f35b50503461024f578160031936011261024f57602090610161549051908152f35b9050346109e357826003193601126109e357610e4461373d565b610e4c613781565b3383526101689060209082825283852054928315610f6c57338652825283852085905561016454829084906001600160a01b031680610ed757508680935080925080913382f115610ecb577f48dc35af7b45e2a81fffad55f6e2fafacdb1d3d0d50d24ebdc16324f5ba757f191925b519283523392a2600161012d5580f35b505051903d90823e3d90fd5b865163a9059cbb60e01b8152339481019485526020850192909252909283919082908990829060400103925af1908115610f62577f48dc35af7b45e2a81fffad55f6e2fafacdb1d3d0d50d24ebdc16324f5ba757f1939491610f40918791610f45575b50613bad565b610ebb565b610f5c9150843d8611610806576107f78183612c34565b38610f3a565b84513d87823e3d90fd5b5060649184519162461bcd60e51b8352820152601760248201527f4e6f206561726e696e677320746f2077697468647261770000000000000000006044820152fd5b50503461024f578160031936011261024f5751908152602090f35b50503461024f578160031936011261024f57602090610163549051908152f35b9050346109e35760803660031901126109e357611004612afa565b6001600160a01b0391606435838116908190036108465785549260ff90818560081c16159384809561134a575b8015611334575b156112da575060ff1980861660019081178a5595856112c9575b50611097838a5460081c16611066816135fb565b61106f816135fb565b611078816135fb565b8260975416609755611089816135fb565b611092816135fb565b6135fb565b8561012d558880526065602097818952898b20931692838b52885283898b20541615611296575b7fa49807205ce4d355092ef5a8a18f56e8913cf4a201fbe287825b095693c21775808b52818952898b20848c528952848a8c20541615611262575b507f189ab7a9244df0848122154315af71fe140f3db0fe014031783b0946b8c9d2e3808b52818952898b20848c528952848a8c2054161561122e575b507f12b42e8a160f6064dc959c6f251e3af0750ad213dbecf573b4710d67d6c28e3993848b52818952898b20848c528952898b205416156111f9575b5050505060243561015f5560443561016055611388610161556103e86101625562278d0061016355806111df575b506111a8578380f35b7f7f26b83ff96e1f2b6a682f133852f6798a09c465da95921460cefb38474024989261ff0019855416855551908152a13880808380f35b61016480546001600160a01b03191690911790553861119f565b838a528752878920828a52875285888a20918254161790553391600080516020613cd98339815191528980a438808080611171565b808b52818952898b20848c528952898b208884825416179055833391600080516020613cd98339815191528d80a438611135565b808b52818952898b20848c528952898b208884825416179055833391600080516020613cd98339815191528d80a4386110f9565b898052808852888a20838b528852888a20878382541617905533838b600080516020613cd98339815191528180a46110be565b61ffff191661010117895538611052565b608490602089519162461bcd60e51b8352820152602e60248201527f496e697469616c697a61626c653a20636f6e747261637420697320616c72656160448201526d191e481a5b9a5d1a585b1a5e995960921b6064820152fd5b50303b1580156110385750600183871614611038565b50600183871610611031565b9050346109e357816003193601126109e3578160209360ff92611377612b15565b90358252606586528282206001600160a01b039091168252855220549151911615158152f35b50503461024f578160031936011261024f5760207f62e78cea01bee320cd4e420270b5ea74000d11b0c9f74754ebdbfc544b05a258916113db612e3b565b6113e361373d565b600160ff19609754161760975551338152a180f35b82843461166f578060031936011261166f57908190829061016654915b8281106116105750611426836137ff565b92611430816137e7565b9161143d81519384612c34565b818352601f19958661144e846137e7565b01815b8181106115fd57505061146c611466846137ff565b936137ff565b9481805b82821061151b57505050611491968251978897608089526080890190612dca565b602090888103828a01528651928382528282019083808660051b850101990195925b8584106114e3578b8a03888d01528b806114df8d6114d18e8e612e07565b908382036060850152612e07565b0390f35b91938080979b9c506115048b8486600196989a9c9d9e030188528d51612b4e565b9b0194019401918b9a9998979694919593956114b3565b61152b829a95969798999a612d7d565b60018060a01b0391549060031b1c168085528a610165918a898860209486865260ff6006848420015416611578575b505050505050509061156b906137d8565b9098979695949398611470565b968095936115b1866115ac600782976115c1976115f19d9b61156b9f8961159e91613831565b528481528b8b522001612c56565b613845565b6115bb8383613831565b52613831565b508b6115d6856115d084613aa9565b92613831565b52885252600288872001546115eb828d613831565b526137d8565b908b808a89888f61155a565b6060602082880181019190915201611451565b61161e819593949295612d7d565b905460039190911b1c6001600160a01b031683526101656020528483206006015460ff1661165a575b611650906137d8565b9390929193611415565b90611667611650916137d8565b919050611647565b80fd5b50503461024f578160031936011261024f57602090517fa49807205ce4d355092ef5a8a18f56e8913cf4a201fbe287825b095693c217758152f35b50503461024f578160031936011261024f576101645490516001600160a01b039091168152602090f35b83833461024f57602036600319011261024f576001600160a01b039161177d90829084611702612afa565b16815261016560205220928354169260018101549460028201549060038301549083015460058401549160ff60068601541693600861174360078801612c56565b9601549780519a8b9a8b5260208b01528901526060880152608087015260a0860152151560c08501526101208060e0860152840190612b4e565b906101008301520390f35b82843461166f578060031936011261166f57610166549181805b84811061183f57506117b3906137ff565b9180805b8581106117d3578351602080825281906114df90820188612dca565b6117dc81612d7d565b60018060a01b03809254600392831b1c16845261016560205260ff6006878620015416611814575b505061180f906137d8565b6117b7565b9361183791839561182761180f95612d7d565b9054911b1c166115eb8289613831565b929087611804565b61184881612d7d565b905460039190911b1c6001600160a01b031684526101656020528284206006015460ff1661187f575b61187a906137d8565b6117a2565b9061188c61187a916137d8565b919050611871565b50503461024f578160031936011261024f57602090610162549051908152f35b50503461024f578160031936011261024f5760209060ff6097541690519015158152f35b9050346109e35760203660031901126109e35735916101665483101561166f5750611904602092612d7d565b905491519160018060a01b039160031b1c168152f35b9050823461166f578060031936011261166f57507f00000000000000000000000000000000000000000000000000000000000000006001600160a01b031630036119755760208251600080516020613d198339815191528152f35b6020608492519162461bcd60e51b8352820152603860248201527f555550535570677261646561626c653a206d757374206e6f742062652063616c60448201527f6c6564207468726f7567682064656c656761746563616c6c00000000000000006064820152fd5b50503461024f578160031936011261024f57602090517f12b42e8a160f6064dc959c6f251e3af0750ad213dbecf573b4710d67d6c28e398152f35b918091506003193601126109e357611a2e612afa565b9060243567ffffffffffffffff811161063b573660238201121561063b57611a5f9036906024818701359101612d46565b6001600160a01b037f00000000000000000000000000000000000000000000000000000000000000008116929190611a99308514156132dd565b611ab6600080516020613d1983398151915294828654161461333e565b611abe613017565b7f4910fdfa16fed3260ed0e7147f7cc6da11a60208b5b9406d12a635614ffd91435460ff1615611af65750505050610c0e915061339f565b82516352d1902d60e01b81526020959394918416919086818981865afa899181611cb9575b50611b7a57855162461bcd60e51b8152808901889052602e60248201527f45524331393637557067726164653a206e657720696d706c656d656e7461746960448201526d6f6e206973206e6f74205555505360901b6064820152608490fd5b9691929594939603611c645750611b908561339f565b7fbc7cd75a20ee27fd9adebab32041f755214dbc6bffa90cc0225b39da2e5c2d3b8680a2825115801590611c5c575b611bcb575b5050505080f35b611c48938580835195611bdd87612be0565b602787527f416464726573733a206c6f772d6c6576656c2064656c65676174652063616c6c86880152660819985a5b195960ca1b858801528581519101845af4913d15611c52573d611c3a611c3182612d2a565b92519283612c34565b81528681943d92013e61342f565b5038808080611bc4565b506060925061342f565b506001611bbf565b825162461bcd60e51b8152908101849052602960248201527f45524331393637557067726164653a20756e737570706f727465642070726f786044820152681a58589b195555525160ba1b6064820152608490fd5b9091508781813d8311611ce5575b611cd18183612c34565b81010312611ce157519038611b1b565b8980fd5b503d611cc7565b83903461024f57602036600319011261024f57611d07612e3b565b3561015f5580f35b50503461024f578160031936011261024f57611d29612e3b565b815b61016654811015611e115780611d43611d8292612d7d565b60018060a01b0391549060031b1c168085526101656020908082528587209160069260ff84820154169081611df7575b50611d87575b505050506137d8565b611d2b565b7f0bb0e736b635387caa7eacd963cb5ebd26d81acc0b84decb6818d7b7277f67e992606092858a5282528789200160ff198154169055601d8751918083528201527f496e6163746976697479207468726573686f6c6420657863656564656400000087820152a238808080611d79565b611e0691506005015442613a9c565b610163541038611d73565b8280f35b919050346109e35760603660031901126109e357813590611e34612b15565b9260443580151591828203611f9c57611e4b612e3b565b611e5361373d565b60018060a01b0386169586885261016591602093838552611e7c60ff6006898d20015416613a5a565b878a526101679384865260ff83898d20015416611f595791879695949391611f149360037fb48e6a2cde5d6737db899ca96abf738de637e170d6e1bc4837e601531521e5979a8e8e8e8252898b52868383200160018d61ff0083549160081b169061ffff1916171790558152838a522001611ef781546137d8565b90558b8d528652878c2090426005830155611f45575b5050613beb565b858852815260028388200154908688526101688152838820611f378382546134f1565b90558351928352820152a380f35b01611f5081546137d8565b90553880611f0d565b875162461bcd60e51b8152808401879052601e60248201527f566572696669636174696f6e20616c726561647920636f6d706c6574656400006044820152606490fd5b8680fd5b9050346109e357826003193601126109e357611fba612e3b565b6097549060ff821615611ffc575060ff1916609755513381527f5db9ee0a495bf2e6ff9c91a7834c1ba4fdd244a5e8aa4e537bd38aeae4b073aa90602090a180f35b606490602084519162461bcd60e51b8352820152601460248201527314185d5cd8589b194e881b9bdd081c185d5cd95960621b6044820152fd5b919050346109e3576020806003193601126122f157612053612afa565b916001600160a01b037f0000000000000000000000000000000000000000000000000000000000000000811661208b308214156132dd565b6120a8600080516020613d1983398151915291838354161461333e565b6120b0613017565b8251908482019282841067ffffffffffffffff8511176122de578385528883527f4910fdfa16fed3260ed0e7147f7cc6da11a60208b5b9406d12a635614ffd91435460ff161561210a57505050505050610c0e915061339f565b869293949596169085516352d1902d60e01b815287818a81865afa8a91816122ab575b5061218c57865162461bcd60e51b8152808a01899052602e60248201527f45524331393637557067726164653a206e657720696d706c656d656e7461746960448201526d6f6e206973206e6f74205555505360901b6064820152608490fd5b97919293969594970361225657506121a38261339f565b7fbc7cd75a20ee27fd9adebab32041f755214dbc6bffa90cc0225b39da2e5c2d3b8780a28584511580159061224f575b6121e1575b50505050505080f35b80612243968451966121f288612be0565b602788527f416464726573733a206c6f772d6c6576656c2064656c65676174652063616c6c87890152660819985a5b195960ca1b868901525190845af4913d15611c52573d611c3a611c3182612d2a565b503880808080856121d8565b50806121d3565b835162461bcd60e51b8152908101859052602960248201527f45524331393637557067726164653a20756e737570706f727465642070726f786044820152681a58589b195555525160ba1b6064820152608490fd5b9091508881813d83116122d7575b6122c38183612c34565b810103126122d35751903861212d565b8a80fd5b503d6122b9565b634e487b7160e01b895260418852602489fd5b8380fd5b8391503461024f578260031936011261024f57612310612b15565b90336001600160a01b0383160361232c5790610c0e9135613267565b608490602085519162461bcd60e51b8352820152602f60248201527f416363657373436f6e74726f6c3a2063616e206f6e6c792072656e6f756e636560448201526e103937b632b9903337b91039b2b63360891b6064820152fd5b9050346109e357816003193601126109e35735906123a3612b15565b9082845260656020526123bb6001828620015461315c565b828452606560209081528185206001600160a01b039093168086529290528084205460ff16156123e9578380f35b82845260656020528084208285526020528320600160ff198254161790553391600080516020613cd98339815191528480a43880808380f35b83903461024f57602036600319011261024f5761243d612e3b565b356101615580f35b9050346109e35760203660031901126109e35781602093600192358152606585522001549051908152f35b83602084366003190182136109e35767ffffffffffffffff843581811161063b5761249e9036908701612cfc565b9290916124a961373d565b6124b1613781565b338652610165855260ff600683882001541661286e57831561282b57610164546001600160a01b0391908216806127a3575061015f5434106127605734955b8351916124fc83612bad565b3383528782840152611388858401528860608401528860808401524260a0840152600160c084015261252f368888612d46565b60e08401908152610100840191428352338b526101658452868b2094868151166bffffffffffffffffffffffff60a01b8754161786558481015160018701558781015160028701556060810151600387015560808101518d87015560a0810151600587015560c060068701910151151560ff80198354169116179055600785019151805191821161274d576125c48354612b73565b601f8111612705575b5084908c601f8411600114612699576008965091908361268e575b50508160011b916000199060031b1c19161790555b519101556101668054906801000000000000000082101561267b57916126508261266f9460017ff0734b98dfc7770549b33ca5c3f377b6fd40ebbfb8f6d7e39aee74fd5b3530de99989795019055612d7d565b819291549060031b9133831b921b19161790555192839233968461370f565b0390a2600161012d5580f35b634e487b7160e01b885260418952602488fd5b015190508d806125e8565b92939495601f1985169086855280852094905b8282106126ed575050916001939185600898979694106126d4575b505050811b0190556125fd565b015160001960f88460031b161c191690558d80806126c7565b806001869782949787015181550196019401906126ac565b838d52858d20601f840160051c810191878510612743575b601f0160051c01908d905b8281106127365750506125cd565b6001918155018d90612728565b909150819061271d565b634e487b7160e01b8c5260418d5260248cfd5b825162461bcd60e51b8152808901879052601960248201527f496e73756666696369656e74207374616b6520616d6f756e74000000000000006044820152606490fd5b956127ae341561365b565b61015f5484516323b872dd60e01b815233818c0190815230602082015260408101839052919890918391839182908d90829060600103925af190811561282157906127ff918a9161280457506136cb565b6124f0565b61281b9150833d8511610806576107f78183612c34565b8b610b5f565b85513d8b823e3d90fd5b815162461bcd60e51b8152808801869052601860248201527f4d657461646174612063616e6e6f7420626520656d70747900000000000000006044820152606490fd5b815162461bcd60e51b8152808801869052601e60248201527f416c7265616479207265676973746572656420617320766572696669657200006044820152606490fd5b82843461166f57602036600319011261166f57816114df9184358152610167602052209160ff60018060a01b0393848154169460018201541695600282015461290560056003850154938501549401612c56565b9480519889988952602089015287015260608601528181161515608086015260081c16151560a084015260e060c084015260e0830190612b4e565b50503461024f578160031936011261024f57602090610160549051908152f35b83833461024f576020918260031936011261166f57612a9d612980612afa565b948380519361298e85612bad565b808552808786015280828601528060608601528060808601528060a08601528060c0860152606060e0860152806101008096015260018060a01b038098168152610165875220845196879586936129e485612bad565b8284541685526001840154918986019283526002850154908087019182526003860154926060880193845286015493608088019485528b60058801549660a08a019788528b600860ff60068c0154169a60c08d019b15158c5260e0612a4b60078301612c56565b9d019c8d5201549d019c8d5283519e8f9e8f525116908d015251908b01525160608a01525160808901525160a08801525160c087015251151560e0860152516101208093860152610140850190612b4e565b9151908301520390f35b8491346109e35760203660031901126109e3573563ffffffff60e01b81168091036109e35760209250637965db0b60e01b8114908115612ae9575b5015158152f35b6301ffc9a760e01b14905083612ae2565b600435906001600160a01b0382168203612b1057565b600080fd5b602435906001600160a01b0382168203612b1057565b60005b838110612b3e5750506000910152565b8181015183820152602001612b2e565b90602091612b6781518092818552858086019101612b2b565b601f01601f1916010190565b90600182811c92168015612ba3575b6020831014612b8d57565b634e487b7160e01b600052602260045260246000fd5b91607f1691612b82565b610120810190811067ffffffffffffffff821117612bca57604052565b634e487b7160e01b600052604160045260246000fd5b6060810190811067ffffffffffffffff821117612bca57604052565b6040810190811067ffffffffffffffff821117612bca57604052565b6080810190811067ffffffffffffffff821117612bca57604052565b90601f8019910116810190811067ffffffffffffffff821117612bca57604052565b9060405191826000825492612c6a84612b73565b908184526001948581169081600014612cd95750600114612c96575b5050612c9492500383612c34565b565b9093915060005260209081600020936000915b818310612cc1575050612c9493508201013880612c86565b85548884018501529485019487945091830191612ca9565b915050612c9494506020925060ff191682840152151560051b8201013880612c86565b9181601f84011215612b105782359167ffffffffffffffff8311612b105760208381860195010111612b1057565b67ffffffffffffffff8111612bca57601f01601f191660200190565b929192612d5282612d2a565b91612d606040519384612c34565b829481845281830111612b10578281602093846000960137010152565b6101668054821015612db4576000527fa5a4c57b7184ec73d55be4993773cb4eef681bc86a28d0285cd66efb50676a970190600090565b634e487b7160e01b600052603260045260246000fd5b90815180825260208080930193019160005b828110612dea575050505090565b83516001600160a01b031685529381019392810192600101612ddc565b90815180825260208080930193019160005b828110612e27575050505090565b835185529381019392810192600101612e19565b3360009081527f2c01dc0041dfb6d4238a91e5a638996136aed16f837d5beb45610732cf9bf4b0602090815260408083205490927fa49807205ce4d355092ef5a8a18f56e8913cf4a201fbe287825b095693c217759160ff1615612e9f5750505050565b612ea83361350f565b91845190612eb582612c18565b6042825284820192606036853782511561300357603084538251906001918210156130035790607860218501536041915b818311612f9557505050612f6557604861057c938693612f4993612f3a985198899376020b1b1b2b9b9a1b7b73a3937b61d1030b1b1b7bab73a1604d1b8a86015261052c815180928c603789019101612b2b565b01036028810187520185612c34565b5192839262461bcd60e51b845260048401526024830190612b4e565b60648486519062461bcd60e51b82528060048301526024820152600080516020613cf98339815191526044820152fd5b909192600f81166010811015612fef576f181899199a1a9b1b9c1cb0b131b232b360811b901a612fc585876134fe565b5360041c928015612fdb57600019019190612ee6565b634e487b7160e01b82526011600452602482fd5b634e487b7160e01b83526032600452602483fd5b634e487b7160e01b81526032600452602490fd5b3360009081527f61c6261e6978331c793eee420d743e773864e0ec05cc862750e423d64f73e9f6602090815260408083205490927f189ab7a9244df0848122154315af71fe140f3db0fe014031783b0946b8c9d2e39160ff161561307b5750505050565b6130843361350f565b9184519061309182612c18565b6042825284820192606036853782511561300357603084538251906001918210156130035790607860218501536041915b81831161311657505050612f6557604861057c938693612f4993612f3a985198899376020b1b1b2b9b9a1b7b73a3937b61d1030b1b1b7bab73a1604d1b8a86015261052c815180928c603789019101612b2b565b909192600f81166010811015612fef576f181899199a1a9b1b9c1cb0b131b232b360811b901a61314685876134fe565b5360041c928015612fdb576000190191906130c2565b60009080825260209060658252604092838120338252835260ff8482205416156131865750505050565b61318f3361350f565b9184519061319c82612c18565b6042825284820192606036853782511561300357603084538251906001918210156130035790607860218501536041915b81831161322157505050612f6557604861057c938693612f4993612f3a985198899376020b1b1b2b9b9a1b7b73a3937b61d1030b1b1b7bab73a1604d1b8a86015261052c815180928c603789019101612b2b565b909192600f81166010811015612fef576f181899199a1a9b1b9c1cb0b131b232b360811b901a61325185876134fe565b5360041c928015612fdb576000190191906131cd565b906000918083526065602052604083209160018060a01b03169182845260205260ff60408420541661329857505050565b8083526065602052604083208284526020526040832060ff1981541690557ff6391f5c32d9c69d2a47ea670b442974b53935d1edc7fd64eb21e047a839171b339380a4565b156132e457565b60405162461bcd60e51b815260206004820152602c60248201527f46756e6374696f6e206d7573742062652063616c6c6564207468726f7567682060448201526b19195b1959d85d1958d85b1b60a21b6064820152608490fd5b1561334557565b60405162461bcd60e51b815260206004820152602c60248201527f46756e6374696f6e206d7573742062652063616c6c6564207468726f7567682060448201526b6163746976652070726f787960a01b6064820152608490fd5b803b156133d457600080516020613d1983398151915280546001600160a01b0319166001600160a01b03909216919091179055565b60405162461bcd60e51b815260206004820152602d60248201527f455243313936373a206e657720696d706c656d656e746174696f6e206973206e60448201526c1bdd08184818dbdb9d1c9858dd609a1b6064820152608490fd5b919290156134915750815115613443575090565b3b1561344c5790565b60405162461bcd60e51b815260206004820152601d60248201527f416464726573733a2063616c6c20746f206e6f6e2d636f6e74726163740000006044820152606490fd5b8251909150156134a45750805190602001fd5b60405162461bcd60e51b81526020600482015290819061057c906024830190612b4e565b818102929181159184041417156134db57565b634e487b7160e01b600052601160045260246000fd5b919082018092116134db57565b908151811015612db4570160200190565b6040519061351c82612be0565b602a8252602082016040368237825115612db457603090538151600190811015612db457607860218401536029905b80821161358d57505061355b5790565b606460405162461bcd60e51b81526020600482015260206024820152600080516020613cf98339815191526044820152fd5b9091600f811660108110156135e6576f181899199a1a9b1b9c1cb0b131b232b360811b901a6135bc84866134fe565b5360041c9180156135d157600019019061354b565b60246000634e487b7160e01b81526011600452fd5b60246000634e487b7160e01b81526032600452fd5b1561360257565b60405162461bcd60e51b815260206004820152602b60248201527f496e697469616c697a61626c653a20636f6e7472616374206973206e6f74206960448201526a6e697469616c697a696e6760a81b6064820152608490fd5b1561366257565b60405162461bcd60e51b8152602060048201526024808201527f4e6f206e61746976652063757272656e637920666f7220746f6b656e207374616044820152636b696e6760e01b6064820152608490fd5b90816020910312612b1057518015158103612b105790565b156136d257565b60405162461bcd60e51b815260206004820152601560248201527414dd185ad9481d1c985b9cd9995c8819985a5b1959605a1b6044820152606490fd5b91926060938192845260406020850152816040850152848401376000828201840152601f01601f1916010190565b60ff6097541661374957565b60405162461bcd60e51b815260206004820152601060248201526f14185d5cd8589b194e881c185d5cd95960821b6044820152606490fd5b61012d60028154146137935760029055565b60405162461bcd60e51b815260206004820152601f60248201527f5265656e7472616e637947756172643a207265656e7472616e742063616c6c006044820152606490fd5b60001981146134db5760010190565b67ffffffffffffffff8111612bca5760051b60200190565b90613809826137e7565b6138166040519182612c34565b8281528092613827601f19916137e7565b0190602036910137565b8051821015612db45760209160051b010190565b80511580159081613a39575b501561387d57505060405161386581612bfc565b60088152672b32b934b334b2b960c11b602082015290565b51156138b5575060405161389081612bfc565b601581527415995c9a599a595908141c9bd9995cdcda5bdb985b605a1b602082015290565b604051906001600160a01b03166138cb82612bfc565b601082526020916f181899199a1a9b1b9c1cb0b131b232b360811b83820152604051906138f782612be0565b602a8252838201926040368537825115612db45760308453825191600192831015612db4576078602185015360005b6014811061397257505050506802b32b934b334b2b9160bd1b9261396f9261395f60299360405196879485015251809285850190612b2b565b8101036009810184520182612c34565b90565b600c81018082116134db5787811015612db45783901a60046001600160f81b0319600f816139a485851c8316886134fe565b51169385891b94600290878704821488151715613a2457868201809211613a2457906139d96139e194939260001a918d6134fe565b5316866134fe565b5116906003928301809311613a0f575090613a04613a0a939260001a91886134fe565b536137d8565b613926565b601190634e487b7160e01b6000525260246000fd5b601186634e487b7160e01b6000525260246000fd5b9050612db45760208101516001600160f81b031916607b60f81b1438613851565b15613a6157565b60405162461bcd60e51b81526020600482015260136024820152725665726966696572206e6f742061637469766560681b6044820152606490fd5b919082039182116134db57565b60018060a01b03166000908082526101659081602052613ad260ff600660408620015416613a5a565b8252602052600260408220015490611387198201918213600116613b995761016154600160ff1b928082029183821285821416613b85578183051490151715612fdb576127109081900591808312613b3f575061396f9250613b386101605492836134c8565b04906134f1565b9161016054938114613b7157613b57908303846134c8565b049050818110613b68575060011c90565b61396f91613a9c565b634e487b7160e01b83526011600452602483fd5b634e487b7160e01b84526011600452602484fd5b634e487b7160e01b81526011600452602490fd5b15613bb457565b60405162461bcd60e51b815260206004820152600f60248201526e151c985b9cd9995c8819985a5b1959608a1b6044820152606490fd5b6001600160a01b031660008181526101656020819052604082206003810154600482015490939290918415613cd05760020154936127109283810290808204851490151715613cbc57046007850285810460071486151715613cbc57600382029180830460031490151715613cbc5791600a613c8d7f5b88a2e3fc1a53234357ab78c104df11c33ccfa79886793654565ad70b8afb6e979593604097956134f1565b0491808311613cb4575b5084836002928985965260205220015582519182526020820152a2565b915084613c97565b634e487b7160e01b85526011600452602485fd5b50505050505056fe2f8788117e7eff1d82e926ec794901d17c78024a50270940304540a733656f0d537472696e67733a20686578206c656e67746820696e73756666696369656e74360894a13ba1a3210667c828492db98dca3e2076cc3735a920a3ca505d382bbca2646970667358221220d59c79368c5235b81183b90cfff6ac2beb3eeea1b66acad0332eca6334027ee664736f6c63430008130033",
  "linkReferences": {},
  "deployedLinkReferences": {}
}